{"contracts/test/usdtwithfee.sol":{"TetherToken":{"abi":[{"constant":true,"inputs":[],"name":"name","outputs":[{"name":"","type":"string"}],"payable":false,"stateMutability":"view","type":"function"},{"constant":false,"inputs":[{"name":"_upgradedAddress","type":"address"}],"name":"deprecate","outputs":[],"payable":false,"stateMutability":"nonpayable","type":"function"},{"constant":false,"inputs":[{"name":"_spender","type":"address"},{"name":"_value","type":"uint256"}],"name":"approve","outputs":[],"payable":false,"stateMutability":"nonpayable","type":"function"},{"constant":true,"inputs":[],"name":"deprecated","outputs":[{"name":"","type":"bool"}],"payable":false,"stateMutability":"view","type":"function"},{"constant":false,"inputs":[{"name":"_evilUser","type":"address"}],"name":"addBlackList","outputs":[],"payable":false,"stateMutability":"nonpayable","type":"function"},{"constant":true,"inputs":[],"name":"totalSupply","outputs":[{"name":"","type":"uint256"}],"payable":false,"stateMutability":"view","type":"function"},{"constant":false,"inputs":[{"name":"_from","type":"address"},{"name":"_to","type":"address"},{"name":"_value","type":"uint256"}],"name":"transferFrom","outputs":[],"payable":false,"stateMutability":"nonpayable","type":"function"},{"constant":true,"inputs":[],"name":"upgradedAddress","outputs":[{"name":"","type":"address"}],"payable":false,"stateMutability":"view","type":"function"},{"constant":true,"inputs":[{"name":"","type":"address"}],"name":"balances","outputs":[{"name":"","type":"uint256"}],"payable":false,"stateMutability":"view","type":"function"},{"constant":true,"inputs":[],"name":"decimals","outputs":[{"name":"","type":"uint256"}],"payable":false,"stateMutability":"view","type":"function"},{"constant":true,"inputs":[],"name":"maximumFee","outputs":[{"name":"","type":"uint256"}],"payable":false,"stateMutability":"view","type":"function"},{"constant":true,"inputs":[],"name":"_totalSupply","outputs":[{"name":"","type":"uint256"}],"payable":false,"stateMutability":"view","type":"function"},{"constant":false,"inputs":[],"name":"unpause","outputs":[],"payable":false,"stateMutability":"nonpayable","type":"function"},{"constant":true,"inputs":[{"name":"_maker","type":"address"}],"name":"getBlackListStatus","outputs":[{"name":"","type":"bool"}],"payable":false,"stateMutability":"view","type":"function"},{"constant":true,"inputs":[{"name":"","type":"address"},{"name":"","type":"address"}],"name":"allowed","outputs":[{"name":"","type":"uint256"}],"payable":false,"stateMutability":"view","type":"function"},{"constant":true,"inputs":[],"name":"paused","outputs":[{"name":"","type":"bool"}],"payable":false,"stateMutability":"view","type":"function"},{"constant":true,"inputs":[{"name":"who","type":"address"}],"name":"balanceOf","outputs":[{"name":"","type":"uint256"}],"payable":false,"stateMutability":"view","type":"function"},{"constant":false,"inputs":[],"name":"pause","outputs":[],"payable":false,"stateMutability":"nonpayable","type":"function"},{"constant":true,"inputs":[],"name":"getOwner","outputs":[{"name":"","type":"address"}],"payable":false,"stateMutability":"view","type":"function"},{"constant":true,"inputs":[],"name":"owner","outputs":[{"name":"","type":"address"}],"payable":false,"stateMutability":"view","type":"function"},{"constant":true,"inputs":[],"name":"symbol","outputs":[{"name":"","type":"string"}],"payable":false,"stateMutability":"view","type":"function"},{"constant":false,"inputs":[{"name":"_to","type":"address"},{"name":"_value","type":"uint256"}],"name":"transfer","outputs":[],"payable":false,"stateMutability":"nonpayable","type":"function"},{"constant":false,"inputs":[{"name":"newBasisPoints","type":"uint256"},{"name":"newMaxFee","type":"uint256"}],"name":"setParams","outputs":[],"payable":false,"stateMutability":"nonpayable","type":"function"},{"constant":false,"inputs":[{"name":"amount","type":"uint256"}],"name":"issue","outputs":[],"payable":false,"stateMutability":"nonpayable","type":"function"},{"constant":false,"inputs":[{"name":"amount","type":"uint256"}],"name":"redeem","outputs":[],"payable":false,"stateMutability":"nonpayable","type":"function"},{"constant":true,"inputs":[{"name":"_owner","type":"address"},{"name":"_spender","type":"address"}],"name":"allowance","outputs":[{"name":"remaining","type":"uint256"}],"payable":false,"stateMutability":"view","type":"function"},{"constant":true,"inputs":[],"name":"basisPointsRate","outputs":[{"name":"","type":"uint256"}],"payable":false,"stateMutability":"view","type":"function"},{"constant":true,"inputs":[{"name":"","type":"address"}],"name":"isBlackListed","outputs":[{"name":"","type":"bool"}],"payable":false,"stateMutability":"view","type":"function"},{"constant":false,"inputs":[{"name":"_clearedUser","type":"address"}],"name":"removeBlackList","outputs":[],"payable":false,"stateMutability":"nonpayable","type":"function"},{"constant":true,"inputs":[],"name":"MAX_UINT","outputs":[{"name":"","type":"uint256"}],"payable":false,"stateMutability":"view","type":"function"},{"constant":false,"inputs":[{"name":"newOwner","type":"address"}],"name":"transferOwnership","outputs":[],"payable":false,"stateMutability":"nonpayable","type":"function"},{"constant":false,"inputs":[{"name":"_blackListedUser","type":"address"}],"name":"destroyBlackFunds","outputs":[],"payable":false,"stateMutability":"nonpayable","type":"function"},{"inputs":[{"name":"_initialSupply","type":"uint256"},{"name":"_name","type":"string"},{"name":"_symbol","type":"string"},{"name":"_decimals","type":"uint256"}],"payable":false,"stateMutability":"nonpayable","type":"constructor"},{"anonymous":false,"inputs":[{"indexed":false,"name":"amount","type":"uint256"}],"name":"Issue","type":"event"},{"anonymous":false,"inputs":[{"indexed":false,"name":"amount","type":"uint256"}],"name":"Redeem","type":"event"},{"anonymous":false,"inputs":[{"indexed":false,"name":"newAddress","type":"address"}],"name":"Deprecate","type":"event"},{"anonymous":false,"inputs":[{"indexed":false,"name":"feeBasisPoints","type":"uint256"},{"indexed":false,"name":"maxFee","type":"uint256"}],"name":"Params","type":"event"},{"anonymous":false,"inputs":[{"indexed":false,"name":"_blackListedUser","type":"address"},{"indexed":false,"name":"_balance","type":"uint256"}],"name":"DestroyedBlackFunds","type":"event"},{"anonymous":false,"inputs":[{"indexed":false,"name":"_user","type":"address"}],"name":"AddedBlackList","type":"event"},{"anonymous":false,"inputs":[{"indexed":false,"name":"_user","type":"address"}],"name":"RemovedBlackList","type":"event"},{"anonymous":false,"inputs":[{"indexed":true,"name":"owner","type":"address"},{"indexed":true,"name":"spender","type":"address"},{"indexed":false,"name":"value","type":"uint256"}],"name":"Approval","type":"event"},{"anonymous":false,"inputs":[{"indexed":true,"name":"from","type":"address"},{"indexed":true,"name":"to","type":"address"},{"indexed":false,"name":"value","type":"uint256"}],"name":"Transfer","type":"event"},{"anonymous":false,"inputs":[],"name":"Pause","type":"event"},{"anonymous":false,"inputs":[],"name":"Unpause","type":"event"}],"devdoc":{"methods":{"pause()":{"details":"called by the owner to pause, triggers stopped state"},"transferOwnership(address)":{"details":"Allows the current owner to transfer control of the contract to a newOwner.","params":{"newOwner":"The address to transfer ownership to."}},"unpause()":{"details":"called by the owner to unpause, returns to normal state"}}},"evm":{"assembly":"    /* \"contracts/test/usdtwithfee.sol\":9808:14589  contract TetherToken is Pausable, StandardToken, BlackList {... */\n  mstore(0x40, 0x60)\n    /* \"contracts/test/usdtwithfee.sol\":7425:7430  false */\n  0x0\n    /* \"contracts/test/usdtwithfee.sol\":7404:7430  bool public paused = false */\n  dup1\n  sload\n  not(mul(0xff, exp(0x2, 0xa0)))\n  and\n  swap1\n  sstore\n    /* \"contracts/test/usdtwithfee.sol\":3071:3072  5 */\n  0x5\n    /* \"contracts/test/usdtwithfee.sol\":3041:3072  uint public basisPointsRate = 5 */\n  0x3\n  sstore\n    /* \"contracts/test/usdtwithfee.sol\":3114:3118  1e18 */\n  0xde0b6b3a7640000\n    /* \"contracts/test/usdtwithfee.sol\":3089:3118  uint public maximumFee = 1e18 */\n  0x4\n  sstore\n    /* \"contracts/test/usdtwithfee.sol\":10303:10592  function TetherToken(uint _initialSupply, string _name, string _symbol, uint _decimals) public {... */\n  jumpi(tag_1, iszero(callvalue))\n  0x0\n  dup1\n  revert\ntag_1:\n  mload(0x40)\n  sub(codesize, bytecodeSize)\n  dup1\n  bytecodeSize\n  dup4\n  codecopy\n  dup2\n  add\n  0x40\n  mstore\n  dup1\n  dup1\n  mload\n  swap2\n  swap1\n  0x20\n  add\n  dup1\n  mload\n  dup3\n  add\n  swap2\n  swap1\n  0x20\n  add\n  dup1\n  mload\n  dup3\n  add\n  swap2\n  swap1\n  0x20\n  add\n  dup1\n  mload\n    /* \"contracts/test/usdtwithfee.sol\":1378:1383  owner */\n  0x0\n    /* \"contracts/test/usdtwithfee.sol\":1378:1396  owner = msg.sender */\n  dup1\n  sload\n  not(sub(exp(0x2, 0xa0), 0x1))\n  and\n    /* \"contracts/test/usdtwithfee.sol\":1386:1396  msg.sender */\n  caller\n  sub(exp(0x2, 0xa0), 0x1)\n    /* \"contracts/test/usdtwithfee.sol\":1378:1396  owner = msg.sender */\n  and\n  or\n  swap1\n  sstore\n  0x1\n    /* \"contracts/test/usdtwithfee.sol\":10408:10437  _totalSupply = _initialSupply */\n  dup7\n  swap1\n  sstore\n    /* \"contracts/test/usdtwithfee.sol\":10303:10592  function TetherToken(uint _initialSupply, string _name, string _symbol, uint _decimals) public {... */\n  swap2\n  pop\n    /* \"contracts/test/usdtwithfee.sol\":10447:10451  name */\n  0x7\n  swap1\n  pop\n    /* \"contracts/test/usdtwithfee.sol\":10454:10459  _name */\n  dup4\n  dup1\n    /* \"contracts/test/usdtwithfee.sol\":10447:10459  name = _name */\n  mload\n  tag_6\n  swap3\n  swap2\n  0x20\n  add\n  swap1\n  jump\t// in(tag_7)\ntag_6:\n  pop\n    /* \"contracts/test/usdtwithfee.sol\":10469:10475  symbol */\n  0x8\n    /* \"contracts/test/usdtwithfee.sol\":10478:10485  _symbol */\n  dup3\n  dup1\n    /* \"contracts/test/usdtwithfee.sol\":10469:10485  symbol = _symbol */\n  mload\n  tag_8\n  swap3\n  swap2\n  0x20\n  add\n  swap1\n  jump\t// in(tag_7)\ntag_8:\n  pop\n    /* \"contracts/test/usdtwithfee.sol\":10495:10503  decimals */\n  0x9\n    /* \"contracts/test/usdtwithfee.sol\":10495:10515  decimals = _decimals */\n  sstore\n  pop\n  pop\n    /* \"contracts/test/usdtwithfee.sol\":10525:10540  balances[owner] */\n  0x0\n    /* \"contracts/test/usdtwithfee.sol\":10534:10539  owner */\n  dup1\n  sload\n  sub(exp(0x2, 0xa0), 0x1)\n  and\n    /* \"contracts/test/usdtwithfee.sol\":10525:10540  balances[owner] */\n  dup2\n  mstore\n    /* \"contracts/test/usdtwithfee.sol\":10525:10533  balances */\n  0x2\n    /* \"contracts/test/usdtwithfee.sol\":10525:10540  balances[owner] */\n  0x20\n  mstore\n  0x40\n  swap1\n  keccak256\n    /* \"contracts/test/usdtwithfee.sol\":10525:10557  balances[owner] = _initialSupply */\n  sstore\n    /* \"contracts/test/usdtwithfee.sol\":10567:10577  deprecated */\n  0xa\n    /* \"contracts/test/usdtwithfee.sol\":10567:10585  deprecated = false */\n  dup1\n  sload\n  not(mul(0xff, exp(0x2, 0xa0)))\n  and\n  swap1\n  sstore\n    /* \"contracts/test/usdtwithfee.sol\":9808:14589  contract TetherToken is Pausable, StandardToken, BlackList {... */\n  jump(tag_9)\ntag_7:\n  dup3\n  dup1\n  sload\n  0x1\n  dup2\n  0x1\n  and\n  iszero\n  0x100\n  mul\n  sub\n  and\n  0x2\n  swap1\n  div\n  swap1\n  0x0\n  mstore\n  keccak256(0x0, 0x20)\n  swap1\n  0x1f\n  add\n  0x20\n  swap1\n  div\n  dup2\n  add\n  swap3\n  dup3\n  0x1f\n  lt\n  tag_11\n  jumpi\n  dup1\n  mload\n  not(0xff)\n  and\n  dup4\n  dup1\n  add\n  or\n  dup6\n  sstore\n  jump(tag_13)\ntag_11:\n  dup3\n  dup1\n  add\n  0x1\n  add\n  dup6\n  sstore\n  dup3\n  iszero\n  tag_13\n  jumpi\n  swap2\n  dup3\n  add\ntag_12:\n  dup3\n  dup2\n  gt\n  iszero\n  tag_13\n  jumpi\n  dup3\n  mload\n  dup3\n  sstore\n  swap2\n  0x20\n  add\n  swap2\n  swap1\n  0x1\n  add\n  swap1\n  jump(tag_12)\ntag_13:\n  pop\n  tag_14\n  swap3\n  swap2\n  pop\n  jump\t// in(tag_15)\ntag_14:\n  pop\n  swap1\n  jump\t// out\ntag_15:\n  tag_16\n  swap2\n  swap1\ntag_17:\n  dup1\n  dup3\n  gt\n  iszero\n  tag_14\n  jumpi\n  0x0\n  dup2\n  sstore\n  0x1\n  add\n  jump(tag_17)\ntag_16:\n  swap1\n  jump\t// out\ntag_9:\n  dataSize(sub_0)\n  dup1\n  dataOffset(sub_0)\n  0x0\n  codecopy\n  0x0\n  return\nstop\n\nsub_0: assembly {\n        /* \"contracts/test/usdtwithfee.sol\":9808:14589  contract TetherToken is Pausable, StandardToken, BlackList {... */\n      mstore(0x40, 0x60)\n      jumpi(tag_1, iszero(calldatasize))\n      and(div(calldataload(0x0), exp(0x2, 0xe0)), 0xffffffff)\n      0x6fdde03\n      dup2\n      eq\n      tag_2\n      jumpi\n      dup1\n      0x753c30c\n      eq\n      tag_3\n      jumpi\n      dup1\n      0x95ea7b3\n      eq\n      tag_4\n      jumpi\n      dup1\n      0xe136b19\n      eq\n      tag_5\n      jumpi\n      dup1\n      0xecb93c0\n      eq\n      tag_6\n      jumpi\n      dup1\n      0x18160ddd\n      eq\n      tag_7\n      jumpi\n      dup1\n      0x23b872dd\n      eq\n      tag_8\n      jumpi\n      dup1\n      0x26976e3f\n      eq\n      tag_9\n      jumpi\n      dup1\n      0x27e235e3\n      eq\n      tag_10\n      jumpi\n      dup1\n      0x313ce567\n      eq\n      tag_11\n      jumpi\n      dup1\n      0x35390714\n      eq\n      tag_12\n      jumpi\n      dup1\n      0x3eaaf86b\n      eq\n      tag_13\n      jumpi\n      dup1\n      0x3f4ba83a\n      eq\n      tag_14\n      jumpi\n      dup1\n      0x59bf1abe\n      eq\n      tag_15\n      jumpi\n      dup1\n      0x5c658165\n      eq\n      tag_16\n      jumpi\n      dup1\n      0x5c975abb\n      eq\n      tag_17\n      jumpi\n      dup1\n      0x70a08231\n      eq\n      tag_18\n      jumpi\n      dup1\n      0x8456cb59\n      eq\n      tag_19\n      jumpi\n      dup1\n      0x893d20e8\n      eq\n      tag_20\n      jumpi\n      dup1\n      0x8da5cb5b\n      eq\n      tag_21\n      jumpi\n      dup1\n      0x95d89b41\n      eq\n      tag_22\n      jumpi\n      dup1\n      0xa9059cbb\n      eq\n      tag_23\n      jumpi\n      dup1\n      0xc0324c77\n      eq\n      tag_24\n      jumpi\n      dup1\n      0xcc872b66\n      eq\n      tag_25\n      jumpi\n      dup1\n      0xdb006a75\n      eq\n      tag_26\n      jumpi\n      dup1\n      0xdd62ed3e\n      eq\n      tag_27\n      jumpi\n      dup1\n      0xdd644f72\n      eq\n      tag_28\n      jumpi\n      dup1\n      0xe47d6060\n      eq\n      tag_29\n      jumpi\n      dup1\n      0xe4997dc5\n      eq\n      tag_30\n      jumpi\n      dup1\n      0xe5b5019a\n      eq\n      tag_31\n      jumpi\n      dup1\n      0xf2fde38b\n      eq\n      tag_32\n      jumpi\n      dup1\n      0xf3bdc228\n      eq\n      tag_33\n      jumpi\n    tag_1:\n      0x0\n      dup1\n      revert\n        /* \"contracts/test/usdtwithfee.sol\":9874:9892  string public name */\n    tag_2:\n      jumpi(tag_34, iszero(callvalue))\n      0x0\n      dup1\n      revert\n    tag_34:\n      tag_35\n      jump(tag_36)\n    tag_35:\n      mload(0x40)\n      0x20\n      dup1\n      dup3\n      mstore\n      dup2\n      swap1\n      dup2\n      add\n      dup4\n      dup2\n      dup2\n      mload\n      dup2\n      mstore\n      0x20\n      add\n      swap2\n      pop\n      dup1\n      mload\n      swap1\n      0x20\n      add\n      swap1\n      dup1\n      dup4\n      dup4\n        /* \"--CODEGEN--\":23:24   */\n      0x0\n        /* \"--CODEGEN--\":8:108   */\n    tag_37:\n        /* \"--CODEGEN--\":33:36   */\n      dup4\n        /* \"--CODEGEN--\":30:31   */\n      dup2\n        /* \"--CODEGEN--\":27:29   */\n      lt\n        /* \"--CODEGEN--\":8:108   */\n      iszero\n      tag_38\n      jumpi\n        /* \"--CODEGEN--\":99:100   */\n      dup1\n        /* \"--CODEGEN--\":94:97   */\n      dup3\n        /* \"--CODEGEN--\":90:93   */\n      add\n        /* \"--CODEGEN--\":84:89   */\n      mload\n        /* \"--CODEGEN--\":71:74   */\n      dup4\n      dup3\n      add\n        /* \"--CODEGEN--\":64:70   */\n      mstore\n        /* \"--CODEGEN--\":52:54   */\n      0x20\n        /* \"--CODEGEN--\":45:48   */\n      add\n        /* \"--CODEGEN--\":8:108   */\n      jump(tag_37)\n    tag_38:\n        /* \"--CODEGEN--\":12:26   */\n      pop\n        /* \"--CODEGEN--\":3:112   */\n      pop\n      pop\n      pop\n      swap1\n      pop\n      swap1\n      dup2\n      add\n      swap1\n      0x1f\n      and\n      dup1\n      iszero\n      tag_40\n      jumpi\n      dup1\n      dup3\n      sub\n      dup1\n      mload\n      0x1\n      dup4\n      0x20\n      sub\n      0x100\n      exp\n      sub\n      not\n      and\n      dup2\n      mstore\n      0x20\n      add\n      swap2\n      pop\n    tag_40:\n      pop\n      swap3\n      pop\n      pop\n      pop\n      mload(0x40)\n      dup1\n      swap2\n      sub\n      swap1\n      return\n        /* \"contracts/test/usdtwithfee.sol\":12560:12737  function deprecate(address _upgradedAddress) public onlyOwner {... */\n    tag_3:\n      jumpi(tag_41, iszero(callvalue))\n      0x0\n      dup1\n      revert\n    tag_41:\n      tag_42\n      and(calldataload(0x4), sub(exp(0x2, 0xa0), 0x1))\n      jump(tag_43)\n    tag_42:\n      stop\n        /* \"contracts/test/usdtwithfee.sol\":11832:12128  function approve(address _spender, uint _value) public onlyPayloadSize(2 * 32) {... */\n    tag_4:\n      jumpi(tag_44, iszero(callvalue))\n      0x0\n      dup1\n      revert\n    tag_44:\n      tag_42\n      and(calldataload(0x4), sub(exp(0x2, 0xa0), 0x1))\n      calldataload(0x24)\n      jump(tag_46)\n        /* \"contracts/test/usdtwithfee.sol\":9986:10008  bool public deprecated */\n    tag_5:\n      jumpi(tag_47, iszero(callvalue))\n      0x0\n      dup1\n      revert\n    tag_47:\n      tag_48\n      jump(tag_49)\n    tag_48:\n      mload(0x40)\n      swap1\n      iszero\n      iszero\n      dup2\n      mstore\n      0x20\n      add\n      mload(0x40)\n      dup1\n      swap2\n      sub\n      swap1\n      return\n        /* \"contracts/test/usdtwithfee.sol\":8585:8727  function addBlackList (address _evilUser) public onlyOwner {... */\n    tag_6:\n      jumpi(tag_50, iszero(callvalue))\n      0x0\n      dup1\n      revert\n    tag_50:\n      tag_42\n      and(calldataload(0x4), sub(exp(0x2, 0xa0), 0x1))\n      jump(tag_52)\n        /* \"contracts/test/usdtwithfee.sol\":12800:13012  function totalSupply() public constant returns (uint) {... */\n    tag_7:\n      jumpi(tag_53, iszero(callvalue))\n      0x0\n      dup1\n      revert\n    tag_53:\n      tag_54\n      jump(tag_55)\n    tag_54:\n      mload(0x40)\n      swap1\n      dup2\n      mstore\n      0x20\n      add\n      mload(0x40)\n      dup1\n      swap2\n      sub\n      swap1\n      return\n        /* \"contracts/test/usdtwithfee.sol\":11075:11430  function transferFrom(address _from, address _to, uint _value) public whenNotPaused {... */\n    tag_8:\n      jumpi(tag_56, iszero(callvalue))\n      0x0\n      dup1\n      revert\n    tag_56:\n      tag_42\n      sub(exp(0x2, 0xa0), 0x1)\n      calldataload(0x4)\n      dup2\n      and\n      swap1\n      calldataload(0x24)\n      and\n      calldataload(0x44)\n      jump(tag_58)\n        /* \"contracts/test/usdtwithfee.sol\":9950:9980  address public upgradedAddress */\n    tag_9:\n      jumpi(tag_59, iszero(callvalue))\n      0x0\n      dup1\n      revert\n    tag_59:\n      tag_60\n      jump(tag_61)\n    tag_60:\n      mload(0x40)\n      sub(exp(0x2, 0xa0), 0x1)\n      swap1\n      swap2\n      and\n      dup2\n      mstore\n      0x20\n      add\n      mload(0x40)\n      dup1\n      swap2\n      sub\n      swap1\n      return\n        /* \"contracts/test/usdtwithfee.sol\":2916:2956  mapping(address => uint) public balances */\n    tag_10:\n      jumpi(tag_62, iszero(callvalue))\n      0x0\n      dup1\n      revert\n    tag_62:\n      tag_54\n      and(calldataload(0x4), sub(exp(0x2, 0xa0), 0x1))\n      jump(tag_64)\n        /* \"contracts/test/usdtwithfee.sol\":9924:9944  uint public decimals */\n    tag_11:\n      jumpi(tag_65, iszero(callvalue))\n      0x0\n      dup1\n      revert\n    tag_65:\n      tag_54\n      jump(tag_67)\n        /* \"contracts/test/usdtwithfee.sol\":3089:3118  uint public maximumFee = 1e18 */\n    tag_12:\n      jumpi(tag_68, iszero(callvalue))\n      0x0\n      dup1\n      revert\n    tag_68:\n      tag_54\n      jump(tag_70)\n        /* \"contracts/test/usdtwithfee.sol\":2043:2067  uint public _totalSupply */\n    tag_13:\n      jumpi(tag_71, iszero(callvalue))\n      0x0\n      dup1\n      revert\n    tag_71:\n      tag_54\n      jump(tag_73)\n        /* \"contracts/test/usdtwithfee.sol\":8044:8141  function unpause() onlyOwner whenPaused public {... */\n    tag_14:\n      jumpi(tag_74, iszero(callvalue))\n      0x0\n      dup1\n      revert\n    tag_74:\n      tag_42\n      jump(tag_76)\n        /* \"contracts/test/usdtwithfee.sol\":8313:8435  function getBlackListStatus(address _maker) external constant returns (bool) {... */\n    tag_15:\n      jumpi(tag_77, iszero(callvalue))\n      0x0\n      dup1\n      revert\n    tag_77:\n      tag_48\n      and(calldataload(0x4), sub(exp(0x2, 0xa0), 0x1))\n      jump(tag_79)\n        /* \"contracts/test/usdtwithfee.sol\":4666:4727  mapping (address => mapping (address => uint)) public allowed */\n    tag_16:\n      jumpi(tag_80, iszero(callvalue))\n      0x0\n      dup1\n      revert\n    tag_80:\n      tag_54\n      sub(exp(0x2, 0xa0), 0x1)\n      calldataload(0x4)\n      dup2\n      and\n      swap1\n      calldataload(0x24)\n      and\n      jump(tag_82)\n        /* \"contracts/test/usdtwithfee.sol\":7404:7430  bool public paused = false */\n    tag_17:\n      jumpi(tag_83, iszero(callvalue))\n      0x0\n      dup1\n      revert\n    tag_83:\n      tag_48\n      jump(tag_85)\n        /* \"contracts/test/usdtwithfee.sol\":11512:11750  function balanceOf(address who) public constant returns (uint) {... */\n    tag_18:\n      jumpi(tag_86, iszero(callvalue))\n      0x0\n      dup1\n      revert\n    tag_86:\n      tag_54\n      and(calldataload(0x4), sub(exp(0x2, 0xa0), 0x1))\n      jump(tag_88)\n        /* \"contracts/test/usdtwithfee.sol\":7861:7956  function pause() onlyOwner whenNotPaused public {... */\n    tag_19:\n      jumpi(tag_89, iszero(callvalue))\n      0x0\n      dup1\n      revert\n    tag_89:\n      tag_42\n      jump(tag_91)\n        /* \"contracts/test/usdtwithfee.sol\":8441:8526  function getOwner() external constant returns (address) {... */\n    tag_20:\n      jumpi(tag_92, iszero(callvalue))\n      0x0\n      dup1\n      revert\n    tag_92:\n      tag_60\n      jump(tag_94)\n        /* \"contracts/test/usdtwithfee.sol\":1188:1208  address public owner */\n    tag_21:\n      jumpi(tag_95, iszero(callvalue))\n      0x0\n      dup1\n      revert\n    tag_95:\n      tag_60\n      jump(tag_97)\n        /* \"contracts/test/usdtwithfee.sol\":9898:9918  string public symbol */\n    tag_22:\n      jumpi(tag_98, iszero(callvalue))\n      0x0\n      dup1\n      revert\n    tag_98:\n      tag_35\n      jump(tag_100)\n        /* \"contracts/test/usdtwithfee.sol\":10674:10993  function transfer(address _to, uint _value) public whenNotPaused {... */\n    tag_23:\n      jumpi(tag_105, iszero(callvalue))\n      0x0\n      dup1\n      revert\n    tag_105:\n      tag_42\n      and(calldataload(0x4), sub(exp(0x2, 0xa0), 0x1))\n      calldataload(0x24)\n      jump(tag_107)\n        /* \"contracts/test/usdtwithfee.sol\":13889:14267  function setParams(uint newBasisPoints, uint newMaxFee) public onlyOwner {... */\n    tag_24:\n      jumpi(tag_108, iszero(callvalue))\n      0x0\n      dup1\n      revert\n    tag_108:\n      tag_42\n      calldataload(0x4)\n      calldataload(0x24)\n      jump(tag_110)\n        /* \"contracts/test/usdtwithfee.sol\":13170:13429  function issue(uint amount) public onlyOwner {... */\n    tag_25:\n      jumpi(tag_111, iszero(callvalue))\n      0x0\n      dup1\n      revert\n    tag_111:\n      tag_42\n      calldataload(0x4)\n      jump(tag_113)\n        /* \"contracts/test/usdtwithfee.sol\":13653:13883  function redeem(uint amount) public onlyOwner {... */\n    tag_26:\n      jumpi(tag_114, iszero(callvalue))\n      0x0\n      dup1\n      revert\n    tag_114:\n      tag_42\n      calldataload(0x4)\n      jump(tag_116)\n        /* \"contracts/test/usdtwithfee.sol\":12210:12497  function allowance(address _owner, address _spender) public constant returns (uint remaining) {... */\n    tag_27:\n      jumpi(tag_117, iszero(callvalue))\n      0x0\n      dup1\n      revert\n    tag_117:\n      tag_54\n      sub(exp(0x2, 0xa0), 0x1)\n      calldataload(0x4)\n      dup2\n      and\n      swap1\n      calldataload(0x24)\n      and\n      jump(tag_119)\n        /* \"contracts/test/usdtwithfee.sol\":3041:3072  uint public basisPointsRate = 5 */\n    tag_28:\n      jumpi(tag_120, iszero(callvalue))\n      0x0\n      dup1\n      revert\n    tag_120:\n      tag_54\n      jump(tag_122)\n        /* \"contracts/test/usdtwithfee.sol\":8532:8578  mapping (address => bool) public isBlackListed */\n    tag_29:\n      jumpi(tag_123, iszero(callvalue))\n      0x0\n      dup1\n      revert\n    tag_123:\n      tag_48\n      and(calldataload(0x4), sub(exp(0x2, 0xa0), 0x1))\n      jump(tag_125)\n        /* \"contracts/test/usdtwithfee.sol\":8733:8890  function removeBlackList (address _clearedUser) public onlyOwner {... */\n    tag_30:\n      jumpi(tag_126, iszero(callvalue))\n      0x0\n      dup1\n      revert\n    tag_126:\n      tag_42\n      and(calldataload(0x4), sub(exp(0x2, 0xa0), 0x1))\n      jump(tag_128)\n        /* \"contracts/test/usdtwithfee.sol\":4734:4776  uint public constant MAX_UINT = 2**256 - 1 */\n    tag_31:\n      jumpi(tag_129, iszero(callvalue))\n      0x0\n      dup1\n      revert\n    tag_129:\n      tag_54\n      jump(tag_131)\n        /* \"contracts/test/usdtwithfee.sol\":1738:1885  function transferOwnership(address newOwner) public onlyOwner {... */\n    tag_32:\n      jumpi(tag_132, iszero(callvalue))\n      0x0\n      dup1\n      revert\n    tag_132:\n      tag_42\n      and(calldataload(0x4), sub(exp(0x2, 0xa0), 0x1))\n      jump(tag_134)\n        /* \"contracts/test/usdtwithfee.sol\":8896:9214  function destroyBlackFunds (address _blackListedUser) public onlyOwner {... */\n    tag_33:\n      jumpi(tag_135, iszero(callvalue))\n      0x0\n      dup1\n      revert\n    tag_135:\n      tag_42\n      and(calldataload(0x4), sub(exp(0x2, 0xa0), 0x1))\n      jump(tag_137)\n        /* \"contracts/test/usdtwithfee.sol\":9874:9892  string public name */\n    tag_36:\n      0x7\n      dup1\n      sload\n      0x1\n      dup2\n      0x1\n      and\n      iszero\n      0x100\n      mul\n      sub\n      and\n      0x2\n      swap1\n      div\n      dup1\n      0x1f\n      add\n      0x20\n      dup1\n      swap2\n      div\n      mul\n      0x20\n      add\n      mload(0x40)\n      swap1\n      dup2\n      add\n      0x40\n      mstore\n      dup1\n      swap3\n      swap2\n      swap1\n      dup2\n      dup2\n      mstore\n      0x20\n      add\n      dup3\n      dup1\n      sload\n      0x1\n      dup2\n      0x1\n      and\n      iszero\n      0x100\n      mul\n      sub\n      and\n      0x2\n      swap1\n      div\n      dup1\n      iszero\n      tag_138\n      jumpi\n      dup1\n      0x1f\n      lt\n      tag_139\n      jumpi\n      0x100\n      dup1\n      dup4\n      sload\n      div\n      mul\n      dup4\n      mstore\n      swap2\n      0x20\n      add\n      swap2\n      jump(tag_138)\n    tag_139:\n      dup3\n      add\n      swap2\n      swap1\n      0x0\n      mstore\n      keccak256(0x0, 0x20)\n      swap1\n    tag_140:\n      dup2\n      sload\n      dup2\n      mstore\n      swap1\n      0x1\n      add\n      swap1\n      0x20\n      add\n      dup1\n      dup4\n      gt\n      tag_140\n      jumpi\n      dup3\n      swap1\n      sub\n      0x1f\n      and\n      dup3\n      add\n      swap2\n    tag_138:\n      pop\n      pop\n      pop\n      pop\n      pop\n      dup2\n      jump\t// out\n        /* \"contracts/test/usdtwithfee.sol\":12560:12737  function deprecate(address _upgradedAddress) public onlyOwner {... */\n    tag_43:\n        /* \"contracts/test/usdtwithfee.sol\":1546:1551  owner */\n      sload(0x0)\n        /* \"contracts/test/usdtwithfee.sol\":1532:1542  msg.sender */\n      caller\n      sub(exp(0x2, 0xa0), 0x1)\n        /* \"contracts/test/usdtwithfee.sol\":1532:1551  msg.sender == owner */\n      swap1\n      dup2\n      and\n        /* \"contracts/test/usdtwithfee.sol\":1546:1551  owner */\n      swap2\n      and\n        /* \"contracts/test/usdtwithfee.sol\":1532:1551  msg.sender == owner */\n      eq\n        /* \"contracts/test/usdtwithfee.sol\":1524:1552  require(msg.sender == owner) */\n      tag_142\n      jumpi\n      0x0\n      dup1\n      revert\n    tag_142:\n        /* \"contracts/test/usdtwithfee.sol\":12632:12642  deprecated */\n      0xa\n        /* \"contracts/test/usdtwithfee.sol\":12632:12649  deprecated = true */\n      dup1\n      sload\n      exp(0x2, 0xa0)\n      not(0xff0000000000000000000000000000000000000000)\n      swap1\n      swap2\n      and\n      or\n      not(0xffffffffffffffffffffffffffffffffffffffff)\n        /* \"contracts/test/usdtwithfee.sol\":12659:12693  upgradedAddress = _upgradedAddress */\n      and\n      sub(exp(0x2, 0xa0), 0x1)\n      dup4\n      and\n      or\n      swap1\n      sstore\n        /* \"contracts/test/usdtwithfee.sol\":12703:12730  Deprecate(_upgradedAddress) */\n      0xcc358699805e9a8b7f77b522628c7cb9abd07d9efb86b6fb616af1609036a99e\n        /* \"contracts/test/usdtwithfee.sol\":12659:12693  upgradedAddress = _upgradedAddress */\n      dup2\n        /* \"contracts/test/usdtwithfee.sol\":12703:12730  Deprecate(_upgradedAddress) */\n      mload(0x40)\n      sub(exp(0x2, 0xa0), 0x1)\n      swap1\n      swap2\n      and\n      dup2\n      mstore\n      0x20\n      add\n      mload(0x40)\n      dup1\n      swap2\n      sub\n      swap1\n      log1\n        /* \"contracts/test/usdtwithfee.sol\":12560:12737  function deprecate(address _upgradedAddress) public onlyOwner {... */\n      pop\n      jump\t// out\n        /* \"contracts/test/usdtwithfee.sol\":11832:12128  function approve(address _spender, uint _value) public onlyPayloadSize(2 * 32) {... */\n    tag_46:\n        /* \"contracts/test/usdtwithfee.sol\":11903:11909  2 * 32 */\n      0x40\n        /* \"contracts/test/usdtwithfee.sol\":3265:3273  size + 4 */\n      0x44\n        /* \"contracts/test/usdtwithfee.sol\":3247:3255  msg.data */\n      calldatasize\n        /* \"contracts/test/usdtwithfee.sol\":3247:3273  msg.data.length < size + 4 */\n      lt\n        /* \"contracts/test/usdtwithfee.sol\":3245:3274  !(msg.data.length < size + 4) */\n      iszero\n        /* \"contracts/test/usdtwithfee.sol\":3237:3275  require(!(msg.data.length < size + 4)) */\n      tag_145\n      jumpi\n      0x0\n      dup1\n      revert\n    tag_145:\n        /* \"contracts/test/usdtwithfee.sol\":11925:11935  deprecated */\n      sload(0xa)\n      exp(0x2, 0xa0)\n      swap1\n      div\n      0xff\n      and\n        /* \"contracts/test/usdtwithfee.sol\":11921:12122  if (deprecated) {... */\n      iszero\n      tag_147\n      jumpi\n        /* \"contracts/test/usdtwithfee.sol\":11980:11995  upgradedAddress */\n      and(sub(exp(0x2, 0xa0), 0x1), sload(0xa))\n        /* \"contracts/test/usdtwithfee.sol\":11958:12012  UpgradedStandardToken(upgradedAddress).approveByLegacy */\n      0xaee92d33\n        /* \"contracts/test/usdtwithfee.sol\":12013:12023  msg.sender */\n      caller\n        /* \"contracts/test/usdtwithfee.sol\":12025:12033  _spender */\n      dup6\n        /* \"contracts/test/usdtwithfee.sol\":12035:12041  _value */\n      dup6\n        /* \"contracts/test/usdtwithfee.sol\":11958:12042  UpgradedStandardToken(upgradedAddress).approveByLegacy(msg.sender, _spender, _value) */\n      mload(0x40)\n      exp(0x2, 0xe0)\n      0xffffffff\n      dup7\n      and\n      mul\n      dup2\n      mstore\n      sub(exp(0x2, 0xa0), 0x1)\n      swap4\n      dup5\n      and\n      0x4\n      dup3\n      add\n      mstore\n      swap2\n      swap1\n      swap3\n      and\n      0x24\n      dup3\n      add\n      mstore\n      0x44\n      dup2\n      add\n      swap2\n      swap1\n      swap2\n      mstore\n      0x64\n      add\n      0x0\n      mload(0x40)\n      dup1\n      dup4\n      sub\n      dup2\n      0x0\n      dup8\n      dup1\n      extcodesize\n      iszero\n      iszero\n      tag_148\n      jumpi\n      0x0\n      dup1\n      revert\n    tag_148:\n      sub(gas, 0x2c6)\n      call\n      iszero\n      iszero\n      tag_149\n      jumpi\n      0x0\n      dup1\n      revert\n    tag_149:\n      pop\n      pop\n      pop\n        /* \"contracts/test/usdtwithfee.sol\":11951:12042  return UpgradedStandardToken(upgradedAddress).approveByLegacy(msg.sender, _spender, _value) */\n      jump(tag_151)\n        /* \"contracts/test/usdtwithfee.sol\":11921:12122  if (deprecated) {... */\n    tag_147:\n        /* \"contracts/test/usdtwithfee.sol\":12080:12111  super.approve(_spender, _value) */\n      tag_151\n        /* \"contracts/test/usdtwithfee.sol\":12094:12102  _spender */\n      dup4\n        /* \"contracts/test/usdtwithfee.sol\":12104:12110  _value */\n      dup4\n        /* \"contracts/test/usdtwithfee.sol\":12080:12093  super.approve */\n      tag_152\n        /* \"contracts/test/usdtwithfee.sol\":12080:12111  super.approve(_spender, _value) */\n      jump\t// in\n    tag_151:\n        /* \"contracts/test/usdtwithfee.sol\":11832:12128  function approve(address _spender, uint _value) public onlyPayloadSize(2 * 32) {... */\n      pop\n      pop\n      pop\n      jump\t// out\n        /* \"contracts/test/usdtwithfee.sol\":9986:10008  bool public deprecated */\n    tag_49:\n      sload(0xa)\n      exp(0x2, 0xa0)\n      swap1\n      div\n      0xff\n      and\n      dup2\n      jump\t// out\n        /* \"contracts/test/usdtwithfee.sol\":8585:8727  function addBlackList (address _evilUser) public onlyOwner {... */\n    tag_52:\n        /* \"contracts/test/usdtwithfee.sol\":1546:1551  owner */\n      sload(0x0)\n        /* \"contracts/test/usdtwithfee.sol\":1532:1542  msg.sender */\n      caller\n      sub(exp(0x2, 0xa0), 0x1)\n        /* \"contracts/test/usdtwithfee.sol\":1532:1551  msg.sender == owner */\n      swap1\n      dup2\n      and\n        /* \"contracts/test/usdtwithfee.sol\":1546:1551  owner */\n      swap2\n      and\n        /* \"contracts/test/usdtwithfee.sol\":1532:1551  msg.sender == owner */\n      eq\n        /* \"contracts/test/usdtwithfee.sol\":1524:1552  require(msg.sender == owner) */\n      tag_154\n      jumpi\n      0x0\n      dup1\n      revert\n    tag_154:\n      sub(exp(0x2, 0xa0), 0x1)\n        /* \"contracts/test/usdtwithfee.sol\":8654:8678  isBlackListed[_evilUser] */\n      dup2\n      and\n      0x0\n      swap1\n      dup2\n      mstore\n        /* \"contracts/test/usdtwithfee.sol\":8654:8667  isBlackListed */\n      0x6\n        /* \"contracts/test/usdtwithfee.sol\":8654:8678  isBlackListed[_evilUser] */\n      0x20\n      mstore\n      0x40\n      swap1\n      dup2\n      swap1\n      keccak256\n        /* \"contracts/test/usdtwithfee.sol\":8654:8685  isBlackListed[_evilUser] = true */\n      dup1\n      sload\n      not(0xff)\n      and\n        /* \"contracts/test/usdtwithfee.sol\":8681:8685  true */\n      0x1\n        /* \"contracts/test/usdtwithfee.sol\":8654:8685  isBlackListed[_evilUser] = true */\n      or\n      swap1\n      sstore\n        /* \"contracts/test/usdtwithfee.sol\":8695:8720  AddedBlackList(_evilUser) */\n      0x42e160154868087d6bfdc0ca23d96a1c1cfa32f1b72ba9ba27b69b98a0d819dc\n      swap1\n        /* \"contracts/test/usdtwithfee.sol\":8668:8677  _evilUser */\n      dup3\n      swap1\n        /* \"contracts/test/usdtwithfee.sol\":8695:8720  AddedBlackList(_evilUser) */\n      mload\n      sub(exp(0x2, 0xa0), 0x1)\n      swap1\n      swap2\n      and\n      dup2\n      mstore\n      0x20\n      add\n      mload(0x40)\n      dup1\n      swap2\n      sub\n      swap1\n      log1\n        /* \"contracts/test/usdtwithfee.sol\":8585:8727  function addBlackList (address _evilUser) public onlyOwner {... */\n      pop\n      jump\t// out\n        /* \"contracts/test/usdtwithfee.sol\":12800:13012  function totalSupply() public constant returns (uint) {... */\n    tag_55:\n        /* \"contracts/test/usdtwithfee.sol\":12868:12878  deprecated */\n      sload(0xa)\n        /* \"contracts/test/usdtwithfee.sol\":12848:12852  uint */\n      0x0\n      swap1\n      exp(0x2, 0xa0)\n        /* \"contracts/test/usdtwithfee.sol\":12868:12878  deprecated */\n      swap1\n      div\n      0xff\n      and\n        /* \"contracts/test/usdtwithfee.sol\":12864:13006  if (deprecated) {... */\n      iszero\n      tag_157\n      jumpi\n        /* \"contracts/test/usdtwithfee.sol\":12915:12930  upgradedAddress */\n      and(sub(exp(0x2, 0xa0), 0x1), sload(0xa))\n        /* \"contracts/test/usdtwithfee.sol\":12901:12943  StandardToken(upgradedAddress).totalSupply */\n      0x18160ddd\n        /* \"contracts/test/usdtwithfee.sol\":12915:12930  upgradedAddress */\n      0x0\n        /* \"contracts/test/usdtwithfee.sol\":12901:12945  StandardToken(upgradedAddress).totalSupply() */\n      add(0x20, mload(0x40))\n      mstore\n      mload(0x40)\n      dup2\n      0xffffffff\n      and\n      exp(0x2, 0xe0)\n      mul\n      dup2\n      mstore\n      0x4\n      add\n      0x20\n      mload(0x40)\n      dup1\n      dup4\n      sub\n      dup2\n      0x0\n      dup8\n      dup1\n      extcodesize\n      iszero\n      iszero\n      tag_158\n      jumpi\n      0x0\n      dup1\n      revert\n    tag_158:\n      sub(gas, 0x2c6)\n      call\n      iszero\n      iszero\n      tag_159\n      jumpi\n      0x0\n      dup1\n      revert\n    tag_159:\n      pop\n      pop\n      pop\n      mload(0x40)\n      dup1\n      mload\n      swap1\n      pop\n        /* \"contracts/test/usdtwithfee.sol\":12894:12945  return StandardToken(upgradedAddress).totalSupply() */\n      swap1\n      pop\n      jump(tag_160)\n        /* \"contracts/test/usdtwithfee.sol\":12864:13006  if (deprecated) {... */\n    tag_157:\n      pop\n        /* \"contracts/test/usdtwithfee.sol\":12983:12995  _totalSupply */\n      sload(0x1)\n        /* \"contracts/test/usdtwithfee.sol\":12864:13006  if (deprecated) {... */\n    tag_160:\n        /* \"contracts/test/usdtwithfee.sol\":12800:13012  function totalSupply() public constant returns (uint) {... */\n      swap1\n      jump\t// out\n        /* \"contracts/test/usdtwithfee.sol\":11075:11430  function transferFrom(address _from, address _to, uint _value) public whenNotPaused {... */\n    tag_58:\n        /* \"contracts/test/usdtwithfee.sol\":7583:7589  paused */\n      sload(0x0)\n      exp(0x2, 0xa0)\n      swap1\n      div\n      0xff\n      and\n        /* \"contracts/test/usdtwithfee.sol\":7582:7589  !paused */\n      iszero\n        /* \"contracts/test/usdtwithfee.sol\":7574:7590  require(!paused) */\n      tag_162\n      jumpi\n      0x0\n      dup1\n      revert\n    tag_162:\n      sub(exp(0x2, 0xa0), 0x1)\n        /* \"contracts/test/usdtwithfee.sol\":11178:11198  isBlackListed[_from] */\n      dup4\n      and\n      0x0\n      swap1\n      dup2\n      mstore\n        /* \"contracts/test/usdtwithfee.sol\":11178:11191  isBlackListed */\n      0x6\n        /* \"contracts/test/usdtwithfee.sol\":11178:11198  isBlackListed[_from] */\n      0x20\n      mstore\n      0x40\n      swap1\n      keccak256\n      sload\n      0xff\n      and\n        /* \"contracts/test/usdtwithfee.sol\":11177:11198  !isBlackListed[_from] */\n      iszero\n        /* \"contracts/test/usdtwithfee.sol\":11169:11199  require(!isBlackListed[_from]) */\n      tag_164\n      jumpi\n      0x0\n      dup1\n      revert\n    tag_164:\n        /* \"contracts/test/usdtwithfee.sol\":11213:11223  deprecated */\n      sload(0xa)\n      exp(0x2, 0xa0)\n      swap1\n      div\n      0xff\n      and\n        /* \"contracts/test/usdtwithfee.sol\":11209:11424  if (deprecated) {... */\n      iszero\n      tag_165\n      jumpi\n        /* \"contracts/test/usdtwithfee.sol\":11268:11283  upgradedAddress */\n      and(sub(exp(0x2, 0xa0), 0x1), sload(0xa))\n        /* \"contracts/test/usdtwithfee.sol\":11246:11305  UpgradedStandardToken(upgradedAddress).transferFromByLegacy */\n      0x8b477adb\n        /* \"contracts/test/usdtwithfee.sol\":11306:11316  msg.sender */\n      caller\n        /* \"contracts/test/usdtwithfee.sol\":11318:11323  _from */\n      dup6\n        /* \"contracts/test/usdtwithfee.sol\":11325:11328  _to */\n      dup6\n        /* \"contracts/test/usdtwithfee.sol\":11330:11336  _value */\n      dup6\n        /* \"contracts/test/usdtwithfee.sol\":11246:11337  UpgradedStandardToken(upgradedAddress).transferFromByLegacy(msg.sender, _from, _to, _value) */\n      mload(0x40)\n      exp(0x2, 0xe0)\n      0xffffffff\n      dup8\n      and\n      mul\n      dup2\n      mstore\n      sub(exp(0x2, 0xa0), 0x1)\n      swap5\n      dup6\n      and\n      0x4\n      dup3\n      add\n      mstore\n      swap3\n      dup5\n      and\n      0x24\n      dup5\n      add\n      mstore\n      swap3\n      and\n      0x44\n      dup3\n      add\n      mstore\n      0x64\n      dup2\n      add\n      swap2\n      swap1\n      swap2\n      mstore\n      0x84\n      add\n      0x0\n      mload(0x40)\n      dup1\n      dup4\n      sub\n      dup2\n      0x0\n      dup8\n      dup1\n      extcodesize\n      iszero\n      iszero\n      tag_148\n      jumpi\n      0x0\n      dup1\n      revert\n        /* \"contracts/test/usdtwithfee.sol\":11209:11424  if (deprecated) {... */\n    tag_165:\n        /* \"contracts/test/usdtwithfee.sol\":11375:11413  super.transferFrom(_from, _to, _value) */\n      tag_151\n        /* \"contracts/test/usdtwithfee.sol\":11394:11399  _from */\n      dup4\n        /* \"contracts/test/usdtwithfee.sol\":11401:11404  _to */\n      dup4\n        /* \"contracts/test/usdtwithfee.sol\":11406:11412  _value */\n      dup4\n        /* \"contracts/test/usdtwithfee.sol\":11375:11393  super.transferFrom */\n      tag_170\n        /* \"contracts/test/usdtwithfee.sol\":11375:11413  super.transferFrom(_from, _to, _value) */\n      jump\t// in\n        /* \"contracts/test/usdtwithfee.sol\":9950:9980  address public upgradedAddress */\n    tag_61:\n      and(sub(exp(0x2, 0xa0), 0x1), sload(0xa))\n      dup2\n      jump\t// out\n        /* \"contracts/test/usdtwithfee.sol\":2916:2956  mapping(address => uint) public balances */\n    tag_64:\n      mstore(0x20, 0x2)\n      0x0\n      swap1\n      dup2\n      mstore\n      0x40\n      swap1\n      keccak256\n      sload\n      dup2\n      jump\t// out\n        /* \"contracts/test/usdtwithfee.sol\":9924:9944  uint public decimals */\n    tag_67:\n      sload(0x9)\n      dup2\n      jump\t// out\n        /* \"contracts/test/usdtwithfee.sol\":3089:3118  uint public maximumFee = 1e18 */\n    tag_70:\n      sload(0x4)\n      dup2\n      jump\t// out\n        /* \"contracts/test/usdtwithfee.sol\":2043:2067  uint public _totalSupply */\n    tag_73:\n      sload(0x1)\n      dup2\n      jump\t// out\n        /* \"contracts/test/usdtwithfee.sol\":8044:8141  function unpause() onlyOwner whenPaused public {... */\n    tag_76:\n        /* \"contracts/test/usdtwithfee.sol\":1546:1551  owner */\n      sload(0x0)\n        /* \"contracts/test/usdtwithfee.sol\":1532:1542  msg.sender */\n      caller\n      sub(exp(0x2, 0xa0), 0x1)\n        /* \"contracts/test/usdtwithfee.sol\":1532:1551  msg.sender == owner */\n      swap1\n      dup2\n      and\n        /* \"contracts/test/usdtwithfee.sol\":1546:1551  owner */\n      swap2\n      and\n        /* \"contracts/test/usdtwithfee.sol\":1532:1551  msg.sender == owner */\n      eq\n        /* \"contracts/test/usdtwithfee.sol\":1524:1552  require(msg.sender == owner) */\n      tag_172\n      jumpi\n      0x0\n      dup1\n      revert\n    tag_172:\n        /* \"contracts/test/usdtwithfee.sol\":7751:7757  paused */\n      sload(0x0)\n      exp(0x2, 0xa0)\n      swap1\n      div\n      0xff\n      and\n        /* \"contracts/test/usdtwithfee.sol\":7743:7758  require(paused) */\n      iszero\n      iszero\n      tag_174\n      jumpi\n      0x0\n      dup1\n      revert\n    tag_174:\n        /* \"contracts/test/usdtwithfee.sol\":8110:8115  false */\n      0x0\n        /* \"contracts/test/usdtwithfee.sol\":8101:8115  paused = false */\n      dup1\n      sload\n      not(0xff0000000000000000000000000000000000000000)\n      and\n      swap1\n      sstore\n        /* \"contracts/test/usdtwithfee.sol\":8125:8134  Unpause() */\n      0x7805862f689e2f13df9f062ff482ad3ad112aca9e0847911ed832e158c525b33\n      mload(0x40)\n      mload(0x40)\n      dup1\n      swap2\n      sub\n      swap1\n      log1\n        /* \"contracts/test/usdtwithfee.sol\":8044:8141  function unpause() onlyOwner whenPaused public {... */\n      jump\t// out\n        /* \"contracts/test/usdtwithfee.sol\":8313:8435  function getBlackListStatus(address _maker) external constant returns (bool) {... */\n    tag_79:\n      sub(exp(0x2, 0xa0), 0x1)\n        /* \"contracts/test/usdtwithfee.sol\":8407:8428  isBlackListed[_maker] */\n      dup2\n      and\n        /* \"contracts/test/usdtwithfee.sol\":8384:8388  bool */\n      0x0\n        /* \"contracts/test/usdtwithfee.sol\":8407:8428  isBlackListed[_maker] */\n      swap1\n      dup2\n      mstore\n        /* \"contracts/test/usdtwithfee.sol\":8407:8420  isBlackListed */\n      0x6\n        /* \"contracts/test/usdtwithfee.sol\":8407:8428  isBlackListed[_maker] */\n      0x20\n      mstore\n      0x40\n      swap1\n      keccak256\n      sload\n      0xff\n      and\n        /* \"contracts/test/usdtwithfee.sol\":8313:8435  function getBlackListStatus(address _maker) external constant returns (bool) {... */\n    tag_176:\n      swap2\n      swap1\n      pop\n      jump\t// out\n        /* \"contracts/test/usdtwithfee.sol\":4666:4727  mapping (address => mapping (address => uint)) public allowed */\n    tag_82:\n      0x5\n      0x20\n      swap1\n      dup2\n      mstore\n      0x0\n      swap3\n      dup4\n      mstore\n      0x40\n      dup1\n      dup5\n      keccak256\n      swap1\n      swap2\n      mstore\n      swap1\n      dup3\n      mstore\n      swap1\n      keccak256\n      sload\n      dup2\n      jump\t// out\n        /* \"contracts/test/usdtwithfee.sol\":7404:7430  bool public paused = false */\n    tag_85:\n      sload(0x0)\n      exp(0x2, 0xa0)\n      swap1\n      div\n      0xff\n      and\n      dup2\n      jump\t// out\n        /* \"contracts/test/usdtwithfee.sol\":11512:11750  function balanceOf(address who) public constant returns (uint) {... */\n    tag_88:\n        /* \"contracts/test/usdtwithfee.sol\":11589:11599  deprecated */\n      sload(0xa)\n        /* \"contracts/test/usdtwithfee.sol\":11569:11573  uint */\n      0x0\n      swap1\n      exp(0x2, 0xa0)\n        /* \"contracts/test/usdtwithfee.sol\":11589:11599  deprecated */\n      swap1\n      div\n      0xff\n      and\n        /* \"contracts/test/usdtwithfee.sol\":11585:11744  if (deprecated) {... */\n      iszero\n      tag_178\n      jumpi\n        /* \"contracts/test/usdtwithfee.sol\":11644:11659  upgradedAddress */\n      and(sub(exp(0x2, 0xa0), 0x1), sload(0xa))\n        /* \"contracts/test/usdtwithfee.sol\":11622:11670  UpgradedStandardToken(upgradedAddress).balanceOf */\n      0x70a08231\n        /* \"contracts/test/usdtwithfee.sol\":11671:11674  who */\n      dup4\n        /* \"contracts/test/usdtwithfee.sol\":11644:11659  upgradedAddress */\n      0x0\n        /* \"contracts/test/usdtwithfee.sol\":11622:11675  UpgradedStandardToken(upgradedAddress).balanceOf(who) */\n      add(0x20, mload(0x40))\n      mstore\n      mload(0x40)\n      exp(0x2, 0xe0)\n      0xffffffff\n      dup5\n      and\n      mul\n      dup2\n      mstore\n      sub(exp(0x2, 0xa0), 0x1)\n      swap1\n      swap2\n      and\n      0x4\n      dup3\n      add\n      mstore\n      0x24\n      add\n      0x20\n      mload(0x40)\n      dup1\n      dup4\n      sub\n      dup2\n      0x0\n      dup8\n      dup1\n      extcodesize\n      iszero\n      iszero\n      tag_179\n      jumpi\n      0x0\n      dup1\n      revert\n    tag_179:\n      sub(gas, 0x2c6)\n      call\n      iszero\n      iszero\n      tag_180\n      jumpi\n      0x0\n      dup1\n      revert\n    tag_180:\n      pop\n      pop\n      pop\n      mload(0x40)\n      dup1\n      mload\n      swap1\n      pop\n        /* \"contracts/test/usdtwithfee.sol\":11615:11675  return UpgradedStandardToken(upgradedAddress).balanceOf(who) */\n      swap1\n      pop\n      jump(tag_176)\n        /* \"contracts/test/usdtwithfee.sol\":11585:11744  if (deprecated) {... */\n    tag_178:\n        /* \"contracts/test/usdtwithfee.sol\":11713:11733  super.balanceOf(who) */\n      tag_182\n        /* \"contracts/test/usdtwithfee.sol\":11729:11732  who */\n      dup3\n        /* \"contracts/test/usdtwithfee.sol\":11713:11728  super.balanceOf */\n      tag_183\n        /* \"contracts/test/usdtwithfee.sol\":11713:11733  super.balanceOf(who) */\n      jump\t// in\n    tag_182:\n        /* \"contracts/test/usdtwithfee.sol\":11706:11733  return super.balanceOf(who) */\n      swap1\n      pop\n      jump(tag_176)\n        /* \"contracts/test/usdtwithfee.sol\":7861:7956  function pause() onlyOwner whenNotPaused public {... */\n    tag_91:\n        /* \"contracts/test/usdtwithfee.sol\":1546:1551  owner */\n      sload(0x0)\n        /* \"contracts/test/usdtwithfee.sol\":1532:1542  msg.sender */\n      caller\n      sub(exp(0x2, 0xa0), 0x1)\n        /* \"contracts/test/usdtwithfee.sol\":1532:1551  msg.sender == owner */\n      swap1\n      dup2\n      and\n        /* \"contracts/test/usdtwithfee.sol\":1546:1551  owner */\n      swap2\n      and\n        /* \"contracts/test/usdtwithfee.sol\":1532:1551  msg.sender == owner */\n      eq\n        /* \"contracts/test/usdtwithfee.sol\":1524:1552  require(msg.sender == owner) */\n      tag_185\n      jumpi\n      0x0\n      dup1\n      revert\n    tag_185:\n        /* \"contracts/test/usdtwithfee.sol\":7583:7589  paused */\n      sload(0x0)\n      exp(0x2, 0xa0)\n      swap1\n      div\n      0xff\n      and\n        /* \"contracts/test/usdtwithfee.sol\":7582:7589  !paused */\n      iszero\n        /* \"contracts/test/usdtwithfee.sol\":7574:7590  require(!paused) */\n      tag_187\n      jumpi\n      0x0\n      dup1\n      revert\n    tag_187:\n        /* \"contracts/test/usdtwithfee.sol\":7919:7925  paused */\n      0x0\n        /* \"contracts/test/usdtwithfee.sol\":7919:7932  paused = true */\n      dup1\n      sload\n      not(0xff0000000000000000000000000000000000000000)\n      and\n      exp(0x2, 0xa0)\n      or\n      swap1\n      sstore\n        /* \"contracts/test/usdtwithfee.sol\":7942:7949  Pause() */\n      0x6985a02210a168e66602d3235cb6db0e70f92b3ba4d376a33c0f3d9434bff625\n      mload(0x40)\n      mload(0x40)\n      dup1\n      swap2\n      sub\n      swap1\n      log1\n        /* \"contracts/test/usdtwithfee.sol\":7861:7956  function pause() onlyOwner whenNotPaused public {... */\n      jump\t// out\n        /* \"contracts/test/usdtwithfee.sol\":8441:8526  function getOwner() external constant returns (address) {... */\n    tag_94:\n        /* \"contracts/test/usdtwithfee.sol\":8488:8495  address */\n      0x0\n        /* \"contracts/test/usdtwithfee.sol\":8514:8519  owner */\n      sload\n      sub(exp(0x2, 0xa0), 0x1)\n      and\n        /* \"contracts/test/usdtwithfee.sol\":8441:8526  function getOwner() external constant returns (address) {... */\n      swap1\n      jump\t// out\n        /* \"contracts/test/usdtwithfee.sol\":1188:1208  address public owner */\n    tag_97:\n      and(sub(exp(0x2, 0xa0), 0x1), sload(0x0))\n      dup2\n      jump\t// out\n        /* \"contracts/test/usdtwithfee.sol\":9898:9918  string public symbol */\n    tag_100:\n      0x8\n      dup1\n      sload\n      0x1\n      dup2\n      0x1\n      and\n      iszero\n      0x100\n      mul\n      sub\n      and\n      0x2\n      swap1\n      div\n      dup1\n      0x1f\n      add\n      0x20\n      dup1\n      swap2\n      div\n      mul\n      0x20\n      add\n      mload(0x40)\n      swap1\n      dup2\n      add\n      0x40\n      mstore\n      dup1\n      swap3\n      swap2\n      swap1\n      dup2\n      dup2\n      mstore\n      0x20\n      add\n      dup3\n      dup1\n      sload\n      0x1\n      dup2\n      0x1\n      and\n      iszero\n      0x100\n      mul\n      sub\n      and\n      0x2\n      swap1\n      div\n      dup1\n      iszero\n      tag_138\n      jumpi\n      dup1\n      0x1f\n      lt\n      tag_139\n      jumpi\n      0x100\n      dup1\n      dup4\n      sload\n      div\n      mul\n      dup4\n      mstore\n      swap2\n      0x20\n      add\n      swap2\n      jump(tag_138)\n        /* \"contracts/test/usdtwithfee.sol\":10674:10993  function transfer(address _to, uint _value) public whenNotPaused {... */\n    tag_107:\n        /* \"contracts/test/usdtwithfee.sol\":7583:7589  paused */\n      sload(0x0)\n      exp(0x2, 0xa0)\n      swap1\n      div\n      0xff\n      and\n        /* \"contracts/test/usdtwithfee.sol\":7582:7589  !paused */\n      iszero\n        /* \"contracts/test/usdtwithfee.sol\":7574:7590  require(!paused) */\n      tag_194\n      jumpi\n      0x0\n      dup1\n      revert\n    tag_194:\n      sub(exp(0x2, 0xa0), 0x1)\n        /* \"contracts/test/usdtwithfee.sol\":10772:10782  msg.sender */\n      caller\n        /* \"contracts/test/usdtwithfee.sol\":10758:10783  isBlackListed[msg.sender] */\n      and\n      0x0\n      swap1\n      dup2\n      mstore\n        /* \"contracts/test/usdtwithfee.sol\":10758:10771  isBlackListed */\n      0x6\n        /* \"contracts/test/usdtwithfee.sol\":10758:10783  isBlackListed[msg.sender] */\n      0x20\n      mstore\n      0x40\n      swap1\n      keccak256\n      sload\n      0xff\n      and\n        /* \"contracts/test/usdtwithfee.sol\":10757:10783  !isBlackListed[msg.sender] */\n      iszero\n        /* \"contracts/test/usdtwithfee.sol\":10749:10784  require(!isBlackListed[msg.sender]) */\n      tag_196\n      jumpi\n      0x0\n      dup1\n      revert\n    tag_196:\n        /* \"contracts/test/usdtwithfee.sol\":10798:10808  deprecated */\n      sload(0xa)\n      exp(0x2, 0xa0)\n      swap1\n      div\n      0xff\n      and\n        /* \"contracts/test/usdtwithfee.sol\":10794:10987  if (deprecated) {... */\n      iszero\n      tag_197\n      jumpi\n        /* \"contracts/test/usdtwithfee.sol\":10853:10868  upgradedAddress */\n      and(sub(exp(0x2, 0xa0), 0x1), sload(0xa))\n        /* \"contracts/test/usdtwithfee.sol\":10831:10886  UpgradedStandardToken(upgradedAddress).transferByLegacy */\n      0x6e18980a\n        /* \"contracts/test/usdtwithfee.sol\":10887:10897  msg.sender */\n      caller\n        /* \"contracts/test/usdtwithfee.sol\":10899:10902  _to */\n      dup5\n        /* \"contracts/test/usdtwithfee.sol\":10904:10910  _value */\n      dup5\n        /* \"contracts/test/usdtwithfee.sol\":10831:10911  UpgradedStandardToken(upgradedAddress).transferByLegacy(msg.sender, _to, _value) */\n      mload(0x40)\n      exp(0x2, 0xe0)\n      0xffffffff\n      dup7\n      and\n      mul\n      dup2\n      mstore\n      sub(exp(0x2, 0xa0), 0x1)\n      swap4\n      dup5\n      and\n      0x4\n      dup3\n      add\n      mstore\n      swap2\n      swap1\n      swap3\n      and\n      0x24\n      dup3\n      add\n      mstore\n      0x44\n      dup2\n      add\n      swap2\n      swap1\n      swap2\n      mstore\n      0x64\n      add\n      0x0\n      mload(0x40)\n      dup1\n      dup4\n      sub\n      dup2\n      0x0\n      dup8\n      dup1\n      extcodesize\n      iszero\n      iszero\n      tag_198\n      jumpi\n      0x0\n      dup1\n      revert\n    tag_198:\n      sub(gas, 0x2c6)\n      call\n      iszero\n      iszero\n      tag_199\n      jumpi\n      0x0\n      dup1\n      revert\n    tag_199:\n      pop\n      pop\n      pop\n        /* \"contracts/test/usdtwithfee.sol\":10824:10911  return UpgradedStandardToken(upgradedAddress).transferByLegacy(msg.sender, _to, _value) */\n      jump(tag_201)\n        /* \"contracts/test/usdtwithfee.sol\":10794:10987  if (deprecated) {... */\n    tag_197:\n        /* \"contracts/test/usdtwithfee.sol\":10949:10976  super.transfer(_to, _value) */\n      tag_201\n        /* \"contracts/test/usdtwithfee.sol\":10964:10967  _to */\n      dup3\n        /* \"contracts/test/usdtwithfee.sol\":10969:10975  _value */\n      dup3\n        /* \"contracts/test/usdtwithfee.sol\":10949:10963  super.transfer */\n      tag_202\n        /* \"contracts/test/usdtwithfee.sol\":10949:10976  super.transfer(_to, _value) */\n      jump\t// in\n    tag_201:\n        /* \"contracts/test/usdtwithfee.sol\":10674:10993  function transfer(address _to, uint _value) public whenNotPaused {... */\n      pop\n      pop\n      jump\t// out\n        /* \"contracts/test/usdtwithfee.sol\":13889:14267  function setParams(uint newBasisPoints, uint newMaxFee) public onlyOwner {... */\n    tag_110:\n        /* \"contracts/test/usdtwithfee.sol\":1546:1551  owner */\n      sload(0x0)\n        /* \"contracts/test/usdtwithfee.sol\":1532:1542  msg.sender */\n      caller\n      sub(exp(0x2, 0xa0), 0x1)\n        /* \"contracts/test/usdtwithfee.sol\":1532:1551  msg.sender == owner */\n      swap1\n      dup2\n      and\n        /* \"contracts/test/usdtwithfee.sol\":1546:1551  owner */\n      swap2\n      and\n        /* \"contracts/test/usdtwithfee.sol\":1532:1551  msg.sender == owner */\n      eq\n        /* \"contracts/test/usdtwithfee.sol\":1524:1552  require(msg.sender == owner) */\n      tag_204\n      jumpi\n      0x0\n      dup1\n      revert\n    tag_204:\n        /* \"contracts/test/usdtwithfee.sol\":14085:14087  20 */\n      0x14\n        /* \"contracts/test/usdtwithfee.sol\":14068:14087  newBasisPoints < 20 */\n      dup3\n      lt\n        /* \"contracts/test/usdtwithfee.sol\":14060:14088  require(newBasisPoints < 20) */\n      tag_206\n      jumpi\n      0x0\n      dup1\n      revert\n    tag_206:\n        /* \"contracts/test/usdtwithfee.sol\":14118:14120  50 */\n      0x32\n        /* \"contracts/test/usdtwithfee.sol\":14106:14120  newMaxFee < 50 */\n      dup2\n      lt\n        /* \"contracts/test/usdtwithfee.sol\":14098:14121  require(newMaxFee < 50) */\n      tag_207\n      jumpi\n      0x0\n      dup1\n      revert\n    tag_207:\n        /* \"contracts/test/usdtwithfee.sol\":14132:14147  basisPointsRate */\n      0x3\n        /* \"contracts/test/usdtwithfee.sol\":14132:14164  basisPointsRate = newBasisPoints */\n      dup3\n      swap1\n      sstore\n        /* \"contracts/test/usdtwithfee.sol\":14205:14213  decimals */\n      sload(0x9)\n        /* \"contracts/test/usdtwithfee.sol\":14187:14214  newMaxFee.mul(10**decimals) */\n      tag_208\n      swap1\n        /* \"contracts/test/usdtwithfee.sol\":14187:14196  newMaxFee */\n      dup3\n      swap1\n        /* \"contracts/test/usdtwithfee.sol\":14201:14203  10 */\n      0xa\n        /* \"contracts/test/usdtwithfee.sol\":14201:14213  10**decimals */\n      exp\n        /* \"contracts/test/usdtwithfee.sol\":14187:14214  newMaxFee.mul(10**decimals) */\n      0xffffffff\n        /* \"contracts/test/usdtwithfee.sol\":14187:14200  newMaxFee.mul */\n      tag_209\n        /* \"contracts/test/usdtwithfee.sol\":14187:14214  newMaxFee.mul(10**decimals) */\n      and\n      jump\t// in\n    tag_208:\n        /* \"contracts/test/usdtwithfee.sol\":14174:14184  maximumFee */\n      0x4\n        /* \"contracts/test/usdtwithfee.sol\":14174:14214  maximumFee = newMaxFee.mul(10**decimals) */\n      dup2\n      swap1\n      sstore\n        /* \"contracts/test/usdtwithfee.sol\":14232:14247  basisPointsRate */\n      sload(0x3)\n        /* \"contracts/test/usdtwithfee.sol\":14225:14260  Params(basisPointsRate, maximumFee) */\n      0xb044a1e409eac5c48e5af22d4af52670dd1a99059537a78b31b48c6500a6354e\n      swap2\n      mload(0x40)\n      swap2\n      dup3\n      mstore\n      0x20\n      dup3\n      add\n      mstore\n      0x40\n      swap1\n      dup2\n      add\n      swap1\n      mload\n      dup1\n      swap2\n      sub\n      swap1\n      log1\n        /* \"contracts/test/usdtwithfee.sol\":13889:14267  function setParams(uint newBasisPoints, uint newMaxFee) public onlyOwner {... */\n      pop\n      pop\n      jump\t// out\n        /* \"contracts/test/usdtwithfee.sol\":13170:13429  function issue(uint amount) public onlyOwner {... */\n    tag_113:\n        /* \"contracts/test/usdtwithfee.sol\":1546:1551  owner */\n      sload(0x0)\n        /* \"contracts/test/usdtwithfee.sol\":1532:1542  msg.sender */\n      caller\n      sub(exp(0x2, 0xa0), 0x1)\n        /* \"contracts/test/usdtwithfee.sol\":1532:1551  msg.sender == owner */\n      swap1\n      dup2\n      and\n        /* \"contracts/test/usdtwithfee.sol\":1546:1551  owner */\n      swap2\n      and\n        /* \"contracts/test/usdtwithfee.sol\":1532:1551  msg.sender == owner */\n      eq\n        /* \"contracts/test/usdtwithfee.sol\":1524:1552  require(msg.sender == owner) */\n      tag_211\n      jumpi\n      0x0\n      dup1\n      revert\n    tag_211:\n        /* \"contracts/test/usdtwithfee.sol\":13257:13269  _totalSupply */\n      sload(0x1)\n        /* \"contracts/test/usdtwithfee.sol\":13233:13254  _totalSupply + amount */\n      dup2\n      dup2\n      add\n        /* \"contracts/test/usdtwithfee.sol\":13233:13269  _totalSupply + amount > _totalSupply */\n      gt\n        /* \"contracts/test/usdtwithfee.sol\":13225:13270  require(_totalSupply + amount > _totalSupply) */\n      tag_213\n      jumpi\n      0x0\n      dup1\n      revert\n    tag_213:\n        /* \"contracts/test/usdtwithfee.sol\":13315:13330  balances[owner] */\n      0x0\n        /* \"contracts/test/usdtwithfee.sol\":13324:13329  owner */\n      dup1\n      sload\n      sub(exp(0x2, 0xa0), 0x1)\n      and\n        /* \"contracts/test/usdtwithfee.sol\":13315:13330  balances[owner] */\n      dup2\n      mstore\n        /* \"contracts/test/usdtwithfee.sol\":13315:13323  balances */\n      0x2\n        /* \"contracts/test/usdtwithfee.sol\":13315:13330  balances[owner] */\n      0x20\n      mstore\n      0x40\n      swap1\n      keccak256\n      sload\n        /* \"contracts/test/usdtwithfee.sol\":13288:13312  balances[owner] + amount */\n      dup2\n      dup2\n      add\n        /* \"contracts/test/usdtwithfee.sol\":13288:13330  balances[owner] + amount > balances[owner] */\n      gt\n        /* \"contracts/test/usdtwithfee.sol\":13280:13331  require(balances[owner] + amount > balances[owner]) */\n      tag_214\n      jumpi\n      0x0\n      dup1\n      revert\n    tag_214:\n        /* \"contracts/test/usdtwithfee.sol\":13342:13357  balances[owner] */\n      0x0\n        /* \"contracts/test/usdtwithfee.sol\":13351:13356  owner */\n      dup1\n      sload\n      sub(exp(0x2, 0xa0), 0x1)\n      and\n        /* \"contracts/test/usdtwithfee.sol\":13342:13357  balances[owner] */\n      dup2\n      mstore\n        /* \"contracts/test/usdtwithfee.sol\":13342:13350  balances */\n      0x2\n        /* \"contracts/test/usdtwithfee.sol\":13342:13357  balances[owner] */\n      0x20\n      mstore\n      0x40\n      swap1\n      dup2\n      swap1\n      keccak256\n        /* \"contracts/test/usdtwithfee.sol\":13342:13367  balances[owner] += amount */\n      dup1\n      sload\n      dup4\n      add\n      swap1\n      sstore\n        /* \"contracts/test/usdtwithfee.sol\":13351:13356  owner */\n      0x1\n        /* \"contracts/test/usdtwithfee.sol\":13377:13399  _totalSupply += amount */\n      dup1\n      sload\n      dup4\n      add\n      swap1\n      sstore\n        /* \"contracts/test/usdtwithfee.sol\":13409:13422  Issue(amount) */\n      0xcb8241adb0c3fdb35b70c24ce35c5eb0c17af7431c99f827d44a445ca624176a\n      swap1\n        /* \"contracts/test/usdtwithfee.sol\":13361:13367  amount */\n      dup3\n      swap1\n        /* \"contracts/test/usdtwithfee.sol\":13409:13422  Issue(amount) */\n      mload\n      swap1\n      dup2\n      mstore\n      0x20\n      add\n      mload(0x40)\n      dup1\n      swap2\n      sub\n      swap1\n      log1\n        /* \"contracts/test/usdtwithfee.sol\":13170:13429  function issue(uint amount) public onlyOwner {... */\n      pop\n      jump\t// out\n        /* \"contracts/test/usdtwithfee.sol\":13653:13883  function redeem(uint amount) public onlyOwner {... */\n    tag_116:\n        /* \"contracts/test/usdtwithfee.sol\":1546:1551  owner */\n      sload(0x0)\n        /* \"contracts/test/usdtwithfee.sol\":1532:1542  msg.sender */\n      caller\n      sub(exp(0x2, 0xa0), 0x1)\n        /* \"contracts/test/usdtwithfee.sol\":1532:1551  msg.sender == owner */\n      swap1\n      dup2\n      and\n        /* \"contracts/test/usdtwithfee.sol\":1546:1551  owner */\n      swap2\n      and\n        /* \"contracts/test/usdtwithfee.sol\":1532:1551  msg.sender == owner */\n      eq\n        /* \"contracts/test/usdtwithfee.sol\":1524:1552  require(msg.sender == owner) */\n      tag_216\n      jumpi\n      0x0\n      dup1\n      revert\n    tag_216:\n        /* \"contracts/test/usdtwithfee.sol\":13717:13729  _totalSupply */\n      sload(0x1)\n        /* \"contracts/test/usdtwithfee.sol\":13717:13739  _totalSupply >= amount */\n      dup2\n      swap1\n      lt\n      iszero\n        /* \"contracts/test/usdtwithfee.sol\":13709:13740  require(_totalSupply >= amount) */\n      tag_218\n      jumpi\n      0x0\n      dup1\n      revert\n    tag_218:\n        /* \"contracts/test/usdtwithfee.sol\":13758:13773  balances[owner] */\n      0x0\n        /* \"contracts/test/usdtwithfee.sol\":13767:13772  owner */\n      dup1\n      sload\n      sub(exp(0x2, 0xa0), 0x1)\n      and\n        /* \"contracts/test/usdtwithfee.sol\":13758:13773  balances[owner] */\n      dup2\n      mstore\n        /* \"contracts/test/usdtwithfee.sol\":13758:13766  balances */\n      0x2\n        /* \"contracts/test/usdtwithfee.sol\":13758:13773  balances[owner] */\n      0x20\n      mstore\n      0x40\n      swap1\n      keccak256\n      sload\n        /* \"contracts/test/usdtwithfee.sol\":13758:13783  balances[owner] >= amount */\n      dup2\n      swap1\n      lt\n      iszero\n        /* \"contracts/test/usdtwithfee.sol\":13750:13784  require(balances[owner] >= amount) */\n      tag_219\n      jumpi\n      0x0\n      dup1\n      revert\n    tag_219:\n        /* \"contracts/test/usdtwithfee.sol\":13795:13807  _totalSupply */\n      0x1\n        /* \"contracts/test/usdtwithfee.sol\":13795:13817  _totalSupply -= amount */\n      dup1\n      sload\n      dup3\n      swap1\n      sub\n      swap1\n      sstore\n        /* \"contracts/test/usdtwithfee.sol\":13795:13807  _totalSupply */\n      0x0\n        /* \"contracts/test/usdtwithfee.sol\":13836:13841  owner */\n      dup1\n      sload\n      sub(exp(0x2, 0xa0), 0x1)\n      and\n        /* \"contracts/test/usdtwithfee.sol\":13827:13842  balances[owner] */\n      dup2\n      mstore\n        /* \"contracts/test/usdtwithfee.sol\":13827:13835  balances */\n      0x2\n        /* \"contracts/test/usdtwithfee.sol\":13827:13842  balances[owner] */\n      0x20\n      mstore\n      0x40\n      swap1\n      dup2\n      swap1\n      keccak256\n        /* \"contracts/test/usdtwithfee.sol\":13827:13852  balances[owner] -= amount */\n      dup1\n      sload\n      dup4\n      swap1\n      sub\n      swap1\n      sstore\n        /* \"contracts/test/usdtwithfee.sol\":13862:13876  Redeem(amount) */\n      0x702d5967f45f6513a38ffc42d6ba9bf230bd40e8f53b16363c7eb4fd2deb9a44\n      swap1\n        /* \"contracts/test/usdtwithfee.sol\":13811:13817  amount */\n      dup3\n      swap1\n        /* \"contracts/test/usdtwithfee.sol\":13862:13876  Redeem(amount) */\n      mload\n      swap1\n      dup2\n      mstore\n      0x20\n      add\n      mload(0x40)\n      dup1\n      swap2\n      sub\n      swap1\n      log1\n        /* \"contracts/test/usdtwithfee.sol\":13653:13883  function redeem(uint amount) public onlyOwner {... */\n      pop\n      jump\t// out\n        /* \"contracts/test/usdtwithfee.sol\":12210:12497  function allowance(address _owner, address _spender) public constant returns (uint remaining) {... */\n    tag_119:\n        /* \"contracts/test/usdtwithfee.sol\":12318:12328  deprecated */\n      sload(0xa)\n        /* \"contracts/test/usdtwithfee.sol\":12288:12302  uint remaining */\n      0x0\n      swap1\n      exp(0x2, 0xa0)\n        /* \"contracts/test/usdtwithfee.sol\":12318:12328  deprecated */\n      swap1\n      div\n      0xff\n      and\n        /* \"contracts/test/usdtwithfee.sol\":12314:12491  if (deprecated) {... */\n      iszero\n      tag_221\n      jumpi\n        /* \"contracts/test/usdtwithfee.sol\":12365:12380  upgradedAddress */\n      and(sub(exp(0x2, 0xa0), 0x1), sload(0xa))\n        /* \"contracts/test/usdtwithfee.sol\":12351:12391  StandardToken(upgradedAddress).allowance */\n      0xdd62ed3e\n        /* \"contracts/test/usdtwithfee.sol\":12392:12398  _owner */\n      dup5\n        /* \"contracts/test/usdtwithfee.sol\":12400:12408  _spender */\n      dup5\n        /* \"contracts/test/usdtwithfee.sol\":12365:12380  upgradedAddress */\n      0x0\n        /* \"contracts/test/usdtwithfee.sol\":12351:12409  StandardToken(upgradedAddress).allowance(_owner, _spender) */\n      add(0x20, mload(0x40))\n      mstore\n      mload(0x40)\n      exp(0x2, 0xe0)\n      0xffffffff\n      dup6\n      and\n      mul\n      dup2\n      mstore\n      sub(exp(0x2, 0xa0), 0x1)\n      swap3\n      dup4\n      and\n      0x4\n      dup3\n      add\n      mstore\n      swap2\n      and\n      0x24\n      dup3\n      add\n      mstore\n      0x44\n      add\n      0x20\n      mload(0x40)\n      dup1\n      dup4\n      sub\n      dup2\n      0x0\n      dup8\n      dup1\n      extcodesize\n      iszero\n      iszero\n      tag_222\n      jumpi\n      0x0\n      dup1\n      revert\n    tag_222:\n      sub(gas, 0x2c6)\n      call\n      iszero\n      iszero\n      tag_223\n      jumpi\n      0x0\n      dup1\n      revert\n    tag_223:\n      pop\n      pop\n      pop\n      mload(0x40)\n      dup1\n      mload\n      swap1\n      pop\n        /* \"contracts/test/usdtwithfee.sol\":12344:12409  return StandardToken(upgradedAddress).allowance(_owner, _spender) */\n      swap1\n      pop\n      jump(tag_224)\n        /* \"contracts/test/usdtwithfee.sol\":12314:12491  if (deprecated) {... */\n    tag_221:\n        /* \"contracts/test/usdtwithfee.sol\":12447:12480  super.allowance(_owner, _spender) */\n      tag_225\n        /* \"contracts/test/usdtwithfee.sol\":12463:12469  _owner */\n      dup4\n        /* \"contracts/test/usdtwithfee.sol\":12471:12479  _spender */\n      dup4\n        /* \"contracts/test/usdtwithfee.sol\":12447:12462  super.allowance */\n      tag_226\n        /* \"contracts/test/usdtwithfee.sol\":12447:12480  super.allowance(_owner, _spender) */\n      jump\t// in\n    tag_225:\n        /* \"contracts/test/usdtwithfee.sol\":12440:12480  return super.allowance(_owner, _spender) */\n      swap1\n      pop\n        /* \"contracts/test/usdtwithfee.sol\":12314:12491  if (deprecated) {... */\n    tag_224:\n        /* \"contracts/test/usdtwithfee.sol\":12210:12497  function allowance(address _owner, address _spender) public constant returns (uint remaining) {... */\n      swap3\n      swap2\n      pop\n      pop\n      jump\t// out\n        /* \"contracts/test/usdtwithfee.sol\":3041:3072  uint public basisPointsRate = 5 */\n    tag_122:\n      sload(0x3)\n      dup2\n      jump\t// out\n        /* \"contracts/test/usdtwithfee.sol\":8532:8578  mapping (address => bool) public isBlackListed */\n    tag_125:\n      mstore(0x20, 0x6)\n      0x0\n      swap1\n      dup2\n      mstore\n      0x40\n      swap1\n      keccak256\n      sload\n      0xff\n      and\n      dup2\n      jump\t// out\n        /* \"contracts/test/usdtwithfee.sol\":8733:8890  function removeBlackList (address _clearedUser) public onlyOwner {... */\n    tag_128:\n        /* \"contracts/test/usdtwithfee.sol\":1546:1551  owner */\n      sload(0x0)\n        /* \"contracts/test/usdtwithfee.sol\":1532:1542  msg.sender */\n      caller\n      sub(exp(0x2, 0xa0), 0x1)\n        /* \"contracts/test/usdtwithfee.sol\":1532:1551  msg.sender == owner */\n      swap1\n      dup2\n      and\n        /* \"contracts/test/usdtwithfee.sol\":1546:1551  owner */\n      swap2\n      and\n        /* \"contracts/test/usdtwithfee.sol\":1532:1551  msg.sender == owner */\n      eq\n        /* \"contracts/test/usdtwithfee.sol\":1524:1552  require(msg.sender == owner) */\n      tag_228\n      jumpi\n      0x0\n      dup1\n      revert\n    tag_228:\n      sub(exp(0x2, 0xa0), 0x1)\n        /* \"contracts/test/usdtwithfee.sol\":8808:8835  isBlackListed[_clearedUser] */\n      dup2\n      and\n        /* \"contracts/test/usdtwithfee.sol\":8838:8843  false */\n      0x0\n        /* \"contracts/test/usdtwithfee.sol\":8808:8835  isBlackListed[_clearedUser] */\n      swap1\n      dup2\n      mstore\n        /* \"contracts/test/usdtwithfee.sol\":8808:8821  isBlackListed */\n      0x6\n        /* \"contracts/test/usdtwithfee.sol\":8808:8835  isBlackListed[_clearedUser] */\n      0x20\n      mstore\n      0x40\n      swap1\n      dup2\n      swap1\n      keccak256\n        /* \"contracts/test/usdtwithfee.sol\":8808:8843  isBlackListed[_clearedUser] = false */\n      dup1\n      sload\n      not(0xff)\n      and\n      swap1\n      sstore\n        /* \"contracts/test/usdtwithfee.sol\":8853:8883  RemovedBlackList(_clearedUser) */\n      0xd7e9ec6e6ecd65492dce6bf513cd6867560d49544421d0783ddf06e76c24470c\n      swap1\n        /* \"contracts/test/usdtwithfee.sol\":8822:8834  _clearedUser */\n      dup3\n      swap1\n        /* \"contracts/test/usdtwithfee.sol\":8853:8883  RemovedBlackList(_clearedUser) */\n      mload\n      sub(exp(0x2, 0xa0), 0x1)\n      swap1\n      swap2\n      and\n      dup2\n      mstore\n      0x20\n      add\n      mload(0x40)\n      dup1\n      swap2\n      sub\n      swap1\n      log1\n        /* \"contracts/test/usdtwithfee.sol\":8733:8890  function removeBlackList (address _clearedUser) public onlyOwner {... */\n      pop\n      jump\t// out\n        /* \"contracts/test/usdtwithfee.sol\":4734:4776  uint public constant MAX_UINT = 2**256 - 1 */\n    tag_131:\n      not(0x0)\n      dup2\n      jump\t// out\n        /* \"contracts/test/usdtwithfee.sol\":1738:1885  function transferOwnership(address newOwner) public onlyOwner {... */\n    tag_134:\n        /* \"contracts/test/usdtwithfee.sol\":1546:1551  owner */\n      sload(0x0)\n        /* \"contracts/test/usdtwithfee.sol\":1532:1542  msg.sender */\n      caller\n      sub(exp(0x2, 0xa0), 0x1)\n        /* \"contracts/test/usdtwithfee.sol\":1532:1551  msg.sender == owner */\n      swap1\n      dup2\n      and\n        /* \"contracts/test/usdtwithfee.sol\":1546:1551  owner */\n      swap2\n      and\n        /* \"contracts/test/usdtwithfee.sol\":1532:1551  msg.sender == owner */\n      eq\n        /* \"contracts/test/usdtwithfee.sol\":1524:1552  require(msg.sender == owner) */\n      tag_231\n      jumpi\n      0x0\n      dup1\n      revert\n    tag_231:\n      sub(exp(0x2, 0xa0), 0x1)\n        /* \"contracts/test/usdtwithfee.sol\":1814:1836  newOwner != address(0) */\n      dup2\n      and\n      iszero\n        /* \"contracts/test/usdtwithfee.sol\":1810:1879  if (newOwner != address(0)) {... */\n      tag_233\n      jumpi\n        /* \"contracts/test/usdtwithfee.sol\":1852:1857  owner */\n      0x0\n        /* \"contracts/test/usdtwithfee.sol\":1852:1868  owner = newOwner */\n      dup1\n      sload\n      not(0xffffffffffffffffffffffffffffffffffffffff)\n      and\n      sub(exp(0x2, 0xa0), 0x1)\n      dup4\n      and\n      or\n      swap1\n      sstore\n        /* \"contracts/test/usdtwithfee.sol\":1810:1879  if (newOwner != address(0)) {... */\n    tag_233:\n        /* \"contracts/test/usdtwithfee.sol\":1738:1885  function transferOwnership(address newOwner) public onlyOwner {... */\n      pop\n      jump\t// out\n        /* \"contracts/test/usdtwithfee.sol\":8896:9214  function destroyBlackFunds (address _blackListedUser) public onlyOwner {... */\n    tag_137:\n        /* \"contracts/test/usdtwithfee.sol\":9027:9042  uint dirtyFunds */\n      0x0\n        /* \"contracts/test/usdtwithfee.sol\":1546:1551  owner */\n      dup1\n      sload\n        /* \"contracts/test/usdtwithfee.sol\":1532:1542  msg.sender */\n      caller\n      sub(exp(0x2, 0xa0), 0x1)\n        /* \"contracts/test/usdtwithfee.sol\":1532:1551  msg.sender == owner */\n      swap1\n      dup2\n      and\n        /* \"contracts/test/usdtwithfee.sol\":1546:1551  owner */\n      swap2\n      and\n        /* \"contracts/test/usdtwithfee.sol\":1532:1551  msg.sender == owner */\n      eq\n        /* \"contracts/test/usdtwithfee.sol\":1524:1552  require(msg.sender == owner) */\n      tag_235\n      jumpi\n      0x0\n      dup1\n      revert\n    tag_235:\n      sub(exp(0x2, 0xa0), 0x1)\n        /* \"contracts/test/usdtwithfee.sol\":8985:9016  isBlackListed[_blackListedUser] */\n      dup3\n      and\n      0x0\n      swap1\n      dup2\n      mstore\n        /* \"contracts/test/usdtwithfee.sol\":8985:8998  isBlackListed */\n      0x6\n        /* \"contracts/test/usdtwithfee.sol\":8985:9016  isBlackListed[_blackListedUser] */\n      0x20\n      mstore\n      0x40\n      swap1\n      keccak256\n      sload\n      0xff\n      and\n        /* \"contracts/test/usdtwithfee.sol\":8977:9017  require(isBlackListed[_blackListedUser]) */\n      iszero\n      iszero\n      tag_237\n      jumpi\n      0x0\n      dup1\n      revert\n    tag_237:\n        /* \"contracts/test/usdtwithfee.sol\":9045:9072  balanceOf(_blackListedUser) */\n      tag_238\n        /* \"contracts/test/usdtwithfee.sol\":9055:9071  _blackListedUser */\n      dup3\n        /* \"contracts/test/usdtwithfee.sol\":9045:9054  balanceOf */\n      tag_88\n        /* \"contracts/test/usdtwithfee.sol\":9045:9072  balanceOf(_blackListedUser) */\n      jump\t// in\n    tag_238:\n      sub(exp(0x2, 0xa0), 0x1)\n        /* \"contracts/test/usdtwithfee.sol\":9082:9108  balances[_blackListedUser] */\n      dup4\n      and\n        /* \"contracts/test/usdtwithfee.sol\":9111:9112  0 */\n      0x0\n        /* \"contracts/test/usdtwithfee.sol\":9082:9108  balances[_blackListedUser] */\n      swap1\n      dup2\n      mstore\n        /* \"contracts/test/usdtwithfee.sol\":9082:9090  balances */\n      0x2\n        /* \"contracts/test/usdtwithfee.sol\":9082:9108  balances[_blackListedUser] */\n      0x20\n      mstore\n      0x40\n      dup1\n      dup3\n      keccak256\n        /* \"contracts/test/usdtwithfee.sol\":9082:9112  balances[_blackListedUser] = 0 */\n      swap2\n      swap1\n      swap2\n      sstore\n        /* \"contracts/test/usdtwithfee.sol\":9122:9134  _totalSupply */\n      0x1\n        /* \"contracts/test/usdtwithfee.sol\":9122:9148  _totalSupply -= dirtyFunds */\n      dup1\n      sload\n      dup4\n      swap1\n      sub\n      swap1\n      sstore\n        /* \"contracts/test/usdtwithfee.sol\":9027:9072  uint dirtyFunds = balanceOf(_blackListedUser) */\n      swap1\n      swap2\n      pop\n        /* \"contracts/test/usdtwithfee.sol\":9158:9207  DestroyedBlackFunds(_blackListedUser, dirtyFunds) */\n      0x61e6e66b0d6339b2980aecc6ccc0039736791f0ccde9ed512e789a7fbdd698c6\n      swap1\n        /* \"contracts/test/usdtwithfee.sol\":9091:9107  _blackListedUser */\n      dup4\n      swap1\n        /* \"contracts/test/usdtwithfee.sol\":9027:9072  uint dirtyFunds = balanceOf(_blackListedUser) */\n      dup4\n      swap1\n        /* \"contracts/test/usdtwithfee.sol\":9158:9207  DestroyedBlackFunds(_blackListedUser, dirtyFunds) */\n      mload\n      sub(exp(0x2, 0xa0), 0x1)\n      swap1\n      swap3\n      and\n      dup3\n      mstore\n      0x20\n      dup3\n      add\n      mstore\n      0x40\n      swap1\n      dup2\n      add\n      swap1\n      mload\n      dup1\n      swap2\n      sub\n      swap1\n      log1\n        /* \"contracts/test/usdtwithfee.sol\":8896:9214  function destroyBlackFunds (address _blackListedUser) public onlyOwner {... */\n      pop\n      pop\n      jump\t// out\n        /* \"contracts/test/usdtwithfee.sol\":6178:6741  function approve(address _spender, uint _value) public onlyPayloadSize(2 * 32) {... */\n    tag_152:\n        /* \"contracts/test/usdtwithfee.sol\":6249:6255  2 * 32 */\n      0x40\n        /* \"contracts/test/usdtwithfee.sol\":3265:3273  size + 4 */\n      0x44\n        /* \"contracts/test/usdtwithfee.sol\":3247:3255  msg.data */\n      calldatasize\n        /* \"contracts/test/usdtwithfee.sol\":3247:3273  msg.data.length < size + 4 */\n      lt\n        /* \"contracts/test/usdtwithfee.sol\":3245:3274  !(msg.data.length < size + 4) */\n      iszero\n        /* \"contracts/test/usdtwithfee.sol\":3237:3275  require(!(msg.data.length < size + 4)) */\n      tag_240\n      jumpi\n      0x0\n      dup1\n      revert\n    tag_240:\n        /* \"contracts/test/usdtwithfee.sol\":6583:6594  _value != 0 */\n      dup2\n      iszero\n      dup1\n      iszero\n      swap1\n        /* \"contracts/test/usdtwithfee.sol\":6582:6635  (_value != 0) && (allowed[msg.sender][_spender] != 0) */\n      tag_242\n      jumpi\n      pop\n      sub(exp(0x2, 0xa0), 0x1)\n        /* \"contracts/test/usdtwithfee.sol\":6608:6618  msg.sender */\n      caller\n        /* \"contracts/test/usdtwithfee.sol\":6600:6619  allowed[msg.sender] */\n      dup2\n      and\n      0x0\n      swap1\n      dup2\n      mstore\n        /* \"contracts/test/usdtwithfee.sol\":6600:6607  allowed */\n      0x5\n        /* \"contracts/test/usdtwithfee.sol\":6600:6619  allowed[msg.sender] */\n      0x20\n      swap1\n      dup2\n      mstore\n      0x40\n      dup1\n      dup4\n      keccak256\n        /* \"contracts/test/usdtwithfee.sol\":6600:6629  allowed[msg.sender][_spender] */\n      swap4\n      dup8\n      and\n      dup4\n      mstore\n      swap3\n      swap1\n      mstore\n      keccak256\n      sload\n        /* \"contracts/test/usdtwithfee.sol\":6600:6634  allowed[msg.sender][_spender] != 0 */\n      iszero\n      iszero\n        /* \"contracts/test/usdtwithfee.sol\":6582:6635  (_value != 0) && (allowed[msg.sender][_spender] != 0) */\n    tag_242:\n        /* \"contracts/test/usdtwithfee.sol\":6580:6636  !((_value != 0) && (allowed[msg.sender][_spender] != 0)) */\n      iszero\n        /* \"contracts/test/usdtwithfee.sol\":6572:6637  require(!((_value != 0) && (allowed[msg.sender][_spender] != 0))) */\n      tag_243\n      jumpi\n      0x0\n      dup1\n      revert\n    tag_243:\n      sub(exp(0x2, 0xa0), 0x1)\n        /* \"contracts/test/usdtwithfee.sol\":6656:6666  msg.sender */\n      caller\n        /* \"contracts/test/usdtwithfee.sol\":6648:6667  allowed[msg.sender] */\n      dup2\n      and\n      0x0\n      dup2\n      dup2\n      mstore\n        /* \"contracts/test/usdtwithfee.sol\":6648:6655  allowed */\n      0x5\n        /* \"contracts/test/usdtwithfee.sol\":6648:6667  allowed[msg.sender] */\n      0x20\n      swap1\n      dup2\n      mstore\n      0x40\n      dup1\n      dup4\n      keccak256\n        /* \"contracts/test/usdtwithfee.sol\":6648:6677  allowed[msg.sender][_spender] */\n      swap5\n      dup9\n      and\n      dup1\n      dup5\n      mstore\n      swap5\n      swap1\n      swap2\n      mstore\n      swap1\n      dup2\n      swap1\n      keccak256\n        /* \"contracts/test/usdtwithfee.sol\":6648:6686  allowed[msg.sender][_spender] = _value */\n      dup6\n      swap1\n      sstore\n        /* \"contracts/test/usdtwithfee.sol\":6696:6734  Approval(msg.sender, _spender, _value) */\n      0x8c5be1e5ebec7d5bd14f71427d1e84f3dd0314c0f7b2291e5b200ac8c7c3b925\n      swap1\n        /* \"contracts/test/usdtwithfee.sol\":6680:6686  _value */\n      dup6\n      swap1\n        /* \"contracts/test/usdtwithfee.sol\":6696:6734  Approval(msg.sender, _spender, _value) */\n      mload\n      swap1\n      dup2\n      mstore\n      0x20\n      add\n      mload(0x40)\n      dup1\n      swap2\n      sub\n      swap1\n      log3\n        /* \"contracts/test/usdtwithfee.sol\":6178:6741  function approve(address _spender, uint _value) public onlyPayloadSize(2 * 32) {... */\n      pop\n      pop\n      pop\n      jump\t// out\n        /* \"contracts/test/usdtwithfee.sol\":5058:5938  function transferFrom(address _from, address _to, uint _value) public onlyPayloadSize(3 * 32) {... */\n    tag_170:\n        /* \"contracts/test/usdtwithfee.sol\":5162:5176  var _allowance */\n      0x0\n      dup1\n      dup1\n        /* \"contracts/test/usdtwithfee.sol\":5144:5150  3 * 32 */\n      0x60\n        /* \"contracts/test/usdtwithfee.sol\":3265:3273  size + 4 */\n      0x64\n        /* \"contracts/test/usdtwithfee.sol\":3247:3255  msg.data */\n      calldatasize\n        /* \"contracts/test/usdtwithfee.sol\":3247:3273  msg.data.length < size + 4 */\n      lt\n        /* \"contracts/test/usdtwithfee.sol\":3245:3274  !(msg.data.length < size + 4) */\n      iszero\n        /* \"contracts/test/usdtwithfee.sol\":3237:3275  require(!(msg.data.length < size + 4)) */\n      tag_245\n      jumpi\n      0x0\n      dup1\n      revert\n    tag_245:\n      sub(exp(0x2, 0xa0), 0x1)\n        /* \"contracts/test/usdtwithfee.sol\":5179:5193  allowed[_from] */\n      dup1\n      dup9\n      and\n      0x0\n      swap1\n      dup2\n      mstore\n        /* \"contracts/test/usdtwithfee.sol\":5179:5186  allowed */\n      0x5\n        /* \"contracts/test/usdtwithfee.sol\":5179:5193  allowed[_from] */\n      0x20\n      swap1\n      dup2\n      mstore\n      0x40\n      dup1\n      dup4\n      keccak256\n        /* \"contracts/test/usdtwithfee.sol\":5194:5204  msg.sender */\n      caller\n        /* \"contracts/test/usdtwithfee.sol\":5179:5205  allowed[_from][msg.sender] */\n      swap1\n      swap5\n      and\n      dup4\n      mstore\n      swap3\n      swap1\n      mstore\n      keccak256\n      sload\n        /* \"contracts/test/usdtwithfee.sol\":5394:5409  basisPointsRate */\n      sload(0x3)\n        /* \"contracts/test/usdtwithfee.sol\":5179:5205  allowed[_from][msg.sender] */\n      swap1\n      swap5\n      pop\n        /* \"contracts/test/usdtwithfee.sol\":5382:5422  (_value.mul(basisPointsRate)).div(10000) */\n      tag_247\n      swap1\n        /* \"contracts/test/usdtwithfee.sol\":5416:5421  10000 */\n      0x2710\n      swap1\n        /* \"contracts/test/usdtwithfee.sol\":5383:5410  _value.mul(basisPointsRate) */\n      tag_248\n      swap1\n        /* \"contracts/test/usdtwithfee.sol\":5383:5389  _value */\n      dup9\n      swap1\n        /* \"contracts/test/usdtwithfee.sol\":5383:5410  _value.mul(basisPointsRate) */\n      0xffffffff\n        /* \"contracts/test/usdtwithfee.sol\":5383:5393  _value.mul */\n      tag_209\n        /* \"contracts/test/usdtwithfee.sol\":5383:5410  _value.mul(basisPointsRate) */\n      and\n      jump\t// in\n    tag_248:\n        /* \"contracts/test/usdtwithfee.sol\":5382:5415  (_value.mul(basisPointsRate)).div */\n      swap1\n        /* \"contracts/test/usdtwithfee.sol\":5382:5422  (_value.mul(basisPointsRate)).div(10000) */\n      0xffffffff\n        /* \"contracts/test/usdtwithfee.sol\":5382:5415  (_value.mul(basisPointsRate)).div */\n      tag_249\n        /* \"contracts/test/usdtwithfee.sol\":5382:5422  (_value.mul(basisPointsRate)).div(10000) */\n      and\n      jump\t// in\n    tag_247:\n        /* \"contracts/test/usdtwithfee.sol\":5371:5422  uint fee = (_value.mul(basisPointsRate)).div(10000) */\n      swap3\n      pop\n        /* \"contracts/test/usdtwithfee.sol\":5442:5452  maximumFee */\n      sload(0x4)\n        /* \"contracts/test/usdtwithfee.sol\":5436:5439  fee */\n      dup4\n        /* \"contracts/test/usdtwithfee.sol\":5436:5452  fee > maximumFee */\n      gt\n        /* \"contracts/test/usdtwithfee.sol\":5432:5495  if (fee > maximumFee) {... */\n      iszero\n      tag_250\n      jumpi\n        /* \"contracts/test/usdtwithfee.sol\":5474:5484  maximumFee */\n      sload(0x4)\n        /* \"contracts/test/usdtwithfee.sol\":5468:5484  fee = maximumFee */\n      swap3\n      pop\n        /* \"contracts/test/usdtwithfee.sol\":5432:5495  if (fee > maximumFee) {... */\n    tag_250:\n      not(0x0)\n        /* \"contracts/test/usdtwithfee.sol\":5508:5518  _allowance */\n      dup5\n        /* \"contracts/test/usdtwithfee.sol\":5508:5529  _allowance < MAX_UINT */\n      lt\n        /* \"contracts/test/usdtwithfee.sol\":5504:5607  if (_allowance < MAX_UINT) {... */\n      iszero\n      tag_251\n      jumpi\n        /* \"contracts/test/usdtwithfee.sol\":5574:5596  _allowance.sub(_value) */\n      tag_252\n        /* \"contracts/test/usdtwithfee.sol\":5574:5584  _allowance */\n      dup5\n        /* \"contracts/test/usdtwithfee.sol\":5589:5595  _value */\n      dup7\n        /* \"contracts/test/usdtwithfee.sol\":5574:5596  _allowance.sub(_value) */\n      0xffffffff\n        /* \"contracts/test/usdtwithfee.sol\":5574:5588  _allowance.sub */\n      tag_253\n        /* \"contracts/test/usdtwithfee.sol\":5574:5596  _allowance.sub(_value) */\n      and\n      jump\t// in\n    tag_252:\n      sub(exp(0x2, 0xa0), 0x1)\n        /* \"contracts/test/usdtwithfee.sol\":5545:5559  allowed[_from] */\n      dup1\n      dup10\n      and\n      0x0\n      swap1\n      dup2\n      mstore\n        /* \"contracts/test/usdtwithfee.sol\":5545:5552  allowed */\n      0x5\n        /* \"contracts/test/usdtwithfee.sol\":5545:5559  allowed[_from] */\n      0x20\n      swap1\n      dup2\n      mstore\n      0x40\n      dup1\n      dup4\n      keccak256\n        /* \"contracts/test/usdtwithfee.sol\":5560:5570  msg.sender */\n      caller\n        /* \"contracts/test/usdtwithfee.sol\":5545:5571  allowed[_from][msg.sender] */\n      swap1\n      swap5\n      and\n      dup4\n      mstore\n      swap3\n      swap1\n      mstore\n      keccak256\n        /* \"contracts/test/usdtwithfee.sol\":5545:5596  allowed[_from][msg.sender] = _allowance.sub(_value) */\n      sstore\n        /* \"contracts/test/usdtwithfee.sol\":5504:5607  if (_allowance < MAX_UINT) {... */\n    tag_251:\n        /* \"contracts/test/usdtwithfee.sol\":5634:5649  _value.sub(fee) */\n      tag_254\n        /* \"contracts/test/usdtwithfee.sol\":5634:5640  _value */\n      dup6\n        /* \"contracts/test/usdtwithfee.sol\":5645:5648  fee */\n      dup5\n        /* \"contracts/test/usdtwithfee.sol\":5634:5649  _value.sub(fee) */\n      0xffffffff\n        /* \"contracts/test/usdtwithfee.sol\":5634:5644  _value.sub */\n      tag_253\n        /* \"contracts/test/usdtwithfee.sol\":5634:5649  _value.sub(fee) */\n      and\n      jump\t// in\n    tag_254:\n      sub(exp(0x2, 0xa0), 0x1)\n        /* \"contracts/test/usdtwithfee.sol\":5677:5692  balances[_from] */\n      dup9\n      and\n      0x0\n      swap1\n      dup2\n      mstore\n        /* \"contracts/test/usdtwithfee.sol\":5677:5685  balances */\n      0x2\n        /* \"contracts/test/usdtwithfee.sol\":5677:5692  balances[_from] */\n      0x20\n      mstore\n      0x40\n      swap1\n      keccak256\n      sload\n        /* \"contracts/test/usdtwithfee.sol\":5616:5649  uint sendAmount = _value.sub(fee) */\n      swap1\n      swap3\n      pop\n        /* \"contracts/test/usdtwithfee.sol\":5677:5704  balances[_from].sub(_value) */\n      tag_255\n      swap1\n        /* \"contracts/test/usdtwithfee.sol\":5697:5703  _value */\n      dup7\n        /* \"contracts/test/usdtwithfee.sol\":5677:5704  balances[_from].sub(_value) */\n      0xffffffff\n        /* \"contracts/test/usdtwithfee.sol\":5677:5696  balances[_from].sub */\n      tag_253\n        /* \"contracts/test/usdtwithfee.sol\":5677:5704  balances[_from].sub(_value) */\n      and\n      jump\t// in\n    tag_255:\n      sub(exp(0x2, 0xa0), 0x1)\n        /* \"contracts/test/usdtwithfee.sol\":5659:5674  balances[_from] */\n      dup1\n      dup10\n      and\n      0x0\n      swap1\n      dup2\n      mstore\n        /* \"contracts/test/usdtwithfee.sol\":5659:5667  balances */\n      0x2\n        /* \"contracts/test/usdtwithfee.sol\":5659:5674  balances[_from] */\n      0x20\n      mstore\n      0x40\n      dup1\n      dup3\n      keccak256\n        /* \"contracts/test/usdtwithfee.sol\":5659:5704  balances[_from] = balances[_from].sub(_value) */\n      swap4\n      swap1\n      swap4\n      sstore\n        /* \"contracts/test/usdtwithfee.sol\":5730:5743  balances[_to] */\n      swap1\n      dup9\n      and\n      dup2\n      mstore\n      keccak256\n      sload\n        /* \"contracts/test/usdtwithfee.sol\":5730:5759  balances[_to].add(sendAmount) */\n      tag_256\n      swap1\n        /* \"contracts/test/usdtwithfee.sol\":5748:5758  sendAmount */\n      dup4\n        /* \"contracts/test/usdtwithfee.sol\":5730:5759  balances[_to].add(sendAmount) */\n      0xffffffff\n        /* \"contracts/test/usdtwithfee.sol\":5730:5747  balances[_to].add */\n      tag_257\n        /* \"contracts/test/usdtwithfee.sol\":5730:5759  balances[_to].add(sendAmount) */\n      and\n      jump\t// in\n    tag_256:\n      sub(exp(0x2, 0xa0), 0x1)\n        /* \"contracts/test/usdtwithfee.sol\":5714:5727  balances[_to] */\n      dup8\n      and\n      0x0\n      swap1\n      dup2\n      mstore\n        /* \"contracts/test/usdtwithfee.sol\":5714:5722  balances */\n      0x2\n        /* \"contracts/test/usdtwithfee.sol\":5714:5727  balances[_to] */\n      0x20\n      mstore\n      0x40\n      dup2\n      keccak256\n        /* \"contracts/test/usdtwithfee.sol\":5714:5759  balances[_to] = balances[_to].add(sendAmount) */\n      swap2\n      swap1\n      swap2\n      sstore\n        /* \"contracts/test/usdtwithfee.sol\":5773:5780  fee > 0 */\n      dup4\n      gt\n        /* \"contracts/test/usdtwithfee.sol\":5769:5890  if (fee > 0) {... */\n      iszero\n      tag_258\n      jumpi\n        /* \"contracts/test/usdtwithfee.sol\":5814:5829  balances[owner] */\n      0x0\n        /* \"contracts/test/usdtwithfee.sol\":5823:5828  owner */\n      dup1\n      sload\n      sub(exp(0x2, 0xa0), 0x1)\n      and\n        /* \"contracts/test/usdtwithfee.sol\":5814:5829  balances[owner] */\n      dup2\n      mstore\n        /* \"contracts/test/usdtwithfee.sol\":5814:5822  balances */\n      0x2\n        /* \"contracts/test/usdtwithfee.sol\":5814:5829  balances[owner] */\n      0x20\n      mstore\n      0x40\n      swap1\n      keccak256\n      sload\n        /* \"contracts/test/usdtwithfee.sol\":5814:5838  balances[owner].add(fee) */\n      tag_259\n      swap1\n        /* \"contracts/test/usdtwithfee.sol\":5834:5837  fee */\n      dup5\n        /* \"contracts/test/usdtwithfee.sol\":5814:5838  balances[owner].add(fee) */\n      0xffffffff\n        /* \"contracts/test/usdtwithfee.sol\":5814:5833  balances[owner].add */\n      tag_257\n        /* \"contracts/test/usdtwithfee.sol\":5814:5838  balances[owner].add(fee) */\n      and\n      jump\t// in\n    tag_259:\n        /* \"contracts/test/usdtwithfee.sol\":5796:5811  balances[owner] */\n      0x0\n        /* \"contracts/test/usdtwithfee.sol\":5805:5810  owner */\n      dup1\n      sload\n      sub(exp(0x2, 0xa0), 0x1)\n      swap1\n      dup2\n      and\n        /* \"contracts/test/usdtwithfee.sol\":5796:5811  balances[owner] */\n      dup3\n      mstore\n        /* \"contracts/test/usdtwithfee.sol\":5796:5804  balances */\n      0x2\n        /* \"contracts/test/usdtwithfee.sol\":5796:5811  balances[owner] */\n      0x20\n      mstore\n      0x40\n      dup1\n      dup4\n      keccak256\n        /* \"contracts/test/usdtwithfee.sol\":5796:5838  balances[owner] = balances[owner].add(fee) */\n      swap4\n      swap1\n      swap4\n      sstore\n        /* \"contracts/test/usdtwithfee.sol\":5868:5873  owner */\n      swap1\n      sload\n      dup2\n      and\n      swap2\n        /* \"contracts/test/usdtwithfee.sol\":5852:5879  Transfer(_from, owner, fee) */\n      swap1\n      dup10\n      and\n      swap1\n      0x0\n      dup1\n      mload\n      0x20\n      data_ada389e1fc24a8587c776340efb91b36e675792ab631816100d55df0b5cf3cbc\n      dup4\n      codecopy\n      dup2\n      mload\n      swap2\n      mstore\n      swap1\n        /* \"contracts/test/usdtwithfee.sol\":5875:5878  fee */\n      dup7\n      swap1\n        /* \"contracts/test/usdtwithfee.sol\":5852:5879  Transfer(_from, owner, fee) */\n      mload\n      swap1\n      dup2\n      mstore\n      0x20\n      add\n      mload(0x40)\n      dup1\n      swap2\n      sub\n      swap1\n      log3\n        /* \"contracts/test/usdtwithfee.sol\":5769:5890  if (fee > 0) {... */\n    tag_258:\n        /* \"contracts/test/usdtwithfee.sol\":5915:5918  _to */\n      dup6\n      sub(exp(0x2, 0xa0), 0x1)\n        /* \"contracts/test/usdtwithfee.sol\":5899:5931  Transfer(_from, _to, sendAmount) */\n      and\n        /* \"contracts/test/usdtwithfee.sol\":5908:5913  _from */\n      dup8\n      sub(exp(0x2, 0xa0), 0x1)\n        /* \"contracts/test/usdtwithfee.sol\":5899:5931  Transfer(_from, _to, sendAmount) */\n      and\n      0x0\n      dup1\n      mload\n      0x20\n      data_ada389e1fc24a8587c776340efb91b36e675792ab631816100d55df0b5cf3cbc\n      dup4\n      codecopy\n      dup2\n      mload\n      swap2\n      mstore\n        /* \"contracts/test/usdtwithfee.sol\":5920:5930  sendAmount */\n      dup5\n        /* \"contracts/test/usdtwithfee.sol\":5899:5931  Transfer(_from, _to, sendAmount) */\n      mload(0x40)\n      swap1\n      dup2\n      mstore\n      0x20\n      add\n      mload(0x40)\n      dup1\n      swap2\n      sub\n      swap1\n      log3\n        /* \"contracts/test/usdtwithfee.sol\":5058:5938  function transferFrom(address _from, address _to, uint _value) public onlyPayloadSize(3 * 32) {... */\n      pop\n      pop\n      pop\n      pop\n      pop\n      pop\n      pop\n      jump\t// out\n        /* \"contracts/test/usdtwithfee.sol\":4230:4344  function balanceOf(address _owner) public constant returns (uint balance) {... */\n    tag_183:\n      sub(exp(0x2, 0xa0), 0x1)\n        /* \"contracts/test/usdtwithfee.sol\":4321:4337  balances[_owner] */\n      and\n        /* \"contracts/test/usdtwithfee.sol\":4290:4302  uint balance */\n      0x0\n        /* \"contracts/test/usdtwithfee.sol\":4321:4337  balances[_owner] */\n      swap1\n      dup2\n      mstore\n        /* \"contracts/test/usdtwithfee.sol\":4321:4329  balances */\n      0x2\n        /* \"contracts/test/usdtwithfee.sol\":4321:4337  balances[_owner] */\n      0x20\n      mstore\n      0x40\n      swap1\n      keccak256\n      sload\n      swap1\n        /* \"contracts/test/usdtwithfee.sol\":4230:4344  function balanceOf(address _owner) public constant returns (uint balance) {... */\n      jump\t// out\n        /* \"contracts/test/usdtwithfee.sol\":3459:4019  function transfer(address _to, uint _value) public onlyPayloadSize(2 * 32) {... */\n    tag_202:\n        /* \"contracts/test/usdtwithfee.sol\":3544:3552  uint fee */\n      0x0\n      dup1\n        /* \"contracts/test/usdtwithfee.sol\":3526:3532  2 * 32 */\n      0x40\n        /* \"contracts/test/usdtwithfee.sol\":3265:3273  size + 4 */\n      0x44\n        /* \"contracts/test/usdtwithfee.sol\":3247:3255  msg.data */\n      calldatasize\n        /* \"contracts/test/usdtwithfee.sol\":3247:3273  msg.data.length < size + 4 */\n      lt\n        /* \"contracts/test/usdtwithfee.sol\":3245:3274  !(msg.data.length < size + 4) */\n      iszero\n        /* \"contracts/test/usdtwithfee.sol\":3237:3275  require(!(msg.data.length < size + 4)) */\n      tag_262\n      jumpi\n      0x0\n      dup1\n      revert\n    tag_262:\n        /* \"contracts/test/usdtwithfee.sol\":3555:3595  (_value.mul(basisPointsRate)).div(10000) */\n      tag_264\n        /* \"contracts/test/usdtwithfee.sol\":3589:3594  10000 */\n      0x2710\n        /* \"contracts/test/usdtwithfee.sol\":3556:3583  _value.mul(basisPointsRate) */\n      tag_248\n        /* \"contracts/test/usdtwithfee.sol\":3567:3582  basisPointsRate */\n      sload(0x3)\n        /* \"contracts/test/usdtwithfee.sol\":3556:3562  _value */\n      dup8\n        /* \"contracts/test/usdtwithfee.sol\":3556:3566  _value.mul */\n      tag_209\n      swap1\n        /* \"contracts/test/usdtwithfee.sol\":3556:3583  _value.mul(basisPointsRate) */\n      swap2\n      swap1\n      0xffffffff\n      and\n      jump\t// in\n        /* \"contracts/test/usdtwithfee.sol\":3555:3595  (_value.mul(basisPointsRate)).div(10000) */\n    tag_264:\n        /* \"contracts/test/usdtwithfee.sol\":3544:3595  uint fee = (_value.mul(basisPointsRate)).div(10000) */\n      swap3\n      pop\n        /* \"contracts/test/usdtwithfee.sol\":3615:3625  maximumFee */\n      sload(0x4)\n        /* \"contracts/test/usdtwithfee.sol\":3609:3612  fee */\n      dup4\n        /* \"contracts/test/usdtwithfee.sol\":3609:3625  fee > maximumFee */\n      gt\n        /* \"contracts/test/usdtwithfee.sol\":3605:3668  if (fee > maximumFee) {... */\n      iszero\n      tag_266\n      jumpi\n        /* \"contracts/test/usdtwithfee.sol\":3647:3657  maximumFee */\n      sload(0x4)\n        /* \"contracts/test/usdtwithfee.sol\":3641:3657  fee = maximumFee */\n      swap3\n      pop\n        /* \"contracts/test/usdtwithfee.sol\":3605:3668  if (fee > maximumFee) {... */\n    tag_266:\n        /* \"contracts/test/usdtwithfee.sol\":3695:3710  _value.sub(fee) */\n      tag_267\n        /* \"contracts/test/usdtwithfee.sol\":3695:3701  _value */\n      dup5\n        /* \"contracts/test/usdtwithfee.sol\":3706:3709  fee */\n      dup5\n        /* \"contracts/test/usdtwithfee.sol\":3695:3710  _value.sub(fee) */\n      0xffffffff\n        /* \"contracts/test/usdtwithfee.sol\":3695:3705  _value.sub */\n      tag_253\n        /* \"contracts/test/usdtwithfee.sol\":3695:3710  _value.sub(fee) */\n      and\n      jump\t// in\n    tag_267:\n      sub(exp(0x2, 0xa0), 0x1)\n        /* \"contracts/test/usdtwithfee.sol\":3752:3762  msg.sender */\n      caller\n        /* \"contracts/test/usdtwithfee.sol\":3743:3763  balances[msg.sender] */\n      and\n      0x0\n      swap1\n      dup2\n      mstore\n        /* \"contracts/test/usdtwithfee.sol\":3743:3751  balances */\n      0x2\n        /* \"contracts/test/usdtwithfee.sol\":3743:3763  balances[msg.sender] */\n      0x20\n      mstore\n      0x40\n      swap1\n      keccak256\n      sload\n        /* \"contracts/test/usdtwithfee.sol\":3677:3710  uint sendAmount = _value.sub(fee) */\n      swap1\n      swap3\n      pop\n        /* \"contracts/test/usdtwithfee.sol\":3743:3775  balances[msg.sender].sub(_value) */\n      tag_268\n      swap1\n        /* \"contracts/test/usdtwithfee.sol\":3768:3774  _value */\n      dup6\n        /* \"contracts/test/usdtwithfee.sol\":3743:3775  balances[msg.sender].sub(_value) */\n      0xffffffff\n        /* \"contracts/test/usdtwithfee.sol\":3743:3767  balances[msg.sender].sub */\n      tag_253\n        /* \"contracts/test/usdtwithfee.sol\":3743:3775  balances[msg.sender].sub(_value) */\n      and\n      jump\t// in\n    tag_268:\n      sub(exp(0x2, 0xa0), 0x1)\n        /* \"contracts/test/usdtwithfee.sol\":3729:3739  msg.sender */\n      caller\n        /* \"contracts/test/usdtwithfee.sol\":3720:3740  balances[msg.sender] */\n      dup2\n      and\n      0x0\n      swap1\n      dup2\n      mstore\n        /* \"contracts/test/usdtwithfee.sol\":3720:3728  balances */\n      0x2\n        /* \"contracts/test/usdtwithfee.sol\":3720:3740  balances[msg.sender] */\n      0x20\n      mstore\n      0x40\n      dup1\n      dup3\n      keccak256\n        /* \"contracts/test/usdtwithfee.sol\":3720:3775  balances[msg.sender] = balances[msg.sender].sub(_value) */\n      swap4\n      swap1\n      swap4\n      sstore\n        /* \"contracts/test/usdtwithfee.sol\":3801:3814  balances[_to] */\n      swap1\n      dup8\n      and\n      dup2\n      mstore\n      keccak256\n      sload\n        /* \"contracts/test/usdtwithfee.sol\":3801:3830  balances[_to].add(sendAmount) */\n      tag_269\n      swap1\n        /* \"contracts/test/usdtwithfee.sol\":3819:3829  sendAmount */\n      dup4\n        /* \"contracts/test/usdtwithfee.sol\":3801:3830  balances[_to].add(sendAmount) */\n      0xffffffff\n        /* \"contracts/test/usdtwithfee.sol\":3801:3818  balances[_to].add */\n      tag_257\n        /* \"contracts/test/usdtwithfee.sol\":3801:3830  balances[_to].add(sendAmount) */\n      and\n      jump\t// in\n    tag_269:\n      sub(exp(0x2, 0xa0), 0x1)\n        /* \"contracts/test/usdtwithfee.sol\":3785:3798  balances[_to] */\n      dup7\n      and\n      0x0\n      swap1\n      dup2\n      mstore\n        /* \"contracts/test/usdtwithfee.sol\":3785:3793  balances */\n      0x2\n        /* \"contracts/test/usdtwithfee.sol\":3785:3798  balances[_to] */\n      0x20\n      mstore\n      0x40\n      dup2\n      keccak256\n        /* \"contracts/test/usdtwithfee.sol\":3785:3830  balances[_to] = balances[_to].add(sendAmount) */\n      swap2\n      swap1\n      swap2\n      sstore\n        /* \"contracts/test/usdtwithfee.sol\":3844:3851  fee > 0 */\n      dup4\n      gt\n        /* \"contracts/test/usdtwithfee.sol\":3840:3966  if (fee > 0) {... */\n      iszero\n      tag_270\n      jumpi\n        /* \"contracts/test/usdtwithfee.sol\":3885:3900  balances[owner] */\n      0x0\n        /* \"contracts/test/usdtwithfee.sol\":3894:3899  owner */\n      dup1\n      sload\n      sub(exp(0x2, 0xa0), 0x1)\n      and\n        /* \"contracts/test/usdtwithfee.sol\":3885:3900  balances[owner] */\n      dup2\n      mstore\n        /* \"contracts/test/usdtwithfee.sol\":3885:3893  balances */\n      0x2\n        /* \"contracts/test/usdtwithfee.sol\":3885:3900  balances[owner] */\n      0x20\n      mstore\n      0x40\n      swap1\n      keccak256\n      sload\n        /* \"contracts/test/usdtwithfee.sol\":3885:3909  balances[owner].add(fee) */\n      tag_271\n      swap1\n        /* \"contracts/test/usdtwithfee.sol\":3905:3908  fee */\n      dup5\n        /* \"contracts/test/usdtwithfee.sol\":3885:3909  balances[owner].add(fee) */\n      0xffffffff\n        /* \"contracts/test/usdtwithfee.sol\":3885:3904  balances[owner].add */\n      tag_257\n        /* \"contracts/test/usdtwithfee.sol\":3885:3909  balances[owner].add(fee) */\n      and\n      jump\t// in\n    tag_271:\n        /* \"contracts/test/usdtwithfee.sol\":3867:3882  balances[owner] */\n      0x0\n        /* \"contracts/test/usdtwithfee.sol\":3876:3881  owner */\n      dup1\n      sload\n      sub(exp(0x2, 0xa0), 0x1)\n      swap1\n      dup2\n      and\n        /* \"contracts/test/usdtwithfee.sol\":3867:3882  balances[owner] */\n      dup3\n      mstore\n        /* \"contracts/test/usdtwithfee.sol\":3867:3875  balances */\n      0x2\n        /* \"contracts/test/usdtwithfee.sol\":3867:3882  balances[owner] */\n      0x20\n      mstore\n      0x40\n      dup1\n      dup4\n      keccak256\n        /* \"contracts/test/usdtwithfee.sol\":3867:3909  balances[owner] = balances[owner].add(fee) */\n      swap4\n      swap1\n      swap4\n      sstore\n        /* \"contracts/test/usdtwithfee.sol\":3944:3949  owner */\n      swap1\n      sload\n      dup2\n      and\n      swap2\n        /* \"contracts/test/usdtwithfee.sol\":3932:3942  msg.sender */\n      caller\n        /* \"contracts/test/usdtwithfee.sol\":3923:3955  Transfer(msg.sender, owner, fee) */\n      swap1\n      swap2\n      and\n      swap1\n      0x0\n      dup1\n      mload\n      0x20\n      data_ada389e1fc24a8587c776340efb91b36e675792ab631816100d55df0b5cf3cbc\n      dup4\n      codecopy\n      dup2\n      mload\n      swap2\n      mstore\n      swap1\n        /* \"contracts/test/usdtwithfee.sol\":3951:3954  fee */\n      dup7\n      swap1\n        /* \"contracts/test/usdtwithfee.sol\":3923:3955  Transfer(msg.sender, owner, fee) */\n      mload\n      swap1\n      dup2\n      mstore\n      0x20\n      add\n      mload(0x40)\n      dup1\n      swap2\n      sub\n      swap1\n      log3\n        /* \"contracts/test/usdtwithfee.sol\":3840:3966  if (fee > 0) {... */\n    tag_270:\n        /* \"contracts/test/usdtwithfee.sol\":3996:3999  _to */\n      dup5\n      sub(exp(0x2, 0xa0), 0x1)\n        /* \"contracts/test/usdtwithfee.sol\":3975:4012  Transfer(msg.sender, _to, sendAmount) */\n      and\n        /* \"contracts/test/usdtwithfee.sol\":3984:3994  msg.sender */\n      caller\n      sub(exp(0x2, 0xa0), 0x1)\n        /* \"contracts/test/usdtwithfee.sol\":3975:4012  Transfer(msg.sender, _to, sendAmount) */\n      and\n      0x0\n      dup1\n      mload\n      0x20\n      data_ada389e1fc24a8587c776340efb91b36e675792ab631816100d55df0b5cf3cbc\n      dup4\n      codecopy\n      dup2\n      mload\n      swap2\n      mstore\n        /* \"contracts/test/usdtwithfee.sol\":4001:4011  sendAmount */\n      dup5\n        /* \"contracts/test/usdtwithfee.sol\":3975:4012  Transfer(msg.sender, _to, sendAmount) */\n      mload(0x40)\n      swap1\n      dup2\n      mstore\n      0x20\n      add\n      mload(0x40)\n      dup1\n      swap2\n      sub\n      swap1\n      log3\n        /* \"contracts/test/usdtwithfee.sol\":3459:4019  function transfer(address _to, uint _value) public onlyPayloadSize(2 * 32) {... */\n      pop\n      pop\n      pop\n      pop\n      pop\n      jump\t// out\n        /* \"contracts/test/usdtwithfee.sol\":206:407  function mul(uint256 a, uint256 b) internal pure returns (uint256) {... */\n    tag_209:\n        /* \"contracts/test/usdtwithfee.sol\":264:271  uint256 */\n      0x0\n      dup1\n        /* \"contracts/test/usdtwithfee.sol\":287:293  a == 0 */\n      dup4\n      iszero\n        /* \"contracts/test/usdtwithfee.sol\":283:328  if (a == 0) {... */\n      iszero\n      tag_273\n      jumpi\n        /* \"contracts/test/usdtwithfee.sol\":316:317  0 */\n      0x0\n        /* \"contracts/test/usdtwithfee.sol\":309:317  return 0 */\n      swap2\n      pop\n      jump(tag_272)\n        /* \"contracts/test/usdtwithfee.sol\":283:328  if (a == 0) {... */\n    tag_273:\n      pop\n        /* \"contracts/test/usdtwithfee.sol\":349:354  a * b */\n      dup3\n      dup3\n      mul\n        /* \"contracts/test/usdtwithfee.sol\":353:354  b */\n      dup3\n        /* \"contracts/test/usdtwithfee.sol\":349:350  a */\n      dup5\n        /* \"contracts/test/usdtwithfee.sol\":349:354  a * b */\n      dup3\n        /* \"contracts/test/usdtwithfee.sol\":371:376  c / a */\n      dup2\n      iszero\n      iszero\n      tag_274\n      jumpi\n      invalid\n    tag_274:\n      div\n        /* \"contracts/test/usdtwithfee.sol\":371:381  c / a == b */\n      eq\n        /* \"contracts/test/usdtwithfee.sol\":364:382  assert(c / a == b) */\n      tag_275\n      jumpi\n      invalid\n    tag_275:\n        /* \"contracts/test/usdtwithfee.sol\":399:400  c */\n      dup1\n        /* \"contracts/test/usdtwithfee.sol\":392:400  return c */\n      swap2\n      pop\n        /* \"contracts/test/usdtwithfee.sol\":206:407  function mul(uint256 a, uint256 b) internal pure returns (uint256) {... */\n    tag_272:\n      pop\n      swap3\n      swap2\n      pop\n      pop\n      jump\t// out\n        /* \"contracts/test/usdtwithfee.sol\":7066:7209  function allowance(address _owner, address _spender) public constant returns (uint remaining) {... */\n    tag_226:\n      sub(exp(0x2, 0xa0), 0x1)\n        /* \"contracts/test/usdtwithfee.sol\":7177:7192  allowed[_owner] */\n      swap2\n      dup3\n      and\n        /* \"contracts/test/usdtwithfee.sol\":7144:7158  uint remaining */\n      0x0\n        /* \"contracts/test/usdtwithfee.sol\":7177:7192  allowed[_owner] */\n      swap1\n      dup2\n      mstore\n        /* \"contracts/test/usdtwithfee.sol\":7177:7184  allowed */\n      0x5\n        /* \"contracts/test/usdtwithfee.sol\":7177:7192  allowed[_owner] */\n      0x20\n      swap1\n      dup2\n      mstore\n      0x40\n      dup1\n      dup4\n      keccak256\n        /* \"contracts/test/usdtwithfee.sol\":7177:7202  allowed[_owner][_spender] */\n      swap4\n      swap1\n      swap5\n      and\n      dup3\n      mstore\n      swap2\n      swap1\n      swap2\n      mstore\n      keccak256\n      sload\n      swap1\n        /* \"contracts/test/usdtwithfee.sol\":7066:7209  function allowance(address _owner, address _spender) public constant returns (uint remaining) {... */\n      jump\t// out\n        /* \"contracts/test/usdtwithfee.sol\":413:696  function div(uint256 a, uint256 b) internal pure returns (uint256) {... */\n    tag_249:\n        /* \"contracts/test/usdtwithfee.sol\":471:478  uint256 */\n      0x0\n        /* \"contracts/test/usdtwithfee.sol\":568:577  uint256 c */\n      dup1\n        /* \"contracts/test/usdtwithfee.sol\":584:585  b */\n      dup3\n        /* \"contracts/test/usdtwithfee.sol\":580:581  a */\n      dup5\n        /* \"contracts/test/usdtwithfee.sol\":580:585  a / b */\n      dup2\n      iszero\n      iszero\n      tag_278\n      jumpi\n      invalid\n    tag_278:\n      div\n      swap5\n        /* \"contracts/test/usdtwithfee.sol\":413:696  function div(uint256 a, uint256 b) internal pure returns (uint256) {... */\n      swap4\n      pop\n      pop\n      pop\n      pop\n      jump\t// out\n        /* \"contracts/test/usdtwithfee.sol\":702:822  function sub(uint256 a, uint256 b) internal pure returns (uint256) {... */\n    tag_253:\n        /* \"contracts/test/usdtwithfee.sol\":760:767  uint256 */\n      0x0\n        /* \"contracts/test/usdtwithfee.sol\":786:792  b <= a */\n      dup3\n      dup3\n      gt\n      iszero\n        /* \"contracts/test/usdtwithfee.sol\":779:793  assert(b <= a) */\n      tag_280\n      jumpi\n      invalid\n    tag_280:\n      pop\n        /* \"contracts/test/usdtwithfee.sol\":810:815  a - b */\n      swap1\n      sub\n      swap1\n        /* \"contracts/test/usdtwithfee.sol\":702:822  function sub(uint256 a, uint256 b) internal pure returns (uint256) {... */\n      jump\t// out\n        /* \"contracts/test/usdtwithfee.sol\":828:971  function add(uint256 a, uint256 b) internal pure returns (uint256) {... */\n    tag_257:\n        /* \"contracts/test/usdtwithfee.sol\":886:893  uint256 */\n      0x0\n        /* \"contracts/test/usdtwithfee.sol\":917:922  a + b */\n      dup3\n      dup3\n      add\n        /* \"contracts/test/usdtwithfee.sol\":939:945  c >= a */\n      dup4\n      dup2\n      lt\n      iszero\n        /* \"contracts/test/usdtwithfee.sol\":932:946  assert(c >= a) */\n      tag_275\n      jumpi\n      invalid\n    stop\n    data_ada389e1fc24a8587c776340efb91b36e675792ab631816100d55df0b5cf3cbc ddf252ad1be2c89b69c2b068fc378daa952ba7f163c4a11628f55a4df523b3ef\n\n    auxdata: 0xa165627a7a72305820cfc50f7d22cad5fe38d62ba8f2320f8278c80b00fdc2c675570a66895e1d53a90029\n}\n","bytecode":{"linkReferences":{},"object":"60606040526000805460a060020a60ff02191690556005600355670de0b6b3a764000060045534156200003157600080fd5b604051620017dc380380620017dc833981016040528080519190602001805182019190602001805182019190602001805160008054600160a060020a03191633600160a060020a031617905560018690559150600790508380516200009b929160200190620000e6565b506008828051620000b1929160200190620000e6565b50600955505060008054600160a060020a0316815260026020526040902055600a805460a060020a60ff02191690556200018b565b828054600181600116156101000203166002900490600052602060002090601f016020900481019282601f106200012957805160ff191683800117855562000159565b8280016001018555821562000159579182015b82811115620001595782518255916020019190600101906200013c565b50620001679291506200016b565b5090565b6200018891905b8082111562000167576000815560010162000172565b90565b611641806200019b6000396000f3006060604052361561017a5763ffffffff60e060020a60003504166306fdde03811461017f5780630753c30c14610209578063095ea7b31461022a5780630e136b191461024c5780630ecb93c01461027357806318160ddd1461029257806323b872dd146102b757806326976e3f146102df57806327e235e31461030e578063313ce5671461032d57806335390714146103405780633eaaf86b146103535780633f4ba83a1461036657806359bf1abe146103795780635c658165146103985780635c975abb146103bd57806370a08231146103d05780638456cb59146103ef578063893d20e8146104025780638da5cb5b1461041557806395d89b4114610428578063a9059cbb1461043b578063c0324c771461045d578063cc872b6614610476578063db006a751461048c578063dd62ed3e146104a2578063dd644f72146104c7578063e47d6060146104da578063e4997dc5146104f9578063e5b5019a14610518578063f2fde38b1461052b578063f3bdc2281461054a575b600080fd5b341561018a57600080fd5b610192610569565b60405160208082528190810183818151815260200191508051906020019080838360005b838110156101ce5780820151838201526020016101b6565b50505050905090810190601f1680156101fb5780820380516001836020036101000a031916815260200191505b509250505060405180910390f35b341561021457600080fd5b610228600160a060020a0360043516610607565b005b341561023557600080fd5b610228600160a060020a03600435166024356106aa565b341561025757600080fd5b61025f610757565b604051901515815260200160405180910390f35b341561027e57600080fd5b610228600160a060020a0360043516610767565b341561029d57600080fd5b6102a56107e7565b60405190815260200160405180910390f35b34156102c257600080fd5b610228600160a060020a036004358116906024351660443561086e565b34156102ea57600080fd5b6102f2610932565b604051600160a060020a03909116815260200160405180910390f35b341561031957600080fd5b6102a5600160a060020a0360043516610941565b341561033857600080fd5b6102a5610953565b341561034b57600080fd5b6102a5610959565b341561035e57600080fd5b6102a561095f565b341561037157600080fd5b610228610965565b341561038457600080fd5b61025f600160a060020a03600435166109e4565b34156103a357600080fd5b6102a5600160a060020a0360043581169060243516610a06565b34156103c857600080fd5b61025f610a23565b34156103db57600080fd5b6102a5600160a060020a0360043516610a33565b34156103fa57600080fd5b610228610ad3565b341561040d57600080fd5b6102f2610b57565b341561042057600080fd5b6102f2610b66565b341561043357600080fd5b610192610b75565b341561044657600080fd5b610228600160a060020a0360043516602435610be0565b341561046857600080fd5b610228600435602435610cb9565b341561048157600080fd5b610228600435610d4f565b341561049757600080fd5b610228600435610dfe565b34156104ad57600080fd5b6102a5600160a060020a0360043581169060243516610eaf565b34156104d257600080fd5b6102a5610f5a565b34156104e557600080fd5b61025f600160a060020a0360043516610f60565b341561050457600080fd5b610228600160a060020a0360043516610f75565b341561052357600080fd5b6102a5610ff2565b341561053657600080fd5b610228600160a060020a0360043516610ff8565b341561055557600080fd5b610228600160a060020a036004351661104e565b60078054600181600116156101000203166002900480601f0160208091040260200160405190810160405280929190818152602001828054600181600116156101000203166002900480156105ff5780601f106105d4576101008083540402835291602001916105ff565b820191906000526020600020905b8154815290600101906020018083116105e257829003601f168201915b505050505081565b60005433600160a060020a0390811691161461062257600080fd5b600a805460a060020a74ff0000000000000000000000000000000000000000199091161773ffffffffffffffffffffffffffffffffffffffff1916600160a060020a0383161790557fcc358699805e9a8b7f77b522628c7cb9abd07d9efb86b6fb616af1609036a99e81604051600160a060020a03909116815260200160405180910390a150565b604060443610156106ba57600080fd5b600a5460a060020a900460ff161561074857600a54600160a060020a031663aee92d3333858560405160e060020a63ffffffff8616028152600160a060020a0393841660048201529190921660248201526044810191909152606401600060405180830381600087803b151561072f57600080fd5b6102c65a03f1151561074057600080fd5b505050610752565b610752838361110c565b505050565b600a5460a060020a900460ff1681565b60005433600160a060020a0390811691161461078257600080fd5b600160a060020a03811660009081526006602052604090819020805460ff191660011790557f42e160154868087d6bfdc0ca23d96a1c1cfa32f1b72ba9ba27b69b98a0d819dc90829051600160a060020a03909116815260200160405180910390a150565b600a5460009060a060020a900460ff161561086657600a54600160a060020a03166318160ddd6000604051602001526040518163ffffffff1660e060020a028152600401602060405180830381600087803b151561084457600080fd5b6102c65a03f1151561085557600080fd5b50505060405180519050905061086b565b506001545b90565b60005460a060020a900460ff161561088557600080fd5b600160a060020a03831660009081526006602052604090205460ff16156108ab57600080fd5b600a5460a060020a900460ff161561092757600a54600160a060020a0316638b477adb3385858560405160e060020a63ffffffff8716028152600160a060020a0394851660048201529284166024840152921660448201526064810191909152608401600060405180830381600087803b151561072f57600080fd5b6107528383836111be565b600a54600160a060020a031681565b60026020526000908152604090205481565b60095481565b60045481565b60015481565b60005433600160a060020a0390811691161461098057600080fd5b60005460a060020a900460ff16151561099857600080fd5b6000805474ff0000000000000000000000000000000000000000191690557f7805862f689e2f13df9f062ff482ad3ad112aca9e0847911ed832e158c525b3360405160405180910390a1565b600160a060020a03811660009081526006602052604090205460ff165b919050565b600560209081526000928352604080842090915290825290205481565b60005460a060020a900460ff1681565b600a5460009060a060020a900460ff1615610ac357600a54600160a060020a03166370a082318360006040516020015260405160e060020a63ffffffff8416028152600160a060020a039091166004820152602401602060405180830381600087803b1515610aa157600080fd5b6102c65a03f11515610ab257600080fd5b505050604051805190509050610a01565b610acc826113bd565b9050610a01565b60005433600160a060020a03908116911614610aee57600080fd5b60005460a060020a900460ff1615610b0557600080fd5b6000805474ff0000000000000000000000000000000000000000191660a060020a1790557f6985a02210a168e66602d3235cb6db0e70f92b3ba4d376a33c0f3d9434bff62560405160405180910390a1565b600054600160a060020a031690565b600054600160a060020a031681565b60088054600181600116156101000203166002900480601f0160208091040260200160405190810160405280929190818152602001828054600181600116156101000203166002900480156105ff5780601f106105d4576101008083540402835291602001916105ff565b60005460a060020a900460ff1615610bf757600080fd5b600160a060020a03331660009081526006602052604090205460ff1615610c1d57600080fd5b600a5460a060020a900460ff1615610cab57600a54600160a060020a0316636e18980a33848460405160e060020a63ffffffff8616028152600160a060020a0393841660048201529190921660248201526044810191909152606401600060405180830381600087803b1515610c9257600080fd5b6102c65a03f11515610ca357600080fd5b505050610cb5565b610cb582826113d8565b5050565b60005433600160a060020a03908116911614610cd457600080fd5b60148210610ce157600080fd5b60328110610cee57600080fd5b6003829055600954610d0a908290600a0a63ffffffff61155c16565b60048190556003547fb044a1e409eac5c48e5af22d4af52670dd1a99059537a78b31b48c6500a6354e9160405191825260208201526040908101905180910390a15050565b60005433600160a060020a03908116911614610d6a57600080fd5b60015481810111610d7a57600080fd5b60008054600160a060020a031681526002602052604090205481810111610da057600080fd5b60008054600160a060020a03168152600260205260409081902080548301905560018054830190557fcb8241adb0c3fdb35b70c24ce35c5eb0c17af7431c99f827d44a445ca624176a9082905190815260200160405180910390a150565b60005433600160a060020a03908116911614610e1957600080fd5b60015481901015610e2957600080fd5b60008054600160a060020a031681526002602052604090205481901015610e4f57600080fd5b60018054829003905560008054600160a060020a031681526002602052604090819020805483900390557f702d5967f45f6513a38ffc42d6ba9bf230bd40e8f53b16363c7eb4fd2deb9a449082905190815260200160405180910390a150565b600a5460009060a060020a900460ff1615610f4757600a54600160a060020a031663dd62ed3e848460006040516020015260405160e060020a63ffffffff8516028152600160a060020a03928316600482015291166024820152604401602060405180830381600087803b1515610f2557600080fd5b6102c65a03f11515610f3657600080fd5b505050604051805190509050610f54565b610f518383611592565b90505b92915050565b60035481565b60066020526000908152604090205460ff1681565b60005433600160a060020a03908116911614610f9057600080fd5b600160a060020a03811660009081526006602052604090819020805460ff191690557fd7e9ec6e6ecd65492dce6bf513cd6867560d49544421d0783ddf06e76c24470c90829051600160a060020a03909116815260200160405180910390a150565b60001981565b60005433600160a060020a0390811691161461101357600080fd5b600160a060020a0381161561104b576000805473ffffffffffffffffffffffffffffffffffffffff1916600160a060020a0383161790555b50565b6000805433600160a060020a0390811691161461106a57600080fd5b600160a060020a03821660009081526006602052604090205460ff16151561109157600080fd5b61109a82610a33565b600160a060020a038316600090815260026020526040808220919091556001805483900390559091507f61e6e66b0d6339b2980aecc6ccc0039736791f0ccde9ed512e789a7fbdd698c6908390839051600160a060020a03909216825260208201526040908101905180910390a15050565b6040604436101561111c57600080fd5b811580159061114f5750600160a060020a0333811660009081526005602090815260408083209387168352929052205415155b1561115957600080fd5b600160a060020a03338116600081815260056020908152604080832094881680845294909152908190208590557f8c5be1e5ebec7d5bd14f71427d1e84f3dd0314c0f7b2291e5b200ac8c7c3b9259085905190815260200160405180910390a3505050565b60008080606060643610156111d257600080fd5b600160a060020a0380881660009081526005602090815260408083203390941683529290522054600354909450611224906127109061121890889063ffffffff61155c16565b9063ffffffff6115bd16565b92506004548311156112365760045492505b60001984101561127857611250848663ffffffff6115d416565b600160a060020a03808916600090815260056020908152604080832033909416835292905220555b611288858463ffffffff6115d416565b600160a060020a0388166000908152600260205260409020549092506112b4908663ffffffff6115d416565b600160a060020a0380891660009081526002602052604080822093909355908816815220546112e9908363ffffffff6115e616565b600160a060020a03871660009081526002602052604081209190915583111561137f5760008054600160a060020a0316815260026020526040902054611335908463ffffffff6115e616565b60008054600160a060020a03908116825260026020526040808320939093559054811691908916906000805160206115f68339815191529086905190815260200160405180910390a35b85600160a060020a031687600160a060020a03166000805160206115f68339815191528460405190815260200160405180910390a350505050505050565b600160a060020a031660009081526002602052604090205490565b600080604060443610156113eb57600080fd5b6114066127106112186003548761155c90919063ffffffff16565b92506004548311156114185760045492505b611428848463ffffffff6115d416565b600160a060020a033316600090815260026020526040902054909250611454908563ffffffff6115d416565b600160a060020a033381166000908152600260205260408082209390935590871681522054611489908363ffffffff6115e616565b600160a060020a0386166000908152600260205260408120919091558311156115205760008054600160a060020a03168152600260205260409020546114d5908463ffffffff6115e616565b60008054600160a060020a0390811682526002602052604080832093909355905481169133909116906000805160206115f68339815191529086905190815260200160405180910390a35b84600160a060020a031633600160a060020a03166000805160206115f68339815191528460405190815260200160405180910390a35050505050565b60008083151561156f576000915061158b565b5082820282848281151561157f57fe5b041461158757fe5b8091505b5092915050565b600160a060020a03918216600090815260056020908152604080832093909416825291909152205490565b60008082848115156115cb57fe5b04949350505050565b6000828211156115e057fe5b50900390565b60008282018381101561158757fe00ddf252ad1be2c89b69c2b068fc378daa952ba7f163c4a11628f55a4df523b3efa165627a7a72305820cfc50f7d22cad5fe38d62ba8f2320f8278c80b00fdc2c675570a66895e1d53a90029","opcodes":"PUSH1 0x60 PUSH1 0x40 MSTORE PUSH1 0x0 DUP1 SLOAD PUSH1 0xA0 PUSH1 0x2 EXP PUSH1 0xFF MUL NOT AND SWAP1 SSTORE PUSH1 0x5 PUSH1 0x3 SSTORE PUSH8 0xDE0B6B3A7640000 PUSH1 0x4 SSTORE CALLVALUE ISZERO PUSH3 0x31 JUMPI PUSH1 0x0 DUP1 REVERT JUMPDEST PUSH1 0x40 MLOAD PUSH3 0x17DC CODESIZE SUB DUP1 PUSH3 0x17DC DUP4 CODECOPY DUP2 ADD PUSH1 0x40 MSTORE DUP1 DUP1 MLOAD SWAP2 SWAP1 PUSH1 0x20 ADD DUP1 MLOAD DUP3 ADD SWAP2 SWAP1 PUSH1 0x20 ADD DUP1 MLOAD DUP3 ADD SWAP2 SWAP1 PUSH1 0x20 ADD DUP1 MLOAD PUSH1 0x0 DUP1 SLOAD PUSH1 0x1 PUSH1 0xA0 PUSH1 0x2 EXP SUB NOT AND CALLER PUSH1 0x1 PUSH1 0xA0 PUSH1 0x2 EXP SUB AND OR SWAP1 SSTORE PUSH1 0x1 DUP7 SWAP1 SSTORE SWAP2 POP PUSH1 0x7 SWAP1 POP DUP4 DUP1 MLOAD PUSH3 0x9B SWAP3 SWAP2 PUSH1 0x20 ADD SWAP1 PUSH3 0xE6 JUMP JUMPDEST POP PUSH1 0x8 DUP3 DUP1 MLOAD PUSH3 0xB1 SWAP3 SWAP2 PUSH1 0x20 ADD SWAP1 PUSH3 0xE6 JUMP JUMPDEST POP PUSH1 0x9 SSTORE POP POP PUSH1 0x0 DUP1 SLOAD PUSH1 0x1 PUSH1 0xA0 PUSH1 0x2 EXP SUB AND DUP2 MSTORE PUSH1 0x2 PUSH1 0x20 MSTORE PUSH1 0x40 SWAP1 KECCAK256 SSTORE PUSH1 0xA DUP1 SLOAD PUSH1 0xA0 PUSH1 0x2 EXP PUSH1 0xFF MUL NOT AND SWAP1 SSTORE PUSH3 0x18B JUMP JUMPDEST DUP3 DUP1 SLOAD PUSH1 0x1 DUP2 PUSH1 0x1 AND ISZERO PUSH2 0x100 MUL SUB AND PUSH1 0x2 SWAP1 DIV SWAP1 PUSH1 0x0 MSTORE PUSH1 0x20 PUSH1 0x0 KECCAK256 SWAP1 PUSH1 0x1F ADD PUSH1 0x20 SWAP1 DIV DUP2 ADD SWAP3 DUP3 PUSH1 0x1F LT PUSH3 0x129 JUMPI DUP1 MLOAD PUSH1 0xFF NOT AND DUP4 DUP1 ADD OR DUP6 SSTORE PUSH3 0x159 JUMP JUMPDEST DUP3 DUP1 ADD PUSH1 0x1 ADD DUP6 SSTORE DUP3 ISZERO PUSH3 0x159 JUMPI SWAP2 DUP3 ADD JUMPDEST DUP3 DUP2 GT ISZERO PUSH3 0x159 JUMPI DUP3 MLOAD DUP3 SSTORE SWAP2 PUSH1 0x20 ADD SWAP2 SWAP1 PUSH1 0x1 ADD SWAP1 PUSH3 0x13C JUMP JUMPDEST POP PUSH3 0x167 SWAP3 SWAP2 POP PUSH3 0x16B JUMP JUMPDEST POP SWAP1 JUMP JUMPDEST PUSH3 0x188 SWAP2 SWAP1 JUMPDEST DUP1 DUP3 GT ISZERO PUSH3 0x167 JUMPI PUSH1 0x0 DUP2 SSTORE PUSH1 0x1 ADD PUSH3 0x172 JUMP JUMPDEST SWAP1 JUMP JUMPDEST PUSH2 0x1641 DUP1 PUSH3 0x19B PUSH1 0x0 CODECOPY PUSH1 0x0 RETURN STOP PUSH1 0x60 PUSH1 0x40 MSTORE CALLDATASIZE ISZERO PUSH2 0x17A JUMPI PUSH4 0xFFFFFFFF PUSH1 0xE0 PUSH1 0x2 EXP PUSH1 0x0 CALLDATALOAD DIV AND PUSH4 0x6FDDE03 DUP2 EQ PUSH2 0x17F JUMPI DUP1 PUSH4 0x753C30C EQ PUSH2 0x209 JUMPI DUP1 PUSH4 0x95EA7B3 EQ PUSH2 0x22A JUMPI DUP1 PUSH4 0xE136B19 EQ PUSH2 0x24C JUMPI DUP1 PUSH4 0xECB93C0 EQ PUSH2 0x273 JUMPI DUP1 PUSH4 0x18160DDD EQ PUSH2 0x292 JUMPI DUP1 PUSH4 0x23B872DD EQ PUSH2 0x2B7 JUMPI DUP1 PUSH4 0x26976E3F EQ PUSH2 0x2DF JUMPI DUP1 PUSH4 0x27E235E3 EQ PUSH2 0x30E JUMPI DUP1 PUSH4 0x313CE567 EQ PUSH2 0x32D JUMPI DUP1 PUSH4 0x35390714 EQ PUSH2 0x340 JUMPI DUP1 PUSH4 0x3EAAF86B EQ PUSH2 0x353 JUMPI DUP1 PUSH4 0x3F4BA83A EQ PUSH2 0x366 JUMPI DUP1 PUSH4 0x59BF1ABE EQ PUSH2 0x379 JUMPI DUP1 PUSH4 0x5C658165 EQ PUSH2 0x398 JUMPI DUP1 PUSH4 0x5C975ABB EQ PUSH2 0x3BD JUMPI DUP1 PUSH4 0x70A08231 EQ PUSH2 0x3D0 JUMPI DUP1 PUSH4 0x8456CB59 EQ PUSH2 0x3EF JUMPI DUP1 PUSH4 0x893D20E8 EQ PUSH2 0x402 JUMPI DUP1 PUSH4 0x8DA5CB5B EQ PUSH2 0x415 JUMPI DUP1 PUSH4 0x95D89B41 EQ PUSH2 0x428 JUMPI DUP1 PUSH4 0xA9059CBB EQ PUSH2 0x43B JUMPI DUP1 PUSH4 0xC0324C77 EQ PUSH2 0x45D JUMPI DUP1 PUSH4 0xCC872B66 EQ PUSH2 0x476 JUMPI DUP1 PUSH4 0xDB006A75 EQ PUSH2 0x48C JUMPI DUP1 PUSH4 0xDD62ED3E EQ PUSH2 0x4A2 JUMPI DUP1 PUSH4 0xDD644F72 EQ PUSH2 0x4C7 JUMPI DUP1 PUSH4 0xE47D6060 EQ PUSH2 0x4DA JUMPI DUP1 PUSH4 0xE4997DC5 EQ PUSH2 0x4F9 JUMPI DUP1 PUSH4 0xE5B5019A EQ PUSH2 0x518 JUMPI DUP1 PUSH4 0xF2FDE38B EQ PUSH2 0x52B JUMPI DUP1 PUSH4 0xF3BDC228 EQ PUSH2 0x54A JUMPI JUMPDEST PUSH1 0x0 DUP1 REVERT JUMPDEST CALLVALUE ISZERO PUSH2 0x18A JUMPI PUSH1 0x0 DUP1 REVERT JUMPDEST PUSH2 0x192 PUSH2 0x569 JUMP JUMPDEST PUSH1 0x40 MLOAD PUSH1 0x20 DUP1 DUP3 MSTORE DUP2 SWAP1 DUP2 ADD DUP4 DUP2 DUP2 MLOAD DUP2 MSTORE PUSH1 0x20 ADD SWAP2 POP DUP1 MLOAD SWAP1 PUSH1 0x20 ADD SWAP1 DUP1 DUP4 DUP4 PUSH1 0x0 JUMPDEST DUP4 DUP2 LT ISZERO PUSH2 0x1CE JUMPI DUP1 DUP3 ADD MLOAD DUP4 DUP3 ADD MSTORE PUSH1 0x20 ADD PUSH2 0x1B6 JUMP JUMPDEST POP POP POP POP SWAP1 POP SWAP1 DUP2 ADD SWAP1 PUSH1 0x1F AND DUP1 ISZERO PUSH2 0x1FB JUMPI DUP1 DUP3 SUB DUP1 MLOAD PUSH1 0x1 DUP4 PUSH1 0x20 SUB PUSH2 0x100 EXP SUB NOT AND DUP2 MSTORE PUSH1 0x20 ADD SWAP2 POP JUMPDEST POP SWAP3 POP POP POP PUSH1 0x40 MLOAD DUP1 SWAP2 SUB SWAP1 RETURN JUMPDEST CALLVALUE ISZERO PUSH2 0x214 JUMPI PUSH1 0x0 DUP1 REVERT JUMPDEST PUSH2 0x228 PUSH1 0x1 PUSH1 0xA0 PUSH1 0x2 EXP SUB PUSH1 0x4 CALLDATALOAD AND PUSH2 0x607 JUMP JUMPDEST STOP JUMPDEST CALLVALUE ISZERO PUSH2 0x235 JUMPI PUSH1 0x0 DUP1 REVERT JUMPDEST PUSH2 0x228 PUSH1 0x1 PUSH1 0xA0 PUSH1 0x2 EXP SUB PUSH1 0x4 CALLDATALOAD AND PUSH1 0x24 CALLDATALOAD PUSH2 0x6AA JUMP JUMPDEST CALLVALUE ISZERO PUSH2 0x257 JUMPI PUSH1 0x0 DUP1 REVERT JUMPDEST PUSH2 0x25F PUSH2 0x757 JUMP JUMPDEST PUSH1 0x40 MLOAD SWAP1 ISZERO ISZERO DUP2 MSTORE PUSH1 0x20 ADD PUSH1 0x40 MLOAD DUP1 SWAP2 SUB SWAP1 RETURN JUMPDEST CALLVALUE ISZERO PUSH2 0x27E JUMPI PUSH1 0x0 DUP1 REVERT JUMPDEST PUSH2 0x228 PUSH1 0x1 PUSH1 0xA0 PUSH1 0x2 EXP SUB PUSH1 0x4 CALLDATALOAD AND PUSH2 0x767 JUMP JUMPDEST CALLVALUE ISZERO PUSH2 0x29D JUMPI PUSH1 0x0 DUP1 REVERT JUMPDEST PUSH2 0x2A5 PUSH2 0x7E7 JUMP JUMPDEST PUSH1 0x40 MLOAD SWAP1 DUP2 MSTORE PUSH1 0x20 ADD PUSH1 0x40 MLOAD DUP1 SWAP2 SUB SWAP1 RETURN JUMPDEST CALLVALUE ISZERO PUSH2 0x2C2 JUMPI PUSH1 0x0 DUP1 REVERT JUMPDEST PUSH2 0x228 PUSH1 0x1 PUSH1 0xA0 PUSH1 0x2 EXP SUB PUSH1 0x4 CALLDATALOAD DUP2 AND SWAP1 PUSH1 0x24 CALLDATALOAD AND PUSH1 0x44 CALLDATALOAD PUSH2 0x86E JUMP JUMPDEST CALLVALUE ISZERO PUSH2 0x2EA JUMPI PUSH1 0x0 DUP1 REVERT JUMPDEST PUSH2 0x2F2 PUSH2 0x932 JUMP JUMPDEST PUSH1 0x40 MLOAD PUSH1 0x1 PUSH1 0xA0 PUSH1 0x2 EXP SUB SWAP1 SWAP2 AND DUP2 MSTORE PUSH1 0x20 ADD PUSH1 0x40 MLOAD DUP1 SWAP2 SUB SWAP1 RETURN JUMPDEST CALLVALUE ISZERO PUSH2 0x319 JUMPI PUSH1 0x0 DUP1 REVERT JUMPDEST PUSH2 0x2A5 PUSH1 0x1 PUSH1 0xA0 PUSH1 0x2 EXP SUB PUSH1 0x4 CALLDATALOAD AND PUSH2 0x941 JUMP JUMPDEST CALLVALUE ISZERO PUSH2 0x338 JUMPI PUSH1 0x0 DUP1 REVERT JUMPDEST PUSH2 0x2A5 PUSH2 0x953 JUMP JUMPDEST CALLVALUE ISZERO PUSH2 0x34B JUMPI PUSH1 0x0 DUP1 REVERT JUMPDEST PUSH2 0x2A5 PUSH2 0x959 JUMP JUMPDEST CALLVALUE ISZERO PUSH2 0x35E JUMPI PUSH1 0x0 DUP1 REVERT JUMPDEST PUSH2 0x2A5 PUSH2 0x95F JUMP JUMPDEST CALLVALUE ISZERO PUSH2 0x371 JUMPI PUSH1 0x0 DUP1 REVERT JUMPDEST PUSH2 0x228 PUSH2 0x965 JUMP JUMPDEST CALLVALUE ISZERO PUSH2 0x384 JUMPI PUSH1 0x0 DUP1 REVERT JUMPDEST PUSH2 0x25F PUSH1 0x1 PUSH1 0xA0 PUSH1 0x2 EXP SUB PUSH1 0x4 CALLDATALOAD AND PUSH2 0x9E4 JUMP JUMPDEST CALLVALUE ISZERO PUSH2 0x3A3 JUMPI PUSH1 0x0 DUP1 REVERT JUMPDEST PUSH2 0x2A5 PUSH1 0x1 PUSH1 0xA0 PUSH1 0x2 EXP SUB PUSH1 0x4 CALLDATALOAD DUP2 AND SWAP1 PUSH1 0x24 CALLDATALOAD AND PUSH2 0xA06 JUMP JUMPDEST CALLVALUE ISZERO PUSH2 0x3C8 JUMPI PUSH1 0x0 DUP1 REVERT JUMPDEST PUSH2 0x25F PUSH2 0xA23 JUMP JUMPDEST CALLVALUE ISZERO PUSH2 0x3DB JUMPI PUSH1 0x0 DUP1 REVERT JUMPDEST PUSH2 0x2A5 PUSH1 0x1 PUSH1 0xA0 PUSH1 0x2 EXP SUB PUSH1 0x4 CALLDATALOAD AND PUSH2 0xA33 JUMP JUMPDEST CALLVALUE ISZERO PUSH2 0x3FA JUMPI PUSH1 0x0 DUP1 REVERT JUMPDEST PUSH2 0x228 PUSH2 0xAD3 JUMP JUMPDEST CALLVALUE ISZERO PUSH2 0x40D JUMPI PUSH1 0x0 DUP1 REVERT JUMPDEST PUSH2 0x2F2 PUSH2 0xB57 JUMP JUMPDEST CALLVALUE ISZERO PUSH2 0x420 JUMPI PUSH1 0x0 DUP1 REVERT JUMPDEST PUSH2 0x2F2 PUSH2 0xB66 JUMP JUMPDEST CALLVALUE ISZERO PUSH2 0x433 JUMPI PUSH1 0x0 DUP1 REVERT JUMPDEST PUSH2 0x192 PUSH2 0xB75 JUMP JUMPDEST CALLVALUE ISZERO PUSH2 0x446 JUMPI PUSH1 0x0 DUP1 REVERT JUMPDEST PUSH2 0x228 PUSH1 0x1 PUSH1 0xA0 PUSH1 0x2 EXP SUB PUSH1 0x4 CALLDATALOAD AND PUSH1 0x24 CALLDATALOAD PUSH2 0xBE0 JUMP JUMPDEST CALLVALUE ISZERO PUSH2 0x468 JUMPI PUSH1 0x0 DUP1 REVERT JUMPDEST PUSH2 0x228 PUSH1 0x4 CALLDATALOAD PUSH1 0x24 CALLDATALOAD PUSH2 0xCB9 JUMP JUMPDEST CALLVALUE ISZERO PUSH2 0x481 JUMPI PUSH1 0x0 DUP1 REVERT JUMPDEST PUSH2 0x228 PUSH1 0x4 CALLDATALOAD PUSH2 0xD4F JUMP JUMPDEST CALLVALUE ISZERO PUSH2 0x497 JUMPI PUSH1 0x0 DUP1 REVERT JUMPDEST PUSH2 0x228 PUSH1 0x4 CALLDATALOAD PUSH2 0xDFE JUMP JUMPDEST CALLVALUE ISZERO PUSH2 0x4AD JUMPI PUSH1 0x0 DUP1 REVERT JUMPDEST PUSH2 0x2A5 PUSH1 0x1 PUSH1 0xA0 PUSH1 0x2 EXP SUB PUSH1 0x4 CALLDATALOAD DUP2 AND SWAP1 PUSH1 0x24 CALLDATALOAD AND PUSH2 0xEAF JUMP JUMPDEST CALLVALUE ISZERO PUSH2 0x4D2 JUMPI PUSH1 0x0 DUP1 REVERT JUMPDEST PUSH2 0x2A5 PUSH2 0xF5A JUMP JUMPDEST CALLVALUE ISZERO PUSH2 0x4E5 JUMPI PUSH1 0x0 DUP1 REVERT JUMPDEST PUSH2 0x25F PUSH1 0x1 PUSH1 0xA0 PUSH1 0x2 EXP SUB PUSH1 0x4 CALLDATALOAD AND PUSH2 0xF60 JUMP JUMPDEST CALLVALUE ISZERO PUSH2 0x504 JUMPI PUSH1 0x0 DUP1 REVERT JUMPDEST PUSH2 0x228 PUSH1 0x1 PUSH1 0xA0 PUSH1 0x2 EXP SUB PUSH1 0x4 CALLDATALOAD AND PUSH2 0xF75 JUMP JUMPDEST CALLVALUE ISZERO PUSH2 0x523 JUMPI PUSH1 0x0 DUP1 REVERT JUMPDEST PUSH2 0x2A5 PUSH2 0xFF2 JUMP JUMPDEST CALLVALUE ISZERO PUSH2 0x536 JUMPI PUSH1 0x0 DUP1 REVERT JUMPDEST PUSH2 0x228 PUSH1 0x1 PUSH1 0xA0 PUSH1 0x2 EXP SUB PUSH1 0x4 CALLDATALOAD AND PUSH2 0xFF8 JUMP JUMPDEST CALLVALUE ISZERO PUSH2 0x555 JUMPI PUSH1 0x0 DUP1 REVERT JUMPDEST PUSH2 0x228 PUSH1 0x1 PUSH1 0xA0 PUSH1 0x2 EXP SUB PUSH1 0x4 CALLDATALOAD AND PUSH2 0x104E JUMP JUMPDEST PUSH1 0x7 DUP1 SLOAD PUSH1 0x1 DUP2 PUSH1 0x1 AND ISZERO PUSH2 0x100 MUL SUB AND PUSH1 0x2 SWAP1 DIV DUP1 PUSH1 0x1F ADD PUSH1 0x20 DUP1 SWAP2 DIV MUL PUSH1 0x20 ADD PUSH1 0x40 MLOAD SWAP1 DUP2 ADD PUSH1 0x40 MSTORE DUP1 SWAP3 SWAP2 SWAP1 DUP2 DUP2 MSTORE PUSH1 0x20 ADD DUP3 DUP1 SLOAD PUSH1 0x1 DUP2 PUSH1 0x1 AND ISZERO PUSH2 0x100 MUL SUB AND PUSH1 0x2 SWAP1 DIV DUP1 ISZERO PUSH2 0x5FF JUMPI DUP1 PUSH1 0x1F LT PUSH2 0x5D4 JUMPI PUSH2 0x100 DUP1 DUP4 SLOAD DIV MUL DUP4 MSTORE SWAP2 PUSH1 0x20 ADD SWAP2 PUSH2 0x5FF JUMP JUMPDEST DUP3 ADD SWAP2 SWAP1 PUSH1 0x0 MSTORE PUSH1 0x20 PUSH1 0x0 KECCAK256 SWAP1 JUMPDEST DUP2 SLOAD DUP2 MSTORE SWAP1 PUSH1 0x1 ADD SWAP1 PUSH1 0x20 ADD DUP1 DUP4 GT PUSH2 0x5E2 JUMPI DUP3 SWAP1 SUB PUSH1 0x1F AND DUP3 ADD SWAP2 JUMPDEST POP POP POP POP POP DUP2 JUMP JUMPDEST PUSH1 0x0 SLOAD CALLER PUSH1 0x1 PUSH1 0xA0 PUSH1 0x2 EXP SUB SWAP1 DUP2 AND SWAP2 AND EQ PUSH2 0x622 JUMPI PUSH1 0x0 DUP1 REVERT JUMPDEST PUSH1 0xA DUP1 SLOAD PUSH1 0xA0 PUSH1 0x2 EXP PUSH21 0xFF0000000000000000000000000000000000000000 NOT SWAP1 SWAP2 AND OR PUSH20 0xFFFFFFFFFFFFFFFFFFFFFFFFFFFFFFFFFFFFFFFF NOT AND PUSH1 0x1 PUSH1 0xA0 PUSH1 0x2 EXP SUB DUP4 AND OR SWAP1 SSTORE PUSH32 0xCC358699805E9A8B7F77B522628C7CB9ABD07D9EFB86B6FB616AF1609036A99E DUP2 PUSH1 0x40 MLOAD PUSH1 0x1 PUSH1 0xA0 PUSH1 0x2 EXP SUB SWAP1 SWAP2 AND DUP2 MSTORE PUSH1 0x20 ADD PUSH1 0x40 MLOAD DUP1 SWAP2 SUB SWAP1 LOG1 POP JUMP JUMPDEST PUSH1 0x40 PUSH1 0x44 CALLDATASIZE LT ISZERO PUSH2 0x6BA JUMPI PUSH1 0x0 DUP1 REVERT JUMPDEST PUSH1 0xA SLOAD PUSH1 0xA0 PUSH1 0x2 EXP SWAP1 DIV PUSH1 0xFF AND ISZERO PUSH2 0x748 JUMPI PUSH1 0xA SLOAD PUSH1 0x1 PUSH1 0xA0 PUSH1 0x2 EXP SUB AND PUSH4 0xAEE92D33 CALLER DUP6 DUP6 PUSH1 0x40 MLOAD PUSH1 0xE0 PUSH1 0x2 EXP PUSH4 0xFFFFFFFF DUP7 AND MUL DUP2 MSTORE PUSH1 0x1 PUSH1 0xA0 PUSH1 0x2 EXP SUB SWAP4 DUP5 AND PUSH1 0x4 DUP3 ADD MSTORE SWAP2 SWAP1 SWAP3 AND PUSH1 0x24 DUP3 ADD MSTORE PUSH1 0x44 DUP2 ADD SWAP2 SWAP1 SWAP2 MSTORE PUSH1 0x64 ADD PUSH1 0x0 PUSH1 0x40 MLOAD DUP1 DUP4 SUB DUP2 PUSH1 0x0 DUP8 DUP1 EXTCODESIZE ISZERO ISZERO PUSH2 0x72F JUMPI PUSH1 0x0 DUP1 REVERT JUMPDEST PUSH2 0x2C6 GAS SUB CALL ISZERO ISZERO PUSH2 0x740 JUMPI PUSH1 0x0 DUP1 REVERT JUMPDEST POP POP POP PUSH2 0x752 JUMP JUMPDEST PUSH2 0x752 DUP4 DUP4 PUSH2 0x110C JUMP JUMPDEST POP POP POP JUMP JUMPDEST PUSH1 0xA SLOAD PUSH1 0xA0 PUSH1 0x2 EXP SWAP1 DIV PUSH1 0xFF AND DUP2 JUMP JUMPDEST PUSH1 0x0 SLOAD CALLER PUSH1 0x1 PUSH1 0xA0 PUSH1 0x2 EXP SUB SWAP1 DUP2 AND SWAP2 AND EQ PUSH2 0x782 JUMPI PUSH1 0x0 DUP1 REVERT JUMPDEST PUSH1 0x1 PUSH1 0xA0 PUSH1 0x2 EXP SUB DUP2 AND PUSH1 0x0 SWAP1 DUP2 MSTORE PUSH1 0x6 PUSH1 0x20 MSTORE PUSH1 0x40 SWAP1 DUP2 SWAP1 KECCAK256 DUP1 SLOAD PUSH1 0xFF NOT AND PUSH1 0x1 OR SWAP1 SSTORE PUSH32 0x42E160154868087D6BFDC0CA23D96A1C1CFA32F1B72BA9BA27B69B98A0D819DC SWAP1 DUP3 SWAP1 MLOAD PUSH1 0x1 PUSH1 0xA0 PUSH1 0x2 EXP SUB SWAP1 SWAP2 AND DUP2 MSTORE PUSH1 0x20 ADD PUSH1 0x40 MLOAD DUP1 SWAP2 SUB SWAP1 LOG1 POP JUMP JUMPDEST PUSH1 0xA SLOAD PUSH1 0x0 SWAP1 PUSH1 0xA0 PUSH1 0x2 EXP SWAP1 DIV PUSH1 0xFF AND ISZERO PUSH2 0x866 JUMPI PUSH1 0xA SLOAD PUSH1 0x1 PUSH1 0xA0 PUSH1 0x2 EXP SUB AND PUSH4 0x18160DDD PUSH1 0x0 PUSH1 0x40 MLOAD PUSH1 0x20 ADD MSTORE PUSH1 0x40 MLOAD DUP2 PUSH4 0xFFFFFFFF AND PUSH1 0xE0 PUSH1 0x2 EXP MUL DUP2 MSTORE PUSH1 0x4 ADD PUSH1 0x20 PUSH1 0x40 MLOAD DUP1 DUP4 SUB DUP2 PUSH1 0x0 DUP8 DUP1 EXTCODESIZE ISZERO ISZERO PUSH2 0x844 JUMPI PUSH1 0x0 DUP1 REVERT JUMPDEST PUSH2 0x2C6 GAS SUB CALL ISZERO ISZERO PUSH2 0x855 JUMPI PUSH1 0x0 DUP1 REVERT JUMPDEST POP POP POP PUSH1 0x40 MLOAD DUP1 MLOAD SWAP1 POP SWAP1 POP PUSH2 0x86B JUMP JUMPDEST POP PUSH1 0x1 SLOAD JUMPDEST SWAP1 JUMP JUMPDEST PUSH1 0x0 SLOAD PUSH1 0xA0 PUSH1 0x2 EXP SWAP1 DIV PUSH1 0xFF AND ISZERO PUSH2 0x885 JUMPI PUSH1 0x0 DUP1 REVERT JUMPDEST PUSH1 0x1 PUSH1 0xA0 PUSH1 0x2 EXP SUB DUP4 AND PUSH1 0x0 SWAP1 DUP2 MSTORE PUSH1 0x6 PUSH1 0x20 MSTORE PUSH1 0x40 SWAP1 KECCAK256 SLOAD PUSH1 0xFF AND ISZERO PUSH2 0x8AB JUMPI PUSH1 0x0 DUP1 REVERT JUMPDEST PUSH1 0xA SLOAD PUSH1 0xA0 PUSH1 0x2 EXP SWAP1 DIV PUSH1 0xFF AND ISZERO PUSH2 0x927 JUMPI PUSH1 0xA SLOAD PUSH1 0x1 PUSH1 0xA0 PUSH1 0x2 EXP SUB AND PUSH4 0x8B477ADB CALLER DUP6 DUP6 DUP6 PUSH1 0x40 MLOAD PUSH1 0xE0 PUSH1 0x2 EXP PUSH4 0xFFFFFFFF DUP8 AND MUL DUP2 MSTORE PUSH1 0x1 PUSH1 0xA0 PUSH1 0x2 EXP SUB SWAP5 DUP6 AND PUSH1 0x4 DUP3 ADD MSTORE SWAP3 DUP5 AND PUSH1 0x24 DUP5 ADD MSTORE SWAP3 AND PUSH1 0x44 DUP3 ADD MSTORE PUSH1 0x64 DUP2 ADD SWAP2 SWAP1 SWAP2 MSTORE PUSH1 0x84 ADD PUSH1 0x0 PUSH1 0x40 MLOAD DUP1 DUP4 SUB DUP2 PUSH1 0x0 DUP8 DUP1 EXTCODESIZE ISZERO ISZERO PUSH2 0x72F JUMPI PUSH1 0x0 DUP1 REVERT JUMPDEST PUSH2 0x752 DUP4 DUP4 DUP4 PUSH2 0x11BE JUMP JUMPDEST PUSH1 0xA SLOAD PUSH1 0x1 PUSH1 0xA0 PUSH1 0x2 EXP SUB AND DUP2 JUMP JUMPDEST PUSH1 0x2 PUSH1 0x20 MSTORE PUSH1 0x0 SWAP1 DUP2 MSTORE PUSH1 0x40 SWAP1 KECCAK256 SLOAD DUP2 JUMP JUMPDEST PUSH1 0x9 SLOAD DUP2 JUMP JUMPDEST PUSH1 0x4 SLOAD DUP2 JUMP JUMPDEST PUSH1 0x1 SLOAD DUP2 JUMP JUMPDEST PUSH1 0x0 SLOAD CALLER PUSH1 0x1 PUSH1 0xA0 PUSH1 0x2 EXP SUB SWAP1 DUP2 AND SWAP2 AND EQ PUSH2 0x980 JUMPI PUSH1 0x0 DUP1 REVERT JUMPDEST PUSH1 0x0 SLOAD PUSH1 0xA0 PUSH1 0x2 EXP SWAP1 DIV PUSH1 0xFF AND ISZERO ISZERO PUSH2 0x998 JUMPI PUSH1 0x0 DUP1 REVERT JUMPDEST PUSH1 0x0 DUP1 SLOAD PUSH21 0xFF0000000000000000000000000000000000000000 NOT AND SWAP1 SSTORE PUSH32 0x7805862F689E2F13DF9F062FF482AD3AD112ACA9E0847911ED832E158C525B33 PUSH1 0x40 MLOAD PUSH1 0x40 MLOAD DUP1 SWAP2 SUB SWAP1 LOG1 JUMP JUMPDEST PUSH1 0x1 PUSH1 0xA0 PUSH1 0x2 EXP SUB DUP2 AND PUSH1 0x0 SWAP1 DUP2 MSTORE PUSH1 0x6 PUSH1 0x20 MSTORE PUSH1 0x40 SWAP1 KECCAK256 SLOAD PUSH1 0xFF AND JUMPDEST SWAP2 SWAP1 POP JUMP JUMPDEST PUSH1 0x5 PUSH1 0x20 SWAP1 DUP2 MSTORE PUSH1 0x0 SWAP3 DUP4 MSTORE PUSH1 0x40 DUP1 DUP5 KECCAK256 SWAP1 SWAP2 MSTORE SWAP1 DUP3 MSTORE SWAP1 KECCAK256 SLOAD DUP2 JUMP JUMPDEST PUSH1 0x0 SLOAD PUSH1 0xA0 PUSH1 0x2 EXP SWAP1 DIV PUSH1 0xFF AND DUP2 JUMP JUMPDEST PUSH1 0xA SLOAD PUSH1 0x0 SWAP1 PUSH1 0xA0 PUSH1 0x2 EXP SWAP1 DIV PUSH1 0xFF AND ISZERO PUSH2 0xAC3 JUMPI PUSH1 0xA SLOAD PUSH1 0x1 PUSH1 0xA0 PUSH1 0x2 EXP SUB AND PUSH4 0x70A08231 DUP4 PUSH1 0x0 PUSH1 0x40 MLOAD PUSH1 0x20 ADD MSTORE PUSH1 0x40 MLOAD PUSH1 0xE0 PUSH1 0x2 EXP PUSH4 0xFFFFFFFF DUP5 AND MUL DUP2 MSTORE PUSH1 0x1 PUSH1 0xA0 PUSH1 0x2 EXP SUB SWAP1 SWAP2 AND PUSH1 0x4 DUP3 ADD MSTORE PUSH1 0x24 ADD PUSH1 0x20 PUSH1 0x40 MLOAD DUP1 DUP4 SUB DUP2 PUSH1 0x0 DUP8 DUP1 EXTCODESIZE ISZERO ISZERO PUSH2 0xAA1 JUMPI PUSH1 0x0 DUP1 REVERT JUMPDEST PUSH2 0x2C6 GAS SUB CALL ISZERO ISZERO PUSH2 0xAB2 JUMPI PUSH1 0x0 DUP1 REVERT JUMPDEST POP POP POP PUSH1 0x40 MLOAD DUP1 MLOAD SWAP1 POP SWAP1 POP PUSH2 0xA01 JUMP JUMPDEST PUSH2 0xACC DUP3 PUSH2 0x13BD JUMP JUMPDEST SWAP1 POP PUSH2 0xA01 JUMP JUMPDEST PUSH1 0x0 SLOAD CALLER PUSH1 0x1 PUSH1 0xA0 PUSH1 0x2 EXP SUB SWAP1 DUP2 AND SWAP2 AND EQ PUSH2 0xAEE JUMPI PUSH1 0x0 DUP1 REVERT JUMPDEST PUSH1 0x0 SLOAD PUSH1 0xA0 PUSH1 0x2 EXP SWAP1 DIV PUSH1 0xFF AND ISZERO PUSH2 0xB05 JUMPI PUSH1 0x0 DUP1 REVERT JUMPDEST PUSH1 0x0 DUP1 SLOAD PUSH21 0xFF0000000000000000000000000000000000000000 NOT AND PUSH1 0xA0 PUSH1 0x2 EXP OR SWAP1 SSTORE PUSH32 0x6985A02210A168E66602D3235CB6DB0E70F92B3BA4D376A33C0F3D9434BFF625 PUSH1 0x40 MLOAD PUSH1 0x40 MLOAD DUP1 SWAP2 SUB SWAP1 LOG1 JUMP JUMPDEST PUSH1 0x0 SLOAD PUSH1 0x1 PUSH1 0xA0 PUSH1 0x2 EXP SUB AND SWAP1 JUMP JUMPDEST PUSH1 0x0 SLOAD PUSH1 0x1 PUSH1 0xA0 PUSH1 0x2 EXP SUB AND DUP2 JUMP JUMPDEST PUSH1 0x8 DUP1 SLOAD PUSH1 0x1 DUP2 PUSH1 0x1 AND ISZERO PUSH2 0x100 MUL SUB AND PUSH1 0x2 SWAP1 DIV DUP1 PUSH1 0x1F ADD PUSH1 0x20 DUP1 SWAP2 DIV MUL PUSH1 0x20 ADD PUSH1 0x40 MLOAD SWAP1 DUP2 ADD PUSH1 0x40 MSTORE DUP1 SWAP3 SWAP2 SWAP1 DUP2 DUP2 MSTORE PUSH1 0x20 ADD DUP3 DUP1 SLOAD PUSH1 0x1 DUP2 PUSH1 0x1 AND ISZERO PUSH2 0x100 MUL SUB AND PUSH1 0x2 SWAP1 DIV DUP1 ISZERO PUSH2 0x5FF JUMPI DUP1 PUSH1 0x1F LT PUSH2 0x5D4 JUMPI PUSH2 0x100 DUP1 DUP4 SLOAD DIV MUL DUP4 MSTORE SWAP2 PUSH1 0x20 ADD SWAP2 PUSH2 0x5FF JUMP JUMPDEST PUSH1 0x0 SLOAD PUSH1 0xA0 PUSH1 0x2 EXP SWAP1 DIV PUSH1 0xFF AND ISZERO PUSH2 0xBF7 JUMPI PUSH1 0x0 DUP1 REVERT JUMPDEST PUSH1 0x1 PUSH1 0xA0 PUSH1 0x2 EXP SUB CALLER AND PUSH1 0x0 SWAP1 DUP2 MSTORE PUSH1 0x6 PUSH1 0x20 MSTORE PUSH1 0x40 SWAP1 KECCAK256 SLOAD PUSH1 0xFF AND ISZERO PUSH2 0xC1D JUMPI PUSH1 0x0 DUP1 REVERT JUMPDEST PUSH1 0xA SLOAD PUSH1 0xA0 PUSH1 0x2 EXP SWAP1 DIV PUSH1 0xFF AND ISZERO PUSH2 0xCAB JUMPI PUSH1 0xA SLOAD PUSH1 0x1 PUSH1 0xA0 PUSH1 0x2 EXP SUB AND PUSH4 0x6E18980A CALLER DUP5 DUP5 PUSH1 0x40 MLOAD PUSH1 0xE0 PUSH1 0x2 EXP PUSH4 0xFFFFFFFF DUP7 AND MUL DUP2 MSTORE PUSH1 0x1 PUSH1 0xA0 PUSH1 0x2 EXP SUB SWAP4 DUP5 AND PUSH1 0x4 DUP3 ADD MSTORE SWAP2 SWAP1 SWAP3 AND PUSH1 0x24 DUP3 ADD MSTORE PUSH1 0x44 DUP2 ADD SWAP2 SWAP1 SWAP2 MSTORE PUSH1 0x64 ADD PUSH1 0x0 PUSH1 0x40 MLOAD DUP1 DUP4 SUB DUP2 PUSH1 0x0 DUP8 DUP1 EXTCODESIZE ISZERO ISZERO PUSH2 0xC92 JUMPI PUSH1 0x0 DUP1 REVERT JUMPDEST PUSH2 0x2C6 GAS SUB CALL ISZERO ISZERO PUSH2 0xCA3 JUMPI PUSH1 0x0 DUP1 REVERT JUMPDEST POP POP POP PUSH2 0xCB5 JUMP JUMPDEST PUSH2 0xCB5 DUP3 DUP3 PUSH2 0x13D8 JUMP JUMPDEST POP POP JUMP JUMPDEST PUSH1 0x0 SLOAD CALLER PUSH1 0x1 PUSH1 0xA0 PUSH1 0x2 EXP SUB SWAP1 DUP2 AND SWAP2 AND EQ PUSH2 0xCD4 JUMPI PUSH1 0x0 DUP1 REVERT JUMPDEST PUSH1 0x14 DUP3 LT PUSH2 0xCE1 JUMPI PUSH1 0x0 DUP1 REVERT JUMPDEST PUSH1 0x32 DUP2 LT PUSH2 0xCEE JUMPI PUSH1 0x0 DUP1 REVERT JUMPDEST PUSH1 0x3 DUP3 SWAP1 SSTORE PUSH1 0x9 SLOAD PUSH2 0xD0A SWAP1 DUP3 SWAP1 PUSH1 0xA EXP PUSH4 0xFFFFFFFF PUSH2 0x155C AND JUMP JUMPDEST PUSH1 0x4 DUP2 SWAP1 SSTORE PUSH1 0x3 SLOAD PUSH32 0xB044A1E409EAC5C48E5AF22D4AF52670DD1A99059537A78B31B48C6500A6354E SWAP2 PUSH1 0x40 MLOAD SWAP2 DUP3 MSTORE PUSH1 0x20 DUP3 ADD MSTORE PUSH1 0x40 SWAP1 DUP2 ADD SWAP1 MLOAD DUP1 SWAP2 SUB SWAP1 LOG1 POP POP JUMP JUMPDEST PUSH1 0x0 SLOAD CALLER PUSH1 0x1 PUSH1 0xA0 PUSH1 0x2 EXP SUB SWAP1 DUP2 AND SWAP2 AND EQ PUSH2 0xD6A JUMPI PUSH1 0x0 DUP1 REVERT JUMPDEST PUSH1 0x1 SLOAD DUP2 DUP2 ADD GT PUSH2 0xD7A JUMPI PUSH1 0x0 DUP1 REVERT JUMPDEST PUSH1 0x0 DUP1 SLOAD PUSH1 0x1 PUSH1 0xA0 PUSH1 0x2 EXP SUB AND DUP2 MSTORE PUSH1 0x2 PUSH1 0x20 MSTORE PUSH1 0x40 SWAP1 KECCAK256 SLOAD DUP2 DUP2 ADD GT PUSH2 0xDA0 JUMPI PUSH1 0x0 DUP1 REVERT JUMPDEST PUSH1 0x0 DUP1 SLOAD PUSH1 0x1 PUSH1 0xA0 PUSH1 0x2 EXP SUB AND DUP2 MSTORE PUSH1 0x2 PUSH1 0x20 MSTORE PUSH1 0x40 SWAP1 DUP2 SWAP1 KECCAK256 DUP1 SLOAD DUP4 ADD SWAP1 SSTORE PUSH1 0x1 DUP1 SLOAD DUP4 ADD SWAP1 SSTORE PUSH32 0xCB8241ADB0C3FDB35B70C24CE35C5EB0C17AF7431C99F827D44A445CA624176A SWAP1 DUP3 SWAP1 MLOAD SWAP1 DUP2 MSTORE PUSH1 0x20 ADD PUSH1 0x40 MLOAD DUP1 SWAP2 SUB SWAP1 LOG1 POP JUMP JUMPDEST PUSH1 0x0 SLOAD CALLER PUSH1 0x1 PUSH1 0xA0 PUSH1 0x2 EXP SUB SWAP1 DUP2 AND SWAP2 AND EQ PUSH2 0xE19 JUMPI PUSH1 0x0 DUP1 REVERT JUMPDEST PUSH1 0x1 SLOAD DUP2 SWAP1 LT ISZERO PUSH2 0xE29 JUMPI PUSH1 0x0 DUP1 REVERT JUMPDEST PUSH1 0x0 DUP1 SLOAD PUSH1 0x1 PUSH1 0xA0 PUSH1 0x2 EXP SUB AND DUP2 MSTORE PUSH1 0x2 PUSH1 0x20 MSTORE PUSH1 0x40 SWAP1 KECCAK256 SLOAD DUP2 SWAP1 LT ISZERO PUSH2 0xE4F JUMPI PUSH1 0x0 DUP1 REVERT JUMPDEST PUSH1 0x1 DUP1 SLOAD DUP3 SWAP1 SUB SWAP1 SSTORE PUSH1 0x0 DUP1 SLOAD PUSH1 0x1 PUSH1 0xA0 PUSH1 0x2 EXP SUB AND DUP2 MSTORE PUSH1 0x2 PUSH1 0x20 MSTORE PUSH1 0x40 SWAP1 DUP2 SWAP1 KECCAK256 DUP1 SLOAD DUP4 SWAP1 SUB SWAP1 SSTORE PUSH32 0x702D5967F45F6513A38FFC42D6BA9BF230BD40E8F53B16363C7EB4FD2DEB9A44 SWAP1 DUP3 SWAP1 MLOAD SWAP1 DUP2 MSTORE PUSH1 0x20 ADD PUSH1 0x40 MLOAD DUP1 SWAP2 SUB SWAP1 LOG1 POP JUMP JUMPDEST PUSH1 0xA SLOAD PUSH1 0x0 SWAP1 PUSH1 0xA0 PUSH1 0x2 EXP SWAP1 DIV PUSH1 0xFF AND ISZERO PUSH2 0xF47 JUMPI PUSH1 0xA SLOAD PUSH1 0x1 PUSH1 0xA0 PUSH1 0x2 EXP SUB AND PUSH4 0xDD62ED3E DUP5 DUP5 PUSH1 0x0 PUSH1 0x40 MLOAD PUSH1 0x20 ADD MSTORE PUSH1 0x40 MLOAD PUSH1 0xE0 PUSH1 0x2 EXP PUSH4 0xFFFFFFFF DUP6 AND MUL DUP2 MSTORE PUSH1 0x1 PUSH1 0xA0 PUSH1 0x2 EXP SUB SWAP3 DUP4 AND PUSH1 0x4 DUP3 ADD MSTORE SWAP2 AND PUSH1 0x24 DUP3 ADD MSTORE PUSH1 0x44 ADD PUSH1 0x20 PUSH1 0x40 MLOAD DUP1 DUP4 SUB DUP2 PUSH1 0x0 DUP8 DUP1 EXTCODESIZE ISZERO ISZERO PUSH2 0xF25 JUMPI PUSH1 0x0 DUP1 REVERT JUMPDEST PUSH2 0x2C6 GAS SUB CALL ISZERO ISZERO PUSH2 0xF36 JUMPI PUSH1 0x0 DUP1 REVERT JUMPDEST POP POP POP PUSH1 0x40 MLOAD DUP1 MLOAD SWAP1 POP SWAP1 POP PUSH2 0xF54 JUMP JUMPDEST PUSH2 0xF51 DUP4 DUP4 PUSH2 0x1592 JUMP JUMPDEST SWAP1 POP JUMPDEST SWAP3 SWAP2 POP POP JUMP JUMPDEST PUSH1 0x3 SLOAD DUP2 JUMP JUMPDEST PUSH1 0x6 PUSH1 0x20 MSTORE PUSH1 0x0 SWAP1 DUP2 MSTORE PUSH1 0x40 SWAP1 KECCAK256 SLOAD PUSH1 0xFF AND DUP2 JUMP JUMPDEST PUSH1 0x0 SLOAD CALLER PUSH1 0x1 PUSH1 0xA0 PUSH1 0x2 EXP SUB SWAP1 DUP2 AND SWAP2 AND EQ PUSH2 0xF90 JUMPI PUSH1 0x0 DUP1 REVERT JUMPDEST PUSH1 0x1 PUSH1 0xA0 PUSH1 0x2 EXP SUB DUP2 AND PUSH1 0x0 SWAP1 DUP2 MSTORE PUSH1 0x6 PUSH1 0x20 MSTORE PUSH1 0x40 SWAP1 DUP2 SWAP1 KECCAK256 DUP1 SLOAD PUSH1 0xFF NOT AND SWAP1 SSTORE PUSH32 0xD7E9EC6E6ECD65492DCE6BF513CD6867560D49544421D0783DDF06E76C24470C SWAP1 DUP3 SWAP1 MLOAD PUSH1 0x1 PUSH1 0xA0 PUSH1 0x2 EXP SUB SWAP1 SWAP2 AND DUP2 MSTORE PUSH1 0x20 ADD PUSH1 0x40 MLOAD DUP1 SWAP2 SUB SWAP1 LOG1 POP JUMP JUMPDEST PUSH1 0x0 NOT DUP2 JUMP JUMPDEST PUSH1 0x0 SLOAD CALLER PUSH1 0x1 PUSH1 0xA0 PUSH1 0x2 EXP SUB SWAP1 DUP2 AND SWAP2 AND EQ PUSH2 0x1013 JUMPI PUSH1 0x0 DUP1 REVERT JUMPDEST PUSH1 0x1 PUSH1 0xA0 PUSH1 0x2 EXP SUB DUP2 AND ISZERO PUSH2 0x104B JUMPI PUSH1 0x0 DUP1 SLOAD PUSH20 0xFFFFFFFFFFFFFFFFFFFFFFFFFFFFFFFFFFFFFFFF NOT AND PUSH1 0x1 PUSH1 0xA0 PUSH1 0x2 EXP SUB DUP4 AND OR SWAP1 SSTORE JUMPDEST POP JUMP JUMPDEST PUSH1 0x0 DUP1 SLOAD CALLER PUSH1 0x1 PUSH1 0xA0 PUSH1 0x2 EXP SUB SWAP1 DUP2 AND SWAP2 AND EQ PUSH2 0x106A JUMPI PUSH1 0x0 DUP1 REVERT JUMPDEST PUSH1 0x1 PUSH1 0xA0 PUSH1 0x2 EXP SUB DUP3 AND PUSH1 0x0 SWAP1 DUP2 MSTORE PUSH1 0x6 PUSH1 0x20 MSTORE PUSH1 0x40 SWAP1 KECCAK256 SLOAD PUSH1 0xFF AND ISZERO ISZERO PUSH2 0x1091 JUMPI PUSH1 0x0 DUP1 REVERT JUMPDEST PUSH2 0x109A DUP3 PUSH2 0xA33 JUMP JUMPDEST PUSH1 0x1 PUSH1 0xA0 PUSH1 0x2 EXP SUB DUP4 AND PUSH1 0x0 SWAP1 DUP2 MSTORE PUSH1 0x2 PUSH1 0x20 MSTORE PUSH1 0x40 DUP1 DUP3 KECCAK256 SWAP2 SWAP1 SWAP2 SSTORE PUSH1 0x1 DUP1 SLOAD DUP4 SWAP1 SUB SWAP1 SSTORE SWAP1 SWAP2 POP PUSH32 0x61E6E66B0D6339B2980AECC6CCC0039736791F0CCDE9ED512E789A7FBDD698C6 SWAP1 DUP4 SWAP1 DUP4 SWAP1 MLOAD PUSH1 0x1 PUSH1 0xA0 PUSH1 0x2 EXP SUB SWAP1 SWAP3 AND DUP3 MSTORE PUSH1 0x20 DUP3 ADD MSTORE PUSH1 0x40 SWAP1 DUP2 ADD SWAP1 MLOAD DUP1 SWAP2 SUB SWAP1 LOG1 POP POP JUMP JUMPDEST PUSH1 0x40 PUSH1 0x44 CALLDATASIZE LT ISZERO PUSH2 0x111C JUMPI PUSH1 0x0 DUP1 REVERT JUMPDEST DUP2 ISZERO DUP1 ISZERO SWAP1 PUSH2 0x114F JUMPI POP PUSH1 0x1 PUSH1 0xA0 PUSH1 0x2 EXP SUB CALLER DUP2 AND PUSH1 0x0 SWAP1 DUP2 MSTORE PUSH1 0x5 PUSH1 0x20 SWAP1 DUP2 MSTORE PUSH1 0x40 DUP1 DUP4 KECCAK256 SWAP4 DUP8 AND DUP4 MSTORE SWAP3 SWAP1 MSTORE KECCAK256 SLOAD ISZERO ISZERO JUMPDEST ISZERO PUSH2 0x1159 JUMPI PUSH1 0x0 DUP1 REVERT JUMPDEST PUSH1 0x1 PUSH1 0xA0 PUSH1 0x2 EXP SUB CALLER DUP2 AND PUSH1 0x0 DUP2 DUP2 MSTORE PUSH1 0x5 PUSH1 0x20 SWAP1 DUP2 MSTORE PUSH1 0x40 DUP1 DUP4 KECCAK256 SWAP5 DUP9 AND DUP1 DUP5 MSTORE SWAP5 SWAP1 SWAP2 MSTORE SWAP1 DUP2 SWAP1 KECCAK256 DUP6 SWAP1 SSTORE PUSH32 0x8C5BE1E5EBEC7D5BD14F71427D1E84F3DD0314C0F7B2291E5B200AC8C7C3B925 SWAP1 DUP6 SWAP1 MLOAD SWAP1 DUP2 MSTORE PUSH1 0x20 ADD PUSH1 0x40 MLOAD DUP1 SWAP2 SUB SWAP1 LOG3 POP POP POP JUMP JUMPDEST PUSH1 0x0 DUP1 DUP1 PUSH1 0x60 PUSH1 0x64 CALLDATASIZE LT ISZERO PUSH2 0x11D2 JUMPI PUSH1 0x0 DUP1 REVERT JUMPDEST PUSH1 0x1 PUSH1 0xA0 PUSH1 0x2 EXP SUB DUP1 DUP9 AND PUSH1 0x0 SWAP1 DUP2 MSTORE PUSH1 0x5 PUSH1 0x20 SWAP1 DUP2 MSTORE PUSH1 0x40 DUP1 DUP4 KECCAK256 CALLER SWAP1 SWAP5 AND DUP4 MSTORE SWAP3 SWAP1 MSTORE KECCAK256 SLOAD PUSH1 0x3 SLOAD SWAP1 SWAP5 POP PUSH2 0x1224 SWAP1 PUSH2 0x2710 SWAP1 PUSH2 0x1218 SWAP1 DUP9 SWAP1 PUSH4 0xFFFFFFFF PUSH2 0x155C AND JUMP JUMPDEST SWAP1 PUSH4 0xFFFFFFFF PUSH2 0x15BD AND JUMP JUMPDEST SWAP3 POP PUSH1 0x4 SLOAD DUP4 GT ISZERO PUSH2 0x1236 JUMPI PUSH1 0x4 SLOAD SWAP3 POP JUMPDEST PUSH1 0x0 NOT DUP5 LT ISZERO PUSH2 0x1278 JUMPI PUSH2 0x1250 DUP5 DUP7 PUSH4 0xFFFFFFFF PUSH2 0x15D4 AND JUMP JUMPDEST PUSH1 0x1 PUSH1 0xA0 PUSH1 0x2 EXP SUB DUP1 DUP10 AND PUSH1 0x0 SWAP1 DUP2 MSTORE PUSH1 0x5 PUSH1 0x20 SWAP1 DUP2 MSTORE PUSH1 0x40 DUP1 DUP4 KECCAK256 CALLER SWAP1 SWAP5 AND DUP4 MSTORE SWAP3 SWAP1 MSTORE KECCAK256 SSTORE JUMPDEST PUSH2 0x1288 DUP6 DUP5 PUSH4 0xFFFFFFFF PUSH2 0x15D4 AND JUMP JUMPDEST PUSH1 0x1 PUSH1 0xA0 PUSH1 0x2 EXP SUB DUP9 AND PUSH1 0x0 SWAP1 DUP2 MSTORE PUSH1 0x2 PUSH1 0x20 MSTORE PUSH1 0x40 SWAP1 KECCAK256 SLOAD SWAP1 SWAP3 POP PUSH2 0x12B4 SWAP1 DUP7 PUSH4 0xFFFFFFFF PUSH2 0x15D4 AND JUMP JUMPDEST PUSH1 0x1 PUSH1 0xA0 PUSH1 0x2 EXP SUB DUP1 DUP10 AND PUSH1 0x0 SWAP1 DUP2 MSTORE PUSH1 0x2 PUSH1 0x20 MSTORE PUSH1 0x40 DUP1 DUP3 KECCAK256 SWAP4 SWAP1 SWAP4 SSTORE SWAP1 DUP9 AND DUP2 MSTORE KECCAK256 SLOAD PUSH2 0x12E9 SWAP1 DUP4 PUSH4 0xFFFFFFFF PUSH2 0x15E6 AND JUMP JUMPDEST PUSH1 0x1 PUSH1 0xA0 PUSH1 0x2 EXP SUB DUP8 AND PUSH1 0x0 SWAP1 DUP2 MSTORE PUSH1 0x2 PUSH1 0x20 MSTORE PUSH1 0x40 DUP2 KECCAK256 SWAP2 SWAP1 SWAP2 SSTORE DUP4 GT ISZERO PUSH2 0x137F JUMPI PUSH1 0x0 DUP1 SLOAD PUSH1 0x1 PUSH1 0xA0 PUSH1 0x2 EXP SUB AND DUP2 MSTORE PUSH1 0x2 PUSH1 0x20 MSTORE PUSH1 0x40 SWAP1 KECCAK256 SLOAD PUSH2 0x1335 SWAP1 DUP5 PUSH4 0xFFFFFFFF PUSH2 0x15E6 AND JUMP JUMPDEST PUSH1 0x0 DUP1 SLOAD PUSH1 0x1 PUSH1 0xA0 PUSH1 0x2 EXP SUB SWAP1 DUP2 AND DUP3 MSTORE PUSH1 0x2 PUSH1 0x20 MSTORE PUSH1 0x40 DUP1 DUP4 KECCAK256 SWAP4 SWAP1 SWAP4 SSTORE SWAP1 SLOAD DUP2 AND SWAP2 SWAP1 DUP10 AND SWAP1 PUSH1 0x0 DUP1 MLOAD PUSH1 0x20 PUSH2 0x15F6 DUP4 CODECOPY DUP2 MLOAD SWAP2 MSTORE SWAP1 DUP7 SWAP1 MLOAD SWAP1 DUP2 MSTORE PUSH1 0x20 ADD PUSH1 0x40 MLOAD DUP1 SWAP2 SUB SWAP1 LOG3 JUMPDEST DUP6 PUSH1 0x1 PUSH1 0xA0 PUSH1 0x2 EXP SUB AND DUP8 PUSH1 0x1 PUSH1 0xA0 PUSH1 0x2 EXP SUB AND PUSH1 0x0 DUP1 MLOAD PUSH1 0x20 PUSH2 0x15F6 DUP4 CODECOPY DUP2 MLOAD SWAP2 MSTORE DUP5 PUSH1 0x40 MLOAD SWAP1 DUP2 MSTORE PUSH1 0x20 ADD PUSH1 0x40 MLOAD DUP1 SWAP2 SUB SWAP1 LOG3 POP POP POP POP POP POP POP JUMP JUMPDEST PUSH1 0x1 PUSH1 0xA0 PUSH1 0x2 EXP SUB AND PUSH1 0x0 SWAP1 DUP2 MSTORE PUSH1 0x2 PUSH1 0x20 MSTORE PUSH1 0x40 SWAP1 KECCAK256 SLOAD SWAP1 JUMP JUMPDEST PUSH1 0x0 DUP1 PUSH1 0x40 PUSH1 0x44 CALLDATASIZE LT ISZERO PUSH2 0x13EB JUMPI PUSH1 0x0 DUP1 REVERT JUMPDEST PUSH2 0x1406 PUSH2 0x2710 PUSH2 0x1218 PUSH1 0x3 SLOAD DUP8 PUSH2 0x155C SWAP1 SWAP2 SWAP1 PUSH4 0xFFFFFFFF AND JUMP JUMPDEST SWAP3 POP PUSH1 0x4 SLOAD DUP4 GT ISZERO PUSH2 0x1418 JUMPI PUSH1 0x4 SLOAD SWAP3 POP JUMPDEST PUSH2 0x1428 DUP5 DUP5 PUSH4 0xFFFFFFFF PUSH2 0x15D4 AND JUMP JUMPDEST PUSH1 0x1 PUSH1 0xA0 PUSH1 0x2 EXP SUB CALLER AND PUSH1 0x0 SWAP1 DUP2 MSTORE PUSH1 0x2 PUSH1 0x20 MSTORE PUSH1 0x40 SWAP1 KECCAK256 SLOAD SWAP1 SWAP3 POP PUSH2 0x1454 SWAP1 DUP6 PUSH4 0xFFFFFFFF PUSH2 0x15D4 AND JUMP JUMPDEST PUSH1 0x1 PUSH1 0xA0 PUSH1 0x2 EXP SUB CALLER DUP2 AND PUSH1 0x0 SWAP1 DUP2 MSTORE PUSH1 0x2 PUSH1 0x20 MSTORE PUSH1 0x40 DUP1 DUP3 KECCAK256 SWAP4 SWAP1 SWAP4 SSTORE SWAP1 DUP8 AND DUP2 MSTORE KECCAK256 SLOAD PUSH2 0x1489 SWAP1 DUP4 PUSH4 0xFFFFFFFF PUSH2 0x15E6 AND JUMP JUMPDEST PUSH1 0x1 PUSH1 0xA0 PUSH1 0x2 EXP SUB DUP7 AND PUSH1 0x0 SWAP1 DUP2 MSTORE PUSH1 0x2 PUSH1 0x20 MSTORE PUSH1 0x40 DUP2 KECCAK256 SWAP2 SWAP1 SWAP2 SSTORE DUP4 GT ISZERO PUSH2 0x1520 JUMPI PUSH1 0x0 DUP1 SLOAD PUSH1 0x1 PUSH1 0xA0 PUSH1 0x2 EXP SUB AND DUP2 MSTORE PUSH1 0x2 PUSH1 0x20 MSTORE PUSH1 0x40 SWAP1 KECCAK256 SLOAD PUSH2 0x14D5 SWAP1 DUP5 PUSH4 0xFFFFFFFF PUSH2 0x15E6 AND JUMP JUMPDEST PUSH1 0x0 DUP1 SLOAD PUSH1 0x1 PUSH1 0xA0 PUSH1 0x2 EXP SUB SWAP1 DUP2 AND DUP3 MSTORE PUSH1 0x2 PUSH1 0x20 MSTORE PUSH1 0x40 DUP1 DUP4 KECCAK256 SWAP4 SWAP1 SWAP4 SSTORE SWAP1 SLOAD DUP2 AND SWAP2 CALLER SWAP1 SWAP2 AND SWAP1 PUSH1 0x0 DUP1 MLOAD PUSH1 0x20 PUSH2 0x15F6 DUP4 CODECOPY DUP2 MLOAD SWAP2 MSTORE SWAP1 DUP7 SWAP1 MLOAD SWAP1 DUP2 MSTORE PUSH1 0x20 ADD PUSH1 0x40 MLOAD DUP1 SWAP2 SUB SWAP1 LOG3 JUMPDEST DUP5 PUSH1 0x1 PUSH1 0xA0 PUSH1 0x2 EXP SUB AND CALLER PUSH1 0x1 PUSH1 0xA0 PUSH1 0x2 EXP SUB AND PUSH1 0x0 DUP1 MLOAD PUSH1 0x20 PUSH2 0x15F6 DUP4 CODECOPY DUP2 MLOAD SWAP2 MSTORE DUP5 PUSH1 0x40 MLOAD SWAP1 DUP2 MSTORE PUSH1 0x20 ADD PUSH1 0x40 MLOAD DUP1 SWAP2 SUB SWAP1 LOG3 POP POP POP POP POP JUMP JUMPDEST PUSH1 0x0 DUP1 DUP4 ISZERO ISZERO PUSH2 0x156F JUMPI PUSH1 0x0 SWAP2 POP PUSH2 0x158B JUMP JUMPDEST POP DUP3 DUP3 MUL DUP3 DUP5 DUP3 DUP2 ISZERO ISZERO PUSH2 0x157F JUMPI INVALID JUMPDEST DIV EQ PUSH2 0x1587 JUMPI INVALID JUMPDEST DUP1 SWAP2 POP JUMPDEST POP SWAP3 SWAP2 POP POP JUMP JUMPDEST PUSH1 0x1 PUSH1 0xA0 PUSH1 0x2 EXP SUB SWAP2 DUP3 AND PUSH1 0x0 SWAP1 DUP2 MSTORE PUSH1 0x5 PUSH1 0x20 SWAP1 DUP2 MSTORE PUSH1 0x40 DUP1 DUP4 KECCAK256 SWAP4 SWAP1 SWAP5 AND DUP3 MSTORE SWAP2 SWAP1 SWAP2 MSTORE KECCAK256 SLOAD SWAP1 JUMP JUMPDEST PUSH1 0x0 DUP1 DUP3 DUP5 DUP2 ISZERO ISZERO PUSH2 0x15CB JUMPI INVALID JUMPDEST DIV SWAP5 SWAP4 POP POP POP POP JUMP JUMPDEST PUSH1 0x0 DUP3 DUP3 GT ISZERO PUSH2 0x15E0 JUMPI INVALID JUMPDEST POP SWAP1 SUB SWAP1 JUMP JUMPDEST PUSH1 0x0 DUP3 DUP3 ADD DUP4 DUP2 LT ISZERO PUSH2 0x1587 JUMPI INVALID STOP 0xdd CALLCODE MSTORE 0xad 0x1b 0xe2 0xc8 SWAP12 PUSH10 0xC2B068FC378DAA952BA7 CALL PUSH4 0xC4A11628 0xf5 GAS 0x4d 0xf5 0x23 0xb3 0xef LOG1 PUSH6 0x627A7A723058 KECCAK256 0xcf 0xc5 0xf PUSH30 0x22CAD5FE38D62BA8F2320F8278C80B00FDC2C675570A66895E1D53A90029 "},"gasEstimates":{"creation":{"codeDepositCost":"1139400","executionCost":"infinite","totalCost":"infinite"},"external":{"MAX_UINT()":"874","_totalSupply()":"675","addBlackList(address)":"22174","allowance(address,address)":"infinite","allowed(address,address)":"975","approve(address,uint256)":"infinite","balanceOf(address)":"infinite","balances(address)":"756","basisPointsRate()":"1005","decimals()":"631","deprecate(address)":"22114","deprecated()":"585","destroyBlackFunds(address)":"infinite","getBlackListStatus(address)":"962","getOwner()":"982","isBlackListed(address)":"1186","issue(uint256)":"43641","maximumFee()":"653","name()":"infinite","owner()":"1004","pause()":"22232","paused()":"849","redeem(uint256)":"43669","removeBlackList(address)":"22696","setParams(uint256,uint256)":"infinite","symbol()":"infinite","totalSupply()":"infinite","transfer(address,uint256)":"infinite","transferFrom(address,address,uint256)":"infinite","transferOwnership(address)":"21631","unpause()":"22056","upgradedAddress()":"740"}},"methodIdentifiers":{"MAX_UINT()":"e5b5019a","_totalSupply()":"3eaaf86b","addBlackList(address)":"0ecb93c0","allowance(address,address)":"dd62ed3e","allowed(address,address)":"5c658165","approve(address,uint256)":"095ea7b3","balanceOf(address)":"70a08231","balances(address)":"27e235e3","basisPointsRate()":"dd644f72","decimals()":"313ce567","deprecate(address)":"0753c30c","deprecated()":"0e136b19","destroyBlackFunds(address)":"f3bdc228","getBlackListStatus(address)":"59bf1abe","getOwner()":"893d20e8","isBlackListed(address)":"e47d6060","issue(uint256)":"cc872b66","maximumFee()":"35390714","name()":"06fdde03","owner()":"8da5cb5b","pause()":"8456cb59","paused()":"5c975abb","redeem(uint256)":"db006a75","removeBlackList(address)":"e4997dc5","setParams(uint256,uint256)":"c0324c77","symbol()":"95d89b41","totalSupply()":"18160ddd","transfer(address,uint256)":"a9059cbb","transferFrom(address,address,uint256)":"23b872dd","transferOwnership(address)":"f2fde38b","unpause()":"3f4ba83a","upgradedAddress()":"26976e3f"}},"userdoc":{"methods":{"getBlackListStatus(address)":{"notice":"//// Getters to allow the same blacklist to be used also by other contracts (including upgraded Tether) ///////"}}}}}}