{"contracts/spirit-v2-farming/StableGaugeProxy.sol":{"StableGaugeProxy":{"abi":[{"inputs":[{"internalType":"address","name":"_masterChef","type":"address"},{"internalType":"address","name":"_spirit","type":"address"},{"internalType":"address","name":"_inSpirit","type":"address"},{"internalType":"address","name":"_feeDist","type":"address"},{"internalType":"address","name":"_bribeFactory","type":"address"},{"internalType":"address","name":"_pairFactory","type":"address"}],"stateMutability":"nonpayable","type":"constructor"},{"anonymous":false,"inputs":[{"indexed":false,"internalType":"address","name":"tokenLP","type":"address"}],"name":"GaugeAdded","type":"event"},{"anonymous":false,"inputs":[{"indexed":false,"internalType":"address","name":"tokenLP","type":"address"},{"indexed":false,"internalType":"address","name":"token0","type":"address"},{"indexed":false,"internalType":"address","name":"token1","type":"address"}],"name":"GaugeAddedByOwner","type":"event"},{"anonymous":false,"inputs":[{"indexed":false,"internalType":"address","name":"tokenLP","type":"address"}],"name":"GaugeDeprecated","type":"event"},{"anonymous":false,"inputs":[{"indexed":false,"internalType":"address","name":"tokenLP","type":"address"}],"name":"GaugeResurrected","type":"event"},{"anonymous":false,"inputs":[{"indexed":false,"internalType":"uint256","name":"spiritRewards","type":"uint256"}],"name":"PreDistributed","type":"event"},{"inputs":[],"name":"MASTER","outputs":[{"internalType":"contract MasterChef","name":"","type":"address"}],"stateMutability":"view","type":"function"},{"inputs":[],"name":"MIN_INSPIRIT_FOR_VERIFY","outputs":[{"internalType":"uint256","name":"","type":"uint256"}],"stateMutability":"view","type":"function"},{"inputs":[],"name":"TOKEN","outputs":[{"internalType":"contract IERC20","name":"","type":"address"}],"stateMutability":"view","type":"function"},{"inputs":[],"name":"acceptGovernance","outputs":[],"stateMutability":"nonpayable","type":"function"},{"inputs":[{"internalType":"address","name":"_tokenLP","type":"address"}],"name":"addGauge","outputs":[{"internalType":"address","name":"","type":"address"}],"stateMutability":"nonpayable","type":"function"},{"inputs":[{"internalType":"address","name":"_tokenLP","type":"address"},{"internalType":"address","name":"_token0","type":"address"},{"internalType":"address","name":"_token1","type":"address"}],"name":"addGaugeForOwner","outputs":[{"internalType":"address","name":"","type":"address"}],"stateMutability":"nonpayable","type":"function"},{"inputs":[],"name":"admin","outputs":[{"internalType":"address","name":"","type":"address"}],"stateMutability":"view","type":"function"},{"inputs":[{"internalType":"address","name":"","type":"address"}],"name":"baseTokens","outputs":[{"internalType":"bool","name":"","type":"bool"}],"stateMutability":"view","type":"function"},{"inputs":[],"name":"bribeFactory","outputs":[{"internalType":"address","name":"","type":"address"}],"stateMutability":"view","type":"function"},{"inputs":[{"internalType":"address","name":"","type":"address"}],"name":"bribes","outputs":[{"internalType":"address","name":"","type":"address"}],"stateMutability":"view","type":"function"},{"inputs":[{"internalType":"address[]","name":"_bribes","type":"address[]"},{"internalType":"address","name":"_user","type":"address"}],"name":"claimBribes","outputs":[],"stateMutability":"nonpayable","type":"function"},{"inputs":[],"name":"deposit","outputs":[],"stateMutability":"nonpayable","type":"function"},{"inputs":[{"internalType":"address","name":"_token","type":"address"}],"name":"deprecateGauge","outputs":[],"stateMutability":"nonpayable","type":"function"},{"inputs":[{"internalType":"uint256","name":"_start","type":"uint256"},{"internalType":"uint256","name":"_end","type":"uint256"}],"name":"distribute","outputs":[],"stateMutability":"nonpayable","type":"function"},{"inputs":[],"name":"distributeDelay","outputs":[{"internalType":"uint256","name":"","type":"uint256"}],"stateMutability":"view","type":"function"},{"inputs":[],"name":"feeDistAddr","outputs":[{"internalType":"address","name":"","type":"address"}],"stateMutability":"view","type":"function"},{"inputs":[{"internalType":"address","name":"","type":"address"}],"name":"gaugeStatus","outputs":[{"internalType":"bool","name":"","type":"bool"}],"stateMutability":"view","type":"function"},{"inputs":[{"internalType":"address","name":"","type":"address"}],"name":"gauges","outputs":[{"internalType":"address","name":"","type":"address"}],"stateMutability":"view","type":"function"},{"inputs":[{"internalType":"address","name":"_gauge","type":"address"}],"name":"getBribes","outputs":[{"internalType":"address","name":"","type":"address"}],"stateMutability":"view","type":"function"},{"inputs":[{"internalType":"address","name":"_token","type":"address"}],"name":"getGauge","outputs":[{"internalType":"address","name":"","type":"address"}],"stateMutability":"view","type":"function"},{"inputs":[],"name":"governance","outputs":[{"internalType":"address","name":"","type":"address"}],"stateMutability":"view","type":"function"},{"inputs":[],"name":"governanceToken","outputs":[{"internalType":"contract IERC20","name":"","type":"address"}],"stateMutability":"view","type":"function"},{"inputs":[{"internalType":"address","name":"","type":"address"}],"name":"hasDistributed","outputs":[{"internalType":"bool","name":"","type":"bool"}],"stateMutability":"view","type":"function"},{"inputs":[],"name":"lastDistribute","outputs":[{"internalType":"uint256","name":"","type":"uint256"}],"stateMutability":"view","type":"function"},{"inputs":[{"internalType":"address","name":"","type":"address"}],"name":"lastVote","outputs":[{"internalType":"uint256","name":"","type":"uint256"}],"stateMutability":"view","type":"function"},{"inputs":[],"name":"length","outputs":[{"internalType":"uint256","name":"","type":"uint256"}],"stateMutability":"view","type":"function"},{"inputs":[],"name":"lockedBalance","outputs":[{"internalType":"uint256","name":"","type":"uint256"}],"stateMutability":"view","type":"function"},{"inputs":[],"name":"lockedTotalWeight","outputs":[{"internalType":"uint256","name":"","type":"uint256"}],"stateMutability":"view","type":"function"},{"inputs":[{"internalType":"address","name":"","type":"address"}],"name":"lockedWeights","outputs":[{"internalType":"uint256","name":"","type":"uint256"}],"stateMutability":"view","type":"function"},{"inputs":[],"name":"locktime","outputs":[{"internalType":"uint256","name":"","type":"uint256"}],"stateMutability":"view","type":"function"},{"inputs":[],"name":"minFee","outputs":[{"internalType":"uint256","name":"","type":"uint256"}],"stateMutability":"view","type":"function"},{"inputs":[],"name":"pairFactory","outputs":[{"internalType":"address","name":"","type":"address"}],"stateMutability":"view","type":"function"},{"inputs":[],"name":"pendingGovernance","outputs":[{"internalType":"address","name":"","type":"address"}],"stateMutability":"view","type":"function"},{"inputs":[],"name":"pid","outputs":[{"internalType":"uint256","name":"","type":"uint256"}],"stateMutability":"view","type":"function"},{"inputs":[{"internalType":"address","name":"_owner","type":"address"}],"name":"poke","outputs":[],"stateMutability":"nonpayable","type":"function"},{"inputs":[],"name":"preDistribute","outputs":[],"stateMutability":"nonpayable","type":"function"},{"inputs":[],"name":"reset","outputs":[],"stateMutability":"nonpayable","type":"function"},{"inputs":[{"internalType":"address","name":"_token","type":"address"}],"name":"resurrectGauge","outputs":[],"stateMutability":"nonpayable","type":"function"},{"inputs":[],"name":"rewardToken","outputs":[{"internalType":"contract IERC20","name":"","type":"address"}],"stateMutability":"view","type":"function"},{"inputs":[{"internalType":"address","name":"_admin","type":"address"}],"name":"setAdmin","outputs":[],"stateMutability":"nonpayable","type":"function"},{"inputs":[{"internalType":"address","name":"_tokenLP","type":"address"},{"internalType":"bool","name":"_flag","type":"bool"}],"name":"setBaseToken","outputs":[],"stateMutability":"nonpayable","type":"function"},{"inputs":[{"internalType":"address","name":"_governance","type":"address"}],"name":"setGovernance","outputs":[],"stateMutability":"nonpayable","type":"function"},{"inputs":[{"internalType":"uint256","name":"_pid","type":"uint256"}],"name":"setPID","outputs":[],"stateMutability":"nonpayable","type":"function"},{"inputs":[{"internalType":"address","name":"_tokenLP","type":"address"},{"internalType":"bool","name":"_flag","type":"bool"}],"name":"setVerifiedToken","outputs":[],"stateMutability":"nonpayable","type":"function"},{"inputs":[],"name":"toggleVE","outputs":[],"stateMutability":"nonpayable","type":"function"},{"inputs":[{"internalType":"address","name":"","type":"address"},{"internalType":"uint256","name":"","type":"uint256"}],"name":"tokenVote","outputs":[{"internalType":"address","name":"","type":"address"}],"stateMutability":"view","type":"function"},{"inputs":[],"name":"tokens","outputs":[{"internalType":"address[]","name":"","type":"address[]"}],"stateMutability":"view","type":"function"},{"inputs":[],"name":"totalWeight","outputs":[{"internalType":"uint256","name":"","type":"uint256"}],"stateMutability":"view","type":"function"},{"inputs":[{"internalType":"address","name":"_feeDistAddr","type":"address"}],"name":"updateFeeDistributor","outputs":[],"stateMutability":"nonpayable","type":"function"},{"inputs":[{"internalType":"address","name":"","type":"address"}],"name":"usedWeights","outputs":[{"internalType":"uint256","name":"","type":"uint256"}],"stateMutability":"view","type":"function"},{"inputs":[],"name":"ve","outputs":[{"internalType":"bool","name":"","type":"bool"}],"stateMutability":"view","type":"function"},{"inputs":[{"internalType":"address","name":"","type":"address"}],"name":"verifiedTokens","outputs":[{"internalType":"bool","name":"","type":"bool"}],"stateMutability":"view","type":"function"},{"inputs":[{"internalType":"address[]","name":"_tokenVote","type":"address[]"},{"internalType":"uint256[]","name":"_weights","type":"uint256[]"}],"name":"vote","outputs":[],"stateMutability":"nonpayable","type":"function"},{"inputs":[],"name":"voteDelay","outputs":[{"internalType":"uint256","name":"","type":"uint256"}],"stateMutability":"view","type":"function"},{"inputs":[{"internalType":"address","name":"","type":"address"},{"internalType":"address","name":"","type":"address"}],"name":"votes","outputs":[{"internalType":"uint256","name":"","type":"uint256"}],"stateMutability":"view","type":"function"},{"inputs":[{"internalType":"address","name":"","type":"address"}],"name":"weights","outputs":[{"internalType":"uint256","name":"","type":"uint256"}],"stateMutability":"view","type":"function"}],"evm":{"bytecode":{"linkReferences":{},"object":"60c060405268056bc75e2d6310000060075569152d02c7e14af680000060a05260001960095562093a80600b819055600c556016805460ff60a01b191690553480156200004b57600080fd5b5060405162005807380380620058078339810160408190526200006e916200016d565b6001600255600380546001600160a01b038089166001600160a01b031992831617909255600580548884169083161790556004805492871692909116919091179055604051620000be9062000142565b604051809103906000f080158015620000db573d6000803e3d6000fd5b506001600160a01b0390811660805260008054336001600160a01b03199182168117909255600680548216909217909155601880548216958316959095179094556008805485169382169390931790925560168054909316911617905550620001ee915050565b6106b1806200515683390190565b80516001600160a01b03811681146200016857600080fd5b919050565b60008060008060008060c087890312156200018757600080fd5b620001928762000150565b9550620001a26020880162000150565b9450620001b26040880162000150565b9350620001c26060880162000150565b9250620001d26080880162000150565b9150620001e260a0880162000150565b90509295509295509295565b60805160a051614f3b6200021b6000396000610438015260008181610636015261227e0152614f3b6000f3fe60806040523480156200001157600080fd5b5060043610620003c05760003560e01c806396c82e5711620001f9578063d0e30db01162000119578063f39c38a011620000af578063f851a4401162000086578063f851a44014620008e3578063f96dae0a14620008f7578063f9b2fe27146200090b578063ff2af408146200091557600080fd5b8063f39c38a014620008b1578063f6d12b1614620008c5578063f7c618c114620008cf57600080fd5b8063e96a6bda11620000f0578063e96a6bda1462000856578063eb4a78e0146200087c578063f10684541462000890578063f2a1a8ed146200089a57600080fd5b8063d0e30db0146200082e578063d826f88f1462000838578063e14f870d146200084257600080fd5b8063b1c6f0e9116200018f578063b9173ec41162000166578063b9173ec414620007a6578063b9a09fd514620007bd578063c84afda014620007e9578063cad1b906146200080057600080fd5b8063b1c6f0e91462000749578063b23e30141462000778578063b70aed71146200078f57600080fd5b8063a7cac84611620001d0578063a7cac84614620006cc578063a8c5d95a14620006ef578063ab033ea9146200071b578063b1a997ac146200073257600080fd5b806396c82e5714620006925780639d63848a146200069c5780639da882ac14620006b557600080fd5b80634c904f2c11620002e5578063704b6c02116200027b57806382836391116200025257806382836391146200062657806382bfefc814620006305780638d0605191462000658578063924d9f77146200066f57600080fd5b8063704b6c0214620005ee5780637625391a14620006055780637b80889b146200061c57600080fd5b806361c533b411620002bc57806361c533b414620005935780636848c2bd146200059d5780636accc8cf14620005b45780636f816a2014620005d757600080fd5b80634c904f2c14620005545780635aa6e675146200056857806360c73bf2146200057c57600080fd5b806324ec7590116200035b5780632951005c11620003325780632951005c14620004c85780634668e61914620004ee578063471aedc2146200053657806347d67339146200054a57600080fd5b806324ec759014620004aa57806328b02a1d14620004b4578063292fc97914620004be57600080fd5b80631baaaffe116200039c5780631baaaffe146200045a5780631f7b6d3214620004805780631f8507161462000489578063238efcbc146200049e57600080fd5b80622f8de414620003c557806302eba09414620003fb57806313976fc81462000432575b600080fd5b620003e8620003d636600462002e6a565b601f6020526000908152604090205481565b6040519081526020015b60405180910390f35b620004216200040c36600462002e6a565b60156020526000908152604090205460ff1681565b6040519015158152602001620003f2565b620003e87f000000000000000000000000000000000000000000000000000000000000000081565b620004216200046b36600462002e6a565b60146020526000908152604090205460ff1681565b601754620003e8565b6016546200042190600160a01b900460ff1681565b620004a86200092c565b005b620003e860075481565b620003e8600f5481565b620003e8600b5481565b62000421620004d936600462002e6a565b601a6020526000908152604090205460ff1681565b6200051d620004ff36600462002e6a565b6001600160a01b039081166000908152601b60205260409020541690565b6040516001600160a01b039091168152602001620003f2565b6003546200051d906001600160a01b031681565b620003e8600d5481565b6018546200051d906001600160a01b031681565b6000546200051d906001600160a01b031681565b620004a86200058d36600462002e6a565b620009b0565b620003e860115481565b620004a8620005ae36600462002e6a565b62000a58565b620003e8620005c536600462002e6a565b600e6020526000908152604090205481565b620004a8620005e836600462002ee0565b62000bad565b620004a8620005ff36600462002e6a565b62000cb5565b620004a86200061636600462002f53565b62000d1c565b620003e860105481565b620004a862000fae565b6200051d7f000000000000000000000000000000000000000000000000000000000000000081565b620004a86200066936600462002f76565b62001423565b620003e86200068036600462002e6a565b60126020526000908152604090205481565b620003e8600a5481565b620006a66200146d565b604051620003f2919062002f90565b6200051d620006c636600462002e6a565b620014d1565b620003e8620006dd36600462002e6a565b601c6020526000908152604090205481565b6200051d6200070036600462002e6a565b601b602052600090815260409020546001600160a01b031681565b620004a86200072c36600462002e6a565b62001acc565b620004a86200074336600462002e6a565b62001b40565b6200051d6200075a36600462002e6a565b6001600160a01b039081166000908152601960205260409020541690565b620004a86200078936600462002fee565b62001d51565b620004a8620007a036600462002fee565b62001dbf565b620004a8620007b736600462002e6a565b62001e2d565b6200051d620007ce36600462002e6a565b6019602052600090815260409020546001600160a01b031681565b6200051d620007fa3660046200302c565b62001f7c565b620003e8620008113660046200307e565b601d60209081526000928352604080842090915290825290205481565b620004a86200221d565b620004a8620023a2565b6016546200051d906001600160a01b031681565b620004216200086736600462002e6a565b60136020526000908152604090205460ff1681565b6008546200051d906001600160a01b031681565b620003e860095481565b6200051d620008ab366004620030b1565b620023af565b6001546200051d906001600160a01b031681565b620003e8600c5481565b6005546200051d906001600160a01b031681565b6006546200051d906001600160a01b031681565b6004546200051d906001600160a01b031681565b620004a8620023e8565b620004a862000926366004620030f6565b6200247b565b6001546001600160a01b031633146200098c5760405162461bcd60e51b815260206004820152601d60248201527f616363657074476f7665726e616e63653a202170656e64696e67476f7600000060448201526064015b60405180910390fd5b600154600080546001600160a01b0319166001600160a01b03909216919091179055565b6000546001600160a01b0316331480620009d457506006546001600160a01b031633145b62000a365760405162461bcd60e51b815260206004820152602b60248201527f7570646174654665654465737472696275746f723a207065726d697373696f6e60448201526a2069732064656e6965642160a81b606482015260840162000983565b601880546001600160a01b0319166001600160a01b0392909216919091179055565b6000546001600160a01b031633148062000a7c57506006546001600160a01b031633145b62000a9b5760405162461bcd60e51b81526004016200098390620031dd565b6001600160a01b038181166000908152601960205260409020541662000af55760405162461bcd60e51b815260206004820152600e60248201526d191bd95cc81b9bdd08195e1a5cdd60921b604482015260640162000983565b6001600160a01b0381166000908152601a602052604090205460ff1662000b555760405162461bcd60e51b81526020600482015260136024820152726761756765206973206e6f742061637469766560681b604482015260640162000983565b6001600160a01b0381166000818152601a6020908152604091829020805460ff1916905590519182527fd780203fe297949db725d8b7408a8d9f009bafaf49909a5eb5130c37bba5efb191015b60405180910390a150565b336000818152600e602052604081205462000bc990426200321b565b9050600b54811162000c1e5760405162461bcd60e51b815260206004820152601c60248201527f596f7520766f74656420696e20746865206c6173742037206461797300000000604482015260640162000983565b84831462000c2b57600080fd5b336000818152600e60209081526040918290204290558151888202818101830190935288815262000cad939290918a918a9182919085019084908082843760009201919091525050604080516020808b0282810182019093528a82529093508a9250899182918501908490808284376000920191909152506200252192505050565b505050505050565b6000546001600160a01b0316331462000cfa5760405162461bcd60e51b8152600401620009839060208082526004908201526310b3b7bb60e11b604082015260600190565b600680546001600160a01b0319166001600160a01b0392909216919091179055565b60028054141562000d705760405162461bcd60e51b815260206004820152601f60248201527f5265656e7472616e637947756172643a207265656e7472616e742063616c6c00604482015260640162000983565b6002805580821062000db25760405162461bcd60e51b815260206004820152600a6024820152691898590817dcdd185c9d60b21b604482015260640162000983565b60175481111562000df15760405162461bcd60e51b81526020600482015260086024820152671898590817d95b9960c21b604482015260640162000983565b600060105411801562000e0657506000600f54115b1562000fa557815b8181101562000fa35760006017828154811062000e2f5762000e2f62003235565b60009182526020808320909101546001600160a01b0316808352601390915260409091205490915060ff1615801562000e8057506001600160a01b0381166000908152601a602052604090205460ff165b1562000f8d576001600160a01b03808216600090815260196020908152604080832054600f54601290935290832054601054919094169362000ec2916200324b565b62000ece91906200326d565b9050801562000f675760055462000ef1906001600160a01b03168360006200280b565b60055462000f0a906001600160a01b031683836200280b565b604051633c6b16ab60e01b8152600481018290526001600160a01b03831690633c6b16ab90602401600060405180830381600087803b15801562000f4d57600080fd5b505af115801562000f62573d6000803e3d6000fd5b505050505b50506001600160a01b0381166000908152601360205260409020805460ff191660011790555b508062000f9a8162003290565b91505062000e0e565b505b50506001600255565b600280541415620010025760405162461bcd60e51b815260206004820152601f60248201527f5265656e7472616e637947756172643a207265656e7472616e742063616c6c00604482015260640162000983565b60028055600d546000906200101890426200321b565b9050600c548111620010825760405162461bcd60e51b815260206004820152602c60248201527f7468697320686173206265656e20646973747269627574656420696e2074686560448201526b206c6173742037206461797360a01b606482015260840162000983565b600a54600f5560005b6017548110156200119657601c600060178381548110620010b057620010b062003235565b9060005260206000200160009054906101000a90046001600160a01b03166001600160a01b03166001600160a01b0316815260200190815260200160002054601260006017848154811062001109576200110962003235565b60009182526020808320909101546001600160a01b03168352820192909252604001812091909155601780546013918391859081106200114d576200114d62003235565b6000918252602080832091909101546001600160a01b031683528201929092526040019020805460ff1916911515919091179055806200118d8162003290565b9150506200108b565b50620011a16200295b565b42600d556005546040516370a0823160e01b81523060048201526000916001600160a01b0316906370a0823190602401602060405180830381865afa158015620011ef573d6000803e3d6000fd5b505050506040513d601f19601f82011682018060405250810190620012159190620032ae565b6010819055601654909150600090600160a01b900460ff1615620013e257600554600480546040516370a0823160e01b81526001600160a01b039182169281019290925260009216906370a0823190602401602060405180830381865afa15801562001285573d6000803e3d6000fd5b505050506040513d601f19601f82011682018060405250810190620012ab9190620032ae565b90506000600560009054906101000a90046001600160a01b03166001600160a01b03166318160ddd6040518163ffffffff1660e01b8152600401602060405180830381865afa15801562001303573d6000803e3d6000fd5b505050506040513d601f19601f82011682018060405250810190620013299190620032ae565b9050806200133883866200324b565b6200134491906200326d565b92508215620013df576018546005546200136c916001600160a01b0391821691168562002a4f565b6005546040516370a0823160e01b81523060048201526001600160a01b03909116906370a0823190602401602060405180830381865afa158015620013b5573d6000803e3d6000fd5b505050506040513d601f19601f82011682018060405250810190620013db9190620032ae565b6010555b50505b426011556040518181527fce10d9c5a37f75faa552238874842dbf93dc8424647cb8c3286cfdcb73f6212a9060200160405180910390a15050600160025550565b6000546001600160a01b03163314620014685760405162461bcd60e51b8152600401620009839060208082526004908201526310b3b7bb60e11b604082015260600190565b600955565b60606017805480602002602001604051908101604052809291908181526020018280548015620014c757602002820191906000526020600020905b81546001600160a01b03168152600190910190602001808311620014a8575b5050505050905090565b6001600160a01b0381811660009081526019602052604081205490911615620015265760405162461bcd60e51b815260206004820152600660248201526565786973747360d01b604482015260640162000983565b60165460405163e5e31b1360e01b81526001600160a01b0384811660048301529091169063e5e31b13906024016020604051808303816000875af115801562001573573d6000803e3d6000fd5b505050506040513d601f19601f82011682018060405250810190620015999190620032c8565b620015d35760405162461bcd60e51b81526020600482015260096024820152680215f746f6b656e4c560bc1b604482015260640162000983565b816001600160a01b03166322be3de16040518163ffffffff1660e01b81526004016020604051808303816000875af115801562001614573d6000803e3d6000fd5b505050506040513d601f19601f820116820180604052508101906200163a9190620032c8565b6200164457600080fd5b600080836001600160a01b0316639d63848a6040518163ffffffff1660e01b815260040160408051808303816000875af115801562001687573d6000803e3d6000fd5b505050506040513d601f19601f82011682018060405250810190620016ad9190620032e8565b6001600160a01b038216600090815260156020526040902054919350915060ff168015620016f357506001600160a01b03811660009081526014602052604090205460ff165b806200173b57506001600160a01b03811660009081526015602052604090205460ff1680156200173b57506001600160a01b03821660009081526014602052604090205460ff165b620017755760405162461bcd60e51b8152602060048201526009602482015268085d995c9a599a595960ba1b604482015260640162000983565b6064600460009054906101000a90046001600160a01b03166001600160a01b03166318160ddd6040518163ffffffff1660e01b8152600401602060405180830381865afa158015620017cb573d6000803e3d6000fd5b505050506040513d601f19601f82011682018060405250810190620017f19190620032ae565b620017fd91906200326d565b600480546040516370a0823160e01b815233928101929092526001600160a01b0316906370a0823190602401602060405180830381865afa15801562001847573d6000803e3d6000fd5b505050506040513d601f19601f820116820180604052508101906200186d9190620032ae565b11806200188457506000546001600160a01b031633145b806200189a57506006546001600160a01b031633145b620018d25760405162461bcd60e51b815260206004820152600760248201526621737570706c7960c81b604482015260640162000983565b6005546004546040516001600160a01b03928316929091169086903090620018fa9062002dff565b6001600160a01b039485168152928416602084015290831660408301529091166060820152608001604051809103906000f0801580156200193f573d6000803e3d6000fd5b506001600160a01b03858116600081815260196020908152604080832080549686166001600160a01b03199788161790556017805460018181019092557fc624b66cc0138b8fabc209247f72d758e1cf3343756d543badbf24212bed8c15018054909716909417909555601a9052838120805460ff191690921790915560085481549351631c1e57c960e11b8152938316600485015285831660248501528483166044850152909291169063383caf92906064016020604051808303816000875af115801562001a13573d6000803e3d6000fd5b505050506040513d601f19601f8201168201806040525081019062001a3991906200331c565b6001600160a01b0386811660008181526019602090815260408083205485168352601b82529182902080546001600160a01b03191694861694909417909355519081529192507f9808313031a8f4caa534c417adad16800af7317516eff29a2d37cec0ffb244db910160405180910390a1505050506001600160a01b039081166000908152601960205260409020541690565b6000546001600160a01b0316331462001b1e5760405162461bcd60e51b815260206004820152601360248201527239b2ba23b7bb32b93730b731b29d1010b3b7bb60691b604482015260640162000983565b600180546001600160a01b0319166001600160a01b0392909216919091179055565b6001600160a01b0381166000908152601e602090815260408083208054825181850281018501909352808352919290919083018282801562001bac57602002820191906000526020600020905b81546001600160a01b0316815260019091019060200180831162001b8d575b5050505050905060008151905060008167ffffffffffffffff81111562001bd75762001bd7620030e0565b60405190808252806020026020018201604052801562001c01578160200160208202803683370190505b506001600160a01b038581166000818152601f6020526040808220546004805492516370a0823160e01b815290810194909452949550909216906370a0823190602401602060405180830381865afa15801562001c62573d6000803e3d6000fd5b505050506040513d601f19601f8201168201806040525081019062001c889190620032ae565b905060005b8481101562001d43576001600160a01b0387166000908152601d602052604081208751829089908590811062001cc75762001cc762003235565b60200260200101516001600160a01b03166001600160a01b0316815260200190815260200160002054905083838262001d0191906200324b565b62001d0d91906200326d565b85838151811062001d225762001d2262003235565b6020908102919091010152508062001d3a8162003290565b91505062001c8d565b5062000cad86868562002521565b6000546001600160a01b031633148062001d7557506006546001600160a01b031633145b62001d945760405162461bcd60e51b81526004016200098390620031dd565b6001600160a01b03919091166000908152601560205260409020805460ff1916911515919091179055565b6000546001600160a01b031633148062001de357506006546001600160a01b031633145b62001e025760405162461bcd60e51b81526004016200098390620031dd565b6001600160a01b03919091166000908152601460205260409020805460ff1916911515919091179055565b6000546001600160a01b031633148062001e5157506006546001600160a01b031633145b62001e705760405162461bcd60e51b81526004016200098390620031dd565b6001600160a01b038181166000908152601960205260409020541662001eca5760405162461bcd60e51b815260206004820152600e60248201526d191bd95cc81b9bdd08195e1a5cdd60921b604482015260640162000983565b6001600160a01b0381166000908152601a602052604090205460ff161562001f275760405162461bcd60e51b815260206004820152600f60248201526e67617567652069732061637469766560881b604482015260640162000983565b6001600160a01b0381166000818152601a6020908152604091829020805460ff1916600117905590519182527f9249e27c005fd3aeb1554e7b8cb687f7e017f0651813d386f7d74ebd7245c8a2910162000ba2565b600080546001600160a01b031633148062001fa157506006546001600160a01b031633145b62001fc05760405162461bcd60e51b81526004016200098390620031dd565b6001600160a01b038481166000908152601960205260409020541615620020135760405162461bcd60e51b815260206004820152600660248201526565786973747360d01b604482015260640162000983565b6005546004546040516001600160a01b039283169290911690869030906200203b9062002dff565b6001600160a01b039485168152928416602084015290831660408301529091166060820152608001604051809103906000f08015801562002080573d6000803e3d6000fd5b506001600160a01b03858116600081815260196020908152604080832080549686166001600160a01b03199788161790556017805460018181019092557fc624b66cc0138b8fabc209247f72d758e1cf3343756d543badbf24212bed8c15018054909716909417909555601a9052838120805460ff191690921790915560085481549351631c1e57c960e11b8152938316600485015286831660248501528583166044850152909291169063383caf92906064016020604051808303816000875af115801562002154573d6000803e3d6000fd5b505050506040513d601f19601f820116820180604052508101906200217a91906200331c565b6001600160a01b0386811660008181526019602090815260408083205485168352601b82529182902080546001600160a01b031916868616179055815192835288841690830152918616918101919091529091507fdecab58d8a6a044c9ac75d257407891e2515835f38d07a2b7333682b8d4b63089060600160405180910390a1505050506001600160a01b039081166000908152601960205260409020541690565b6000196009541415620022695760405162461bcd60e51b81526020600482015260136024820152721c1a59081b9bdd081a5b9a5d1a585b1a5e9959606a1b604482015260640162000983565b6040516370a0823160e01b81523060048201527f0000000000000000000000000000000000000000000000000000000000000000906000906001600160a01b038316906370a0823190602401602060405180830381865afa158015620022d3573d6000803e3d6000fd5b505050506040513d601f19601f82011682018060405250810190620022f99190620032ae565b60035490915062002319906001600160a01b03848116911660006200280b565b60035462002335906001600160a01b038481169116836200280b565b600354600954604051631c57762b60e31b81526001600160a01b039092169163e2bbb1589162002372918590600401918252602082015260400190565b600060405180830381600087803b1580156200238d57600080fd5b505af115801562000cad573d6000803e3d6000fd5b620023ad3362002a81565b565b601e6020528160005260406000208181548110620023cc57600080fd5b6000918252602090912001546001600160a01b03169150829050565b6000546001600160a01b03163314806200240c57506006546001600160a01b031633145b6200245a5760405162461bcd60e51b815260206004820152601f60248201527f7475726e56654f6e3a207065726d697373696f6e2069732064656e6965642100604482015260640162000983565b6016805460ff60a01b198116600160a01b9182900460ff1615909102179055565b60005b82518110156200251c578281815181106200249d576200249d62003235565b602090810291909101015160405163ef0d090f60e01b81526001600160a01b0384811660048301529091169063ef0d090f90602401600060405180830381600087803b158015620024ed57600080fd5b505af115801562002502573d6000803e3d6000fd5b505050508080620025139062003290565b9150506200247e565b505050565b6200252c8362002a81565b8151600480546040516370a0823160e01b81526001600160a01b0387811693820193909352600092909116906370a0823190602401602060405180830381865afa1580156200257f573d6000803e3d6000fd5b505050506040513d601f19601f82011682018060405250810190620025a59190620032ae565b905060008060005b84811015620025f757858181518110620025cb57620025cb62003235565b602002602001015183620025e091906200333c565b925080620025ee8162003290565b915050620025ad565b5060005b84811015620027e65760008782815181106200261b576200261b62003235565b6020908102919091018101516001600160a01b038082166000908152601990935260408320548a51929450169190869088908b908790811062002662576200266262003235565b60200260200101516200267691906200324b565b6200268291906200326d565b90506001600160a01b03821615801590620026b557506001600160a01b0383166000908152601a602052604090205460ff165b15620027cd57620026c781866200333c565b945080600a54620026d991906200333c565b600a556001600160a01b0383166000908152601c6020526040902054620027029082906200333c565b6001600160a01b038481166000818152601c60209081526040808320959095558f8416808352601e825285832080546001810182559084528284200180546001600160a01b03191685179055808352601d82528583209383529281528482208690558684168252601b9052839020549251630463cd9760e41b815260048101859052602481019190915291169063463cd97090604401600060405180830381600087803b158015620027b357600080fd5b505af1158015620027c8573d6000803e3d6000fd5b505050505b5050508080620027dd9062003290565b915050620025fb565b506001600160a01b039096166000908152601f60205260409020959095555050505050565b801580620028895750604051636eb1769f60e11b81523060048201526001600160a01b03838116602483015284169063dd62ed3e90604401602060405180830381865afa15801562002861573d6000803e3d6000fd5b505050506040513d601f19601f82011682018060405250810190620028879190620032ae565b155b620028f65760405162461bcd60e51b815260206004820152603660248201527f5361666545524332303a20617070726f76652066726f6d206e6f6e2d7a65726f60448201527520746f206e6f6e2d7a65726f20616c6c6f77616e636560501b606482015260840162000983565b6040516001600160a01b0383166024820152604481018290526200251c90849063095ea7b360e01b906064015b60408051601f198184030181529190526020810180516001600160e01b03166001600160e01b03199093169290921790915262002c26565b6003546009546040516393f1a40b60e01b815260048101919091523060248201526000916001600160a01b0316906393f1a40b906044016040805180830381865afa158015620029af573d6000803e3d6000fd5b505050506040513d601f19601f82011682018060405250810190620029d5919062003357565b50600354600954604051630441a3e760e41b81526004810191909152602481018390529192506001600160a01b03169063441a3e7090604401600060405180830381600087803b15801562002a2957600080fd5b505af115801562002a3e573d6000803e3d6000fd5b5050505062002a4c6200221d565b50565b6040516001600160a01b0383166024820152604481018290526200251c90849063a9059cbb60e01b9060640162002923565b6001600160a01b0381166000908152601e60205260408120805490915b8181101562002c0257600083828154811062002abe5762002abe62003235565b60009182526020808320909101546001600160a01b038881168452601d8352604080852091909216808552925290912054909150801562002bea5780600a5462002b0991906200321b565b600a556001600160a01b0382166000908152601c602052604090205462002b329082906200321b565b6001600160a01b038381166000908152601c6020908152604080832094909455601981528382205483168252601b905282902054915163293311ab60e01b815260048101849052888216602482015291169063293311ab90604401600060405180830381600087803b15801562002ba857600080fd5b505af115801562002bbd573d6000803e3d6000fd5b5050506001600160a01b038088166000908152601d60209081526040808320938716835292905290812055505b5050808062002bf99062003290565b91505062002a9e565b506001600160a01b0383166000908152601e602052604081206200251c9162002e0d565b62002c3a826001600160a01b031662002dc2565b62002c885760405162461bcd60e51b815260206004820152601f60248201527f5361666545524332303a2063616c6c20746f206e6f6e2d636f6e747261637400604482015260640162000983565b600080836001600160a01b03168360405162002ca591906200337c565b6000604051808303816000865af19150503d806000811462002ce4576040519150601f19603f3d011682016040523d82523d6000602084013e62002ce9565b606091505b50915091508162002d3d5760405162461bcd60e51b815260206004820181905260248201527f5361666545524332303a206c6f772d6c6576656c2063616c6c206661696c6564604482015260640162000983565b80511562002dbc578080602001905181019062002d5b9190620032c8565b62002dbc5760405162461bcd60e51b815260206004820152602a60248201527f5361666545524332303a204552433230206f7065726174696f6e20646964206e6044820152691bdd081cdd58d8d9595960b21b606482015260840162000983565b50505050565b6000813f7fc5d2460186f7233c927e7db2dcc703c0e500b653ca82273b7bfad8045d85a470811580159062002df75750808214155b949350505050565b611b4b80620033bb83390190565b508054600082559060005260206000209081019062002a4c91905b8082111562002e3e576000815560010162002e28565b5090565b6001600160a01b038116811462002a4c57600080fd5b803562002e658162002e42565b919050565b60006020828403121562002e7d57600080fd5b813562002e8a8162002e42565b9392505050565b60008083601f84011262002ea457600080fd5b50813567ffffffffffffffff81111562002ebd57600080fd5b6020830191508360208260051b850101111562002ed957600080fd5b9250929050565b6000806000806040858703121562002ef757600080fd5b843567ffffffffffffffff8082111562002f1057600080fd5b62002f1e8883890162002e91565b9096509450602087013591508082111562002f3857600080fd5b5062002f478782880162002e91565b95989497509550505050565b6000806040838503121562002f6757600080fd5b50508035926020909101359150565b60006020828403121562002f8957600080fd5b5035919050565b6020808252825182820181905260009190848201906040850190845b8181101562002fd35783516001600160a01b03168352928401929184019160010162002fac565b50909695505050505050565b801515811462002a4c57600080fd5b600080604083850312156200300257600080fd5b82356200300f8162002e42565b91506020830135620030218162002fdf565b809150509250929050565b6000806000606084860312156200304257600080fd5b83356200304f8162002e42565b92506020840135620030618162002e42565b91506040840135620030738162002e42565b809150509250925092565b600080604083850312156200309257600080fd5b82356200309f8162002e42565b91506020830135620030218162002e42565b60008060408385031215620030c557600080fd5b8235620030d28162002e42565b946020939093013593505050565b634e487b7160e01b600052604160045260246000fd5b600080604083850312156200310a57600080fd5b823567ffffffffffffffff808211156200312357600080fd5b818501915085601f8301126200313857600080fd5b81356020828211156200314f576200314f620030e0565b8160051b604051601f19603f83011681018181108682111715620031775762003177620030e0565b6040529283528183019350848101820192898411156200319657600080fd5b948201945b83861015620031bf57620031af8662002e58565b855294820194938201936200319b565b9650620031d0905087820162002e58565b9450505050509250929050565b6020808252600e908201526d10b3b7bb1037b91010b0b236b4b760911b604082015260600190565b634e487b7160e01b600052601160045260246000fd5b60008282101562003230576200323062003205565b500390565b634e487b7160e01b600052603260045260246000fd5b600081600019048311821515161562003268576200326862003205565b500290565b6000826200328b57634e487b7160e01b600052601260045260246000fd5b500490565b6000600019821415620032a757620032a762003205565b5060010190565b600060208284031215620032c157600080fd5b5051919050565b600060208284031215620032db57600080fd5b815162002e8a8162002fdf565b60008060408385031215620032fc57600080fd5b8251620033098162002e42565b6020840151909250620030218162002e42565b6000602082840312156200332f57600080fd5b815162002e8a8162002e42565b6000821982111562003352576200335262003205565b500190565b600080604083850312156200336b57600080fd5b505080516020909101519092909150565b6000825160005b818110156200339f576020818601810151858301520162003383565b81811115620033af576000828501525b50919091019291505056fe60c0604052600060035560006004553480156200001b57600080fd5b5060405162001b4b38038062001b4b8339810160408190526200003e91620000ad565b6001600081905580546001600160a01b039586166001600160a01b0319918216179091556002805494861694821694909417909355908316608052600980549190931691161790553360a0526200010a565b80516001600160a01b0381168114620000a857600080fd5b919050565b60008060008060808587031215620000c457600080fd5b620000cf8562000090565b9350620000df6020860162000090565b9250620000ef6040860162000090565b9150620000ff6060860162000090565b905092959194509250565b60805160a0516119ea62000161600039600081816102f70152818161050e015261060101526000818161033e01528181610c1101528181610d9601528181610f4b0152818161109c01526111d301526119ea6000f3fe608060405234801561001057600080fd5b50600436106101ef5760003560e01c8063853828b61161010f578063cd3daf9d116100a2578063df136d6511610071578063df136d651461041c578063ebe2b12b14610425578063f7c618c11461042e578063f96dae0a1461044157600080fd5b8063cd3daf9d146103f0578063d35e2544146103f8578063d7da4bb01461040b578063de5f62681461041457600080fd5b806396c55175116100de57806396c55175146103ae578063b6b55f25146103c1578063c8f33c91146103d4578063ca1c9b75146103dd57600080fd5b8063853828b6146103605780638b0e888e146103685780638b8763471461038557806393f1c442146103a557600080fd5b80633d18b912116101875780637b0a47ee116101565780637b0a47ee146102e95780637c91e4eb146102f257806380faa57d1461033157806382bfefc81461033957600080fd5b80633d18b9121461028f5780634c02a21c1461029757806363fb415b146102a057806370a08231146102c057600080fd5b80631c1f78eb116101c35780631c1f78eb1461024c5780632e1a7d4d1461025457806336efd16f146102695780633c6b16ab1461027c57600080fd5b80628cc262146101f45780630700037d1461021a57806318160ddd1461023a5780631be0528914610242575b600080fd5b6102076102023660046117ab565b610454565b6040519081526020015b60405180910390f35b6102076102283660046117ab565b600b6020526000908152604090205481565b600c54610207565b61020762093a8081565b6102076104d1565b6102676102623660046117c8565b6104e9565b005b6102676102773660046117e1565b6104f5565b61026761028a3660046117c8565b610503565b6102676107b7565b61020760085481565b6102076102ae3660046117ab565b600f6020526000908152604090205481565b6102076102ce3660046117ab565b6001600160a01b03166000908152600e602052604090205490565b61020760045481565b6103197f000000000000000000000000000000000000000000000000000000000000000081565b6040516001600160a01b039091168152602001610211565b6102076108d0565b6103197f000000000000000000000000000000000000000000000000000000000000000081565b6102676108de565b6103706108f9565b60408051928352602083019190915201610211565b6102076103933660046117ab565b600a6020526000908152604090205481565b61020760075481565b6102676103bc3660046117ab565b610939565b6102676103cf3660046117c8565b61099f565b61020760055481565b600954610319906001600160a01b031681565b6102076109a9565b6102076104063660046117ab565b610a18565b610207600d5481565b610267610bf8565b61020760065481565b61020760035481565b600154610319906001600160a01b031681565b600254610319906001600160a01b031681565b6001600160a01b0381166000908152600b6020908152604080832054600a909252822054670de0b6b3a76400009061048a6109a9565b6104949190611827565b6001600160a01b0385166000908152600f60205260409020546104b7919061183e565b6104c1919061185d565b6104cb919061187f565b92915050565b600062093a806004546104e4919061183e565b905090565b6104f281610c8a565b50565b6104ff8282610e1b565b5050565b336001600160a01b037f000000000000000000000000000000000000000000000000000000000000000016146105935760405162461bcd60e51b815260206004820152602a60248201527f43616c6c6572206973206e6f742052657761726473446973747269627574696f6044820152691b8818dbdb9d1c9858dd60b21b60648201526084015b60405180910390fd5b600061059d6109a9565b6006556105a86108d0565b6005556001600160a01b038116156105ef576105c381610454565b6001600160a01b0382166000908152600b6020908152604080832093909355600654600a909152919020555b600154610627906001600160a01b03167f00000000000000000000000000000000000000000000000000000000000000003085610fd9565b60035442106106455761063d62093a808361185d565b600455610687565b6000426003546106559190611827565b9050600060045482610667919061183e565b905062093a80610677828661187f565b610681919061185d565b60045550505b6001546040516370a0823160e01b81523060048201526000916001600160a01b0316906370a0823190602401602060405180830381865afa1580156106d0573d6000803e3d6000fd5b505050506040513d601f19601f820116820180604052508101906106f49190611897565b905061070362093a808261185d565b60045411156107545760405162461bcd60e51b815260206004820152601860248201527f50726f76696465642072657761726420746f6f20686967680000000000000000604482015260640161058a565b4260058190556107689062093a809061187f565b6003556040518381527fde88a922e0d3b88b24e9623efeb464919c6bf9f66857a65e2bfcf2ce87a9433d9060200160405180910390a1506001600160a01b038116156104ff576104ff81610939565b600260005414156107da5760405162461bcd60e51b815260040161058a906118b0565b6002600055336107e86109a9565b6006556107f36108d0565b6005556001600160a01b0381161561083a5761080e81610454565b6001600160a01b0382166000908152600b6020908152604080832093909355600654600a909152919020555b336000908152600b602052604090205480156108af57336000818152600b6020526040812055600154610879916001600160a01b03909116908361104a565b60405181815233907fe2403640ba68fed3a2f88b7557551d1993f84b99bb10ff833f0cf8db0c5e04869060200160405180910390a25b506001600160a01b038116156108c8576108c881610939565b506001600055565b60006104e44260035461107f565b336000908152600e60205260409020546108f790610c8a565b565b6000806002600054141561091f5760405162461bcd60e51b815260040161058a906118b0565b600260005561092c611097565b9150915060016000559091565b6001600160a01b0381166000908152600f6020526040902054600d54610960908290611827565b600d5561096c82610a18565b6001600160a01b0383166000908152600f60205260409020819055600d5490915061099890829061187f565b600d555050565b6104f28133610e1b565b6000600d54600014156109bc5750600090565b600c546109ca575060065490565b600d546004546005546109db6108d0565b6109e59190611827565b6109ef919061183e565b610a0190670de0b6b3a764000061183e565b610a0b919061185d565b6006546104e4919061187f565b600254604080516318160ddd60e01b815290516000926001600160a01b0316916318160ddd9160048083019260209291908290030181865afa158015610a62573d6000803e3d6000fd5b505050506040513d601f19601f82011682018060405250810190610a869190611897565b610a9257506000919050565b6001600160a01b0382166000908152600e6020526040812054906064610ab983602861183e565b610ac3919061185d565b905060006064600260009054906101000a90046001600160a01b03166001600160a01b03166318160ddd6040518163ffffffff1660e01b8152600401602060405180830381865afa158015610b1c573d6000803e3d6000fd5b505050506040513d601f19601f82011682018060405250810190610b409190611897565b6002546040516370a0823160e01b81526001600160a01b038981166004830152909116906370a0823190602401602060405180830381865afa158015610b8a573d6000803e3d6000fd5b505050506040513d601f19601f82011682018060405250810190610bae9190611897565b600c54610bbb919061183e565b610bc5919061185d565b610bd090603c61183e565b610bda919061185d565b9050610bef610be9828461187f565b8461107f565b95945050505050565b6040516370a0823160e01b81523360048201526108f7907f00000000000000000000000000000000000000000000000000000000000000006001600160a01b0316906370a0823190602401602060405180830381865afa158015610c60573d6000803e3d6000fd5b505050506040513d601f19601f82011682018060405250810190610c849190611897565b33610e1b565b60026000541415610cad5760405162461bcd60e51b815260040161058a906118b0565b600260005533610cbb6109a9565b600655610cc66108d0565b6005556001600160a01b03811615610d0d57610ce181610454565b6001600160a01b0382166000908152600b6020908152604080832093909355600654600a909152919020555b60008211610d515760405162461bcd60e51b8152602060048201526011602482015270043616e6e6f74207769746864726177203607c1b604482015260640161058a565b81600c54610d5f9190611827565b600c55336000908152600e6020526040902054610d7d908390611827565b336000818152600e6020526040902091909155610dc5907f00000000000000000000000000000000000000000000000000000000000000006001600160a01b0316908461104a565b60405182815233907f7084f5476618d8e60b11ef0d7d3f06914655adb8793e28ff7f018d4c76d505d59060200160405180910390a26001600160a01b03811615610e1257610e1281610939565b50506001600055565b60026000541415610e3e5760405162461bcd60e51b815260040161058a906118b0565b600260005580610e4c6109a9565b600655610e576108d0565b6005556001600160a01b03811615610e9e57610e7281610454565b6001600160a01b0382166000908152600b6020908152604080832093909355600654600a909152919020555b60008311610eee5760405162461bcd60e51b815260206004820152601e60248201527f6465706f736974284761756765293a2063616e6e6f74207374616b6520300000604482015260640161058a565b6001600160a01b0382166000908152600e60205260409020548390610f1490829061187f565b6001600160a01b0384166000908152600e6020526040902055600c54610f3b90829061187f565b600c55610f736001600160a01b037f000000000000000000000000000000000000000000000000000000000000000016843087610fd9565b826001600160a01b03167f9e71bc8eea02a63969f509818f2dafb9254532904319f9dbda79b67bd34a5f3d82604051610fae91815260200190565b60405180910390a2506001600160a01b03811615610fcf57610fcf81610939565b5050600160005550565b6040516001600160a01b03808516602483015283166044820152606481018290526110449085906323b872dd60e01b906084015b60408051601f198184030181529190526020810180516001600160e01b03166001600160e01b0319909316929092179091526114be565b50505050565b6040516001600160a01b03831660248201526044810182905261107a90849063a9059cbb60e01b9060640161100d565b505050565b600081831061108e5781611090565b825b9392505050565b6000807f00000000000000000000000000000000000000000000000000000000000000006001600160a01b031663d294f0936040518163ffffffff1660e01b815260040160408051808303816000875af11580156110f9573d6000803e3d6000fd5b505050506040513d601f19601f8201168201806040525081019061111d91906118e7565b600954604051635462ecad60e11b81523060048201529294509092506000916001600160a01b039091169063a8c5d95a906024016020604051808303816000875af1158015611170573d6000803e3d6000fd5b505050506040513d601f19601f82011682018060405250810190611194919061190b565b905060008311806111a55750600082115b156114b9576000836007546111ba919061187f565b90506000836008546111cc919061187f565b90506000807f00000000000000000000000000000000000000000000000000000000000000006001600160a01b0316639d63848a6040518163ffffffff1660e01b815260040160408051808303816000875af1158015611230573d6000803e3d6000fd5b505050506040513d601f19601f820116820180604052508101906112549190611928565b604051634cde602960e11b81526001600160a01b038084166004830152929450909250908616906399bcc05290602401602060405180830381865afa1580156112a1573d6000803e3d6000fd5b505050506040513d601f19601f820116820180604052508101906112c59190611897565b841180156112df575060006112dd62093a808661185d565b115b156113645760006007556112fd6001600160a01b0383168686611645565b60405163b66503cf60e01b81526001600160a01b0383811660048301526024820186905286169063b66503cf90604401600060405180830381600087803b15801561134757600080fd5b505af115801561135b573d6000803e3d6000fd5b5050505061136a565b60078490555b604051634cde602960e11b81526001600160a01b0382811660048301528616906399bcc05290602401602060405180830381865afa1580156113b0573d6000803e3d6000fd5b505050506040513d601f19601f820116820180604052508101906113d49190611897565b831180156113ee575060006113ec62093a808561185d565b115b1561147357600060085561140c6001600160a01b0382168685611645565b60405163b66503cf60e01b81526001600160a01b0382811660048301526024820185905286169063b66503cf90604401600060405180830381600087803b15801561145657600080fd5b505af115801561146a573d6000803e3d6000fd5b50505050611479565b60088390555b604080518881526020810188905233917fd9b982883d6f1d237dbf653d6baf27ba3264fa2a489737131b3cb7aef4fe40de910160405180910390a2505050505b509091565b6114d0826001600160a01b031661175a565b61151c5760405162461bcd60e51b815260206004820152601f60248201527f5361666545524332303a2063616c6c20746f206e6f6e2d636f6e747261637400604482015260640161058a565b600080836001600160a01b0316836040516115379190611957565b6000604051808303816000865af19150503d8060008114611574576040519150601f19603f3d011682016040523d82523d6000602084013e611579565b606091505b5091509150816115cb5760405162461bcd60e51b815260206004820181905260248201527f5361666545524332303a206c6f772d6c6576656c2063616c6c206661696c6564604482015260640161058a565b80511561104457808060200190518101906115e69190611992565b6110445760405162461bcd60e51b815260206004820152602a60248201527f5361666545524332303a204552433230206f7065726174696f6e20646964206e6044820152691bdd081cdd58d8d9595960b21b606482015260840161058a565b8015806116bf5750604051636eb1769f60e11b81523060048201526001600160a01b03838116602483015284169063dd62ed3e90604401602060405180830381865afa158015611699573d6000803e3d6000fd5b505050506040513d601f19601f820116820180604052508101906116bd9190611897565b155b61172a5760405162461bcd60e51b815260206004820152603660248201527f5361666545524332303a20617070726f76652066726f6d206e6f6e2d7a65726f60448201527520746f206e6f6e2d7a65726f20616c6c6f77616e636560501b606482015260840161058a565b6040516001600160a01b03831660248201526044810182905261107a90849063095ea7b360e01b9060640161100d565b6000813f7fc5d2460186f7233c927e7db2dcc703c0e500b653ca82273b7bfad8045d85a470811580159061178e5750808214155b949350505050565b6001600160a01b03811681146104f257600080fd5b6000602082840312156117bd57600080fd5b813561109081611796565b6000602082840312156117da57600080fd5b5035919050565b600080604083850312156117f457600080fd5b82359150602083013561180681611796565b809150509250929050565b634e487b7160e01b600052601160045260246000fd5b60008282101561183957611839611811565b500390565b600081600019048311821515161561185857611858611811565b500290565b60008261187a57634e487b7160e01b600052601260045260246000fd5b500490565b6000821982111561189257611892611811565b500190565b6000602082840312156118a957600080fd5b5051919050565b6020808252601f908201527f5265656e7472616e637947756172643a207265656e7472616e742063616c6c00604082015260600190565b600080604083850312156118fa57600080fd5b505080516020909101519092909150565b60006020828403121561191d57600080fd5b815161109081611796565b6000806040838503121561193b57600080fd5b825161194681611796565b602084015190925061180681611796565b6000825160005b81811015611978576020818601810151858301520161195e565b81811115611987576000828501525b509190910192915050565b6000602082840312156119a457600080fd5b8151801515811461109057600080fdfea2646970667358221220ad5925d7d6ec88d807583fc62fd2e0966c338d108a66d77a5ae2e9d2f63f7b7b64736f6c634300080b0033a264697066735822122076a245e8c1602eb5623be4503d887310e376a02a91733f665840eafdc016a32964736f6c634300080b00336080604052670de0b6b3a764000060005534801561001c57600080fd5b50336000818152600260209081526040808320670de0b6b3a76400009081905590519081527fddf252ad1be2c89b69c2b068fc378daa952ba7f163c4a11628f55a4df523b3ef910160405180910390a36106368061007b6000396000f3fe608060405234801561001057600080fd5b50600436106100935760003560e01c8063313ce56711610066578063313ce5671461012957806370a082311461014357806395d89b411461016c578063a9059cbb14610194578063dd62ed3e146101a757600080fd5b806306fdde0314610098578063095ea7b3146100dc57806318160ddd146100ff57806323b872dd14610116575b600080fd5b6100c66040518060400160405280600f81526020016e13585cdd195c881a5b94d412549255608a1b81525081565b6040516100d3919061048f565b60405180910390f35b6100ef6100ea366004610500565b6101e0565b60405190151581526020016100d3565b61010860005481565b6040519081526020016100d3565b6100ef61012436600461052a565b61024c565b610131601281565b60405160ff90911681526020016100d3565b610108610151366004610566565b6001600160a01b031660009081526002602052604090205490565b6100c6604051806040016040528060098152602001681b5a5b94d41254925560ba1b81525081565b6100ef6101a2366004610500565b610313565b6101086101b5366004610588565b6001600160a01b03918216600090815260016020908152604080832093909416825291909152205490565b3360008181526001602090815260408083206001600160a01b038716808552925280832085905551919290917f8c5be1e5ebec7d5bd14f71427d1e84f3dd0314c0f7b2291e5b200ac8c7c3b9259061023b9086815260200190565b60405180910390a350600192915050565b6001600160a01b03831660008181526001602090815260408083203380855292528220549192909190821480159061028657506000198114155b156102fc57600061029785836105d1565b6001600160a01b038881166000818152600160209081526040808320948916808452948252918290208590559051848152939450919290917f8c5be1e5ebec7d5bd14f71427d1e84f3dd0314c0f7b2291e5b200ac8c7c3b925910160405180910390a3505b610307868686610329565b50600195945050505050565b6000610320338484610329565b50600192915050565b6001600160a01b0383166103845760405162461bcd60e51b815260206004820152601d60248201527f5f7472616e73666572546f6b656e733a207a65726f206164647265737300000060448201526064015b60405180910390fd5b6001600160a01b0382166103da5760405162461bcd60e51b815260206004820152601d60248201527f5f7472616e73666572546f6b656e733a207a65726f2061646472657373000000604482015260640161037b565b6001600160a01b0383166000908152600260205260409020546103fe9082906105d1565b6001600160a01b03808516600090815260026020526040808220939093559084168152205461042e9082906105e8565b6001600160a01b0380841660008181526002602052604090819020939093559151908516907fddf252ad1be2c89b69c2b068fc378daa952ba7f163c4a11628f55a4df523b3ef906104829085815260200190565b60405180910390a3505050565b600060208083528351808285015260005b818110156104bc578581018301518582016040015282016104a0565b818111156104ce576000604083870101525b50601f01601f1916929092016040019392505050565b80356001600160a01b03811681146104fb57600080fd5b919050565b6000806040838503121561051357600080fd5b61051c836104e4565b946020939093013593505050565b60008060006060848603121561053f57600080fd5b610548846104e4565b9250610556602085016104e4565b9150604084013590509250925092565b60006020828403121561057857600080fd5b610581826104e4565b9392505050565b6000806040838503121561059b57600080fd5b6105a4836104e4565b91506105b2602084016104e4565b90509250929050565b634e487b7160e01b600052601160045260246000fd5b6000828210156105e3576105e36105bb565b500390565b600082198211156105fb576105fb6105bb565b50019056fea26469706673582212209c889f3e2983d08902e78fd0b3946b2496136f58c10f37e9e4dadeb9f6c928e464736f6c634300080b0033","opcodes":"PUSH1 0xC0 PUSH1 0x40 MSTORE PUSH9 0x56BC75E2D63100000 PUSH1 0x7 SSTORE PUSH10 0x152D02C7E14AF6800000 PUSH1 0xA0 MSTORE PUSH1 0x0 NOT PUSH1 0x9 SSTORE PUSH3 0x93A80 PUSH1 0xB DUP2 SWAP1 SSTORE PUSH1 0xC SSTORE PUSH1 0x16 DUP1 SLOAD PUSH1 0xFF PUSH1 0xA0 SHL NOT AND SWAP1 SSTORE CALLVALUE DUP1 ISZERO PUSH3 0x4B JUMPI PUSH1 0x0 DUP1 REVERT JUMPDEST POP PUSH1 0x40 MLOAD PUSH3 0x5807 CODESIZE SUB DUP1 PUSH3 0x5807 DUP4 CODECOPY DUP2 ADD PUSH1 0x40 DUP2 SWAP1 MSTORE PUSH3 0x6E SWAP2 PUSH3 0x16D JUMP JUMPDEST PUSH1 0x1 PUSH1 0x2 SSTORE PUSH1 0x3 DUP1 SLOAD PUSH1 0x1 PUSH1 0x1 PUSH1 0xA0 SHL SUB DUP1 DUP10 AND PUSH1 0x1 PUSH1 0x1 PUSH1 0xA0 SHL SUB NOT SWAP3 DUP4 AND OR SWAP1 SWAP3 SSTORE PUSH1 0x5 DUP1 SLOAD DUP9 DUP5 AND SWAP1 DUP4 AND OR SWAP1 SSTORE PUSH1 0x4 DUP1 SLOAD SWAP3 DUP8 AND SWAP3 SWAP1 SWAP2 AND SWAP2 SWAP1 SWAP2 OR SWAP1 SSTORE PUSH1 0x40 MLOAD PUSH3 0xBE SWAP1 PUSH3 0x142 JUMP JUMPDEST PUSH1 0x40 MLOAD DUP1 SWAP2 SUB SWAP1 PUSH1 0x0 CREATE DUP1 ISZERO DUP1 ISZERO PUSH3 0xDB JUMPI RETURNDATASIZE PUSH1 0x0 DUP1 RETURNDATACOPY RETURNDATASIZE PUSH1 0x0 REVERT JUMPDEST POP PUSH1 0x1 PUSH1 0x1 PUSH1 0xA0 SHL SUB SWAP1 DUP2 AND PUSH1 0x80 MSTORE PUSH1 0x0 DUP1 SLOAD CALLER PUSH1 0x1 PUSH1 0x1 PUSH1 0xA0 SHL SUB NOT SWAP2 DUP3 AND DUP2 OR SWAP1 SWAP3 SSTORE PUSH1 0x6 DUP1 SLOAD DUP3 AND SWAP1 SWAP3 OR SWAP1 SWAP2 SSTORE PUSH1 0x18 DUP1 SLOAD DUP3 AND SWAP6 DUP4 AND SWAP6 SWAP1 SWAP6 OR SWAP1 SWAP5 SSTORE PUSH1 0x8 DUP1 SLOAD DUP6 AND SWAP4 DUP3 AND SWAP4 SWAP1 SWAP4 OR SWAP1 SWAP3 SSTORE PUSH1 0x16 DUP1 SLOAD SWAP1 SWAP4 AND SWAP2 AND OR SWAP1 SSTORE POP PUSH3 0x1EE SWAP2 POP POP JUMP JUMPDEST PUSH2 0x6B1 DUP1 PUSH3 0x5156 DUP4 CODECOPY ADD SWAP1 JUMP JUMPDEST DUP1 MLOAD PUSH1 0x1 PUSH1 0x1 PUSH1 0xA0 SHL SUB DUP2 AND DUP2 EQ PUSH3 0x168 JUMPI PUSH1 0x0 DUP1 REVERT JUMPDEST SWAP2 SWAP1 POP JUMP JUMPDEST PUSH1 0x0 DUP1 PUSH1 0x0 DUP1 PUSH1 0x0 DUP1 PUSH1 0xC0 DUP8 DUP10 SUB SLT ISZERO PUSH3 0x187 JUMPI PUSH1 0x0 DUP1 REVERT JUMPDEST PUSH3 0x192 DUP8 PUSH3 0x150 JUMP JUMPDEST SWAP6 POP PUSH3 0x1A2 PUSH1 0x20 DUP9 ADD PUSH3 0x150 JUMP JUMPDEST SWAP5 POP PUSH3 0x1B2 PUSH1 0x40 DUP9 ADD PUSH3 0x150 JUMP JUMPDEST SWAP4 POP PUSH3 0x1C2 PUSH1 0x60 DUP9 ADD PUSH3 0x150 JUMP JUMPDEST SWAP3 POP PUSH3 0x1D2 PUSH1 0x80 DUP9 ADD PUSH3 0x150 JUMP JUMPDEST SWAP2 POP PUSH3 0x1E2 PUSH1 0xA0 DUP9 ADD PUSH3 0x150 JUMP JUMPDEST SWAP1 POP SWAP3 SWAP6 POP SWAP3 SWAP6 POP SWAP3 SWAP6 JUMP JUMPDEST PUSH1 0x80 MLOAD PUSH1 0xA0 MLOAD PUSH2 0x4F3B PUSH3 0x21B PUSH1 0x0 CODECOPY PUSH1 0x0 PUSH2 0x438 ADD MSTORE PUSH1 0x0 DUP2 DUP2 PUSH2 0x636 ADD MSTORE PUSH2 0x227E ADD MSTORE PUSH2 0x4F3B PUSH1 0x0 RETURN INVALID PUSH1 0x80 PUSH1 0x40 MSTORE CALLVALUE DUP1 ISZERO PUSH3 0x11 JUMPI PUSH1 0x0 DUP1 REVERT JUMPDEST POP PUSH1 0x4 CALLDATASIZE LT PUSH3 0x3C0 JUMPI PUSH1 0x0 CALLDATALOAD PUSH1 0xE0 SHR DUP1 PUSH4 0x96C82E57 GT PUSH3 0x1F9 JUMPI DUP1 PUSH4 0xD0E30DB0 GT PUSH3 0x119 JUMPI DUP1 PUSH4 0xF39C38A0 GT PUSH3 0xAF JUMPI DUP1 PUSH4 0xF851A440 GT PUSH3 0x86 JUMPI DUP1 PUSH4 0xF851A440 EQ PUSH3 0x8E3 JUMPI DUP1 PUSH4 0xF96DAE0A EQ PUSH3 0x8F7 JUMPI DUP1 PUSH4 0xF9B2FE27 EQ PUSH3 0x90B JUMPI DUP1 PUSH4 0xFF2AF408 EQ PUSH3 0x915 JUMPI PUSH1 0x0 DUP1 REVERT JUMPDEST DUP1 PUSH4 0xF39C38A0 EQ PUSH3 0x8B1 JUMPI DUP1 PUSH4 0xF6D12B16 EQ PUSH3 0x8C5 JUMPI DUP1 PUSH4 0xF7C618C1 EQ PUSH3 0x8CF JUMPI PUSH1 0x0 DUP1 REVERT JUMPDEST DUP1 PUSH4 0xE96A6BDA GT PUSH3 0xF0 JUMPI DUP1 PUSH4 0xE96A6BDA EQ PUSH3 0x856 JUMPI DUP1 PUSH4 0xEB4A78E0 EQ PUSH3 0x87C JUMPI DUP1 PUSH4 0xF1068454 EQ PUSH3 0x890 JUMPI DUP1 PUSH4 0xF2A1A8ED EQ PUSH3 0x89A JUMPI PUSH1 0x0 DUP1 REVERT JUMPDEST DUP1 PUSH4 0xD0E30DB0 EQ PUSH3 0x82E JUMPI DUP1 PUSH4 0xD826F88F EQ PUSH3 0x838 JUMPI DUP1 PUSH4 0xE14F870D EQ PUSH3 0x842 JUMPI PUSH1 0x0 DUP1 REVERT JUMPDEST DUP1 PUSH4 0xB1C6F0E9 GT PUSH3 0x18F JUMPI DUP1 PUSH4 0xB9173EC4 GT PUSH3 0x166 JUMPI DUP1 PUSH4 0xB9173EC4 EQ PUSH3 0x7A6 JUMPI DUP1 PUSH4 0xB9A09FD5 EQ PUSH3 0x7BD JUMPI DUP1 PUSH4 0xC84AFDA0 EQ PUSH3 0x7E9 JUMPI DUP1 PUSH4 0xCAD1B906 EQ PUSH3 0x800 JUMPI PUSH1 0x0 DUP1 REVERT JUMPDEST DUP1 PUSH4 0xB1C6F0E9 EQ PUSH3 0x749 JUMPI DUP1 PUSH4 0xB23E3014 EQ PUSH3 0x778 JUMPI DUP1 PUSH4 0xB70AED71 EQ PUSH3 0x78F JUMPI PUSH1 0x0 DUP1 REVERT JUMPDEST DUP1 PUSH4 0xA7CAC846 GT PUSH3 0x1D0 JUMPI DUP1 PUSH4 0xA7CAC846 EQ PUSH3 0x6CC JUMPI DUP1 PUSH4 0xA8C5D95A EQ PUSH3 0x6EF JUMPI DUP1 PUSH4 0xAB033EA9 EQ PUSH3 0x71B JUMPI DUP1 PUSH4 0xB1A997AC EQ PUSH3 0x732 JUMPI PUSH1 0x0 DUP1 REVERT JUMPDEST DUP1 PUSH4 0x96C82E57 EQ PUSH3 0x692 JUMPI DUP1 PUSH4 0x9D63848A EQ PUSH3 0x69C JUMPI DUP1 PUSH4 0x9DA882AC EQ PUSH3 0x6B5 JUMPI PUSH1 0x0 DUP1 REVERT JUMPDEST DUP1 PUSH4 0x4C904F2C GT PUSH3 0x2E5 JUMPI DUP1 PUSH4 0x704B6C02 GT PUSH3 0x27B JUMPI DUP1 PUSH4 0x82836391 GT PUSH3 0x252 JUMPI DUP1 PUSH4 0x82836391 EQ PUSH3 0x626 JUMPI DUP1 PUSH4 0x82BFEFC8 EQ PUSH3 0x630 JUMPI DUP1 PUSH4 0x8D060519 EQ PUSH3 0x658 JUMPI DUP1 PUSH4 0x924D9F77 EQ PUSH3 0x66F JUMPI PUSH1 0x0 DUP1 REVERT JUMPDEST DUP1 PUSH4 0x704B6C02 EQ PUSH3 0x5EE JUMPI DUP1 PUSH4 0x7625391A EQ PUSH3 0x605 JUMPI DUP1 PUSH4 0x7B80889B EQ PUSH3 0x61C JUMPI PUSH1 0x0 DUP1 REVERT JUMPDEST DUP1 PUSH4 0x61C533B4 GT PUSH3 0x2BC JUMPI DUP1 PUSH4 0x61C533B4 EQ PUSH3 0x593 JUMPI DUP1 PUSH4 0x6848C2BD EQ PUSH3 0x59D JUMPI DUP1 PUSH4 0x6ACCC8CF EQ PUSH3 0x5B4 JUMPI DUP1 PUSH4 0x6F816A20 EQ PUSH3 0x5D7 JUMPI PUSH1 0x0 DUP1 REVERT JUMPDEST DUP1 PUSH4 0x4C904F2C EQ PUSH3 0x554 JUMPI DUP1 PUSH4 0x5AA6E675 EQ PUSH3 0x568 JUMPI DUP1 PUSH4 0x60C73BF2 EQ PUSH3 0x57C JUMPI PUSH1 0x0 DUP1 REVERT JUMPDEST DUP1 PUSH4 0x24EC7590 GT PUSH3 0x35B JUMPI DUP1 PUSH4 0x2951005C GT PUSH3 0x332 JUMPI DUP1 PUSH4 0x2951005C EQ PUSH3 0x4C8 JUMPI DUP1 PUSH4 0x4668E619 EQ PUSH3 0x4EE JUMPI DUP1 PUSH4 0x471AEDC2 EQ PUSH3 0x536 JUMPI DUP1 PUSH4 0x47D67339 EQ PUSH3 0x54A JUMPI PUSH1 0x0 DUP1 REVERT JUMPDEST DUP1 PUSH4 0x24EC7590 EQ PUSH3 0x4AA JUMPI DUP1 PUSH4 0x28B02A1D EQ PUSH3 0x4B4 JUMPI DUP1 PUSH4 0x292FC979 EQ PUSH3 0x4BE JUMPI PUSH1 0x0 DUP1 REVERT JUMPDEST DUP1 PUSH4 0x1BAAAFFE GT PUSH3 0x39C JUMPI DUP1 PUSH4 0x1BAAAFFE EQ PUSH3 0x45A JUMPI DUP1 PUSH4 0x1F7B6D32 EQ PUSH3 0x480 JUMPI DUP1 PUSH4 0x1F850716 EQ PUSH3 0x489 JUMPI DUP1 PUSH4 0x238EFCBC EQ PUSH3 0x49E JUMPI PUSH1 0x0 DUP1 REVERT JUMPDEST DUP1 PUSH3 0x2F8DE4 EQ PUSH3 0x3C5 JUMPI DUP1 PUSH4 0x2EBA094 EQ PUSH3 0x3FB JUMPI DUP1 PUSH4 0x13976FC8 EQ PUSH3 0x432 JUMPI JUMPDEST PUSH1 0x0 DUP1 REVERT JUMPDEST PUSH3 0x3E8 PUSH3 0x3D6 CALLDATASIZE PUSH1 0x4 PUSH3 0x2E6A JUMP JUMPDEST PUSH1 0x1F PUSH1 0x20 MSTORE PUSH1 0x0 SWAP1 DUP2 MSTORE PUSH1 0x40 SWAP1 KECCAK256 SLOAD DUP2 JUMP JUMPDEST PUSH1 0x40 MLOAD SWAP1 DUP2 MSTORE PUSH1 0x20 ADD JUMPDEST PUSH1 0x40 MLOAD DUP1 SWAP2 SUB SWAP1 RETURN JUMPDEST PUSH3 0x421 PUSH3 0x40C CALLDATASIZE PUSH1 0x4 PUSH3 0x2E6A JUMP JUMPDEST PUSH1 0x15 PUSH1 0x20 MSTORE PUSH1 0x0 SWAP1 DUP2 MSTORE PUSH1 0x40 SWAP1 KECCAK256 SLOAD PUSH1 0xFF AND DUP2 JUMP JUMPDEST PUSH1 0x40 MLOAD SWAP1 ISZERO ISZERO DUP2 MSTORE PUSH1 0x20 ADD PUSH3 0x3F2 JUMP JUMPDEST PUSH3 0x3E8 PUSH32 0x0 DUP2 JUMP JUMPDEST PUSH3 0x421 PUSH3 0x46B CALLDATASIZE PUSH1 0x4 PUSH3 0x2E6A JUMP JUMPDEST PUSH1 0x14 PUSH1 0x20 MSTORE PUSH1 0x0 SWAP1 DUP2 MSTORE PUSH1 0x40 SWAP1 KECCAK256 SLOAD PUSH1 0xFF AND DUP2 JUMP JUMPDEST PUSH1 0x17 SLOAD PUSH3 0x3E8 JUMP JUMPDEST PUSH1 0x16 SLOAD PUSH3 0x421 SWAP1 PUSH1 0x1 PUSH1 0xA0 SHL SWAP1 DIV PUSH1 0xFF AND DUP2 JUMP JUMPDEST PUSH3 0x4A8 PUSH3 0x92C JUMP JUMPDEST STOP JUMPDEST PUSH3 0x3E8 PUSH1 0x7 SLOAD DUP2 JUMP JUMPDEST PUSH3 0x3E8 PUSH1 0xF SLOAD DUP2 JUMP JUMPDEST PUSH3 0x3E8 PUSH1 0xB SLOAD DUP2 JUMP JUMPDEST PUSH3 0x421 PUSH3 0x4D9 CALLDATASIZE PUSH1 0x4 PUSH3 0x2E6A JUMP JUMPDEST PUSH1 0x1A PUSH1 0x20 MSTORE PUSH1 0x0 SWAP1 DUP2 MSTORE PUSH1 0x40 SWAP1 KECCAK256 SLOAD PUSH1 0xFF AND DUP2 JUMP JUMPDEST PUSH3 0x51D PUSH3 0x4FF CALLDATASIZE PUSH1 0x4 PUSH3 0x2E6A JUMP JUMPDEST PUSH1 0x1 PUSH1 0x1 PUSH1 0xA0 SHL SUB SWAP1 DUP2 AND PUSH1 0x0 SWAP1 DUP2 MSTORE PUSH1 0x1B PUSH1 0x20 MSTORE PUSH1 0x40 SWAP1 KECCAK256 SLOAD AND SWAP1 JUMP JUMPDEST PUSH1 0x40 MLOAD PUSH1 0x1 PUSH1 0x1 PUSH1 0xA0 SHL SUB SWAP1 SWAP2 AND DUP2 MSTORE PUSH1 0x20 ADD PUSH3 0x3F2 JUMP JUMPDEST PUSH1 0x3 SLOAD PUSH3 0x51D SWAP1 PUSH1 0x1 PUSH1 0x1 PUSH1 0xA0 SHL SUB AND DUP2 JUMP JUMPDEST PUSH3 0x3E8 PUSH1 0xD SLOAD DUP2 JUMP JUMPDEST PUSH1 0x18 SLOAD PUSH3 0x51D SWAP1 PUSH1 0x1 PUSH1 0x1 PUSH1 0xA0 SHL SUB AND DUP2 JUMP JUMPDEST PUSH1 0x0 SLOAD PUSH3 0x51D SWAP1 PUSH1 0x1 PUSH1 0x1 PUSH1 0xA0 SHL SUB AND DUP2 JUMP JUMPDEST PUSH3 0x4A8 PUSH3 0x58D CALLDATASIZE PUSH1 0x4 PUSH3 0x2E6A JUMP JUMPDEST PUSH3 0x9B0 JUMP JUMPDEST PUSH3 0x3E8 PUSH1 0x11 SLOAD DUP2 JUMP JUMPDEST PUSH3 0x4A8 PUSH3 0x5AE CALLDATASIZE PUSH1 0x4 PUSH3 0x2E6A JUMP JUMPDEST PUSH3 0xA58 JUMP JUMPDEST PUSH3 0x3E8 PUSH3 0x5C5 CALLDATASIZE PUSH1 0x4 PUSH3 0x2E6A JUMP JUMPDEST PUSH1 0xE PUSH1 0x20 MSTORE PUSH1 0x0 SWAP1 DUP2 MSTORE PUSH1 0x40 SWAP1 KECCAK256 SLOAD DUP2 JUMP JUMPDEST PUSH3 0x4A8 PUSH3 0x5E8 CALLDATASIZE PUSH1 0x4 PUSH3 0x2EE0 JUMP JUMPDEST PUSH3 0xBAD JUMP JUMPDEST PUSH3 0x4A8 PUSH3 0x5FF CALLDATASIZE PUSH1 0x4 PUSH3 0x2E6A JUMP JUMPDEST PUSH3 0xCB5 JUMP JUMPDEST PUSH3 0x4A8 PUSH3 0x616 CALLDATASIZE PUSH1 0x4 PUSH3 0x2F53 JUMP JUMPDEST PUSH3 0xD1C JUMP JUMPDEST PUSH3 0x3E8 PUSH1 0x10 SLOAD DUP2 JUMP JUMPDEST PUSH3 0x4A8 PUSH3 0xFAE JUMP JUMPDEST PUSH3 0x51D PUSH32 0x0 DUP2 JUMP JUMPDEST PUSH3 0x4A8 PUSH3 0x669 CALLDATASIZE PUSH1 0x4 PUSH3 0x2F76 JUMP JUMPDEST PUSH3 0x1423 JUMP JUMPDEST PUSH3 0x3E8 PUSH3 0x680 CALLDATASIZE PUSH1 0x4 PUSH3 0x2E6A JUMP JUMPDEST PUSH1 0x12 PUSH1 0x20 MSTORE PUSH1 0x0 SWAP1 DUP2 MSTORE PUSH1 0x40 SWAP1 KECCAK256 SLOAD DUP2 JUMP JUMPDEST PUSH3 0x3E8 PUSH1 0xA SLOAD DUP2 JUMP JUMPDEST PUSH3 0x6A6 PUSH3 0x146D JUMP JUMPDEST PUSH1 0x40 MLOAD PUSH3 0x3F2 SWAP2 SWAP1 PUSH3 0x2F90 JUMP JUMPDEST PUSH3 0x51D PUSH3 0x6C6 CALLDATASIZE PUSH1 0x4 PUSH3 0x2E6A JUMP JUMPDEST PUSH3 0x14D1 JUMP JUMPDEST PUSH3 0x3E8 PUSH3 0x6DD CALLDATASIZE PUSH1 0x4 PUSH3 0x2E6A JUMP JUMPDEST PUSH1 0x1C PUSH1 0x20 MSTORE PUSH1 0x0 SWAP1 DUP2 MSTORE PUSH1 0x40 SWAP1 KECCAK256 SLOAD DUP2 JUMP JUMPDEST PUSH3 0x51D PUSH3 0x700 CALLDATASIZE PUSH1 0x4 PUSH3 0x2E6A JUMP JUMPDEST PUSH1 0x1B PUSH1 0x20 MSTORE PUSH1 0x0 SWAP1 DUP2 MSTORE PUSH1 0x40 SWAP1 KECCAK256 SLOAD PUSH1 0x1 PUSH1 0x1 PUSH1 0xA0 SHL SUB AND DUP2 JUMP JUMPDEST PUSH3 0x4A8 PUSH3 0x72C CALLDATASIZE PUSH1 0x4 PUSH3 0x2E6A JUMP JUMPDEST PUSH3 0x1ACC JUMP JUMPDEST PUSH3 0x4A8 PUSH3 0x743 CALLDATASIZE PUSH1 0x4 PUSH3 0x2E6A JUMP JUMPDEST PUSH3 0x1B40 JUMP JUMPDEST PUSH3 0x51D PUSH3 0x75A CALLDATASIZE PUSH1 0x4 PUSH3 0x2E6A JUMP JUMPDEST PUSH1 0x1 PUSH1 0x1 PUSH1 0xA0 SHL SUB SWAP1 DUP2 AND PUSH1 0x0 SWAP1 DUP2 MSTORE PUSH1 0x19 PUSH1 0x20 MSTORE PUSH1 0x40 SWAP1 KECCAK256 SLOAD AND SWAP1 JUMP JUMPDEST PUSH3 0x4A8 PUSH3 0x789 CALLDATASIZE PUSH1 0x4 PUSH3 0x2FEE JUMP JUMPDEST PUSH3 0x1D51 JUMP JUMPDEST PUSH3 0x4A8 PUSH3 0x7A0 CALLDATASIZE PUSH1 0x4 PUSH3 0x2FEE JUMP JUMPDEST PUSH3 0x1DBF JUMP JUMPDEST PUSH3 0x4A8 PUSH3 0x7B7 CALLDATASIZE PUSH1 0x4 PUSH3 0x2E6A JUMP JUMPDEST PUSH3 0x1E2D JUMP JUMPDEST PUSH3 0x51D PUSH3 0x7CE CALLDATASIZE PUSH1 0x4 PUSH3 0x2E6A JUMP JUMPDEST PUSH1 0x19 PUSH1 0x20 MSTORE PUSH1 0x0 SWAP1 DUP2 MSTORE PUSH1 0x40 SWAP1 KECCAK256 SLOAD PUSH1 0x1 PUSH1 0x1 PUSH1 0xA0 SHL SUB AND DUP2 JUMP JUMPDEST PUSH3 0x51D PUSH3 0x7FA CALLDATASIZE PUSH1 0x4 PUSH3 0x302C JUMP JUMPDEST PUSH3 0x1F7C JUMP JUMPDEST PUSH3 0x3E8 PUSH3 0x811 CALLDATASIZE PUSH1 0x4 PUSH3 0x307E JUMP JUMPDEST PUSH1 0x1D PUSH1 0x20 SWAP1 DUP2 MSTORE PUSH1 0x0 SWAP3 DUP4 MSTORE PUSH1 0x40 DUP1 DUP5 KECCAK256 SWAP1 SWAP2 MSTORE SWAP1 DUP3 MSTORE SWAP1 KECCAK256 SLOAD DUP2 JUMP JUMPDEST PUSH3 0x4A8 PUSH3 0x221D JUMP JUMPDEST PUSH3 0x4A8 PUSH3 0x23A2 JUMP JUMPDEST PUSH1 0x16 SLOAD PUSH3 0x51D SWAP1 PUSH1 0x1 PUSH1 0x1 PUSH1 0xA0 SHL SUB AND DUP2 JUMP JUMPDEST PUSH3 0x421 PUSH3 0x867 CALLDATASIZE PUSH1 0x4 PUSH3 0x2E6A JUMP JUMPDEST PUSH1 0x13 PUSH1 0x20 MSTORE PUSH1 0x0 SWAP1 DUP2 MSTORE PUSH1 0x40 SWAP1 KECCAK256 SLOAD PUSH1 0xFF AND DUP2 JUMP JUMPDEST PUSH1 0x8 SLOAD PUSH3 0x51D SWAP1 PUSH1 0x1 PUSH1 0x1 PUSH1 0xA0 SHL SUB AND DUP2 JUMP JUMPDEST PUSH3 0x3E8 PUSH1 0x9 SLOAD DUP2 JUMP JUMPDEST PUSH3 0x51D PUSH3 0x8AB CALLDATASIZE PUSH1 0x4 PUSH3 0x30B1 JUMP JUMPDEST PUSH3 0x23AF JUMP JUMPDEST PUSH1 0x1 SLOAD PUSH3 0x51D SWAP1 PUSH1 0x1 PUSH1 0x1 PUSH1 0xA0 SHL SUB AND DUP2 JUMP JUMPDEST PUSH3 0x3E8 PUSH1 0xC SLOAD DUP2 JUMP JUMPDEST PUSH1 0x5 SLOAD PUSH3 0x51D SWAP1 PUSH1 0x1 PUSH1 0x1 PUSH1 0xA0 SHL SUB AND DUP2 JUMP JUMPDEST PUSH1 0x6 SLOAD PUSH3 0x51D SWAP1 PUSH1 0x1 PUSH1 0x1 PUSH1 0xA0 SHL SUB AND DUP2 JUMP JUMPDEST PUSH1 0x4 SLOAD PUSH3 0x51D SWAP1 PUSH1 0x1 PUSH1 0x1 PUSH1 0xA0 SHL SUB AND DUP2 JUMP JUMPDEST PUSH3 0x4A8 PUSH3 0x23E8 JUMP JUMPDEST PUSH3 0x4A8 PUSH3 0x926 CALLDATASIZE PUSH1 0x4 PUSH3 0x30F6 JUMP JUMPDEST PUSH3 0x247B JUMP JUMPDEST PUSH1 0x1 SLOAD PUSH1 0x1 PUSH1 0x1 PUSH1 0xA0 SHL SUB AND CALLER EQ PUSH3 0x98C JUMPI PUSH1 0x40 MLOAD PUSH3 0x461BCD PUSH1 0xE5 SHL DUP2 MSTORE PUSH1 0x20 PUSH1 0x4 DUP3 ADD MSTORE PUSH1 0x1D PUSH1 0x24 DUP3 ADD MSTORE PUSH32 0x616363657074476F7665726E616E63653A202170656E64696E67476F76000000 PUSH1 0x44 DUP3 ADD MSTORE PUSH1 0x64 ADD JUMPDEST PUSH1 0x40 MLOAD DUP1 SWAP2 SUB SWAP1 REVERT JUMPDEST PUSH1 0x1 SLOAD PUSH1 0x0 DUP1 SLOAD PUSH1 0x1 PUSH1 0x1 PUSH1 0xA0 SHL SUB NOT AND PUSH1 0x1 PUSH1 0x1 PUSH1 0xA0 SHL SUB SWAP1 SWAP3 AND SWAP2 SWAP1 SWAP2 OR SWAP1 SSTORE JUMP JUMPDEST PUSH1 0x0 SLOAD PUSH1 0x1 PUSH1 0x1 PUSH1 0xA0 SHL SUB AND CALLER EQ DUP1 PUSH3 0x9D4 JUMPI POP PUSH1 0x6 SLOAD PUSH1 0x1 PUSH1 0x1 PUSH1 0xA0 SHL SUB AND CALLER EQ JUMPDEST PUSH3 0xA36 JUMPI PUSH1 0x40 MLOAD PUSH3 0x461BCD PUSH1 0xE5 SHL DUP2 MSTORE PUSH1 0x20 PUSH1 0x4 DUP3 ADD MSTORE PUSH1 0x2B PUSH1 0x24 DUP3 ADD MSTORE PUSH32 0x7570646174654665654465737472696275746F723A207065726D697373696F6E PUSH1 0x44 DUP3 ADD MSTORE PUSH11 0x2069732064656E69656421 PUSH1 0xA8 SHL PUSH1 0x64 DUP3 ADD MSTORE PUSH1 0x84 ADD PUSH3 0x983 JUMP JUMPDEST PUSH1 0x18 DUP1 SLOAD PUSH1 0x1 PUSH1 0x1 PUSH1 0xA0 SHL SUB NOT AND PUSH1 0x1 PUSH1 0x1 PUSH1 0xA0 SHL SUB SWAP3 SWAP1 SWAP3 AND SWAP2 SWAP1 SWAP2 OR SWAP1 SSTORE JUMP JUMPDEST PUSH1 0x0 SLOAD PUSH1 0x1 PUSH1 0x1 PUSH1 0xA0 SHL SUB AND CALLER EQ DUP1 PUSH3 0xA7C JUMPI POP PUSH1 0x6 SLOAD PUSH1 0x1 PUSH1 0x1 PUSH1 0xA0 SHL SUB AND CALLER EQ JUMPDEST PUSH3 0xA9B JUMPI PUSH1 0x40 MLOAD PUSH3 0x461BCD PUSH1 0xE5 SHL DUP2 MSTORE PUSH1 0x4 ADD PUSH3 0x983 SWAP1 PUSH3 0x31DD JUMP JUMPDEST PUSH1 0x1 PUSH1 0x1 PUSH1 0xA0 SHL SUB DUP2 DUP2 AND PUSH1 0x0 SWAP1 DUP2 MSTORE PUSH1 0x19 PUSH1 0x20 MSTORE PUSH1 0x40 SWAP1 KECCAK256 SLOAD AND PUSH3 0xAF5 JUMPI PUSH1 0x40 MLOAD PUSH3 0x461BCD PUSH1 0xE5 SHL DUP2 MSTORE PUSH1 0x20 PUSH1 0x4 DUP3 ADD MSTORE PUSH1 0xE PUSH1 0x24 DUP3 ADD MSTORE PUSH14 0x191BD95CC81B9BDD08195E1A5CDD PUSH1 0x92 SHL PUSH1 0x44 DUP3 ADD MSTORE PUSH1 0x64 ADD PUSH3 0x983 JUMP JUMPDEST PUSH1 0x1 PUSH1 0x1 PUSH1 0xA0 SHL SUB DUP2 AND PUSH1 0x0 SWAP1 DUP2 MSTORE PUSH1 0x1A PUSH1 0x20 MSTORE PUSH1 0x40 SWAP1 KECCAK256 SLOAD PUSH1 0xFF AND PUSH3 0xB55 JUMPI PUSH1 0x40 MLOAD PUSH3 0x461BCD PUSH1 0xE5 SHL DUP2 MSTORE PUSH1 0x20 PUSH1 0x4 DUP3 ADD MSTORE PUSH1 0x13 PUSH1 0x24 DUP3 ADD MSTORE PUSH19 0x6761756765206973206E6F7420616374697665 PUSH1 0x68 SHL PUSH1 0x44 DUP3 ADD MSTORE PUSH1 0x64 ADD PUSH3 0x983 JUMP JUMPDEST PUSH1 0x1 PUSH1 0x1 PUSH1 0xA0 SHL SUB DUP2 AND PUSH1 0x0 DUP2 DUP2 MSTORE PUSH1 0x1A PUSH1 0x20 SWAP1 DUP2 MSTORE PUSH1 0x40 SWAP2 DUP3 SWAP1 KECCAK256 DUP1 SLOAD PUSH1 0xFF NOT AND SWAP1 SSTORE SWAP1 MLOAD SWAP2 DUP3 MSTORE PUSH32 0xD780203FE297949DB725D8B7408A8D9F009BAFAF49909A5EB5130C37BBA5EFB1 SWAP2 ADD JUMPDEST PUSH1 0x40 MLOAD DUP1 SWAP2 SUB SWAP1 LOG1 POP JUMP JUMPDEST CALLER PUSH1 0x0 DUP2 DUP2 MSTORE PUSH1 0xE PUSH1 0x20 MSTORE PUSH1 0x40 DUP2 KECCAK256 SLOAD PUSH3 0xBC9 SWAP1 TIMESTAMP PUSH3 0x321B JUMP JUMPDEST SWAP1 POP PUSH1 0xB SLOAD DUP2 GT PUSH3 0xC1E JUMPI PUSH1 0x40 MLOAD PUSH3 0x461BCD PUSH1 0xE5 SHL DUP2 MSTORE PUSH1 0x20 PUSH1 0x4 DUP3 ADD MSTORE PUSH1 0x1C PUSH1 0x24 DUP3 ADD MSTORE PUSH32 0x596F7520766F74656420696E20746865206C6173742037206461797300000000 PUSH1 0x44 DUP3 ADD MSTORE PUSH1 0x64 ADD PUSH3 0x983 JUMP JUMPDEST DUP5 DUP4 EQ PUSH3 0xC2B JUMPI PUSH1 0x0 DUP1 REVERT JUMPDEST CALLER PUSH1 0x0 DUP2 DUP2 MSTORE PUSH1 0xE PUSH1 0x20 SWAP1 DUP2 MSTORE PUSH1 0x40 SWAP2 DUP3 SWAP1 KECCAK256 TIMESTAMP SWAP1 SSTORE DUP2 MLOAD DUP9 DUP3 MUL DUP2 DUP2 ADD DUP4 ADD SWAP1 SWAP4 MSTORE DUP9 DUP2 MSTORE PUSH3 0xCAD SWAP4 SWAP3 SWAP1 SWAP2 DUP11 SWAP2 DUP11 SWAP2 DUP3 SWAP2 SWAP1 DUP6 ADD SWAP1 DUP5 SWAP1 DUP1 DUP3 DUP5 CALLDATACOPY PUSH1 0x0 SWAP3 ADD SWAP2 SWAP1 SWAP2 MSTORE POP POP PUSH1 0x40 DUP1 MLOAD PUSH1 0x20 DUP1 DUP12 MUL DUP3 DUP2 ADD DUP3 ADD SWAP1 SWAP4 MSTORE DUP11 DUP3 MSTORE SWAP1 SWAP4 POP DUP11 SWAP3 POP DUP10 SWAP2 DUP3 SWAP2 DUP6 ADD SWAP1 DUP5 SWAP1 DUP1 DUP3 DUP5 CALLDATACOPY PUSH1 0x0 SWAP3 ADD SWAP2 SWAP1 SWAP2 MSTORE POP PUSH3 0x2521 SWAP3 POP POP POP JUMP JUMPDEST POP POP POP POP POP POP JUMP JUMPDEST PUSH1 0x0 SLOAD PUSH1 0x1 PUSH1 0x1 PUSH1 0xA0 SHL SUB AND CALLER EQ PUSH3 0xCFA JUMPI PUSH1 0x40 MLOAD PUSH3 0x461BCD PUSH1 0xE5 SHL DUP2 MSTORE PUSH1 0x4 ADD PUSH3 0x983 SWAP1 PUSH1 0x20 DUP1 DUP3 MSTORE PUSH1 0x4 SWAP1 DUP3 ADD MSTORE PUSH4 0x10B3B7BB PUSH1 0xE1 SHL PUSH1 0x40 DUP3 ADD MSTORE PUSH1 0x60 ADD SWAP1 JUMP JUMPDEST PUSH1 0x6 DUP1 SLOAD PUSH1 0x1 PUSH1 0x1 PUSH1 0xA0 SHL SUB NOT AND PUSH1 0x1 PUSH1 0x1 PUSH1 0xA0 SHL SUB SWAP3 SWAP1 SWAP3 AND SWAP2 SWAP1 SWAP2 OR SWAP1 SSTORE JUMP JUMPDEST PUSH1 0x2 DUP1 SLOAD EQ ISZERO PUSH3 0xD70 JUMPI PUSH1 0x40 MLOAD PUSH3 0x461BCD PUSH1 0xE5 SHL DUP2 MSTORE PUSH1 0x20 PUSH1 0x4 DUP3 ADD MSTORE PUSH1 0x1F PUSH1 0x24 DUP3 ADD MSTORE PUSH32 0x5265656E7472616E637947756172643A207265656E7472616E742063616C6C00 PUSH1 0x44 DUP3 ADD MSTORE PUSH1 0x64 ADD PUSH3 0x983 JUMP JUMPDEST PUSH1 0x2 DUP1 SSTORE DUP1 DUP3 LT PUSH3 0xDB2 JUMPI PUSH1 0x40 MLOAD PUSH3 0x461BCD PUSH1 0xE5 SHL DUP2 MSTORE PUSH1 0x20 PUSH1 0x4 DUP3 ADD MSTORE PUSH1 0xA PUSH1 0x24 DUP3 ADD MSTORE PUSH10 0x1898590817DCDD185C9D PUSH1 0xB2 SHL PUSH1 0x44 DUP3 ADD MSTORE PUSH1 0x64 ADD PUSH3 0x983 JUMP JUMPDEST PUSH1 0x17 SLOAD DUP2 GT ISZERO PUSH3 0xDF1 JUMPI PUSH1 0x40 MLOAD PUSH3 0x461BCD PUSH1 0xE5 SHL DUP2 MSTORE PUSH1 0x20 PUSH1 0x4 DUP3 ADD MSTORE PUSH1 0x8 PUSH1 0x24 DUP3 ADD MSTORE PUSH8 0x1898590817D95B99 PUSH1 0xC2 SHL PUSH1 0x44 DUP3 ADD MSTORE PUSH1 0x64 ADD PUSH3 0x983 JUMP JUMPDEST PUSH1 0x0 PUSH1 0x10 SLOAD GT DUP1 ISZERO PUSH3 0xE06 JUMPI POP PUSH1 0x0 PUSH1 0xF SLOAD GT JUMPDEST ISZERO PUSH3 0xFA5 JUMPI DUP2 JUMPDEST DUP2 DUP2 LT ISZERO PUSH3 0xFA3 JUMPI PUSH1 0x0 PUSH1 0x17 DUP3 DUP2 SLOAD DUP2 LT PUSH3 0xE2F JUMPI PUSH3 0xE2F PUSH3 0x3235 JUMP JUMPDEST PUSH1 0x0 SWAP2 DUP3 MSTORE PUSH1 0x20 DUP1 DUP4 KECCAK256 SWAP1 SWAP2 ADD SLOAD PUSH1 0x1 PUSH1 0x1 PUSH1 0xA0 SHL SUB AND DUP1 DUP4 MSTORE PUSH1 0x13 SWAP1 SWAP2 MSTORE PUSH1 0x40 SWAP1 SWAP2 KECCAK256 SLOAD SWAP1 SWAP2 POP PUSH1 0xFF AND ISZERO DUP1 ISZERO PUSH3 0xE80 JUMPI POP PUSH1 0x1 PUSH1 0x1 PUSH1 0xA0 SHL SUB DUP2 AND PUSH1 0x0 SWAP1 DUP2 MSTORE PUSH1 0x1A PUSH1 0x20 MSTORE PUSH1 0x40 SWAP1 KECCAK256 SLOAD PUSH1 0xFF AND JUMPDEST ISZERO PUSH3 0xF8D JUMPI PUSH1 0x1 PUSH1 0x1 PUSH1 0xA0 SHL SUB DUP1 DUP3 AND PUSH1 0x0 SWAP1 DUP2 MSTORE PUSH1 0x19 PUSH1 0x20 SWAP1 DUP2 MSTORE PUSH1 0x40 DUP1 DUP4 KECCAK256 SLOAD PUSH1 0xF SLOAD PUSH1 0x12 SWAP1 SWAP4 MSTORE SWAP1 DUP4 KECCAK256 SLOAD PUSH1 0x10 SLOAD SWAP2 SWAP1 SWAP5 AND SWAP4 PUSH3 0xEC2 SWAP2 PUSH3 0x324B JUMP JUMPDEST PUSH3 0xECE SWAP2 SWAP1 PUSH3 0x326D JUMP JUMPDEST SWAP1 POP DUP1 ISZERO PUSH3 0xF67 JUMPI PUSH1 0x5 SLOAD PUSH3 0xEF1 SWAP1 PUSH1 0x1 PUSH1 0x1 PUSH1 0xA0 SHL SUB AND DUP4 PUSH1 0x0 PUSH3 0x280B JUMP JUMPDEST PUSH1 0x5 SLOAD PUSH3 0xF0A SWAP1 PUSH1 0x1 PUSH1 0x1 PUSH1 0xA0 SHL SUB AND DUP4 DUP4 PUSH3 0x280B JUMP JUMPDEST PUSH1 0x40 MLOAD PUSH4 0x3C6B16AB PUSH1 0xE0 SHL DUP2 MSTORE PUSH1 0x4 DUP2 ADD DUP3 SWAP1 MSTORE PUSH1 0x1 PUSH1 0x1 PUSH1 0xA0 SHL SUB DUP4 AND SWAP1 PUSH4 0x3C6B16AB SWAP1 PUSH1 0x24 ADD PUSH1 0x0 PUSH1 0x40 MLOAD DUP1 DUP4 SUB DUP2 PUSH1 0x0 DUP8 DUP1 EXTCODESIZE ISZERO DUP1 ISZERO PUSH3 0xF4D JUMPI PUSH1 0x0 DUP1 REVERT JUMPDEST POP GAS CALL ISZERO DUP1 ISZERO PUSH3 0xF62 JUMPI RETURNDATASIZE PUSH1 0x0 DUP1 RETURNDATACOPY RETURNDATASIZE PUSH1 0x0 REVERT JUMPDEST POP POP POP POP JUMPDEST POP POP PUSH1 0x1 PUSH1 0x1 PUSH1 0xA0 SHL SUB DUP2 AND PUSH1 0x0 SWAP1 DUP2 MSTORE PUSH1 0x13 PUSH1 0x20 MSTORE PUSH1 0x40 SWAP1 KECCAK256 DUP1 SLOAD PUSH1 0xFF NOT AND PUSH1 0x1 OR SWAP1 SSTORE JUMPDEST POP DUP1 PUSH3 0xF9A DUP2 PUSH3 0x3290 JUMP JUMPDEST SWAP2 POP POP PUSH3 0xE0E JUMP JUMPDEST POP JUMPDEST POP POP PUSH1 0x1 PUSH1 0x2 SSTORE JUMP JUMPDEST PUSH1 0x2 DUP1 SLOAD EQ ISZERO PUSH3 0x1002 JUMPI PUSH1 0x40 MLOAD PUSH3 0x461BCD PUSH1 0xE5 SHL DUP2 MSTORE PUSH1 0x20 PUSH1 0x4 DUP3 ADD MSTORE PUSH1 0x1F PUSH1 0x24 DUP3 ADD MSTORE PUSH32 0x5265656E7472616E637947756172643A207265656E7472616E742063616C6C00 PUSH1 0x44 DUP3 ADD MSTORE PUSH1 0x64 ADD PUSH3 0x983 JUMP JUMPDEST PUSH1 0x2 DUP1 SSTORE PUSH1 0xD SLOAD PUSH1 0x0 SWAP1 PUSH3 0x1018 SWAP1 TIMESTAMP PUSH3 0x321B JUMP JUMPDEST SWAP1 POP PUSH1 0xC SLOAD DUP2 GT PUSH3 0x1082 JUMPI PUSH1 0x40 MLOAD PUSH3 0x461BCD PUSH1 0xE5 SHL DUP2 MSTORE PUSH1 0x20 PUSH1 0x4 DUP3 ADD MSTORE PUSH1 0x2C PUSH1 0x24 DUP3 ADD MSTORE PUSH32 0x7468697320686173206265656E20646973747269627574656420696E20746865 PUSH1 0x44 DUP3 ADD MSTORE PUSH12 0x206C61737420372064617973 PUSH1 0xA0 SHL PUSH1 0x64 DUP3 ADD MSTORE PUSH1 0x84 ADD PUSH3 0x983 JUMP JUMPDEST PUSH1 0xA SLOAD PUSH1 0xF SSTORE PUSH1 0x0 JUMPDEST PUSH1 0x17 SLOAD DUP2 LT ISZERO PUSH3 0x1196 JUMPI PUSH1 0x1C PUSH1 0x0 PUSH1 0x17 DUP4 DUP2 SLOAD DUP2 LT PUSH3 0x10B0 JUMPI PUSH3 0x10B0 PUSH3 0x3235 JUMP JUMPDEST SWAP1 PUSH1 0x0 MSTORE PUSH1 0x20 PUSH1 0x0 KECCAK256 ADD PUSH1 0x0 SWAP1 SLOAD SWAP1 PUSH2 0x100 EXP SWAP1 DIV PUSH1 0x1 PUSH1 0x1 PUSH1 0xA0 SHL SUB AND PUSH1 0x1 PUSH1 0x1 PUSH1 0xA0 SHL SUB AND PUSH1 0x1 PUSH1 0x1 PUSH1 0xA0 SHL SUB AND DUP2 MSTORE PUSH1 0x20 ADD SWAP1 DUP2 MSTORE PUSH1 0x20 ADD PUSH1 0x0 KECCAK256 SLOAD PUSH1 0x12 PUSH1 0x0 PUSH1 0x17 DUP5 DUP2 SLOAD DUP2 LT PUSH3 0x1109 JUMPI PUSH3 0x1109 PUSH3 0x3235 JUMP JUMPDEST PUSH1 0x0 SWAP2 DUP3 MSTORE PUSH1 0x20 DUP1 DUP4 KECCAK256 SWAP1 SWAP2 ADD SLOAD PUSH1 0x1 PUSH1 0x1 PUSH1 0xA0 SHL SUB AND DUP4 MSTORE DUP3 ADD SWAP3 SWAP1 SWAP3 MSTORE PUSH1 0x40 ADD DUP2 KECCAK256 SWAP2 SWAP1 SWAP2 SSTORE PUSH1 0x17 DUP1 SLOAD PUSH1 0x13 SWAP2 DUP4 SWAP2 DUP6 SWAP1 DUP2 LT PUSH3 0x114D JUMPI PUSH3 0x114D PUSH3 0x3235 JUMP JUMPDEST PUSH1 0x0 SWAP2 DUP3 MSTORE PUSH1 0x20 DUP1 DUP4 KECCAK256 SWAP2 SWAP1 SWAP2 ADD SLOAD PUSH1 0x1 PUSH1 0x1 PUSH1 0xA0 SHL SUB AND DUP4 MSTORE DUP3 ADD SWAP3 SWAP1 SWAP3 MSTORE PUSH1 0x40 ADD SWAP1 KECCAK256 DUP1 SLOAD PUSH1 0xFF NOT AND SWAP2 ISZERO ISZERO SWAP2 SWAP1 SWAP2 OR SWAP1 SSTORE DUP1 PUSH3 0x118D DUP2 PUSH3 0x3290 JUMP JUMPDEST SWAP2 POP POP PUSH3 0x108B JUMP JUMPDEST POP PUSH3 0x11A1 PUSH3 0x295B JUMP JUMPDEST TIMESTAMP PUSH1 0xD SSTORE PUSH1 0x5 SLOAD PUSH1 0x40 MLOAD PUSH4 0x70A08231 PUSH1 0xE0 SHL DUP2 MSTORE ADDRESS PUSH1 0x4 DUP3 ADD MSTORE PUSH1 0x0 SWAP2 PUSH1 0x1 PUSH1 0x1 PUSH1 0xA0 SHL SUB AND SWAP1 PUSH4 0x70A08231 SWAP1 PUSH1 0x24 ADD PUSH1 0x20 PUSH1 0x40 MLOAD DUP1 DUP4 SUB DUP2 DUP7 GAS STATICCALL ISZERO DUP1 ISZERO PUSH3 0x11EF JUMPI RETURNDATASIZE PUSH1 0x0 DUP1 RETURNDATACOPY RETURNDATASIZE PUSH1 0x0 REVERT JUMPDEST POP POP POP POP PUSH1 0x40 MLOAD RETURNDATASIZE PUSH1 0x1F NOT PUSH1 0x1F DUP3 ADD AND DUP3 ADD DUP1 PUSH1 0x40 MSTORE POP DUP2 ADD SWAP1 PUSH3 0x1215 SWAP2 SWAP1 PUSH3 0x32AE JUMP JUMPDEST PUSH1 0x10 DUP2 SWAP1 SSTORE PUSH1 0x16 SLOAD SWAP1 SWAP2 POP PUSH1 0x0 SWAP1 PUSH1 0x1 PUSH1 0xA0 SHL SWAP1 DIV PUSH1 0xFF AND ISZERO PUSH3 0x13E2 JUMPI PUSH1 0x5 SLOAD PUSH1 0x4 DUP1 SLOAD PUSH1 0x40 MLOAD PUSH4 0x70A08231 PUSH1 0xE0 SHL DUP2 MSTORE PUSH1 0x1 PUSH1 0x1 PUSH1 0xA0 SHL SUB SWAP2 DUP3 AND SWAP3 DUP2 ADD SWAP3 SWAP1 SWAP3 MSTORE PUSH1 0x0 SWAP3 AND SWAP1 PUSH4 0x70A08231 SWAP1 PUSH1 0x24 ADD PUSH1 0x20 PUSH1 0x40 MLOAD DUP1 DUP4 SUB DUP2 DUP7 GAS STATICCALL ISZERO DUP1 ISZERO PUSH3 0x1285 JUMPI RETURNDATASIZE PUSH1 0x0 DUP1 RETURNDATACOPY RETURNDATASIZE PUSH1 0x0 REVERT JUMPDEST POP POP POP POP PUSH1 0x40 MLOAD RETURNDATASIZE PUSH1 0x1F NOT PUSH1 0x1F DUP3 ADD AND DUP3 ADD DUP1 PUSH1 0x40 MSTORE POP DUP2 ADD SWAP1 PUSH3 0x12AB SWAP2 SWAP1 PUSH3 0x32AE JUMP JUMPDEST SWAP1 POP PUSH1 0x0 PUSH1 0x5 PUSH1 0x0 SWAP1 SLOAD SWAP1 PUSH2 0x100 EXP SWAP1 DIV PUSH1 0x1 PUSH1 0x1 PUSH1 0xA0 SHL SUB AND PUSH1 0x1 PUSH1 0x1 PUSH1 0xA0 SHL SUB AND PUSH4 0x18160DDD PUSH1 0x40 MLOAD DUP2 PUSH4 0xFFFFFFFF AND PUSH1 0xE0 SHL DUP2 MSTORE PUSH1 0x4 ADD PUSH1 0x20 PUSH1 0x40 MLOAD DUP1 DUP4 SUB DUP2 DUP7 GAS STATICCALL ISZERO DUP1 ISZERO PUSH3 0x1303 JUMPI RETURNDATASIZE PUSH1 0x0 DUP1 RETURNDATACOPY RETURNDATASIZE PUSH1 0x0 REVERT JUMPDEST POP POP POP POP PUSH1 0x40 MLOAD RETURNDATASIZE PUSH1 0x1F NOT PUSH1 0x1F DUP3 ADD AND DUP3 ADD DUP1 PUSH1 0x40 MSTORE POP DUP2 ADD SWAP1 PUSH3 0x1329 SWAP2 SWAP1 PUSH3 0x32AE JUMP JUMPDEST SWAP1 POP DUP1 PUSH3 0x1338 DUP4 DUP7 PUSH3 0x324B JUMP JUMPDEST PUSH3 0x1344 SWAP2 SWAP1 PUSH3 0x326D JUMP JUMPDEST SWAP3 POP DUP3 ISZERO PUSH3 0x13DF JUMPI PUSH1 0x18 SLOAD PUSH1 0x5 SLOAD PUSH3 0x136C SWAP2 PUSH1 0x1 PUSH1 0x1 PUSH1 0xA0 SHL SUB SWAP2 DUP3 AND SWAP2 AND DUP6 PUSH3 0x2A4F JUMP JUMPDEST PUSH1 0x5 SLOAD PUSH1 0x40 MLOAD PUSH4 0x70A08231 PUSH1 0xE0 SHL DUP2 MSTORE ADDRESS PUSH1 0x4 DUP3 ADD MSTORE PUSH1 0x1 PUSH1 0x1 PUSH1 0xA0 SHL SUB SWAP1 SWAP2 AND SWAP1 PUSH4 0x70A08231 SWAP1 PUSH1 0x24 ADD PUSH1 0x20 PUSH1 0x40 MLOAD DUP1 DUP4 SUB DUP2 DUP7 GAS STATICCALL ISZERO DUP1 ISZERO PUSH3 0x13B5 JUMPI RETURNDATASIZE PUSH1 0x0 DUP1 RETURNDATACOPY RETURNDATASIZE PUSH1 0x0 REVERT JUMPDEST POP POP POP POP PUSH1 0x40 MLOAD RETURNDATASIZE PUSH1 0x1F NOT PUSH1 0x1F DUP3 ADD AND DUP3 ADD DUP1 PUSH1 0x40 MSTORE POP DUP2 ADD SWAP1 PUSH3 0x13DB SWAP2 SWAP1 PUSH3 0x32AE JUMP JUMPDEST PUSH1 0x10 SSTORE JUMPDEST POP POP JUMPDEST TIMESTAMP PUSH1 0x11 SSTORE PUSH1 0x40 MLOAD DUP2 DUP2 MSTORE PUSH32 0xCE10D9C5A37F75FAA552238874842DBF93DC8424647CB8C3286CFDCB73F6212A SWAP1 PUSH1 0x20 ADD PUSH1 0x40 MLOAD DUP1 SWAP2 SUB SWAP1 LOG1 POP POP PUSH1 0x1 PUSH1 0x2 SSTORE POP JUMP JUMPDEST PUSH1 0x0 SLOAD PUSH1 0x1 PUSH1 0x1 PUSH1 0xA0 SHL SUB AND CALLER EQ PUSH3 0x1468 JUMPI PUSH1 0x40 MLOAD PUSH3 0x461BCD PUSH1 0xE5 SHL DUP2 MSTORE PUSH1 0x4 ADD PUSH3 0x983 SWAP1 PUSH1 0x20 DUP1 DUP3 MSTORE PUSH1 0x4 SWAP1 DUP3 ADD MSTORE PUSH4 0x10B3B7BB PUSH1 0xE1 SHL PUSH1 0x40 DUP3 ADD MSTORE PUSH1 0x60 ADD SWAP1 JUMP JUMPDEST PUSH1 0x9 SSTORE JUMP JUMPDEST PUSH1 0x60 PUSH1 0x17 DUP1 SLOAD DUP1 PUSH1 0x20 MUL PUSH1 0x20 ADD PUSH1 0x40 MLOAD SWAP1 DUP2 ADD PUSH1 0x40 MSTORE DUP1 SWAP3 SWAP2 SWAP1 DUP2 DUP2 MSTORE PUSH1 0x20 ADD DUP3 DUP1 SLOAD DUP1 ISZERO PUSH3 0x14C7 JUMPI PUSH1 0x20 MUL DUP3 ADD SWAP2 SWAP1 PUSH1 0x0 MSTORE PUSH1 0x20 PUSH1 0x0 KECCAK256 SWAP1 JUMPDEST DUP2 SLOAD PUSH1 0x1 PUSH1 0x1 PUSH1 0xA0 SHL SUB AND DUP2 MSTORE PUSH1 0x1 SWAP1 SWAP2 ADD SWAP1 PUSH1 0x20 ADD DUP1 DUP4 GT PUSH3 0x14A8 JUMPI JUMPDEST POP POP POP POP POP SWAP1 POP SWAP1 JUMP JUMPDEST PUSH1 0x1 PUSH1 0x1 PUSH1 0xA0 SHL SUB DUP2 DUP2 AND PUSH1 0x0 SWAP1 DUP2 MSTORE PUSH1 0x19 PUSH1 0x20 MSTORE PUSH1 0x40 DUP2 KECCAK256 SLOAD SWAP1 SWAP2 AND ISZERO PUSH3 0x1526 JUMPI PUSH1 0x40 MLOAD PUSH3 0x461BCD PUSH1 0xE5 SHL DUP2 MSTORE PUSH1 0x20 PUSH1 0x4 DUP3 ADD MSTORE PUSH1 0x6 PUSH1 0x24 DUP3 ADD MSTORE PUSH6 0x657869737473 PUSH1 0xD0 SHL PUSH1 0x44 DUP3 ADD MSTORE PUSH1 0x64 ADD PUSH3 0x983 JUMP JUMPDEST PUSH1 0x16 SLOAD PUSH1 0x40 MLOAD PUSH4 0xE5E31B13 PUSH1 0xE0 SHL DUP2 MSTORE PUSH1 0x1 PUSH1 0x1 PUSH1 0xA0 SHL SUB DUP5 DUP2 AND PUSH1 0x4 DUP4 ADD MSTORE SWAP1 SWAP2 AND SWAP1 PUSH4 0xE5E31B13 SWAP1 PUSH1 0x24 ADD PUSH1 0x20 PUSH1 0x40 MLOAD DUP1 DUP4 SUB DUP2 PUSH1 0x0 DUP8 GAS CALL ISZERO DUP1 ISZERO PUSH3 0x1573 JUMPI RETURNDATASIZE PUSH1 0x0 DUP1 RETURNDATACOPY RETURNDATASIZE PUSH1 0x0 REVERT JUMPDEST POP POP POP POP PUSH1 0x40 MLOAD RETURNDATASIZE PUSH1 0x1F NOT PUSH1 0x1F DUP3 ADD AND DUP3 ADD DUP1 PUSH1 0x40 MSTORE POP DUP2 ADD SWAP1 PUSH3 0x1599 SWAP2 SWAP1 PUSH3 0x32C8 JUMP JUMPDEST PUSH3 0x15D3 JUMPI PUSH1 0x40 MLOAD PUSH3 0x461BCD PUSH1 0xE5 SHL DUP2 MSTORE PUSH1 0x20 PUSH1 0x4 DUP3 ADD MSTORE PUSH1 0x9 PUSH1 0x24 DUP3 ADD MSTORE PUSH9 0x215F746F6B656E4C5 PUSH1 0xBC SHL PUSH1 0x44 DUP3 ADD MSTORE PUSH1 0x64 ADD PUSH3 0x983 JUMP JUMPDEST DUP2 PUSH1 0x1 PUSH1 0x1 PUSH1 0xA0 SHL SUB AND PUSH4 0x22BE3DE1 PUSH1 0x40 MLOAD DUP2 PUSH4 0xFFFFFFFF AND PUSH1 0xE0 SHL DUP2 MSTORE PUSH1 0x4 ADD PUSH1 0x20 PUSH1 0x40 MLOAD DUP1 DUP4 SUB DUP2 PUSH1 0x0 DUP8 GAS CALL ISZERO DUP1 ISZERO PUSH3 0x1614 JUMPI RETURNDATASIZE PUSH1 0x0 DUP1 RETURNDATACOPY RETURNDATASIZE PUSH1 0x0 REVERT JUMPDEST POP POP POP POP PUSH1 0x40 MLOAD RETURNDATASIZE PUSH1 0x1F NOT PUSH1 0x1F DUP3 ADD AND DUP3 ADD DUP1 PUSH1 0x40 MSTORE POP DUP2 ADD SWAP1 PUSH3 0x163A SWAP2 SWAP1 PUSH3 0x32C8 JUMP JUMPDEST PUSH3 0x1644 JUMPI PUSH1 0x0 DUP1 REVERT JUMPDEST PUSH1 0x0 DUP1 DUP4 PUSH1 0x1 PUSH1 0x1 PUSH1 0xA0 SHL SUB AND PUSH4 0x9D63848A PUSH1 0x40 MLOAD DUP2 PUSH4 0xFFFFFFFF AND PUSH1 0xE0 SHL DUP2 MSTORE PUSH1 0x4 ADD PUSH1 0x40 DUP1 MLOAD DUP1 DUP4 SUB DUP2 PUSH1 0x0 DUP8 GAS CALL ISZERO DUP1 ISZERO PUSH3 0x1687 JUMPI RETURNDATASIZE PUSH1 0x0 DUP1 RETURNDATACOPY RETURNDATASIZE PUSH1 0x0 REVERT JUMPDEST POP POP POP POP PUSH1 0x40 MLOAD RETURNDATASIZE PUSH1 0x1F NOT PUSH1 0x1F DUP3 ADD AND DUP3 ADD DUP1 PUSH1 0x40 MSTORE POP DUP2 ADD SWAP1 PUSH3 0x16AD SWAP2 SWAP1 PUSH3 0x32E8 JUMP JUMPDEST PUSH1 0x1 PUSH1 0x1 PUSH1 0xA0 SHL SUB DUP3 AND PUSH1 0x0 SWAP1 DUP2 MSTORE PUSH1 0x15 PUSH1 0x20 MSTORE PUSH1 0x40 SWAP1 KECCAK256 SLOAD SWAP2 SWAP4 POP SWAP2 POP PUSH1 0xFF AND DUP1 ISZERO PUSH3 0x16F3 JUMPI POP PUSH1 0x1 PUSH1 0x1 PUSH1 0xA0 SHL SUB DUP2 AND PUSH1 0x0 SWAP1 DUP2 MSTORE PUSH1 0x14 PUSH1 0x20 MSTORE PUSH1 0x40 SWAP1 KECCAK256 SLOAD PUSH1 0xFF AND JUMPDEST DUP1 PUSH3 0x173B JUMPI POP PUSH1 0x1 PUSH1 0x1 PUSH1 0xA0 SHL SUB DUP2 AND PUSH1 0x0 SWAP1 DUP2 MSTORE PUSH1 0x15 PUSH1 0x20 MSTORE PUSH1 0x40 SWAP1 KECCAK256 SLOAD PUSH1 0xFF AND DUP1 ISZERO PUSH3 0x173B JUMPI POP PUSH1 0x1 PUSH1 0x1 PUSH1 0xA0 SHL SUB DUP3 AND PUSH1 0x0 SWAP1 DUP2 MSTORE PUSH1 0x14 PUSH1 0x20 MSTORE PUSH1 0x40 SWAP1 KECCAK256 SLOAD PUSH1 0xFF AND JUMPDEST PUSH3 0x1775 JUMPI PUSH1 0x40 MLOAD PUSH3 0x461BCD PUSH1 0xE5 SHL DUP2 MSTORE PUSH1 0x20 PUSH1 0x4 DUP3 ADD MSTORE PUSH1 0x9 PUSH1 0x24 DUP3 ADD MSTORE PUSH9 0x85D995C9A599A5959 PUSH1 0xBA SHL PUSH1 0x44 DUP3 ADD MSTORE PUSH1 0x64 ADD PUSH3 0x983 JUMP JUMPDEST PUSH1 0x64 PUSH1 0x4 PUSH1 0x0 SWAP1 SLOAD SWAP1 PUSH2 0x100 EXP SWAP1 DIV PUSH1 0x1 PUSH1 0x1 PUSH1 0xA0 SHL SUB AND PUSH1 0x1 PUSH1 0x1 PUSH1 0xA0 SHL SUB AND PUSH4 0x18160DDD PUSH1 0x40 MLOAD DUP2 PUSH4 0xFFFFFFFF AND PUSH1 0xE0 SHL DUP2 MSTORE PUSH1 0x4 ADD PUSH1 0x20 PUSH1 0x40 MLOAD DUP1 DUP4 SUB DUP2 DUP7 GAS STATICCALL ISZERO DUP1 ISZERO PUSH3 0x17CB JUMPI RETURNDATASIZE PUSH1 0x0 DUP1 RETURNDATACOPY RETURNDATASIZE PUSH1 0x0 REVERT JUMPDEST POP POP POP POP PUSH1 0x40 MLOAD RETURNDATASIZE PUSH1 0x1F NOT PUSH1 0x1F DUP3 ADD AND DUP3 ADD DUP1 PUSH1 0x40 MSTORE POP DUP2 ADD SWAP1 PUSH3 0x17F1 SWAP2 SWAP1 PUSH3 0x32AE JUMP JUMPDEST PUSH3 0x17FD SWAP2 SWAP1 PUSH3 0x326D JUMP JUMPDEST PUSH1 0x4 DUP1 SLOAD PUSH1 0x40 MLOAD PUSH4 0x70A08231 PUSH1 0xE0 SHL DUP2 MSTORE CALLER SWAP3 DUP2 ADD SWAP3 SWAP1 SWAP3 MSTORE PUSH1 0x1 PUSH1 0x1 PUSH1 0xA0 SHL SUB AND SWAP1 PUSH4 0x70A08231 SWAP1 PUSH1 0x24 ADD PUSH1 0x20 PUSH1 0x40 MLOAD DUP1 DUP4 SUB DUP2 DUP7 GAS STATICCALL ISZERO DUP1 ISZERO PUSH3 0x1847 JUMPI RETURNDATASIZE PUSH1 0x0 DUP1 RETURNDATACOPY RETURNDATASIZE PUSH1 0x0 REVERT JUMPDEST POP POP POP POP PUSH1 0x40 MLOAD RETURNDATASIZE PUSH1 0x1F NOT PUSH1 0x1F DUP3 ADD AND DUP3 ADD DUP1 PUSH1 0x40 MSTORE POP DUP2 ADD SWAP1 PUSH3 0x186D SWAP2 SWAP1 PUSH3 0x32AE JUMP JUMPDEST GT DUP1 PUSH3 0x1884 JUMPI POP PUSH1 0x0 SLOAD PUSH1 0x1 PUSH1 0x1 PUSH1 0xA0 SHL SUB AND CALLER EQ JUMPDEST DUP1 PUSH3 0x189A JUMPI POP PUSH1 0x6 SLOAD PUSH1 0x1 PUSH1 0x1 PUSH1 0xA0 SHL SUB AND CALLER EQ JUMPDEST PUSH3 0x18D2 JUMPI PUSH1 0x40 MLOAD PUSH3 0x461BCD PUSH1 0xE5 SHL DUP2 MSTORE PUSH1 0x20 PUSH1 0x4 DUP3 ADD MSTORE PUSH1 0x7 PUSH1 0x24 DUP3 ADD MSTORE PUSH7 0x21737570706C79 PUSH1 0xC8 SHL PUSH1 0x44 DUP3 ADD MSTORE PUSH1 0x64 ADD PUSH3 0x983 JUMP JUMPDEST PUSH1 0x5 SLOAD PUSH1 0x4 SLOAD PUSH1 0x40 MLOAD PUSH1 0x1 PUSH1 0x1 PUSH1 0xA0 SHL SUB SWAP3 DUP4 AND SWAP3 SWAP1 SWAP2 AND SWAP1 DUP7 SWAP1 ADDRESS SWAP1 PUSH3 0x18FA SWAP1 PUSH3 0x2DFF JUMP JUMPDEST PUSH1 0x1 PUSH1 0x1 PUSH1 0xA0 SHL SUB SWAP5 DUP6 AND DUP2 MSTORE SWAP3 DUP5 AND PUSH1 0x20 DUP5 ADD MSTORE SWAP1 DUP4 AND PUSH1 0x40 DUP4 ADD MSTORE SWAP1 SWAP2 AND PUSH1 0x60 DUP3 ADD MSTORE PUSH1 0x80 ADD PUSH1 0x40 MLOAD DUP1 SWAP2 SUB SWAP1 PUSH1 0x0 CREATE DUP1 ISZERO DUP1 ISZERO PUSH3 0x193F JUMPI RETURNDATASIZE PUSH1 0x0 DUP1 RETURNDATACOPY RETURNDATASIZE PUSH1 0x0 REVERT JUMPDEST POP PUSH1 0x1 PUSH1 0x1 PUSH1 0xA0 SHL SUB DUP6 DUP2 AND PUSH1 0x0 DUP2 DUP2 MSTORE PUSH1 0x19 PUSH1 0x20 SWAP1 DUP2 MSTORE PUSH1 0x40 DUP1 DUP4 KECCAK256 DUP1 SLOAD SWAP7 DUP7 AND PUSH1 0x1 PUSH1 0x1 PUSH1 0xA0 SHL SUB NOT SWAP8 DUP9 AND OR SWAP1 SSTORE PUSH1 0x17 DUP1 SLOAD PUSH1 0x1 DUP2 DUP2 ADD SWAP1 SWAP3 SSTORE PUSH32 0xC624B66CC0138B8FABC209247F72D758E1CF3343756D543BADBF24212BED8C15 ADD DUP1 SLOAD SWAP1 SWAP8 AND SWAP1 SWAP5 OR SWAP1 SWAP6 SSTORE PUSH1 0x1A SWAP1 MSTORE DUP4 DUP2 KECCAK256 DUP1 SLOAD PUSH1 0xFF NOT AND SWAP1 SWAP3 OR SWAP1 SWAP2 SSTORE PUSH1 0x8 SLOAD DUP2 SLOAD SWAP4 MLOAD PUSH4 0x1C1E57C9 PUSH1 0xE1 SHL DUP2 MSTORE SWAP4 DUP4 AND PUSH1 0x4 DUP6 ADD MSTORE DUP6 DUP4 AND PUSH1 0x24 DUP6 ADD MSTORE DUP5 DUP4 AND PUSH1 0x44 DUP6 ADD MSTORE SWAP1 SWAP3 SWAP2 AND SWAP1 PUSH4 0x383CAF92 SWAP1 PUSH1 0x64 ADD PUSH1 0x20 PUSH1 0x40 MLOAD DUP1 DUP4 SUB DUP2 PUSH1 0x0 DUP8 GAS CALL ISZERO DUP1 ISZERO PUSH3 0x1A13 JUMPI RETURNDATASIZE PUSH1 0x0 DUP1 RETURNDATACOPY RETURNDATASIZE PUSH1 0x0 REVERT JUMPDEST POP POP POP POP PUSH1 0x40 MLOAD RETURNDATASIZE PUSH1 0x1F NOT PUSH1 0x1F DUP3 ADD AND DUP3 ADD DUP1 PUSH1 0x40 MSTORE POP DUP2 ADD SWAP1 PUSH3 0x1A39 SWAP2 SWAP1 PUSH3 0x331C JUMP JUMPDEST PUSH1 0x1 PUSH1 0x1 PUSH1 0xA0 SHL SUB DUP7 DUP2 AND PUSH1 0x0 DUP2 DUP2 MSTORE PUSH1 0x19 PUSH1 0x20 SWAP1 DUP2 MSTORE PUSH1 0x40 DUP1 DUP4 KECCAK256 SLOAD DUP6 AND DUP4 MSTORE PUSH1 0x1B DUP3 MSTORE SWAP2 DUP3 SWAP1 KECCAK256 DUP1 SLOAD PUSH1 0x1 PUSH1 0x1 PUSH1 0xA0 SHL SUB NOT AND SWAP5 DUP7 AND SWAP5 SWAP1 SWAP5 OR SWAP1 SWAP4 SSTORE MLOAD SWAP1 DUP2 MSTORE SWAP2 SWAP3 POP PUSH32 0x9808313031A8F4CAA534C417ADAD16800AF7317516EFF29A2D37CEC0FFB244DB SWAP2 ADD PUSH1 0x40 MLOAD DUP1 SWAP2 SUB SWAP1 LOG1 POP POP POP POP PUSH1 0x1 PUSH1 0x1 PUSH1 0xA0 SHL SUB SWAP1 DUP2 AND PUSH1 0x0 SWAP1 DUP2 MSTORE PUSH1 0x19 PUSH1 0x20 MSTORE PUSH1 0x40 SWAP1 KECCAK256 SLOAD AND SWAP1 JUMP JUMPDEST PUSH1 0x0 SLOAD PUSH1 0x1 PUSH1 0x1 PUSH1 0xA0 SHL SUB AND CALLER EQ PUSH3 0x1B1E JUMPI PUSH1 0x40 MLOAD PUSH3 0x461BCD PUSH1 0xE5 SHL DUP2 MSTORE PUSH1 0x20 PUSH1 0x4 DUP3 ADD MSTORE PUSH1 0x13 PUSH1 0x24 DUP3 ADD MSTORE PUSH19 0x39B2BA23B7BB32B93730B731B29D1010B3B7BB PUSH1 0x69 SHL PUSH1 0x44 DUP3 ADD MSTORE PUSH1 0x64 ADD PUSH3 0x983 JUMP JUMPDEST PUSH1 0x1 DUP1 SLOAD PUSH1 0x1 PUSH1 0x1 PUSH1 0xA0 SHL SUB NOT AND PUSH1 0x1 PUSH1 0x1 PUSH1 0xA0 SHL SUB SWAP3 SWAP1 SWAP3 AND SWAP2 SWAP1 SWAP2 OR SWAP1 SSTORE JUMP JUMPDEST PUSH1 0x1 PUSH1 0x1 PUSH1 0xA0 SHL SUB DUP2 AND PUSH1 0x0 SWAP1 DUP2 MSTORE PUSH1 0x1E PUSH1 0x20 SWAP1 DUP2 MSTORE PUSH1 0x40 DUP1 DUP4 KECCAK256 DUP1 SLOAD DUP3 MLOAD DUP2 DUP6 MUL DUP2 ADD DUP6 ADD SWAP1 SWAP4 MSTORE DUP1 DUP4 MSTORE SWAP2 SWAP3 SWAP1 SWAP2 SWAP1 DUP4 ADD DUP3 DUP3 DUP1 ISZERO PUSH3 0x1BAC JUMPI PUSH1 0x20 MUL DUP3 ADD SWAP2 SWAP1 PUSH1 0x0 MSTORE PUSH1 0x20 PUSH1 0x0 KECCAK256 SWAP1 JUMPDEST DUP2 SLOAD PUSH1 0x1 PUSH1 0x1 PUSH1 0xA0 SHL SUB AND DUP2 MSTORE PUSH1 0x1 SWAP1 SWAP2 ADD SWAP1 PUSH1 0x20 ADD DUP1 DUP4 GT PUSH3 0x1B8D JUMPI JUMPDEST POP POP POP POP POP SWAP1 POP PUSH1 0x0 DUP2 MLOAD SWAP1 POP PUSH1 0x0 DUP2 PUSH8 0xFFFFFFFFFFFFFFFF DUP2 GT ISZERO PUSH3 0x1BD7 JUMPI PUSH3 0x1BD7 PUSH3 0x30E0 JUMP JUMPDEST PUSH1 0x40 MLOAD SWAP1 DUP1 DUP3 MSTORE DUP1 PUSH1 0x20 MUL PUSH1 0x20 ADD DUP3 ADD PUSH1 0x40 MSTORE DUP1 ISZERO PUSH3 0x1C01 JUMPI DUP2 PUSH1 0x20 ADD PUSH1 0x20 DUP3 MUL DUP1 CALLDATASIZE DUP4 CALLDATACOPY ADD SWAP1 POP JUMPDEST POP PUSH1 0x1 PUSH1 0x1 PUSH1 0xA0 SHL SUB DUP6 DUP2 AND PUSH1 0x0 DUP2 DUP2 MSTORE PUSH1 0x1F PUSH1 0x20 MSTORE PUSH1 0x40 DUP1 DUP3 KECCAK256 SLOAD PUSH1 0x4 DUP1 SLOAD SWAP3 MLOAD PUSH4 0x70A08231 PUSH1 0xE0 SHL DUP2 MSTORE SWAP1 DUP2 ADD SWAP5 SWAP1 SWAP5 MSTORE SWAP5 SWAP6 POP SWAP1 SWAP3 AND SWAP1 PUSH4 0x70A08231 SWAP1 PUSH1 0x24 ADD PUSH1 0x20 PUSH1 0x40 MLOAD DUP1 DUP4 SUB DUP2 DUP7 GAS STATICCALL ISZERO DUP1 ISZERO PUSH3 0x1C62 JUMPI RETURNDATASIZE PUSH1 0x0 DUP1 RETURNDATACOPY RETURNDATASIZE PUSH1 0x0 REVERT JUMPDEST POP POP POP POP PUSH1 0x40 MLOAD RETURNDATASIZE PUSH1 0x1F NOT PUSH1 0x1F DUP3 ADD AND DUP3 ADD DUP1 PUSH1 0x40 MSTORE POP DUP2 ADD SWAP1 PUSH3 0x1C88 SWAP2 SWAP1 PUSH3 0x32AE JUMP JUMPDEST SWAP1 POP PUSH1 0x0 JUMPDEST DUP5 DUP2 LT ISZERO PUSH3 0x1D43 JUMPI PUSH1 0x1 PUSH1 0x1 PUSH1 0xA0 SHL SUB DUP8 AND PUSH1 0x0 SWAP1 DUP2 MSTORE PUSH1 0x1D PUSH1 0x20 MSTORE PUSH1 0x40 DUP2 KECCAK256 DUP8 MLOAD DUP3 SWAP1 DUP10 SWAP1 DUP6 SWAP1 DUP2 LT PUSH3 0x1CC7 JUMPI PUSH3 0x1CC7 PUSH3 0x3235 JUMP JUMPDEST PUSH1 0x20 MUL PUSH1 0x20 ADD ADD MLOAD PUSH1 0x1 PUSH1 0x1 PUSH1 0xA0 SHL SUB AND PUSH1 0x1 PUSH1 0x1 PUSH1 0xA0 SHL SUB AND DUP2 MSTORE PUSH1 0x20 ADD SWAP1 DUP2 MSTORE PUSH1 0x20 ADD PUSH1 0x0 KECCAK256 SLOAD SWAP1 POP DUP4 DUP4 DUP3 PUSH3 0x1D01 SWAP2 SWAP1 PUSH3 0x324B JUMP JUMPDEST PUSH3 0x1D0D SWAP2 SWAP1 PUSH3 0x326D JUMP JUMPDEST DUP6 DUP4 DUP2 MLOAD DUP2 LT PUSH3 0x1D22 JUMPI PUSH3 0x1D22 PUSH3 0x3235 JUMP JUMPDEST PUSH1 0x20 SWAP1 DUP2 MUL SWAP2 SWAP1 SWAP2 ADD ADD MSTORE POP DUP1 PUSH3 0x1D3A DUP2 PUSH3 0x3290 JUMP JUMPDEST SWAP2 POP POP PUSH3 0x1C8D JUMP JUMPDEST POP PUSH3 0xCAD DUP7 DUP7 DUP6 PUSH3 0x2521 JUMP JUMPDEST PUSH1 0x0 SLOAD PUSH1 0x1 PUSH1 0x1 PUSH1 0xA0 SHL SUB AND CALLER EQ DUP1 PUSH3 0x1D75 JUMPI POP PUSH1 0x6 SLOAD PUSH1 0x1 PUSH1 0x1 PUSH1 0xA0 SHL SUB AND CALLER EQ JUMPDEST PUSH3 0x1D94 JUMPI PUSH1 0x40 MLOAD PUSH3 0x461BCD PUSH1 0xE5 SHL DUP2 MSTORE PUSH1 0x4 ADD PUSH3 0x983 SWAP1 PUSH3 0x31DD JUMP JUMPDEST PUSH1 0x1 PUSH1 0x1 PUSH1 0xA0 SHL SUB SWAP2 SWAP1 SWAP2 AND PUSH1 0x0 SWAP1 DUP2 MSTORE PUSH1 0x15 PUSH1 0x20 MSTORE PUSH1 0x40 SWAP1 KECCAK256 DUP1 SLOAD PUSH1 0xFF NOT AND SWAP2 ISZERO ISZERO SWAP2 SWAP1 SWAP2 OR SWAP1 SSTORE JUMP JUMPDEST PUSH1 0x0 SLOAD PUSH1 0x1 PUSH1 0x1 PUSH1 0xA0 SHL SUB AND CALLER EQ DUP1 PUSH3 0x1DE3 JUMPI POP PUSH1 0x6 SLOAD PUSH1 0x1 PUSH1 0x1 PUSH1 0xA0 SHL SUB AND CALLER EQ JUMPDEST PUSH3 0x1E02 JUMPI PUSH1 0x40 MLOAD PUSH3 0x461BCD PUSH1 0xE5 SHL DUP2 MSTORE PUSH1 0x4 ADD PUSH3 0x983 SWAP1 PUSH3 0x31DD JUMP JUMPDEST PUSH1 0x1 PUSH1 0x1 PUSH1 0xA0 SHL SUB SWAP2 SWAP1 SWAP2 AND PUSH1 0x0 SWAP1 DUP2 MSTORE PUSH1 0x14 PUSH1 0x20 MSTORE PUSH1 0x40 SWAP1 KECCAK256 DUP1 SLOAD PUSH1 0xFF NOT AND SWAP2 ISZERO ISZERO SWAP2 SWAP1 SWAP2 OR SWAP1 SSTORE JUMP JUMPDEST PUSH1 0x0 SLOAD PUSH1 0x1 PUSH1 0x1 PUSH1 0xA0 SHL SUB AND CALLER EQ DUP1 PUSH3 0x1E51 JUMPI POP PUSH1 0x6 SLOAD PUSH1 0x1 PUSH1 0x1 PUSH1 0xA0 SHL SUB AND CALLER EQ JUMPDEST PUSH3 0x1E70 JUMPI PUSH1 0x40 MLOAD PUSH3 0x461BCD PUSH1 0xE5 SHL DUP2 MSTORE PUSH1 0x4 ADD PUSH3 0x983 SWAP1 PUSH3 0x31DD JUMP JUMPDEST PUSH1 0x1 PUSH1 0x1 PUSH1 0xA0 SHL SUB DUP2 DUP2 AND PUSH1 0x0 SWAP1 DUP2 MSTORE PUSH1 0x19 PUSH1 0x20 MSTORE PUSH1 0x40 SWAP1 KECCAK256 SLOAD AND PUSH3 0x1ECA JUMPI PUSH1 0x40 MLOAD PUSH3 0x461BCD PUSH1 0xE5 SHL DUP2 MSTORE PUSH1 0x20 PUSH1 0x4 DUP3 ADD MSTORE PUSH1 0xE PUSH1 0x24 DUP3 ADD MSTORE PUSH14 0x191BD95CC81B9BDD08195E1A5CDD PUSH1 0x92 SHL PUSH1 0x44 DUP3 ADD MSTORE PUSH1 0x64 ADD PUSH3 0x983 JUMP JUMPDEST PUSH1 0x1 PUSH1 0x1 PUSH1 0xA0 SHL SUB DUP2 AND PUSH1 0x0 SWAP1 DUP2 MSTORE PUSH1 0x1A PUSH1 0x20 MSTORE PUSH1 0x40 SWAP1 KECCAK256 SLOAD PUSH1 0xFF AND ISZERO PUSH3 0x1F27 JUMPI PUSH1 0x40 MLOAD PUSH3 0x461BCD PUSH1 0xE5 SHL DUP2 MSTORE PUSH1 0x20 PUSH1 0x4 DUP3 ADD MSTORE PUSH1 0xF PUSH1 0x24 DUP3 ADD MSTORE PUSH15 0x676175676520697320616374697665 PUSH1 0x88 SHL PUSH1 0x44 DUP3 ADD MSTORE PUSH1 0x64 ADD PUSH3 0x983 JUMP JUMPDEST PUSH1 0x1 PUSH1 0x1 PUSH1 0xA0 SHL SUB DUP2 AND PUSH1 0x0 DUP2 DUP2 MSTORE PUSH1 0x1A PUSH1 0x20 SWAP1 DUP2 MSTORE PUSH1 0x40 SWAP2 DUP3 SWAP1 KECCAK256 DUP1 SLOAD PUSH1 0xFF NOT AND PUSH1 0x1 OR SWAP1 SSTORE SWAP1 MLOAD SWAP2 DUP3 MSTORE PUSH32 0x9249E27C005FD3AEB1554E7B8CB687F7E017F0651813D386F7D74EBD7245C8A2 SWAP2 ADD PUSH3 0xBA2 JUMP JUMPDEST PUSH1 0x0 DUP1 SLOAD PUSH1 0x1 PUSH1 0x1 PUSH1 0xA0 SHL SUB AND CALLER EQ DUP1 PUSH3 0x1FA1 JUMPI POP PUSH1 0x6 SLOAD PUSH1 0x1 PUSH1 0x1 PUSH1 0xA0 SHL SUB AND CALLER EQ JUMPDEST PUSH3 0x1FC0 JUMPI PUSH1 0x40 MLOAD PUSH3 0x461BCD PUSH1 0xE5 SHL DUP2 MSTORE PUSH1 0x4 ADD PUSH3 0x983 SWAP1 PUSH3 0x31DD JUMP JUMPDEST PUSH1 0x1 PUSH1 0x1 PUSH1 0xA0 SHL SUB DUP5 DUP2 AND PUSH1 0x0 SWAP1 DUP2 MSTORE PUSH1 0x19 PUSH1 0x20 MSTORE PUSH1 0x40 SWAP1 KECCAK256 SLOAD AND ISZERO PUSH3 0x2013 JUMPI PUSH1 0x40 MLOAD PUSH3 0x461BCD PUSH1 0xE5 SHL DUP2 MSTORE PUSH1 0x20 PUSH1 0x4 DUP3 ADD MSTORE PUSH1 0x6 PUSH1 0x24 DUP3 ADD MSTORE PUSH6 0x657869737473 PUSH1 0xD0 SHL PUSH1 0x44 DUP3 ADD MSTORE PUSH1 0x64 ADD PUSH3 0x983 JUMP JUMPDEST PUSH1 0x5 SLOAD PUSH1 0x4 SLOAD PUSH1 0x40 MLOAD PUSH1 0x1 PUSH1 0x1 PUSH1 0xA0 SHL SUB SWAP3 DUP4 AND SWAP3 SWAP1 SWAP2 AND SWAP1 DUP7 SWAP1 ADDRESS SWAP1 PUSH3 0x203B SWAP1 PUSH3 0x2DFF JUMP JUMPDEST PUSH1 0x1 PUSH1 0x1 PUSH1 0xA0 SHL SUB SWAP5 DUP6 AND DUP2 MSTORE SWAP3 DUP5 AND PUSH1 0x20 DUP5 ADD MSTORE SWAP1 DUP4 AND PUSH1 0x40 DUP4 ADD MSTORE SWAP1 SWAP2 AND PUSH1 0x60 DUP3 ADD MSTORE PUSH1 0x80 ADD PUSH1 0x40 MLOAD DUP1 SWAP2 SUB SWAP1 PUSH1 0x0 CREATE DUP1 ISZERO DUP1 ISZERO PUSH3 0x2080 JUMPI RETURNDATASIZE PUSH1 0x0 DUP1 RETURNDATACOPY RETURNDATASIZE PUSH1 0x0 REVERT JUMPDEST POP PUSH1 0x1 PUSH1 0x1 PUSH1 0xA0 SHL SUB DUP6 DUP2 AND PUSH1 0x0 DUP2 DUP2 MSTORE PUSH1 0x19 PUSH1 0x20 SWAP1 DUP2 MSTORE PUSH1 0x40 DUP1 DUP4 KECCAK256 DUP1 SLOAD SWAP7 DUP7 AND PUSH1 0x1 PUSH1 0x1 PUSH1 0xA0 SHL SUB NOT SWAP8 DUP9 AND OR SWAP1 SSTORE PUSH1 0x17 DUP1 SLOAD PUSH1 0x1 DUP2 DUP2 ADD SWAP1 SWAP3 SSTORE PUSH32 0xC624B66CC0138B8FABC209247F72D758E1CF3343756D543BADBF24212BED8C15 ADD DUP1 SLOAD SWAP1 SWAP8 AND SWAP1 SWAP5 OR SWAP1 SWAP6 SSTORE PUSH1 0x1A SWAP1 MSTORE DUP4 DUP2 KECCAK256 DUP1 SLOAD PUSH1 0xFF NOT AND SWAP1 SWAP3 OR SWAP1 SWAP2 SSTORE PUSH1 0x8 SLOAD DUP2 SLOAD SWAP4 MLOAD PUSH4 0x1C1E57C9 PUSH1 0xE1 SHL DUP2 MSTORE SWAP4 DUP4 AND PUSH1 0x4 DUP6 ADD MSTORE DUP7 DUP4 AND PUSH1 0x24 DUP6 ADD MSTORE DUP6 DUP4 AND PUSH1 0x44 DUP6 ADD MSTORE SWAP1 SWAP3 SWAP2 AND SWAP1 PUSH4 0x383CAF92 SWAP1 PUSH1 0x64 ADD PUSH1 0x20 PUSH1 0x40 MLOAD DUP1 DUP4 SUB DUP2 PUSH1 0x0 DUP8 GAS CALL ISZERO DUP1 ISZERO PUSH3 0x2154 JUMPI RETURNDATASIZE PUSH1 0x0 DUP1 RETURNDATACOPY RETURNDATASIZE PUSH1 0x0 REVERT JUMPDEST POP POP POP POP PUSH1 0x40 MLOAD RETURNDATASIZE PUSH1 0x1F NOT PUSH1 0x1F DUP3 ADD AND DUP3 ADD DUP1 PUSH1 0x40 MSTORE POP DUP2 ADD SWAP1 PUSH3 0x217A SWAP2 SWAP1 PUSH3 0x331C JUMP JUMPDEST PUSH1 0x1 PUSH1 0x1 PUSH1 0xA0 SHL SUB DUP7 DUP2 AND PUSH1 0x0 DUP2 DUP2 MSTORE PUSH1 0x19 PUSH1 0x20 SWAP1 DUP2 MSTORE PUSH1 0x40 DUP1 DUP4 KECCAK256 SLOAD DUP6 AND DUP4 MSTORE PUSH1 0x1B DUP3 MSTORE SWAP2 DUP3 SWAP1 KECCAK256 DUP1 SLOAD PUSH1 0x1 PUSH1 0x1 PUSH1 0xA0 SHL SUB NOT AND DUP7 DUP7 AND OR SWAP1 SSTORE DUP2 MLOAD SWAP3 DUP4 MSTORE DUP9 DUP5 AND SWAP1 DUP4 ADD MSTORE SWAP2 DUP7 AND SWAP2 DUP2 ADD SWAP2 SWAP1 SWAP2 MSTORE SWAP1 SWAP2 POP PUSH32 0xDECAB58D8A6A044C9AC75D257407891E2515835F38D07A2B7333682B8D4B6308 SWAP1 PUSH1 0x60 ADD PUSH1 0x40 MLOAD DUP1 SWAP2 SUB SWAP1 LOG1 POP POP POP POP PUSH1 0x1 PUSH1 0x1 PUSH1 0xA0 SHL SUB SWAP1 DUP2 AND PUSH1 0x0 SWAP1 DUP2 MSTORE PUSH1 0x19 PUSH1 0x20 MSTORE PUSH1 0x40 SWAP1 KECCAK256 SLOAD AND SWAP1 JUMP JUMPDEST PUSH1 0x0 NOT PUSH1 0x9 SLOAD EQ ISZERO PUSH3 0x2269 JUMPI PUSH1 0x40 MLOAD PUSH3 0x461BCD PUSH1 0xE5 SHL DUP2 MSTORE PUSH1 0x20 PUSH1 0x4 DUP3 ADD MSTORE PUSH1 0x13 PUSH1 0x24 DUP3 ADD MSTORE PUSH19 0x1C1A59081B9BDD081A5B9A5D1A585B1A5E9959 PUSH1 0x6A SHL PUSH1 0x44 DUP3 ADD MSTORE PUSH1 0x64 ADD PUSH3 0x983 JUMP JUMPDEST PUSH1 0x40 MLOAD PUSH4 0x70A08231 PUSH1 0xE0 SHL DUP2 MSTORE ADDRESS PUSH1 0x4 DUP3 ADD MSTORE PUSH32 0x0 SWAP1 PUSH1 0x0 SWAP1 PUSH1 0x1 PUSH1 0x1 PUSH1 0xA0 SHL SUB DUP4 AND SWAP1 PUSH4 0x70A08231 SWAP1 PUSH1 0x24 ADD PUSH1 0x20 PUSH1 0x40 MLOAD DUP1 DUP4 SUB DUP2 DUP7 GAS STATICCALL ISZERO DUP1 ISZERO PUSH3 0x22D3 JUMPI RETURNDATASIZE PUSH1 0x0 DUP1 RETURNDATACOPY RETURNDATASIZE PUSH1 0x0 REVERT JUMPDEST POP POP POP POP PUSH1 0x40 MLOAD RETURNDATASIZE PUSH1 0x1F NOT PUSH1 0x1F DUP3 ADD AND DUP3 ADD DUP1 PUSH1 0x40 MSTORE POP DUP2 ADD SWAP1 PUSH3 0x22F9 SWAP2 SWAP1 PUSH3 0x32AE JUMP JUMPDEST PUSH1 0x3 SLOAD SWAP1 SWAP2 POP PUSH3 0x2319 SWAP1 PUSH1 0x1 PUSH1 0x1 PUSH1 0xA0 SHL SUB DUP5 DUP2 AND SWAP2 AND PUSH1 0x0 PUSH3 0x280B JUMP JUMPDEST PUSH1 0x3 SLOAD PUSH3 0x2335 SWAP1 PUSH1 0x1 PUSH1 0x1 PUSH1 0xA0 SHL SUB DUP5 DUP2 AND SWAP2 AND DUP4 PUSH3 0x280B JUMP JUMPDEST PUSH1 0x3 SLOAD PUSH1 0x9 SLOAD PUSH1 0x40 MLOAD PUSH4 0x1C57762B PUSH1 0xE3 SHL DUP2 MSTORE PUSH1 0x1 PUSH1 0x1 PUSH1 0xA0 SHL SUB SWAP1 SWAP3 AND SWAP2 PUSH4 0xE2BBB158 SWAP2 PUSH3 0x2372 SWAP2 DUP6 SWAP1 PUSH1 0x4 ADD SWAP2 DUP3 MSTORE PUSH1 0x20 DUP3 ADD MSTORE PUSH1 0x40 ADD SWAP1 JUMP JUMPDEST PUSH1 0x0 PUSH1 0x40 MLOAD DUP1 DUP4 SUB DUP2 PUSH1 0x0 DUP8 DUP1 EXTCODESIZE ISZERO DUP1 ISZERO PUSH3 0x238D JUMPI PUSH1 0x0 DUP1 REVERT JUMPDEST POP GAS CALL ISZERO DUP1 ISZERO PUSH3 0xCAD JUMPI RETURNDATASIZE PUSH1 0x0 DUP1 RETURNDATACOPY RETURNDATASIZE PUSH1 0x0 REVERT JUMPDEST PUSH3 0x23AD CALLER PUSH3 0x2A81 JUMP JUMPDEST JUMP JUMPDEST PUSH1 0x1E PUSH1 0x20 MSTORE DUP2 PUSH1 0x0 MSTORE PUSH1 0x40 PUSH1 0x0 KECCAK256 DUP2 DUP2 SLOAD DUP2 LT PUSH3 0x23CC JUMPI PUSH1 0x0 DUP1 REVERT JUMPDEST PUSH1 0x0 SWAP2 DUP3 MSTORE PUSH1 0x20 SWAP1 SWAP2 KECCAK256 ADD SLOAD PUSH1 0x1 PUSH1 0x1 PUSH1 0xA0 SHL SUB AND SWAP2 POP DUP3 SWAP1 POP JUMP JUMPDEST PUSH1 0x0 SLOAD PUSH1 0x1 PUSH1 0x1 PUSH1 0xA0 SHL SUB AND CALLER EQ DUP1 PUSH3 0x240C JUMPI POP PUSH1 0x6 SLOAD PUSH1 0x1 PUSH1 0x1 PUSH1 0xA0 SHL SUB AND CALLER EQ JUMPDEST PUSH3 0x245A JUMPI PUSH1 0x40 MLOAD PUSH3 0x461BCD PUSH1 0xE5 SHL DUP2 MSTORE PUSH1 0x20 PUSH1 0x4 DUP3 ADD MSTORE PUSH1 0x1F PUSH1 0x24 DUP3 ADD MSTORE PUSH32 0x7475726E56654F6E3A207065726D697373696F6E2069732064656E6965642100 PUSH1 0x44 DUP3 ADD MSTORE PUSH1 0x64 ADD PUSH3 0x983 JUMP JUMPDEST PUSH1 0x16 DUP1 SLOAD PUSH1 0xFF PUSH1 0xA0 SHL NOT DUP2 AND PUSH1 0x1 PUSH1 0xA0 SHL SWAP2 DUP3 SWAP1 DIV PUSH1 0xFF AND ISZERO SWAP1 SWAP2 MUL OR SWAP1 SSTORE JUMP JUMPDEST PUSH1 0x0 JUMPDEST DUP3 MLOAD DUP2 LT ISZERO PUSH3 0x251C JUMPI DUP3 DUP2 DUP2 MLOAD DUP2 LT PUSH3 0x249D JUMPI PUSH3 0x249D PUSH3 0x3235 JUMP JUMPDEST PUSH1 0x20 SWAP1 DUP2 MUL SWAP2 SWAP1 SWAP2 ADD ADD MLOAD PUSH1 0x40 MLOAD PUSH4 0xEF0D090F PUSH1 0xE0 SHL DUP2 MSTORE PUSH1 0x1 PUSH1 0x1 PUSH1 0xA0 SHL SUB DUP5 DUP2 AND PUSH1 0x4 DUP4 ADD MSTORE SWAP1 SWAP2 AND SWAP1 PUSH4 0xEF0D090F SWAP1 PUSH1 0x24 ADD PUSH1 0x0 PUSH1 0x40 MLOAD DUP1 DUP4 SUB DUP2 PUSH1 0x0 DUP8 DUP1 EXTCODESIZE ISZERO DUP1 ISZERO PUSH3 0x24ED JUMPI PUSH1 0x0 DUP1 REVERT JUMPDEST POP GAS CALL ISZERO DUP1 ISZERO PUSH3 0x2502 JUMPI RETURNDATASIZE PUSH1 0x0 DUP1 RETURNDATACOPY RETURNDATASIZE PUSH1 0x0 REVERT JUMPDEST POP POP POP POP DUP1 DUP1 PUSH3 0x2513 SWAP1 PUSH3 0x3290 JUMP JUMPDEST SWAP2 POP POP PUSH3 0x247E JUMP JUMPDEST POP POP POP JUMP JUMPDEST PUSH3 0x252C DUP4 PUSH3 0x2A81 JUMP JUMPDEST DUP2 MLOAD PUSH1 0x4 DUP1 SLOAD PUSH1 0x40 MLOAD PUSH4 0x70A08231 PUSH1 0xE0 SHL DUP2 MSTORE PUSH1 0x1 PUSH1 0x1 PUSH1 0xA0 SHL SUB DUP8 DUP2 AND SWAP4 DUP3 ADD SWAP4 SWAP1 SWAP4 MSTORE PUSH1 0x0 SWAP3 SWAP1 SWAP2 AND SWAP1 PUSH4 0x70A08231 SWAP1 PUSH1 0x24 ADD PUSH1 0x20 PUSH1 0x40 MLOAD DUP1 DUP4 SUB DUP2 DUP7 GAS STATICCALL ISZERO DUP1 ISZERO PUSH3 0x257F JUMPI RETURNDATASIZE PUSH1 0x0 DUP1 RETURNDATACOPY RETURNDATASIZE PUSH1 0x0 REVERT JUMPDEST POP POP POP POP PUSH1 0x40 MLOAD RETURNDATASIZE PUSH1 0x1F NOT PUSH1 0x1F DUP3 ADD AND DUP3 ADD DUP1 PUSH1 0x40 MSTORE POP DUP2 ADD SWAP1 PUSH3 0x25A5 SWAP2 SWAP1 PUSH3 0x32AE JUMP JUMPDEST SWAP1 POP PUSH1 0x0 DUP1 PUSH1 0x0 JUMPDEST DUP5 DUP2 LT ISZERO PUSH3 0x25F7 JUMPI DUP6 DUP2 DUP2 MLOAD DUP2 LT PUSH3 0x25CB JUMPI PUSH3 0x25CB PUSH3 0x3235 JUMP JUMPDEST PUSH1 0x20 MUL PUSH1 0x20 ADD ADD MLOAD DUP4 PUSH3 0x25E0 SWAP2 SWAP1 PUSH3 0x333C JUMP JUMPDEST SWAP3 POP DUP1 PUSH3 0x25EE DUP2 PUSH3 0x3290 JUMP JUMPDEST SWAP2 POP POP PUSH3 0x25AD JUMP JUMPDEST POP PUSH1 0x0 JUMPDEST DUP5 DUP2 LT ISZERO PUSH3 0x27E6 JUMPI PUSH1 0x0 DUP8 DUP3 DUP2 MLOAD DUP2 LT PUSH3 0x261B JUMPI PUSH3 0x261B PUSH3 0x3235 JUMP JUMPDEST PUSH1 0x20 SWAP1 DUP2 MUL SWAP2 SWAP1 SWAP2 ADD DUP2 ADD MLOAD PUSH1 0x1 PUSH1 0x1 PUSH1 0xA0 SHL SUB DUP1 DUP3 AND PUSH1 0x0 SWAP1 DUP2 MSTORE PUSH1 0x19 SWAP1 SWAP4 MSTORE PUSH1 0x40 DUP4 KECCAK256 SLOAD DUP11 MLOAD SWAP3 SWAP5 POP AND SWAP2 SWAP1 DUP7 SWAP1 DUP9 SWAP1 DUP12 SWAP1 DUP8 SWAP1 DUP2 LT PUSH3 0x2662 JUMPI PUSH3 0x2662 PUSH3 0x3235 JUMP JUMPDEST PUSH1 0x20 MUL PUSH1 0x20 ADD ADD MLOAD PUSH3 0x2676 SWAP2 SWAP1 PUSH3 0x324B JUMP JUMPDEST PUSH3 0x2682 SWAP2 SWAP1 PUSH3 0x326D JUMP JUMPDEST SWAP1 POP PUSH1 0x1 PUSH1 0x1 PUSH1 0xA0 SHL SUB DUP3 AND ISZERO DUP1 ISZERO SWAP1 PUSH3 0x26B5 JUMPI POP PUSH1 0x1 PUSH1 0x1 PUSH1 0xA0 SHL SUB DUP4 AND PUSH1 0x0 SWAP1 DUP2 MSTORE PUSH1 0x1A PUSH1 0x20 MSTORE PUSH1 0x40 SWAP1 KECCAK256 SLOAD PUSH1 0xFF AND JUMPDEST ISZERO PUSH3 0x27CD JUMPI PUSH3 0x26C7 DUP2 DUP7 PUSH3 0x333C JUMP JUMPDEST SWAP5 POP DUP1 PUSH1 0xA SLOAD PUSH3 0x26D9 SWAP2 SWAP1 PUSH3 0x333C JUMP JUMPDEST PUSH1 0xA SSTORE PUSH1 0x1 PUSH1 0x1 PUSH1 0xA0 SHL SUB DUP4 AND PUSH1 0x0 SWAP1 DUP2 MSTORE PUSH1 0x1C PUSH1 0x20 MSTORE PUSH1 0x40 SWAP1 KECCAK256 SLOAD PUSH3 0x2702 SWAP1 DUP3 SWAP1 PUSH3 0x333C JUMP JUMPDEST PUSH1 0x1 PUSH1 0x1 PUSH1 0xA0 SHL SUB DUP5 DUP2 AND PUSH1 0x0 DUP2 DUP2 MSTORE PUSH1 0x1C PUSH1 0x20 SWAP1 DUP2 MSTORE PUSH1 0x40 DUP1 DUP4 KECCAK256 SWAP6 SWAP1 SWAP6 SSTORE DUP16 DUP5 AND DUP1 DUP4 MSTORE PUSH1 0x1E DUP3 MSTORE DUP6 DUP4 KECCAK256 DUP1 SLOAD PUSH1 0x1 DUP2 ADD DUP3 SSTORE SWAP1 DUP5 MSTORE DUP3 DUP5 KECCAK256 ADD DUP1 SLOAD PUSH1 0x1 PUSH1 0x1 PUSH1 0xA0 SHL SUB NOT AND DUP6 OR SWAP1 SSTORE DUP1 DUP4 MSTORE PUSH1 0x1D DUP3 MSTORE DUP6 DUP4 KECCAK256 SWAP4 DUP4 MSTORE SWAP3 DUP2 MSTORE DUP5 DUP3 KECCAK256 DUP7 SWAP1 SSTORE DUP7 DUP5 AND DUP3 MSTORE PUSH1 0x1B SWAP1 MSTORE DUP4 SWAP1 KECCAK256 SLOAD SWAP3 MLOAD PUSH4 0x463CD97 PUSH1 0xE4 SHL DUP2 MSTORE PUSH1 0x4 DUP2 ADD DUP6 SWAP1 MSTORE PUSH1 0x24 DUP2 ADD SWAP2 SWAP1 SWAP2 MSTORE SWAP2 AND SWAP1 PUSH4 0x463CD970 SWAP1 PUSH1 0x44 ADD PUSH1 0x0 PUSH1 0x40 MLOAD DUP1 DUP4 SUB DUP2 PUSH1 0x0 DUP8 DUP1 EXTCODESIZE ISZERO DUP1 ISZERO PUSH3 0x27B3 JUMPI PUSH1 0x0 DUP1 REVERT JUMPDEST POP GAS CALL ISZERO DUP1 ISZERO PUSH3 0x27C8 JUMPI RETURNDATASIZE PUSH1 0x0 DUP1 RETURNDATACOPY RETURNDATASIZE PUSH1 0x0 REVERT JUMPDEST POP POP POP POP JUMPDEST POP POP POP DUP1 DUP1 PUSH3 0x27DD SWAP1 PUSH3 0x3290 JUMP JUMPDEST SWAP2 POP POP PUSH3 0x25FB JUMP JUMPDEST POP PUSH1 0x1 PUSH1 0x1 PUSH1 0xA0 SHL SUB SWAP1 SWAP7 AND PUSH1 0x0 SWAP1 DUP2 MSTORE PUSH1 0x1F PUSH1 0x20 MSTORE PUSH1 0x40 SWAP1 KECCAK256 SWAP6 SWAP1 SWAP6 SSTORE POP POP POP POP POP JUMP JUMPDEST DUP1 ISZERO DUP1 PUSH3 0x2889 JUMPI POP PUSH1 0x40 MLOAD PUSH4 0x6EB1769F PUSH1 0xE1 SHL DUP2 MSTORE ADDRESS PUSH1 0x4 DUP3 ADD MSTORE PUSH1 0x1 PUSH1 0x1 PUSH1 0xA0 SHL SUB DUP4 DUP2 AND PUSH1 0x24 DUP4 ADD MSTORE DUP5 AND SWAP1 PUSH4 0xDD62ED3E SWAP1 PUSH1 0x44 ADD PUSH1 0x20 PUSH1 0x40 MLOAD DUP1 DUP4 SUB DUP2 DUP7 GAS STATICCALL ISZERO DUP1 ISZERO PUSH3 0x2861 JUMPI RETURNDATASIZE PUSH1 0x0 DUP1 RETURNDATACOPY RETURNDATASIZE PUSH1 0x0 REVERT JUMPDEST POP POP POP POP PUSH1 0x40 MLOAD RETURNDATASIZE PUSH1 0x1F NOT PUSH1 0x1F DUP3 ADD AND DUP3 ADD DUP1 PUSH1 0x40 MSTORE POP DUP2 ADD SWAP1 PUSH3 0x2887 SWAP2 SWAP1 PUSH3 0x32AE JUMP JUMPDEST ISZERO JUMPDEST PUSH3 0x28F6 JUMPI PUSH1 0x40 MLOAD PUSH3 0x461BCD PUSH1 0xE5 SHL DUP2 MSTORE PUSH1 0x20 PUSH1 0x4 DUP3 ADD MSTORE PUSH1 0x36 PUSH1 0x24 DUP3 ADD MSTORE PUSH32 0x5361666545524332303A20617070726F76652066726F6D206E6F6E2D7A65726F PUSH1 0x44 DUP3 ADD MSTORE PUSH22 0x20746F206E6F6E2D7A65726F20616C6C6F77616E6365 PUSH1 0x50 SHL PUSH1 0x64 DUP3 ADD MSTORE PUSH1 0x84 ADD PUSH3 0x983 JUMP JUMPDEST PUSH1 0x40 MLOAD PUSH1 0x1 PUSH1 0x1 PUSH1 0xA0 SHL SUB DUP4 AND PUSH1 0x24 DUP3 ADD MSTORE PUSH1 0x44 DUP2 ADD DUP3 SWAP1 MSTORE PUSH3 0x251C SWAP1 DUP5 SWAP1 PUSH4 0x95EA7B3 PUSH1 0xE0 SHL SWAP1 PUSH1 0x64 ADD JUMPDEST PUSH1 0x40 DUP1 MLOAD PUSH1 0x1F NOT DUP2 DUP5 SUB ADD DUP2 MSTORE SWAP2 SWAP1 MSTORE PUSH1 0x20 DUP2 ADD DUP1 MLOAD PUSH1 0x1 PUSH1 0x1 PUSH1 0xE0 SHL SUB AND PUSH1 0x1 PUSH1 0x1 PUSH1 0xE0 SHL SUB NOT SWAP1 SWAP4 AND SWAP3 SWAP1 SWAP3 OR SWAP1 SWAP2 MSTORE PUSH3 0x2C26 JUMP JUMPDEST PUSH1 0x3 SLOAD PUSH1 0x9 SLOAD PUSH1 0x40 MLOAD PUSH4 0x93F1A40B PUSH1 0xE0 SHL DUP2 MSTORE PUSH1 0x4 DUP2 ADD SWAP2 SWAP1 SWAP2 MSTORE ADDRESS PUSH1 0x24 DUP3 ADD MSTORE PUSH1 0x0 SWAP2 PUSH1 0x1 PUSH1 0x1 PUSH1 0xA0 SHL SUB AND SWAP1 PUSH4 0x93F1A40B SWAP1 PUSH1 0x44 ADD PUSH1 0x40 DUP1 MLOAD DUP1 DUP4 SUB DUP2 DUP7 GAS STATICCALL ISZERO DUP1 ISZERO PUSH3 0x29AF JUMPI RETURNDATASIZE PUSH1 0x0 DUP1 RETURNDATACOPY RETURNDATASIZE PUSH1 0x0 REVERT JUMPDEST POP POP POP POP PUSH1 0x40 MLOAD RETURNDATASIZE PUSH1 0x1F NOT PUSH1 0x1F DUP3 ADD AND DUP3 ADD DUP1 PUSH1 0x40 MSTORE POP DUP2 ADD SWAP1 PUSH3 0x29D5 SWAP2 SWAP1 PUSH3 0x3357 JUMP JUMPDEST POP PUSH1 0x3 SLOAD PUSH1 0x9 SLOAD PUSH1 0x40 MLOAD PUSH4 0x441A3E7 PUSH1 0xE4 SHL DUP2 MSTORE PUSH1 0x4 DUP2 ADD SWAP2 SWAP1 SWAP2 MSTORE PUSH1 0x24 DUP2 ADD DUP4 SWAP1 MSTORE SWAP2 SWAP3 POP PUSH1 0x1 PUSH1 0x1 PUSH1 0xA0 SHL SUB AND SWAP1 PUSH4 0x441A3E70 SWAP1 PUSH1 0x44 ADD PUSH1 0x0 PUSH1 0x40 MLOAD DUP1 DUP4 SUB DUP2 PUSH1 0x0 DUP8 DUP1 EXTCODESIZE ISZERO DUP1 ISZERO PUSH3 0x2A29 JUMPI PUSH1 0x0 DUP1 REVERT JUMPDEST POP GAS CALL ISZERO DUP1 ISZERO PUSH3 0x2A3E JUMPI RETURNDATASIZE PUSH1 0x0 DUP1 RETURNDATACOPY RETURNDATASIZE PUSH1 0x0 REVERT JUMPDEST POP POP POP POP PUSH3 0x2A4C PUSH3 0x221D JUMP JUMPDEST POP JUMP JUMPDEST PUSH1 0x40 MLOAD PUSH1 0x1 PUSH1 0x1 PUSH1 0xA0 SHL SUB DUP4 AND PUSH1 0x24 DUP3 ADD MSTORE PUSH1 0x44 DUP2 ADD DUP3 SWAP1 MSTORE PUSH3 0x251C SWAP1 DUP5 SWAP1 PUSH4 0xA9059CBB PUSH1 0xE0 SHL SWAP1 PUSH1 0x64 ADD PUSH3 0x2923 JUMP JUMPDEST PUSH1 0x1 PUSH1 0x1 PUSH1 0xA0 SHL SUB DUP2 AND PUSH1 0x0 SWAP1 DUP2 MSTORE PUSH1 0x1E PUSH1 0x20 MSTORE PUSH1 0x40 DUP2 KECCAK256 DUP1 SLOAD SWAP1 SWAP2 JUMPDEST DUP2 DUP2 LT ISZERO PUSH3 0x2C02 JUMPI PUSH1 0x0 DUP4 DUP3 DUP2 SLOAD DUP2 LT PUSH3 0x2ABE JUMPI PUSH3 0x2ABE PUSH3 0x3235 JUMP JUMPDEST PUSH1 0x0 SWAP2 DUP3 MSTORE PUSH1 0x20 DUP1 DUP4 KECCAK256 SWAP1 SWAP2 ADD SLOAD PUSH1 0x1 PUSH1 0x1 PUSH1 0xA0 SHL SUB DUP9 DUP2 AND DUP5 MSTORE PUSH1 0x1D DUP4 MSTORE PUSH1 0x40 DUP1 DUP6 KECCAK256 SWAP2 SWAP1 SWAP3 AND DUP1 DUP6 MSTORE SWAP3 MSTORE SWAP1 SWAP2 KECCAK256 SLOAD SWAP1 SWAP2 POP DUP1 ISZERO PUSH3 0x2BEA JUMPI DUP1 PUSH1 0xA SLOAD PUSH3 0x2B09 SWAP2 SWAP1 PUSH3 0x321B JUMP JUMPDEST PUSH1 0xA SSTORE PUSH1 0x1 PUSH1 0x1 PUSH1 0xA0 SHL SUB DUP3 AND PUSH1 0x0 SWAP1 DUP2 MSTORE PUSH1 0x1C PUSH1 0x20 MSTORE PUSH1 0x40 SWAP1 KECCAK256 SLOAD PUSH3 0x2B32 SWAP1 DUP3 SWAP1 PUSH3 0x321B JUMP JUMPDEST PUSH1 0x1 PUSH1 0x1 PUSH1 0xA0 SHL SUB DUP4 DUP2 AND PUSH1 0x0 SWAP1 DUP2 MSTORE PUSH1 0x1C PUSH1 0x20 SWAP1 DUP2 MSTORE PUSH1 0x40 DUP1 DUP4 KECCAK256 SWAP5 SWAP1 SWAP5 SSTORE PUSH1 0x19 DUP2 MSTORE DUP4 DUP3 KECCAK256 SLOAD DUP4 AND DUP3 MSTORE PUSH1 0x1B SWAP1 MSTORE DUP3 SWAP1 KECCAK256 SLOAD SWAP2 MLOAD PUSH4 0x293311AB PUSH1 0xE0 SHL DUP2 MSTORE PUSH1 0x4 DUP2 ADD DUP5 SWAP1 MSTORE DUP9 DUP3 AND PUSH1 0x24 DUP3 ADD MSTORE SWAP2 AND SWAP1 PUSH4 0x293311AB SWAP1 PUSH1 0x44 ADD PUSH1 0x0 PUSH1 0x40 MLOAD DUP1 DUP4 SUB DUP2 PUSH1 0x0 DUP8 DUP1 EXTCODESIZE ISZERO DUP1 ISZERO PUSH3 0x2BA8 JUMPI PUSH1 0x0 DUP1 REVERT JUMPDEST POP GAS CALL ISZERO DUP1 ISZERO PUSH3 0x2BBD JUMPI RETURNDATASIZE PUSH1 0x0 DUP1 RETURNDATACOPY RETURNDATASIZE PUSH1 0x0 REVERT JUMPDEST POP POP POP PUSH1 0x1 PUSH1 0x1 PUSH1 0xA0 SHL SUB DUP1 DUP9 AND PUSH1 0x0 SWAP1 DUP2 MSTORE PUSH1 0x1D PUSH1 0x20 SWAP1 DUP2 MSTORE PUSH1 0x40 DUP1 DUP4 KECCAK256 SWAP4 DUP8 AND DUP4 MSTORE SWAP3 SWAP1 MSTORE SWAP1 DUP2 KECCAK256 SSTORE POP JUMPDEST POP POP DUP1 DUP1 PUSH3 0x2BF9 SWAP1 PUSH3 0x3290 JUMP JUMPDEST SWAP2 POP POP PUSH3 0x2A9E JUMP JUMPDEST POP PUSH1 0x1 PUSH1 0x1 PUSH1 0xA0 SHL SUB DUP4 AND PUSH1 0x0 SWAP1 DUP2 MSTORE PUSH1 0x1E PUSH1 0x20 MSTORE PUSH1 0x40 DUP2 KECCAK256 PUSH3 0x251C SWAP2 PUSH3 0x2E0D JUMP JUMPDEST PUSH3 0x2C3A DUP3 PUSH1 0x1 PUSH1 0x1 PUSH1 0xA0 SHL SUB AND PUSH3 0x2DC2 JUMP JUMPDEST PUSH3 0x2C88 JUMPI PUSH1 0x40 MLOAD PUSH3 0x461BCD PUSH1 0xE5 SHL DUP2 MSTORE PUSH1 0x20 PUSH1 0x4 DUP3 ADD MSTORE PUSH1 0x1F PUSH1 0x24 DUP3 ADD MSTORE PUSH32 0x5361666545524332303A2063616C6C20746F206E6F6E2D636F6E747261637400 PUSH1 0x44 DUP3 ADD MSTORE PUSH1 0x64 ADD PUSH3 0x983 JUMP JUMPDEST PUSH1 0x0 DUP1 DUP4 PUSH1 0x1 PUSH1 0x1 PUSH1 0xA0 SHL SUB AND DUP4 PUSH1 0x40 MLOAD PUSH3 0x2CA5 SWAP2 SWAP1 PUSH3 0x337C JUMP JUMPDEST PUSH1 0x0 PUSH1 0x40 MLOAD DUP1 DUP4 SUB DUP2 PUSH1 0x0 DUP7 GAS CALL SWAP2 POP POP RETURNDATASIZE DUP1 PUSH1 0x0 DUP2 EQ PUSH3 0x2CE4 JUMPI PUSH1 0x40 MLOAD SWAP2 POP PUSH1 0x1F NOT PUSH1 0x3F RETURNDATASIZE ADD AND DUP3 ADD PUSH1 0x40 MSTORE RETURNDATASIZE DUP3 MSTORE RETURNDATASIZE PUSH1 0x0 PUSH1 0x20 DUP5 ADD RETURNDATACOPY PUSH3 0x2CE9 JUMP JUMPDEST PUSH1 0x60 SWAP2 POP JUMPDEST POP SWAP2 POP SWAP2 POP DUP2 PUSH3 0x2D3D JUMPI PUSH1 0x40 MLOAD PUSH3 0x461BCD PUSH1 0xE5 SHL DUP2 MSTORE PUSH1 0x20 PUSH1 0x4 DUP3 ADD DUP2 SWAP1 MSTORE PUSH1 0x24 DUP3 ADD MSTORE PUSH32 0x5361666545524332303A206C6F772D6C6576656C2063616C6C206661696C6564 PUSH1 0x44 DUP3 ADD MSTORE PUSH1 0x64 ADD PUSH3 0x983 JUMP JUMPDEST DUP1 MLOAD ISZERO PUSH3 0x2DBC JUMPI DUP1 DUP1 PUSH1 0x20 ADD SWAP1 MLOAD DUP2 ADD SWAP1 PUSH3 0x2D5B SWAP2 SWAP1 PUSH3 0x32C8 JUMP JUMPDEST PUSH3 0x2DBC JUMPI PUSH1 0x40 MLOAD PUSH3 0x461BCD PUSH1 0xE5 SHL DUP2 MSTORE PUSH1 0x20 PUSH1 0x4 DUP3 ADD MSTORE PUSH1 0x2A PUSH1 0x24 DUP3 ADD MSTORE PUSH32 0x5361666545524332303A204552433230206F7065726174696F6E20646964206E PUSH1 0x44 DUP3 ADD MSTORE PUSH10 0x1BDD081CDD58D8D95959 PUSH1 0xB2 SHL PUSH1 0x64 DUP3 ADD MSTORE PUSH1 0x84 ADD PUSH3 0x983 JUMP JUMPDEST POP POP POP POP JUMP JUMPDEST PUSH1 0x0 DUP2 EXTCODEHASH PUSH32 0xC5D2460186F7233C927E7DB2DCC703C0E500B653CA82273B7BFAD8045D85A470 DUP2 ISZERO DUP1 ISZERO SWAP1 PUSH3 0x2DF7 JUMPI POP DUP1 DUP3 EQ ISZERO JUMPDEST SWAP5 SWAP4 POP POP POP POP JUMP JUMPDEST PUSH2 0x1B4B DUP1 PUSH3 0x33BB DUP4 CODECOPY ADD SWAP1 JUMP JUMPDEST POP DUP1 SLOAD PUSH1 0x0 DUP3 SSTORE SWAP1 PUSH1 0x0 MSTORE PUSH1 0x20 PUSH1 0x0 KECCAK256 SWAP1 DUP2 ADD SWAP1 PUSH3 0x2A4C SWAP2 SWAP1 JUMPDEST DUP1 DUP3 GT ISZERO PUSH3 0x2E3E JUMPI PUSH1 0x0 DUP2 SSTORE PUSH1 0x1 ADD PUSH3 0x2E28 JUMP JUMPDEST POP SWAP1 JUMP JUMPDEST PUSH1 0x1 PUSH1 0x1 PUSH1 0xA0 SHL SUB DUP2 AND DUP2 EQ PUSH3 0x2A4C JUMPI PUSH1 0x0 DUP1 REVERT JUMPDEST DUP1 CALLDATALOAD PUSH3 0x2E65 DUP2 PUSH3 0x2E42 JUMP JUMPDEST SWAP2 SWAP1 POP JUMP JUMPDEST PUSH1 0x0 PUSH1 0x20 DUP3 DUP5 SUB SLT ISZERO PUSH3 0x2E7D JUMPI PUSH1 0x0 DUP1 REVERT JUMPDEST DUP2 CALLDATALOAD PUSH3 0x2E8A DUP2 PUSH3 0x2E42 JUMP JUMPDEST SWAP4 SWAP3 POP POP POP JUMP JUMPDEST PUSH1 0x0 DUP1 DUP4 PUSH1 0x1F DUP5 ADD SLT PUSH3 0x2EA4 JUMPI PUSH1 0x0 DUP1 REVERT JUMPDEST POP DUP2 CALLDATALOAD PUSH8 0xFFFFFFFFFFFFFFFF DUP2 GT ISZERO PUSH3 0x2EBD JUMPI PUSH1 0x0 DUP1 REVERT JUMPDEST PUSH1 0x20 DUP4 ADD SWAP2 POP DUP4 PUSH1 0x20 DUP3 PUSH1 0x5 SHL DUP6 ADD ADD GT ISZERO PUSH3 0x2ED9 JUMPI PUSH1 0x0 DUP1 REVERT JUMPDEST SWAP3 POP SWAP3 SWAP1 POP JUMP JUMPDEST PUSH1 0x0 DUP1 PUSH1 0x0 DUP1 PUSH1 0x40 DUP6 DUP8 SUB SLT ISZERO PUSH3 0x2EF7 JUMPI PUSH1 0x0 DUP1 REVERT JUMPDEST DUP5 CALLDATALOAD PUSH8 0xFFFFFFFFFFFFFFFF DUP1 DUP3 GT ISZERO PUSH3 0x2F10 JUMPI PUSH1 0x0 DUP1 REVERT JUMPDEST PUSH3 0x2F1E DUP9 DUP4 DUP10 ADD PUSH3 0x2E91 JUMP JUMPDEST SWAP1 SWAP7 POP SWAP5 POP PUSH1 0x20 DUP8 ADD CALLDATALOAD SWAP2 POP DUP1 DUP3 GT ISZERO PUSH3 0x2F38 JUMPI PUSH1 0x0 DUP1 REVERT JUMPDEST POP PUSH3 0x2F47 DUP8 DUP3 DUP9 ADD PUSH3 0x2E91 JUMP JUMPDEST SWAP6 SWAP9 SWAP5 SWAP8 POP SWAP6 POP POP POP POP JUMP JUMPDEST PUSH1 0x0 DUP1 PUSH1 0x40 DUP4 DUP6 SUB SLT ISZERO PUSH3 0x2F67 JUMPI PUSH1 0x0 DUP1 REVERT JUMPDEST POP POP DUP1 CALLDATALOAD SWAP3 PUSH1 0x20 SWAP1 SWAP2 ADD CALLDATALOAD SWAP2 POP JUMP JUMPDEST PUSH1 0x0 PUSH1 0x20 DUP3 DUP5 SUB SLT ISZERO PUSH3 0x2F89 JUMPI PUSH1 0x0 DUP1 REVERT JUMPDEST POP CALLDATALOAD SWAP2 SWAP1 POP JUMP JUMPDEST PUSH1 0x20 DUP1 DUP3 MSTORE DUP3 MLOAD DUP3 DUP3 ADD DUP2 SWAP1 MSTORE PUSH1 0x0 SWAP2 SWAP1 DUP5 DUP3 ADD SWAP1 PUSH1 0x40 DUP6 ADD SWAP1 DUP5 JUMPDEST DUP2 DUP2 LT ISZERO PUSH3 0x2FD3 JUMPI DUP4 MLOAD PUSH1 0x1 PUSH1 0x1 PUSH1 0xA0 SHL SUB AND DUP4 MSTORE SWAP3 DUP5 ADD SWAP3 SWAP2 DUP5 ADD SWAP2 PUSH1 0x1 ADD PUSH3 0x2FAC JUMP JUMPDEST POP SWAP1 SWAP7 SWAP6 POP POP POP POP POP POP JUMP JUMPDEST DUP1 ISZERO ISZERO DUP2 EQ PUSH3 0x2A4C JUMPI PUSH1 0x0 DUP1 REVERT JUMPDEST PUSH1 0x0 DUP1 PUSH1 0x40 DUP4 DUP6 SUB SLT ISZERO PUSH3 0x3002 JUMPI PUSH1 0x0 DUP1 REVERT JUMPDEST DUP3 CALLDATALOAD PUSH3 0x300F DUP2 PUSH3 0x2E42 JUMP JUMPDEST SWAP2 POP PUSH1 0x20 DUP4 ADD CALLDATALOAD PUSH3 0x3021 DUP2 PUSH3 0x2FDF JUMP JUMPDEST DUP1 SWAP2 POP POP SWAP3 POP SWAP3 SWAP1 POP JUMP JUMPDEST PUSH1 0x0 DUP1 PUSH1 0x0 PUSH1 0x60 DUP5 DUP7 SUB SLT ISZERO PUSH3 0x3042 JUMPI PUSH1 0x0 DUP1 REVERT JUMPDEST DUP4 CALLDATALOAD PUSH3 0x304F DUP2 PUSH3 0x2E42 JUMP JUMPDEST SWAP3 POP PUSH1 0x20 DUP5 ADD CALLDATALOAD PUSH3 0x3061 DUP2 PUSH3 0x2E42 JUMP JUMPDEST SWAP2 POP PUSH1 0x40 DUP5 ADD CALLDATALOAD PUSH3 0x3073 DUP2 PUSH3 0x2E42 JUMP JUMPDEST DUP1 SWAP2 POP POP SWAP3 POP SWAP3 POP SWAP3 JUMP JUMPDEST PUSH1 0x0 DUP1 PUSH1 0x40 DUP4 DUP6 SUB SLT ISZERO PUSH3 0x3092 JUMPI PUSH1 0x0 DUP1 REVERT JUMPDEST DUP3 CALLDATALOAD PUSH3 0x309F DUP2 PUSH3 0x2E42 JUMP JUMPDEST SWAP2 POP PUSH1 0x20 DUP4 ADD CALLDATALOAD PUSH3 0x3021 DUP2 PUSH3 0x2E42 JUMP JUMPDEST PUSH1 0x0 DUP1 PUSH1 0x40 DUP4 DUP6 SUB SLT ISZERO PUSH3 0x30C5 JUMPI PUSH1 0x0 DUP1 REVERT JUMPDEST DUP3 CALLDATALOAD PUSH3 0x30D2 DUP2 PUSH3 0x2E42 JUMP JUMPDEST SWAP5 PUSH1 0x20 SWAP4 SWAP1 SWAP4 ADD CALLDATALOAD SWAP4 POP POP POP JUMP JUMPDEST PUSH4 0x4E487B71 PUSH1 0xE0 SHL PUSH1 0x0 MSTORE PUSH1 0x41 PUSH1 0x4 MSTORE PUSH1 0x24 PUSH1 0x0 REVERT JUMPDEST PUSH1 0x0 DUP1 PUSH1 0x40 DUP4 DUP6 SUB SLT ISZERO PUSH3 0x310A JUMPI PUSH1 0x0 DUP1 REVERT JUMPDEST DUP3 CALLDATALOAD PUSH8 0xFFFFFFFFFFFFFFFF DUP1 DUP3 GT ISZERO PUSH3 0x3123 JUMPI PUSH1 0x0 DUP1 REVERT JUMPDEST DUP2 DUP6 ADD SWAP2 POP DUP6 PUSH1 0x1F DUP4 ADD SLT PUSH3 0x3138 JUMPI PUSH1 0x0 DUP1 REVERT JUMPDEST DUP2 CALLDATALOAD PUSH1 0x20 DUP3 DUP3 GT ISZERO PUSH3 0x314F JUMPI PUSH3 0x314F PUSH3 0x30E0 JUMP JUMPDEST DUP2 PUSH1 0x5 SHL PUSH1 0x40 MLOAD PUSH1 0x1F NOT PUSH1 0x3F DUP4 ADD AND DUP2 ADD DUP2 DUP2 LT DUP7 DUP3 GT OR ISZERO PUSH3 0x3177 JUMPI PUSH3 0x3177 PUSH3 0x30E0 JUMP JUMPDEST PUSH1 0x40 MSTORE SWAP3 DUP4 MSTORE DUP2 DUP4 ADD SWAP4 POP DUP5 DUP2 ADD DUP3 ADD SWAP3 DUP10 DUP5 GT ISZERO PUSH3 0x3196 JUMPI PUSH1 0x0 DUP1 REVERT JUMPDEST SWAP5 DUP3 ADD SWAP5 JUMPDEST DUP4 DUP7 LT ISZERO PUSH3 0x31BF JUMPI PUSH3 0x31AF DUP7 PUSH3 0x2E58 JUMP JUMPDEST DUP6 MSTORE SWAP5 DUP3 ADD SWAP5 SWAP4 DUP3 ADD SWAP4 PUSH3 0x319B JUMP JUMPDEST SWAP7 POP PUSH3 0x31D0 SWAP1 POP DUP8 DUP3 ADD PUSH3 0x2E58 JUMP JUMPDEST SWAP5 POP POP POP POP POP SWAP3 POP SWAP3 SWAP1 POP JUMP JUMPDEST PUSH1 0x20 DUP1 DUP3 MSTORE PUSH1 0xE SWAP1 DUP3 ADD MSTORE PUSH14 0x10B3B7BB1037B91010B0B236B4B7 PUSH1 0x91 SHL PUSH1 0x40 DUP3 ADD MSTORE PUSH1 0x60 ADD SWAP1 JUMP JUMPDEST PUSH4 0x4E487B71 PUSH1 0xE0 SHL PUSH1 0x0 MSTORE PUSH1 0x11 PUSH1 0x4 MSTORE PUSH1 0x24 PUSH1 0x0 REVERT JUMPDEST PUSH1 0x0 DUP3 DUP3 LT ISZERO PUSH3 0x3230 JUMPI PUSH3 0x3230 PUSH3 0x3205 JUMP JUMPDEST POP SUB SWAP1 JUMP JUMPDEST PUSH4 0x4E487B71 PUSH1 0xE0 SHL PUSH1 0x0 MSTORE PUSH1 0x32 PUSH1 0x4 MSTORE PUSH1 0x24 PUSH1 0x0 REVERT JUMPDEST PUSH1 0x0 DUP2 PUSH1 0x0 NOT DIV DUP4 GT DUP3 ISZERO ISZERO AND ISZERO PUSH3 0x3268 JUMPI PUSH3 0x3268 PUSH3 0x3205 JUMP JUMPDEST POP MUL SWAP1 JUMP JUMPDEST PUSH1 0x0 DUP3 PUSH3 0x328B JUMPI PUSH4 0x4E487B71 PUSH1 0xE0 SHL PUSH1 0x0 MSTORE PUSH1 0x12 PUSH1 0x4 MSTORE PUSH1 0x24 PUSH1 0x0 REVERT JUMPDEST POP DIV SWAP1 JUMP JUMPDEST PUSH1 0x0 PUSH1 0x0 NOT DUP3 EQ ISZERO PUSH3 0x32A7 JUMPI PUSH3 0x32A7 PUSH3 0x3205 JUMP JUMPDEST POP PUSH1 0x1 ADD SWAP1 JUMP JUMPDEST PUSH1 0x0 PUSH1 0x20 DUP3 DUP5 SUB SLT ISZERO PUSH3 0x32C1 JUMPI PUSH1 0x0 DUP1 REVERT JUMPDEST POP MLOAD SWAP2 SWAP1 POP JUMP JUMPDEST PUSH1 0x0 PUSH1 0x20 DUP3 DUP5 SUB SLT ISZERO PUSH3 0x32DB JUMPI PUSH1 0x0 DUP1 REVERT JUMPDEST DUP2 MLOAD PUSH3 0x2E8A DUP2 PUSH3 0x2FDF JUMP JUMPDEST PUSH1 0x0 DUP1 PUSH1 0x40 DUP4 DUP6 SUB SLT ISZERO PUSH3 0x32FC JUMPI PUSH1 0x0 DUP1 REVERT JUMPDEST DUP3 MLOAD PUSH3 0x3309 DUP2 PUSH3 0x2E42 JUMP JUMPDEST PUSH1 0x20 DUP5 ADD MLOAD SWAP1 SWAP3 POP PUSH3 0x3021 DUP2 PUSH3 0x2E42 JUMP JUMPDEST PUSH1 0x0 PUSH1 0x20 DUP3 DUP5 SUB SLT ISZERO PUSH3 0x332F JUMPI PUSH1 0x0 DUP1 REVERT JUMPDEST DUP2 MLOAD PUSH3 0x2E8A DUP2 PUSH3 0x2E42 JUMP JUMPDEST PUSH1 0x0 DUP3 NOT DUP3 GT ISZERO PUSH3 0x3352 JUMPI PUSH3 0x3352 PUSH3 0x3205 JUMP JUMPDEST POP ADD SWAP1 JUMP JUMPDEST PUSH1 0x0 DUP1 PUSH1 0x40 DUP4 DUP6 SUB SLT ISZERO PUSH3 0x336B JUMPI PUSH1 0x0 DUP1 REVERT JUMPDEST POP POP DUP1 MLOAD PUSH1 0x20 SWAP1 SWAP2 ADD MLOAD SWAP1 SWAP3 SWAP1 SWAP2 POP JUMP JUMPDEST PUSH1 0x0 DUP3 MLOAD PUSH1 0x0 JUMPDEST DUP2 DUP2 LT ISZERO PUSH3 0x339F JUMPI PUSH1 0x20 DUP2 DUP7 ADD DUP2 ADD MLOAD DUP6 DUP4 ADD MSTORE ADD PUSH3 0x3383 JUMP JUMPDEST DUP2 DUP2 GT ISZERO PUSH3 0x33AF JUMPI PUSH1 0x0 DUP3 DUP6 ADD MSTORE JUMPDEST POP SWAP2 SWAP1 SWAP2 ADD SWAP3 SWAP2 POP POP JUMP INVALID PUSH1 0xC0 PUSH1 0x40 MSTORE PUSH1 0x0 PUSH1 0x3 SSTORE PUSH1 0x0 PUSH1 0x4 SSTORE CALLVALUE DUP1 ISZERO PUSH3 0x1B JUMPI PUSH1 0x0 DUP1 REVERT JUMPDEST POP PUSH1 0x40 MLOAD PUSH3 0x1B4B CODESIZE SUB DUP1 PUSH3 0x1B4B DUP4 CODECOPY DUP2 ADD PUSH1 0x40 DUP2 SWAP1 MSTORE PUSH3 0x3E SWAP2 PUSH3 0xAD JUMP JUMPDEST PUSH1 0x1 PUSH1 0x0 DUP2 SWAP1 SSTORE DUP1 SLOAD PUSH1 0x1 PUSH1 0x1 PUSH1 0xA0 SHL SUB SWAP6 DUP7 AND PUSH1 0x1 PUSH1 0x1 PUSH1 0xA0 SHL SUB NOT SWAP2 DUP3 AND OR SWAP1 SWAP2 SSTORE PUSH1 0x2 DUP1 SLOAD SWAP5 DUP7 AND SWAP5 DUP3 AND SWAP5 SWAP1 SWAP5 OR SWAP1 SWAP4 SSTORE SWAP1 DUP4 AND PUSH1 0x80 MSTORE PUSH1 0x9 DUP1 SLOAD SWAP2 SWAP1 SWAP4 AND SWAP2 AND OR SWAP1 SSTORE CALLER PUSH1 0xA0 MSTORE PUSH3 0x10A JUMP JUMPDEST DUP1 MLOAD PUSH1 0x1 PUSH1 0x1 PUSH1 0xA0 SHL SUB DUP2 AND DUP2 EQ PUSH3 0xA8 JUMPI PUSH1 0x0 DUP1 REVERT JUMPDEST SWAP2 SWAP1 POP JUMP JUMPDEST PUSH1 0x0 DUP1 PUSH1 0x0 DUP1 PUSH1 0x80 DUP6 DUP8 SUB SLT ISZERO PUSH3 0xC4 JUMPI PUSH1 0x0 DUP1 REVERT JUMPDEST PUSH3 0xCF DUP6 PUSH3 0x90 JUMP JUMPDEST SWAP4 POP PUSH3 0xDF PUSH1 0x20 DUP7 ADD PUSH3 0x90 JUMP JUMPDEST SWAP3 POP PUSH3 0xEF PUSH1 0x40 DUP7 ADD PUSH3 0x90 JUMP JUMPDEST SWAP2 POP PUSH3 0xFF PUSH1 0x60 DUP7 ADD PUSH3 0x90 JUMP JUMPDEST SWAP1 POP SWAP3 SWAP6 SWAP2 SWAP5 POP SWAP3 POP JUMP JUMPDEST PUSH1 0x80 MLOAD PUSH1 0xA0 MLOAD PUSH2 0x19EA PUSH3 0x161 PUSH1 0x0 CODECOPY PUSH1 0x0 DUP2 DUP2 PUSH2 0x2F7 ADD MSTORE DUP2 DUP2 PUSH2 0x50E ADD MSTORE PUSH2 0x601 ADD MSTORE PUSH1 0x0 DUP2 DUP2 PUSH2 0x33E ADD MSTORE DUP2 DUP2 PUSH2 0xC11 ADD MSTORE DUP2 DUP2 PUSH2 0xD96 ADD MSTORE DUP2 DUP2 PUSH2 0xF4B ADD MSTORE DUP2 DUP2 PUSH2 0x109C ADD MSTORE PUSH2 0x11D3 ADD MSTORE PUSH2 0x19EA PUSH1 0x0 RETURN INVALID PUSH1 0x80 PUSH1 0x40 MSTORE CALLVALUE DUP1 ISZERO PUSH2 0x10 JUMPI PUSH1 0x0 DUP1 REVERT JUMPDEST POP PUSH1 0x4 CALLDATASIZE LT PUSH2 0x1EF JUMPI PUSH1 0x0 CALLDATALOAD PUSH1 0xE0 SHR DUP1 PUSH4 0x853828B6 GT PUSH2 0x10F JUMPI DUP1 PUSH4 0xCD3DAF9D GT PUSH2 0xA2 JUMPI DUP1 PUSH4 0xDF136D65 GT PUSH2 0x71 JUMPI DUP1 PUSH4 0xDF136D65 EQ PUSH2 0x41C JUMPI DUP1 PUSH4 0xEBE2B12B EQ PUSH2 0x425 JUMPI DUP1 PUSH4 0xF7C618C1 EQ PUSH2 0x42E JUMPI DUP1 PUSH4 0xF96DAE0A EQ PUSH2 0x441 JUMPI PUSH1 0x0 DUP1 REVERT JUMPDEST DUP1 PUSH4 0xCD3DAF9D EQ PUSH2 0x3F0 JUMPI DUP1 PUSH4 0xD35E2544 EQ PUSH2 0x3F8 JUMPI DUP1 PUSH4 0xD7DA4BB0 EQ PUSH2 0x40B JUMPI DUP1 PUSH4 0xDE5F6268 EQ PUSH2 0x414 JUMPI PUSH1 0x0 DUP1 REVERT JUMPDEST DUP1 PUSH4 0x96C55175 GT PUSH2 0xDE JUMPI DUP1 PUSH4 0x96C55175 EQ PUSH2 0x3AE JUMPI DUP1 PUSH4 0xB6B55F25 EQ PUSH2 0x3C1 JUMPI DUP1 PUSH4 0xC8F33C91 EQ PUSH2 0x3D4 JUMPI DUP1 PUSH4 0xCA1C9B75 EQ PUSH2 0x3DD JUMPI PUSH1 0x0 DUP1 REVERT JUMPDEST DUP1 PUSH4 0x853828B6 EQ PUSH2 0x360 JUMPI DUP1 PUSH4 0x8B0E888E EQ PUSH2 0x368 JUMPI DUP1 PUSH4 0x8B876347 EQ PUSH2 0x385 JUMPI DUP1 PUSH4 0x93F1C442 EQ PUSH2 0x3A5 JUMPI PUSH1 0x0 DUP1 REVERT JUMPDEST DUP1 PUSH4 0x3D18B912 GT PUSH2 0x187 JUMPI DUP1 PUSH4 0x7B0A47EE GT PUSH2 0x156 JUMPI DUP1 PUSH4 0x7B0A47EE EQ PUSH2 0x2E9 JUMPI DUP1 PUSH4 0x7C91E4EB EQ PUSH2 0x2F2 JUMPI DUP1 PUSH4 0x80FAA57D EQ PUSH2 0x331 JUMPI DUP1 PUSH4 0x82BFEFC8 EQ PUSH2 0x339 JUMPI PUSH1 0x0 DUP1 REVERT JUMPDEST DUP1 PUSH4 0x3D18B912 EQ PUSH2 0x28F JUMPI DUP1 PUSH4 0x4C02A21C EQ PUSH2 0x297 JUMPI DUP1 PUSH4 0x63FB415B EQ PUSH2 0x2A0 JUMPI DUP1 PUSH4 0x70A08231 EQ PUSH2 0x2C0 JUMPI PUSH1 0x0 DUP1 REVERT JUMPDEST DUP1 PUSH4 0x1C1F78EB GT PUSH2 0x1C3 JUMPI DUP1 PUSH4 0x1C1F78EB EQ PUSH2 0x24C JUMPI DUP1 PUSH4 0x2E1A7D4D EQ PUSH2 0x254 JUMPI DUP1 PUSH4 0x36EFD16F EQ PUSH2 0x269 JUMPI DUP1 PUSH4 0x3C6B16AB EQ PUSH2 0x27C JUMPI PUSH1 0x0 DUP1 REVERT JUMPDEST DUP1 PUSH3 0x8CC262 EQ PUSH2 0x1F4 JUMPI DUP1 PUSH4 0x700037D EQ PUSH2 0x21A JUMPI DUP1 PUSH4 0x18160DDD EQ PUSH2 0x23A JUMPI DUP1 PUSH4 0x1BE05289 EQ PUSH2 0x242 JUMPI JUMPDEST PUSH1 0x0 DUP1 REVERT JUMPDEST PUSH2 0x207 PUSH2 0x202 CALLDATASIZE PUSH1 0x4 PUSH2 0x17AB JUMP JUMPDEST PUSH2 0x454 JUMP JUMPDEST PUSH1 0x40 MLOAD SWAP1 DUP2 MSTORE PUSH1 0x20 ADD JUMPDEST PUSH1 0x40 MLOAD DUP1 SWAP2 SUB SWAP1 RETURN JUMPDEST PUSH2 0x207 PUSH2 0x228 CALLDATASIZE PUSH1 0x4 PUSH2 0x17AB JUMP JUMPDEST PUSH1 0xB PUSH1 0x20 MSTORE PUSH1 0x0 SWAP1 DUP2 MSTORE PUSH1 0x40 SWAP1 KECCAK256 SLOAD DUP2 JUMP JUMPDEST PUSH1 0xC SLOAD PUSH2 0x207 JUMP JUMPDEST PUSH2 0x207 PUSH3 0x93A80 DUP2 JUMP JUMPDEST PUSH2 0x207 PUSH2 0x4D1 JUMP JUMPDEST PUSH2 0x267 PUSH2 0x262 CALLDATASIZE PUSH1 0x4 PUSH2 0x17C8 JUMP JUMPDEST PUSH2 0x4E9 JUMP JUMPDEST STOP JUMPDEST PUSH2 0x267 PUSH2 0x277 CALLDATASIZE PUSH1 0x4 PUSH2 0x17E1 JUMP JUMPDEST PUSH2 0x4F5 JUMP JUMPDEST PUSH2 0x267 PUSH2 0x28A CALLDATASIZE PUSH1 0x4 PUSH2 0x17C8 JUMP JUMPDEST PUSH2 0x503 JUMP JUMPDEST PUSH2 0x267 PUSH2 0x7B7 JUMP JUMPDEST PUSH2 0x207 PUSH1 0x8 SLOAD DUP2 JUMP JUMPDEST PUSH2 0x207 PUSH2 0x2AE CALLDATASIZE PUSH1 0x4 PUSH2 0x17AB JUMP JUMPDEST PUSH1 0xF PUSH1 0x20 MSTORE PUSH1 0x0 SWAP1 DUP2 MSTORE PUSH1 0x40 SWAP1 KECCAK256 SLOAD DUP2 JUMP JUMPDEST PUSH2 0x207 PUSH2 0x2CE CALLDATASIZE PUSH1 0x4 PUSH2 0x17AB JUMP JUMPDEST PUSH1 0x1 PUSH1 0x1 PUSH1 0xA0 SHL SUB AND PUSH1 0x0 SWAP1 DUP2 MSTORE PUSH1 0xE PUSH1 0x20 MSTORE PUSH1 0x40 SWAP1 KECCAK256 SLOAD SWAP1 JUMP JUMPDEST PUSH2 0x207 PUSH1 0x4 SLOAD DUP2 JUMP JUMPDEST PUSH2 0x319 PUSH32 0x0 DUP2 JUMP JUMPDEST PUSH1 0x40 MLOAD PUSH1 0x1 PUSH1 0x1 PUSH1 0xA0 SHL SUB SWAP1 SWAP2 AND DUP2 MSTORE PUSH1 0x20 ADD PUSH2 0x211 JUMP JUMPDEST PUSH2 0x207 PUSH2 0x8D0 JUMP JUMPDEST PUSH2 0x319 PUSH32 0x0 DUP2 JUMP JUMPDEST PUSH2 0x267 PUSH2 0x8DE JUMP JUMPDEST PUSH2 0x370 PUSH2 0x8F9 JUMP JUMPDEST PUSH1 0x40 DUP1 MLOAD SWAP3 DUP4 MSTORE PUSH1 0x20 DUP4 ADD SWAP2 SWAP1 SWAP2 MSTORE ADD PUSH2 0x211 JUMP JUMPDEST PUSH2 0x207 PUSH2 0x393 CALLDATASIZE PUSH1 0x4 PUSH2 0x17AB JUMP JUMPDEST PUSH1 0xA PUSH1 0x20 MSTORE PUSH1 0x0 SWAP1 DUP2 MSTORE PUSH1 0x40 SWAP1 KECCAK256 SLOAD DUP2 JUMP JUMPDEST PUSH2 0x207 PUSH1 0x7 SLOAD DUP2 JUMP JUMPDEST PUSH2 0x267 PUSH2 0x3BC CALLDATASIZE PUSH1 0x4 PUSH2 0x17AB JUMP JUMPDEST PUSH2 0x939 JUMP JUMPDEST PUSH2 0x267 PUSH2 0x3CF CALLDATASIZE PUSH1 0x4 PUSH2 0x17C8 JUMP JUMPDEST PUSH2 0x99F JUMP JUMPDEST PUSH2 0x207 PUSH1 0x5 SLOAD DUP2 JUMP JUMPDEST PUSH1 0x9 SLOAD PUSH2 0x319 SWAP1 PUSH1 0x1 PUSH1 0x1 PUSH1 0xA0 SHL SUB AND DUP2 JUMP JUMPDEST PUSH2 0x207 PUSH2 0x9A9 JUMP JUMPDEST PUSH2 0x207 PUSH2 0x406 CALLDATASIZE PUSH1 0x4 PUSH2 0x17AB JUMP JUMPDEST PUSH2 0xA18 JUMP JUMPDEST PUSH2 0x207 PUSH1 0xD SLOAD DUP2 JUMP JUMPDEST PUSH2 0x267 PUSH2 0xBF8 JUMP JUMPDEST PUSH2 0x207 PUSH1 0x6 SLOAD DUP2 JUMP JUMPDEST PUSH2 0x207 PUSH1 0x3 SLOAD DUP2 JUMP JUMPDEST PUSH1 0x1 SLOAD PUSH2 0x319 SWAP1 PUSH1 0x1 PUSH1 0x1 PUSH1 0xA0 SHL SUB AND DUP2 JUMP JUMPDEST PUSH1 0x2 SLOAD PUSH2 0x319 SWAP1 PUSH1 0x1 PUSH1 0x1 PUSH1 0xA0 SHL SUB AND DUP2 JUMP JUMPDEST PUSH1 0x1 PUSH1 0x1 PUSH1 0xA0 SHL SUB DUP2 AND PUSH1 0x0 SWAP1 DUP2 MSTORE PUSH1 0xB PUSH1 0x20 SWAP1 DUP2 MSTORE PUSH1 0x40 DUP1 DUP4 KECCAK256 SLOAD PUSH1 0xA SWAP1 SWAP3 MSTORE DUP3 KECCAK256 SLOAD PUSH8 0xDE0B6B3A7640000 SWAP1 PUSH2 0x48A PUSH2 0x9A9 JUMP JUMPDEST PUSH2 0x494 SWAP2 SWAP1 PUSH2 0x1827 JUMP JUMPDEST PUSH1 0x1 PUSH1 0x1 PUSH1 0xA0 SHL SUB DUP6 AND PUSH1 0x0 SWAP1 DUP2 MSTORE PUSH1 0xF PUSH1 0x20 MSTORE PUSH1 0x40 SWAP1 KECCAK256 SLOAD PUSH2 0x4B7 SWAP2 SWAP1 PUSH2 0x183E JUMP JUMPDEST PUSH2 0x4C1 SWAP2 SWAP1 PUSH2 0x185D JUMP JUMPDEST PUSH2 0x4CB SWAP2 SWAP1 PUSH2 0x187F JUMP JUMPDEST SWAP3 SWAP2 POP POP JUMP JUMPDEST PUSH1 0x0 PUSH3 0x93A80 PUSH1 0x4 SLOAD PUSH2 0x4E4 SWAP2 SWAP1 PUSH2 0x183E JUMP JUMPDEST SWAP1 POP SWAP1 JUMP JUMPDEST PUSH2 0x4F2 DUP2 PUSH2 0xC8A JUMP JUMPDEST POP JUMP JUMPDEST PUSH2 0x4FF DUP3 DUP3 PUSH2 0xE1B JUMP JUMPDEST POP POP JUMP JUMPDEST CALLER PUSH1 0x1 PUSH1 0x1 PUSH1 0xA0 SHL SUB PUSH32 0x0 AND EQ PUSH2 0x593 JUMPI PUSH1 0x40 MLOAD PUSH3 0x461BCD PUSH1 0xE5 SHL DUP2 MSTORE PUSH1 0x20 PUSH1 0x4 DUP3 ADD MSTORE PUSH1 0x2A PUSH1 0x24 DUP3 ADD MSTORE PUSH32 0x43616C6C6572206973206E6F742052657761726473446973747269627574696F PUSH1 0x44 DUP3 ADD MSTORE PUSH10 0x1B8818DBDB9D1C9858DD PUSH1 0xB2 SHL PUSH1 0x64 DUP3 ADD MSTORE PUSH1 0x84 ADD JUMPDEST PUSH1 0x40 MLOAD DUP1 SWAP2 SUB SWAP1 REVERT JUMPDEST PUSH1 0x0 PUSH2 0x59D PUSH2 0x9A9 JUMP JUMPDEST PUSH1 0x6 SSTORE PUSH2 0x5A8 PUSH2 0x8D0 JUMP JUMPDEST PUSH1 0x5 SSTORE PUSH1 0x1 PUSH1 0x1 PUSH1 0xA0 SHL SUB DUP2 AND ISZERO PUSH2 0x5EF JUMPI PUSH2 0x5C3 DUP2 PUSH2 0x454 JUMP JUMPDEST PUSH1 0x1 PUSH1 0x1 PUSH1 0xA0 SHL SUB DUP3 AND PUSH1 0x0 SWAP1 DUP2 MSTORE PUSH1 0xB PUSH1 0x20 SWAP1 DUP2 MSTORE PUSH1 0x40 DUP1 DUP4 KECCAK256 SWAP4 SWAP1 SWAP4 SSTORE PUSH1 0x6 SLOAD PUSH1 0xA SWAP1 SWAP2 MSTORE SWAP2 SWAP1 KECCAK256 SSTORE JUMPDEST PUSH1 0x1 SLOAD PUSH2 0x627 SWAP1 PUSH1 0x1 PUSH1 0x1 PUSH1 0xA0 SHL SUB AND PUSH32 0x0 ADDRESS DUP6 PUSH2 0xFD9 JUMP JUMPDEST PUSH1 0x3 SLOAD TIMESTAMP LT PUSH2 0x645 JUMPI PUSH2 0x63D PUSH3 0x93A80 DUP4 PUSH2 0x185D JUMP JUMPDEST PUSH1 0x4 SSTORE PUSH2 0x687 JUMP JUMPDEST PUSH1 0x0 TIMESTAMP PUSH1 0x3 SLOAD PUSH2 0x655 SWAP2 SWAP1 PUSH2 0x1827 JUMP JUMPDEST SWAP1 POP PUSH1 0x0 PUSH1 0x4 SLOAD DUP3 PUSH2 0x667 SWAP2 SWAP1 PUSH2 0x183E JUMP JUMPDEST SWAP1 POP PUSH3 0x93A80 PUSH2 0x677 DUP3 DUP7 PUSH2 0x187F JUMP JUMPDEST PUSH2 0x681 SWAP2 SWAP1 PUSH2 0x185D JUMP JUMPDEST PUSH1 0x4 SSTORE POP POP JUMPDEST PUSH1 0x1 SLOAD PUSH1 0x40 MLOAD PUSH4 0x70A08231 PUSH1 0xE0 SHL DUP2 MSTORE ADDRESS PUSH1 0x4 DUP3 ADD MSTORE PUSH1 0x0 SWAP2 PUSH1 0x1 PUSH1 0x1 PUSH1 0xA0 SHL SUB AND SWAP1 PUSH4 0x70A08231 SWAP1 PUSH1 0x24 ADD PUSH1 0x20 PUSH1 0x40 MLOAD DUP1 DUP4 SUB DUP2 DUP7 GAS STATICCALL ISZERO DUP1 ISZERO PUSH2 0x6D0 JUMPI RETURNDATASIZE PUSH1 0x0 DUP1 RETURNDATACOPY RETURNDATASIZE PUSH1 0x0 REVERT JUMPDEST POP POP POP POP PUSH1 0x40 MLOAD RETURNDATASIZE PUSH1 0x1F NOT PUSH1 0x1F DUP3 ADD AND DUP3 ADD DUP1 PUSH1 0x40 MSTORE POP DUP2 ADD SWAP1 PUSH2 0x6F4 SWAP2 SWAP1 PUSH2 0x1897 JUMP JUMPDEST SWAP1 POP PUSH2 0x703 PUSH3 0x93A80 DUP3 PUSH2 0x185D JUMP JUMPDEST PUSH1 0x4 SLOAD GT ISZERO PUSH2 0x754 JUMPI PUSH1 0x40 MLOAD PUSH3 0x461BCD PUSH1 0xE5 SHL DUP2 MSTORE PUSH1 0x20 PUSH1 0x4 DUP3 ADD MSTORE PUSH1 0x18 PUSH1 0x24 DUP3 ADD MSTORE PUSH32 0x50726F76696465642072657761726420746F6F20686967680000000000000000 PUSH1 0x44 DUP3 ADD MSTORE PUSH1 0x64 ADD PUSH2 0x58A JUMP JUMPDEST TIMESTAMP PUSH1 0x5 DUP2 SWAP1 SSTORE PUSH2 0x768 SWAP1 PUSH3 0x93A80 SWAP1 PUSH2 0x187F JUMP JUMPDEST PUSH1 0x3 SSTORE PUSH1 0x40 MLOAD DUP4 DUP2 MSTORE PUSH32 0xDE88A922E0D3B88B24E9623EFEB464919C6BF9F66857A65E2BFCF2CE87A9433D SWAP1 PUSH1 0x20 ADD PUSH1 0x40 MLOAD DUP1 SWAP2 SUB SWAP1 LOG1 POP PUSH1 0x1 PUSH1 0x1 PUSH1 0xA0 SHL SUB DUP2 AND ISZERO PUSH2 0x4FF JUMPI PUSH2 0x4FF DUP2 PUSH2 0x939 JUMP JUMPDEST PUSH1 0x2 PUSH1 0x0 SLOAD EQ ISZERO PUSH2 0x7DA JUMPI PUSH1 0x40 MLOAD PUSH3 0x461BCD PUSH1 0xE5 SHL DUP2 MSTORE PUSH1 0x4 ADD PUSH2 0x58A SWAP1 PUSH2 0x18B0 JUMP JUMPDEST PUSH1 0x2 PUSH1 0x0 SSTORE CALLER PUSH2 0x7E8 PUSH2 0x9A9 JUMP JUMPDEST PUSH1 0x6 SSTORE PUSH2 0x7F3 PUSH2 0x8D0 JUMP JUMPDEST PUSH1 0x5 SSTORE PUSH1 0x1 PUSH1 0x1 PUSH1 0xA0 SHL SUB DUP2 AND ISZERO PUSH2 0x83A JUMPI PUSH2 0x80E DUP2 PUSH2 0x454 JUMP JUMPDEST PUSH1 0x1 PUSH1 0x1 PUSH1 0xA0 SHL SUB DUP3 AND PUSH1 0x0 SWAP1 DUP2 MSTORE PUSH1 0xB PUSH1 0x20 SWAP1 DUP2 MSTORE PUSH1 0x40 DUP1 DUP4 KECCAK256 SWAP4 SWAP1 SWAP4 SSTORE PUSH1 0x6 SLOAD PUSH1 0xA SWAP1 SWAP2 MSTORE SWAP2 SWAP1 KECCAK256 SSTORE JUMPDEST CALLER PUSH1 0x0 SWAP1 DUP2 MSTORE PUSH1 0xB PUSH1 0x20 MSTORE PUSH1 0x40 SWAP1 KECCAK256 SLOAD DUP1 ISZERO PUSH2 0x8AF JUMPI CALLER PUSH1 0x0 DUP2 DUP2 MSTORE PUSH1 0xB PUSH1 0x20 MSTORE PUSH1 0x40 DUP2 KECCAK256 SSTORE PUSH1 0x1 SLOAD PUSH2 0x879 SWAP2 PUSH1 0x1 PUSH1 0x1 PUSH1 0xA0 SHL SUB SWAP1 SWAP2 AND SWAP1 DUP4 PUSH2 0x104A JUMP JUMPDEST PUSH1 0x40 MLOAD DUP2 DUP2 MSTORE CALLER SWAP1 PUSH32 0xE2403640BA68FED3A2F88B7557551D1993F84B99BB10FF833F0CF8DB0C5E0486 SWAP1 PUSH1 0x20 ADD PUSH1 0x40 MLOAD DUP1 SWAP2 SUB SWAP1 LOG2 JUMPDEST POP PUSH1 0x1 PUSH1 0x1 PUSH1 0xA0 SHL SUB DUP2 AND ISZERO PUSH2 0x8C8 JUMPI PUSH2 0x8C8 DUP2 PUSH2 0x939 JUMP JUMPDEST POP PUSH1 0x1 PUSH1 0x0 SSTORE JUMP JUMPDEST PUSH1 0x0 PUSH2 0x4E4 TIMESTAMP PUSH1 0x3 SLOAD PUSH2 0x107F JUMP JUMPDEST CALLER PUSH1 0x0 SWAP1 DUP2 MSTORE PUSH1 0xE PUSH1 0x20 MSTORE PUSH1 0x40 SWAP1 KECCAK256 SLOAD PUSH2 0x8F7 SWAP1 PUSH2 0xC8A JUMP JUMPDEST JUMP JUMPDEST PUSH1 0x0 DUP1 PUSH1 0x2 PUSH1 0x0 SLOAD EQ ISZERO PUSH2 0x91F JUMPI PUSH1 0x40 MLOAD PUSH3 0x461BCD PUSH1 0xE5 SHL DUP2 MSTORE PUSH1 0x4 ADD PUSH2 0x58A SWAP1 PUSH2 0x18B0 JUMP JUMPDEST PUSH1 0x2 PUSH1 0x0 SSTORE PUSH2 0x92C PUSH2 0x1097 JUMP JUMPDEST SWAP2 POP SWAP2 POP PUSH1 0x1 PUSH1 0x0 SSTORE SWAP1 SWAP2 JUMP JUMPDEST PUSH1 0x1 PUSH1 0x1 PUSH1 0xA0 SHL SUB DUP2 AND PUSH1 0x0 SWAP1 DUP2 MSTORE PUSH1 0xF PUSH1 0x20 MSTORE PUSH1 0x40 SWAP1 KECCAK256 SLOAD PUSH1 0xD SLOAD PUSH2 0x960 SWAP1 DUP3 SWAP1 PUSH2 0x1827 JUMP JUMPDEST PUSH1 0xD SSTORE PUSH2 0x96C DUP3 PUSH2 0xA18 JUMP JUMPDEST PUSH1 0x1 PUSH1 0x1 PUSH1 0xA0 SHL SUB DUP4 AND PUSH1 0x0 SWAP1 DUP2 MSTORE PUSH1 0xF PUSH1 0x20 MSTORE PUSH1 0x40 SWAP1 KECCAK256 DUP2 SWAP1 SSTORE PUSH1 0xD SLOAD SWAP1 SWAP2 POP PUSH2 0x998 SWAP1 DUP3 SWAP1 PUSH2 0x187F JUMP JUMPDEST PUSH1 0xD SSTORE POP POP JUMP JUMPDEST PUSH2 0x4F2 DUP2 CALLER PUSH2 0xE1B JUMP JUMPDEST PUSH1 0x0 PUSH1 0xD SLOAD PUSH1 0x0 EQ ISZERO PUSH2 0x9BC JUMPI POP PUSH1 0x0 SWAP1 JUMP JUMPDEST PUSH1 0xC SLOAD PUSH2 0x9CA JUMPI POP PUSH1 0x6 SLOAD SWAP1 JUMP JUMPDEST PUSH1 0xD SLOAD PUSH1 0x4 SLOAD PUSH1 0x5 SLOAD PUSH2 0x9DB PUSH2 0x8D0 JUMP JUMPDEST PUSH2 0x9E5 SWAP2 SWAP1 PUSH2 0x1827 JUMP JUMPDEST PUSH2 0x9EF SWAP2 SWAP1 PUSH2 0x183E JUMP JUMPDEST PUSH2 0xA01 SWAP1 PUSH8 0xDE0B6B3A7640000 PUSH2 0x183E JUMP JUMPDEST PUSH2 0xA0B SWAP2 SWAP1 PUSH2 0x185D JUMP JUMPDEST PUSH1 0x6 SLOAD PUSH2 0x4E4 SWAP2 SWAP1 PUSH2 0x187F JUMP JUMPDEST PUSH1 0x2 SLOAD PUSH1 0x40 DUP1 MLOAD PUSH4 0x18160DDD PUSH1 0xE0 SHL DUP2 MSTORE SWAP1 MLOAD PUSH1 0x0 SWAP3 PUSH1 0x1 PUSH1 0x1 PUSH1 0xA0 SHL SUB AND SWAP2 PUSH4 0x18160DDD SWAP2 PUSH1 0x4 DUP1 DUP4 ADD SWAP3 PUSH1 0x20 SWAP3 SWAP2 SWAP1 DUP3 SWAP1 SUB ADD DUP2 DUP7 GAS STATICCALL ISZERO DUP1 ISZERO PUSH2 0xA62 JUMPI RETURNDATASIZE PUSH1 0x0 DUP1 RETURNDATACOPY RETURNDATASIZE PUSH1 0x0 REVERT JUMPDEST POP POP POP POP PUSH1 0x40 MLOAD RETURNDATASIZE PUSH1 0x1F NOT PUSH1 0x1F DUP3 ADD AND DUP3 ADD DUP1 PUSH1 0x40 MSTORE POP DUP2 ADD SWAP1 PUSH2 0xA86 SWAP2 SWAP1 PUSH2 0x1897 JUMP JUMPDEST PUSH2 0xA92 JUMPI POP PUSH1 0x0 SWAP2 SWAP1 POP JUMP JUMPDEST PUSH1 0x1 PUSH1 0x1 PUSH1 0xA0 SHL SUB DUP3 AND PUSH1 0x0 SWAP1 DUP2 MSTORE PUSH1 0xE PUSH1 0x20 MSTORE PUSH1 0x40 DUP2 KECCAK256 SLOAD SWAP1 PUSH1 0x64 PUSH2 0xAB9 DUP4 PUSH1 0x28 PUSH2 0x183E JUMP JUMPDEST PUSH2 0xAC3 SWAP2 SWAP1 PUSH2 0x185D JUMP JUMPDEST SWAP1 POP PUSH1 0x0 PUSH1 0x64 PUSH1 0x2 PUSH1 0x0 SWAP1 SLOAD SWAP1 PUSH2 0x100 EXP SWAP1 DIV PUSH1 0x1 PUSH1 0x1 PUSH1 0xA0 SHL SUB AND PUSH1 0x1 PUSH1 0x1 PUSH1 0xA0 SHL SUB AND PUSH4 0x18160DDD PUSH1 0x40 MLOAD DUP2 PUSH4 0xFFFFFFFF AND PUSH1 0xE0 SHL DUP2 MSTORE PUSH1 0x4 ADD PUSH1 0x20 PUSH1 0x40 MLOAD DUP1 DUP4 SUB DUP2 DUP7 GAS STATICCALL ISZERO DUP1 ISZERO PUSH2 0xB1C JUMPI RETURNDATASIZE PUSH1 0x0 DUP1 RETURNDATACOPY RETURNDATASIZE PUSH1 0x0 REVERT JUMPDEST POP POP POP POP PUSH1 0x40 MLOAD RETURNDATASIZE PUSH1 0x1F NOT PUSH1 0x1F DUP3 ADD AND DUP3 ADD DUP1 PUSH1 0x40 MSTORE POP DUP2 ADD SWAP1 PUSH2 0xB40 SWAP2 SWAP1 PUSH2 0x1897 JUMP JUMPDEST PUSH1 0x2 SLOAD PUSH1 0x40 MLOAD PUSH4 0x70A08231 PUSH1 0xE0 SHL DUP2 MSTORE PUSH1 0x1 PUSH1 0x1 PUSH1 0xA0 SHL SUB DUP10 DUP2 AND PUSH1 0x4 DUP4 ADD MSTORE SWAP1 SWAP2 AND SWAP1 PUSH4 0x70A08231 SWAP1 PUSH1 0x24 ADD PUSH1 0x20 PUSH1 0x40 MLOAD DUP1 DUP4 SUB DUP2 DUP7 GAS STATICCALL ISZERO DUP1 ISZERO PUSH2 0xB8A JUMPI RETURNDATASIZE PUSH1 0x0 DUP1 RETURNDATACOPY RETURNDATASIZE PUSH1 0x0 REVERT JUMPDEST POP POP POP POP PUSH1 0x40 MLOAD RETURNDATASIZE PUSH1 0x1F NOT PUSH1 0x1F DUP3 ADD AND DUP3 ADD DUP1 PUSH1 0x40 MSTORE POP DUP2 ADD SWAP1 PUSH2 0xBAE SWAP2 SWAP1 PUSH2 0x1897 JUMP JUMPDEST PUSH1 0xC SLOAD PUSH2 0xBBB SWAP2 SWAP1 PUSH2 0x183E JUMP JUMPDEST PUSH2 0xBC5 SWAP2 SWAP1 PUSH2 0x185D JUMP JUMPDEST PUSH2 0xBD0 SWAP1 PUSH1 0x3C PUSH2 0x183E JUMP JUMPDEST PUSH2 0xBDA SWAP2 SWAP1 PUSH2 0x185D JUMP JUMPDEST SWAP1 POP PUSH2 0xBEF PUSH2 0xBE9 DUP3 DUP5 PUSH2 0x187F JUMP JUMPDEST DUP5 PUSH2 0x107F JUMP JUMPDEST SWAP6 SWAP5 POP POP POP POP POP JUMP JUMPDEST PUSH1 0x40 MLOAD PUSH4 0x70A08231 PUSH1 0xE0 SHL DUP2 MSTORE CALLER PUSH1 0x4 DUP3 ADD MSTORE PUSH2 0x8F7 SWAP1 PUSH32 0x0 PUSH1 0x1 PUSH1 0x1 PUSH1 0xA0 SHL SUB AND SWAP1 PUSH4 0x70A08231 SWAP1 PUSH1 0x24 ADD PUSH1 0x20 PUSH1 0x40 MLOAD DUP1 DUP4 SUB DUP2 DUP7 GAS STATICCALL ISZERO DUP1 ISZERO PUSH2 0xC60 JUMPI RETURNDATASIZE PUSH1 0x0 DUP1 RETURNDATACOPY RETURNDATASIZE PUSH1 0x0 REVERT JUMPDEST POP POP POP POP PUSH1 0x40 MLOAD RETURNDATASIZE PUSH1 0x1F NOT PUSH1 0x1F DUP3 ADD AND DUP3 ADD DUP1 PUSH1 0x40 MSTORE POP DUP2 ADD SWAP1 PUSH2 0xC84 SWAP2 SWAP1 PUSH2 0x1897 JUMP JUMPDEST CALLER PUSH2 0xE1B JUMP JUMPDEST PUSH1 0x2 PUSH1 0x0 SLOAD EQ ISZERO PUSH2 0xCAD JUMPI PUSH1 0x40 MLOAD PUSH3 0x461BCD PUSH1 0xE5 SHL DUP2 MSTORE PUSH1 0x4 ADD PUSH2 0x58A SWAP1 PUSH2 0x18B0 JUMP JUMPDEST PUSH1 0x2 PUSH1 0x0 SSTORE CALLER PUSH2 0xCBB PUSH2 0x9A9 JUMP JUMPDEST PUSH1 0x6 SSTORE PUSH2 0xCC6 PUSH2 0x8D0 JUMP JUMPDEST PUSH1 0x5 SSTORE PUSH1 0x1 PUSH1 0x1 PUSH1 0xA0 SHL SUB DUP2 AND ISZERO PUSH2 0xD0D JUMPI PUSH2 0xCE1 DUP2 PUSH2 0x454 JUMP JUMPDEST PUSH1 0x1 PUSH1 0x1 PUSH1 0xA0 SHL SUB DUP3 AND PUSH1 0x0 SWAP1 DUP2 MSTORE PUSH1 0xB PUSH1 0x20 SWAP1 DUP2 MSTORE PUSH1 0x40 DUP1 DUP4 KECCAK256 SWAP4 SWAP1 SWAP4 SSTORE PUSH1 0x6 SLOAD PUSH1 0xA SWAP1 SWAP2 MSTORE SWAP2 SWAP1 KECCAK256 SSTORE JUMPDEST PUSH1 0x0 DUP3 GT PUSH2 0xD51 JUMPI PUSH1 0x40 MLOAD PUSH3 0x461BCD PUSH1 0xE5 SHL DUP2 MSTORE PUSH1 0x20 PUSH1 0x4 DUP3 ADD MSTORE PUSH1 0x11 PUSH1 0x24 DUP3 ADD MSTORE PUSH17 0x43616E6E6F74207769746864726177203 PUSH1 0x7C SHL PUSH1 0x44 DUP3 ADD MSTORE PUSH1 0x64 ADD PUSH2 0x58A JUMP JUMPDEST DUP2 PUSH1 0xC SLOAD PUSH2 0xD5F SWAP2 SWAP1 PUSH2 0x1827 JUMP JUMPDEST PUSH1 0xC SSTORE CALLER PUSH1 0x0 SWAP1 DUP2 MSTORE PUSH1 0xE PUSH1 0x20 MSTORE PUSH1 0x40 SWAP1 KECCAK256 SLOAD PUSH2 0xD7D SWAP1 DUP4 SWAP1 PUSH2 0x1827 JUMP JUMPDEST CALLER PUSH1 0x0 DUP2 DUP2 MSTORE PUSH1 0xE PUSH1 0x20 MSTORE PUSH1 0x40 SWAP1 KECCAK256 SWAP2 SWAP1 SWAP2 SSTORE PUSH2 0xDC5 SWAP1 PUSH32 0x0 PUSH1 0x1 PUSH1 0x1 PUSH1 0xA0 SHL SUB AND SWAP1 DUP5 PUSH2 0x104A JUMP JUMPDEST PUSH1 0x40 MLOAD DUP3 DUP2 MSTORE CALLER SWAP1 PUSH32 0x7084F5476618D8E60B11EF0D7D3F06914655ADB8793E28FF7F018D4C76D505D5 SWAP1 PUSH1 0x20 ADD PUSH1 0x40 MLOAD DUP1 SWAP2 SUB SWAP1 LOG2 PUSH1 0x1 PUSH1 0x1 PUSH1 0xA0 SHL SUB DUP2 AND ISZERO PUSH2 0xE12 JUMPI PUSH2 0xE12 DUP2 PUSH2 0x939 JUMP JUMPDEST POP POP PUSH1 0x1 PUSH1 0x0 SSTORE JUMP JUMPDEST PUSH1 0x2 PUSH1 0x0 SLOAD EQ ISZERO PUSH2 0xE3E JUMPI PUSH1 0x40 MLOAD PUSH3 0x461BCD PUSH1 0xE5 SHL DUP2 MSTORE PUSH1 0x4 ADD PUSH2 0x58A SWAP1 PUSH2 0x18B0 JUMP JUMPDEST PUSH1 0x2 PUSH1 0x0 SSTORE DUP1 PUSH2 0xE4C PUSH2 0x9A9 JUMP JUMPDEST PUSH1 0x6 SSTORE PUSH2 0xE57 PUSH2 0x8D0 JUMP JUMPDEST PUSH1 0x5 SSTORE PUSH1 0x1 PUSH1 0x1 PUSH1 0xA0 SHL SUB DUP2 AND ISZERO PUSH2 0xE9E JUMPI PUSH2 0xE72 DUP2 PUSH2 0x454 JUMP JUMPDEST PUSH1 0x1 PUSH1 0x1 PUSH1 0xA0 SHL SUB DUP3 AND PUSH1 0x0 SWAP1 DUP2 MSTORE PUSH1 0xB PUSH1 0x20 SWAP1 DUP2 MSTORE PUSH1 0x40 DUP1 DUP4 KECCAK256 SWAP4 SWAP1 SWAP4 SSTORE PUSH1 0x6 SLOAD PUSH1 0xA SWAP1 SWAP2 MSTORE SWAP2 SWAP1 KECCAK256 SSTORE JUMPDEST PUSH1 0x0 DUP4 GT PUSH2 0xEEE JUMPI PUSH1 0x40 MLOAD PUSH3 0x461BCD PUSH1 0xE5 SHL DUP2 MSTORE PUSH1 0x20 PUSH1 0x4 DUP3 ADD MSTORE PUSH1 0x1E PUSH1 0x24 DUP3 ADD MSTORE PUSH32 0x6465706F736974284761756765293A2063616E6E6F74207374616B6520300000 PUSH1 0x44 DUP3 ADD MSTORE PUSH1 0x64 ADD PUSH2 0x58A JUMP JUMPDEST PUSH1 0x1 PUSH1 0x1 PUSH1 0xA0 SHL SUB DUP3 AND PUSH1 0x0 SWAP1 DUP2 MSTORE PUSH1 0xE PUSH1 0x20 MSTORE PUSH1 0x40 SWAP1 KECCAK256 SLOAD DUP4 SWAP1 PUSH2 0xF14 SWAP1 DUP3 SWAP1 PUSH2 0x187F JUMP JUMPDEST PUSH1 0x1 PUSH1 0x1 PUSH1 0xA0 SHL SUB DUP5 AND PUSH1 0x0 SWAP1 DUP2 MSTORE PUSH1 0xE PUSH1 0x20 MSTORE PUSH1 0x40 SWAP1 KECCAK256 SSTORE PUSH1 0xC SLOAD PUSH2 0xF3B SWAP1 DUP3 SWAP1 PUSH2 0x187F JUMP JUMPDEST PUSH1 0xC SSTORE PUSH2 0xF73 PUSH1 0x1 PUSH1 0x1 PUSH1 0xA0 SHL SUB PUSH32 0x0 AND DUP5 ADDRESS DUP8 PUSH2 0xFD9 JUMP JUMPDEST DUP3 PUSH1 0x1 PUSH1 0x1 PUSH1 0xA0 SHL SUB AND PUSH32 0x9E71BC8EEA02A63969F509818F2DAFB9254532904319F9DBDA79B67BD34A5F3D DUP3 PUSH1 0x40 MLOAD PUSH2 0xFAE SWAP2 DUP2 MSTORE PUSH1 0x20 ADD SWAP1 JUMP JUMPDEST PUSH1 0x40 MLOAD DUP1 SWAP2 SUB SWAP1 LOG2 POP PUSH1 0x1 PUSH1 0x1 PUSH1 0xA0 SHL SUB DUP2 AND ISZERO PUSH2 0xFCF JUMPI PUSH2 0xFCF DUP2 PUSH2 0x939 JUMP JUMPDEST POP POP PUSH1 0x1 PUSH1 0x0 SSTORE POP JUMP JUMPDEST PUSH1 0x40 MLOAD PUSH1 0x1 PUSH1 0x1 PUSH1 0xA0 SHL SUB DUP1 DUP6 AND PUSH1 0x24 DUP4 ADD MSTORE DUP4 AND PUSH1 0x44 DUP3 ADD MSTORE PUSH1 0x64 DUP2 ADD DUP3 SWAP1 MSTORE PUSH2 0x1044 SWAP1 DUP6 SWAP1 PUSH4 0x23B872DD PUSH1 0xE0 SHL SWAP1 PUSH1 0x84 ADD JUMPDEST PUSH1 0x40 DUP1 MLOAD PUSH1 0x1F NOT DUP2 DUP5 SUB ADD DUP2 MSTORE SWAP2 SWAP1 MSTORE PUSH1 0x20 DUP2 ADD DUP1 MLOAD PUSH1 0x1 PUSH1 0x1 PUSH1 0xE0 SHL SUB AND PUSH1 0x1 PUSH1 0x1 PUSH1 0xE0 SHL SUB NOT SWAP1 SWAP4 AND SWAP3 SWAP1 SWAP3 OR SWAP1 SWAP2 MSTORE PUSH2 0x14BE JUMP JUMPDEST POP POP POP POP JUMP JUMPDEST PUSH1 0x40 MLOAD PUSH1 0x1 PUSH1 0x1 PUSH1 0xA0 SHL SUB DUP4 AND PUSH1 0x24 DUP3 ADD MSTORE PUSH1 0x44 DUP2 ADD DUP3 SWAP1 MSTORE PUSH2 0x107A SWAP1 DUP5 SWAP1 PUSH4 0xA9059CBB PUSH1 0xE0 SHL SWAP1 PUSH1 0x64 ADD PUSH2 0x100D JUMP JUMPDEST POP POP POP JUMP JUMPDEST PUSH1 0x0 DUP2 DUP4 LT PUSH2 0x108E JUMPI DUP2 PUSH2 0x1090 JUMP JUMPDEST DUP3 JUMPDEST SWAP4 SWAP3 POP POP POP JUMP JUMPDEST PUSH1 0x0 DUP1 PUSH32 0x0 PUSH1 0x1 PUSH1 0x1 PUSH1 0xA0 SHL SUB AND PUSH4 0xD294F093 PUSH1 0x40 MLOAD DUP2 PUSH4 0xFFFFFFFF AND PUSH1 0xE0 SHL DUP2 MSTORE PUSH1 0x4 ADD PUSH1 0x40 DUP1 MLOAD DUP1 DUP4 SUB DUP2 PUSH1 0x0 DUP8 GAS CALL ISZERO DUP1 ISZERO PUSH2 0x10F9 JUMPI RETURNDATASIZE PUSH1 0x0 DUP1 RETURNDATACOPY RETURNDATASIZE PUSH1 0x0 REVERT JUMPDEST POP POP POP POP PUSH1 0x40 MLOAD RETURNDATASIZE PUSH1 0x1F NOT PUSH1 0x1F DUP3 ADD AND DUP3 ADD DUP1 PUSH1 0x40 MSTORE POP DUP2 ADD SWAP1 PUSH2 0x111D SWAP2 SWAP1 PUSH2 0x18E7 JUMP JUMPDEST PUSH1 0x9 SLOAD PUSH1 0x40 MLOAD PUSH4 0x5462ECAD PUSH1 0xE1 SHL DUP2 MSTORE ADDRESS PUSH1 0x4 DUP3 ADD MSTORE SWAP3 SWAP5 POP SWAP1 SWAP3 POP PUSH1 0x0 SWAP2 PUSH1 0x1 PUSH1 0x1 PUSH1 0xA0 SHL SUB SWAP1 SWAP2 AND SWAP1 PUSH4 0xA8C5D95A SWAP1 PUSH1 0x24 ADD PUSH1 0x20 PUSH1 0x40 MLOAD DUP1 DUP4 SUB DUP2 PUSH1 0x0 DUP8 GAS CALL ISZERO DUP1 ISZERO PUSH2 0x1170 JUMPI RETURNDATASIZE PUSH1 0x0 DUP1 RETURNDATACOPY RETURNDATASIZE PUSH1 0x0 REVERT JUMPDEST POP POP POP POP PUSH1 0x40 MLOAD RETURNDATASIZE PUSH1 0x1F NOT PUSH1 0x1F DUP3 ADD AND DUP3 ADD DUP1 PUSH1 0x40 MSTORE POP DUP2 ADD SWAP1 PUSH2 0x1194 SWAP2 SWAP1 PUSH2 0x190B JUMP JUMPDEST SWAP1 POP PUSH1 0x0 DUP4 GT DUP1 PUSH2 0x11A5 JUMPI POP PUSH1 0x0 DUP3 GT JUMPDEST ISZERO PUSH2 0x14B9 JUMPI PUSH1 0x0 DUP4 PUSH1 0x7 SLOAD PUSH2 0x11BA SWAP2 SWAP1 PUSH2 0x187F JUMP JUMPDEST SWAP1 POP PUSH1 0x0 DUP4 PUSH1 0x8 SLOAD PUSH2 0x11CC SWAP2 SWAP1 PUSH2 0x187F JUMP JUMPDEST SWAP1 POP PUSH1 0x0 DUP1 PUSH32 0x0 PUSH1 0x1 PUSH1 0x1 PUSH1 0xA0 SHL SUB AND PUSH4 0x9D63848A PUSH1 0x40 MLOAD DUP2 PUSH4 0xFFFFFFFF AND PUSH1 0xE0 SHL DUP2 MSTORE PUSH1 0x4 ADD PUSH1 0x40 DUP1 MLOAD DUP1 DUP4 SUB DUP2 PUSH1 0x0 DUP8 GAS CALL ISZERO DUP1 ISZERO PUSH2 0x1230 JUMPI RETURNDATASIZE PUSH1 0x0 DUP1 RETURNDATACOPY RETURNDATASIZE PUSH1 0x0 REVERT JUMPDEST POP POP POP POP PUSH1 0x40 MLOAD RETURNDATASIZE PUSH1 0x1F NOT PUSH1 0x1F DUP3 ADD AND DUP3 ADD DUP1 PUSH1 0x40 MSTORE POP DUP2 ADD SWAP1 PUSH2 0x1254 SWAP2 SWAP1 PUSH2 0x1928 JUMP JUMPDEST PUSH1 0x40 MLOAD PUSH4 0x4CDE6029 PUSH1 0xE1 SHL DUP2 MSTORE PUSH1 0x1 PUSH1 0x1 PUSH1 0xA0 SHL SUB DUP1 DUP5 AND PUSH1 0x4 DUP4 ADD MSTORE SWAP3 SWAP5 POP SWAP1 SWAP3 POP SWAP1 DUP7 AND SWAP1 PUSH4 0x99BCC052 SWAP1 PUSH1 0x24 ADD PUSH1 0x20 PUSH1 0x40 MLOAD DUP1 DUP4 SUB DUP2 DUP7 GAS STATICCALL ISZERO DUP1 ISZERO PUSH2 0x12A1 JUMPI RETURNDATASIZE PUSH1 0x0 DUP1 RETURNDATACOPY RETURNDATASIZE PUSH1 0x0 REVERT JUMPDEST POP POP POP POP PUSH1 0x40 MLOAD RETURNDATASIZE PUSH1 0x1F NOT PUSH1 0x1F DUP3 ADD AND DUP3 ADD DUP1 PUSH1 0x40 MSTORE POP DUP2 ADD SWAP1 PUSH2 0x12C5 SWAP2 SWAP1 PUSH2 0x1897 JUMP JUMPDEST DUP5 GT DUP1 ISZERO PUSH2 0x12DF JUMPI POP PUSH1 0x0 PUSH2 0x12DD PUSH3 0x93A80 DUP7 PUSH2 0x185D JUMP JUMPDEST GT JUMPDEST ISZERO PUSH2 0x1364 JUMPI PUSH1 0x0 PUSH1 0x7 SSTORE PUSH2 0x12FD PUSH1 0x1 PUSH1 0x1 PUSH1 0xA0 SHL SUB DUP4 AND DUP7 DUP7 PUSH2 0x1645 JUMP JUMPDEST PUSH1 0x40 MLOAD PUSH4 0xB66503CF PUSH1 0xE0 SHL DUP2 MSTORE PUSH1 0x1 PUSH1 0x1 PUSH1 0xA0 SHL SUB DUP4 DUP2 AND PUSH1 0x4 DUP4 ADD MSTORE PUSH1 0x24 DUP3 ADD DUP7 SWAP1 MSTORE DUP7 AND SWAP1 PUSH4 0xB66503CF SWAP1 PUSH1 0x44 ADD PUSH1 0x0 PUSH1 0x40 MLOAD DUP1 DUP4 SUB DUP2 PUSH1 0x0 DUP8 DUP1 EXTCODESIZE ISZERO DUP1 ISZERO PUSH2 0x1347 JUMPI PUSH1 0x0 DUP1 REVERT JUMPDEST POP GAS CALL ISZERO DUP1 ISZERO PUSH2 0x135B JUMPI RETURNDATASIZE PUSH1 0x0 DUP1 RETURNDATACOPY RETURNDATASIZE PUSH1 0x0 REVERT JUMPDEST POP POP POP POP PUSH2 0x136A JUMP JUMPDEST PUSH1 0x7 DUP5 SWAP1 SSTORE JUMPDEST PUSH1 0x40 MLOAD PUSH4 0x4CDE6029 PUSH1 0xE1 SHL DUP2 MSTORE PUSH1 0x1 PUSH1 0x1 PUSH1 0xA0 SHL SUB DUP3 DUP2 AND PUSH1 0x4 DUP4 ADD MSTORE DUP7 AND SWAP1 PUSH4 0x99BCC052 SWAP1 PUSH1 0x24 ADD PUSH1 0x20 PUSH1 0x40 MLOAD DUP1 DUP4 SUB DUP2 DUP7 GAS STATICCALL ISZERO DUP1 ISZERO PUSH2 0x13B0 JUMPI RETURNDATASIZE PUSH1 0x0 DUP1 RETURNDATACOPY RETURNDATASIZE PUSH1 0x0 REVERT JUMPDEST POP POP POP POP PUSH1 0x40 MLOAD RETURNDATASIZE PUSH1 0x1F NOT PUSH1 0x1F DUP3 ADD AND DUP3 ADD DUP1 PUSH1 0x40 MSTORE POP DUP2 ADD SWAP1 PUSH2 0x13D4 SWAP2 SWAP1 PUSH2 0x1897 JUMP JUMPDEST DUP4 GT DUP1 ISZERO PUSH2 0x13EE JUMPI POP PUSH1 0x0 PUSH2 0x13EC PUSH3 0x93A80 DUP6 PUSH2 0x185D JUMP JUMPDEST GT JUMPDEST ISZERO PUSH2 0x1473 JUMPI PUSH1 0x0 PUSH1 0x8 SSTORE PUSH2 0x140C PUSH1 0x1 PUSH1 0x1 PUSH1 0xA0 SHL SUB DUP3 AND DUP7 DUP6 PUSH2 0x1645 JUMP JUMPDEST PUSH1 0x40 MLOAD PUSH4 0xB66503CF PUSH1 0xE0 SHL DUP2 MSTORE PUSH1 0x1 PUSH1 0x1 PUSH1 0xA0 SHL SUB DUP3 DUP2 AND PUSH1 0x4 DUP4 ADD MSTORE PUSH1 0x24 DUP3 ADD DUP6 SWAP1 MSTORE DUP7 AND SWAP1 PUSH4 0xB66503CF SWAP1 PUSH1 0x44 ADD PUSH1 0x0 PUSH1 0x40 MLOAD DUP1 DUP4 SUB DUP2 PUSH1 0x0 DUP8 DUP1 EXTCODESIZE ISZERO DUP1 ISZERO PUSH2 0x1456 JUMPI PUSH1 0x0 DUP1 REVERT JUMPDEST POP GAS CALL ISZERO DUP1 ISZERO PUSH2 0x146A JUMPI RETURNDATASIZE PUSH1 0x0 DUP1 RETURNDATACOPY RETURNDATASIZE PUSH1 0x0 REVERT JUMPDEST POP POP POP POP PUSH2 0x1479 JUMP JUMPDEST PUSH1 0x8 DUP4 SWAP1 SSTORE JUMPDEST PUSH1 0x40 DUP1 MLOAD DUP9 DUP2 MSTORE PUSH1 0x20 DUP2 ADD DUP9 SWAP1 MSTORE CALLER SWAP2 PUSH32 0xD9B982883D6F1D237DBF653D6BAF27BA3264FA2A489737131B3CB7AEF4FE40DE SWAP2 ADD PUSH1 0x40 MLOAD DUP1 SWAP2 SUB SWAP1 LOG2 POP POP POP POP JUMPDEST POP SWAP1 SWAP2 JUMP JUMPDEST PUSH2 0x14D0 DUP3 PUSH1 0x1 PUSH1 0x1 PUSH1 0xA0 SHL SUB AND PUSH2 0x175A JUMP JUMPDEST PUSH2 0x151C JUMPI PUSH1 0x40 MLOAD PUSH3 0x461BCD PUSH1 0xE5 SHL DUP2 MSTORE PUSH1 0x20 PUSH1 0x4 DUP3 ADD MSTORE PUSH1 0x1F PUSH1 0x24 DUP3 ADD MSTORE PUSH32 0x5361666545524332303A2063616C6C20746F206E6F6E2D636F6E747261637400 PUSH1 0x44 DUP3 ADD MSTORE PUSH1 0x64 ADD PUSH2 0x58A JUMP JUMPDEST PUSH1 0x0 DUP1 DUP4 PUSH1 0x1 PUSH1 0x1 PUSH1 0xA0 SHL SUB AND DUP4 PUSH1 0x40 MLOAD PUSH2 0x1537 SWAP2 SWAP1 PUSH2 0x1957 JUMP JUMPDEST PUSH1 0x0 PUSH1 0x40 MLOAD DUP1 DUP4 SUB DUP2 PUSH1 0x0 DUP7 GAS CALL SWAP2 POP POP RETURNDATASIZE DUP1 PUSH1 0x0 DUP2 EQ PUSH2 0x1574 JUMPI PUSH1 0x40 MLOAD SWAP2 POP PUSH1 0x1F NOT PUSH1 0x3F RETURNDATASIZE ADD AND DUP3 ADD PUSH1 0x40 MSTORE RETURNDATASIZE DUP3 MSTORE RETURNDATASIZE PUSH1 0x0 PUSH1 0x20 DUP5 ADD RETURNDATACOPY PUSH2 0x1579 JUMP JUMPDEST PUSH1 0x60 SWAP2 POP JUMPDEST POP SWAP2 POP SWAP2 POP DUP2 PUSH2 0x15CB JUMPI PUSH1 0x40 MLOAD PUSH3 0x461BCD PUSH1 0xE5 SHL DUP2 MSTORE PUSH1 0x20 PUSH1 0x4 DUP3 ADD DUP2 SWAP1 MSTORE PUSH1 0x24 DUP3 ADD MSTORE PUSH32 0x5361666545524332303A206C6F772D6C6576656C2063616C6C206661696C6564 PUSH1 0x44 DUP3 ADD MSTORE PUSH1 0x64 ADD PUSH2 0x58A JUMP JUMPDEST DUP1 MLOAD ISZERO PUSH2 0x1044 JUMPI DUP1 DUP1 PUSH1 0x20 ADD SWAP1 MLOAD DUP2 ADD SWAP1 PUSH2 0x15E6 SWAP2 SWAP1 PUSH2 0x1992 JUMP JUMPDEST PUSH2 0x1044 JUMPI PUSH1 0x40 MLOAD PUSH3 0x461BCD PUSH1 0xE5 SHL DUP2 MSTORE PUSH1 0x20 PUSH1 0x4 DUP3 ADD MSTORE PUSH1 0x2A PUSH1 0x24 DUP3 ADD MSTORE PUSH32 0x5361666545524332303A204552433230206F7065726174696F6E20646964206E PUSH1 0x44 DUP3 ADD MSTORE PUSH10 0x1BDD081CDD58D8D95959 PUSH1 0xB2 SHL PUSH1 0x64 DUP3 ADD MSTORE PUSH1 0x84 ADD PUSH2 0x58A JUMP JUMPDEST DUP1 ISZERO DUP1 PUSH2 0x16BF JUMPI POP PUSH1 0x40 MLOAD PUSH4 0x6EB1769F PUSH1 0xE1 SHL DUP2 MSTORE ADDRESS PUSH1 0x4 DUP3 ADD MSTORE PUSH1 0x1 PUSH1 0x1 PUSH1 0xA0 SHL SUB DUP4 DUP2 AND PUSH1 0x24 DUP4 ADD MSTORE DUP5 AND SWAP1 PUSH4 0xDD62ED3E SWAP1 PUSH1 0x44 ADD PUSH1 0x20 PUSH1 0x40 MLOAD DUP1 DUP4 SUB DUP2 DUP7 GAS STATICCALL ISZERO DUP1 ISZERO PUSH2 0x1699 JUMPI RETURNDATASIZE PUSH1 0x0 DUP1 RETURNDATACOPY RETURNDATASIZE PUSH1 0x0 REVERT JUMPDEST POP POP POP POP PUSH1 0x40 MLOAD RETURNDATASIZE PUSH1 0x1F NOT PUSH1 0x1F DUP3 ADD AND DUP3 ADD DUP1 PUSH1 0x40 MSTORE POP DUP2 ADD SWAP1 PUSH2 0x16BD SWAP2 SWAP1 PUSH2 0x1897 JUMP JUMPDEST ISZERO JUMPDEST PUSH2 0x172A JUMPI PUSH1 0x40 MLOAD PUSH3 0x461BCD PUSH1 0xE5 SHL DUP2 MSTORE PUSH1 0x20 PUSH1 0x4 DUP3 ADD MSTORE PUSH1 0x36 PUSH1 0x24 DUP3 ADD MSTORE PUSH32 0x5361666545524332303A20617070726F76652066726F6D206E6F6E2D7A65726F PUSH1 0x44 DUP3 ADD MSTORE PUSH22 0x20746F206E6F6E2D7A65726F20616C6C6F77616E6365 PUSH1 0x50 SHL PUSH1 0x64 DUP3 ADD MSTORE PUSH1 0x84 ADD PUSH2 0x58A JUMP JUMPDEST PUSH1 0x40 MLOAD PUSH1 0x1 PUSH1 0x1 PUSH1 0xA0 SHL SUB DUP4 AND PUSH1 0x24 DUP3 ADD MSTORE PUSH1 0x44 DUP2 ADD DUP3 SWAP1 MSTORE PUSH2 0x107A SWAP1 DUP5 SWAP1 PUSH4 0x95EA7B3 PUSH1 0xE0 SHL SWAP1 PUSH1 0x64 ADD PUSH2 0x100D JUMP JUMPDEST PUSH1 0x0 DUP2 EXTCODEHASH PUSH32 0xC5D2460186F7233C927E7DB2DCC703C0E500B653CA82273B7BFAD8045D85A470 DUP2 ISZERO DUP1 ISZERO SWAP1 PUSH2 0x178E JUMPI POP DUP1 DUP3 EQ ISZERO JUMPDEST SWAP5 SWAP4 POP POP POP POP JUMP JUMPDEST PUSH1 0x1 PUSH1 0x1 PUSH1 0xA0 SHL SUB DUP2 AND DUP2 EQ PUSH2 0x4F2 JUMPI PUSH1 0x0 DUP1 REVERT JUMPDEST PUSH1 0x0 PUSH1 0x20 DUP3 DUP5 SUB SLT ISZERO PUSH2 0x17BD JUMPI PUSH1 0x0 DUP1 REVERT JUMPDEST DUP2 CALLDATALOAD PUSH2 0x1090 DUP2 PUSH2 0x1796 JUMP JUMPDEST PUSH1 0x0 PUSH1 0x20 DUP3 DUP5 SUB SLT ISZERO PUSH2 0x17DA JUMPI PUSH1 0x0 DUP1 REVERT JUMPDEST POP CALLDATALOAD SWAP2 SWAP1 POP JUMP JUMPDEST PUSH1 0x0 DUP1 PUSH1 0x40 DUP4 DUP6 SUB SLT ISZERO PUSH2 0x17F4 JUMPI PUSH1 0x0 DUP1 REVERT JUMPDEST DUP3 CALLDATALOAD SWAP2 POP PUSH1 0x20 DUP4 ADD CALLDATALOAD PUSH2 0x1806 DUP2 PUSH2 0x1796 JUMP JUMPDEST DUP1 SWAP2 POP POP SWAP3 POP SWAP3 SWAP1 POP JUMP JUMPDEST PUSH4 0x4E487B71 PUSH1 0xE0 SHL PUSH1 0x0 MSTORE PUSH1 0x11 PUSH1 0x4 MSTORE PUSH1 0x24 PUSH1 0x0 REVERT JUMPDEST PUSH1 0x0 DUP3 DUP3 LT ISZERO PUSH2 0x1839 JUMPI PUSH2 0x1839 PUSH2 0x1811 JUMP JUMPDEST POP SUB SWAP1 JUMP JUMPDEST PUSH1 0x0 DUP2 PUSH1 0x0 NOT DIV DUP4 GT DUP3 ISZERO ISZERO AND ISZERO PUSH2 0x1858 JUMPI PUSH2 0x1858 PUSH2 0x1811 JUMP JUMPDEST POP MUL SWAP1 JUMP JUMPDEST PUSH1 0x0 DUP3 PUSH2 0x187A JUMPI PUSH4 0x4E487B71 PUSH1 0xE0 SHL PUSH1 0x0 MSTORE PUSH1 0x12 PUSH1 0x4 MSTORE PUSH1 0x24 PUSH1 0x0 REVERT JUMPDEST POP DIV SWAP1 JUMP JUMPDEST PUSH1 0x0 DUP3 NOT DUP3 GT ISZERO PUSH2 0x1892 JUMPI PUSH2 0x1892 PUSH2 0x1811 JUMP JUMPDEST POP ADD SWAP1 JUMP JUMPDEST PUSH1 0x0 PUSH1 0x20 DUP3 DUP5 SUB SLT ISZERO PUSH2 0x18A9 JUMPI PUSH1 0x0 DUP1 REVERT JUMPDEST POP MLOAD SWAP2 SWAP1 POP JUMP JUMPDEST PUSH1 0x20 DUP1 DUP3 MSTORE PUSH1 0x1F SWAP1 DUP3 ADD MSTORE PUSH32 0x5265656E7472616E637947756172643A207265656E7472616E742063616C6C00 PUSH1 0x40 DUP3 ADD MSTORE PUSH1 0x60 ADD SWAP1 JUMP JUMPDEST PUSH1 0x0 DUP1 PUSH1 0x40 DUP4 DUP6 SUB SLT ISZERO PUSH2 0x18FA JUMPI PUSH1 0x0 DUP1 REVERT JUMPDEST POP POP DUP1 MLOAD PUSH1 0x20 SWAP1 SWAP2 ADD MLOAD SWAP1 SWAP3 SWAP1 SWAP2 POP JUMP JUMPDEST PUSH1 0x0 PUSH1 0x20 DUP3 DUP5 SUB SLT ISZERO PUSH2 0x191D JUMPI PUSH1 0x0 DUP1 REVERT JUMPDEST DUP2 MLOAD PUSH2 0x1090 DUP2 PUSH2 0x1796 JUMP JUMPDEST PUSH1 0x0 DUP1 PUSH1 0x40 DUP4 DUP6 SUB SLT ISZERO PUSH2 0x193B JUMPI PUSH1 0x0 DUP1 REVERT JUMPDEST DUP3 MLOAD PUSH2 0x1946 DUP2 PUSH2 0x1796 JUMP JUMPDEST PUSH1 0x20 DUP5 ADD MLOAD SWAP1 SWAP3 POP PUSH2 0x1806 DUP2 PUSH2 0x1796 JUMP JUMPDEST PUSH1 0x0 DUP3 MLOAD PUSH1 0x0 JUMPDEST DUP2 DUP2 LT ISZERO PUSH2 0x1978 JUMPI PUSH1 0x20 DUP2 DUP7 ADD DUP2 ADD MLOAD DUP6 DUP4 ADD MSTORE ADD PUSH2 0x195E JUMP JUMPDEST DUP2 DUP2 GT ISZERO PUSH2 0x1987 JUMPI PUSH1 0x0 DUP3 DUP6 ADD MSTORE JUMPDEST POP SWAP2 SWAP1 SWAP2 ADD SWAP3 SWAP2 POP POP JUMP JUMPDEST PUSH1 0x0 PUSH1 0x20 DUP3 DUP5 SUB SLT ISZERO PUSH2 0x19A4 JUMPI PUSH1 0x0 DUP1 REVERT JUMPDEST DUP2 MLOAD DUP1 ISZERO ISZERO DUP2 EQ PUSH2 0x1090 JUMPI PUSH1 0x0 DUP1 REVERT INVALID LOG2 PUSH5 0x6970667358 0x22 SLT KECCAK256 0xAD MSIZE 0x25 0xD7 0xD6 0xEC DUP9 0xD8 SMOD PC EXTCODEHASH 0xC6 0x2F 0xD2 0xE0 SWAP7 PUSH13 0x338D108A66D77A5AE2E9D2F63F PUSH28 0x7B64736F6C634300080B0033A264697066735822122076A245E8C160 0x2E 0xB5 PUSH3 0x3BE450 RETURNDATASIZE DUP9 PUSH20 0x10E376A02A91733F665840EAFDC016A32964736F PUSH13 0x634300080B0033608060405267 0xD 0xE0 0xB6 0xB3 0xA7 PUSH5 0x600055 CALLVALUE DUP1 ISZERO PUSH2 0x1C JUMPI PUSH1 0x0 DUP1 REVERT JUMPDEST POP CALLER PUSH1 0x0 DUP2 DUP2 MSTORE PUSH1 0x2 PUSH1 0x20 SWAP1 DUP2 MSTORE PUSH1 0x40 DUP1 DUP4 KECCAK256 PUSH8 0xDE0B6B3A7640000 SWAP1 DUP2 SWAP1 SSTORE SWAP1 MLOAD SWAP1 DUP2 MSTORE PUSH32 0xDDF252AD1BE2C89B69C2B068FC378DAA952BA7F163C4A11628F55A4DF523B3EF SWAP2 ADD PUSH1 0x40 MLOAD DUP1 SWAP2 SUB SWAP1 LOG3 PUSH2 0x636 DUP1 PUSH2 0x7B PUSH1 0x0 CODECOPY PUSH1 0x0 RETURN INVALID PUSH1 0x80 PUSH1 0x40 MSTORE CALLVALUE DUP1 ISZERO PUSH2 0x10 JUMPI PUSH1 0x0 DUP1 REVERT JUMPDEST POP PUSH1 0x4 CALLDATASIZE LT PUSH2 0x93 JUMPI PUSH1 0x0 CALLDATALOAD PUSH1 0xE0 SHR DUP1 PUSH4 0x313CE567 GT PUSH2 0x66 JUMPI DUP1 PUSH4 0x313CE567 EQ PUSH2 0x129 JUMPI DUP1 PUSH4 0x70A08231 EQ PUSH2 0x143 JUMPI DUP1 PUSH4 0x95D89B41 EQ PUSH2 0x16C JUMPI DUP1 PUSH4 0xA9059CBB EQ PUSH2 0x194 JUMPI DUP1 PUSH4 0xDD62ED3E EQ PUSH2 0x1A7 JUMPI PUSH1 0x0 DUP1 REVERT JUMPDEST DUP1 PUSH4 0x6FDDE03 EQ PUSH2 0x98 JUMPI DUP1 PUSH4 0x95EA7B3 EQ PUSH2 0xDC JUMPI DUP1 PUSH4 0x18160DDD EQ PUSH2 0xFF JUMPI DUP1 PUSH4 0x23B872DD EQ PUSH2 0x116 JUMPI JUMPDEST PUSH1 0x0 DUP1 REVERT JUMPDEST PUSH2 0xC6 PUSH1 0x40 MLOAD DUP1 PUSH1 0x40 ADD PUSH1 0x40 MSTORE DUP1 PUSH1 0xF DUP2 MSTORE PUSH1 0x20 ADD PUSH15 0x13585CDD195C881A5B94D412549255 PUSH1 0x8A SHL DUP2 MSTORE POP DUP2 JUMP JUMPDEST PUSH1 0x40 MLOAD PUSH2 0xD3 SWAP2 SWAP1 PUSH2 0x48F JUMP JUMPDEST PUSH1 0x40 MLOAD DUP1 SWAP2 SUB SWAP1 RETURN JUMPDEST PUSH2 0xEF PUSH2 0xEA CALLDATASIZE PUSH1 0x4 PUSH2 0x500 JUMP JUMPDEST PUSH2 0x1E0 JUMP JUMPDEST PUSH1 0x40 MLOAD SWAP1 ISZERO ISZERO DUP2 MSTORE PUSH1 0x20 ADD PUSH2 0xD3 JUMP JUMPDEST PUSH2 0x108 PUSH1 0x0 SLOAD DUP2 JUMP JUMPDEST PUSH1 0x40 MLOAD SWAP1 DUP2 MSTORE PUSH1 0x20 ADD PUSH2 0xD3 JUMP JUMPDEST PUSH2 0xEF PUSH2 0x124 CALLDATASIZE PUSH1 0x4 PUSH2 0x52A JUMP JUMPDEST PUSH2 0x24C JUMP JUMPDEST PUSH2 0x131 PUSH1 0x12 DUP2 JUMP JUMPDEST PUSH1 0x40 MLOAD PUSH1 0xFF SWAP1 SWAP2 AND DUP2 MSTORE PUSH1 0x20 ADD PUSH2 0xD3 JUMP JUMPDEST PUSH2 0x108 PUSH2 0x151 CALLDATASIZE PUSH1 0x4 PUSH2 0x566 JUMP JUMPDEST PUSH1 0x1 PUSH1 0x1 PUSH1 0xA0 SHL SUB AND PUSH1 0x0 SWAP1 DUP2 MSTORE PUSH1 0x2 PUSH1 0x20 MSTORE PUSH1 0x40 SWAP1 KECCAK256 SLOAD SWAP1 JUMP JUMPDEST PUSH2 0xC6 PUSH1 0x40 MLOAD DUP1 PUSH1 0x40 ADD PUSH1 0x40 MSTORE DUP1 PUSH1 0x9 DUP2 MSTORE PUSH1 0x20 ADD PUSH9 0x1B5A5B94D412549255 PUSH1 0xBA SHL DUP2 MSTORE POP DUP2 JUMP JUMPDEST PUSH2 0xEF PUSH2 0x1A2 CALLDATASIZE PUSH1 0x4 PUSH2 0x500 JUMP JUMPDEST PUSH2 0x313 JUMP JUMPDEST PUSH2 0x108 PUSH2 0x1B5 CALLDATASIZE PUSH1 0x4 PUSH2 0x588 JUMP JUMPDEST PUSH1 0x1 PUSH1 0x1 PUSH1 0xA0 SHL SUB SWAP2 DUP3 AND PUSH1 0x0 SWAP1 DUP2 MSTORE PUSH1 0x1 PUSH1 0x20 SWAP1 DUP2 MSTORE PUSH1 0x40 DUP1 DUP4 KECCAK256 SWAP4 SWAP1 SWAP5 AND DUP3 MSTORE SWAP2 SWAP1 SWAP2 MSTORE KECCAK256 SLOAD SWAP1 JUMP JUMPDEST CALLER PUSH1 0x0 DUP2 DUP2 MSTORE PUSH1 0x1 PUSH1 0x20 SWAP1 DUP2 MSTORE PUSH1 0x40 DUP1 DUP4 KECCAK256 PUSH1 0x1 PUSH1 0x1 PUSH1 0xA0 SHL SUB DUP8 AND DUP1 DUP6 MSTORE SWAP3 MSTORE DUP1 DUP4 KECCAK256 DUP6 SWAP1 SSTORE MLOAD SWAP2 SWAP3 SWAP1 SWAP2 PUSH32 0x8C5BE1E5EBEC7D5BD14F71427D1E84F3DD0314C0F7B2291E5B200AC8C7C3B925 SWAP1 PUSH2 0x23B SWAP1 DUP7 DUP2 MSTORE PUSH1 0x20 ADD SWAP1 JUMP JUMPDEST PUSH1 0x40 MLOAD DUP1 SWAP2 SUB SWAP1 LOG3 POP PUSH1 0x1 SWAP3 SWAP2 POP POP JUMP JUMPDEST PUSH1 0x1 PUSH1 0x1 PUSH1 0xA0 SHL SUB DUP4 AND PUSH1 0x0 DUP2 DUP2 MSTORE PUSH1 0x1 PUSH1 0x20 SWAP1 DUP2 MSTORE PUSH1 0x40 DUP1 DUP4 KECCAK256 CALLER DUP1 DUP6 MSTORE SWAP3 MSTORE DUP3 KECCAK256 SLOAD SWAP2 SWAP3 SWAP1 SWAP2 SWAP1 DUP3 EQ DUP1 ISZERO SWAP1 PUSH2 0x286 JUMPI POP PUSH1 0x0 NOT DUP2 EQ ISZERO JUMPDEST ISZERO PUSH2 0x2FC JUMPI PUSH1 0x0 PUSH2 0x297 DUP6 DUP4 PUSH2 0x5D1 JUMP JUMPDEST PUSH1 0x1 PUSH1 0x1 PUSH1 0xA0 SHL SUB DUP9 DUP2 AND PUSH1 0x0 DUP2 DUP2 MSTORE PUSH1 0x1 PUSH1 0x20 SWAP1 DUP2 MSTORE PUSH1 0x40 DUP1 DUP4 KECCAK256 SWAP5 DUP10 AND DUP1 DUP5 MSTORE SWAP5 DUP3 MSTORE SWAP2 DUP3 SWAP1 KECCAK256 DUP6 SWAP1 SSTORE SWAP1 MLOAD DUP5 DUP2 MSTORE SWAP4 SWAP5 POP SWAP2 SWAP3 SWAP1 SWAP2 PUSH32 0x8C5BE1E5EBEC7D5BD14F71427D1E84F3DD0314C0F7B2291E5B200AC8C7C3B925 SWAP2 ADD PUSH1 0x40 MLOAD DUP1 SWAP2 SUB SWAP1 LOG3 POP JUMPDEST PUSH2 0x307 DUP7 DUP7 DUP7 PUSH2 0x329 JUMP JUMPDEST POP PUSH1 0x1 SWAP6 SWAP5 POP POP POP POP POP JUMP JUMPDEST PUSH1 0x0 PUSH2 0x320 CALLER DUP5 DUP5 PUSH2 0x329 JUMP JUMPDEST POP PUSH1 0x1 SWAP3 SWAP2 POP POP JUMP JUMPDEST PUSH1 0x1 PUSH1 0x1 PUSH1 0xA0 SHL SUB DUP4 AND PUSH2 0x384 JUMPI PUSH1 0x40 MLOAD PUSH3 0x461BCD PUSH1 0xE5 SHL DUP2 MSTORE PUSH1 0x20 PUSH1 0x4 DUP3 ADD MSTORE PUSH1 0x1D PUSH1 0x24 DUP3 ADD MSTORE PUSH32 0x5F7472616E73666572546F6B656E733A207A65726F2061646472657373000000 PUSH1 0x44 DUP3 ADD MSTORE PUSH1 0x64 ADD JUMPDEST PUSH1 0x40 MLOAD DUP1 SWAP2 SUB SWAP1 REVERT JUMPDEST PUSH1 0x1 PUSH1 0x1 PUSH1 0xA0 SHL SUB DUP3 AND PUSH2 0x3DA JUMPI PUSH1 0x40 MLOAD PUSH3 0x461BCD PUSH1 0xE5 SHL DUP2 MSTORE PUSH1 0x20 PUSH1 0x4 DUP3 ADD MSTORE PUSH1 0x1D PUSH1 0x24 DUP3 ADD MSTORE PUSH32 0x5F7472616E73666572546F6B656E733A207A65726F2061646472657373000000 PUSH1 0x44 DUP3 ADD MSTORE PUSH1 0x64 ADD PUSH2 0x37B JUMP JUMPDEST PUSH1 0x1 PUSH1 0x1 PUSH1 0xA0 SHL SUB DUP4 AND PUSH1 0x0 SWAP1 DUP2 MSTORE PUSH1 0x2 PUSH1 0x20 MSTORE PUSH1 0x40 SWAP1 KECCAK256 SLOAD PUSH2 0x3FE SWAP1 DUP3 SWAP1 PUSH2 0x5D1 JUMP JUMPDEST PUSH1 0x1 PUSH1 0x1 PUSH1 0xA0 SHL SUB DUP1 DUP6 AND PUSH1 0x0 SWAP1 DUP2 MSTORE PUSH1 0x2 PUSH1 0x20 MSTORE PUSH1 0x40 DUP1 DUP3 KECCAK256 SWAP4 SWAP1 SWAP4 SSTORE SWAP1 DUP5 AND DUP2 MSTORE KECCAK256 SLOAD PUSH2 0x42E SWAP1 DUP3 SWAP1 PUSH2 0x5E8 JUMP JUMPDEST PUSH1 0x1 PUSH1 0x1 PUSH1 0xA0 SHL SUB DUP1 DUP5 AND PUSH1 0x0 DUP2 DUP2 MSTORE PUSH1 0x2 PUSH1 0x20 MSTORE PUSH1 0x40 SWAP1 DUP2 SWAP1 KECCAK256 SWAP4 SWAP1 SWAP4 SSTORE SWAP2 MLOAD SWAP1 DUP6 AND SWAP1 PUSH32 0xDDF252AD1BE2C89B69C2B068FC378DAA952BA7F163C4A11628F55A4DF523B3EF SWAP1 PUSH2 0x482 SWAP1 DUP6 DUP2 MSTORE PUSH1 0x20 ADD SWAP1 JUMP JUMPDEST PUSH1 0x40 MLOAD DUP1 SWAP2 SUB SWAP1 LOG3 POP POP POP JUMP JUMPDEST PUSH1 0x0 PUSH1 0x20 DUP1 DUP4 MSTORE DUP4 MLOAD DUP1 DUP3 DUP6 ADD MSTORE PUSH1 0x0 JUMPDEST DUP2 DUP2 LT ISZERO PUSH2 0x4BC JUMPI DUP6 DUP2 ADD DUP4 ADD MLOAD DUP6 DUP3 ADD PUSH1 0x40 ADD MSTORE DUP3 ADD PUSH2 0x4A0 JUMP JUMPDEST DUP2 DUP2 GT ISZERO PUSH2 0x4CE JUMPI PUSH1 0x0 PUSH1 0x40 DUP4 DUP8 ADD ADD MSTORE JUMPDEST POP PUSH1 0x1F ADD PUSH1 0x1F NOT AND SWAP3 SWAP1 SWAP3 ADD PUSH1 0x40 ADD SWAP4 SWAP3 POP POP POP JUMP JUMPDEST DUP1 CALLDATALOAD PUSH1 0x1 PUSH1 0x1 PUSH1 0xA0 SHL SUB DUP2 AND DUP2 EQ PUSH2 0x4FB JUMPI PUSH1 0x0 DUP1 REVERT JUMPDEST SWAP2 SWAP1 POP JUMP JUMPDEST PUSH1 0x0 DUP1 PUSH1 0x40 DUP4 DUP6 SUB SLT ISZERO PUSH2 0x513 JUMPI PUSH1 0x0 DUP1 REVERT JUMPDEST PUSH2 0x51C DUP4 PUSH2 0x4E4 JUMP JUMPDEST SWAP5 PUSH1 0x20 SWAP4 SWAP1 SWAP4 ADD CALLDATALOAD SWAP4 POP POP POP JUMP JUMPDEST PUSH1 0x0 DUP1 PUSH1 0x0 PUSH1 0x60 DUP5 DUP7 SUB SLT ISZERO PUSH2 0x53F JUMPI PUSH1 0x0 DUP1 REVERT JUMPDEST PUSH2 0x548 DUP5 PUSH2 0x4E4 JUMP JUMPDEST SWAP3 POP PUSH2 0x556 PUSH1 0x20 DUP6 ADD PUSH2 0x4E4 JUMP JUMPDEST SWAP2 POP PUSH1 0x40 DUP5 ADD CALLDATALOAD SWAP1 POP SWAP3 POP SWAP3 POP SWAP3 JUMP JUMPDEST PUSH1 0x0 PUSH1 0x20 DUP3 DUP5 SUB SLT ISZERO PUSH2 0x578 JUMPI PUSH1 0x0 DUP1 REVERT JUMPDEST PUSH2 0x581 DUP3 PUSH2 0x4E4 JUMP JUMPDEST SWAP4 SWAP3 POP POP POP JUMP JUMPDEST PUSH1 0x0 DUP1 PUSH1 0x40 DUP4 DUP6 SUB SLT ISZERO PUSH2 0x59B JUMPI PUSH1 0x0 DUP1 REVERT JUMPDEST PUSH2 0x5A4 DUP4 PUSH2 0x4E4 JUMP JUMPDEST SWAP2 POP PUSH2 0x5B2 PUSH1 0x20 DUP5 ADD PUSH2 0x4E4 JUMP JUMPDEST SWAP1 POP SWAP3 POP SWAP3 SWAP1 POP JUMP JUMPDEST PUSH4 0x4E487B71 PUSH1 0xE0 SHL PUSH1 0x0 MSTORE PUSH1 0x11 PUSH1 0x4 MSTORE PUSH1 0x24 PUSH1 0x0 REVERT JUMPDEST PUSH1 0x0 DUP3 DUP3 LT ISZERO PUSH2 0x5E3 JUMPI PUSH2 0x5E3 PUSH2 0x5BB JUMP JUMPDEST POP SUB SWAP1 JUMP JUMPDEST PUSH1 0x0 DUP3 NOT DUP3 GT ISZERO PUSH2 0x5FB JUMPI PUSH2 0x5FB PUSH2 0x5BB JUMP JUMPDEST POP ADD SWAP1 JUMP INVALID LOG2 PUSH5 0x6970667358 0x22 SLT KECCAK256 SWAP13 DUP9 SWAP16 RETURNDATACOPY 0x29 DUP4 0xD0 DUP10 MUL 0xE7 DUP16 0xD0 0xB3 SWAP5 PUSH12 0x2496136F58C10F37E9E4DADE 0xB9 0xF6 0xC9 0x28 0xE4 PUSH5 0x736F6C6343 STOP ADDMOD SIGNEXTEND STOP CALLER "},"methodIdentifiers":{"MASTER()":"471aedc2","MIN_INSPIRIT_FOR_VERIFY()":"13976fc8","TOKEN()":"82bfefc8","acceptGovernance()":"238efcbc","addGauge(address)":"9da882ac","addGaugeForOwner(address,address,address)":"c84afda0","admin()":"f851a440","baseTokens(address)":"02eba094","bribeFactory()":"eb4a78e0","bribes(address)":"a8c5d95a","claimBribes(address[],address)":"ff2af408","deposit()":"d0e30db0","deprecateGauge(address)":"6848c2bd","distribute(uint256,uint256)":"7625391a","distributeDelay()":"f6d12b16","feeDistAddr()":"4c904f2c","gaugeStatus(address)":"2951005c","gauges(address)":"b9a09fd5","getBribes(address)":"4668e619","getGauge(address)":"b1c6f0e9","governance()":"5aa6e675","governanceToken()":"f96dae0a","hasDistributed(address)":"e96a6bda","lastDistribute()":"47d67339","lastVote(address)":"6accc8cf","length()":"1f7b6d32","lockedBalance()":"7b80889b","lockedTotalWeight()":"28b02a1d","lockedWeights(address)":"924d9f77","locktime()":"61c533b4","minFee()":"24ec7590","pairFactory()":"e14f870d","pendingGovernance()":"f39c38a0","pid()":"f1068454","poke(address)":"b1a997ac","preDistribute()":"82836391","reset()":"d826f88f","resurrectGauge(address)":"b9173ec4","rewardToken()":"f7c618c1","setAdmin(address)":"704b6c02","setBaseToken(address,bool)":"b23e3014","setGovernance(address)":"ab033ea9","setPID(uint256)":"8d060519","setVerifiedToken(address,bool)":"b70aed71","toggleVE()":"f9b2fe27","tokenVote(address,uint256)":"f2a1a8ed","tokens()":"9d63848a","totalWeight()":"96c82e57","updateFeeDistributor(address)":"60c73bf2","usedWeights(address)":"002f8de4","ve()":"1f850716","verifiedTokens(address)":"1baaaffe","vote(address[],uint256[])":"6f816a20","voteDelay()":"292fc979","votes(address,address)":"cad1b906","weights(address)":"a7cac846"}}}}}