{"contracts/TeleswapV2Router02.sol":{"TeleswapV2Router02":{"abi":[{"inputs":[{"internalType":"address","name":"_factory","type":"address"},{"internalType":"address","name":"_WETH","type":"address"}],"stateMutability":"nonpayable","type":"constructor"},{"inputs":[],"name":"WETH","outputs":[{"internalType":"address","name":"","type":"address"}],"stateMutability":"view","type":"function"},{"inputs":[{"components":[{"internalType":"address","name":"from","type":"address"},{"internalType":"address","name":"to","type":"address"},{"internalType":"bool","name":"stable","type":"bool"}],"internalType":"struct route","name":"_route","type":"tuple"},{"internalType":"uint256","name":"amountADesired","type":"uint256"},{"internalType":"uint256","name":"amountBDesired","type":"uint256"},{"internalType":"uint256","name":"amountAMin","type":"uint256"},{"internalType":"uint256","name":"amountBMin","type":"uint256"},{"internalType":"address","name":"to","type":"address"},{"internalType":"uint256","name":"deadline","type":"uint256"}],"name":"addLiquidity","outputs":[{"internalType":"uint256","name":"amountA","type":"uint256"},{"internalType":"uint256","name":"amountB","type":"uint256"},{"internalType":"uint256","name":"liquidity","type":"uint256"}],"stateMutability":"nonpayable","type":"function"},{"inputs":[{"components":[{"internalType":"address","name":"from","type":"address"},{"internalType":"address","name":"to","type":"address"},{"internalType":"bool","name":"stable","type":"bool"}],"internalType":"struct route","name":"_route","type":"tuple"},{"internalType":"uint256","name":"amountTokenDesired","type":"uint256"},{"internalType":"uint256","name":"amountTokenMin","type":"uint256"},{"internalType":"uint256","name":"amountETHMin","type":"uint256"},{"internalType":"address","name":"to","type":"address"},{"internalType":"uint256","name":"deadline","type":"uint256"}],"name":"addLiquidityETH","outputs":[{"internalType":"uint256","name":"amountToken","type":"uint256"},{"internalType":"uint256","name":"amountETH","type":"uint256"},{"internalType":"uint256","name":"liquidity","type":"uint256"}],"stateMutability":"payable","type":"function"},{"inputs":[],"name":"factory","outputs":[{"internalType":"address","name":"","type":"address"}],"stateMutability":"view","type":"function"},{"inputs":[{"internalType":"uint256","name":"amountOut","type":"uint256"},{"internalType":"uint256","name":"reserveIn","type":"uint256"},{"internalType":"uint256","name":"reserveOut","type":"uint256"},{"internalType":"bool","name":"stable","type":"bool"},{"internalType":"uint256","name":"decimalIn","type":"uint256"},{"internalType":"uint256","name":"decimalOut","type":"uint256"}],"name":"getAmountIn","outputs":[{"internalType":"uint256","name":"amountIn","type":"uint256"}],"stateMutability":"pure","type":"function"},{"inputs":[{"internalType":"uint256","name":"amountIn","type":"uint256"},{"internalType":"uint256","name":"reserveIn","type":"uint256"},{"internalType":"uint256","name":"reserveOut","type":"uint256"},{"internalType":"bool","name":"stable","type":"bool"},{"internalType":"uint256","name":"decimalIn","type":"uint256"},{"internalType":"uint256","name":"decimalOut","type":"uint256"}],"name":"getAmountOut","outputs":[{"internalType":"uint256","name":"amountOut","type":"uint256"}],"stateMutability":"pure","type":"function"},{"inputs":[{"internalType":"uint256","name":"amountOut","type":"uint256"},{"components":[{"internalType":"address","name":"from","type":"address"},{"internalType":"address","name":"to","type":"address"},{"internalType":"bool","name":"stable","type":"bool"}],"internalType":"struct route[]","name":"_routes","type":"tuple[]"}],"name":"getAmountsIn","outputs":[{"internalType":"uint256[]","name":"amounts","type":"uint256[]"}],"stateMutability":"view","type":"function"},{"inputs":[{"internalType":"uint256","name":"amountIn","type":"uint256"},{"components":[{"internalType":"address","name":"from","type":"address"},{"internalType":"address","name":"to","type":"address"},{"internalType":"bool","name":"stable","type":"bool"}],"internalType":"struct route[]","name":"_routes","type":"tuple[]"}],"name":"getAmountsOut","outputs":[{"internalType":"uint256[]","name":"amounts","type":"uint256[]"}],"stateMutability":"view","type":"function"},{"inputs":[{"internalType":"uint256","name":"deadline","type":"uint256"},{"internalType":"bytes[]","name":"data","type":"bytes[]"}],"name":"multicall","outputs":[{"internalType":"bytes[]","name":"results","type":"bytes[]"}],"stateMutability":"payable","type":"function"},{"inputs":[{"internalType":"uint256","name":"amountA","type":"uint256"},{"internalType":"uint256","name":"reserveA","type":"uint256"},{"internalType":"uint256","name":"reserveB","type":"uint256"}],"name":"quote","outputs":[{"internalType":"uint256","name":"amountB","type":"uint256"}],"stateMutability":"pure","type":"function"},{"inputs":[],"name":"refundETH","outputs":[],"stateMutability":"payable","type":"function"},{"inputs":[{"components":[{"internalType":"address","name":"from","type":"address"},{"internalType":"address","name":"to","type":"address"},{"internalType":"bool","name":"stable","type":"bool"}],"internalType":"struct route","name":"_route","type":"tuple"},{"internalType":"uint256","name":"liquidity","type":"uint256"},{"internalType":"uint256","name":"amountAMin","type":"uint256"},{"internalType":"uint256","name":"amountBMin","type":"uint256"},{"internalType":"address","name":"to","type":"address"},{"internalType":"uint256","name":"deadline","type":"uint256"}],"name":"removeLiquidity","outputs":[{"internalType":"uint256","name":"amountA","type":"uint256"},{"internalType":"uint256","name":"amountB","type":"uint256"}],"stateMutability":"nonpayable","type":"function"},{"inputs":[{"components":[{"internalType":"address","name":"from","type":"address"},{"internalType":"address","name":"to","type":"address"},{"internalType":"bool","name":"stable","type":"bool"}],"internalType":"struct route","name":"_route","type":"tuple"},{"internalType":"uint256","name":"liquidity","type":"uint256"},{"internalType":"uint256","name":"amountTokenMin","type":"uint256"},{"internalType":"uint256","name":"amountETHMin","type":"uint256"},{"internalType":"address","name":"to","type":"address"},{"internalType":"uint256","name":"deadline","type":"uint256"}],"name":"removeLiquidityETH","outputs":[{"internalType":"uint256","name":"amountToken","type":"uint256"},{"internalType":"uint256","name":"amountETH","type":"uint256"}],"stateMutability":"nonpayable","type":"function"},{"inputs":[{"components":[{"internalType":"address","name":"from","type":"address"},{"internalType":"address","name":"to","type":"address"},{"internalType":"bool","name":"stable","type":"bool"}],"internalType":"struct route","name":"_route","type":"tuple"},{"internalType":"uint256","name":"liquidity","type":"uint256"},{"internalType":"uint256","name":"amountTokenMin","type":"uint256"},{"internalType":"uint256","name":"amountETHMin","type":"uint256"},{"internalType":"address","name":"to","type":"address"},{"internalType":"uint256","name":"deadline","type":"uint256"}],"name":"removeLiquidityETHSupportingFeeOnTransferTokens","outputs":[{"internalType":"uint256","name":"amountETH","type":"uint256"}],"stateMutability":"nonpayable","type":"function"},{"inputs":[{"components":[{"internalType":"address","name":"from","type":"address"},{"internalType":"address","name":"to","type":"address"},{"internalType":"bool","name":"stable","type":"bool"}],"internalType":"struct route","name":"_route","type":"tuple"},{"internalType":"uint256","name":"liquidity","type":"uint256"},{"internalType":"uint256","name":"amountTokenMin","type":"uint256"},{"internalType":"uint256","name":"amountETHMin","type":"uint256"},{"internalType":"address","name":"to","type":"address"},{"internalType":"uint256","name":"deadline","type":"uint256"},{"internalType":"bool","name":"approveMax","type":"bool"},{"components":[{"internalType":"uint8","name":"v","type":"uint8"},{"internalType":"bytes32","name":"r","type":"bytes32"},{"internalType":"bytes32","name":"s","type":"bytes32"}],"internalType":"struct Sig","name":"sig","type":"tuple"}],"name":"removeLiquidityETHWithPermit","outputs":[{"internalType":"uint256","name":"amountToken","type":"uint256"},{"internalType":"uint256","name":"amountETH","type":"uint256"}],"stateMutability":"nonpayable","type":"function"},{"inputs":[{"components":[{"internalType":"address","name":"from","type":"address"},{"internalType":"address","name":"to","type":"address"},{"internalType":"bool","name":"stable","type":"bool"}],"internalType":"struct route","name":"_route","type":"tuple"},{"internalType":"uint256","name":"liquidity","type":"uint256"},{"internalType":"uint256","name":"amountTokenMin","type":"uint256"},{"internalType":"uint256","name":"amountETHMin","type":"uint256"},{"internalType":"address","name":"to","type":"address"},{"internalType":"uint256","name":"deadline","type":"uint256"},{"internalType":"bool","name":"approveMax","type":"bool"},{"components":[{"internalType":"uint8","name":"v","type":"uint8"},{"internalType":"bytes32","name":"r","type":"bytes32"},{"internalType":"bytes32","name":"s","type":"bytes32"}],"internalType":"struct Sig","name":"sig","type":"tuple"}],"name":"removeLiquidityETHWithPermitSupportingFeeOnTransferTokens","outputs":[{"internalType":"uint256","name":"amountETH","type":"uint256"}],"stateMutability":"nonpayable","type":"function"},{"inputs":[{"components":[{"internalType":"address","name":"from","type":"address"},{"internalType":"address","name":"to","type":"address"},{"internalType":"bool","name":"stable","type":"bool"}],"internalType":"struct route","name":"_route","type":"tuple"},{"internalType":"uint256","name":"liquidity","type":"uint256"},{"internalType":"uint256","name":"amountAMin","type":"uint256"},{"internalType":"uint256","name":"amountBMin","type":"uint256"},{"internalType":"address","name":"to","type":"address"},{"internalType":"uint256","name":"deadline","type":"uint256"},{"internalType":"bool","name":"approveMax","type":"bool"},{"components":[{"internalType":"uint8","name":"v","type":"uint8"},{"internalType":"bytes32","name":"r","type":"bytes32"},{"internalType":"bytes32","name":"s","type":"bytes32"}],"internalType":"struct Sig","name":"sig","type":"tuple"}],"name":"removeLiquidityWithPermit","outputs":[{"internalType":"uint256","name":"amountA","type":"uint256"},{"internalType":"uint256","name":"amountB","type":"uint256"}],"stateMutability":"nonpayable","type":"function"},{"inputs":[{"internalType":"uint256","name":"amountOut","type":"uint256"},{"components":[{"internalType":"address","name":"from","type":"address"},{"internalType":"address","name":"to","type":"address"},{"internalType":"bool","name":"stable","type":"bool"}],"internalType":"struct route[]","name":"routes","type":"tuple[]"},{"internalType":"address","name":"to","type":"address"},{"internalType":"uint256","name":"deadline","type":"uint256"}],"name":"swapETHForExactTokens","outputs":[{"internalType":"uint256[]","name":"amounts","type":"uint256[]"}],"stateMutability":"payable","type":"function"},{"inputs":[{"internalType":"uint256","name":"amountOut","type":"uint256"},{"components":[{"internalType":"address","name":"from","type":"address"},{"internalType":"address","name":"to","type":"address"},{"internalType":"bool","name":"stable","type":"bool"}],"internalType":"struct route[]","name":"routes","type":"tuple[]"},{"internalType":"address","name":"to","type":"address"},{"internalType":"uint256","name":"deadline","type":"uint256"}],"name":"swapETHForExactTokensMulti","outputs":[{"internalType":"uint256[]","name":"amounts","type":"uint256[]"}],"stateMutability":"payable","type":"function"},{"inputs":[{"internalType":"uint256","name":"amountIn","type":"uint256"},{"internalType":"uint256","name":"amountOutMin","type":"uint256"},{"components":[{"internalType":"address","name":"from","type":"address"},{"internalType":"address","name":"to","type":"address"},{"internalType":"bool","name":"stable","type":"bool"}],"internalType":"struct route[]","name":"routes","type":"tuple[]"},{"internalType":"address","name":"to","type":"address"},{"internalType":"uint256","name":"deadline","type":"uint256"}],"name":"swapExactETHForTokens","outputs":[{"internalType":"uint256[]","name":"amounts","type":"uint256[]"}],"stateMutability":"payable","type":"function"},{"inputs":[{"internalType":"uint256","name":"amountIn","type":"uint256"},{"internalType":"uint256","name":"amountOutMin","type":"uint256"},{"components":[{"internalType":"address","name":"from","type":"address"},{"internalType":"address","name":"to","type":"address"},{"internalType":"bool","name":"stable","type":"bool"}],"internalType":"struct route[]","name":"routes","type":"tuple[]"},{"internalType":"address","name":"to","type":"address"},{"internalType":"uint256","name":"deadline","type":"uint256"}],"name":"swapExactETHForTokensSupportingFeeOnTransferTokens","outputs":[],"stateMutability":"payable","type":"function"},{"inputs":[{"internalType":"uint256","name":"amountIn","type":"uint256"},{"internalType":"uint256","name":"amountOutMin","type":"uint256"},{"components":[{"internalType":"address","name":"from","type":"address"},{"internalType":"address","name":"to","type":"address"},{"internalType":"bool","name":"stable","type":"bool"}],"internalType":"struct route[]","name":"routes","type":"tuple[]"},{"internalType":"address","name":"to","type":"address"},{"internalType":"uint256","name":"deadline","type":"uint256"}],"name":"swapExactTokensForETH","outputs":[{"internalType":"uint256[]","name":"amounts","type":"uint256[]"}],"stateMutability":"nonpayable","type":"function"},{"inputs":[{"internalType":"uint256","name":"amountIn","type":"uint256"},{"internalType":"uint256","name":"amountOutMin","type":"uint256"},{"components":[{"internalType":"address","name":"from","type":"address"},{"internalType":"address","name":"to","type":"address"},{"internalType":"bool","name":"stable","type":"bool"}],"internalType":"struct route[]","name":"routes","type":"tuple[]"},{"internalType":"address","name":"to","type":"address"},{"internalType":"uint256","name":"deadline","type":"uint256"}],"name":"swapExactTokensForETHSupportingFeeOnTransferTokens","outputs":[],"stateMutability":"nonpayable","type":"function"},{"inputs":[{"internalType":"uint256","name":"amountIn","type":"uint256"},{"internalType":"uint256","name":"amountOutMin","type":"uint256"},{"components":[{"internalType":"address","name":"from","type":"address"},{"internalType":"address","name":"to","type":"address"},{"internalType":"bool","name":"stable","type":"bool"}],"internalType":"struct route[]","name":"routes","type":"tuple[]"},{"internalType":"address","name":"to","type":"address"},{"internalType":"uint256","name":"deadline","type":"uint256"}],"name":"swapExactTokensForTokens","outputs":[{"internalType":"uint256[]","name":"amounts","type":"uint256[]"}],"stateMutability":"nonpayable","type":"function"},{"inputs":[{"internalType":"uint256","name":"amountIn","type":"uint256"},{"internalType":"uint256","name":"amountOutMin","type":"uint256"},{"components":[{"internalType":"address","name":"from","type":"address"},{"internalType":"address","name":"to","type":"address"},{"internalType":"bool","name":"stable","type":"bool"}],"internalType":"struct route[]","name":"routes","type":"tuple[]"},{"internalType":"address","name":"to","type":"address"},{"internalType":"uint256","name":"deadline","type":"uint256"}],"name":"swapExactTokensForTokensSupportingFeeOnTransferTokens","outputs":[],"stateMutability":"nonpayable","type":"function"},{"inputs":[{"internalType":"uint256","name":"amountOut","type":"uint256"},{"internalType":"uint256","name":"amountInMax","type":"uint256"},{"components":[{"internalType":"address","name":"from","type":"address"},{"internalType":"address","name":"to","type":"address"},{"internalType":"bool","name":"stable","type":"bool"}],"internalType":"struct route[]","name":"routes","type":"tuple[]"},{"internalType":"address","name":"to","type":"address"},{"internalType":"uint256","name":"deadline","type":"uint256"}],"name":"swapTokensForExactETH","outputs":[{"internalType":"uint256[]","name":"amounts","type":"uint256[]"}],"stateMutability":"nonpayable","type":"function"},{"inputs":[{"internalType":"uint256","name":"amountOut","type":"uint256"},{"internalType":"uint256","name":"amountInMax","type":"uint256"},{"components":[{"internalType":"address","name":"from","type":"address"},{"internalType":"address","name":"to","type":"address"},{"internalType":"bool","name":"stable","type":"bool"}],"internalType":"struct route[]","name":"routes","type":"tuple[]"},{"internalType":"address","name":"to","type":"address"},{"internalType":"uint256","name":"deadline","type":"uint256"}],"name":"swapTokensForExactTokens","outputs":[{"internalType":"uint256[]","name":"amounts","type":"uint256[]"}],"stateMutability":"nonpayable","type":"function"},{"stateMutability":"payable","type":"receive"}],"evm":{"bytecode":{"linkReferences":{},"object":"60806040523480156200001157600080fd5b5060405162005097380380620050978339810160408190526200003491620000e0565b600080546001600160a01b038085166001600160a01b031992831681179093556001805491851691909216179055604080516351ad19bd60e11b8152905163a35a337a91600480820192602092909190829003018186803b1580156200009957600080fd5b505afa158015620000ae573d6000803e3d6000fd5b505050506040513d601f19601f82011682018060405250810190620000d491906200011e565b60025550620001509050565b60008060408385031215620000f3578182fd5b8251620001008162000137565b6020840151909250620001138162000137565b809150509250929050565b60006020828403121562000130578081fd5b5051919050565b6001600160a01b03811681146200014d57600080fd5b50565b614f3780620001606000396000f3fe6080604052600436106101a05760003560e01c80639881fcb4116100ec578063d5c54e331161008a578063dc2972c211610064578063dc2972c21461048b578063ed1fbca2146104ab578063f41766d8146104cb578063f4f3de4f146104eb576101bb565b8063d5c54e331461042b578063d69f344c1461044b578063d8ec27771461046b576101bb565b8063ad615dec116100c6578063ad615dec146103c3578063c45a0155146103e3578063cad77ef2146103f8578063d4d6886f14610418576101bb565b80639881fcb41461036157806399e629f914610381578063ad5c4648146103a1576101bb565b8063633afc92116101595780637af728c8116101335780637af728c8146102df5780637d03c793146102ff5780637de50ddf1461032157806382179c5d14610341576101bb565b8063633afc92146102995780636cc1ae13146102ac57806371d6614d146102cc576101bb565b80630cd7ee9f146101c057806312210e8a146101f757806318a13086146101ff5780633e6c63c91461022c5780634b45e5351461024c5780635ae401dc14610279576101bb565b366101bb576001546001600160a01b031633146101b957fe5b005b600080fd5b3480156101cc57600080fd5b506101e06101db366004614196565b6104fe565b6040516101ee929190614dae565b60405180910390f35b6101b9610650565b34801561020b57600080fd5b5061021f61021a3660046144c9565b610662565b6040516101ee91906147c7565b34801561023857600080fd5b506101e0610247366004614139565b610902565b34801561025857600080fd5b5061026c610267366004614196565b6109d6565b6040516101ee9190614da5565b61028c610287366004614313565b610abe565b6040516101ee9190614767565b61021f6102a7366004614389565b610c21565b3480156102b857600080fd5b506101b96102c73660046144c9565b610ef5565b6101b96102da3660046144c9565b61114a565b3480156102eb57600080fd5b506101b96102fa3660046144c9565b6113e6565b61031261030d366004614139565b6115dc565b6040516101ee93929190614de9565b34801561032d57600080fd5b506101e061033c366004614196565b6117f8565b34801561034d57600080fd5b506101e061035c36600461429c565b6118e5565b34801561036d57600080fd5b5061021f61037c3660046143ed565b611ac2565b34801561038d57600080fd5b5061026c61039c366004614564565b611c8d565b3480156103ad57600080fd5b506103b6611caa565b6040516101ee91906146b1565b3480156103cf57600080fd5b5061026c6103de366004614539565b611cb9565b3480156103ef57600080fd5b506103b6611cd0565b34801561040457600080fd5b5061026c61041336600461429c565b611cdf565b61021f610426366004614389565b611e0a565b34801561043757600080fd5b5061021f6104463660046143ed565b61204e565b34801561045757600080fd5b5061021f6104663660046144c9565b61220f565b34801561047757600080fd5b5061026c610486366004614564565b612376565b34801561049757600080fd5b506103126104a6366004614218565b612386565b3480156104b757600080fd5b5061021f6104c63660046144c9565b6124b9565b3480156104d757600080fd5b5061021f6104e63660046144c9565b6125c6565b61021f6104f93660046144c9565b61271b565b6002546000805490918291829161052c916001600160a01b0316610527368f90038f018f614281565b6129b7565b905060008561053b578a61053f565b6000195b90506001600160a01b03821663d505accf3330848b61056160208c018c6145b6565b8b602001358c604001356040518863ffffffff1660e01b815260040161058d97969594939291906146c5565b600060405180830381600087803b1580156105a757600080fd5b505af11580156105bb573d6000803e3d6000fd5b5050604051633e6c63c960e01b8152309450633e6c63c993506105ee92508e91508d908d908d908d908d90600401614d2f565b6040805180830381600087803b15801561060757600080fd5b505af115801561061b573d6000803e3d6000fd5b505050506040513d601f19601f8201168201806040525081019061063f91906144a6565b909b909a5098505050505050505050565b4715610660576106603347612a37565b565b6060814281101561068e5760405162461bcd60e51b81526004016106859061481e565b60405180910390fd5b6001546001600160a01b0316868660001981018181106106aa57fe5b90506060020160200160208101906106c2919061404b565b6001600160a01b0316146106e85760405162461bcd60e51b815260040161068590614bb4565b610744888787808060200260200160405190810160405280939291908181526020016000905b8282101561073a5761072b60608302860136819003810190614281565b8152602001906001019061070e565b5050505050611ac2565b9150868260018451038151811061075757fe5b6020026020010151101561077d5760405162461bcd60e51b815260040161068590614c22565b6107fc8686600081811061078d57fe5b6107a3926020606090920201908101915061404b565b336107e26002546000809054906101000a90046001600160a01b03168b8b60008181106107cc57fe5b9050606002018036038101906105279190614281565b856000815181106107ef57fe5b6020026020010151612ac9565b610859828787808060200260200160405190810160405280939291908181526020016000905b8282101561084e5761083f60608302860136819003810190614281565b81526020019060010190610822565b505050505030612bba565b60015482516001600160a01b0390911690632e1a7d4d908490600019810190811061088057fe5b60200260200101516040518263ffffffff1660e01b81526004016108a49190614da5565b600060405180830381600087803b1580156108be57600080fd5b505af11580156108d2573d6000803e3d6000fd5b505050506108f784836001855103815181106108ea57fe5b6020026020010151612a37565b509695505050505050565b60008082428110156109265760405162461bcd60e51b81526004016106859061481e565b610942610938368b90038b018b614281565b89898930896118e5565b909350915061095e61095760208b018b61404b565b8685612d6c565b600154604051632e1a7d4d60e01b81526001600160a01b0390911690632e1a7d4d9061098e908590600401614da5565b600060405180830381600087803b1580156109a857600080fd5b505af11580156109bc573d6000803e3d6000fd5b505050506109ca8583612a37565b50965096945050505050565b60025460008054909182916109fe91906001600160a01b0316610527368e90038e018e614281565b9050600084610a0d5789610a11565b6000195b90506001600160a01b03821663d505accf3330848a610a3360208b018b6145b6565b8a602001358b604001356040518863ffffffff1660e01b8152600401610a5f97969594939291906146c5565b600060405180830381600087803b158015610a7957600080fd5b505af1158015610a8d573d6000803e3d6000fd5b50505050610aaf8b803603810190610aa59190614281565b8b8b8b8b8b611cdf565b9b9a5050505050505050505050565b60608342811015610ae15760405162461bcd60e51b81526004016106859061481e565b826001600160401b0381118015610af757600080fd5b50604051908082528060200260200182016040528015610b2b57816020015b6060815260200190600190039081610b165790505b50915060005b83811015610c18576000606030878785818110610b4a57fe5b9050602002810190610b5c9190614dff565b604051610b6a92919061464d565b600060405180830381855af49150503d8060008114610ba5576040519150601f19603f3d011682016040523d82523d6000602084013e610baa565b606091505b509150915081610bf657604481511015610bc357600080fd5b60048101905080806020019051810190610bdd91906140b7565b60405162461bcd60e51b8152600401610685919061480b565b80858481518110610c0357fe5b60209081029190910101525050600101610b31565b50509392505050565b60608142811015610c445760405162461bcd60e51b81526004016106859061481e565b6001546001600160a01b03168686600081610c5b57fe5b610c71926020606090920201908101915061404b565b6001600160a01b031614610c975760405162461bcd60e51b815260040161068590614bb4565b610cf3878787808060200260200160405190810160405280939291908181526020016000905b82821015610ce957610cda60608302860136819003810190614281565b81526020019060010190610cbd565b505050505061204e565b91503482600081518110610d0357fe5b60200260200101511115610d295760405162461bcd60e51b815260040161068590614a45565b60015482516001600160a01b039091169063d0e30db0908490600090610d4b57fe5b60200260200101516040518263ffffffff1660e01b81526004016000604051808303818588803b158015610d7e57600080fd5b505af1158015610d92573d6000803e3d6000fd5b5050600154600254600080546001600160a01b03938416965063a9059cbb9550610dc894509192909116908b908b90816107cc57fe5b84600081518110610dd557fe5b60200260200101516040518363ffffffff1660e01b8152600401610dfa92919061474e565b602060405180830381600087803b158015610e1457600080fd5b505af1158015610e28573d6000803e3d6000fd5b505050506040513d601f19601f82011682018060405250810190610e4c9190614083565b610e5257fe5b610eaf828787808060200260200160405190810160405280939291908181526020016000905b82821015610ea457610e9560608302860136819003810190614281565b81526020019060010190610e78565b505050505086612bba565b81600081518110610ebc57fe5b6020026020010151341115610eeb57610eeb3383600081518110610edc57fe5b60200260200101513403612a37565b5095945050505050565b8042811015610f165760405162461bcd60e51b81526004016106859061481e565b610f6b85856000818110610f2657fe5b610f3c926020606090920201908101915061404b565b33610f656002546000809054906101000a90046001600160a01b03168a8a60008181106107cc57fe5b8a612ac9565b600085856000198101818110610f7d57fe5b9050606002016020016020810190610f95919061404b565b6001600160a01b03166370a08231856040518263ffffffff1660e01b8152600401610fc091906146b1565b60206040518083038186803b158015610fd857600080fd5b505afa158015610fec573d6000803e3d6000fd5b505050506040513d601f19601f82011682018060405250810190611010919061409f565b905061106e8686808060200260200160405190810160405280939291908181526020016000905b828210156110635761105460608302860136819003810190614281565b81526020019060010190611037565b505050505085612e5a565b86611122828888600019810181811061108357fe5b905060600201602001602081019061109b919061404b565b6001600160a01b03166370a08231886040518263ffffffff1660e01b81526004016110c691906146b1565b60206040518083038186803b1580156110de57600080fd5b505afa1580156110f2573d6000803e3d6000fd5b505050506040513d601f19601f82011682018060405250810190611116919061409f565b9063ffffffff61323816565b10156111405760405162461bcd60e51b815260040161068590614c22565b5050505050505050565b804281101561116b5760405162461bcd60e51b81526004016106859061481e565b6001546001600160a01b0316858560008161118257fe5b611198926020606090920201908101915061404b565b6001600160a01b0316146111be5760405162461bcd60e51b815260040161068590614bb4565b348711156111de5760405162461bcd60e51b815260040161068590614a02565b600160009054906101000a90046001600160a01b03166001600160a01b031663d0e30db0886040518263ffffffff1660e01b81526004016000604051808303818588803b15801561122e57600080fd5b505af1158015611242573d6000803e3d6000fd5b5050600154600254600080546001600160a01b03938416965063a9059cbb955061127894509192909116908a908a90816107cc57fe5b896040518363ffffffff1660e01b815260040161129692919061474e565b602060405180830381600087803b1580156112b057600080fd5b505af11580156112c4573d6000803e3d6000fd5b505050506040513d601f19601f820116820180604052508101906112e89190614083565b6112ee57fe5b60008585600019810181811061130057fe5b9050606002016020016020810190611318919061404b565b6001600160a01b03166370a08231856040518263ffffffff1660e01b815260040161134391906146b1565b60206040518083038186803b15801561135b57600080fd5b505afa15801561136f573d6000803e3d6000fd5b505050506040513d601f19601f82011682018060405250810190611393919061409f565b905061106e8686808060200260200160405190810160405280939291908181526020016000905b82821015611063576113d760608302860136819003810190614281565b815260200190600101906113ba565b80428110156114075760405162461bcd60e51b81526004016106859061481e565b6001546001600160a01b03168585600019810181811061142357fe5b905060600201602001602081019061143b919061404b565b6001600160a01b0316146114615760405162461bcd60e51b815260040161068590614bb4565b61147185856000818110610f2657fe5b6114cd8585808060200260200160405190810160405280939291908181526020016000905b828210156114c2576114b360608302860136819003810190614281565b81526020019060010190611496565b505050505030612e5a565b6001546040516370a0823160e01b81526000916001600160a01b0316906370a08231906114fe9030906004016146b1565b60206040518083038186803b15801561151657600080fd5b505afa15801561152a573d6000803e3d6000fd5b505050506040513d601f19601f8201168201806040525081019061154e919061409f565b9050868110156115705760405162461bcd60e51b815260040161068590614c22565b600154604051632e1a7d4d60e01b81526001600160a01b0390911690632e1a7d4d906115a0908490600401614da5565b600060405180830381600087803b1580156115ba57600080fd5b505af11580156115ce573d6000803e3d6000fd5b505050506111408482612a37565b600080600083428110156116025760405162461bcd60e51b81526004016106859061481e565b61161d611614368c90038c018c614281565b8a348b8b61325b565b60025460008054939750919550909161164991906001600160a01b0316610527368f90038f018f614281565b905061166361165b60208d018d61404b565b338388612ac9565b600160009054906101000a90046001600160a01b03166001600160a01b031663d0e30db0856040518263ffffffff1660e01b81526004016000604051808303818588803b1580156116b357600080fd5b505af11580156116c7573d6000803e3d6000fd5b505060015460405163a9059cbb60e01b81526001600160a01b03909116935063a9059cbb92506116fe91508490889060040161474e565b602060405180830381600087803b15801561171857600080fd5b505af115801561172c573d6000803e3d6000fd5b505050506040513d601f19601f820116820180604052508101906117509190614083565b61175657fe5b6040516335313c2160e11b81526001600160a01b03821690636a62784290611782908a906004016146b1565b602060405180830381600087803b15801561179c57600080fd5b505af11580156117b0573d6000803e3d6000fd5b505050506040513d601f19601f820116820180604052508101906117d4919061409f565b9250833411156117ea576117ea33853403612a37565b505096509650969350505050565b60025460008054909182918291611821916001600160a01b0316610527368f90038f018f614281565b9050600085611830578a611834565b6000195b90506001600160a01b03821663d505accf3330848b61185660208c018c6145b6565b8b602001358c604001356040518863ffffffff1660e01b815260040161188297969594939291906146c5565b600060405180830381600087803b15801561189c57600080fd5b505af11580156118b0573d6000803e3d6000fd5b505050506118d28c8036038101906118c89190614281565b8c8c8c8c8c6118e5565b909d909c509a5050505050505050505050565b60008082428110156119095760405162461bcd60e51b81526004016106859061481e565b600254600080549091611925916001600160a01b03168c6129b7565b6040516323b872dd60e01b81529091506001600160a01b038216906323b872dd9061195890339085908e90600401614706565b602060405180830381600087803b15801561197257600080fd5b505af1158015611986573d6000803e3d6000fd5b505050506040513d601f19601f820116820180604052508101906119aa9190614083565b50600080826001600160a01b03166389afcb44896040518263ffffffff1660e01b81526004016119da91906146b1565b6040805180830381600087803b1580156119f357600080fd5b505af1158015611a07573d6000803e3d6000fd5b505050506040513d601f19601f82011682018060405250810190611a2b91906144a6565b915091506000611a438d600001518e60200151613457565b509050806001600160a01b03168d600001516001600160a01b031614611a6a578183611a6d565b82825b90975095508a871015611a925760405162461bcd60e51b815260040161068590614ce8565b89861015611ab25760405162461bcd60e51b815260040161068590614ac8565b5050505050965096945050505050565b60608082516001016001600160401b0381118015611adf57600080fd5b50604051908082528060200260200182016040528015611b09578160200160208202803683370190505b50905082600081518110611b1957fe5b6020026020010151600001516001600160a01b031663313ce5676040518163ffffffff1660e01b815260040160206040518083038186803b158015611b5d57600080fd5b505afa158015611b71573d6000803e3d6000fd5b505050506040513d601f19601f82011682018060405250810190611b9591906145d2565b60ff1681600081518110611ba557fe5b60200260200101818152505060005b8351811015611c6a57838181518110611bc957fe5b6020026020010151602001516001600160a01b031663313ce5676040518163ffffffff1660e01b815260040160206040518083038186803b158015611c0d57600080fd5b505afa158015611c21573d6000803e3d6000fd5b505050506040513d601f19601f82011682018060405250810190611c4591906145d2565b60ff16828260010181518110611c5757fe5b6020908102919091010152600101611bb4565b50600054611c83906001600160a01b03168585846134e1565b9150505b92915050565b6000611c9d878787878787613624565b90505b9695505050505050565b6001546001600160a01b031681565b6000611cc68484846137db565b90505b9392505050565b6000546001600160a01b031681565b60008142811015611d025760405162461bcd60e51b81526004016106859061481e565b611d108888888830886118e5565b89516040516370a0823160e01b8152919450611d9e92509086906001600160a01b038316906370a0823190611d499030906004016146b1565b60206040518083038186803b158015611d6157600080fd5b505afa158015611d75573d6000803e3d6000fd5b505050506040513d601f19601f82011682018060405250810190611d99919061409f565b612d6c565b600154604051632e1a7d4d60e01b81526001600160a01b0390911690632e1a7d4d90611dce908590600401614da5565b600060405180830381600087803b158015611de857600080fd5b505af1158015611dfc573d6000803e3d6000fd5b505050506108f78483612a37565b60608142811015611e2d5760405162461bcd60e51b81526004016106859061481e565b6001546001600160a01b03168686600081611e4457fe5b611e5a926020606090920201908101915061404b565b6001600160a01b031614611e805760405162461bcd60e51b815260040161068590614bb4565b611ed2878787808060200260200160405190810160405280939291908181526020016000905b82821015610ce957611ec360608302860136819003810190614281565b81526020019060010190611ea6565b60015481519193506001600160a01b03169063d0e30db0908490600090611ef557fe5b60200260200101516040518263ffffffff1660e01b81526004016000604051808303818588803b158015611f2857600080fd5b505af1158015611f3c573d6000803e3d6000fd5b5050600154600254600080546001600160a01b03938416965063a9059cbb9550611f7294509192909116908b908b90816107cc57fe5b84600081518110611f7f57fe5b60200260200101516040518363ffffffff1660e01b8152600401611fa492919061474e565b602060405180830381600087803b158015611fbe57600080fd5b505af1158015611fd2573d6000803e3d6000fd5b505050506040513d601f19601f82011682018060405250810190611ff69190614083565b611ffc57fe5b610eeb828787808060200260200160405190810160405280939291908181526020016000905b82821015610ea45761203f60608302860136819003810190614281565b81526020019060010190612022565b60608082516001016001600160401b038111801561206b57600080fd5b50604051908082528060200260200182016040528015612095578160200160208202803683370190505b509050826000815181106120a557fe5b6020026020010151600001516001600160a01b031663313ce5676040518163ffffffff1660e01b815260040160206040518083038186803b1580156120e957600080fd5b505afa1580156120fd573d6000803e3d6000fd5b505050506040513d601f19601f8201168201806040525081019061212191906145d2565b60ff168160008151811061213157fe5b60200260200101818152505060005b83518110156121f65783818151811061215557fe5b6020026020010151602001516001600160a01b031663313ce5676040518163ffffffff1660e01b815260040160206040518083038186803b15801561219957600080fd5b505afa1580156121ad573d6000803e3d6000fd5b505050506040513d601f19601f820116820180604052508101906121d191906145d2565b60ff168282600101815181106121e357fe5b6020908102919091010152600101612140565b50600054611c83906001600160a01b0316858584613849565b606081428110156122325760405162461bcd60e51b81526004016106859061481e565b6001546001600160a01b03168686600019810181811061224e57fe5b9050606002016020016020810190612266919061404b565b6001600160a01b03161461228c5760405162461bcd60e51b815260040161068590614bb4565b6122de888787808060200260200160405190810160405280939291908181526020016000905b82821015610ce9576122cf60608302860136819003810190614281565b815260200190600101906122b2565b915086826000815181106122ee57fe5b602002602001015111156123145760405162461bcd60e51b815260040161068590614a45565b6123248686600081811061078d57fe5b610859828787808060200260200160405190810160405280939291908181526020016000905b8282101561084e5761236760608302860136819003810190614281565b8152602001906001019061234a565b6000611c9d878787878787613987565b600080600083428110156123ac5760405162461bcd60e51b81526004016106859061481e565b6123c76123be368d90038d018d614281565b8b8b8b8b61325b565b809450819550505060006123fd6002546000809054906101000a90046001600160a01b03168e8036038101906105279190614281565b905061240f61165b60208e018e61404b565b61242a61242260408e0160208f0161404b565b338387612ac9565b6040516335313c2160e11b81526001600160a01b03821690636a62784290612456908a906004016146b1565b602060405180830381600087803b15801561247057600080fd5b505af1158015612484573d6000803e3d6000fd5b505050506040513d601f19601f820116820180604052508101906124a8919061409f565b925050509750975097945050505050565b606081428110156124dc5760405162461bcd60e51b81526004016106859061481e565b61252e888787808060200260200160405190810160405280939291908181526020016000905b82821015610ce95761251f60608302860136819003810190614281565b81526020019060010190612502565b9150868260008151811061253e57fe5b602002602001015111156125645760405162461bcd60e51b815260040161068590614a45565b6125748686600081811061078d57fe5b6108f7828787808060200260200160405190810160405280939291908181526020016000905b82821015610ea4576125b760608302860136819003810190614281565b8152602001906001019061259a565b606081428110156125e95760405162461bcd60e51b81526004016106859061481e565b61263b888787808060200260200160405190810160405280939291908181526020016000905b8282101561073a5761262c60608302860136819003810190614281565b8152602001906001019061260f565b9150868260018451038151811061264e57fe5b602002602001015110156126745760405162461bcd60e51b815260040161068590614c22565b6126c98686600081811061268457fe5b61269a926020606090920201908101915061404b565b336126c36002546000809054906101000a90046001600160a01b03168b8b60008181106107cc57fe5b8b612ac9565b6108f7828787808060200260200160405190810160405280939291908181526020016000905b82821015610ea45761270c60608302860136819003810190614281565b815260200190600101906126ef565b6060814281101561273e5760405162461bcd60e51b81526004016106859061481e565b6001546001600160a01b0316868660008161275557fe5b61276b926020606090920201908101915061404b565b6001600160a01b0316146127915760405162461bcd60e51b815260040161068590614bb4565b348811156127b15760405162461bcd60e51b815260040161068590614a02565b612803888787808060200260200160405190810160405280939291908181526020016000905b8282101561073a576127f460608302860136819003810190614281565b815260200190600101906127d7565b9150868260018451038151811061281657fe5b6020026020010151101561283c5760405162461bcd60e51b815260040161068590614c22565b60015482516001600160a01b039091169063d0e30db090849060009061285e57fe5b60200260200101516040518263ffffffff1660e01b81526004016000604051808303818588803b15801561289157600080fd5b505af11580156128a5573d6000803e3d6000fd5b5050600154600254600080546001600160a01b03938416965063a9059cbb95506128db94509192909116908b908b90816107cc57fe5b846000815181106128e857fe5b60200260200101516040518363ffffffff1660e01b815260040161290d92919061474e565b602060405180830381600087803b15801561292757600080fd5b505af115801561293b573d6000803e3d6000fd5b505050506040513d601f19601f8201168201806040525081019061295f9190614083565b61296557fe5b6108f7828787808060200260200160405190810160405280939291908181526020016000905b82821015610ea4576129a860608302860136819003810190614281565b8152602001906001019061298b565b60008060006129ce84600001518560200151613457565b9150915084828286604001516040516020016129ec9392919061461a565b6040516020818303038152906040528051906020012087604051602001612a1593929190614679565b60408051601f1981840301815291905280516020909101209695505050505050565b604080516000808252602082019092526001600160a01b038416908390604051612a61919061465d565b60006040518083038185875af1925050503d8060008114612a9e576040519150601f19603f3d011682016040523d82523d6000602084013e612aa3565b606091505b5050905080612ac45760405162461bcd60e51b815260040161068590614968565b505050565b60006060856001600160a01b03166323b872dd868686604051602401612af193929190614706565b6040516020818303038152906040529060e01b6020820180516001600160e01b038381831617835250505050604051612b2a919061465d565b6000604051808303816000865af19150503d8060008114612b67576040519150601f19603f3d011682016040523d82523d6000602084013e612b6c565b606091505b5091509150818015612b96575080511580612b96575080806020019051810190612b969190614083565b612bb25760405162461bcd60e51b815260040161068590614917565b505050505050565b60005b60018351038111612d6657600080848381518110612bd757fe5b602002602001015160000151858481518110612bef57fe5b602002602001015160200151915091506000612c0b8383613457565b5090506000878560010181518110612c1f57fe5b60200260200101519050600080836001600160a01b0316866001600160a01b031614612c4d57826000612c51565b6000835b91509150600060018a51038810612c685788612c9b565b6002546000548b51612c9b92916001600160a01b0316908d9060018d01908110612c8e57fe5b60200260200101516129b7565b9050612cc46002546000809054906101000a90046001600160a01b03168c8b81518110612c8e57fe5b6001600160a01b031663022c0d9f84848460006040519080825280601f01601f191660200182016040528015612d01576020820181803683370190505b506040518563ffffffff1660e01b8152600401612d219493929190614dbc565b600060405180830381600087803b158015612d3b57600080fd5b505af1158015612d4f573d6000803e3d6000fd5b505060019099019850612bbd975050505050505050565b50505050565b60006060846001600160a01b031663a9059cbb8585604051602401612d9292919061474e565b6040516020818303038152906040529060e01b6020820180516001600160e01b038381831617835250505050604051612dcb919061465d565b6000604051808303816000865af19150503d8060008114612e08576040519150601f19603f3d011682016040523d82523d6000602084013e612e0d565b606091505b5091509150818015612e37575080511580612e37575080806020019051810190612e379190614083565b612e535760405162461bcd60e51b815260040161068590614c6e565b5050505050565b60005b8251811015612ac4576000612ea0848381518110612e7757fe5b602002602001015160000151858481518110612e8f57fe5b602002602001015160200151613457565b5090506000612ecc6002546000809054906101000a90046001600160a01b0316878681518110612c8e57fe5b9050600080600080600080866001600160a01b0316630902f1ac6040518163ffffffff1660e01b815260040160606040518083038186803b158015612f1057600080fd5b505afa158015612f24573d6000803e3d6000fd5b505050506040513d601f19601f82011682018060405250810190612f4891906142bf565b506001600160701b031691506001600160701b03169150876001600160a01b03168b8a81518110612f7557fe5b6020026020010151600001516001600160a01b031614612f96578082612f99565b81815b8094508195505050612fe8848c8b81518110612fb157fe5b6020026020010151600001516001600160a01b03166370a082318a6040518263ffffffff1660e01b81526004016110c691906146b1565b955050506000898881518110612ffa57fe5b6020026020010151600001516001600160a01b031663313ce5676040518163ffffffff1660e01b815260040160206040518083038186803b15801561303e57600080fd5b505afa158015613052573d6000803e3d6000fd5b505050506040513d601f19601f8201168201806040525081019061307691906145d2565b60ff16905060008a898151811061308957fe5b6020026020010151602001516001600160a01b031663313ce5676040518163ffffffff1660e01b815260040160206040518083038186803b1580156130cd57600080fd5b505afa1580156130e1573d6000803e3d6000fd5b505050506040513d601f19601f8201168201806040525081019061310591906145d2565b60ff16905061312f8685858e8d8151811061311c57fe5b6020026020010151604001518686612376565b94505050600080876001600160a01b03168b8a8151811061314c57fe5b6020026020010151600001516001600160a01b03161461316e57846000613172565b6000855b91509150600060018c51038a10613189578a6131af565b6002546000548d516131af92916001600160a01b0316908f9060018f01908110612c8e57fe5b6040805160008152602081019182905263022c0d9f60e01b9091529091506001600160a01b0389169063022c0d9f906131f19086908690869060248101614dbc565b600060405180830381600087803b15801561320b57600080fd5b505af115801561321f573d6000803e3d6000fd5b50506001909b019a50612e5d9950505050505050505050565b80820382811115611c875760405162461bcd60e51b81526004016106859061488c565b60008054865160208801516040808a015190516306801cc360e41b8152859485946001600160a01b0390911693636801cc309361329a9360040161472a565b60206040518083038186803b1580156132b257600080fd5b505afa1580156132c6573d6000803e3d6000fd5b505050506040513d601f19601f820116820180604052508101906132ea9190614067565b90506001600160a01b03811661338d57600054885160208a01516040808c015190516320b7f73960e21b81526001600160a01b03909416936382dfdce493613338939092909160040161472a565b602060405180830381600087803b15801561335257600080fd5b505af1158015613366573d6000803e3d6000fd5b505050506040513d601f19601f8201168201806040525081019061338a9190614067565b90505b6000805481906133a6906001600160a01b03168b613b36565b915091508160001480156133b8575080155b156133c85788945087935061344a565b60006133d58a84846137db565b905088811161340957868110156133fe5760405162461bcd60e51b815260040161068590614ac8565b899550935083613448565b60006134168a84866137db565b90508a81111561342257fe5b888110156134425760405162461bcd60e51b815260040161068590614ce8565b95508894505b505b5050509550959350505050565b600080826001600160a01b0316846001600160a01b0316141561348c5760405162461bcd60e51b8152600401610685906149bc565b826001600160a01b0316846001600160a01b0316106134ac5782846134af565b83835b90925090506001600160a01b0382166134da5760405162461bcd60e51b815260040161068590614855565b9250929050565b60606001835110156135055760405162461bcd60e51b815260040161068590614beb565b82516001016001600160401b038111801561351f57600080fd5b50604051908082528060200260200182016040528015613549578160200160208202803683370190505b509050838160008151811061355a57fe5b60200260200101818152505060005b835181101561361b576000806135928887858151811061358557fe5b6020026020010151613b36565b915091506135f78484815181106135a557fe5b602002602001015183838987815181106135bb57fe5b6020026020010151604001518988815181106135d357fe5b60200260200101518a89600101815181106135ea57fe5b6020026020010151613987565b84846001018151811061360657fe5b60209081029190910101525050600101613569565b50949350505050565b60008087116136455760405162461bcd60e51b815260040161068590614a8d565b6000861180156136555750600085115b6136715760405162461bcd60e51b815260040161068590614b7d565b83156137735761368b83600a81900a63ffffffff613c9016565b92506136a182600a81900a63ffffffff613c9016565b91506136b58761271063ffffffff613cc716565b8703965060006136c787878686613cf7565b90506136f1846136e589670de0b6b3a764000063ffffffff613c9016565b9063ffffffff613cc716565b965061370f836136e588670de0b6b3a764000063ffffffff613c9016565b955061372d836136e58a670de0b6b3a764000063ffffffff613c9016565b975061374d87611116613746898c63ffffffff61323816565b848b613db3565b915061376b670de0b6b3a76400006136e5848763ffffffff613c9016565b915050611ca0565b60006137976103e861378b898b63ffffffff613c9016565b9063ffffffff613c9016565b905060006137b16103e561378b898c63ffffffff61323816565b90506137ce60018284816137c157fe5b049063ffffffff613ec116565b9998505050505050505050565b60008084116137fc5760405162461bcd60e51b815260040161068590614b49565b60008311801561380c5750600082115b6138285760405162461bcd60e51b815260040161068590614b7d565b82613839858463ffffffff613c9016565b8161384057fe5b04949350505050565b606060018351101561386d5760405162461bcd60e51b815260040161068590614beb565b82516001016001600160401b038111801561388757600080fd5b506040519080825280602002602001820160405280156138b1578160200160208202803683370190505b50905083816001835103815181106138c557fe5b6020908102919091010152825160001981015b8181101561397d576000806138f38988858151811061358557fe5b9150915061395b85846001018151811061390957fe5b602002602001015183838a878151811061391f57fe5b6020026020010151604001518a888151811061393757fe5b60200260200101518b896001018151811061394e57fe5b6020026020010151613624565b85848151811061396757fe5b60209081029190910101525050600019016138d8565b5050949350505050565b60008087116139a85760405162461bcd60e51b815260040161068590614b0f565b6000861180156139b85750600085115b6139d45760405162461bcd60e51b815260040161068590614b7d565b8315613ace576139ec8761271063ffffffff613cc716565b90960395613a0483600a81900a63ffffffff613c9016565b9250613a1a82600a81900a63ffffffff613c9016565b91506000613a2a87878686613cf7565b9050613a48846136e589670de0b6b3a764000063ffffffff613c9016565b9650613a66836136e588670de0b6b3a764000063ffffffff613c9016565b9550613a84846136e58a670de0b6b3a764000063ffffffff613c9016565b9750613ab0613aa3613a9c8a8a63ffffffff613ec116565b8389613db3565b879063ffffffff61323816565b915061376b670de0b6b3a76400006136e5848663ffffffff613c9016565b6000613ae2886103e563ffffffff613c9016565b90506000613af6828863ffffffff613c9016565b90506000613b1c83613b108b6103e863ffffffff613c9016565b9063ffffffff613ec116565b9050808281613b2757fe5b049a9950505050505050505050565b6000806000613b4d84600001518560200151613457565b5090506000856001600160a01b031663a35a337a6040518163ffffffff1660e01b815260040160206040518083038186803b158015613b8b57600080fd5b505afa158015613b9f573d6000803e3d6000fd5b505050506040513d601f19601f82011682018060405250810190613bc3919061409f565b9050600080613bd38389896129b7565b6001600160a01b0316630902f1ac6040518163ffffffff1660e01b815260040160606040518083038186803b158015613c0b57600080fd5b505afa158015613c1f573d6000803e3d6000fd5b505050506040513d601f19601f82011682018060405250810190613c4391906142bf565b506001600160701b031691506001600160701b03169150836001600160a01b031687600001516001600160a01b031614613c7e578082613c81565b81815b90999098509650505050505050565b6000811580613cab57505080820282828281613ca857fe5b04145b611c875760405162461bcd60e51b8152600401610685906148bb565b600081613ce65760405162461bcd60e51b815260040161068590614cbb565b818381613cef57fe5b049392505050565b600080613d16846136e588670de0b6b3a764000063ffffffff613c9016565b90506000613d36846136e588670de0b6b3a764000063ffffffff613c9016565b90506000613d56670de0b6b3a76400006136e5858563ffffffff613c9016565b90506000613d95613d79670de0b6b3a76400006136e5868063ffffffff613c9016565b613b10670de0b6b3a76400006136e5888063ffffffff613c9016565b90506137ce670de0b6b3a76400006136e5848463ffffffff613c9016565b6000805b60ff811015613eb857826000613dcd8783613ee4565b905085811015613e1c576000613e02613de68988613f43565b6136e5670de0b6b3a764000061378b8b8763ffffffff61323816565b9050613e14868263ffffffff613ec116565b955050613e5d565b6000613e47613e2b8988613f43565b6136e5670de0b6b3a764000061378b868c63ffffffff61323816565b9050613e59868263ffffffff61323816565b9550505b81851115613e8c576001613e77868463ffffffff61323816565b11613e8757849350505050611cc9565b613eae565b6001613e9e838763ffffffff61323816565b11613eae57849350505050611cc9565b5050600101613db7565b50909392505050565b80820182811015611c875760405162461bcd60e51b8152600401610685906148e9565b6000611cc9613f0f670de0b6b3a76400006136e58561378b83838a838383838063ffffffff613c9016565b613b10670de0b6b3a76400006136e5613f3682828961378b8383838063ffffffff613c9016565b889063ffffffff613c9016565b6000611cc9613f6a670de0b6b3a76400006136e58661378b8383838063ffffffff613c9016565b613b10670de0b6b3a76400006136e5613f8b8282898063ffffffff613c9016565b61378b60038a63ffffffff613c9016565b60008083601f840112613fad578182fd5b5081356001600160401b03811115613fc3578182fd5b6020830191508360206060830285010111156134da57600080fd5b600060608284031215613fef578081fd5b50919050565b600060608284031215614006578081fd5b6140106060614e45565b9050813561401d81614e97565b8152602082013561402d81614e97565b6020820152604082013561404081614eaf565b604082015292915050565b60006020828403121561405c578081fd5b8135611cc981614e97565b600060208284031215614078578081fd5b8151611cc981614e97565b600060208284031215614094578081fd5b8151611cc981614eaf565b6000602082840312156140b0578081fd5b5051919050565b6000602082840312156140c8578081fd5b81516001600160401b03808211156140de578283fd5b81840185601f8201126140ef578384fd5b80519250818311156140ff578384fd5b614112601f8401601f1916602001614e45565b9150828252856020848301011115614128578384fd5b61361b836020840160208401614e6b565b6000806000806000806101008789031215614152578182fd5b61415c8888613fde565b9550606087013594506080870135935060a0870135925060c087013561418181614e97565b8092505060e087013590509295509295509295565b600080600080600080600080610180898b0312156141b2578182fd5b6141bc8a8a613fde565b9750606089013596506080890135955060a0890135945060c08901356141e181614e97565b935060e089013592506101008901356141f981614eaf565b91506142098a6101208b01613fde565b90509295985092959890939650565b6000806000806000806000610120888a031215614233578081fd5b61423d8989613fde565b9650606088013595506080880135945060a0880135935060c0880135925060e088013561426981614e97565b80925050610100880135905092959891949750929550565b600060608284031215614292578081fd5b611cc98383613ff5565b60008060008060008061010087890312156142b5578384fd5b61415c8888613ff5565b6000806000606084860312156142d3578081fd5b83516142de81614ebd565b60208501519093506142ef81614ebd565b604085015190925063ffffffff81168114614308578182fd5b809150509250925092565b600080600060408486031215614327578081fd5b8335925060208401356001600160401b0380821115614344578283fd5b81860187601f820112614355578384fd5b8035925081831115614365578384fd5b8760208085028301011115614378578384fd5b949760209095019650909450505050565b6000806000806000608086880312156143a0578283fd5b8535945060208601356001600160401b038111156143bc578384fd5b6143c888828901613f9c565b90955093505060408601356143dc81614e97565b949793965091946060013592915050565b600080604083850312156143ff578182fd5b823591506020808401356001600160401b038082111561441d578384fd5b81860187601f82011261442e578485fd5b803592508183111561443e578485fd5b61444b8485850201614e45565b83815284810192508185016060808602840187018b101561446a578788fd5b8793505b85841015614496576144808b83613ff5565b855293860193600193909301929081019061446e565b5096999098509650505050505050565b600080604083850312156144b8578182fd5b505080516020909101519092909150565b60008060008060008060a087890312156144e1578384fd5b863595506020870135945060408701356001600160401b03811115614504578485fd5b61451089828a01613f9c565b909550935050606087013561452481614e97565b80925050608087013590509295509295509295565b60008060006060848603121561454d578081fd5b505081359360208301359350604090920135919050565b60008060008060008060c0878903121561457c578384fd5b863595506020870135945060408701359350606087013561459c81614eaf565b9598949750929560808101359460a0909101359350915050565b6000602082840312156145c7578081fd5b8135611cc981614ed2565b6000602082840312156145e3578081fd5b8151611cc981614ed2565b60008151808452614606816020860160208601614e6b565b601f01601f19169290920160200192915050565b6bffffffffffffffffffffffff19606094851b811682529290931b9091166014830152151560f81b602882015260290190565b6000828483379101908152919050565b6000825161466f818460208701614e6b565b9190910192915050565b6001600160f81b0319815260609390931b6bffffffffffffffffffffffff191660018401526015830191909152603582015260550190565b6001600160a01b0391909116815260200190565b6001600160a01b0397881681529590961660208601526040850193909352606084019190915260ff16608083015260a082015260c081019190915260e00190565b6001600160a01b039384168152919092166020820152604081019190915260600190565b6001600160a01b039384168152919092166020820152901515604082015260600190565b6001600160a01b03929092168252602082015260400190565b6000602080830181845280855180835260408601915060408482028701019250838701855b828110156147ba57603f198886030184526147a88583516145ee565b9450928501929085019060010161478c565b5092979650505050505050565b6020808252825182820181905260009190848201906040850190845b818110156147ff578351835292840192918401916001016147e3565b50909695505050505050565b600060208252611cc960208301846145ee565b60208082526019908201527f54656c65737761705632526f757465723a204558504952454400000000000000604082015260600190565b6020808252601f908201527f54656c657377617056324c6962726172793a205a45524f5f4144445245535300604082015260600190565b60208082526015908201527464732d6d6174682d7375622d756e646572666c6f7760581b604082015260600190565b60208082526014908201527364732d6d6174682d6d756c2d6f766572666c6f7760601b604082015260600190565b60208082526014908201527364732d6d6174682d6164642d6f766572666c6f7760601b604082015260600190565b60208082526031908201527f5472616e7366657248656c7065723a3a7472616e7366657246726f6d3a207472604082015270185b9cd9995c919c9bdb4819985a5b1959607a1b606082015260800190565b60208082526034908201527f5472616e7366657248656c7065723a3a736166655472616e736665724554483a60408201527308115512081d1c985b9cd9995c8819985a5b195960621b606082015260800190565b60208082526026908201527f54656c657377617056324c6962726172793a204944454e544943414c5f41444460408201526552455353455360d01b606082015260800190565b60208082526023908201527f54656c65737761705632526f757465723a20494e56414c49445f4d53475f56416040820152624c554560e81b606082015260800190565b60208082526028908201527f54656c65737761705632526f757465723a204558434553534956455f494e50556040820152671517d05353d5539560c21b606082015260800190565b6020808252602d90820152600080516020614ee283398151915260408201526c13d55514155517d05353d55395609a1b606082015260800190565b60208082526027908201527f54656c65737761705632526f757465723a20494e53554646494349454e545f4260408201526617d05353d5539560ca1b606082015260800190565b6020808252602c90820152600080516020614ee283398151915260408201526b125394155517d05353d5539560a21b606082015260800190565b6020808252602690820152600080516020614ee2833981519152604082015265105353d5539560d21b606082015260800190565b6020808252602990820152600080516020614ee28339815191526040820152684c495155494449545960b81b606082015260800190565b6020808252601e908201527f54656c65737761705632526f757465723a20494e56414c49445f504154480000604082015260600190565b6020808252601f908201527f54656c657377617056324c6962726172793a20494e56414c49445f5041544800604082015260600190565b6020808252602c908201527f54656c65737761705632526f757465723a20494e53554646494349454e545f4f60408201526b155514155517d05353d5539560a21b606082015260800190565b6020808252602d908201527f5472616e7366657248656c7065723a3a736166655472616e736665723a20747260408201526c185b9cd9995c8819985a5b1959609a1b606082015260800190565b60208082526013908201527264732d6d6174682d6469762d62792d7a65726f60681b604082015260600190565b60208082526027908201527f54656c65737761705632526f757465723a20494e53554646494349454e545f4160408201526617d05353d5539560ca1b606082015260800190565b61010081018735614d3f81614e97565b6001600160a01b039081168352602089013590614d5b82614e97565b9081166020840152604089013590614d7282614eaf565b90151560408401526060830197909752608082019590955260a0810193909352931660c082015260e00191909152919050565b90815260200190565b918252602082015260400190565b600085825284602083015260018060a01b038416604083015260806060830152611ca060808301846145ee565b9283526020830191909152604082015260600190565b6000808335601e19843603018112614e15578283fd5b808401803592506001600160401b03831115614e2f578384fd5b602001925050368190038213156134da57600080fd5b6040518181016001600160401b0381118282101715614e6357600080fd5b604052919050565b60005b83811015614e86578181015183820152602001614e6e565b83811115612d665750506000910152565b6001600160a01b0381168114614eac57600080fd5b50565b8015158114614eac57600080fd5b6001600160701b0381168114614eac57600080fd5b60ff81168114614eac57600080fdfe54656c657377617056324c6962726172793a20494e53554646494349454e545fa26469706673582212200159715cb8c126d5f456ed36e33829401bb68e0ddb8243b04410330c89a7943164736f6c63430006060033","opcodes":"PUSH1 0x80 PUSH1 0x40 MSTORE CALLVALUE DUP1 ISZERO PUSH3 0x11 JUMPI PUSH1 0x0 DUP1 REVERT JUMPDEST POP PUSH1 0x40 MLOAD PUSH3 0x5097 CODESIZE SUB DUP1 PUSH3 0x5097 DUP4 CODECOPY DUP2 ADD PUSH1 0x40 DUP2 SWAP1 MSTORE PUSH3 0x34 SWAP2 PUSH3 0xE0 JUMP JUMPDEST PUSH1 0x0 DUP1 SLOAD PUSH1 0x1 PUSH1 0x1 PUSH1 0xA0 SHL SUB DUP1 DUP6 AND PUSH1 0x1 PUSH1 0x1 PUSH1 0xA0 SHL SUB NOT SWAP3 DUP4 AND DUP2 OR SWAP1 SWAP4 SSTORE PUSH1 0x1 DUP1 SLOAD SWAP2 DUP6 AND SWAP2 SWAP1 SWAP3 AND OR SWAP1 SSTORE PUSH1 0x40 DUP1 MLOAD PUSH4 0x51AD19BD PUSH1 0xE1 SHL DUP2 MSTORE SWAP1 MLOAD PUSH4 0xA35A337A SWAP2 PUSH1 0x4 DUP1 DUP3 ADD SWAP3 PUSH1 0x20 SWAP3 SWAP1 SWAP2 SWAP1 DUP3 SWAP1 SUB ADD DUP2 DUP7 DUP1 EXTCODESIZE ISZERO DUP1 ISZERO PUSH3 0x99 JUMPI PUSH1 0x0 DUP1 REVERT JUMPDEST POP GAS STATICCALL ISZERO DUP1 ISZERO PUSH3 0xAE JUMPI RETURNDATASIZE PUSH1 0x0 DUP1 RETURNDATACOPY RETURNDATASIZE PUSH1 0x0 REVERT JUMPDEST POP POP POP POP PUSH1 0x40 MLOAD RETURNDATASIZE PUSH1 0x1F NOT PUSH1 0x1F DUP3 ADD AND DUP3 ADD DUP1 PUSH1 0x40 MSTORE POP DUP2 ADD SWAP1 PUSH3 0xD4 SWAP2 SWAP1 PUSH3 0x11E JUMP JUMPDEST PUSH1 0x2 SSTORE POP PUSH3 0x150 SWAP1 POP JUMP JUMPDEST PUSH1 0x0 DUP1 PUSH1 0x40 DUP4 DUP6 SUB SLT ISZERO PUSH3 0xF3 JUMPI DUP2 DUP3 REVERT JUMPDEST DUP3 MLOAD PUSH3 0x100 DUP2 PUSH3 0x137 JUMP JUMPDEST PUSH1 0x20 DUP5 ADD MLOAD SWAP1 SWAP3 POP PUSH3 0x113 DUP2 PUSH3 0x137 JUMP JUMPDEST DUP1 SWAP2 POP POP SWAP3 POP SWAP3 SWAP1 POP JUMP JUMPDEST PUSH1 0x0 PUSH1 0x20 DUP3 DUP5 SUB SLT ISZERO PUSH3 0x130 JUMPI DUP1 DUP2 REVERT JUMPDEST POP MLOAD SWAP2 SWAP1 POP JUMP JUMPDEST PUSH1 0x1 PUSH1 0x1 PUSH1 0xA0 SHL SUB DUP2 AND DUP2 EQ PUSH3 0x14D JUMPI PUSH1 0x0 DUP1 REVERT JUMPDEST POP JUMP JUMPDEST PUSH2 0x4F37 DUP1 PUSH3 0x160 PUSH1 0x0 CODECOPY PUSH1 0x0 RETURN INVALID PUSH1 0x80 PUSH1 0x40 MSTORE PUSH1 0x4 CALLDATASIZE LT PUSH2 0x1A0 JUMPI PUSH1 0x0 CALLDATALOAD PUSH1 0xE0 SHR DUP1 PUSH4 0x9881FCB4 GT PUSH2 0xEC JUMPI DUP1 PUSH4 0xD5C54E33 GT PUSH2 0x8A JUMPI DUP1 PUSH4 0xDC2972C2 GT PUSH2 0x64 JUMPI DUP1 PUSH4 0xDC2972C2 EQ PUSH2 0x48B JUMPI DUP1 PUSH4 0xED1FBCA2 EQ PUSH2 0x4AB JUMPI DUP1 PUSH4 0xF41766D8 EQ PUSH2 0x4CB JUMPI DUP1 PUSH4 0xF4F3DE4F EQ PUSH2 0x4EB JUMPI PUSH2 0x1BB JUMP JUMPDEST DUP1 PUSH4 0xD5C54E33 EQ PUSH2 0x42B JUMPI DUP1 PUSH4 0xD69F344C EQ PUSH2 0x44B JUMPI DUP1 PUSH4 0xD8EC2777 EQ PUSH2 0x46B JUMPI PUSH2 0x1BB JUMP JUMPDEST DUP1 PUSH4 0xAD615DEC GT PUSH2 0xC6 JUMPI DUP1 PUSH4 0xAD615DEC EQ PUSH2 0x3C3 JUMPI DUP1 PUSH4 0xC45A0155 EQ PUSH2 0x3E3 JUMPI DUP1 PUSH4 0xCAD77EF2 EQ PUSH2 0x3F8 JUMPI DUP1 PUSH4 0xD4D6886F EQ PUSH2 0x418 JUMPI PUSH2 0x1BB JUMP JUMPDEST DUP1 PUSH4 0x9881FCB4 EQ PUSH2 0x361 JUMPI DUP1 PUSH4 0x99E629F9 EQ PUSH2 0x381 JUMPI DUP1 PUSH4 0xAD5C4648 EQ PUSH2 0x3A1 JUMPI PUSH2 0x1BB JUMP JUMPDEST DUP1 PUSH4 0x633AFC92 GT PUSH2 0x159 JUMPI DUP1 PUSH4 0x7AF728C8 GT PUSH2 0x133 JUMPI DUP1 PUSH4 0x7AF728C8 EQ PUSH2 0x2DF JUMPI DUP1 PUSH4 0x7D03C793 EQ PUSH2 0x2FF JUMPI DUP1 PUSH4 0x7DE50DDF EQ PUSH2 0x321 JUMPI DUP1 PUSH4 0x82179C5D EQ PUSH2 0x341 JUMPI PUSH2 0x1BB JUMP JUMPDEST DUP1 PUSH4 0x633AFC92 EQ PUSH2 0x299 JUMPI DUP1 PUSH4 0x6CC1AE13 EQ PUSH2 0x2AC JUMPI DUP1 PUSH4 0x71D6614D EQ PUSH2 0x2CC JUMPI PUSH2 0x1BB JUMP JUMPDEST DUP1 PUSH4 0xCD7EE9F EQ PUSH2 0x1C0 JUMPI DUP1 PUSH4 0x12210E8A EQ PUSH2 0x1F7 JUMPI DUP1 PUSH4 0x18A13086 EQ PUSH2 0x1FF JUMPI DUP1 PUSH4 0x3E6C63C9 EQ PUSH2 0x22C JUMPI DUP1 PUSH4 0x4B45E535 EQ PUSH2 0x24C JUMPI DUP1 PUSH4 0x5AE401DC EQ PUSH2 0x279 JUMPI PUSH2 0x1BB JUMP JUMPDEST CALLDATASIZE PUSH2 0x1BB JUMPI PUSH1 0x1 SLOAD PUSH1 0x1 PUSH1 0x1 PUSH1 0xA0 SHL SUB AND CALLER EQ PUSH2 0x1B9 JUMPI INVALID JUMPDEST STOP JUMPDEST PUSH1 0x0 DUP1 REVERT JUMPDEST CALLVALUE DUP1 ISZERO PUSH2 0x1CC JUMPI PUSH1 0x0 DUP1 REVERT JUMPDEST POP PUSH2 0x1E0 PUSH2 0x1DB CALLDATASIZE PUSH1 0x4 PUSH2 0x4196 JUMP JUMPDEST PUSH2 0x4FE JUMP JUMPDEST PUSH1 0x40 MLOAD PUSH2 0x1EE SWAP3 SWAP2 SWAP1 PUSH2 0x4DAE JUMP JUMPDEST PUSH1 0x40 MLOAD DUP1 SWAP2 SUB SWAP1 RETURN JUMPDEST PUSH2 0x1B9 PUSH2 0x650 JUMP JUMPDEST CALLVALUE DUP1 ISZERO PUSH2 0x20B JUMPI PUSH1 0x0 DUP1 REVERT JUMPDEST POP PUSH2 0x21F PUSH2 0x21A CALLDATASIZE PUSH1 0x4 PUSH2 0x44C9 JUMP JUMPDEST PUSH2 0x662 JUMP JUMPDEST PUSH1 0x40 MLOAD PUSH2 0x1EE SWAP2 SWAP1 PUSH2 0x47C7 JUMP JUMPDEST CALLVALUE DUP1 ISZERO PUSH2 0x238 JUMPI PUSH1 0x0 DUP1 REVERT JUMPDEST POP PUSH2 0x1E0 PUSH2 0x247 CALLDATASIZE PUSH1 0x4 PUSH2 0x4139 JUMP JUMPDEST PUSH2 0x902 JUMP JUMPDEST CALLVALUE DUP1 ISZERO PUSH2 0x258 JUMPI PUSH1 0x0 DUP1 REVERT JUMPDEST POP PUSH2 0x26C PUSH2 0x267 CALLDATASIZE PUSH1 0x4 PUSH2 0x4196 JUMP JUMPDEST PUSH2 0x9D6 JUMP JUMPDEST PUSH1 0x40 MLOAD PUSH2 0x1EE SWAP2 SWAP1 PUSH2 0x4DA5 JUMP JUMPDEST PUSH2 0x28C PUSH2 0x287 CALLDATASIZE PUSH1 0x4 PUSH2 0x4313 JUMP JUMPDEST PUSH2 0xABE JUMP JUMPDEST PUSH1 0x40 MLOAD PUSH2 0x1EE SWAP2 SWAP1 PUSH2 0x4767 JUMP JUMPDEST PUSH2 0x21F PUSH2 0x2A7 CALLDATASIZE PUSH1 0x4 PUSH2 0x4389 JUMP JUMPDEST PUSH2 0xC21 JUMP JUMPDEST CALLVALUE DUP1 ISZERO PUSH2 0x2B8 JUMPI PUSH1 0x0 DUP1 REVERT JUMPDEST POP PUSH2 0x1B9 PUSH2 0x2C7 CALLDATASIZE PUSH1 0x4 PUSH2 0x44C9 JUMP JUMPDEST PUSH2 0xEF5 JUMP JUMPDEST PUSH2 0x1B9 PUSH2 0x2DA CALLDATASIZE PUSH1 0x4 PUSH2 0x44C9 JUMP JUMPDEST PUSH2 0x114A JUMP JUMPDEST CALLVALUE DUP1 ISZERO PUSH2 0x2EB JUMPI PUSH1 0x0 DUP1 REVERT JUMPDEST POP PUSH2 0x1B9 PUSH2 0x2FA CALLDATASIZE PUSH1 0x4 PUSH2 0x44C9 JUMP JUMPDEST PUSH2 0x13E6 JUMP JUMPDEST PUSH2 0x312 PUSH2 0x30D CALLDATASIZE PUSH1 0x4 PUSH2 0x4139 JUMP JUMPDEST PUSH2 0x15DC JUMP JUMPDEST PUSH1 0x40 MLOAD PUSH2 0x1EE SWAP4 SWAP3 SWAP2 SWAP1 PUSH2 0x4DE9 JUMP JUMPDEST CALLVALUE DUP1 ISZERO PUSH2 0x32D JUMPI PUSH1 0x0 DUP1 REVERT JUMPDEST POP PUSH2 0x1E0 PUSH2 0x33C CALLDATASIZE PUSH1 0x4 PUSH2 0x4196 JUMP JUMPDEST PUSH2 0x17F8 JUMP JUMPDEST CALLVALUE DUP1 ISZERO PUSH2 0x34D JUMPI PUSH1 0x0 DUP1 REVERT JUMPDEST POP PUSH2 0x1E0 PUSH2 0x35C CALLDATASIZE PUSH1 0x4 PUSH2 0x429C JUMP JUMPDEST PUSH2 0x18E5 JUMP JUMPDEST CALLVALUE DUP1 ISZERO PUSH2 0x36D JUMPI PUSH1 0x0 DUP1 REVERT JUMPDEST POP PUSH2 0x21F PUSH2 0x37C CALLDATASIZE PUSH1 0x4 PUSH2 0x43ED JUMP JUMPDEST PUSH2 0x1AC2 JUMP JUMPDEST CALLVALUE DUP1 ISZERO PUSH2 0x38D JUMPI PUSH1 0x0 DUP1 REVERT JUMPDEST POP PUSH2 0x26C PUSH2 0x39C CALLDATASIZE PUSH1 0x4 PUSH2 0x4564 JUMP JUMPDEST PUSH2 0x1C8D JUMP JUMPDEST CALLVALUE DUP1 ISZERO PUSH2 0x3AD JUMPI PUSH1 0x0 DUP1 REVERT JUMPDEST POP PUSH2 0x3B6 PUSH2 0x1CAA JUMP JUMPDEST PUSH1 0x40 MLOAD PUSH2 0x1EE SWAP2 SWAP1 PUSH2 0x46B1 JUMP JUMPDEST CALLVALUE DUP1 ISZERO PUSH2 0x3CF JUMPI PUSH1 0x0 DUP1 REVERT JUMPDEST POP PUSH2 0x26C PUSH2 0x3DE CALLDATASIZE PUSH1 0x4 PUSH2 0x4539 JUMP JUMPDEST PUSH2 0x1CB9 JUMP JUMPDEST CALLVALUE DUP1 ISZERO PUSH2 0x3EF JUMPI PUSH1 0x0 DUP1 REVERT JUMPDEST POP PUSH2 0x3B6 PUSH2 0x1CD0 JUMP JUMPDEST CALLVALUE DUP1 ISZERO PUSH2 0x404 JUMPI PUSH1 0x0 DUP1 REVERT JUMPDEST POP PUSH2 0x26C PUSH2 0x413 CALLDATASIZE PUSH1 0x4 PUSH2 0x429C JUMP JUMPDEST PUSH2 0x1CDF JUMP JUMPDEST PUSH2 0x21F PUSH2 0x426 CALLDATASIZE PUSH1 0x4 PUSH2 0x4389 JUMP JUMPDEST PUSH2 0x1E0A JUMP JUMPDEST CALLVALUE DUP1 ISZERO PUSH2 0x437 JUMPI PUSH1 0x0 DUP1 REVERT JUMPDEST POP PUSH2 0x21F PUSH2 0x446 CALLDATASIZE PUSH1 0x4 PUSH2 0x43ED JUMP JUMPDEST PUSH2 0x204E JUMP JUMPDEST CALLVALUE DUP1 ISZERO PUSH2 0x457 JUMPI PUSH1 0x0 DUP1 REVERT JUMPDEST POP PUSH2 0x21F PUSH2 0x466 CALLDATASIZE PUSH1 0x4 PUSH2 0x44C9 JUMP JUMPDEST PUSH2 0x220F JUMP JUMPDEST CALLVALUE DUP1 ISZERO PUSH2 0x477 JUMPI PUSH1 0x0 DUP1 REVERT JUMPDEST POP PUSH2 0x26C PUSH2 0x486 CALLDATASIZE PUSH1 0x4 PUSH2 0x4564 JUMP JUMPDEST PUSH2 0x2376 JUMP JUMPDEST CALLVALUE DUP1 ISZERO PUSH2 0x497 JUMPI PUSH1 0x0 DUP1 REVERT JUMPDEST POP PUSH2 0x312 PUSH2 0x4A6 CALLDATASIZE PUSH1 0x4 PUSH2 0x4218 JUMP JUMPDEST PUSH2 0x2386 JUMP JUMPDEST CALLVALUE DUP1 ISZERO PUSH2 0x4B7 JUMPI PUSH1 0x0 DUP1 REVERT JUMPDEST POP PUSH2 0x21F PUSH2 0x4C6 CALLDATASIZE PUSH1 0x4 PUSH2 0x44C9 JUMP JUMPDEST PUSH2 0x24B9 JUMP JUMPDEST CALLVALUE DUP1 ISZERO PUSH2 0x4D7 JUMPI PUSH1 0x0 DUP1 REVERT JUMPDEST POP PUSH2 0x21F PUSH2 0x4E6 CALLDATASIZE PUSH1 0x4 PUSH2 0x44C9 JUMP JUMPDEST PUSH2 0x25C6 JUMP JUMPDEST PUSH2 0x21F PUSH2 0x4F9 CALLDATASIZE PUSH1 0x4 PUSH2 0x44C9 JUMP JUMPDEST PUSH2 0x271B JUMP JUMPDEST PUSH1 0x2 SLOAD PUSH1 0x0 DUP1 SLOAD SWAP1 SWAP2 DUP3 SWAP2 DUP3 SWAP2 PUSH2 0x52C SWAP2 PUSH1 0x1 PUSH1 0x1 PUSH1 0xA0 SHL SUB AND PUSH2 0x527 CALLDATASIZE DUP16 SWAP1 SUB DUP16 ADD DUP16 PUSH2 0x4281 JUMP JUMPDEST PUSH2 0x29B7 JUMP JUMPDEST SWAP1 POP PUSH1 0x0 DUP6 PUSH2 0x53B JUMPI DUP11 PUSH2 0x53F JUMP JUMPDEST PUSH1 0x0 NOT JUMPDEST SWAP1 POP PUSH1 0x1 PUSH1 0x1 PUSH1 0xA0 SHL SUB DUP3 AND PUSH4 0xD505ACCF CALLER ADDRESS DUP5 DUP12 PUSH2 0x561 PUSH1 0x20 DUP13 ADD DUP13 PUSH2 0x45B6 JUMP JUMPDEST DUP12 PUSH1 0x20 ADD CALLDATALOAD DUP13 PUSH1 0x40 ADD CALLDATALOAD PUSH1 0x40 MLOAD DUP9 PUSH4 0xFFFFFFFF AND PUSH1 0xE0 SHL DUP2 MSTORE PUSH1 0x4 ADD PUSH2 0x58D SWAP8 SWAP7 SWAP6 SWAP5 SWAP4 SWAP3 SWAP2 SWAP1 PUSH2 0x46C5 JUMP JUMPDEST PUSH1 0x0 PUSH1 0x40 MLOAD DUP1 DUP4 SUB DUP2 PUSH1 0x0 DUP8 DUP1 EXTCODESIZE ISZERO DUP1 ISZERO PUSH2 0x5A7 JUMPI PUSH1 0x0 DUP1 REVERT JUMPDEST POP GAS CALL ISZERO DUP1 ISZERO PUSH2 0x5BB JUMPI RETURNDATASIZE PUSH1 0x0 DUP1 RETURNDATACOPY RETURNDATASIZE PUSH1 0x0 REVERT JUMPDEST POP POP PUSH1 0x40 MLOAD PUSH4 0x3E6C63C9 PUSH1 0xE0 SHL DUP2 MSTORE ADDRESS SWAP5 POP PUSH4 0x3E6C63C9 SWAP4 POP PUSH2 0x5EE SWAP3 POP DUP15 SWAP2 POP DUP14 SWAP1 DUP14 SWAP1 DUP14 SWAP1 DUP14 SWAP1 DUP14 SWAP1 PUSH1 0x4 ADD PUSH2 0x4D2F JUMP JUMPDEST PUSH1 0x40 DUP1 MLOAD DUP1 DUP4 SUB DUP2 PUSH1 0x0 DUP8 DUP1 EXTCODESIZE ISZERO DUP1 ISZERO PUSH2 0x607 JUMPI PUSH1 0x0 DUP1 REVERT JUMPDEST POP GAS CALL ISZERO DUP1 ISZERO PUSH2 0x61B JUMPI RETURNDATASIZE PUSH1 0x0 DUP1 RETURNDATACOPY RETURNDATASIZE PUSH1 0x0 REVERT JUMPDEST POP POP POP POP PUSH1 0x40 MLOAD RETURNDATASIZE PUSH1 0x1F NOT PUSH1 0x1F DUP3 ADD AND DUP3 ADD DUP1 PUSH1 0x40 MSTORE POP DUP2 ADD SWAP1 PUSH2 0x63F SWAP2 SWAP1 PUSH2 0x44A6 JUMP JUMPDEST SWAP1 SWAP12 SWAP1 SWAP11 POP SWAP9 POP POP POP POP POP POP POP POP POP JUMP JUMPDEST SELFBALANCE ISZERO PUSH2 0x660 JUMPI PUSH2 0x660 CALLER SELFBALANCE PUSH2 0x2A37 JUMP JUMPDEST JUMP JUMPDEST PUSH1 0x60 DUP2 TIMESTAMP DUP2 LT ISZERO PUSH2 0x68E JUMPI PUSH1 0x40 MLOAD PUSH3 0x461BCD PUSH1 0xE5 SHL DUP2 MSTORE PUSH1 0x4 ADD PUSH2 0x685 SWAP1 PUSH2 0x481E JUMP JUMPDEST PUSH1 0x40 MLOAD DUP1 SWAP2 SUB SWAP1 REVERT JUMPDEST PUSH1 0x1 SLOAD PUSH1 0x1 PUSH1 0x1 PUSH1 0xA0 SHL SUB AND DUP7 DUP7 PUSH1 0x0 NOT DUP2 ADD DUP2 DUP2 LT PUSH2 0x6AA JUMPI INVALID JUMPDEST SWAP1 POP PUSH1 0x60 MUL ADD PUSH1 0x20 ADD PUSH1 0x20 DUP2 ADD SWAP1 PUSH2 0x6C2 SWAP2 SWAP1 PUSH2 0x404B JUMP JUMPDEST PUSH1 0x1 PUSH1 0x1 PUSH1 0xA0 SHL SUB AND EQ PUSH2 0x6E8 JUMPI PUSH1 0x40 MLOAD PUSH3 0x461BCD PUSH1 0xE5 SHL DUP2 MSTORE PUSH1 0x4 ADD PUSH2 0x685 SWAP1 PUSH2 0x4BB4 JUMP JUMPDEST PUSH2 0x744 DUP9 DUP8 DUP8 DUP1 DUP1 PUSH1 0x20 MUL PUSH1 0x20 ADD PUSH1 0x40 MLOAD SWAP1 DUP2 ADD PUSH1 0x40 MSTORE DUP1 SWAP4 SWAP3 SWAP2 SWAP1 DUP2 DUP2 MSTORE PUSH1 0x20 ADD PUSH1 0x0 SWAP1 JUMPDEST DUP3 DUP3 LT ISZERO PUSH2 0x73A JUMPI PUSH2 0x72B PUSH1 0x60 DUP4 MUL DUP7 ADD CALLDATASIZE DUP2 SWAP1 SUB DUP2 ADD SWAP1 PUSH2 0x4281 JUMP JUMPDEST DUP2 MSTORE PUSH1 0x20 ADD SWAP1 PUSH1 0x1 ADD SWAP1 PUSH2 0x70E JUMP JUMPDEST POP POP POP POP POP PUSH2 0x1AC2 JUMP JUMPDEST SWAP2 POP DUP7 DUP3 PUSH1 0x1 DUP5 MLOAD SUB DUP2 MLOAD DUP2 LT PUSH2 0x757 JUMPI INVALID JUMPDEST PUSH1 0x20 MUL PUSH1 0x20 ADD ADD MLOAD LT ISZERO PUSH2 0x77D JUMPI PUSH1 0x40 MLOAD PUSH3 0x461BCD PUSH1 0xE5 SHL DUP2 MSTORE PUSH1 0x4 ADD PUSH2 0x685 SWAP1 PUSH2 0x4C22 JUMP JUMPDEST PUSH2 0x7FC DUP7 DUP7 PUSH1 0x0 DUP2 DUP2 LT PUSH2 0x78D JUMPI INVALID JUMPDEST PUSH2 0x7A3 SWAP3 PUSH1 0x20 PUSH1 0x60 SWAP1 SWAP3 MUL ADD SWAP1 DUP2 ADD SWAP2 POP PUSH2 0x404B JUMP JUMPDEST CALLER PUSH2 0x7E2 PUSH1 0x2 SLOAD PUSH1 0x0 DUP1 SWAP1 SLOAD SWAP1 PUSH2 0x100 EXP SWAP1 DIV PUSH1 0x1 PUSH1 0x1 PUSH1 0xA0 SHL SUB AND DUP12 DUP12 PUSH1 0x0 DUP2 DUP2 LT PUSH2 0x7CC JUMPI INVALID JUMPDEST SWAP1 POP PUSH1 0x60 MUL ADD DUP1 CALLDATASIZE SUB DUP2 ADD SWAP1 PUSH2 0x527 SWAP2 SWAP1 PUSH2 0x4281 JUMP JUMPDEST DUP6 PUSH1 0x0 DUP2 MLOAD DUP2 LT PUSH2 0x7EF JUMPI INVALID JUMPDEST PUSH1 0x20 MUL PUSH1 0x20 ADD ADD MLOAD PUSH2 0x2AC9 JUMP JUMPDEST PUSH2 0x859 DUP3 DUP8 DUP8 DUP1 DUP1 PUSH1 0x20 MUL PUSH1 0x20 ADD PUSH1 0x40 MLOAD SWAP1 DUP2 ADD PUSH1 0x40 MSTORE DUP1 SWAP4 SWAP3 SWAP2 SWAP1 DUP2 DUP2 MSTORE PUSH1 0x20 ADD PUSH1 0x0 SWAP1 JUMPDEST DUP3 DUP3 LT ISZERO PUSH2 0x84E JUMPI PUSH2 0x83F PUSH1 0x60 DUP4 MUL DUP7 ADD CALLDATASIZE DUP2 SWAP1 SUB DUP2 ADD SWAP1 PUSH2 0x4281 JUMP JUMPDEST DUP2 MSTORE PUSH1 0x20 ADD SWAP1 PUSH1 0x1 ADD SWAP1 PUSH2 0x822 JUMP JUMPDEST POP POP POP POP POP ADDRESS PUSH2 0x2BBA JUMP JUMPDEST PUSH1 0x1 SLOAD DUP3 MLOAD PUSH1 0x1 PUSH1 0x1 PUSH1 0xA0 SHL SUB SWAP1 SWAP2 AND SWAP1 PUSH4 0x2E1A7D4D SWAP1 DUP5 SWAP1 PUSH1 0x0 NOT DUP2 ADD SWAP1 DUP2 LT PUSH2 0x880 JUMPI INVALID JUMPDEST PUSH1 0x20 MUL PUSH1 0x20 ADD ADD MLOAD PUSH1 0x40 MLOAD DUP3 PUSH4 0xFFFFFFFF AND PUSH1 0xE0 SHL DUP2 MSTORE PUSH1 0x4 ADD PUSH2 0x8A4 SWAP2 SWAP1 PUSH2 0x4DA5 JUMP JUMPDEST PUSH1 0x0 PUSH1 0x40 MLOAD DUP1 DUP4 SUB DUP2 PUSH1 0x0 DUP8 DUP1 EXTCODESIZE ISZERO DUP1 ISZERO PUSH2 0x8BE JUMPI PUSH1 0x0 DUP1 REVERT JUMPDEST POP GAS CALL ISZERO DUP1 ISZERO PUSH2 0x8D2 JUMPI RETURNDATASIZE PUSH1 0x0 DUP1 RETURNDATACOPY RETURNDATASIZE PUSH1 0x0 REVERT JUMPDEST POP POP POP POP PUSH2 0x8F7 DUP5 DUP4 PUSH1 0x1 DUP6 MLOAD SUB DUP2 MLOAD DUP2 LT PUSH2 0x8EA JUMPI INVALID JUMPDEST PUSH1 0x20 MUL PUSH1 0x20 ADD ADD MLOAD PUSH2 0x2A37 JUMP JUMPDEST POP SWAP7 SWAP6 POP POP POP POP POP POP JUMP JUMPDEST PUSH1 0x0 DUP1 DUP3 TIMESTAMP DUP2 LT ISZERO PUSH2 0x926 JUMPI PUSH1 0x40 MLOAD PUSH3 0x461BCD PUSH1 0xE5 SHL DUP2 MSTORE PUSH1 0x4 ADD PUSH2 0x685 SWAP1 PUSH2 0x481E JUMP JUMPDEST PUSH2 0x942 PUSH2 0x938 CALLDATASIZE DUP12 SWAP1 SUB DUP12 ADD DUP12 PUSH2 0x4281 JUMP JUMPDEST DUP10 DUP10 DUP10 ADDRESS DUP10 PUSH2 0x18E5 JUMP JUMPDEST SWAP1 SWAP4 POP SWAP2 POP PUSH2 0x95E PUSH2 0x957 PUSH1 0x20 DUP12 ADD DUP12 PUSH2 0x404B JUMP JUMPDEST DUP7 DUP6 PUSH2 0x2D6C JUMP JUMPDEST PUSH1 0x1 SLOAD PUSH1 0x40 MLOAD PUSH4 0x2E1A7D4D PUSH1 0xE0 SHL DUP2 MSTORE PUSH1 0x1 PUSH1 0x1 PUSH1 0xA0 SHL SUB SWAP1 SWAP2 AND SWAP1 PUSH4 0x2E1A7D4D SWAP1 PUSH2 0x98E SWAP1 DUP6 SWAP1 PUSH1 0x4 ADD PUSH2 0x4DA5 JUMP JUMPDEST PUSH1 0x0 PUSH1 0x40 MLOAD DUP1 DUP4 SUB DUP2 PUSH1 0x0 DUP8 DUP1 EXTCODESIZE ISZERO DUP1 ISZERO PUSH2 0x9A8 JUMPI PUSH1 0x0 DUP1 REVERT JUMPDEST POP GAS CALL ISZERO DUP1 ISZERO PUSH2 0x9BC JUMPI RETURNDATASIZE PUSH1 0x0 DUP1 RETURNDATACOPY RETURNDATASIZE PUSH1 0x0 REVERT JUMPDEST POP POP POP POP PUSH2 0x9CA DUP6 DUP4 PUSH2 0x2A37 JUMP JUMPDEST POP SWAP7 POP SWAP7 SWAP5 POP POP POP POP POP JUMP JUMPDEST PUSH1 0x2 SLOAD PUSH1 0x0 DUP1 SLOAD SWAP1 SWAP2 DUP3 SWAP2 PUSH2 0x9FE SWAP2 SWAP1 PUSH1 0x1 PUSH1 0x1 PUSH1 0xA0 SHL SUB AND PUSH2 0x527 CALLDATASIZE DUP15 SWAP1 SUB DUP15 ADD DUP15 PUSH2 0x4281 JUMP JUMPDEST SWAP1 POP PUSH1 0x0 DUP5 PUSH2 0xA0D JUMPI DUP10 PUSH2 0xA11 JUMP JUMPDEST PUSH1 0x0 NOT JUMPDEST SWAP1 POP PUSH1 0x1 PUSH1 0x1 PUSH1 0xA0 SHL SUB DUP3 AND PUSH4 0xD505ACCF CALLER ADDRESS DUP5 DUP11 PUSH2 0xA33 PUSH1 0x20 DUP12 ADD DUP12 PUSH2 0x45B6 JUMP JUMPDEST DUP11 PUSH1 0x20 ADD CALLDATALOAD DUP12 PUSH1 0x40 ADD CALLDATALOAD PUSH1 0x40 MLOAD DUP9 PUSH4 0xFFFFFFFF AND PUSH1 0xE0 SHL DUP2 MSTORE PUSH1 0x4 ADD PUSH2 0xA5F SWAP8 SWAP7 SWAP6 SWAP5 SWAP4 SWAP3 SWAP2 SWAP1 PUSH2 0x46C5 JUMP JUMPDEST PUSH1 0x0 PUSH1 0x40 MLOAD DUP1 DUP4 SUB DUP2 PUSH1 0x0 DUP8 DUP1 EXTCODESIZE ISZERO DUP1 ISZERO PUSH2 0xA79 JUMPI PUSH1 0x0 DUP1 REVERT JUMPDEST POP GAS CALL ISZERO DUP1 ISZERO PUSH2 0xA8D JUMPI RETURNDATASIZE PUSH1 0x0 DUP1 RETURNDATACOPY RETURNDATASIZE PUSH1 0x0 REVERT JUMPDEST POP POP POP POP PUSH2 0xAAF DUP12 DUP1 CALLDATASIZE SUB DUP2 ADD SWAP1 PUSH2 0xAA5 SWAP2 SWAP1 PUSH2 0x4281 JUMP JUMPDEST DUP12 DUP12 DUP12 DUP12 DUP12 PUSH2 0x1CDF JUMP JUMPDEST SWAP12 SWAP11 POP POP POP POP POP POP POP POP POP POP POP JUMP JUMPDEST PUSH1 0x60 DUP4 TIMESTAMP DUP2 LT ISZERO PUSH2 0xAE1 JUMPI PUSH1 0x40 MLOAD PUSH3 0x461BCD PUSH1 0xE5 SHL DUP2 MSTORE PUSH1 0x4 ADD PUSH2 0x685 SWAP1 PUSH2 0x481E JUMP JUMPDEST DUP3 PUSH1 0x1 PUSH1 0x1 PUSH1 0x40 SHL SUB DUP2 GT DUP1 ISZERO PUSH2 0xAF7 JUMPI PUSH1 0x0 DUP1 REVERT JUMPDEST POP PUSH1 0x40 MLOAD SWAP1 DUP1 DUP3 MSTORE DUP1 PUSH1 0x20 MUL PUSH1 0x20 ADD DUP3 ADD PUSH1 0x40 MSTORE DUP1 ISZERO PUSH2 0xB2B JUMPI DUP2 PUSH1 0x20 ADD JUMPDEST PUSH1 0x60 DUP2 MSTORE PUSH1 0x20 ADD SWAP1 PUSH1 0x1 SWAP1 SUB SWAP1 DUP2 PUSH2 0xB16 JUMPI SWAP1 POP JUMPDEST POP SWAP2 POP PUSH1 0x0 JUMPDEST DUP4 DUP2 LT ISZERO PUSH2 0xC18 JUMPI PUSH1 0x0 PUSH1 0x60 ADDRESS DUP8 DUP8 DUP6 DUP2 DUP2 LT PUSH2 0xB4A JUMPI INVALID JUMPDEST SWAP1 POP PUSH1 0x20 MUL DUP2 ADD SWAP1 PUSH2 0xB5C SWAP2 SWAP1 PUSH2 0x4DFF JUMP JUMPDEST PUSH1 0x40 MLOAD PUSH2 0xB6A SWAP3 SWAP2 SWAP1 PUSH2 0x464D JUMP JUMPDEST PUSH1 0x0 PUSH1 0x40 MLOAD DUP1 DUP4 SUB DUP2 DUP6 GAS DELEGATECALL SWAP2 POP POP RETURNDATASIZE DUP1 PUSH1 0x0 DUP2 EQ PUSH2 0xBA5 JUMPI PUSH1 0x40 MLOAD SWAP2 POP PUSH1 0x1F NOT PUSH1 0x3F RETURNDATASIZE ADD AND DUP3 ADD PUSH1 0x40 MSTORE RETURNDATASIZE DUP3 MSTORE RETURNDATASIZE PUSH1 0x0 PUSH1 0x20 DUP5 ADD RETURNDATACOPY PUSH2 0xBAA JUMP JUMPDEST PUSH1 0x60 SWAP2 POP JUMPDEST POP SWAP2 POP SWAP2 POP DUP2 PUSH2 0xBF6 JUMPI PUSH1 0x44 DUP2 MLOAD LT ISZERO PUSH2 0xBC3 JUMPI PUSH1 0x0 DUP1 REVERT JUMPDEST PUSH1 0x4 DUP2 ADD SWAP1 POP DUP1 DUP1 PUSH1 0x20 ADD SWAP1 MLOAD DUP2 ADD SWAP1 PUSH2 0xBDD SWAP2 SWAP1 PUSH2 0x40B7 JUMP JUMPDEST PUSH1 0x40 MLOAD PUSH3 0x461BCD PUSH1 0xE5 SHL DUP2 MSTORE PUSH1 0x4 ADD PUSH2 0x685 SWAP2 SWAP1 PUSH2 0x480B JUMP JUMPDEST DUP1 DUP6 DUP5 DUP2 MLOAD DUP2 LT PUSH2 0xC03 JUMPI INVALID JUMPDEST PUSH1 0x20 SWAP1 DUP2 MUL SWAP2 SWAP1 SWAP2 ADD ADD MSTORE POP POP PUSH1 0x1 ADD PUSH2 0xB31 JUMP JUMPDEST POP POP SWAP4 SWAP3 POP POP POP JUMP JUMPDEST PUSH1 0x60 DUP2 TIMESTAMP DUP2 LT ISZERO PUSH2 0xC44 JUMPI PUSH1 0x40 MLOAD PUSH3 0x461BCD PUSH1 0xE5 SHL DUP2 MSTORE PUSH1 0x4 ADD PUSH2 0x685 SWAP1 PUSH2 0x481E JUMP JUMPDEST PUSH1 0x1 SLOAD PUSH1 0x1 PUSH1 0x1 PUSH1 0xA0 SHL SUB AND DUP7 DUP7 PUSH1 0x0 DUP2 PUSH2 0xC5B JUMPI INVALID JUMPDEST PUSH2 0xC71 SWAP3 PUSH1 0x20 PUSH1 0x60 SWAP1 SWAP3 MUL ADD SWAP1 DUP2 ADD SWAP2 POP PUSH2 0x404B JUMP JUMPDEST PUSH1 0x1 PUSH1 0x1 PUSH1 0xA0 SHL SUB AND EQ PUSH2 0xC97 JUMPI PUSH1 0x40 MLOAD PUSH3 0x461BCD PUSH1 0xE5 SHL DUP2 MSTORE PUSH1 0x4 ADD PUSH2 0x685 SWAP1 PUSH2 0x4BB4 JUMP JUMPDEST PUSH2 0xCF3 DUP8 DUP8 DUP8 DUP1 DUP1 PUSH1 0x20 MUL PUSH1 0x20 ADD PUSH1 0x40 MLOAD SWAP1 DUP2 ADD PUSH1 0x40 MSTORE DUP1 SWAP4 SWAP3 SWAP2 SWAP1 DUP2 DUP2 MSTORE PUSH1 0x20 ADD PUSH1 0x0 SWAP1 JUMPDEST DUP3 DUP3 LT ISZERO PUSH2 0xCE9 JUMPI PUSH2 0xCDA PUSH1 0x60 DUP4 MUL DUP7 ADD CALLDATASIZE DUP2 SWAP1 SUB DUP2 ADD SWAP1 PUSH2 0x4281 JUMP JUMPDEST DUP2 MSTORE PUSH1 0x20 ADD SWAP1 PUSH1 0x1 ADD SWAP1 PUSH2 0xCBD JUMP JUMPDEST POP POP POP POP POP PUSH2 0x204E JUMP JUMPDEST SWAP2 POP CALLVALUE DUP3 PUSH1 0x0 DUP2 MLOAD DUP2 LT PUSH2 0xD03 JUMPI INVALID JUMPDEST PUSH1 0x20 MUL PUSH1 0x20 ADD ADD MLOAD GT ISZERO PUSH2 0xD29 JUMPI PUSH1 0x40 MLOAD PUSH3 0x461BCD PUSH1 0xE5 SHL DUP2 MSTORE PUSH1 0x4 ADD PUSH2 0x685 SWAP1 PUSH2 0x4A45 JUMP JUMPDEST PUSH1 0x1 SLOAD DUP3 MLOAD PUSH1 0x1 PUSH1 0x1 PUSH1 0xA0 SHL SUB SWAP1 SWAP2 AND SWAP1 PUSH4 0xD0E30DB0 SWAP1 DUP5 SWAP1 PUSH1 0x0 SWAP1 PUSH2 0xD4B JUMPI INVALID JUMPDEST PUSH1 0x20 MUL PUSH1 0x20 ADD ADD MLOAD PUSH1 0x40 MLOAD DUP3 PUSH4 0xFFFFFFFF AND PUSH1 0xE0 SHL DUP2 MSTORE PUSH1 0x4 ADD PUSH1 0x0 PUSH1 0x40 MLOAD DUP1 DUP4 SUB DUP2 DUP6 DUP9 DUP1 EXTCODESIZE ISZERO DUP1 ISZERO PUSH2 0xD7E JUMPI PUSH1 0x0 DUP1 REVERT JUMPDEST POP GAS CALL ISZERO DUP1 ISZERO PUSH2 0xD92 JUMPI RETURNDATASIZE PUSH1 0x0 DUP1 RETURNDATACOPY RETURNDATASIZE PUSH1 0x0 REVERT JUMPDEST POP POP PUSH1 0x1 SLOAD PUSH1 0x2 SLOAD PUSH1 0x0 DUP1 SLOAD PUSH1 0x1 PUSH1 0x1 PUSH1 0xA0 SHL SUB SWAP4 DUP5 AND SWAP7 POP PUSH4 0xA9059CBB SWAP6 POP PUSH2 0xDC8 SWAP5 POP SWAP2 SWAP3 SWAP1 SWAP2 AND SWAP1 DUP12 SWAP1 DUP12 SWAP1 DUP2 PUSH2 0x7CC JUMPI INVALID JUMPDEST DUP5 PUSH1 0x0 DUP2 MLOAD DUP2 LT PUSH2 0xDD5 JUMPI INVALID JUMPDEST PUSH1 0x20 MUL PUSH1 0x20 ADD ADD MLOAD PUSH1 0x40 MLOAD DUP4 PUSH4 0xFFFFFFFF AND PUSH1 0xE0 SHL DUP2 MSTORE PUSH1 0x4 ADD PUSH2 0xDFA SWAP3 SWAP2 SWAP1 PUSH2 0x474E JUMP JUMPDEST PUSH1 0x20 PUSH1 0x40 MLOAD DUP1 DUP4 SUB DUP2 PUSH1 0x0 DUP8 DUP1 EXTCODESIZE ISZERO DUP1 ISZERO PUSH2 0xE14 JUMPI PUSH1 0x0 DUP1 REVERT JUMPDEST POP GAS CALL ISZERO DUP1 ISZERO PUSH2 0xE28 JUMPI RETURNDATASIZE PUSH1 0x0 DUP1 RETURNDATACOPY RETURNDATASIZE PUSH1 0x0 REVERT JUMPDEST POP POP POP POP PUSH1 0x40 MLOAD RETURNDATASIZE PUSH1 0x1F NOT PUSH1 0x1F DUP3 ADD AND DUP3 ADD DUP1 PUSH1 0x40 MSTORE POP DUP2 ADD SWAP1 PUSH2 0xE4C SWAP2 SWAP1 PUSH2 0x4083 JUMP JUMPDEST PUSH2 0xE52 JUMPI INVALID JUMPDEST PUSH2 0xEAF DUP3 DUP8 DUP8 DUP1 DUP1 PUSH1 0x20 MUL PUSH1 0x20 ADD PUSH1 0x40 MLOAD SWAP1 DUP2 ADD PUSH1 0x40 MSTORE DUP1 SWAP4 SWAP3 SWAP2 SWAP1 DUP2 DUP2 MSTORE PUSH1 0x20 ADD PUSH1 0x0 SWAP1 JUMPDEST DUP3 DUP3 LT ISZERO PUSH2 0xEA4 JUMPI PUSH2 0xE95 PUSH1 0x60 DUP4 MUL DUP7 ADD CALLDATASIZE DUP2 SWAP1 SUB DUP2 ADD SWAP1 PUSH2 0x4281 JUMP JUMPDEST DUP2 MSTORE PUSH1 0x20 ADD SWAP1 PUSH1 0x1 ADD SWAP1 PUSH2 0xE78 JUMP JUMPDEST POP POP POP POP POP DUP7 PUSH2 0x2BBA JUMP JUMPDEST DUP2 PUSH1 0x0 DUP2 MLOAD DUP2 LT PUSH2 0xEBC JUMPI INVALID JUMPDEST PUSH1 0x20 MUL PUSH1 0x20 ADD ADD MLOAD CALLVALUE GT ISZERO PUSH2 0xEEB JUMPI PUSH2 0xEEB CALLER DUP4 PUSH1 0x0 DUP2 MLOAD DUP2 LT PUSH2 0xEDC JUMPI INVALID JUMPDEST PUSH1 0x20 MUL PUSH1 0x20 ADD ADD MLOAD CALLVALUE SUB PUSH2 0x2A37 JUMP JUMPDEST POP SWAP6 SWAP5 POP POP POP POP POP JUMP JUMPDEST DUP1 TIMESTAMP DUP2 LT ISZERO PUSH2 0xF16 JUMPI PUSH1 0x40 MLOAD PUSH3 0x461BCD PUSH1 0xE5 SHL DUP2 MSTORE PUSH1 0x4 ADD PUSH2 0x685 SWAP1 PUSH2 0x481E JUMP JUMPDEST PUSH2 0xF6B DUP6 DUP6 PUSH1 0x0 DUP2 DUP2 LT PUSH2 0xF26 JUMPI INVALID JUMPDEST PUSH2 0xF3C SWAP3 PUSH1 0x20 PUSH1 0x60 SWAP1 SWAP3 MUL ADD SWAP1 DUP2 ADD SWAP2 POP PUSH2 0x404B JUMP JUMPDEST CALLER PUSH2 0xF65 PUSH1 0x2 SLOAD PUSH1 0x0 DUP1 SWAP1 SLOAD SWAP1 PUSH2 0x100 EXP SWAP1 DIV PUSH1 0x1 PUSH1 0x1 PUSH1 0xA0 SHL SUB AND DUP11 DUP11 PUSH1 0x0 DUP2 DUP2 LT PUSH2 0x7CC JUMPI INVALID JUMPDEST DUP11 PUSH2 0x2AC9 JUMP JUMPDEST PUSH1 0x0 DUP6 DUP6 PUSH1 0x0 NOT DUP2 ADD DUP2 DUP2 LT PUSH2 0xF7D JUMPI INVALID JUMPDEST SWAP1 POP PUSH1 0x60 MUL ADD PUSH1 0x20 ADD PUSH1 0x20 DUP2 ADD SWAP1 PUSH2 0xF95 SWAP2 SWAP1 PUSH2 0x404B JUMP JUMPDEST PUSH1 0x1 PUSH1 0x1 PUSH1 0xA0 SHL SUB AND PUSH4 0x70A08231 DUP6 PUSH1 0x40 MLOAD DUP3 PUSH4 0xFFFFFFFF AND PUSH1 0xE0 SHL DUP2 MSTORE PUSH1 0x4 ADD PUSH2 0xFC0 SWAP2 SWAP1 PUSH2 0x46B1 JUMP JUMPDEST PUSH1 0x20 PUSH1 0x40 MLOAD DUP1 DUP4 SUB DUP2 DUP7 DUP1 EXTCODESIZE ISZERO DUP1 ISZERO PUSH2 0xFD8 JUMPI PUSH1 0x0 DUP1 REVERT JUMPDEST POP GAS STATICCALL ISZERO DUP1 ISZERO PUSH2 0xFEC JUMPI RETURNDATASIZE PUSH1 0x0 DUP1 RETURNDATACOPY RETURNDATASIZE PUSH1 0x0 REVERT JUMPDEST POP POP POP POP PUSH1 0x40 MLOAD RETURNDATASIZE PUSH1 0x1F NOT PUSH1 0x1F DUP3 ADD AND DUP3 ADD DUP1 PUSH1 0x40 MSTORE POP DUP2 ADD SWAP1 PUSH2 0x1010 SWAP2 SWAP1 PUSH2 0x409F JUMP JUMPDEST SWAP1 POP PUSH2 0x106E DUP7 DUP7 DUP1 DUP1 PUSH1 0x20 MUL PUSH1 0x20 ADD PUSH1 0x40 MLOAD SWAP1 DUP2 ADD PUSH1 0x40 MSTORE DUP1 SWAP4 SWAP3 SWAP2 SWAP1 DUP2 DUP2 MSTORE PUSH1 0x20 ADD PUSH1 0x0 SWAP1 JUMPDEST DUP3 DUP3 LT ISZERO PUSH2 0x1063 JUMPI PUSH2 0x1054 PUSH1 0x60 DUP4 MUL DUP7 ADD CALLDATASIZE DUP2 SWAP1 SUB DUP2 ADD SWAP1 PUSH2 0x4281 JUMP JUMPDEST DUP2 MSTORE PUSH1 0x20 ADD SWAP1 PUSH1 0x1 ADD SWAP1 PUSH2 0x1037 JUMP JUMPDEST POP POP POP POP POP DUP6 PUSH2 0x2E5A JUMP JUMPDEST DUP7 PUSH2 0x1122 DUP3 DUP9 DUP9 PUSH1 0x0 NOT DUP2 ADD DUP2 DUP2 LT PUSH2 0x1083 JUMPI INVALID JUMPDEST SWAP1 POP PUSH1 0x60 MUL ADD PUSH1 0x20 ADD PUSH1 0x20 DUP2 ADD SWAP1 PUSH2 0x109B SWAP2 SWAP1 PUSH2 0x404B JUMP JUMPDEST PUSH1 0x1 PUSH1 0x1 PUSH1 0xA0 SHL SUB AND PUSH4 0x70A08231 DUP9 PUSH1 0x40 MLOAD DUP3 PUSH4 0xFFFFFFFF AND PUSH1 0xE0 SHL DUP2 MSTORE PUSH1 0x4 ADD PUSH2 0x10C6 SWAP2 SWAP1 PUSH2 0x46B1 JUMP JUMPDEST PUSH1 0x20 PUSH1 0x40 MLOAD DUP1 DUP4 SUB DUP2 DUP7 DUP1 EXTCODESIZE ISZERO DUP1 ISZERO PUSH2 0x10DE JUMPI PUSH1 0x0 DUP1 REVERT JUMPDEST POP GAS STATICCALL ISZERO DUP1 ISZERO PUSH2 0x10F2 JUMPI RETURNDATASIZE PUSH1 0x0 DUP1 RETURNDATACOPY RETURNDATASIZE PUSH1 0x0 REVERT JUMPDEST POP POP POP POP PUSH1 0x40 MLOAD RETURNDATASIZE PUSH1 0x1F NOT PUSH1 0x1F DUP3 ADD AND DUP3 ADD DUP1 PUSH1 0x40 MSTORE POP DUP2 ADD SWAP1 PUSH2 0x1116 SWAP2 SWAP1 PUSH2 0x409F JUMP JUMPDEST SWAP1 PUSH4 0xFFFFFFFF PUSH2 0x3238 AND JUMP JUMPDEST LT ISZERO PUSH2 0x1140 JUMPI PUSH1 0x40 MLOAD PUSH3 0x461BCD PUSH1 0xE5 SHL DUP2 MSTORE PUSH1 0x4 ADD PUSH2 0x685 SWAP1 PUSH2 0x4C22 JUMP JUMPDEST POP POP POP POP POP POP POP POP JUMP JUMPDEST DUP1 TIMESTAMP DUP2 LT ISZERO PUSH2 0x116B JUMPI PUSH1 0x40 MLOAD PUSH3 0x461BCD PUSH1 0xE5 SHL DUP2 MSTORE PUSH1 0x4 ADD PUSH2 0x685 SWAP1 PUSH2 0x481E JUMP JUMPDEST PUSH1 0x1 SLOAD PUSH1 0x1 PUSH1 0x1 PUSH1 0xA0 SHL SUB AND DUP6 DUP6 PUSH1 0x0 DUP2 PUSH2 0x1182 JUMPI INVALID JUMPDEST PUSH2 0x1198 SWAP3 PUSH1 0x20 PUSH1 0x60 SWAP1 SWAP3 MUL ADD SWAP1 DUP2 ADD SWAP2 POP PUSH2 0x404B JUMP JUMPDEST PUSH1 0x1 PUSH1 0x1 PUSH1 0xA0 SHL SUB AND EQ PUSH2 0x11BE JUMPI PUSH1 0x40 MLOAD PUSH3 0x461BCD PUSH1 0xE5 SHL DUP2 MSTORE PUSH1 0x4 ADD PUSH2 0x685 SWAP1 PUSH2 0x4BB4 JUMP JUMPDEST CALLVALUE DUP8 GT ISZERO PUSH2 0x11DE JUMPI PUSH1 0x40 MLOAD PUSH3 0x461BCD PUSH1 0xE5 SHL DUP2 MSTORE PUSH1 0x4 ADD PUSH2 0x685 SWAP1 PUSH2 0x4A02 JUMP JUMPDEST PUSH1 0x1 PUSH1 0x0 SWAP1 SLOAD SWAP1 PUSH2 0x100 EXP SWAP1 DIV PUSH1 0x1 PUSH1 0x1 PUSH1 0xA0 SHL SUB AND PUSH1 0x1 PUSH1 0x1 PUSH1 0xA0 SHL SUB AND PUSH4 0xD0E30DB0 DUP9 PUSH1 0x40 MLOAD DUP3 PUSH4 0xFFFFFFFF AND PUSH1 0xE0 SHL DUP2 MSTORE PUSH1 0x4 ADD PUSH1 0x0 PUSH1 0x40 MLOAD DUP1 DUP4 SUB DUP2 DUP6 DUP9 DUP1 EXTCODESIZE ISZERO DUP1 ISZERO PUSH2 0x122E JUMPI PUSH1 0x0 DUP1 REVERT JUMPDEST POP GAS CALL ISZERO DUP1 ISZERO PUSH2 0x1242 JUMPI RETURNDATASIZE PUSH1 0x0 DUP1 RETURNDATACOPY RETURNDATASIZE PUSH1 0x0 REVERT JUMPDEST POP POP PUSH1 0x1 SLOAD PUSH1 0x2 SLOAD PUSH1 0x0 DUP1 SLOAD PUSH1 0x1 PUSH1 0x1 PUSH1 0xA0 SHL SUB SWAP4 DUP5 AND SWAP7 POP PUSH4 0xA9059CBB SWAP6 POP PUSH2 0x1278 SWAP5 POP SWAP2 SWAP3 SWAP1 SWAP2 AND SWAP1 DUP11 SWAP1 DUP11 SWAP1 DUP2 PUSH2 0x7CC JUMPI INVALID JUMPDEST DUP10 PUSH1 0x40 MLOAD DUP4 PUSH4 0xFFFFFFFF AND PUSH1 0xE0 SHL DUP2 MSTORE PUSH1 0x4 ADD PUSH2 0x1296 SWAP3 SWAP2 SWAP1 PUSH2 0x474E JUMP JUMPDEST PUSH1 0x20 PUSH1 0x40 MLOAD DUP1 DUP4 SUB DUP2 PUSH1 0x0 DUP8 DUP1 EXTCODESIZE ISZERO DUP1 ISZERO PUSH2 0x12B0 JUMPI PUSH1 0x0 DUP1 REVERT JUMPDEST POP GAS CALL ISZERO DUP1 ISZERO PUSH2 0x12C4 JUMPI RETURNDATASIZE PUSH1 0x0 DUP1 RETURNDATACOPY RETURNDATASIZE PUSH1 0x0 REVERT JUMPDEST POP POP POP POP PUSH1 0x40 MLOAD RETURNDATASIZE PUSH1 0x1F NOT PUSH1 0x1F DUP3 ADD AND DUP3 ADD DUP1 PUSH1 0x40 MSTORE POP DUP2 ADD SWAP1 PUSH2 0x12E8 SWAP2 SWAP1 PUSH2 0x4083 JUMP JUMPDEST PUSH2 0x12EE JUMPI INVALID JUMPDEST PUSH1 0x0 DUP6 DUP6 PUSH1 0x0 NOT DUP2 ADD DUP2 DUP2 LT PUSH2 0x1300 JUMPI INVALID JUMPDEST SWAP1 POP PUSH1 0x60 MUL ADD PUSH1 0x20 ADD PUSH1 0x20 DUP2 ADD SWAP1 PUSH2 0x1318 SWAP2 SWAP1 PUSH2 0x404B JUMP JUMPDEST PUSH1 0x1 PUSH1 0x1 PUSH1 0xA0 SHL SUB AND PUSH4 0x70A08231 DUP6 PUSH1 0x40 MLOAD DUP3 PUSH4 0xFFFFFFFF AND PUSH1 0xE0 SHL DUP2 MSTORE PUSH1 0x4 ADD PUSH2 0x1343 SWAP2 SWAP1 PUSH2 0x46B1 JUMP JUMPDEST PUSH1 0x20 PUSH1 0x40 MLOAD DUP1 DUP4 SUB DUP2 DUP7 DUP1 EXTCODESIZE ISZERO DUP1 ISZERO PUSH2 0x135B JUMPI PUSH1 0x0 DUP1 REVERT JUMPDEST POP GAS STATICCALL ISZERO DUP1 ISZERO PUSH2 0x136F JUMPI RETURNDATASIZE PUSH1 0x0 DUP1 RETURNDATACOPY RETURNDATASIZE PUSH1 0x0 REVERT JUMPDEST POP POP POP POP PUSH1 0x40 MLOAD RETURNDATASIZE PUSH1 0x1F NOT PUSH1 0x1F DUP3 ADD AND DUP3 ADD DUP1 PUSH1 0x40 MSTORE POP DUP2 ADD SWAP1 PUSH2 0x1393 SWAP2 SWAP1 PUSH2 0x409F JUMP JUMPDEST SWAP1 POP PUSH2 0x106E DUP7 DUP7 DUP1 DUP1 PUSH1 0x20 MUL PUSH1 0x20 ADD PUSH1 0x40 MLOAD SWAP1 DUP2 ADD PUSH1 0x40 MSTORE DUP1 SWAP4 SWAP3 SWAP2 SWAP1 DUP2 DUP2 MSTORE PUSH1 0x20 ADD PUSH1 0x0 SWAP1 JUMPDEST DUP3 DUP3 LT ISZERO PUSH2 0x1063 JUMPI PUSH2 0x13D7 PUSH1 0x60 DUP4 MUL DUP7 ADD CALLDATASIZE DUP2 SWAP1 SUB DUP2 ADD SWAP1 PUSH2 0x4281 JUMP JUMPDEST DUP2 MSTORE PUSH1 0x20 ADD SWAP1 PUSH1 0x1 ADD SWAP1 PUSH2 0x13BA JUMP JUMPDEST DUP1 TIMESTAMP DUP2 LT ISZERO PUSH2 0x1407 JUMPI PUSH1 0x40 MLOAD PUSH3 0x461BCD PUSH1 0xE5 SHL DUP2 MSTORE PUSH1 0x4 ADD PUSH2 0x685 SWAP1 PUSH2 0x481E JUMP JUMPDEST PUSH1 0x1 SLOAD PUSH1 0x1 PUSH1 0x1 PUSH1 0xA0 SHL SUB AND DUP6 DUP6 PUSH1 0x0 NOT DUP2 ADD DUP2 DUP2 LT PUSH2 0x1423 JUMPI INVALID JUMPDEST SWAP1 POP PUSH1 0x60 MUL ADD PUSH1 0x20 ADD PUSH1 0x20 DUP2 ADD SWAP1 PUSH2 0x143B SWAP2 SWAP1 PUSH2 0x404B JUMP JUMPDEST PUSH1 0x1 PUSH1 0x1 PUSH1 0xA0 SHL SUB AND EQ PUSH2 0x1461 JUMPI PUSH1 0x40 MLOAD PUSH3 0x461BCD PUSH1 0xE5 SHL DUP2 MSTORE PUSH1 0x4 ADD PUSH2 0x685 SWAP1 PUSH2 0x4BB4 JUMP JUMPDEST PUSH2 0x1471 DUP6 DUP6 PUSH1 0x0 DUP2 DUP2 LT PUSH2 0xF26 JUMPI INVALID JUMPDEST PUSH2 0x14CD DUP6 DUP6 DUP1 DUP1 PUSH1 0x20 MUL PUSH1 0x20 ADD PUSH1 0x40 MLOAD SWAP1 DUP2 ADD PUSH1 0x40 MSTORE DUP1 SWAP4 SWAP3 SWAP2 SWAP1 DUP2 DUP2 MSTORE PUSH1 0x20 ADD PUSH1 0x0 SWAP1 JUMPDEST DUP3 DUP3 LT ISZERO PUSH2 0x14C2 JUMPI PUSH2 0x14B3 PUSH1 0x60 DUP4 MUL DUP7 ADD CALLDATASIZE DUP2 SWAP1 SUB DUP2 ADD SWAP1 PUSH2 0x4281 JUMP JUMPDEST DUP2 MSTORE PUSH1 0x20 ADD SWAP1 PUSH1 0x1 ADD SWAP1 PUSH2 0x1496 JUMP JUMPDEST POP POP POP POP POP ADDRESS PUSH2 0x2E5A JUMP JUMPDEST PUSH1 0x1 SLOAD PUSH1 0x40 MLOAD PUSH4 0x70A08231 PUSH1 0xE0 SHL DUP2 MSTORE PUSH1 0x0 SWAP2 PUSH1 0x1 PUSH1 0x1 PUSH1 0xA0 SHL SUB AND SWAP1 PUSH4 0x70A08231 SWAP1 PUSH2 0x14FE SWAP1 ADDRESS SWAP1 PUSH1 0x4 ADD PUSH2 0x46B1 JUMP JUMPDEST PUSH1 0x20 PUSH1 0x40 MLOAD DUP1 DUP4 SUB DUP2 DUP7 DUP1 EXTCODESIZE ISZERO DUP1 ISZERO PUSH2 0x1516 JUMPI PUSH1 0x0 DUP1 REVERT JUMPDEST POP GAS STATICCALL ISZERO DUP1 ISZERO PUSH2 0x152A JUMPI RETURNDATASIZE PUSH1 0x0 DUP1 RETURNDATACOPY RETURNDATASIZE PUSH1 0x0 REVERT JUMPDEST POP POP POP POP PUSH1 0x40 MLOAD RETURNDATASIZE PUSH1 0x1F NOT PUSH1 0x1F DUP3 ADD AND DUP3 ADD DUP1 PUSH1 0x40 MSTORE POP DUP2 ADD SWAP1 PUSH2 0x154E SWAP2 SWAP1 PUSH2 0x409F JUMP JUMPDEST SWAP1 POP DUP7 DUP2 LT ISZERO PUSH2 0x1570 JUMPI PUSH1 0x40 MLOAD PUSH3 0x461BCD PUSH1 0xE5 SHL DUP2 MSTORE PUSH1 0x4 ADD PUSH2 0x685 SWAP1 PUSH2 0x4C22 JUMP JUMPDEST PUSH1 0x1 SLOAD PUSH1 0x40 MLOAD PUSH4 0x2E1A7D4D PUSH1 0xE0 SHL DUP2 MSTORE PUSH1 0x1 PUSH1 0x1 PUSH1 0xA0 SHL SUB SWAP1 SWAP2 AND SWAP1 PUSH4 0x2E1A7D4D SWAP1 PUSH2 0x15A0 SWAP1 DUP5 SWAP1 PUSH1 0x4 ADD PUSH2 0x4DA5 JUMP JUMPDEST PUSH1 0x0 PUSH1 0x40 MLOAD DUP1 DUP4 SUB DUP2 PUSH1 0x0 DUP8 DUP1 EXTCODESIZE ISZERO DUP1 ISZERO PUSH2 0x15BA JUMPI PUSH1 0x0 DUP1 REVERT JUMPDEST POP GAS CALL ISZERO DUP1 ISZERO PUSH2 0x15CE JUMPI RETURNDATASIZE PUSH1 0x0 DUP1 RETURNDATACOPY RETURNDATASIZE PUSH1 0x0 REVERT JUMPDEST POP POP POP POP PUSH2 0x1140 DUP5 DUP3 PUSH2 0x2A37 JUMP JUMPDEST PUSH1 0x0 DUP1 PUSH1 0x0 DUP4 TIMESTAMP DUP2 LT ISZERO PUSH2 0x1602 JUMPI PUSH1 0x40 MLOAD PUSH3 0x461BCD PUSH1 0xE5 SHL DUP2 MSTORE PUSH1 0x4 ADD PUSH2 0x685 SWAP1 PUSH2 0x481E JUMP JUMPDEST PUSH2 0x161D PUSH2 0x1614 CALLDATASIZE DUP13 SWAP1 SUB DUP13 ADD DUP13 PUSH2 0x4281 JUMP JUMPDEST DUP11 CALLVALUE DUP12 DUP12 PUSH2 0x325B JUMP JUMPDEST PUSH1 0x2 SLOAD PUSH1 0x0 DUP1 SLOAD SWAP4 SWAP8 POP SWAP2 SWAP6 POP SWAP1 SWAP2 PUSH2 0x1649 SWAP2 SWAP1 PUSH1 0x1 PUSH1 0x1 PUSH1 0xA0 SHL SUB AND PUSH2 0x527 CALLDATASIZE DUP16 SWAP1 SUB DUP16 ADD DUP16 PUSH2 0x4281 JUMP JUMPDEST SWAP1 POP PUSH2 0x1663 PUSH2 0x165B PUSH1 0x20 DUP14 ADD DUP14 PUSH2 0x404B JUMP JUMPDEST CALLER DUP4 DUP9 PUSH2 0x2AC9 JUMP JUMPDEST PUSH1 0x1 PUSH1 0x0 SWAP1 SLOAD SWAP1 PUSH2 0x100 EXP SWAP1 DIV PUSH1 0x1 PUSH1 0x1 PUSH1 0xA0 SHL SUB AND PUSH1 0x1 PUSH1 0x1 PUSH1 0xA0 SHL SUB AND PUSH4 0xD0E30DB0 DUP6 PUSH1 0x40 MLOAD DUP3 PUSH4 0xFFFFFFFF AND PUSH1 0xE0 SHL DUP2 MSTORE PUSH1 0x4 ADD PUSH1 0x0 PUSH1 0x40 MLOAD DUP1 DUP4 SUB DUP2 DUP6 DUP9 DUP1 EXTCODESIZE ISZERO DUP1 ISZERO PUSH2 0x16B3 JUMPI PUSH1 0x0 DUP1 REVERT JUMPDEST POP GAS CALL ISZERO DUP1 ISZERO PUSH2 0x16C7 JUMPI RETURNDATASIZE PUSH1 0x0 DUP1 RETURNDATACOPY RETURNDATASIZE PUSH1 0x0 REVERT JUMPDEST POP POP PUSH1 0x1 SLOAD PUSH1 0x40 MLOAD PUSH4 0xA9059CBB PUSH1 0xE0 SHL DUP2 MSTORE PUSH1 0x1 PUSH1 0x1 PUSH1 0xA0 SHL SUB SWAP1 SWAP2 AND SWAP4 POP PUSH4 0xA9059CBB SWAP3 POP PUSH2 0x16FE SWAP2 POP DUP5 SWAP1 DUP9 SWAP1 PUSH1 0x4 ADD PUSH2 0x474E JUMP JUMPDEST PUSH1 0x20 PUSH1 0x40 MLOAD DUP1 DUP4 SUB DUP2 PUSH1 0x0 DUP8 DUP1 EXTCODESIZE ISZERO DUP1 ISZERO PUSH2 0x1718 JUMPI PUSH1 0x0 DUP1 REVERT JUMPDEST POP GAS CALL ISZERO DUP1 ISZERO PUSH2 0x172C JUMPI RETURNDATASIZE PUSH1 0x0 DUP1 RETURNDATACOPY RETURNDATASIZE PUSH1 0x0 REVERT JUMPDEST POP POP POP POP PUSH1 0x40 MLOAD RETURNDATASIZE PUSH1 0x1F NOT PUSH1 0x1F DUP3 ADD AND DUP3 ADD DUP1 PUSH1 0x40 MSTORE POP DUP2 ADD SWAP1 PUSH2 0x1750 SWAP2 SWAP1 PUSH2 0x4083 JUMP JUMPDEST PUSH2 0x1756 JUMPI INVALID JUMPDEST PUSH1 0x40 MLOAD PUSH4 0x35313C21 PUSH1 0xE1 SHL DUP2 MSTORE PUSH1 0x1 PUSH1 0x1 PUSH1 0xA0 SHL SUB DUP3 AND SWAP1 PUSH4 0x6A627842 SWAP1 PUSH2 0x1782 SWAP1 DUP11 SWAP1 PUSH1 0x4 ADD PUSH2 0x46B1 JUMP JUMPDEST PUSH1 0x20 PUSH1 0x40 MLOAD DUP1 DUP4 SUB DUP2 PUSH1 0x0 DUP8 DUP1 EXTCODESIZE ISZERO DUP1 ISZERO PUSH2 0x179C JUMPI PUSH1 0x0 DUP1 REVERT JUMPDEST POP GAS CALL ISZERO DUP1 ISZERO PUSH2 0x17B0 JUMPI RETURNDATASIZE PUSH1 0x0 DUP1 RETURNDATACOPY RETURNDATASIZE PUSH1 0x0 REVERT JUMPDEST POP POP POP POP PUSH1 0x40 MLOAD RETURNDATASIZE PUSH1 0x1F NOT PUSH1 0x1F DUP3 ADD AND DUP3 ADD DUP1 PUSH1 0x40 MSTORE POP DUP2 ADD SWAP1 PUSH2 0x17D4 SWAP2 SWAP1 PUSH2 0x409F JUMP JUMPDEST SWAP3 POP DUP4 CALLVALUE GT ISZERO PUSH2 0x17EA JUMPI PUSH2 0x17EA CALLER DUP6 CALLVALUE SUB PUSH2 0x2A37 JUMP JUMPDEST POP POP SWAP7 POP SWAP7 POP SWAP7 SWAP4 POP POP POP POP JUMP JUMPDEST PUSH1 0x2 SLOAD PUSH1 0x0 DUP1 SLOAD SWAP1 SWAP2 DUP3 SWAP2 DUP3 SWAP2 PUSH2 0x1821 SWAP2 PUSH1 0x1 PUSH1 0x1 PUSH1 0xA0 SHL SUB AND PUSH2 0x527 CALLDATASIZE DUP16 SWAP1 SUB DUP16 ADD DUP16 PUSH2 0x4281 JUMP JUMPDEST SWAP1 POP PUSH1 0x0 DUP6 PUSH2 0x1830 JUMPI DUP11 PUSH2 0x1834 JUMP JUMPDEST PUSH1 0x0 NOT JUMPDEST SWAP1 POP PUSH1 0x1 PUSH1 0x1 PUSH1 0xA0 SHL SUB DUP3 AND PUSH4 0xD505ACCF CALLER ADDRESS DUP5 DUP12 PUSH2 0x1856 PUSH1 0x20 DUP13 ADD DUP13 PUSH2 0x45B6 JUMP JUMPDEST DUP12 PUSH1 0x20 ADD CALLDATALOAD DUP13 PUSH1 0x40 ADD CALLDATALOAD PUSH1 0x40 MLOAD DUP9 PUSH4 0xFFFFFFFF AND PUSH1 0xE0 SHL DUP2 MSTORE PUSH1 0x4 ADD PUSH2 0x1882 SWAP8 SWAP7 SWAP6 SWAP5 SWAP4 SWAP3 SWAP2 SWAP1 PUSH2 0x46C5 JUMP JUMPDEST PUSH1 0x0 PUSH1 0x40 MLOAD DUP1 DUP4 SUB DUP2 PUSH1 0x0 DUP8 DUP1 EXTCODESIZE ISZERO DUP1 ISZERO PUSH2 0x189C JUMPI PUSH1 0x0 DUP1 REVERT JUMPDEST POP GAS CALL ISZERO DUP1 ISZERO PUSH2 0x18B0 JUMPI RETURNDATASIZE PUSH1 0x0 DUP1 RETURNDATACOPY RETURNDATASIZE PUSH1 0x0 REVERT JUMPDEST POP POP POP POP PUSH2 0x18D2 DUP13 DUP1 CALLDATASIZE SUB DUP2 ADD SWAP1 PUSH2 0x18C8 SWAP2 SWAP1 PUSH2 0x4281 JUMP JUMPDEST DUP13 DUP13 DUP13 DUP13 DUP13 PUSH2 0x18E5 JUMP JUMPDEST SWAP1 SWAP14 SWAP1 SWAP13 POP SWAP11 POP POP POP POP POP POP POP POP POP POP POP JUMP JUMPDEST PUSH1 0x0 DUP1 DUP3 TIMESTAMP DUP2 LT ISZERO PUSH2 0x1909 JUMPI PUSH1 0x40 MLOAD PUSH3 0x461BCD PUSH1 0xE5 SHL DUP2 MSTORE PUSH1 0x4 ADD PUSH2 0x685 SWAP1 PUSH2 0x481E JUMP JUMPDEST PUSH1 0x2 SLOAD PUSH1 0x0 DUP1 SLOAD SWAP1 SWAP2 PUSH2 0x1925 SWAP2 PUSH1 0x1 PUSH1 0x1 PUSH1 0xA0 SHL SUB AND DUP13 PUSH2 0x29B7 JUMP JUMPDEST PUSH1 0x40 MLOAD PUSH4 0x23B872DD PUSH1 0xE0 SHL DUP2 MSTORE SWAP1 SWAP2 POP PUSH1 0x1 PUSH1 0x1 PUSH1 0xA0 SHL SUB DUP3 AND SWAP1 PUSH4 0x23B872DD SWAP1 PUSH2 0x1958 SWAP1 CALLER SWAP1 DUP6 SWAP1 DUP15 SWAP1 PUSH1 0x4 ADD PUSH2 0x4706 JUMP JUMPDEST PUSH1 0x20 PUSH1 0x40 MLOAD DUP1 DUP4 SUB DUP2 PUSH1 0x0 DUP8 DUP1 EXTCODESIZE ISZERO DUP1 ISZERO PUSH2 0x1972 JUMPI PUSH1 0x0 DUP1 REVERT JUMPDEST POP GAS CALL ISZERO DUP1 ISZERO PUSH2 0x1986 JUMPI RETURNDATASIZE PUSH1 0x0 DUP1 RETURNDATACOPY RETURNDATASIZE PUSH1 0x0 REVERT JUMPDEST POP POP POP POP PUSH1 0x40 MLOAD RETURNDATASIZE PUSH1 0x1F NOT PUSH1 0x1F DUP3 ADD AND DUP3 ADD DUP1 PUSH1 0x40 MSTORE POP DUP2 ADD SWAP1 PUSH2 0x19AA SWAP2 SWAP1 PUSH2 0x4083 JUMP JUMPDEST POP PUSH1 0x0 DUP1 DUP3 PUSH1 0x1 PUSH1 0x1 PUSH1 0xA0 SHL SUB AND PUSH4 0x89AFCB44 DUP10 PUSH1 0x40 MLOAD DUP3 PUSH4 0xFFFFFFFF AND PUSH1 0xE0 SHL DUP2 MSTORE PUSH1 0x4 ADD PUSH2 0x19DA SWAP2 SWAP1 PUSH2 0x46B1 JUMP JUMPDEST PUSH1 0x40 DUP1 MLOAD DUP1 DUP4 SUB DUP2 PUSH1 0x0 DUP8 DUP1 EXTCODESIZE ISZERO DUP1 ISZERO PUSH2 0x19F3 JUMPI PUSH1 0x0 DUP1 REVERT JUMPDEST POP GAS CALL ISZERO DUP1 ISZERO PUSH2 0x1A07 JUMPI RETURNDATASIZE PUSH1 0x0 DUP1 RETURNDATACOPY RETURNDATASIZE PUSH1 0x0 REVERT JUMPDEST POP POP POP POP PUSH1 0x40 MLOAD RETURNDATASIZE PUSH1 0x1F NOT PUSH1 0x1F DUP3 ADD AND DUP3 ADD DUP1 PUSH1 0x40 MSTORE POP DUP2 ADD SWAP1 PUSH2 0x1A2B SWAP2 SWAP1 PUSH2 0x44A6 JUMP JUMPDEST SWAP2 POP SWAP2 POP PUSH1 0x0 PUSH2 0x1A43 DUP14 PUSH1 0x0 ADD MLOAD DUP15 PUSH1 0x20 ADD MLOAD PUSH2 0x3457 JUMP JUMPDEST POP SWAP1 POP DUP1 PUSH1 0x1 PUSH1 0x1 PUSH1 0xA0 SHL SUB AND DUP14 PUSH1 0x0 ADD MLOAD PUSH1 0x1 PUSH1 0x1 PUSH1 0xA0 SHL SUB AND EQ PUSH2 0x1A6A JUMPI DUP2 DUP4 PUSH2 0x1A6D JUMP JUMPDEST DUP3 DUP3 JUMPDEST SWAP1 SWAP8 POP SWAP6 POP DUP11 DUP8 LT ISZERO PUSH2 0x1A92 JUMPI PUSH1 0x40 MLOAD PUSH3 0x461BCD PUSH1 0xE5 SHL DUP2 MSTORE PUSH1 0x4 ADD PUSH2 0x685 SWAP1 PUSH2 0x4CE8 JUMP JUMPDEST DUP10 DUP7 LT ISZERO PUSH2 0x1AB2 JUMPI PUSH1 0x40 MLOAD PUSH3 0x461BCD PUSH1 0xE5 SHL DUP2 MSTORE PUSH1 0x4 ADD PUSH2 0x685 SWAP1 PUSH2 0x4AC8 JUMP JUMPDEST POP POP POP POP POP SWAP7 POP SWAP7 SWAP5 POP POP POP POP POP JUMP JUMPDEST PUSH1 0x60 DUP1 DUP3 MLOAD PUSH1 0x1 ADD PUSH1 0x1 PUSH1 0x1 PUSH1 0x40 SHL SUB DUP2 GT DUP1 ISZERO PUSH2 0x1ADF JUMPI PUSH1 0x0 DUP1 REVERT JUMPDEST POP PUSH1 0x40 MLOAD SWAP1 DUP1 DUP3 MSTORE DUP1 PUSH1 0x20 MUL PUSH1 0x20 ADD DUP3 ADD PUSH1 0x40 MSTORE DUP1 ISZERO PUSH2 0x1B09 JUMPI DUP2 PUSH1 0x20 ADD PUSH1 0x20 DUP3 MUL DUP1 CALLDATASIZE DUP4 CALLDATACOPY ADD SWAP1 POP JUMPDEST POP SWAP1 POP DUP3 PUSH1 0x0 DUP2 MLOAD DUP2 LT PUSH2 0x1B19 JUMPI INVALID JUMPDEST PUSH1 0x20 MUL PUSH1 0x20 ADD ADD MLOAD PUSH1 0x0 ADD MLOAD PUSH1 0x1 PUSH1 0x1 PUSH1 0xA0 SHL SUB AND PUSH4 0x313CE567 PUSH1 0x40 MLOAD DUP2 PUSH4 0xFFFFFFFF AND PUSH1 0xE0 SHL DUP2 MSTORE PUSH1 0x4 ADD PUSH1 0x20 PUSH1 0x40 MLOAD DUP1 DUP4 SUB DUP2 DUP7 DUP1 EXTCODESIZE ISZERO DUP1 ISZERO PUSH2 0x1B5D JUMPI PUSH1 0x0 DUP1 REVERT JUMPDEST POP GAS STATICCALL ISZERO DUP1 ISZERO PUSH2 0x1B71 JUMPI RETURNDATASIZE PUSH1 0x0 DUP1 RETURNDATACOPY RETURNDATASIZE PUSH1 0x0 REVERT JUMPDEST POP POP POP POP PUSH1 0x40 MLOAD RETURNDATASIZE PUSH1 0x1F NOT PUSH1 0x1F DUP3 ADD AND DUP3 ADD DUP1 PUSH1 0x40 MSTORE POP DUP2 ADD SWAP1 PUSH2 0x1B95 SWAP2 SWAP1 PUSH2 0x45D2 JUMP JUMPDEST PUSH1 0xFF AND DUP2 PUSH1 0x0 DUP2 MLOAD DUP2 LT PUSH2 0x1BA5 JUMPI INVALID JUMPDEST PUSH1 0x20 MUL PUSH1 0x20 ADD ADD DUP2 DUP2 MSTORE POP POP PUSH1 0x0 JUMPDEST DUP4 MLOAD DUP2 LT ISZERO PUSH2 0x1C6A JUMPI DUP4 DUP2 DUP2 MLOAD DUP2 LT PUSH2 0x1BC9 JUMPI INVALID JUMPDEST PUSH1 0x20 MUL PUSH1 0x20 ADD ADD MLOAD PUSH1 0x20 ADD MLOAD PUSH1 0x1 PUSH1 0x1 PUSH1 0xA0 SHL SUB AND PUSH4 0x313CE567 PUSH1 0x40 MLOAD DUP2 PUSH4 0xFFFFFFFF AND PUSH1 0xE0 SHL DUP2 MSTORE PUSH1 0x4 ADD PUSH1 0x20 PUSH1 0x40 MLOAD DUP1 DUP4 SUB DUP2 DUP7 DUP1 EXTCODESIZE ISZERO DUP1 ISZERO PUSH2 0x1C0D JUMPI PUSH1 0x0 DUP1 REVERT JUMPDEST POP GAS STATICCALL ISZERO DUP1 ISZERO PUSH2 0x1C21 JUMPI RETURNDATASIZE PUSH1 0x0 DUP1 RETURNDATACOPY RETURNDATASIZE PUSH1 0x0 REVERT JUMPDEST POP POP POP POP PUSH1 0x40 MLOAD RETURNDATASIZE PUSH1 0x1F NOT PUSH1 0x1F DUP3 ADD AND DUP3 ADD DUP1 PUSH1 0x40 MSTORE POP DUP2 ADD SWAP1 PUSH2 0x1C45 SWAP2 SWAP1 PUSH2 0x45D2 JUMP JUMPDEST PUSH1 0xFF AND DUP3 DUP3 PUSH1 0x1 ADD DUP2 MLOAD DUP2 LT PUSH2 0x1C57 JUMPI INVALID JUMPDEST PUSH1 0x20 SWAP1 DUP2 MUL SWAP2 SWAP1 SWAP2 ADD ADD MSTORE PUSH1 0x1 ADD PUSH2 0x1BB4 JUMP JUMPDEST POP PUSH1 0x0 SLOAD PUSH2 0x1C83 SWAP1 PUSH1 0x1 PUSH1 0x1 PUSH1 0xA0 SHL SUB AND DUP6 DUP6 DUP5 PUSH2 0x34E1 JUMP JUMPDEST SWAP2 POP POP JUMPDEST SWAP3 SWAP2 POP POP JUMP JUMPDEST PUSH1 0x0 PUSH2 0x1C9D DUP8 DUP8 DUP8 DUP8 DUP8 DUP8 PUSH2 0x3624 JUMP JUMPDEST SWAP1 POP JUMPDEST SWAP7 SWAP6 POP POP POP POP POP POP JUMP JUMPDEST PUSH1 0x1 SLOAD PUSH1 0x1 PUSH1 0x1 PUSH1 0xA0 SHL SUB AND DUP2 JUMP JUMPDEST PUSH1 0x0 PUSH2 0x1CC6 DUP5 DUP5 DUP5 PUSH2 0x37DB JUMP JUMPDEST SWAP1 POP JUMPDEST SWAP4 SWAP3 POP POP POP JUMP JUMPDEST PUSH1 0x0 SLOAD PUSH1 0x1 PUSH1 0x1 PUSH1 0xA0 SHL SUB AND DUP2 JUMP JUMPDEST PUSH1 0x0 DUP2 TIMESTAMP DUP2 LT ISZERO PUSH2 0x1D02 JUMPI PUSH1 0x40 MLOAD PUSH3 0x461BCD PUSH1 0xE5 SHL DUP2 MSTORE PUSH1 0x4 ADD PUSH2 0x685 SWAP1 PUSH2 0x481E JUMP JUMPDEST PUSH2 0x1D10 DUP9 DUP9 DUP9 DUP9 ADDRESS DUP9 PUSH2 0x18E5 JUMP JUMPDEST DUP10 MLOAD PUSH1 0x40 MLOAD PUSH4 0x70A08231 PUSH1 0xE0 SHL DUP2 MSTORE SWAP2 SWAP5 POP PUSH2 0x1D9E SWAP3 POP SWAP1 DUP7 SWAP1 PUSH1 0x1 PUSH1 0x1 PUSH1 0xA0 SHL SUB DUP4 AND SWAP1 PUSH4 0x70A08231 SWAP1 PUSH2 0x1D49 SWAP1 ADDRESS SWAP1 PUSH1 0x4 ADD PUSH2 0x46B1 JUMP JUMPDEST PUSH1 0x20 PUSH1 0x40 MLOAD DUP1 DUP4 SUB DUP2 DUP7 DUP1 EXTCODESIZE ISZERO DUP1 ISZERO PUSH2 0x1D61 JUMPI PUSH1 0x0 DUP1 REVERT JUMPDEST POP GAS STATICCALL ISZERO DUP1 ISZERO PUSH2 0x1D75 JUMPI RETURNDATASIZE PUSH1 0x0 DUP1 RETURNDATACOPY RETURNDATASIZE PUSH1 0x0 REVERT JUMPDEST POP POP POP POP PUSH1 0x40 MLOAD RETURNDATASIZE PUSH1 0x1F NOT PUSH1 0x1F DUP3 ADD AND DUP3 ADD DUP1 PUSH1 0x40 MSTORE POP DUP2 ADD SWAP1 PUSH2 0x1D99 SWAP2 SWAP1 PUSH2 0x409F JUMP JUMPDEST PUSH2 0x2D6C JUMP JUMPDEST PUSH1 0x1 SLOAD PUSH1 0x40 MLOAD PUSH4 0x2E1A7D4D PUSH1 0xE0 SHL DUP2 MSTORE PUSH1 0x1 PUSH1 0x1 PUSH1 0xA0 SHL SUB SWAP1 SWAP2 AND SWAP1 PUSH4 0x2E1A7D4D SWAP1 PUSH2 0x1DCE SWAP1 DUP6 SWAP1 PUSH1 0x4 ADD PUSH2 0x4DA5 JUMP JUMPDEST PUSH1 0x0 PUSH1 0x40 MLOAD DUP1 DUP4 SUB DUP2 PUSH1 0x0 DUP8 DUP1 EXTCODESIZE ISZERO DUP1 ISZERO PUSH2 0x1DE8 JUMPI PUSH1 0x0 DUP1 REVERT JUMPDEST POP GAS CALL ISZERO DUP1 ISZERO PUSH2 0x1DFC JUMPI RETURNDATASIZE PUSH1 0x0 DUP1 RETURNDATACOPY RETURNDATASIZE PUSH1 0x0 REVERT JUMPDEST POP POP POP POP PUSH2 0x8F7 DUP5 DUP4 PUSH2 0x2A37 JUMP JUMPDEST PUSH1 0x60 DUP2 TIMESTAMP DUP2 LT ISZERO PUSH2 0x1E2D JUMPI PUSH1 0x40 MLOAD PUSH3 0x461BCD PUSH1 0xE5 SHL DUP2 MSTORE PUSH1 0x4 ADD PUSH2 0x685 SWAP1 PUSH2 0x481E JUMP JUMPDEST PUSH1 0x1 SLOAD PUSH1 0x1 PUSH1 0x1 PUSH1 0xA0 SHL SUB AND DUP7 DUP7 PUSH1 0x0 DUP2 PUSH2 0x1E44 JUMPI INVALID JUMPDEST PUSH2 0x1E5A SWAP3 PUSH1 0x20 PUSH1 0x60 SWAP1 SWAP3 MUL ADD SWAP1 DUP2 ADD SWAP2 POP PUSH2 0x404B JUMP JUMPDEST PUSH1 0x1 PUSH1 0x1 PUSH1 0xA0 SHL SUB AND EQ PUSH2 0x1E80 JUMPI PUSH1 0x40 MLOAD PUSH3 0x461BCD PUSH1 0xE5 SHL DUP2 MSTORE PUSH1 0x4 ADD PUSH2 0x685 SWAP1 PUSH2 0x4BB4 JUMP JUMPDEST PUSH2 0x1ED2 DUP8 DUP8 DUP8 DUP1 DUP1 PUSH1 0x20 MUL PUSH1 0x20 ADD PUSH1 0x40 MLOAD SWAP1 DUP2 ADD PUSH1 0x40 MSTORE DUP1 SWAP4 SWAP3 SWAP2 SWAP1 DUP2 DUP2 MSTORE PUSH1 0x20 ADD PUSH1 0x0 SWAP1 JUMPDEST DUP3 DUP3 LT ISZERO PUSH2 0xCE9 JUMPI PUSH2 0x1EC3 PUSH1 0x60 DUP4 MUL DUP7 ADD CALLDATASIZE DUP2 SWAP1 SUB DUP2 ADD SWAP1 PUSH2 0x4281 JUMP JUMPDEST DUP2 MSTORE PUSH1 0x20 ADD SWAP1 PUSH1 0x1 ADD SWAP1 PUSH2 0x1EA6 JUMP JUMPDEST PUSH1 0x1 SLOAD DUP2 MLOAD SWAP2 SWAP4 POP PUSH1 0x1 PUSH1 0x1 PUSH1 0xA0 SHL SUB AND SWAP1 PUSH4 0xD0E30DB0 SWAP1 DUP5 SWAP1 PUSH1 0x0 SWAP1 PUSH2 0x1EF5 JUMPI INVALID JUMPDEST PUSH1 0x20 MUL PUSH1 0x20 ADD ADD MLOAD PUSH1 0x40 MLOAD DUP3 PUSH4 0xFFFFFFFF AND PUSH1 0xE0 SHL DUP2 MSTORE PUSH1 0x4 ADD PUSH1 0x0 PUSH1 0x40 MLOAD DUP1 DUP4 SUB DUP2 DUP6 DUP9 DUP1 EXTCODESIZE ISZERO DUP1 ISZERO PUSH2 0x1F28 JUMPI PUSH1 0x0 DUP1 REVERT JUMPDEST POP GAS CALL ISZERO DUP1 ISZERO PUSH2 0x1F3C JUMPI RETURNDATASIZE PUSH1 0x0 DUP1 RETURNDATACOPY RETURNDATASIZE PUSH1 0x0 REVERT JUMPDEST POP POP PUSH1 0x1 SLOAD PUSH1 0x2 SLOAD PUSH1 0x0 DUP1 SLOAD PUSH1 0x1 PUSH1 0x1 PUSH1 0xA0 SHL SUB SWAP4 DUP5 AND SWAP7 POP PUSH4 0xA9059CBB SWAP6 POP PUSH2 0x1F72 SWAP5 POP SWAP2 SWAP3 SWAP1 SWAP2 AND SWAP1 DUP12 SWAP1 DUP12 SWAP1 DUP2 PUSH2 0x7CC JUMPI INVALID JUMPDEST DUP5 PUSH1 0x0 DUP2 MLOAD DUP2 LT PUSH2 0x1F7F JUMPI INVALID JUMPDEST PUSH1 0x20 MUL PUSH1 0x20 ADD ADD MLOAD PUSH1 0x40 MLOAD DUP4 PUSH4 0xFFFFFFFF AND PUSH1 0xE0 SHL DUP2 MSTORE PUSH1 0x4 ADD PUSH2 0x1FA4 SWAP3 SWAP2 SWAP1 PUSH2 0x474E JUMP JUMPDEST PUSH1 0x20 PUSH1 0x40 MLOAD DUP1 DUP4 SUB DUP2 PUSH1 0x0 DUP8 DUP1 EXTCODESIZE ISZERO DUP1 ISZERO PUSH2 0x1FBE JUMPI PUSH1 0x0 DUP1 REVERT JUMPDEST POP GAS CALL ISZERO DUP1 ISZERO PUSH2 0x1FD2 JUMPI RETURNDATASIZE PUSH1 0x0 DUP1 RETURNDATACOPY RETURNDATASIZE PUSH1 0x0 REVERT JUMPDEST POP POP POP POP PUSH1 0x40 MLOAD RETURNDATASIZE PUSH1 0x1F NOT PUSH1 0x1F DUP3 ADD AND DUP3 ADD DUP1 PUSH1 0x40 MSTORE POP DUP2 ADD SWAP1 PUSH2 0x1FF6 SWAP2 SWAP1 PUSH2 0x4083 JUMP JUMPDEST PUSH2 0x1FFC JUMPI INVALID JUMPDEST PUSH2 0xEEB DUP3 DUP8 DUP8 DUP1 DUP1 PUSH1 0x20 MUL PUSH1 0x20 ADD PUSH1 0x40 MLOAD SWAP1 DUP2 ADD PUSH1 0x40 MSTORE DUP1 SWAP4 SWAP3 SWAP2 SWAP1 DUP2 DUP2 MSTORE PUSH1 0x20 ADD PUSH1 0x0 SWAP1 JUMPDEST DUP3 DUP3 LT ISZERO PUSH2 0xEA4 JUMPI PUSH2 0x203F PUSH1 0x60 DUP4 MUL DUP7 ADD CALLDATASIZE DUP2 SWAP1 SUB DUP2 ADD SWAP1 PUSH2 0x4281 JUMP JUMPDEST DUP2 MSTORE PUSH1 0x20 ADD SWAP1 PUSH1 0x1 ADD SWAP1 PUSH2 0x2022 JUMP JUMPDEST PUSH1 0x60 DUP1 DUP3 MLOAD PUSH1 0x1 ADD PUSH1 0x1 PUSH1 0x1 PUSH1 0x40 SHL SUB DUP2 GT DUP1 ISZERO PUSH2 0x206B JUMPI PUSH1 0x0 DUP1 REVERT JUMPDEST POP PUSH1 0x40 MLOAD SWAP1 DUP1 DUP3 MSTORE DUP1 PUSH1 0x20 MUL PUSH1 0x20 ADD DUP3 ADD PUSH1 0x40 MSTORE DUP1 ISZERO PUSH2 0x2095 JUMPI DUP2 PUSH1 0x20 ADD PUSH1 0x20 DUP3 MUL DUP1 CALLDATASIZE DUP4 CALLDATACOPY ADD SWAP1 POP JUMPDEST POP SWAP1 POP DUP3 PUSH1 0x0 DUP2 MLOAD DUP2 LT PUSH2 0x20A5 JUMPI INVALID JUMPDEST PUSH1 0x20 MUL PUSH1 0x20 ADD ADD MLOAD PUSH1 0x0 ADD MLOAD PUSH1 0x1 PUSH1 0x1 PUSH1 0xA0 SHL SUB AND PUSH4 0x313CE567 PUSH1 0x40 MLOAD DUP2 PUSH4 0xFFFFFFFF AND PUSH1 0xE0 SHL DUP2 MSTORE PUSH1 0x4 ADD PUSH1 0x20 PUSH1 0x40 MLOAD DUP1 DUP4 SUB DUP2 DUP7 DUP1 EXTCODESIZE ISZERO DUP1 ISZERO PUSH2 0x20E9 JUMPI PUSH1 0x0 DUP1 REVERT JUMPDEST POP GAS STATICCALL ISZERO DUP1 ISZERO PUSH2 0x20FD JUMPI RETURNDATASIZE PUSH1 0x0 DUP1 RETURNDATACOPY RETURNDATASIZE PUSH1 0x0 REVERT JUMPDEST POP POP POP POP PUSH1 0x40 MLOAD RETURNDATASIZE PUSH1 0x1F NOT PUSH1 0x1F DUP3 ADD AND DUP3 ADD DUP1 PUSH1 0x40 MSTORE POP DUP2 ADD SWAP1 PUSH2 0x2121 SWAP2 SWAP1 PUSH2 0x45D2 JUMP JUMPDEST PUSH1 0xFF AND DUP2 PUSH1 0x0 DUP2 MLOAD DUP2 LT PUSH2 0x2131 JUMPI INVALID JUMPDEST PUSH1 0x20 MUL PUSH1 0x20 ADD ADD DUP2 DUP2 MSTORE POP POP PUSH1 0x0 JUMPDEST DUP4 MLOAD DUP2 LT ISZERO PUSH2 0x21F6 JUMPI DUP4 DUP2 DUP2 MLOAD DUP2 LT PUSH2 0x2155 JUMPI INVALID JUMPDEST PUSH1 0x20 MUL PUSH1 0x20 ADD ADD MLOAD PUSH1 0x20 ADD MLOAD PUSH1 0x1 PUSH1 0x1 PUSH1 0xA0 SHL SUB AND PUSH4 0x313CE567 PUSH1 0x40 MLOAD DUP2 PUSH4 0xFFFFFFFF AND PUSH1 0xE0 SHL DUP2 MSTORE PUSH1 0x4 ADD PUSH1 0x20 PUSH1 0x40 MLOAD DUP1 DUP4 SUB DUP2 DUP7 DUP1 EXTCODESIZE ISZERO DUP1 ISZERO PUSH2 0x2199 JUMPI PUSH1 0x0 DUP1 REVERT JUMPDEST POP GAS STATICCALL ISZERO DUP1 ISZERO PUSH2 0x21AD JUMPI RETURNDATASIZE PUSH1 0x0 DUP1 RETURNDATACOPY RETURNDATASIZE PUSH1 0x0 REVERT JUMPDEST POP POP POP POP PUSH1 0x40 MLOAD RETURNDATASIZE PUSH1 0x1F NOT PUSH1 0x1F DUP3 ADD AND DUP3 ADD DUP1 PUSH1 0x40 MSTORE POP DUP2 ADD SWAP1 PUSH2 0x21D1 SWAP2 SWAP1 PUSH2 0x45D2 JUMP JUMPDEST PUSH1 0xFF AND DUP3 DUP3 PUSH1 0x1 ADD DUP2 MLOAD DUP2 LT PUSH2 0x21E3 JUMPI INVALID JUMPDEST PUSH1 0x20 SWAP1 DUP2 MUL SWAP2 SWAP1 SWAP2 ADD ADD MSTORE PUSH1 0x1 ADD PUSH2 0x2140 JUMP JUMPDEST POP PUSH1 0x0 SLOAD PUSH2 0x1C83 SWAP1 PUSH1 0x1 PUSH1 0x1 PUSH1 0xA0 SHL SUB AND DUP6 DUP6 DUP5 PUSH2 0x3849 JUMP JUMPDEST PUSH1 0x60 DUP2 TIMESTAMP DUP2 LT ISZERO PUSH2 0x2232 JUMPI PUSH1 0x40 MLOAD PUSH3 0x461BCD PUSH1 0xE5 SHL DUP2 MSTORE PUSH1 0x4 ADD PUSH2 0x685 SWAP1 PUSH2 0x481E JUMP JUMPDEST PUSH1 0x1 SLOAD PUSH1 0x1 PUSH1 0x1 PUSH1 0xA0 SHL SUB AND DUP7 DUP7 PUSH1 0x0 NOT DUP2 ADD DUP2 DUP2 LT PUSH2 0x224E JUMPI INVALID JUMPDEST SWAP1 POP PUSH1 0x60 MUL ADD PUSH1 0x20 ADD PUSH1 0x20 DUP2 ADD SWAP1 PUSH2 0x2266 SWAP2 SWAP1 PUSH2 0x404B JUMP JUMPDEST PUSH1 0x1 PUSH1 0x1 PUSH1 0xA0 SHL SUB AND EQ PUSH2 0x228C JUMPI PUSH1 0x40 MLOAD PUSH3 0x461BCD PUSH1 0xE5 SHL DUP2 MSTORE PUSH1 0x4 ADD PUSH2 0x685 SWAP1 PUSH2 0x4BB4 JUMP JUMPDEST PUSH2 0x22DE DUP9 DUP8 DUP8 DUP1 DUP1 PUSH1 0x20 MUL PUSH1 0x20 ADD PUSH1 0x40 MLOAD SWAP1 DUP2 ADD PUSH1 0x40 MSTORE DUP1 SWAP4 SWAP3 SWAP2 SWAP1 DUP2 DUP2 MSTORE PUSH1 0x20 ADD PUSH1 0x0 SWAP1 JUMPDEST DUP3 DUP3 LT ISZERO PUSH2 0xCE9 JUMPI PUSH2 0x22CF PUSH1 0x60 DUP4 MUL DUP7 ADD CALLDATASIZE DUP2 SWAP1 SUB DUP2 ADD SWAP1 PUSH2 0x4281 JUMP JUMPDEST DUP2 MSTORE PUSH1 0x20 ADD SWAP1 PUSH1 0x1 ADD SWAP1 PUSH2 0x22B2 JUMP JUMPDEST SWAP2 POP DUP7 DUP3 PUSH1 0x0 DUP2 MLOAD DUP2 LT PUSH2 0x22EE JUMPI INVALID JUMPDEST PUSH1 0x20 MUL PUSH1 0x20 ADD ADD MLOAD GT ISZERO PUSH2 0x2314 JUMPI PUSH1 0x40 MLOAD PUSH3 0x461BCD PUSH1 0xE5 SHL DUP2 MSTORE PUSH1 0x4 ADD PUSH2 0x685 SWAP1 PUSH2 0x4A45 JUMP JUMPDEST PUSH2 0x2324 DUP7 DUP7 PUSH1 0x0 DUP2 DUP2 LT PUSH2 0x78D JUMPI INVALID JUMPDEST PUSH2 0x859 DUP3 DUP8 DUP8 DUP1 DUP1 PUSH1 0x20 MUL PUSH1 0x20 ADD PUSH1 0x40 MLOAD SWAP1 DUP2 ADD PUSH1 0x40 MSTORE DUP1 SWAP4 SWAP3 SWAP2 SWAP1 DUP2 DUP2 MSTORE PUSH1 0x20 ADD PUSH1 0x0 SWAP1 JUMPDEST DUP3 DUP3 LT ISZERO PUSH2 0x84E JUMPI PUSH2 0x2367 PUSH1 0x60 DUP4 MUL DUP7 ADD CALLDATASIZE DUP2 SWAP1 SUB DUP2 ADD SWAP1 PUSH2 0x4281 JUMP JUMPDEST DUP2 MSTORE PUSH1 0x20 ADD SWAP1 PUSH1 0x1 ADD SWAP1 PUSH2 0x234A JUMP JUMPDEST PUSH1 0x0 PUSH2 0x1C9D DUP8 DUP8 DUP8 DUP8 DUP8 DUP8 PUSH2 0x3987 JUMP JUMPDEST PUSH1 0x0 DUP1 PUSH1 0x0 DUP4 TIMESTAMP DUP2 LT ISZERO PUSH2 0x23AC JUMPI PUSH1 0x40 MLOAD PUSH3 0x461BCD PUSH1 0xE5 SHL DUP2 MSTORE PUSH1 0x4 ADD PUSH2 0x685 SWAP1 PUSH2 0x481E JUMP JUMPDEST PUSH2 0x23C7 PUSH2 0x23BE CALLDATASIZE DUP14 SWAP1 SUB DUP14 ADD DUP14 PUSH2 0x4281 JUMP JUMPDEST DUP12 DUP12 DUP12 DUP12 PUSH2 0x325B JUMP JUMPDEST DUP1 SWAP5 POP DUP2 SWAP6 POP POP POP PUSH1 0x0 PUSH2 0x23FD PUSH1 0x2 SLOAD PUSH1 0x0 DUP1 SWAP1 SLOAD SWAP1 PUSH2 0x100 EXP SWAP1 DIV PUSH1 0x1 PUSH1 0x1 PUSH1 0xA0 SHL SUB AND DUP15 DUP1 CALLDATASIZE SUB DUP2 ADD SWAP1 PUSH2 0x527 SWAP2 SWAP1 PUSH2 0x4281 JUMP JUMPDEST SWAP1 POP PUSH2 0x240F PUSH2 0x165B PUSH1 0x20 DUP15 ADD DUP15 PUSH2 0x404B JUMP JUMPDEST PUSH2 0x242A PUSH2 0x2422 PUSH1 0x40 DUP15 ADD PUSH1 0x20 DUP16 ADD PUSH2 0x404B JUMP JUMPDEST CALLER DUP4 DUP8 PUSH2 0x2AC9 JUMP JUMPDEST PUSH1 0x40 MLOAD PUSH4 0x35313C21 PUSH1 0xE1 SHL DUP2 MSTORE PUSH1 0x1 PUSH1 0x1 PUSH1 0xA0 SHL SUB DUP3 AND SWAP1 PUSH4 0x6A627842 SWAP1 PUSH2 0x2456 SWAP1 DUP11 SWAP1 PUSH1 0x4 ADD PUSH2 0x46B1 JUMP JUMPDEST PUSH1 0x20 PUSH1 0x40 MLOAD DUP1 DUP4 SUB DUP2 PUSH1 0x0 DUP8 DUP1 EXTCODESIZE ISZERO DUP1 ISZERO PUSH2 0x2470 JUMPI PUSH1 0x0 DUP1 REVERT JUMPDEST POP GAS CALL ISZERO DUP1 ISZERO PUSH2 0x2484 JUMPI RETURNDATASIZE PUSH1 0x0 DUP1 RETURNDATACOPY RETURNDATASIZE PUSH1 0x0 REVERT JUMPDEST POP POP POP POP PUSH1 0x40 MLOAD RETURNDATASIZE PUSH1 0x1F NOT PUSH1 0x1F DUP3 ADD AND DUP3 ADD DUP1 PUSH1 0x40 MSTORE POP DUP2 ADD SWAP1 PUSH2 0x24A8 SWAP2 SWAP1 PUSH2 0x409F JUMP JUMPDEST SWAP3 POP POP POP SWAP8 POP SWAP8 POP SWAP8 SWAP5 POP POP POP POP POP JUMP JUMPDEST PUSH1 0x60 DUP2 TIMESTAMP DUP2 LT ISZERO PUSH2 0x24DC JUMPI PUSH1 0x40 MLOAD PUSH3 0x461BCD PUSH1 0xE5 SHL DUP2 MSTORE PUSH1 0x4 ADD PUSH2 0x685 SWAP1 PUSH2 0x481E JUMP JUMPDEST PUSH2 0x252E DUP9 DUP8 DUP8 DUP1 DUP1 PUSH1 0x20 MUL PUSH1 0x20 ADD PUSH1 0x40 MLOAD SWAP1 DUP2 ADD PUSH1 0x40 MSTORE DUP1 SWAP4 SWAP3 SWAP2 SWAP1 DUP2 DUP2 MSTORE PUSH1 0x20 ADD PUSH1 0x0 SWAP1 JUMPDEST DUP3 DUP3 LT ISZERO PUSH2 0xCE9 JUMPI PUSH2 0x251F PUSH1 0x60 DUP4 MUL DUP7 ADD CALLDATASIZE DUP2 SWAP1 SUB DUP2 ADD SWAP1 PUSH2 0x4281 JUMP JUMPDEST DUP2 MSTORE PUSH1 0x20 ADD SWAP1 PUSH1 0x1 ADD SWAP1 PUSH2 0x2502 JUMP JUMPDEST SWAP2 POP DUP7 DUP3 PUSH1 0x0 DUP2 MLOAD DUP2 LT PUSH2 0x253E JUMPI INVALID JUMPDEST PUSH1 0x20 MUL PUSH1 0x20 ADD ADD MLOAD GT ISZERO PUSH2 0x2564 JUMPI PUSH1 0x40 MLOAD PUSH3 0x461BCD PUSH1 0xE5 SHL DUP2 MSTORE PUSH1 0x4 ADD PUSH2 0x685 SWAP1 PUSH2 0x4A45 JUMP JUMPDEST PUSH2 0x2574 DUP7 DUP7 PUSH1 0x0 DUP2 DUP2 LT PUSH2 0x78D JUMPI INVALID JUMPDEST PUSH2 0x8F7 DUP3 DUP8 DUP8 DUP1 DUP1 PUSH1 0x20 MUL PUSH1 0x20 ADD PUSH1 0x40 MLOAD SWAP1 DUP2 ADD PUSH1 0x40 MSTORE DUP1 SWAP4 SWAP3 SWAP2 SWAP1 DUP2 DUP2 MSTORE PUSH1 0x20 ADD PUSH1 0x0 SWAP1 JUMPDEST DUP3 DUP3 LT ISZERO PUSH2 0xEA4 JUMPI PUSH2 0x25B7 PUSH1 0x60 DUP4 MUL DUP7 ADD CALLDATASIZE DUP2 SWAP1 SUB DUP2 ADD SWAP1 PUSH2 0x4281 JUMP JUMPDEST DUP2 MSTORE PUSH1 0x20 ADD SWAP1 PUSH1 0x1 ADD SWAP1 PUSH2 0x259A JUMP JUMPDEST PUSH1 0x60 DUP2 TIMESTAMP DUP2 LT ISZERO PUSH2 0x25E9 JUMPI PUSH1 0x40 MLOAD PUSH3 0x461BCD PUSH1 0xE5 SHL DUP2 MSTORE PUSH1 0x4 ADD PUSH2 0x685 SWAP1 PUSH2 0x481E JUMP JUMPDEST PUSH2 0x263B DUP9 DUP8 DUP8 DUP1 DUP1 PUSH1 0x20 MUL PUSH1 0x20 ADD PUSH1 0x40 MLOAD SWAP1 DUP2 ADD PUSH1 0x40 MSTORE DUP1 SWAP4 SWAP3 SWAP2 SWAP1 DUP2 DUP2 MSTORE PUSH1 0x20 ADD PUSH1 0x0 SWAP1 JUMPDEST DUP3 DUP3 LT ISZERO PUSH2 0x73A JUMPI PUSH2 0x262C PUSH1 0x60 DUP4 MUL DUP7 ADD CALLDATASIZE DUP2 SWAP1 SUB DUP2 ADD SWAP1 PUSH2 0x4281 JUMP JUMPDEST DUP2 MSTORE PUSH1 0x20 ADD SWAP1 PUSH1 0x1 ADD SWAP1 PUSH2 0x260F JUMP JUMPDEST SWAP2 POP DUP7 DUP3 PUSH1 0x1 DUP5 MLOAD SUB DUP2 MLOAD DUP2 LT PUSH2 0x264E JUMPI INVALID JUMPDEST PUSH1 0x20 MUL PUSH1 0x20 ADD ADD MLOAD LT ISZERO PUSH2 0x2674 JUMPI PUSH1 0x40 MLOAD PUSH3 0x461BCD PUSH1 0xE5 SHL DUP2 MSTORE PUSH1 0x4 ADD PUSH2 0x685 SWAP1 PUSH2 0x4C22 JUMP JUMPDEST PUSH2 0x26C9 DUP7 DUP7 PUSH1 0x0 DUP2 DUP2 LT PUSH2 0x2684 JUMPI INVALID JUMPDEST PUSH2 0x269A SWAP3 PUSH1 0x20 PUSH1 0x60 SWAP1 SWAP3 MUL ADD SWAP1 DUP2 ADD SWAP2 POP PUSH2 0x404B JUMP JUMPDEST CALLER PUSH2 0x26C3 PUSH1 0x2 SLOAD PUSH1 0x0 DUP1 SWAP1 SLOAD SWAP1 PUSH2 0x100 EXP SWAP1 DIV PUSH1 0x1 PUSH1 0x1 PUSH1 0xA0 SHL SUB AND DUP12 DUP12 PUSH1 0x0 DUP2 DUP2 LT PUSH2 0x7CC JUMPI INVALID JUMPDEST DUP12 PUSH2 0x2AC9 JUMP JUMPDEST PUSH2 0x8F7 DUP3 DUP8 DUP8 DUP1 DUP1 PUSH1 0x20 MUL PUSH1 0x20 ADD PUSH1 0x40 MLOAD SWAP1 DUP2 ADD PUSH1 0x40 MSTORE DUP1 SWAP4 SWAP3 SWAP2 SWAP1 DUP2 DUP2 MSTORE PUSH1 0x20 ADD PUSH1 0x0 SWAP1 JUMPDEST DUP3 DUP3 LT ISZERO PUSH2 0xEA4 JUMPI PUSH2 0x270C PUSH1 0x60 DUP4 MUL DUP7 ADD CALLDATASIZE DUP2 SWAP1 SUB DUP2 ADD SWAP1 PUSH2 0x4281 JUMP JUMPDEST DUP2 MSTORE PUSH1 0x20 ADD SWAP1 PUSH1 0x1 ADD SWAP1 PUSH2 0x26EF JUMP JUMPDEST PUSH1 0x60 DUP2 TIMESTAMP DUP2 LT ISZERO PUSH2 0x273E JUMPI PUSH1 0x40 MLOAD PUSH3 0x461BCD PUSH1 0xE5 SHL DUP2 MSTORE PUSH1 0x4 ADD PUSH2 0x685 SWAP1 PUSH2 0x481E JUMP JUMPDEST PUSH1 0x1 SLOAD PUSH1 0x1 PUSH1 0x1 PUSH1 0xA0 SHL SUB AND DUP7 DUP7 PUSH1 0x0 DUP2 PUSH2 0x2755 JUMPI INVALID JUMPDEST PUSH2 0x276B SWAP3 PUSH1 0x20 PUSH1 0x60 SWAP1 SWAP3 MUL ADD SWAP1 DUP2 ADD SWAP2 POP PUSH2 0x404B JUMP JUMPDEST PUSH1 0x1 PUSH1 0x1 PUSH1 0xA0 SHL SUB AND EQ PUSH2 0x2791 JUMPI PUSH1 0x40 MLOAD PUSH3 0x461BCD PUSH1 0xE5 SHL DUP2 MSTORE PUSH1 0x4 ADD PUSH2 0x685 SWAP1 PUSH2 0x4BB4 JUMP JUMPDEST CALLVALUE DUP9 GT ISZERO PUSH2 0x27B1 JUMPI PUSH1 0x40 MLOAD PUSH3 0x461BCD PUSH1 0xE5 SHL DUP2 MSTORE PUSH1 0x4 ADD PUSH2 0x685 SWAP1 PUSH2 0x4A02 JUMP JUMPDEST PUSH2 0x2803 DUP9 DUP8 DUP8 DUP1 DUP1 PUSH1 0x20 MUL PUSH1 0x20 ADD PUSH1 0x40 MLOAD SWAP1 DUP2 ADD PUSH1 0x40 MSTORE DUP1 SWAP4 SWAP3 SWAP2 SWAP1 DUP2 DUP2 MSTORE PUSH1 0x20 ADD PUSH1 0x0 SWAP1 JUMPDEST DUP3 DUP3 LT ISZERO PUSH2 0x73A JUMPI PUSH2 0x27F4 PUSH1 0x60 DUP4 MUL DUP7 ADD CALLDATASIZE DUP2 SWAP1 SUB DUP2 ADD SWAP1 PUSH2 0x4281 JUMP JUMPDEST DUP2 MSTORE PUSH1 0x20 ADD SWAP1 PUSH1 0x1 ADD SWAP1 PUSH2 0x27D7 JUMP JUMPDEST SWAP2 POP DUP7 DUP3 PUSH1 0x1 DUP5 MLOAD SUB DUP2 MLOAD DUP2 LT PUSH2 0x2816 JUMPI INVALID JUMPDEST PUSH1 0x20 MUL PUSH1 0x20 ADD ADD MLOAD LT ISZERO PUSH2 0x283C JUMPI PUSH1 0x40 MLOAD PUSH3 0x461BCD PUSH1 0xE5 SHL DUP2 MSTORE PUSH1 0x4 ADD PUSH2 0x685 SWAP1 PUSH2 0x4C22 JUMP JUMPDEST PUSH1 0x1 SLOAD DUP3 MLOAD PUSH1 0x1 PUSH1 0x1 PUSH1 0xA0 SHL SUB SWAP1 SWAP2 AND SWAP1 PUSH4 0xD0E30DB0 SWAP1 DUP5 SWAP1 PUSH1 0x0 SWAP1 PUSH2 0x285E JUMPI INVALID JUMPDEST PUSH1 0x20 MUL PUSH1 0x20 ADD ADD MLOAD PUSH1 0x40 MLOAD DUP3 PUSH4 0xFFFFFFFF AND PUSH1 0xE0 SHL DUP2 MSTORE PUSH1 0x4 ADD PUSH1 0x0 PUSH1 0x40 MLOAD DUP1 DUP4 SUB DUP2 DUP6 DUP9 DUP1 EXTCODESIZE ISZERO DUP1 ISZERO PUSH2 0x2891 JUMPI PUSH1 0x0 DUP1 REVERT JUMPDEST POP GAS CALL ISZERO DUP1 ISZERO PUSH2 0x28A5 JUMPI RETURNDATASIZE PUSH1 0x0 DUP1 RETURNDATACOPY RETURNDATASIZE PUSH1 0x0 REVERT JUMPDEST POP POP PUSH1 0x1 SLOAD PUSH1 0x2 SLOAD PUSH1 0x0 DUP1 SLOAD PUSH1 0x1 PUSH1 0x1 PUSH1 0xA0 SHL SUB SWAP4 DUP5 AND SWAP7 POP PUSH4 0xA9059CBB SWAP6 POP PUSH2 0x28DB SWAP5 POP SWAP2 SWAP3 SWAP1 SWAP2 AND SWAP1 DUP12 SWAP1 DUP12 SWAP1 DUP2 PUSH2 0x7CC JUMPI INVALID JUMPDEST DUP5 PUSH1 0x0 DUP2 MLOAD DUP2 LT PUSH2 0x28E8 JUMPI INVALID JUMPDEST PUSH1 0x20 MUL PUSH1 0x20 ADD ADD MLOAD PUSH1 0x40 MLOAD DUP4 PUSH4 0xFFFFFFFF AND PUSH1 0xE0 SHL DUP2 MSTORE PUSH1 0x4 ADD PUSH2 0x290D SWAP3 SWAP2 SWAP1 PUSH2 0x474E JUMP JUMPDEST PUSH1 0x20 PUSH1 0x40 MLOAD DUP1 DUP4 SUB DUP2 PUSH1 0x0 DUP8 DUP1 EXTCODESIZE ISZERO DUP1 ISZERO PUSH2 0x2927 JUMPI PUSH1 0x0 DUP1 REVERT JUMPDEST POP GAS CALL ISZERO DUP1 ISZERO PUSH2 0x293B JUMPI RETURNDATASIZE PUSH1 0x0 DUP1 RETURNDATACOPY RETURNDATASIZE PUSH1 0x0 REVERT JUMPDEST POP POP POP POP PUSH1 0x40 MLOAD RETURNDATASIZE PUSH1 0x1F NOT PUSH1 0x1F DUP3 ADD AND DUP3 ADD DUP1 PUSH1 0x40 MSTORE POP DUP2 ADD SWAP1 PUSH2 0x295F SWAP2 SWAP1 PUSH2 0x4083 JUMP JUMPDEST PUSH2 0x2965 JUMPI INVALID JUMPDEST PUSH2 0x8F7 DUP3 DUP8 DUP8 DUP1 DUP1 PUSH1 0x20 MUL PUSH1 0x20 ADD PUSH1 0x40 MLOAD SWAP1 DUP2 ADD PUSH1 0x40 MSTORE DUP1 SWAP4 SWAP3 SWAP2 SWAP1 DUP2 DUP2 MSTORE PUSH1 0x20 ADD PUSH1 0x0 SWAP1 JUMPDEST DUP3 DUP3 LT ISZERO PUSH2 0xEA4 JUMPI PUSH2 0x29A8 PUSH1 0x60 DUP4 MUL DUP7 ADD CALLDATASIZE DUP2 SWAP1 SUB DUP2 ADD SWAP1 PUSH2 0x4281 JUMP JUMPDEST DUP2 MSTORE PUSH1 0x20 ADD SWAP1 PUSH1 0x1 ADD SWAP1 PUSH2 0x298B JUMP JUMPDEST PUSH1 0x0 DUP1 PUSH1 0x0 PUSH2 0x29CE DUP5 PUSH1 0x0 ADD MLOAD DUP6 PUSH1 0x20 ADD MLOAD PUSH2 0x3457 JUMP JUMPDEST SWAP2 POP SWAP2 POP DUP5 DUP3 DUP3 DUP7 PUSH1 0x40 ADD MLOAD PUSH1 0x40 MLOAD PUSH1 0x20 ADD PUSH2 0x29EC SWAP4 SWAP3 SWAP2 SWAP1 PUSH2 0x461A JUMP JUMPDEST PUSH1 0x40 MLOAD PUSH1 0x20 DUP2 DUP4 SUB SUB DUP2 MSTORE SWAP1 PUSH1 0x40 MSTORE DUP1 MLOAD SWAP1 PUSH1 0x20 ADD KECCAK256 DUP8 PUSH1 0x40 MLOAD PUSH1 0x20 ADD PUSH2 0x2A15 SWAP4 SWAP3 SWAP2 SWAP1 PUSH2 0x4679 JUMP JUMPDEST PUSH1 0x40 DUP1 MLOAD PUSH1 0x1F NOT DUP2 DUP5 SUB ADD DUP2 MSTORE SWAP2 SWAP1 MSTORE DUP1 MLOAD PUSH1 0x20 SWAP1 SWAP2 ADD KECCAK256 SWAP7 SWAP6 POP POP POP POP POP POP JUMP JUMPDEST PUSH1 0x40 DUP1 MLOAD PUSH1 0x0 DUP1 DUP3 MSTORE PUSH1 0x20 DUP3 ADD SWAP1 SWAP3 MSTORE PUSH1 0x1 PUSH1 0x1 PUSH1 0xA0 SHL SUB DUP5 AND SWAP1 DUP4 SWAP1 PUSH1 0x40 MLOAD PUSH2 0x2A61 SWAP2 SWAP1 PUSH2 0x465D JUMP JUMPDEST PUSH1 0x0 PUSH1 0x40 MLOAD DUP1 DUP4 SUB DUP2 DUP6 DUP8 GAS CALL SWAP3 POP POP POP RETURNDATASIZE DUP1 PUSH1 0x0 DUP2 EQ PUSH2 0x2A9E JUMPI PUSH1 0x40 MLOAD SWAP2 POP PUSH1 0x1F NOT PUSH1 0x3F RETURNDATASIZE ADD AND DUP3 ADD PUSH1 0x40 MSTORE RETURNDATASIZE DUP3 MSTORE RETURNDATASIZE PUSH1 0x0 PUSH1 0x20 DUP5 ADD RETURNDATACOPY PUSH2 0x2AA3 JUMP JUMPDEST PUSH1 0x60 SWAP2 POP JUMPDEST POP POP SWAP1 POP DUP1 PUSH2 0x2AC4 JUMPI PUSH1 0x40 MLOAD PUSH3 0x461BCD PUSH1 0xE5 SHL DUP2 MSTORE PUSH1 0x4 ADD PUSH2 0x685 SWAP1 PUSH2 0x4968 JUMP JUMPDEST POP POP POP JUMP JUMPDEST PUSH1 0x0 PUSH1 0x60 DUP6 PUSH1 0x1 PUSH1 0x1 PUSH1 0xA0 SHL SUB AND PUSH4 0x23B872DD DUP7 DUP7 DUP7 PUSH1 0x40 MLOAD PUSH1 0x24 ADD PUSH2 0x2AF1 SWAP4 SWAP3 SWAP2 SWAP1 PUSH2 0x4706 JUMP JUMPDEST PUSH1 0x40 MLOAD PUSH1 0x20 DUP2 DUP4 SUB SUB DUP2 MSTORE SWAP1 PUSH1 0x40 MSTORE SWAP1 PUSH1 0xE0 SHL PUSH1 0x20 DUP3 ADD DUP1 MLOAD PUSH1 0x1 PUSH1 0x1 PUSH1 0xE0 SHL SUB DUP4 DUP2 DUP4 AND OR DUP4 MSTORE POP POP POP POP PUSH1 0x40 MLOAD PUSH2 0x2B2A SWAP2 SWAP1 PUSH2 0x465D JUMP JUMPDEST PUSH1 0x0 PUSH1 0x40 MLOAD DUP1 DUP4 SUB DUP2 PUSH1 0x0 DUP7 GAS CALL SWAP2 POP POP RETURNDATASIZE DUP1 PUSH1 0x0 DUP2 EQ PUSH2 0x2B67 JUMPI PUSH1 0x40 MLOAD SWAP2 POP PUSH1 0x1F NOT PUSH1 0x3F RETURNDATASIZE ADD AND DUP3 ADD PUSH1 0x40 MSTORE RETURNDATASIZE DUP3 MSTORE RETURNDATASIZE PUSH1 0x0 PUSH1 0x20 DUP5 ADD RETURNDATACOPY PUSH2 0x2B6C JUMP JUMPDEST PUSH1 0x60 SWAP2 POP JUMPDEST POP SWAP2 POP SWAP2 POP DUP2 DUP1 ISZERO PUSH2 0x2B96 JUMPI POP DUP1 MLOAD ISZERO DUP1 PUSH2 0x2B96 JUMPI POP DUP1 DUP1 PUSH1 0x20 ADD SWAP1 MLOAD DUP2 ADD SWAP1 PUSH2 0x2B96 SWAP2 SWAP1 PUSH2 0x4083 JUMP JUMPDEST PUSH2 0x2BB2 JUMPI PUSH1 0x40 MLOAD PUSH3 0x461BCD PUSH1 0xE5 SHL DUP2 MSTORE PUSH1 0x4 ADD PUSH2 0x685 SWAP1 PUSH2 0x4917 JUMP JUMPDEST POP POP POP POP POP POP JUMP JUMPDEST PUSH1 0x0 JUMPDEST PUSH1 0x1 DUP4 MLOAD SUB DUP2 GT PUSH2 0x2D66 JUMPI PUSH1 0x0 DUP1 DUP5 DUP4 DUP2 MLOAD DUP2 LT PUSH2 0x2BD7 JUMPI INVALID JUMPDEST PUSH1 0x20 MUL PUSH1 0x20 ADD ADD MLOAD PUSH1 0x0 ADD MLOAD DUP6 DUP5 DUP2 MLOAD DUP2 LT PUSH2 0x2BEF JUMPI INVALID JUMPDEST PUSH1 0x20 MUL PUSH1 0x20 ADD ADD MLOAD PUSH1 0x20 ADD MLOAD SWAP2 POP SWAP2 POP PUSH1 0x0 PUSH2 0x2C0B DUP4 DUP4 PUSH2 0x3457 JUMP JUMPDEST POP SWAP1 POP PUSH1 0x0 DUP8 DUP6 PUSH1 0x1 ADD DUP2 MLOAD DUP2 LT PUSH2 0x2C1F JUMPI INVALID JUMPDEST PUSH1 0x20 MUL PUSH1 0x20 ADD ADD MLOAD SWAP1 POP PUSH1 0x0 DUP1 DUP4 PUSH1 0x1 PUSH1 0x1 PUSH1 0xA0 SHL SUB AND DUP7 PUSH1 0x1 PUSH1 0x1 PUSH1 0xA0 SHL SUB AND EQ PUSH2 0x2C4D JUMPI DUP3 PUSH1 0x0 PUSH2 0x2C51 JUMP JUMPDEST PUSH1 0x0 DUP4 JUMPDEST SWAP2 POP SWAP2 POP PUSH1 0x0 PUSH1 0x1 DUP11 MLOAD SUB DUP9 LT PUSH2 0x2C68 JUMPI DUP9 PUSH2 0x2C9B JUMP JUMPDEST PUSH1 0x2 SLOAD PUSH1 0x0 SLOAD DUP12 MLOAD PUSH2 0x2C9B SWAP3 SWAP2 PUSH1 0x1 PUSH1 0x1 PUSH1 0xA0 SHL SUB AND SWAP1 DUP14 SWAP1 PUSH1 0x1 DUP14 ADD SWAP1 DUP2 LT PUSH2 0x2C8E JUMPI INVALID JUMPDEST PUSH1 0x20 MUL PUSH1 0x20 ADD ADD MLOAD PUSH2 0x29B7 JUMP JUMPDEST SWAP1 POP PUSH2 0x2CC4 PUSH1 0x2 SLOAD PUSH1 0x0 DUP1 SWAP1 SLOAD SWAP1 PUSH2 0x100 EXP SWAP1 DIV PUSH1 0x1 PUSH1 0x1 PUSH1 0xA0 SHL SUB AND DUP13 DUP12 DUP2 MLOAD DUP2 LT PUSH2 0x2C8E JUMPI INVALID JUMPDEST PUSH1 0x1 PUSH1 0x1 PUSH1 0xA0 SHL SUB AND PUSH4 0x22C0D9F DUP5 DUP5 DUP5 PUSH1 0x0 PUSH1 0x40 MLOAD SWAP1 DUP1 DUP3 MSTORE DUP1 PUSH1 0x1F ADD PUSH1 0x1F NOT AND PUSH1 0x20 ADD DUP3 ADD PUSH1 0x40 MSTORE DUP1 ISZERO PUSH2 0x2D01 JUMPI PUSH1 0x20 DUP3 ADD DUP2 DUP1 CALLDATASIZE DUP4 CALLDATACOPY ADD SWAP1 POP JUMPDEST POP PUSH1 0x40 MLOAD DUP6 PUSH4 0xFFFFFFFF AND PUSH1 0xE0 SHL DUP2 MSTORE PUSH1 0x4 ADD PUSH2 0x2D21 SWAP5 SWAP4 SWAP3 SWAP2 SWAP1 PUSH2 0x4DBC JUMP JUMPDEST PUSH1 0x0 PUSH1 0x40 MLOAD DUP1 DUP4 SUB DUP2 PUSH1 0x0 DUP8 DUP1 EXTCODESIZE ISZERO DUP1 ISZERO PUSH2 0x2D3B JUMPI PUSH1 0x0 DUP1 REVERT JUMPDEST POP GAS CALL ISZERO DUP1 ISZERO PUSH2 0x2D4F JUMPI RETURNDATASIZE PUSH1 0x0 DUP1 RETURNDATACOPY RETURNDATASIZE PUSH1 0x0 REVERT JUMPDEST POP POP PUSH1 0x1 SWAP1 SWAP10 ADD SWAP9 POP PUSH2 0x2BBD SWAP8 POP POP POP POP POP POP POP POP JUMP JUMPDEST POP POP POP POP JUMP JUMPDEST PUSH1 0x0 PUSH1 0x60 DUP5 PUSH1 0x1 PUSH1 0x1 PUSH1 0xA0 SHL SUB AND PUSH4 0xA9059CBB DUP6 DUP6 PUSH1 0x40 MLOAD PUSH1 0x24 ADD PUSH2 0x2D92 SWAP3 SWAP2 SWAP1 PUSH2 0x474E JUMP JUMPDEST PUSH1 0x40 MLOAD PUSH1 0x20 DUP2 DUP4 SUB SUB DUP2 MSTORE SWAP1 PUSH1 0x40 MSTORE SWAP1 PUSH1 0xE0 SHL PUSH1 0x20 DUP3 ADD DUP1 MLOAD PUSH1 0x1 PUSH1 0x1 PUSH1 0xE0 SHL SUB DUP4 DUP2 DUP4 AND OR DUP4 MSTORE POP POP POP POP PUSH1 0x40 MLOAD PUSH2 0x2DCB SWAP2 SWAP1 PUSH2 0x465D JUMP JUMPDEST PUSH1 0x0 PUSH1 0x40 MLOAD DUP1 DUP4 SUB DUP2 PUSH1 0x0 DUP7 GAS CALL SWAP2 POP POP RETURNDATASIZE DUP1 PUSH1 0x0 DUP2 EQ PUSH2 0x2E08 JUMPI PUSH1 0x40 MLOAD SWAP2 POP PUSH1 0x1F NOT PUSH1 0x3F RETURNDATASIZE ADD AND DUP3 ADD PUSH1 0x40 MSTORE RETURNDATASIZE DUP3 MSTORE RETURNDATASIZE PUSH1 0x0 PUSH1 0x20 DUP5 ADD RETURNDATACOPY PUSH2 0x2E0D JUMP JUMPDEST PUSH1 0x60 SWAP2 POP JUMPDEST POP SWAP2 POP SWAP2 POP DUP2 DUP1 ISZERO PUSH2 0x2E37 JUMPI POP DUP1 MLOAD ISZERO DUP1 PUSH2 0x2E37 JUMPI POP DUP1 DUP1 PUSH1 0x20 ADD SWAP1 MLOAD DUP2 ADD SWAP1 PUSH2 0x2E37 SWAP2 SWAP1 PUSH2 0x4083 JUMP JUMPDEST PUSH2 0x2E53 JUMPI PUSH1 0x40 MLOAD PUSH3 0x461BCD PUSH1 0xE5 SHL DUP2 MSTORE PUSH1 0x4 ADD PUSH2 0x685 SWAP1 PUSH2 0x4C6E JUMP JUMPDEST POP POP POP POP POP JUMP JUMPDEST PUSH1 0x0 JUMPDEST DUP3 MLOAD DUP2 LT ISZERO PUSH2 0x2AC4 JUMPI PUSH1 0x0 PUSH2 0x2EA0 DUP5 DUP4 DUP2 MLOAD DUP2 LT PUSH2 0x2E77 JUMPI INVALID JUMPDEST PUSH1 0x20 MUL PUSH1 0x20 ADD ADD MLOAD PUSH1 0x0 ADD MLOAD DUP6 DUP5 DUP2 MLOAD DUP2 LT PUSH2 0x2E8F JUMPI INVALID JUMPDEST PUSH1 0x20 MUL PUSH1 0x20 ADD ADD MLOAD PUSH1 0x20 ADD MLOAD PUSH2 0x3457 JUMP JUMPDEST POP SWAP1 POP PUSH1 0x0 PUSH2 0x2ECC PUSH1 0x2 SLOAD PUSH1 0x0 DUP1 SWAP1 SLOAD SWAP1 PUSH2 0x100 EXP SWAP1 DIV PUSH1 0x1 PUSH1 0x1 PUSH1 0xA0 SHL SUB AND DUP8 DUP7 DUP2 MLOAD DUP2 LT PUSH2 0x2C8E JUMPI INVALID JUMPDEST SWAP1 POP PUSH1 0x0 DUP1 PUSH1 0x0 DUP1 PUSH1 0x0 DUP1 DUP7 PUSH1 0x1 PUSH1 0x1 PUSH1 0xA0 SHL SUB AND PUSH4 0x902F1AC PUSH1 0x40 MLOAD DUP2 PUSH4 0xFFFFFFFF AND PUSH1 0xE0 SHL DUP2 MSTORE PUSH1 0x4 ADD PUSH1 0x60 PUSH1 0x40 MLOAD DUP1 DUP4 SUB DUP2 DUP7 DUP1 EXTCODESIZE ISZERO DUP1 ISZERO PUSH2 0x2F10 JUMPI PUSH1 0x0 DUP1 REVERT JUMPDEST POP GAS STATICCALL ISZERO DUP1 ISZERO PUSH2 0x2F24 JUMPI RETURNDATASIZE PUSH1 0x0 DUP1 RETURNDATACOPY RETURNDATASIZE PUSH1 0x0 REVERT JUMPDEST POP POP POP POP PUSH1 0x40 MLOAD RETURNDATASIZE PUSH1 0x1F NOT PUSH1 0x1F DUP3 ADD AND DUP3 ADD DUP1 PUSH1 0x40 MSTORE POP DUP2 ADD SWAP1 PUSH2 0x2F48 SWAP2 SWAP1 PUSH2 0x42BF JUMP JUMPDEST POP PUSH1 0x1 PUSH1 0x1 PUSH1 0x70 SHL SUB AND SWAP2 POP PUSH1 0x1 PUSH1 0x1 PUSH1 0x70 SHL SUB AND SWAP2 POP DUP8 PUSH1 0x1 PUSH1 0x1 PUSH1 0xA0 SHL SUB AND DUP12 DUP11 DUP2 MLOAD DUP2 LT PUSH2 0x2F75 JUMPI INVALID JUMPDEST PUSH1 0x20 MUL PUSH1 0x20 ADD ADD MLOAD PUSH1 0x0 ADD MLOAD PUSH1 0x1 PUSH1 0x1 PUSH1 0xA0 SHL SUB AND EQ PUSH2 0x2F96 JUMPI DUP1 DUP3 PUSH2 0x2F99 JUMP JUMPDEST DUP2 DUP2 JUMPDEST DUP1 SWAP5 POP DUP2 SWAP6 POP POP POP PUSH2 0x2FE8 DUP5 DUP13 DUP12 DUP2 MLOAD DUP2 LT PUSH2 0x2FB1 JUMPI INVALID JUMPDEST PUSH1 0x20 MUL PUSH1 0x20 ADD ADD MLOAD PUSH1 0x0 ADD MLOAD PUSH1 0x1 PUSH1 0x1 PUSH1 0xA0 SHL SUB AND PUSH4 0x70A08231 DUP11 PUSH1 0x40 MLOAD DUP3 PUSH4 0xFFFFFFFF AND PUSH1 0xE0 SHL DUP2 MSTORE PUSH1 0x4 ADD PUSH2 0x10C6 SWAP2 SWAP1 PUSH2 0x46B1 JUMP JUMPDEST SWAP6 POP POP POP PUSH1 0x0 DUP10 DUP9 DUP2 MLOAD DUP2 LT PUSH2 0x2FFA JUMPI INVALID JUMPDEST PUSH1 0x20 MUL PUSH1 0x20 ADD ADD MLOAD PUSH1 0x0 ADD MLOAD PUSH1 0x1 PUSH1 0x1 PUSH1 0xA0 SHL SUB AND PUSH4 0x313CE567 PUSH1 0x40 MLOAD DUP2 PUSH4 0xFFFFFFFF AND PUSH1 0xE0 SHL DUP2 MSTORE PUSH1 0x4 ADD PUSH1 0x20 PUSH1 0x40 MLOAD DUP1 DUP4 SUB DUP2 DUP7 DUP1 EXTCODESIZE ISZERO DUP1 ISZERO PUSH2 0x303E JUMPI PUSH1 0x0 DUP1 REVERT JUMPDEST POP GAS STATICCALL ISZERO DUP1 ISZERO PUSH2 0x3052 JUMPI RETURNDATASIZE PUSH1 0x0 DUP1 RETURNDATACOPY RETURNDATASIZE PUSH1 0x0 REVERT JUMPDEST POP POP POP POP PUSH1 0x40 MLOAD RETURNDATASIZE PUSH1 0x1F NOT PUSH1 0x1F DUP3 ADD AND DUP3 ADD DUP1 PUSH1 0x40 MSTORE POP DUP2 ADD SWAP1 PUSH2 0x3076 SWAP2 SWAP1 PUSH2 0x45D2 JUMP JUMPDEST PUSH1 0xFF AND SWAP1 POP PUSH1 0x0 DUP11 DUP10 DUP2 MLOAD DUP2 LT PUSH2 0x3089 JUMPI INVALID JUMPDEST PUSH1 0x20 MUL PUSH1 0x20 ADD ADD MLOAD PUSH1 0x20 ADD MLOAD PUSH1 0x1 PUSH1 0x1 PUSH1 0xA0 SHL SUB AND PUSH4 0x313CE567 PUSH1 0x40 MLOAD DUP2 PUSH4 0xFFFFFFFF AND PUSH1 0xE0 SHL DUP2 MSTORE PUSH1 0x4 ADD PUSH1 0x20 PUSH1 0x40 MLOAD DUP1 DUP4 SUB DUP2 DUP7 DUP1 EXTCODESIZE ISZERO DUP1 ISZERO PUSH2 0x30CD JUMPI PUSH1 0x0 DUP1 REVERT JUMPDEST POP GAS STATICCALL ISZERO DUP1 ISZERO PUSH2 0x30E1 JUMPI RETURNDATASIZE PUSH1 0x0 DUP1 RETURNDATACOPY RETURNDATASIZE PUSH1 0x0 REVERT JUMPDEST POP POP POP POP PUSH1 0x40 MLOAD RETURNDATASIZE PUSH1 0x1F NOT PUSH1 0x1F DUP3 ADD AND DUP3 ADD DUP1 PUSH1 0x40 MSTORE POP DUP2 ADD SWAP1 PUSH2 0x3105 SWAP2 SWAP1 PUSH2 0x45D2 JUMP JUMPDEST PUSH1 0xFF AND SWAP1 POP PUSH2 0x312F DUP7 DUP6 DUP6 DUP15 DUP14 DUP2 MLOAD DUP2 LT PUSH2 0x311C JUMPI INVALID JUMPDEST PUSH1 0x20 MUL PUSH1 0x20 ADD ADD MLOAD PUSH1 0x40 ADD MLOAD DUP7 DUP7 PUSH2 0x2376 JUMP JUMPDEST SWAP5 POP POP POP PUSH1 0x0 DUP1 DUP8 PUSH1 0x1 PUSH1 0x1 PUSH1 0xA0 SHL SUB AND DUP12 DUP11 DUP2 MLOAD DUP2 LT PUSH2 0x314C JUMPI INVALID JUMPDEST PUSH1 0x20 MUL PUSH1 0x20 ADD ADD MLOAD PUSH1 0x0 ADD MLOAD PUSH1 0x1 PUSH1 0x1 PUSH1 0xA0 SHL SUB AND EQ PUSH2 0x316E JUMPI DUP5 PUSH1 0x0 PUSH2 0x3172 JUMP JUMPDEST PUSH1 0x0 DUP6 JUMPDEST SWAP2 POP SWAP2 POP PUSH1 0x0 PUSH1 0x1 DUP13 MLOAD SUB DUP11 LT PUSH2 0x3189 JUMPI DUP11 PUSH2 0x31AF JUMP JUMPDEST PUSH1 0x2 SLOAD PUSH1 0x0 SLOAD DUP14 MLOAD PUSH2 0x31AF SWAP3 SWAP2 PUSH1 0x1 PUSH1 0x1 PUSH1 0xA0 SHL SUB AND SWAP1 DUP16 SWAP1 PUSH1 0x1 DUP16 ADD SWAP1 DUP2 LT PUSH2 0x2C8E JUMPI INVALID JUMPDEST PUSH1 0x40 DUP1 MLOAD PUSH1 0x0 DUP2 MSTORE PUSH1 0x20 DUP2 ADD SWAP2 DUP3 SWAP1 MSTORE PUSH4 0x22C0D9F PUSH1 0xE0 SHL SWAP1 SWAP2 MSTORE SWAP1 SWAP2 POP PUSH1 0x1 PUSH1 0x1 PUSH1 0xA0 SHL SUB DUP10 AND SWAP1 PUSH4 0x22C0D9F SWAP1 PUSH2 0x31F1 SWAP1 DUP7 SWAP1 DUP7 SWAP1 DUP7 SWAP1 PUSH1 0x24 DUP2 ADD PUSH2 0x4DBC JUMP JUMPDEST PUSH1 0x0 PUSH1 0x40 MLOAD DUP1 DUP4 SUB DUP2 PUSH1 0x0 DUP8 DUP1 EXTCODESIZE ISZERO DUP1 ISZERO PUSH2 0x320B JUMPI PUSH1 0x0 DUP1 REVERT JUMPDEST POP GAS CALL ISZERO DUP1 ISZERO PUSH2 0x321F JUMPI RETURNDATASIZE PUSH1 0x0 DUP1 RETURNDATACOPY RETURNDATASIZE PUSH1 0x0 REVERT JUMPDEST POP POP PUSH1 0x1 SWAP1 SWAP12 ADD SWAP11 POP PUSH2 0x2E5D SWAP10 POP POP POP POP POP POP POP POP POP POP JUMP JUMPDEST DUP1 DUP3 SUB DUP3 DUP2 GT ISZERO PUSH2 0x1C87 JUMPI PUSH1 0x40 MLOAD PUSH3 0x461BCD PUSH1 0xE5 SHL DUP2 MSTORE PUSH1 0x4 ADD PUSH2 0x685 SWAP1 PUSH2 0x488C JUMP JUMPDEST PUSH1 0x0 DUP1 SLOAD DUP7 MLOAD PUSH1 0x20 DUP9 ADD MLOAD PUSH1 0x40 DUP1 DUP11 ADD MLOAD SWAP1 MLOAD PUSH4 0x6801CC3 PUSH1 0xE4 SHL DUP2 MSTORE DUP6 SWAP5 DUP6 SWAP5 PUSH1 0x1 PUSH1 0x1 PUSH1 0xA0 SHL SUB SWAP1 SWAP2 AND SWAP4 PUSH4 0x6801CC30 SWAP4 PUSH2 0x329A SWAP4 PUSH1 0x4 ADD PUSH2 0x472A JUMP JUMPDEST PUSH1 0x20 PUSH1 0x40 MLOAD DUP1 DUP4 SUB DUP2 DUP7 DUP1 EXTCODESIZE ISZERO DUP1 ISZERO PUSH2 0x32B2 JUMPI PUSH1 0x0 DUP1 REVERT JUMPDEST POP GAS STATICCALL ISZERO DUP1 ISZERO PUSH2 0x32C6 JUMPI RETURNDATASIZE PUSH1 0x0 DUP1 RETURNDATACOPY RETURNDATASIZE PUSH1 0x0 REVERT JUMPDEST POP POP POP POP PUSH1 0x40 MLOAD RETURNDATASIZE PUSH1 0x1F NOT PUSH1 0x1F DUP3 ADD AND DUP3 ADD DUP1 PUSH1 0x40 MSTORE POP DUP2 ADD SWAP1 PUSH2 0x32EA SWAP2 SWAP1 PUSH2 0x4067 JUMP JUMPDEST SWAP1 POP PUSH1 0x1 PUSH1 0x1 PUSH1 0xA0 SHL SUB DUP2 AND PUSH2 0x338D JUMPI PUSH1 0x0 SLOAD DUP9 MLOAD PUSH1 0x20 DUP11 ADD MLOAD PUSH1 0x40 DUP1 DUP13 ADD MLOAD SWAP1 MLOAD PUSH4 0x20B7F739 PUSH1 0xE2 SHL DUP2 MSTORE PUSH1 0x1 PUSH1 0x1 PUSH1 0xA0 SHL SUB SWAP1 SWAP5 AND SWAP4 PUSH4 0x82DFDCE4 SWAP4 PUSH2 0x3338 SWAP4 SWAP1 SWAP3 SWAP1 SWAP2 PUSH1 0x4 ADD PUSH2 0x472A JUMP JUMPDEST PUSH1 0x20 PUSH1 0x40 MLOAD DUP1 DUP4 SUB DUP2 PUSH1 0x0 DUP8 DUP1 EXTCODESIZE ISZERO DUP1 ISZERO PUSH2 0x3352 JUMPI PUSH1 0x0 DUP1 REVERT JUMPDEST POP GAS CALL ISZERO DUP1 ISZERO PUSH2 0x3366 JUMPI RETURNDATASIZE PUSH1 0x0 DUP1 RETURNDATACOPY RETURNDATASIZE PUSH1 0x0 REVERT JUMPDEST POP POP POP POP PUSH1 0x40 MLOAD RETURNDATASIZE PUSH1 0x1F NOT PUSH1 0x1F DUP3 ADD AND DUP3 ADD DUP1 PUSH1 0x40 MSTORE POP DUP2 ADD SWAP1 PUSH2 0x338A SWAP2 SWAP1 PUSH2 0x4067 JUMP JUMPDEST SWAP1 POP JUMPDEST PUSH1 0x0 DUP1 SLOAD DUP2 SWAP1 PUSH2 0x33A6 SWAP1 PUSH1 0x1 PUSH1 0x1 PUSH1 0xA0 SHL SUB AND DUP12 PUSH2 0x3B36 JUMP JUMPDEST SWAP2 POP SWAP2 POP DUP2 PUSH1 0x0 EQ DUP1 ISZERO PUSH2 0x33B8 JUMPI POP DUP1 ISZERO JUMPDEST ISZERO PUSH2 0x33C8 JUMPI DUP9 SWAP5 POP DUP8 SWAP4 POP PUSH2 0x344A JUMP JUMPDEST PUSH1 0x0 PUSH2 0x33D5 DUP11 DUP5 DUP5 PUSH2 0x37DB JUMP JUMPDEST SWAP1 POP DUP9 DUP2 GT PUSH2 0x3409 JUMPI DUP7 DUP2 LT ISZERO PUSH2 0x33FE JUMPI PUSH1 0x40 MLOAD PUSH3 0x461BCD PUSH1 0xE5 SHL DUP2 MSTORE PUSH1 0x4 ADD PUSH2 0x685 SWAP1 PUSH2 0x4AC8 JUMP JUMPDEST DUP10 SWAP6 POP SWAP4 POP DUP4 PUSH2 0x3448 JUMP JUMPDEST PUSH1 0x0 PUSH2 0x3416 DUP11 DUP5 DUP7 PUSH2 0x37DB JUMP JUMPDEST SWAP1 POP DUP11 DUP2 GT ISZERO PUSH2 0x3422 JUMPI INVALID JUMPDEST DUP9 DUP2 LT ISZERO PUSH2 0x3442 JUMPI PUSH1 0x40 MLOAD PUSH3 0x461BCD PUSH1 0xE5 SHL DUP2 MSTORE PUSH1 0x4 ADD PUSH2 0x685 SWAP1 PUSH2 0x4CE8 JUMP JUMPDEST SWAP6 POP DUP9 SWAP5 POP JUMPDEST POP JUMPDEST POP POP POP SWAP6 POP SWAP6 SWAP4 POP POP POP POP JUMP JUMPDEST PUSH1 0x0 DUP1 DUP3 PUSH1 0x1 PUSH1 0x1 PUSH1 0xA0 SHL SUB AND DUP5 PUSH1 0x1 PUSH1 0x1 PUSH1 0xA0 SHL SUB AND EQ ISZERO PUSH2 0x348C JUMPI PUSH1 0x40 MLOAD PUSH3 0x461BCD PUSH1 0xE5 SHL DUP2 MSTORE PUSH1 0x4 ADD PUSH2 0x685 SWAP1 PUSH2 0x49BC JUMP JUMPDEST DUP3 PUSH1 0x1 PUSH1 0x1 PUSH1 0xA0 SHL SUB AND DUP5 PUSH1 0x1 PUSH1 0x1 PUSH1 0xA0 SHL SUB AND LT PUSH2 0x34AC JUMPI DUP3 DUP5 PUSH2 0x34AF JUMP JUMPDEST DUP4 DUP4 JUMPDEST SWAP1 SWAP3 POP SWAP1 POP PUSH1 0x1 PUSH1 0x1 PUSH1 0xA0 SHL SUB DUP3 AND PUSH2 0x34DA JUMPI PUSH1 0x40 MLOAD PUSH3 0x461BCD PUSH1 0xE5 SHL DUP2 MSTORE PUSH1 0x4 ADD PUSH2 0x685 SWAP1 PUSH2 0x4855 JUMP JUMPDEST SWAP3 POP SWAP3 SWAP1 POP JUMP JUMPDEST PUSH1 0x60 PUSH1 0x1 DUP4 MLOAD LT ISZERO PUSH2 0x3505 JUMPI PUSH1 0x40 MLOAD PUSH3 0x461BCD PUSH1 0xE5 SHL DUP2 MSTORE PUSH1 0x4 ADD PUSH2 0x685 SWAP1 PUSH2 0x4BEB JUMP JUMPDEST DUP3 MLOAD PUSH1 0x1 ADD PUSH1 0x1 PUSH1 0x1 PUSH1 0x40 SHL SUB DUP2 GT DUP1 ISZERO PUSH2 0x351F JUMPI PUSH1 0x0 DUP1 REVERT JUMPDEST POP PUSH1 0x40 MLOAD SWAP1 DUP1 DUP3 MSTORE DUP1 PUSH1 0x20 MUL PUSH1 0x20 ADD DUP3 ADD PUSH1 0x40 MSTORE DUP1 ISZERO PUSH2 0x3549 JUMPI DUP2 PUSH1 0x20 ADD PUSH1 0x20 DUP3 MUL DUP1 CALLDATASIZE DUP4 CALLDATACOPY ADD SWAP1 POP JUMPDEST POP SWAP1 POP DUP4 DUP2 PUSH1 0x0 DUP2 MLOAD DUP2 LT PUSH2 0x355A JUMPI INVALID JUMPDEST PUSH1 0x20 MUL PUSH1 0x20 ADD ADD DUP2 DUP2 MSTORE POP POP PUSH1 0x0 JUMPDEST DUP4 MLOAD DUP2 LT ISZERO PUSH2 0x361B JUMPI PUSH1 0x0 DUP1 PUSH2 0x3592 DUP9 DUP8 DUP6 DUP2 MLOAD DUP2 LT PUSH2 0x3585 JUMPI INVALID JUMPDEST PUSH1 0x20 MUL PUSH1 0x20 ADD ADD MLOAD PUSH2 0x3B36 JUMP JUMPDEST SWAP2 POP SWAP2 POP PUSH2 0x35F7 DUP5 DUP5 DUP2 MLOAD DUP2 LT PUSH2 0x35A5 JUMPI INVALID JUMPDEST PUSH1 0x20 MUL PUSH1 0x20 ADD ADD MLOAD DUP4 DUP4 DUP10 DUP8 DUP2 MLOAD DUP2 LT PUSH2 0x35BB JUMPI INVALID JUMPDEST PUSH1 0x20 MUL PUSH1 0x20 ADD ADD MLOAD PUSH1 0x40 ADD MLOAD DUP10 DUP9 DUP2 MLOAD DUP2 LT PUSH2 0x35D3 JUMPI INVALID JUMPDEST PUSH1 0x20 MUL PUSH1 0x20 ADD ADD MLOAD DUP11 DUP10 PUSH1 0x1 ADD DUP2 MLOAD DUP2 LT PUSH2 0x35EA JUMPI INVALID JUMPDEST PUSH1 0x20 MUL PUSH1 0x20 ADD ADD MLOAD PUSH2 0x3987 JUMP JUMPDEST DUP5 DUP5 PUSH1 0x1 ADD DUP2 MLOAD DUP2 LT PUSH2 0x3606 JUMPI INVALID JUMPDEST PUSH1 0x20 SWAP1 DUP2 MUL SWAP2 SWAP1 SWAP2 ADD ADD MSTORE POP POP PUSH1 0x1 ADD PUSH2 0x3569 JUMP JUMPDEST POP SWAP5 SWAP4 POP POP POP POP JUMP JUMPDEST PUSH1 0x0 DUP1 DUP8 GT PUSH2 0x3645 JUMPI PUSH1 0x40 MLOAD PUSH3 0x461BCD PUSH1 0xE5 SHL DUP2 MSTORE PUSH1 0x4 ADD PUSH2 0x685 SWAP1 PUSH2 0x4A8D JUMP JUMPDEST PUSH1 0x0 DUP7 GT DUP1 ISZERO PUSH2 0x3655 JUMPI POP PUSH1 0x0 DUP6 GT JUMPDEST PUSH2 0x3671 JUMPI PUSH1 0x40 MLOAD PUSH3 0x461BCD PUSH1 0xE5 SHL DUP2 MSTORE PUSH1 0x4 ADD PUSH2 0x685 SWAP1 PUSH2 0x4B7D JUMP JUMPDEST DUP4 ISZERO PUSH2 0x3773 JUMPI PUSH2 0x368B DUP4 PUSH1 0xA DUP2 SWAP1 EXP PUSH4 0xFFFFFFFF PUSH2 0x3C90 AND JUMP JUMPDEST SWAP3 POP PUSH2 0x36A1 DUP3 PUSH1 0xA DUP2 SWAP1 EXP PUSH4 0xFFFFFFFF PUSH2 0x3C90 AND JUMP JUMPDEST SWAP2 POP PUSH2 0x36B5 DUP8 PUSH2 0x2710 PUSH4 0xFFFFFFFF PUSH2 0x3CC7 AND JUMP JUMPDEST DUP8 SUB SWAP7 POP PUSH1 0x0 PUSH2 0x36C7 DUP8 DUP8 DUP7 DUP7 PUSH2 0x3CF7 JUMP JUMPDEST SWAP1 POP PUSH2 0x36F1 DUP5 PUSH2 0x36E5 DUP10 PUSH8 0xDE0B6B3A7640000 PUSH4 0xFFFFFFFF PUSH2 0x3C90 AND JUMP JUMPDEST SWAP1 PUSH4 0xFFFFFFFF PUSH2 0x3CC7 AND JUMP JUMPDEST SWAP7 POP PUSH2 0x370F DUP4 PUSH2 0x36E5 DUP9 PUSH8 0xDE0B6B3A7640000 PUSH4 0xFFFFFFFF PUSH2 0x3C90 AND JUMP JUMPDEST SWAP6 POP PUSH2 0x372D DUP4 PUSH2 0x36E5 DUP11 PUSH8 0xDE0B6B3A7640000 PUSH4 0xFFFFFFFF PUSH2 0x3C90 AND JUMP JUMPDEST SWAP8 POP PUSH2 0x374D DUP8 PUSH2 0x1116 PUSH2 0x3746 DUP10 DUP13 PUSH4 0xFFFFFFFF PUSH2 0x3238 AND JUMP JUMPDEST DUP5 DUP12 PUSH2 0x3DB3 JUMP JUMPDEST SWAP2 POP PUSH2 0x376B PUSH8 0xDE0B6B3A7640000 PUSH2 0x36E5 DUP5 DUP8 PUSH4 0xFFFFFFFF PUSH2 0x3C90 AND JUMP JUMPDEST SWAP2 POP POP PUSH2 0x1CA0 JUMP JUMPDEST PUSH1 0x0 PUSH2 0x3797 PUSH2 0x3E8 PUSH2 0x378B DUP10 DUP12 PUSH4 0xFFFFFFFF PUSH2 0x3C90 AND JUMP JUMPDEST SWAP1 PUSH4 0xFFFFFFFF PUSH2 0x3C90 AND JUMP JUMPDEST SWAP1 POP PUSH1 0x0 PUSH2 0x37B1 PUSH2 0x3E5 PUSH2 0x378B DUP10 DUP13 PUSH4 0xFFFFFFFF PUSH2 0x3238 AND JUMP JUMPDEST SWAP1 POP PUSH2 0x37CE PUSH1 0x1 DUP3 DUP5 DUP2 PUSH2 0x37C1 JUMPI INVALID JUMPDEST DIV SWAP1 PUSH4 0xFFFFFFFF PUSH2 0x3EC1 AND JUMP JUMPDEST SWAP10 SWAP9 POP POP POP POP POP POP POP POP POP JUMP JUMPDEST PUSH1 0x0 DUP1 DUP5 GT PUSH2 0x37FC JUMPI PUSH1 0x40 MLOAD PUSH3 0x461BCD PUSH1 0xE5 SHL DUP2 MSTORE PUSH1 0x4 ADD PUSH2 0x685 SWAP1 PUSH2 0x4B49 JUMP JUMPDEST PUSH1 0x0 DUP4 GT DUP1 ISZERO PUSH2 0x380C JUMPI POP PUSH1 0x0 DUP3 GT JUMPDEST PUSH2 0x3828 JUMPI PUSH1 0x40 MLOAD PUSH3 0x461BCD PUSH1 0xE5 SHL DUP2 MSTORE PUSH1 0x4 ADD PUSH2 0x685 SWAP1 PUSH2 0x4B7D JUMP JUMPDEST DUP3 PUSH2 0x3839 DUP6 DUP5 PUSH4 0xFFFFFFFF PUSH2 0x3C90 AND JUMP JUMPDEST DUP2 PUSH2 0x3840 JUMPI INVALID JUMPDEST DIV SWAP5 SWAP4 POP POP POP POP JUMP JUMPDEST PUSH1 0x60 PUSH1 0x1 DUP4 MLOAD LT ISZERO PUSH2 0x386D JUMPI PUSH1 0x40 MLOAD PUSH3 0x461BCD PUSH1 0xE5 SHL DUP2 MSTORE PUSH1 0x4 ADD PUSH2 0x685 SWAP1 PUSH2 0x4BEB JUMP JUMPDEST DUP3 MLOAD PUSH1 0x1 ADD PUSH1 0x1 PUSH1 0x1 PUSH1 0x40 SHL SUB DUP2 GT DUP1 ISZERO PUSH2 0x3887 JUMPI PUSH1 0x0 DUP1 REVERT JUMPDEST POP PUSH1 0x40 MLOAD SWAP1 DUP1 DUP3 MSTORE DUP1 PUSH1 0x20 MUL PUSH1 0x20 ADD DUP3 ADD PUSH1 0x40 MSTORE DUP1 ISZERO PUSH2 0x38B1 JUMPI DUP2 PUSH1 0x20 ADD PUSH1 0x20 DUP3 MUL DUP1 CALLDATASIZE DUP4 CALLDATACOPY ADD SWAP1 POP JUMPDEST POP SWAP1 POP DUP4 DUP2 PUSH1 0x1 DUP4 MLOAD SUB DUP2 MLOAD DUP2 LT PUSH2 0x38C5 JUMPI INVALID JUMPDEST PUSH1 0x20 SWAP1 DUP2 MUL SWAP2 SWAP1 SWAP2 ADD ADD MSTORE DUP3 MLOAD PUSH1 0x0 NOT DUP2 ADD JUMPDEST DUP2 DUP2 LT ISZERO PUSH2 0x397D JUMPI PUSH1 0x0 DUP1 PUSH2 0x38F3 DUP10 DUP9 DUP6 DUP2 MLOAD DUP2 LT PUSH2 0x3585 JUMPI INVALID JUMPDEST SWAP2 POP SWAP2 POP PUSH2 0x395B DUP6 DUP5 PUSH1 0x1 ADD DUP2 MLOAD DUP2 LT PUSH2 0x3909 JUMPI INVALID JUMPDEST PUSH1 0x20 MUL PUSH1 0x20 ADD ADD MLOAD DUP4 DUP4 DUP11 DUP8 DUP2 MLOAD DUP2 LT PUSH2 0x391F JUMPI INVALID JUMPDEST PUSH1 0x20 MUL PUSH1 0x20 ADD ADD MLOAD PUSH1 0x40 ADD MLOAD DUP11 DUP9 DUP2 MLOAD DUP2 LT PUSH2 0x3937 JUMPI INVALID JUMPDEST PUSH1 0x20 MUL PUSH1 0x20 ADD ADD MLOAD DUP12 DUP10 PUSH1 0x1 ADD DUP2 MLOAD DUP2 LT PUSH2 0x394E JUMPI INVALID JUMPDEST PUSH1 0x20 MUL PUSH1 0x20 ADD ADD MLOAD PUSH2 0x3624 JUMP JUMPDEST DUP6 DUP5 DUP2 MLOAD DUP2 LT PUSH2 0x3967 JUMPI INVALID JUMPDEST PUSH1 0x20 SWAP1 DUP2 MUL SWAP2 SWAP1 SWAP2 ADD ADD MSTORE POP POP PUSH1 0x0 NOT ADD PUSH2 0x38D8 JUMP JUMPDEST POP POP SWAP5 SWAP4 POP POP POP POP JUMP JUMPDEST PUSH1 0x0 DUP1 DUP8 GT PUSH2 0x39A8 JUMPI PUSH1 0x40 MLOAD PUSH3 0x461BCD PUSH1 0xE5 SHL DUP2 MSTORE PUSH1 0x4 ADD PUSH2 0x685 SWAP1 PUSH2 0x4B0F JUMP JUMPDEST PUSH1 0x0 DUP7 GT DUP1 ISZERO PUSH2 0x39B8 JUMPI POP PUSH1 0x0 DUP6 GT JUMPDEST PUSH2 0x39D4 JUMPI PUSH1 0x40 MLOAD PUSH3 0x461BCD PUSH1 0xE5 SHL DUP2 MSTORE PUSH1 0x4 ADD PUSH2 0x685 SWAP1 PUSH2 0x4B7D JUMP JUMPDEST DUP4 ISZERO PUSH2 0x3ACE JUMPI PUSH2 0x39EC DUP8 PUSH2 0x2710 PUSH4 0xFFFFFFFF PUSH2 0x3CC7 AND JUMP JUMPDEST SWAP1 SWAP7 SUB SWAP6 PUSH2 0x3A04 DUP4 PUSH1 0xA DUP2 SWAP1 EXP PUSH4 0xFFFFFFFF PUSH2 0x3C90 AND JUMP JUMPDEST SWAP3 POP PUSH2 0x3A1A DUP3 PUSH1 0xA DUP2 SWAP1 EXP PUSH4 0xFFFFFFFF PUSH2 0x3C90 AND JUMP JUMPDEST SWAP2 POP PUSH1 0x0 PUSH2 0x3A2A DUP8 DUP8 DUP7 DUP7 PUSH2 0x3CF7 JUMP JUMPDEST SWAP1 POP PUSH2 0x3A48 DUP5 PUSH2 0x36E5 DUP10 PUSH8 0xDE0B6B3A7640000 PUSH4 0xFFFFFFFF PUSH2 0x3C90 AND JUMP JUMPDEST SWAP7 POP PUSH2 0x3A66 DUP4 PUSH2 0x36E5 DUP9 PUSH8 0xDE0B6B3A7640000 PUSH4 0xFFFFFFFF PUSH2 0x3C90 AND JUMP JUMPDEST SWAP6 POP PUSH2 0x3A84 DUP5 PUSH2 0x36E5 DUP11 PUSH8 0xDE0B6B3A7640000 PUSH4 0xFFFFFFFF PUSH2 0x3C90 AND JUMP JUMPDEST SWAP8 POP PUSH2 0x3AB0 PUSH2 0x3AA3 PUSH2 0x3A9C DUP11 DUP11 PUSH4 0xFFFFFFFF PUSH2 0x3EC1 AND JUMP JUMPDEST DUP4 DUP10 PUSH2 0x3DB3 JUMP JUMPDEST DUP8 SWAP1 PUSH4 0xFFFFFFFF PUSH2 0x3238 AND JUMP JUMPDEST SWAP2 POP PUSH2 0x376B PUSH8 0xDE0B6B3A7640000 PUSH2 0x36E5 DUP5 DUP7 PUSH4 0xFFFFFFFF PUSH2 0x3C90 AND JUMP JUMPDEST PUSH1 0x0 PUSH2 0x3AE2 DUP9 PUSH2 0x3E5 PUSH4 0xFFFFFFFF PUSH2 0x3C90 AND JUMP JUMPDEST SWAP1 POP PUSH1 0x0 PUSH2 0x3AF6 DUP3 DUP9 PUSH4 0xFFFFFFFF PUSH2 0x3C90 AND JUMP JUMPDEST SWAP1 POP PUSH1 0x0 PUSH2 0x3B1C DUP4 PUSH2 0x3B10 DUP12 PUSH2 0x3E8 PUSH4 0xFFFFFFFF PUSH2 0x3C90 AND JUMP JUMPDEST SWAP1 PUSH4 0xFFFFFFFF PUSH2 0x3EC1 AND JUMP JUMPDEST SWAP1 POP DUP1 DUP3 DUP2 PUSH2 0x3B27 JUMPI INVALID JUMPDEST DIV SWAP11 SWAP10 POP POP POP POP POP POP POP POP POP POP JUMP JUMPDEST PUSH1 0x0 DUP1 PUSH1 0x0 PUSH2 0x3B4D DUP5 PUSH1 0x0 ADD MLOAD DUP6 PUSH1 0x20 ADD MLOAD PUSH2 0x3457 JUMP JUMPDEST POP SWAP1 POP PUSH1 0x0 DUP6 PUSH1 0x1 PUSH1 0x1 PUSH1 0xA0 SHL SUB AND PUSH4 0xA35A337A PUSH1 0x40 MLOAD DUP2 PUSH4 0xFFFFFFFF AND PUSH1 0xE0 SHL DUP2 MSTORE PUSH1 0x4 ADD PUSH1 0x20 PUSH1 0x40 MLOAD DUP1 DUP4 SUB DUP2 DUP7 DUP1 EXTCODESIZE ISZERO DUP1 ISZERO PUSH2 0x3B8B JUMPI PUSH1 0x0 DUP1 REVERT JUMPDEST POP GAS STATICCALL ISZERO DUP1 ISZERO PUSH2 0x3B9F JUMPI RETURNDATASIZE PUSH1 0x0 DUP1 RETURNDATACOPY RETURNDATASIZE PUSH1 0x0 REVERT JUMPDEST POP POP POP POP PUSH1 0x40 MLOAD RETURNDATASIZE PUSH1 0x1F NOT PUSH1 0x1F DUP3 ADD AND DUP3 ADD DUP1 PUSH1 0x40 MSTORE POP DUP2 ADD SWAP1 PUSH2 0x3BC3 SWAP2 SWAP1 PUSH2 0x409F JUMP JUMPDEST SWAP1 POP PUSH1 0x0 DUP1 PUSH2 0x3BD3 DUP4 DUP10 DUP10 PUSH2 0x29B7 JUMP JUMPDEST PUSH1 0x1 PUSH1 0x1 PUSH1 0xA0 SHL SUB AND PUSH4 0x902F1AC PUSH1 0x40 MLOAD DUP2 PUSH4 0xFFFFFFFF AND PUSH1 0xE0 SHL DUP2 MSTORE PUSH1 0x4 ADD PUSH1 0x60 PUSH1 0x40 MLOAD DUP1 DUP4 SUB DUP2 DUP7 DUP1 EXTCODESIZE ISZERO DUP1 ISZERO PUSH2 0x3C0B JUMPI PUSH1 0x0 DUP1 REVERT JUMPDEST POP GAS STATICCALL ISZERO DUP1 ISZERO PUSH2 0x3C1F JUMPI RETURNDATASIZE PUSH1 0x0 DUP1 RETURNDATACOPY RETURNDATASIZE PUSH1 0x0 REVERT JUMPDEST POP POP POP POP PUSH1 0x40 MLOAD RETURNDATASIZE PUSH1 0x1F NOT PUSH1 0x1F DUP3 ADD AND DUP3 ADD DUP1 PUSH1 0x40 MSTORE POP DUP2 ADD SWAP1 PUSH2 0x3C43 SWAP2 SWAP1 PUSH2 0x42BF JUMP JUMPDEST POP PUSH1 0x1 PUSH1 0x1 PUSH1 0x70 SHL SUB AND SWAP2 POP PUSH1 0x1 PUSH1 0x1 PUSH1 0x70 SHL SUB AND SWAP2 POP DUP4 PUSH1 0x1 PUSH1 0x1 PUSH1 0xA0 SHL SUB AND DUP8 PUSH1 0x0 ADD MLOAD PUSH1 0x1 PUSH1 0x1 PUSH1 0xA0 SHL SUB AND EQ PUSH2 0x3C7E JUMPI DUP1 DUP3 PUSH2 0x3C81 JUMP JUMPDEST DUP2 DUP2 JUMPDEST SWAP1 SWAP10 SWAP1 SWAP9 POP SWAP7 POP POP POP POP POP POP POP JUMP JUMPDEST PUSH1 0x0 DUP2 ISZERO DUP1 PUSH2 0x3CAB JUMPI POP POP DUP1 DUP3 MUL DUP3 DUP3 DUP3 DUP2 PUSH2 0x3CA8 JUMPI INVALID JUMPDEST DIV EQ JUMPDEST PUSH2 0x1C87 JUMPI PUSH1 0x40 MLOAD PUSH3 0x461BCD PUSH1 0xE5 SHL DUP2 MSTORE PUSH1 0x4 ADD PUSH2 0x685 SWAP1 PUSH2 0x48BB JUMP JUMPDEST PUSH1 0x0 DUP2 PUSH2 0x3CE6 JUMPI PUSH1 0x40 MLOAD PUSH3 0x461BCD PUSH1 0xE5 SHL DUP2 MSTORE PUSH1 0x4 ADD PUSH2 0x685 SWAP1 PUSH2 0x4CBB JUMP JUMPDEST DUP2 DUP4 DUP2 PUSH2 0x3CEF JUMPI INVALID JUMPDEST DIV SWAP4 SWAP3 POP POP POP JUMP JUMPDEST PUSH1 0x0 DUP1 PUSH2 0x3D16 DUP5 PUSH2 0x36E5 DUP9 PUSH8 0xDE0B6B3A7640000 PUSH4 0xFFFFFFFF PUSH2 0x3C90 AND JUMP JUMPDEST SWAP1 POP PUSH1 0x0 PUSH2 0x3D36 DUP5 PUSH2 0x36E5 DUP9 PUSH8 0xDE0B6B3A7640000 PUSH4 0xFFFFFFFF PUSH2 0x3C90 AND JUMP JUMPDEST SWAP1 POP PUSH1 0x0 PUSH2 0x3D56 PUSH8 0xDE0B6B3A7640000 PUSH2 0x36E5 DUP6 DUP6 PUSH4 0xFFFFFFFF PUSH2 0x3C90 AND JUMP JUMPDEST SWAP1 POP PUSH1 0x0 PUSH2 0x3D95 PUSH2 0x3D79 PUSH8 0xDE0B6B3A7640000 PUSH2 0x36E5 DUP7 DUP1 PUSH4 0xFFFFFFFF PUSH2 0x3C90 AND JUMP JUMPDEST PUSH2 0x3B10 PUSH8 0xDE0B6B3A7640000 PUSH2 0x36E5 DUP9 DUP1 PUSH4 0xFFFFFFFF PUSH2 0x3C90 AND JUMP JUMPDEST SWAP1 POP PUSH2 0x37CE PUSH8 0xDE0B6B3A7640000 PUSH2 0x36E5 DUP5 DUP5 PUSH4 0xFFFFFFFF PUSH2 0x3C90 AND JUMP JUMPDEST PUSH1 0x0 DUP1 JUMPDEST PUSH1 0xFF DUP2 LT ISZERO PUSH2 0x3EB8 JUMPI DUP3 PUSH1 0x0 PUSH2 0x3DCD DUP8 DUP4 PUSH2 0x3EE4 JUMP JUMPDEST SWAP1 POP DUP6 DUP2 LT ISZERO PUSH2 0x3E1C JUMPI PUSH1 0x0 PUSH2 0x3E02 PUSH2 0x3DE6 DUP10 DUP9 PUSH2 0x3F43 JUMP JUMPDEST PUSH2 0x36E5 PUSH8 0xDE0B6B3A7640000 PUSH2 0x378B DUP12 DUP8 PUSH4 0xFFFFFFFF PUSH2 0x3238 AND JUMP JUMPDEST SWAP1 POP PUSH2 0x3E14 DUP7 DUP3 PUSH4 0xFFFFFFFF PUSH2 0x3EC1 AND JUMP JUMPDEST SWAP6 POP POP PUSH2 0x3E5D JUMP JUMPDEST PUSH1 0x0 PUSH2 0x3E47 PUSH2 0x3E2B DUP10 DUP9 PUSH2 0x3F43 JUMP JUMPDEST PUSH2 0x36E5 PUSH8 0xDE0B6B3A7640000 PUSH2 0x378B DUP7 DUP13 PUSH4 0xFFFFFFFF PUSH2 0x3238 AND JUMP JUMPDEST SWAP1 POP PUSH2 0x3E59 DUP7 DUP3 PUSH4 0xFFFFFFFF PUSH2 0x3238 AND JUMP JUMPDEST SWAP6 POP POP JUMPDEST DUP2 DUP6 GT ISZERO PUSH2 0x3E8C JUMPI PUSH1 0x1 PUSH2 0x3E77 DUP7 DUP5 PUSH4 0xFFFFFFFF PUSH2 0x3238 AND JUMP JUMPDEST GT PUSH2 0x3E87 JUMPI DUP5 SWAP4 POP POP POP POP PUSH2 0x1CC9 JUMP JUMPDEST PUSH2 0x3EAE JUMP JUMPDEST PUSH1 0x1 PUSH2 0x3E9E DUP4 DUP8 PUSH4 0xFFFFFFFF PUSH2 0x3238 AND JUMP JUMPDEST GT PUSH2 0x3EAE JUMPI DUP5 SWAP4 POP POP POP POP PUSH2 0x1CC9 JUMP JUMPDEST POP POP PUSH1 0x1 ADD PUSH2 0x3DB7 JUMP JUMPDEST POP SWAP1 SWAP4 SWAP3 POP POP POP JUMP JUMPDEST DUP1 DUP3 ADD DUP3 DUP2 LT ISZERO PUSH2 0x1C87 JUMPI PUSH1 0x40 MLOAD PUSH3 0x461BCD PUSH1 0xE5 SHL DUP2 MSTORE PUSH1 0x4 ADD PUSH2 0x685 SWAP1 PUSH2 0x48E9 JUMP JUMPDEST PUSH1 0x0 PUSH2 0x1CC9 PUSH2 0x3F0F PUSH8 0xDE0B6B3A7640000 PUSH2 0x36E5 DUP6 PUSH2 0x378B DUP4 DUP4 DUP11 DUP4 DUP4 DUP4 DUP4 DUP1 PUSH4 0xFFFFFFFF PUSH2 0x3C90 AND JUMP JUMPDEST PUSH2 0x3B10 PUSH8 0xDE0B6B3A7640000 PUSH2 0x36E5 PUSH2 0x3F36 DUP3 DUP3 DUP10 PUSH2 0x378B DUP4 DUP4 DUP4 DUP1 PUSH4 0xFFFFFFFF PUSH2 0x3C90 AND JUMP JUMPDEST DUP9 SWAP1 PUSH4 0xFFFFFFFF PUSH2 0x3C90 AND JUMP JUMPDEST PUSH1 0x0 PUSH2 0x1CC9 PUSH2 0x3F6A PUSH8 0xDE0B6B3A7640000 PUSH2 0x36E5 DUP7 PUSH2 0x378B DUP4 DUP4 DUP4 DUP1 PUSH4 0xFFFFFFFF PUSH2 0x3C90 AND JUMP JUMPDEST PUSH2 0x3B10 PUSH8 0xDE0B6B3A7640000 PUSH2 0x36E5 PUSH2 0x3F8B DUP3 DUP3 DUP10 DUP1 PUSH4 0xFFFFFFFF PUSH2 0x3C90 AND JUMP JUMPDEST PUSH2 0x378B PUSH1 0x3 DUP11 PUSH4 0xFFFFFFFF PUSH2 0x3C90 AND JUMP JUMPDEST PUSH1 0x0 DUP1 DUP4 PUSH1 0x1F DUP5 ADD SLT PUSH2 0x3FAD JUMPI DUP2 DUP3 REVERT JUMPDEST POP DUP2 CALLDATALOAD PUSH1 0x1 PUSH1 0x1 PUSH1 0x40 SHL SUB DUP2 GT ISZERO PUSH2 0x3FC3 JUMPI DUP2 DUP3 REVERT JUMPDEST PUSH1 0x20 DUP4 ADD SWAP2 POP DUP4 PUSH1 0x20 PUSH1 0x60 DUP4 MUL DUP6 ADD ADD GT ISZERO PUSH2 0x34DA JUMPI PUSH1 0x0 DUP1 REVERT JUMPDEST PUSH1 0x0 PUSH1 0x60 DUP3 DUP5 SUB SLT ISZERO PUSH2 0x3FEF JUMPI DUP1 DUP2 REVERT JUMPDEST POP SWAP2 SWAP1 POP JUMP JUMPDEST PUSH1 0x0 PUSH1 0x60 DUP3 DUP5 SUB SLT ISZERO PUSH2 0x4006 JUMPI DUP1 DUP2 REVERT JUMPDEST PUSH2 0x4010 PUSH1 0x60 PUSH2 0x4E45 JUMP JUMPDEST SWAP1 POP DUP2 CALLDATALOAD PUSH2 0x401D DUP2 PUSH2 0x4E97 JUMP JUMPDEST DUP2 MSTORE PUSH1 0x20 DUP3 ADD CALLDATALOAD PUSH2 0x402D DUP2 PUSH2 0x4E97 JUMP JUMPDEST PUSH1 0x20 DUP3 ADD MSTORE PUSH1 0x40 DUP3 ADD CALLDATALOAD PUSH2 0x4040 DUP2 PUSH2 0x4EAF JUMP JUMPDEST PUSH1 0x40 DUP3 ADD MSTORE SWAP3 SWAP2 POP POP JUMP JUMPDEST PUSH1 0x0 PUSH1 0x20 DUP3 DUP5 SUB SLT ISZERO PUSH2 0x405C JUMPI DUP1 DUP2 REVERT JUMPDEST DUP2 CALLDATALOAD PUSH2 0x1CC9 DUP2 PUSH2 0x4E97 JUMP JUMPDEST PUSH1 0x0 PUSH1 0x20 DUP3 DUP5 SUB SLT ISZERO PUSH2 0x4078 JUMPI DUP1 DUP2 REVERT JUMPDEST DUP2 MLOAD PUSH2 0x1CC9 DUP2 PUSH2 0x4E97 JUMP JUMPDEST PUSH1 0x0 PUSH1 0x20 DUP3 DUP5 SUB SLT ISZERO PUSH2 0x4094 JUMPI DUP1 DUP2 REVERT JUMPDEST DUP2 MLOAD PUSH2 0x1CC9 DUP2 PUSH2 0x4EAF JUMP JUMPDEST PUSH1 0x0 PUSH1 0x20 DUP3 DUP5 SUB SLT ISZERO PUSH2 0x40B0 JUMPI DUP1 DUP2 REVERT JUMPDEST POP MLOAD SWAP2 SWAP1 POP JUMP JUMPDEST PUSH1 0x0 PUSH1 0x20 DUP3 DUP5 SUB SLT ISZERO PUSH2 0x40C8 JUMPI DUP1 DUP2 REVERT JUMPDEST DUP2 MLOAD PUSH1 0x1 PUSH1 0x1 PUSH1 0x40 SHL SUB DUP1 DUP3 GT ISZERO PUSH2 0x40DE JUMPI DUP3 DUP4 REVERT JUMPDEST DUP2 DUP5 ADD DUP6 PUSH1 0x1F DUP3 ADD SLT PUSH2 0x40EF JUMPI DUP4 DUP5 REVERT JUMPDEST DUP1 MLOAD SWAP3 POP DUP2 DUP4 GT ISZERO PUSH2 0x40FF JUMPI DUP4 DUP5 REVERT JUMPDEST PUSH2 0x4112 PUSH1 0x1F DUP5 ADD PUSH1 0x1F NOT AND PUSH1 0x20 ADD PUSH2 0x4E45 JUMP JUMPDEST SWAP2 POP DUP3 DUP3 MSTORE DUP6 PUSH1 0x20 DUP5 DUP4 ADD ADD GT ISZERO PUSH2 0x4128 JUMPI DUP4 DUP5 REVERT JUMPDEST PUSH2 0x361B DUP4 PUSH1 0x20 DUP5 ADD PUSH1 0x20 DUP5 ADD PUSH2 0x4E6B JUMP JUMPDEST PUSH1 0x0 DUP1 PUSH1 0x0 DUP1 PUSH1 0x0 DUP1 PUSH2 0x100 DUP8 DUP10 SUB SLT ISZERO PUSH2 0x4152 JUMPI DUP2 DUP3 REVERT JUMPDEST PUSH2 0x415C DUP9 DUP9 PUSH2 0x3FDE JUMP JUMPDEST SWAP6 POP PUSH1 0x60 DUP8 ADD CALLDATALOAD SWAP5 POP PUSH1 0x80 DUP8 ADD CALLDATALOAD SWAP4 POP PUSH1 0xA0 DUP8 ADD CALLDATALOAD SWAP3 POP PUSH1 0xC0 DUP8 ADD CALLDATALOAD PUSH2 0x4181 DUP2 PUSH2 0x4E97 JUMP JUMPDEST DUP1 SWAP3 POP POP PUSH1 0xE0 DUP8 ADD CALLDATALOAD SWAP1 POP SWAP3 SWAP6 POP SWAP3 SWAP6 POP SWAP3 SWAP6 JUMP JUMPDEST PUSH1 0x0 DUP1 PUSH1 0x0 DUP1 PUSH1 0x0 DUP1 PUSH1 0x0 DUP1 PUSH2 0x180 DUP10 DUP12 SUB SLT ISZERO PUSH2 0x41B2 JUMPI DUP2 DUP3 REVERT JUMPDEST PUSH2 0x41BC DUP11 DUP11 PUSH2 0x3FDE JUMP JUMPDEST SWAP8 POP PUSH1 0x60 DUP10 ADD CALLDATALOAD SWAP7 POP PUSH1 0x80 DUP10 ADD CALLDATALOAD SWAP6 POP PUSH1 0xA0 DUP10 ADD CALLDATALOAD SWAP5 POP PUSH1 0xC0 DUP10 ADD CALLDATALOAD PUSH2 0x41E1 DUP2 PUSH2 0x4E97 JUMP JUMPDEST SWAP4 POP PUSH1 0xE0 DUP10 ADD CALLDATALOAD SWAP3 POP PUSH2 0x100 DUP10 ADD CALLDATALOAD PUSH2 0x41F9 DUP2 PUSH2 0x4EAF JUMP JUMPDEST SWAP2 POP PUSH2 0x4209 DUP11 PUSH2 0x120 DUP12 ADD PUSH2 0x3FDE JUMP JUMPDEST SWAP1 POP SWAP3 SWAP6 SWAP9 POP SWAP3 SWAP6 SWAP9 SWAP1 SWAP4 SWAP7 POP JUMP JUMPDEST PUSH1 0x0 DUP1 PUSH1 0x0 DUP1 PUSH1 0x0 DUP1 PUSH1 0x0 PUSH2 0x120 DUP9 DUP11 SUB SLT ISZERO PUSH2 0x4233 JUMPI DUP1 DUP2 REVERT JUMPDEST PUSH2 0x423D DUP10 DUP10 PUSH2 0x3FDE JUMP JUMPDEST SWAP7 POP PUSH1 0x60 DUP9 ADD CALLDATALOAD SWAP6 POP PUSH1 0x80 DUP9 ADD CALLDATALOAD SWAP5 POP PUSH1 0xA0 DUP9 ADD CALLDATALOAD SWAP4 POP PUSH1 0xC0 DUP9 ADD CALLDATALOAD SWAP3 POP PUSH1 0xE0 DUP9 ADD CALLDATALOAD PUSH2 0x4269 DUP2 PUSH2 0x4E97 JUMP JUMPDEST DUP1 SWAP3 POP POP PUSH2 0x100 DUP9 ADD CALLDATALOAD SWAP1 POP SWAP3 SWAP6 SWAP9 SWAP2 SWAP5 SWAP8 POP SWAP3 SWAP6 POP JUMP JUMPDEST PUSH1 0x0 PUSH1 0x60 DUP3 DUP5 SUB SLT ISZERO PUSH2 0x4292 JUMPI DUP1 DUP2 REVERT JUMPDEST PUSH2 0x1CC9 DUP4 DUP4 PUSH2 0x3FF5 JUMP JUMPDEST PUSH1 0x0 DUP1 PUSH1 0x0 DUP1 PUSH1 0x0 DUP1 PUSH2 0x100 DUP8 DUP10 SUB SLT ISZERO PUSH2 0x42B5 JUMPI DUP4 DUP5 REVERT JUMPDEST PUSH2 0x415C DUP9 DUP9 PUSH2 0x3FF5 JUMP JUMPDEST PUSH1 0x0 DUP1 PUSH1 0x0 PUSH1 0x60 DUP5 DUP7 SUB SLT ISZERO PUSH2 0x42D3 JUMPI DUP1 DUP2 REVERT JUMPDEST DUP4 MLOAD PUSH2 0x42DE DUP2 PUSH2 0x4EBD JUMP JUMPDEST PUSH1 0x20 DUP6 ADD MLOAD SWAP1 SWAP4 POP PUSH2 0x42EF DUP2 PUSH2 0x4EBD JUMP JUMPDEST PUSH1 0x40 DUP6 ADD MLOAD SWAP1 SWAP3 POP PUSH4 0xFFFFFFFF DUP2 AND DUP2 EQ PUSH2 0x4308 JUMPI DUP2 DUP3 REVERT JUMPDEST DUP1 SWAP2 POP POP SWAP3 POP SWAP3 POP SWAP3 JUMP JUMPDEST PUSH1 0x0 DUP1 PUSH1 0x0 PUSH1 0x40 DUP5 DUP7 SUB SLT ISZERO PUSH2 0x4327 JUMPI DUP1 DUP2 REVERT JUMPDEST DUP4 CALLDATALOAD SWAP3 POP PUSH1 0x20 DUP5 ADD CALLDATALOAD PUSH1 0x1 PUSH1 0x1 PUSH1 0x40 SHL SUB DUP1 DUP3 GT ISZERO PUSH2 0x4344 JUMPI DUP3 DUP4 REVERT JUMPDEST DUP2 DUP7 ADD DUP8 PUSH1 0x1F DUP3 ADD SLT PUSH2 0x4355 JUMPI DUP4 DUP5 REVERT JUMPDEST DUP1 CALLDATALOAD SWAP3 POP DUP2 DUP4 GT ISZERO PUSH2 0x4365 JUMPI DUP4 DUP5 REVERT JUMPDEST DUP8 PUSH1 0x20 DUP1 DUP6 MUL DUP4 ADD ADD GT ISZERO PUSH2 0x4378 JUMPI DUP4 DUP5 REVERT JUMPDEST SWAP5 SWAP8 PUSH1 0x20 SWAP1 SWAP6 ADD SWAP7 POP SWAP1 SWAP5 POP POP POP POP JUMP JUMPDEST PUSH1 0x0 DUP1 PUSH1 0x0 DUP1 PUSH1 0x0 PUSH1 0x80 DUP7 DUP9 SUB SLT ISZERO PUSH2 0x43A0 JUMPI DUP3 DUP4 REVERT JUMPDEST DUP6 CALLDATALOAD SWAP5 POP PUSH1 0x20 DUP7 ADD CALLDATALOAD PUSH1 0x1 PUSH1 0x1 PUSH1 0x40 SHL SUB DUP2 GT ISZERO PUSH2 0x43BC JUMPI DUP4 DUP5 REVERT JUMPDEST PUSH2 0x43C8 DUP9 DUP3 DUP10 ADD PUSH2 0x3F9C JUMP JUMPDEST SWAP1 SWAP6 POP SWAP4 POP POP PUSH1 0x40 DUP7 ADD CALLDATALOAD PUSH2 0x43DC DUP2 PUSH2 0x4E97 JUMP JUMPDEST SWAP5 SWAP8 SWAP4 SWAP7 POP SWAP2 SWAP5 PUSH1 0x60 ADD CALLDATALOAD SWAP3 SWAP2 POP POP JUMP JUMPDEST PUSH1 0x0 DUP1 PUSH1 0x40 DUP4 DUP6 SUB SLT ISZERO PUSH2 0x43FF JUMPI DUP2 DUP3 REVERT JUMPDEST DUP3 CALLDATALOAD SWAP2 POP PUSH1 0x20 DUP1 DUP5 ADD CALLDATALOAD PUSH1 0x1 PUSH1 0x1 PUSH1 0x40 SHL SUB DUP1 DUP3 GT ISZERO PUSH2 0x441D JUMPI DUP4 DUP5 REVERT JUMPDEST DUP2 DUP7 ADD DUP8 PUSH1 0x1F DUP3 ADD SLT PUSH2 0x442E JUMPI DUP5 DUP6 REVERT JUMPDEST DUP1 CALLDATALOAD SWAP3 POP DUP2 DUP4 GT ISZERO PUSH2 0x443E JUMPI DUP5 DUP6 REVERT JUMPDEST PUSH2 0x444B DUP5 DUP6 DUP6 MUL ADD PUSH2 0x4E45 JUMP JUMPDEST DUP4 DUP2 MSTORE DUP5 DUP2 ADD SWAP3 POP DUP2 DUP6 ADD PUSH1 0x60 DUP1 DUP7 MUL DUP5 ADD DUP8 ADD DUP12 LT ISZERO PUSH2 0x446A JUMPI DUP8 DUP9 REVERT JUMPDEST DUP8 SWAP4 POP JUMPDEST DUP6 DUP5 LT ISZERO PUSH2 0x4496 JUMPI PUSH2 0x4480 DUP12 DUP4 PUSH2 0x3FF5 JUMP JUMPDEST DUP6 MSTORE SWAP4 DUP7 ADD SWAP4 PUSH1 0x1 SWAP4 SWAP1 SWAP4 ADD SWAP3 SWAP1 DUP2 ADD SWAP1 PUSH2 0x446E JUMP JUMPDEST POP SWAP7 SWAP10 SWAP1 SWAP9 POP SWAP7 POP POP POP POP POP POP POP JUMP JUMPDEST PUSH1 0x0 DUP1 PUSH1 0x40 DUP4 DUP6 SUB SLT ISZERO PUSH2 0x44B8 JUMPI DUP2 DUP3 REVERT JUMPDEST POP POP DUP1 MLOAD PUSH1 0x20 SWAP1 SWAP2 ADD MLOAD SWAP1 SWAP3 SWAP1 SWAP2 POP JUMP JUMPDEST PUSH1 0x0 DUP1 PUSH1 0x0 DUP1 PUSH1 0x0 DUP1 PUSH1 0xA0 DUP8 DUP10 SUB SLT ISZERO PUSH2 0x44E1 JUMPI DUP4 DUP5 REVERT JUMPDEST DUP7 CALLDATALOAD SWAP6 POP PUSH1 0x20 DUP8 ADD CALLDATALOAD SWAP5 POP PUSH1 0x40 DUP8 ADD CALLDATALOAD PUSH1 0x1 PUSH1 0x1 PUSH1 0x40 SHL SUB DUP2 GT ISZERO PUSH2 0x4504 JUMPI DUP5 DUP6 REVERT JUMPDEST PUSH2 0x4510 DUP10 DUP3 DUP11 ADD PUSH2 0x3F9C JUMP JUMPDEST SWAP1 SWAP6 POP SWAP4 POP POP PUSH1 0x60 DUP8 ADD CALLDATALOAD PUSH2 0x4524 DUP2 PUSH2 0x4E97 JUMP JUMPDEST DUP1 SWAP3 POP POP PUSH1 0x80 DUP8 ADD CALLDATALOAD SWAP1 POP SWAP3 SWAP6 POP SWAP3 SWAP6 POP SWAP3 SWAP6 JUMP JUMPDEST PUSH1 0x0 DUP1 PUSH1 0x0 PUSH1 0x60 DUP5 DUP7 SUB SLT ISZERO PUSH2 0x454D JUMPI DUP1 DUP2 REVERT JUMPDEST POP POP DUP2 CALLDATALOAD SWAP4 PUSH1 0x20 DUP4 ADD CALLDATALOAD SWAP4 POP PUSH1 0x40 SWAP1 SWAP3 ADD CALLDATALOAD SWAP2 SWAP1 POP JUMP JUMPDEST PUSH1 0x0 DUP1 PUSH1 0x0 DUP1 PUSH1 0x0 DUP1 PUSH1 0xC0 DUP8 DUP10 SUB SLT ISZERO PUSH2 0x457C JUMPI DUP4 DUP5 REVERT JUMPDEST DUP7 CALLDATALOAD SWAP6 POP PUSH1 0x20 DUP8 ADD CALLDATALOAD SWAP5 POP PUSH1 0x40 DUP8 ADD CALLDATALOAD SWAP4 POP PUSH1 0x60 DUP8 ADD CALLDATALOAD PUSH2 0x459C DUP2 PUSH2 0x4EAF JUMP JUMPDEST SWAP6 SWAP9 SWAP5 SWAP8 POP SWAP3 SWAP6 PUSH1 0x80 DUP2 ADD CALLDATALOAD SWAP5 PUSH1 0xA0 SWAP1 SWAP2 ADD CALLDATALOAD SWAP4 POP SWAP2 POP POP JUMP JUMPDEST PUSH1 0x0 PUSH1 0x20 DUP3 DUP5 SUB SLT ISZERO PUSH2 0x45C7 JUMPI DUP1 DUP2 REVERT JUMPDEST DUP2 CALLDATALOAD PUSH2 0x1CC9 DUP2 PUSH2 0x4ED2 JUMP JUMPDEST PUSH1 0x0 PUSH1 0x20 DUP3 DUP5 SUB SLT ISZERO PUSH2 0x45E3 JUMPI DUP1 DUP2 REVERT JUMPDEST DUP2 MLOAD PUSH2 0x1CC9 DUP2 PUSH2 0x4ED2 JUMP JUMPDEST PUSH1 0x0 DUP2 MLOAD DUP1 DUP5 MSTORE PUSH2 0x4606 DUP2 PUSH1 0x20 DUP7 ADD PUSH1 0x20 DUP7 ADD PUSH2 0x4E6B JUMP JUMPDEST PUSH1 0x1F ADD PUSH1 0x1F NOT AND SWAP3 SWAP1 SWAP3 ADD PUSH1 0x20 ADD SWAP3 SWAP2 POP POP JUMP JUMPDEST PUSH12 0xFFFFFFFFFFFFFFFFFFFFFFFF NOT PUSH1 0x60 SWAP5 DUP6 SHL DUP2 AND DUP3 MSTORE SWAP3 SWAP1 SWAP4 SHL SWAP1 SWAP2 AND PUSH1 0x14 DUP4 ADD MSTORE ISZERO ISZERO PUSH1 0xF8 SHL PUSH1 0x28 DUP3 ADD MSTORE PUSH1 0x29 ADD SWAP1 JUMP JUMPDEST PUSH1 0x0 DUP3 DUP5 DUP4 CALLDATACOPY SWAP2 ADD SWAP1 DUP2 MSTORE SWAP2 SWAP1 POP JUMP JUMPDEST PUSH1 0x0 DUP3 MLOAD PUSH2 0x466F DUP2 DUP5 PUSH1 0x20 DUP8 ADD PUSH2 0x4E6B JUMP JUMPDEST SWAP2 SWAP1 SWAP2 ADD SWAP3 SWAP2 POP POP JUMP JUMPDEST PUSH1 0x1 PUSH1 0x1 PUSH1 0xF8 SHL SUB NOT DUP2 MSTORE PUSH1 0x60 SWAP4 SWAP1 SWAP4 SHL PUSH12 0xFFFFFFFFFFFFFFFFFFFFFFFF NOT AND PUSH1 0x1 DUP5 ADD MSTORE PUSH1 0x15 DUP4 ADD SWAP2 SWAP1 SWAP2 MSTORE PUSH1 0x35 DUP3 ADD MSTORE PUSH1 0x55 ADD SWAP1 JUMP JUMPDEST PUSH1 0x1 PUSH1 0x1 PUSH1 0xA0 SHL SUB SWAP2 SWAP1 SWAP2 AND DUP2 MSTORE PUSH1 0x20 ADD SWAP1 JUMP JUMPDEST PUSH1 0x1 PUSH1 0x1 PUSH1 0xA0 SHL SUB SWAP8 DUP9 AND DUP2 MSTORE SWAP6 SWAP1 SWAP7 AND PUSH1 0x20 DUP7 ADD MSTORE PUSH1 0x40 DUP6 ADD SWAP4 SWAP1 SWAP4 MSTORE PUSH1 0x60 DUP5 ADD SWAP2 SWAP1 SWAP2 MSTORE PUSH1 0xFF AND PUSH1 0x80 DUP4 ADD MSTORE PUSH1 0xA0 DUP3 ADD MSTORE PUSH1 0xC0 DUP2 ADD SWAP2 SWAP1 SWAP2 MSTORE PUSH1 0xE0 ADD SWAP1 JUMP JUMPDEST PUSH1 0x1 PUSH1 0x1 PUSH1 0xA0 SHL SUB SWAP4 DUP5 AND DUP2 MSTORE SWAP2 SWAP1 SWAP3 AND PUSH1 0x20 DUP3 ADD MSTORE PUSH1 0x40 DUP2 ADD SWAP2 SWAP1 SWAP2 MSTORE PUSH1 0x60 ADD SWAP1 JUMP JUMPDEST PUSH1 0x1 PUSH1 0x1 PUSH1 0xA0 SHL SUB SWAP4 DUP5 AND DUP2 MSTORE SWAP2 SWAP1 SWAP3 AND PUSH1 0x20 DUP3 ADD MSTORE SWAP1 ISZERO ISZERO PUSH1 0x40 DUP3 ADD MSTORE PUSH1 0x60 ADD SWAP1 JUMP JUMPDEST PUSH1 0x1 PUSH1 0x1 PUSH1 0xA0 SHL SUB SWAP3 SWAP1 SWAP3 AND DUP3 MSTORE PUSH1 0x20 DUP3 ADD MSTORE PUSH1 0x40 ADD SWAP1 JUMP JUMPDEST PUSH1 0x0 PUSH1 0x20 DUP1 DUP4 ADD DUP2 DUP5 MSTORE DUP1 DUP6 MLOAD DUP1 DUP4 MSTORE PUSH1 0x40 DUP7 ADD SWAP2 POP PUSH1 0x40 DUP5 DUP3 MUL DUP8 ADD ADD SWAP3 POP DUP4 DUP8 ADD DUP6 JUMPDEST DUP3 DUP2 LT ISZERO PUSH2 0x47BA JUMPI PUSH1 0x3F NOT DUP9 DUP7 SUB ADD DUP5 MSTORE PUSH2 0x47A8 DUP6 DUP4 MLOAD PUSH2 0x45EE JUMP JUMPDEST SWAP5 POP SWAP3 DUP6 ADD SWAP3 SWAP1 DUP6 ADD SWAP1 PUSH1 0x1 ADD PUSH2 0x478C JUMP JUMPDEST POP SWAP3 SWAP8 SWAP7 POP POP POP POP POP POP POP JUMP JUMPDEST PUSH1 0x20 DUP1 DUP3 MSTORE DUP3 MLOAD DUP3 DUP3 ADD DUP2 SWAP1 MSTORE PUSH1 0x0 SWAP2 SWAP1 DUP5 DUP3 ADD SWAP1 PUSH1 0x40 DUP6 ADD SWAP1 DUP5 JUMPDEST DUP2 DUP2 LT ISZERO PUSH2 0x47FF JUMPI DUP4 MLOAD DUP4 MSTORE SWAP3 DUP5 ADD SWAP3 SWAP2 DUP5 ADD SWAP2 PUSH1 0x1 ADD PUSH2 0x47E3 JUMP JUMPDEST POP SWAP1 SWAP7 SWAP6 POP POP POP POP POP POP JUMP JUMPDEST PUSH1 0x0 PUSH1 0x20 DUP3 MSTORE PUSH2 0x1CC9 PUSH1 0x20 DUP4 ADD DUP5 PUSH2 0x45EE JUMP JUMPDEST PUSH1 0x20 DUP1 DUP3 MSTORE PUSH1 0x19 SWAP1 DUP3 ADD MSTORE PUSH32 0x54656C65737761705632526F757465723A204558504952454400000000000000 PUSH1 0x40 DUP3 ADD MSTORE PUSH1 0x60 ADD SWAP1 JUMP JUMPDEST PUSH1 0x20 DUP1 DUP3 MSTORE PUSH1 0x1F SWAP1 DUP3 ADD MSTORE PUSH32 0x54656C657377617056324C6962726172793A205A45524F5F4144445245535300 PUSH1 0x40 DUP3 ADD MSTORE PUSH1 0x60 ADD SWAP1 JUMP JUMPDEST PUSH1 0x20 DUP1 DUP3 MSTORE PUSH1 0x15 SWAP1 DUP3 ADD MSTORE PUSH21 0x64732D6D6174682D7375622D756E646572666C6F77 PUSH1 0x58 SHL PUSH1 0x40 DUP3 ADD MSTORE PUSH1 0x60 ADD SWAP1 JUMP JUMPDEST PUSH1 0x20 DUP1 DUP3 MSTORE PUSH1 0x14 SWAP1 DUP3 ADD MSTORE PUSH20 0x64732D6D6174682D6D756C2D6F766572666C6F77 PUSH1 0x60 SHL PUSH1 0x40 DUP3 ADD MSTORE PUSH1 0x60 ADD SWAP1 JUMP JUMPDEST PUSH1 0x20 DUP1 DUP3 MSTORE PUSH1 0x14 SWAP1 DUP3 ADD MSTORE PUSH20 0x64732D6D6174682D6164642D6F766572666C6F77 PUSH1 0x60 SHL PUSH1 0x40 DUP3 ADD MSTORE PUSH1 0x60 ADD SWAP1 JUMP JUMPDEST PUSH1 0x20 DUP1 DUP3 MSTORE PUSH1 0x31 SWAP1 DUP3 ADD MSTORE PUSH32 0x5472616E7366657248656C7065723A3A7472616E7366657246726F6D3A207472 PUSH1 0x40 DUP3 ADD MSTORE PUSH17 0x185B9CD9995C919C9BDB4819985A5B1959 PUSH1 0x7A SHL PUSH1 0x60 DUP3 ADD MSTORE PUSH1 0x80 ADD SWAP1 JUMP JUMPDEST PUSH1 0x20 DUP1 DUP3 MSTORE PUSH1 0x34 SWAP1 DUP3 ADD MSTORE PUSH32 0x5472616E7366657248656C7065723A3A736166655472616E736665724554483A PUSH1 0x40 DUP3 ADD MSTORE PUSH20 0x8115512081D1C985B9CD9995C8819985A5B1959 PUSH1 0x62 SHL PUSH1 0x60 DUP3 ADD MSTORE PUSH1 0x80 ADD SWAP1 JUMP JUMPDEST PUSH1 0x20 DUP1 DUP3 MSTORE PUSH1 0x26 SWAP1 DUP3 ADD MSTORE PUSH32 0x54656C657377617056324C6962726172793A204944454E544943414C5F414444 PUSH1 0x40 DUP3 ADD MSTORE PUSH6 0x524553534553 PUSH1 0xD0 SHL PUSH1 0x60 DUP3 ADD MSTORE PUSH1 0x80 ADD SWAP1 JUMP JUMPDEST PUSH1 0x20 DUP1 DUP3 MSTORE PUSH1 0x23 SWAP1 DUP3 ADD MSTORE PUSH32 0x54656C65737761705632526F757465723A20494E56414C49445F4D53475F5641 PUSH1 0x40 DUP3 ADD MSTORE PUSH3 0x4C5545 PUSH1 0xE8 SHL PUSH1 0x60 DUP3 ADD MSTORE PUSH1 0x80 ADD SWAP1 JUMP JUMPDEST PUSH1 0x20 DUP1 DUP3 MSTORE PUSH1 0x28 SWAP1 DUP3 ADD MSTORE PUSH32 0x54656C65737761705632526F757465723A204558434553534956455F494E5055 PUSH1 0x40 DUP3 ADD MSTORE PUSH8 0x1517D05353D55395 PUSH1 0xC2 SHL PUSH1 0x60 DUP3 ADD MSTORE PUSH1 0x80 ADD SWAP1 JUMP JUMPDEST PUSH1 0x20 DUP1 DUP3 MSTORE PUSH1 0x2D SWAP1 DUP3 ADD MSTORE PUSH1 0x0 DUP1 MLOAD PUSH1 0x20 PUSH2 0x4EE2 DUP4 CODECOPY DUP2 MLOAD SWAP2 MSTORE PUSH1 0x40 DUP3 ADD MSTORE PUSH13 0x13D55514155517D05353D55395 PUSH1 0x9A SHL PUSH1 0x60 DUP3 ADD MSTORE PUSH1 0x80 ADD SWAP1 JUMP JUMPDEST PUSH1 0x20 DUP1 DUP3 MSTORE PUSH1 0x27 SWAP1 DUP3 ADD MSTORE PUSH32 0x54656C65737761705632526F757465723A20494E53554646494349454E545F42 PUSH1 0x40 DUP3 ADD MSTORE PUSH7 0x17D05353D55395 PUSH1 0xCA SHL PUSH1 0x60 DUP3 ADD MSTORE PUSH1 0x80 ADD SWAP1 JUMP JUMPDEST PUSH1 0x20 DUP1 DUP3 MSTORE PUSH1 0x2C SWAP1 DUP3 ADD MSTORE PUSH1 0x0 DUP1 MLOAD PUSH1 0x20 PUSH2 0x4EE2 DUP4 CODECOPY DUP2 MLOAD SWAP2 MSTORE PUSH1 0x40 DUP3 ADD MSTORE PUSH12 0x125394155517D05353D55395 PUSH1 0xA2 SHL PUSH1 0x60 DUP3 ADD MSTORE PUSH1 0x80 ADD SWAP1 JUMP JUMPDEST PUSH1 0x20 DUP1 DUP3 MSTORE PUSH1 0x26 SWAP1 DUP3 ADD MSTORE PUSH1 0x0 DUP1 MLOAD PUSH1 0x20 PUSH2 0x4EE2 DUP4 CODECOPY DUP2 MLOAD SWAP2 MSTORE PUSH1 0x40 DUP3 ADD MSTORE PUSH6 0x105353D55395 PUSH1 0xD2 SHL PUSH1 0x60 DUP3 ADD MSTORE PUSH1 0x80 ADD SWAP1 JUMP JUMPDEST PUSH1 0x20 DUP1 DUP3 MSTORE PUSH1 0x29 SWAP1 DUP3 ADD MSTORE PUSH1 0x0 DUP1 MLOAD PUSH1 0x20 PUSH2 0x4EE2 DUP4 CODECOPY DUP2 MLOAD SWAP2 MSTORE PUSH1 0x40 DUP3 ADD MSTORE PUSH9 0x4C4951554944495459 PUSH1 0xB8 SHL PUSH1 0x60 DUP3 ADD MSTORE PUSH1 0x80 ADD SWAP1 JUMP JUMPDEST PUSH1 0x20 DUP1 DUP3 MSTORE PUSH1 0x1E SWAP1 DUP3 ADD MSTORE PUSH32 0x54656C65737761705632526F757465723A20494E56414C49445F504154480000 PUSH1 0x40 DUP3 ADD MSTORE PUSH1 0x60 ADD SWAP1 JUMP JUMPDEST PUSH1 0x20 DUP1 DUP3 MSTORE PUSH1 0x1F SWAP1 DUP3 ADD MSTORE PUSH32 0x54656C657377617056324C6962726172793A20494E56414C49445F5041544800 PUSH1 0x40 DUP3 ADD MSTORE PUSH1 0x60 ADD SWAP1 JUMP JUMPDEST PUSH1 0x20 DUP1 DUP3 MSTORE PUSH1 0x2C SWAP1 DUP3 ADD MSTORE PUSH32 0x54656C65737761705632526F757465723A20494E53554646494349454E545F4F PUSH1 0x40 DUP3 ADD MSTORE PUSH12 0x155514155517D05353D55395 PUSH1 0xA2 SHL PUSH1 0x60 DUP3 ADD MSTORE PUSH1 0x80 ADD SWAP1 JUMP JUMPDEST PUSH1 0x20 DUP1 DUP3 MSTORE PUSH1 0x2D SWAP1 DUP3 ADD MSTORE PUSH32 0x5472616E7366657248656C7065723A3A736166655472616E736665723A207472 PUSH1 0x40 DUP3 ADD MSTORE PUSH13 0x185B9CD9995C8819985A5B1959 PUSH1 0x9A SHL PUSH1 0x60 DUP3 ADD MSTORE PUSH1 0x80 ADD SWAP1 JUMP JUMPDEST PUSH1 0x20 DUP1 DUP3 MSTORE PUSH1 0x13 SWAP1 DUP3 ADD MSTORE PUSH19 0x64732D6D6174682D6469762D62792D7A65726F PUSH1 0x68 SHL PUSH1 0x40 DUP3 ADD MSTORE PUSH1 0x60 ADD SWAP1 JUMP JUMPDEST PUSH1 0x20 DUP1 DUP3 MSTORE PUSH1 0x27 SWAP1 DUP3 ADD MSTORE PUSH32 0x54656C65737761705632526F757465723A20494E53554646494349454E545F41 PUSH1 0x40 DUP3 ADD MSTORE PUSH7 0x17D05353D55395 PUSH1 0xCA SHL PUSH1 0x60 DUP3 ADD MSTORE PUSH1 0x80 ADD SWAP1 JUMP JUMPDEST PUSH2 0x100 DUP2 ADD DUP8 CALLDATALOAD PUSH2 0x4D3F DUP2 PUSH2 0x4E97 JUMP JUMPDEST PUSH1 0x1 PUSH1 0x1 PUSH1 0xA0 SHL SUB SWAP1 DUP2 AND DUP4 MSTORE PUSH1 0x20 DUP10 ADD CALLDATALOAD SWAP1 PUSH2 0x4D5B DUP3 PUSH2 0x4E97 JUMP JUMPDEST SWAP1 DUP2 AND PUSH1 0x20 DUP5 ADD MSTORE PUSH1 0x40 DUP10 ADD CALLDATALOAD SWAP1 PUSH2 0x4D72 DUP3 PUSH2 0x4EAF JUMP JUMPDEST SWAP1 ISZERO ISZERO PUSH1 0x40 DUP5 ADD MSTORE PUSH1 0x60 DUP4 ADD SWAP8 SWAP1 SWAP8 MSTORE PUSH1 0x80 DUP3 ADD SWAP6 SWAP1 SWAP6 MSTORE PUSH1 0xA0 DUP2 ADD SWAP4 SWAP1 SWAP4 MSTORE SWAP4 AND PUSH1 0xC0 DUP3 ADD MSTORE PUSH1 0xE0 ADD SWAP2 SWAP1 SWAP2 MSTORE SWAP2 SWAP1 POP JUMP JUMPDEST SWAP1 DUP2 MSTORE PUSH1 0x20 ADD SWAP1 JUMP JUMPDEST SWAP2 DUP3 MSTORE PUSH1 0x20 DUP3 ADD MSTORE PUSH1 0x40 ADD SWAP1 JUMP JUMPDEST PUSH1 0x0 DUP6 DUP3 MSTORE DUP5 PUSH1 0x20 DUP4 ADD MSTORE PUSH1 0x1 DUP1 PUSH1 0xA0 SHL SUB DUP5 AND PUSH1 0x40 DUP4 ADD MSTORE PUSH1 0x80 PUSH1 0x60 DUP4 ADD MSTORE PUSH2 0x1CA0 PUSH1 0x80 DUP4 ADD DUP5 PUSH2 0x45EE JUMP JUMPDEST SWAP3 DUP4 MSTORE PUSH1 0x20 DUP4 ADD SWAP2 SWAP1 SWAP2 MSTORE PUSH1 0x40 DUP3 ADD MSTORE PUSH1 0x60 ADD SWAP1 JUMP JUMPDEST PUSH1 0x0 DUP1 DUP4 CALLDATALOAD PUSH1 0x1E NOT DUP5 CALLDATASIZE SUB ADD DUP2 SLT PUSH2 0x4E15 JUMPI DUP3 DUP4 REVERT JUMPDEST DUP1 DUP5 ADD DUP1 CALLDATALOAD SWAP3 POP PUSH1 0x1 PUSH1 0x1 PUSH1 0x40 SHL SUB DUP4 GT ISZERO PUSH2 0x4E2F JUMPI DUP4 DUP5 REVERT JUMPDEST PUSH1 0x20 ADD SWAP3 POP POP CALLDATASIZE DUP2 SWAP1 SUB DUP3 SGT ISZERO PUSH2 0x34DA JUMPI PUSH1 0x0 DUP1 REVERT JUMPDEST PUSH1 0x40 MLOAD DUP2 DUP2 ADD PUSH1 0x1 PUSH1 0x1 PUSH1 0x40 SHL SUB DUP2 GT DUP3 DUP3 LT OR ISZERO PUSH2 0x4E63 JUMPI PUSH1 0x0 DUP1 REVERT JUMPDEST PUSH1 0x40 MSTORE SWAP2 SWAP1 POP JUMP JUMPDEST PUSH1 0x0 JUMPDEST DUP4 DUP2 LT ISZERO PUSH2 0x4E86 JUMPI DUP2 DUP2 ADD MLOAD DUP4 DUP3 ADD MSTORE PUSH1 0x20 ADD PUSH2 0x4E6E JUMP JUMPDEST DUP4 DUP2 GT ISZERO PUSH2 0x2D66 JUMPI POP POP PUSH1 0x0 SWAP2 ADD MSTORE JUMP JUMPDEST PUSH1 0x1 PUSH1 0x1 PUSH1 0xA0 SHL SUB DUP2 AND DUP2 EQ PUSH2 0x4EAC JUMPI PUSH1 0x0 DUP1 REVERT JUMPDEST POP JUMP JUMPDEST DUP1 ISZERO ISZERO DUP2 EQ PUSH2 0x4EAC JUMPI PUSH1 0x0 DUP1 REVERT JUMPDEST PUSH1 0x1 PUSH1 0x1 PUSH1 0x70 SHL SUB DUP2 AND DUP2 EQ PUSH2 0x4EAC JUMPI PUSH1 0x0 DUP1 REVERT JUMPDEST PUSH1 0xFF DUP2 AND DUP2 EQ PUSH2 0x4EAC JUMPI PUSH1 0x0 DUP1 REVERT INVALID SLOAD PUSH6 0x6C6573776170 JUMP ORIGIN 0x4C PUSH10 0x62726172793A20494E53 SSTORE CHAINID CHAINID 0x49 NUMBER 0x49 GASLIMIT 0x4E SLOAD 0x5F LOG2 PUSH5 0x6970667358 0x22 SLT KECCAK256 ADD MSIZE PUSH18 0x5CB8C126D5F456ED36E33829401BB68E0DDB DUP3 NUMBER 0xB0 DIFFICULTY LT CALLER 0xC DUP10 0xA7 SWAP5 BALANCE PUSH5 0x736F6C6343 STOP MOD MOD STOP CALLER "},"methodIdentifiers":{"WETH()":"ad5c4648","addLiquidity((address,address,bool),uint256,uint256,uint256,uint256,address,uint256)":"dc2972c2","addLiquidityETH((address,address,bool),uint256,uint256,uint256,address,uint256)":"7d03c793","factory()":"c45a0155","getAmountIn(uint256,uint256,uint256,bool,uint256,uint256)":"99e629f9","getAmountOut(uint256,uint256,uint256,bool,uint256,uint256)":"d8ec2777","getAmountsIn(uint256,(address,address,bool)[])":"d5c54e33","getAmountsOut(uint256,(address,address,bool)[])":"9881fcb4","multicall(uint256,bytes[])":"5ae401dc","quote(uint256,uint256,uint256)":"ad615dec","refundETH()":"12210e8a","removeLiquidity((address,address,bool),uint256,uint256,uint256,address,uint256)":"82179c5d","removeLiquidityETH((address,address,bool),uint256,uint256,uint256,address,uint256)":"3e6c63c9","removeLiquidityETHSupportingFeeOnTransferTokens((address,address,bool),uint256,uint256,uint256,address,uint256)":"cad77ef2","removeLiquidityETHWithPermit((address,address,bool),uint256,uint256,uint256,address,uint256,bool,(uint8,bytes32,bytes32))":"0cd7ee9f","removeLiquidityETHWithPermitSupportingFeeOnTransferTokens((address,address,bool),uint256,uint256,uint256,address,uint256,bool,(uint8,bytes32,bytes32))":"4b45e535","removeLiquidityWithPermit((address,address,bool),uint256,uint256,uint256,address,uint256,bool,(uint8,bytes32,bytes32))":"7de50ddf","swapETHForExactTokens(uint256,(address,address,bool)[],address,uint256)":"633afc92","swapETHForExactTokensMulti(uint256,(address,address,bool)[],address,uint256)":"d4d6886f","swapExactETHForTokens(uint256,uint256,(address,address,bool)[],address,uint256)":"f4f3de4f","swapExactETHForTokensSupportingFeeOnTransferTokens(uint256,uint256,(address,address,bool)[],address,uint256)":"71d6614d","swapExactTokensForETH(uint256,uint256,(address,address,bool)[],address,uint256)":"18a13086","swapExactTokensForETHSupportingFeeOnTransferTokens(uint256,uint256,(address,address,bool)[],address,uint256)":"7af728c8","swapExactTokensForTokens(uint256,uint256,(address,address,bool)[],address,uint256)":"f41766d8","swapExactTokensForTokensSupportingFeeOnTransferTokens(uint256,uint256,(address,address,bool)[],address,uint256)":"6cc1ae13","swapTokensForExactETH(uint256,uint256,(address,address,bool)[],address,uint256)":"d69f344c","swapTokensForExactTokens(uint256,uint256,(address,address,bool)[],address,uint256)":"ed1fbca2"}},"storageLayout":{"storage":[{"astId":2512,"contract":"contracts/TeleswapV2Router02.sol:TeleswapV2Router02","label":"factory","offset":0,"slot":"0","type":"t_address"},{"astId":2515,"contract":"contracts/TeleswapV2Router02.sol:TeleswapV2Router02","label":"WETH","offset":0,"slot":"1","type":"t_address"},{"astId":2517,"contract":"contracts/TeleswapV2Router02.sol:TeleswapV2Router02","label":"pairCodeHash","offset":0,"slot":"2","type":"t_bytes32"}],"types":{"t_address":{"encoding":"inplace","label":"address","numberOfBytes":"20"},"t_bytes32":{"encoding":"inplace","label":"bytes32","numberOfBytes":"32"}}}}}}