{
  "_format": "hh-sol-artifact-1",
  "contractName": "AdminGauge",
  "sourceName": "contracts/spirit-v2-farming/AdminGaugeProxy.sol",
  "abi": [
    {
      "inputs": [
        {
          "internalType": "address",
          "name": "_spirit",
          "type": "address"
        },
        {
          "internalType": "address",
          "name": "_inSpirit",
          "type": "address"
        },
        {
          "internalType": "address",
          "name": "_token",
          "type": "address"
        }
      ],
      "stateMutability": "nonpayable",
      "type": "constructor"
    },
    {
      "anonymous": false,
      "inputs": [
        {
          "indexed": true,
          "internalType": "address",
          "name": "from",
          "type": "address"
        },
        {
          "indexed": false,
          "internalType": "uint256",
          "name": "claimed0",
          "type": "uint256"
        },
        {
          "indexed": false,
          "internalType": "uint256",
          "name": "claimed1",
          "type": "uint256"
        }
      ],
      "name": "ClaimVotingFees",
      "type": "event"
    },
    {
      "anonymous": false,
      "inputs": [
        {
          "indexed": false,
          "internalType": "uint256",
          "name": "reward",
          "type": "uint256"
        }
      ],
      "name": "RewardAdded",
      "type": "event"
    },
    {
      "anonymous": false,
      "inputs": [
        {
          "indexed": true,
          "internalType": "address",
          "name": "user",
          "type": "address"
        },
        {
          "indexed": false,
          "internalType": "uint256",
          "name": "reward",
          "type": "uint256"
        }
      ],
      "name": "RewardPaid",
      "type": "event"
    },
    {
      "anonymous": false,
      "inputs": [
        {
          "indexed": true,
          "internalType": "address",
          "name": "user",
          "type": "address"
        },
        {
          "indexed": false,
          "internalType": "uint256",
          "name": "amount",
          "type": "uint256"
        }
      ],
      "name": "Staked",
      "type": "event"
    },
    {
      "anonymous": false,
      "inputs": [
        {
          "indexed": true,
          "internalType": "address",
          "name": "user",
          "type": "address"
        },
        {
          "indexed": false,
          "internalType": "uint256",
          "name": "amount",
          "type": "uint256"
        }
      ],
      "name": "Withdrawn",
      "type": "event"
    },
    {
      "inputs": [],
      "name": "DISTRIBUTION",
      "outputs": [
        {
          "internalType": "address",
          "name": "",
          "type": "address"
        }
      ],
      "stateMutability": "view",
      "type": "function"
    },
    {
      "inputs": [],
      "name": "DURATION",
      "outputs": [
        {
          "internalType": "uint256",
          "name": "",
          "type": "uint256"
        }
      ],
      "stateMutability": "view",
      "type": "function"
    },
    {
      "inputs": [],
      "name": "TOKEN",
      "outputs": [
        {
          "internalType": "contract IERC20",
          "name": "",
          "type": "address"
        }
      ],
      "stateMutability": "view",
      "type": "function"
    },
    {
      "inputs": [
        {
          "internalType": "address",
          "name": "account",
          "type": "address"
        }
      ],
      "name": "balanceOf",
      "outputs": [
        {
          "internalType": "uint256",
          "name": "",
          "type": "uint256"
        }
      ],
      "stateMutability": "view",
      "type": "function"
    },
    {
      "inputs": [],
      "name": "claimVotingFees",
      "outputs": [
        {
          "internalType": "uint256",
          "name": "claimed0",
          "type": "uint256"
        },
        {
          "internalType": "uint256",
          "name": "claimed1",
          "type": "uint256"
        }
      ],
      "stateMutability": "nonpayable",
      "type": "function"
    },
    {
      "inputs": [
        {
          "internalType": "uint256",
          "name": "amount",
          "type": "uint256"
        }
      ],
      "name": "deposit",
      "outputs": [],
      "stateMutability": "nonpayable",
      "type": "function"
    },
    {
      "inputs": [],
      "name": "depositAll",
      "outputs": [],
      "stateMutability": "nonpayable",
      "type": "function"
    },
    {
      "inputs": [
        {
          "internalType": "uint256",
          "name": "amount",
          "type": "uint256"
        },
        {
          "internalType": "address",
          "name": "account",
          "type": "address"
        }
      ],
      "name": "depositFor",
      "outputs": [],
      "stateMutability": "nonpayable",
      "type": "function"
    },
    {
      "inputs": [
        {
          "internalType": "address",
          "name": "account",
          "type": "address"
        }
      ],
      "name": "derivedBalance",
      "outputs": [
        {
          "internalType": "uint256",
          "name": "",
          "type": "uint256"
        }
      ],
      "stateMutability": "view",
      "type": "function"
    },
    {
      "inputs": [
        {
          "internalType": "address",
          "name": "",
          "type": "address"
        }
      ],
      "name": "derivedBalances",
      "outputs": [
        {
          "internalType": "uint256",
          "name": "",
          "type": "uint256"
        }
      ],
      "stateMutability": "view",
      "type": "function"
    },
    {
      "inputs": [],
      "name": "derivedSupply",
      "outputs": [
        {
          "internalType": "uint256",
          "name": "",
          "type": "uint256"
        }
      ],
      "stateMutability": "view",
      "type": "function"
    },
    {
      "inputs": [
        {
          "internalType": "address",
          "name": "account",
          "type": "address"
        }
      ],
      "name": "earned",
      "outputs": [
        {
          "internalType": "uint256",
          "name": "",
          "type": "uint256"
        }
      ],
      "stateMutability": "view",
      "type": "function"
    },
    {
      "inputs": [],
      "name": "getReward",
      "outputs": [],
      "stateMutability": "nonpayable",
      "type": "function"
    },
    {
      "inputs": [],
      "name": "getRewardForDuration",
      "outputs": [
        {
          "internalType": "uint256",
          "name": "",
          "type": "uint256"
        }
      ],
      "stateMutability": "view",
      "type": "function"
    },
    {
      "inputs": [],
      "name": "governanceToken",
      "outputs": [
        {
          "internalType": "contract IERC20",
          "name": "",
          "type": "address"
        }
      ],
      "stateMutability": "view",
      "type": "function"
    },
    {
      "inputs": [
        {
          "internalType": "address",
          "name": "account",
          "type": "address"
        }
      ],
      "name": "kick",
      "outputs": [],
      "stateMutability": "nonpayable",
      "type": "function"
    },
    {
      "inputs": [],
      "name": "lastTimeRewardApplicable",
      "outputs": [
        {
          "internalType": "uint256",
          "name": "",
          "type": "uint256"
        }
      ],
      "stateMutability": "view",
      "type": "function"
    },
    {
      "inputs": [],
      "name": "lastUpdateTime",
      "outputs": [
        {
          "internalType": "uint256",
          "name": "",
          "type": "uint256"
        }
      ],
      "stateMutability": "view",
      "type": "function"
    },
    {
      "inputs": [
        {
          "internalType": "uint256",
          "name": "reward",
          "type": "uint256"
        }
      ],
      "name": "notifyRewardAmount",
      "outputs": [],
      "stateMutability": "nonpayable",
      "type": "function"
    },
    {
      "inputs": [],
      "name": "periodFinish",
      "outputs": [
        {
          "internalType": "uint256",
          "name": "",
          "type": "uint256"
        }
      ],
      "stateMutability": "view",
      "type": "function"
    },
    {
      "inputs": [],
      "name": "rewardPerToken",
      "outputs": [
        {
          "internalType": "uint256",
          "name": "",
          "type": "uint256"
        }
      ],
      "stateMutability": "view",
      "type": "function"
    },
    {
      "inputs": [],
      "name": "rewardPerTokenStored",
      "outputs": [
        {
          "internalType": "uint256",
          "name": "",
          "type": "uint256"
        }
      ],
      "stateMutability": "view",
      "type": "function"
    },
    {
      "inputs": [],
      "name": "rewardRate",
      "outputs": [
        {
          "internalType": "uint256",
          "name": "",
          "type": "uint256"
        }
      ],
      "stateMutability": "view",
      "type": "function"
    },
    {
      "inputs": [],
      "name": "rewardToken",
      "outputs": [
        {
          "internalType": "contract IERC20",
          "name": "",
          "type": "address"
        }
      ],
      "stateMutability": "view",
      "type": "function"
    },
    {
      "inputs": [
        {
          "internalType": "address",
          "name": "",
          "type": "address"
        }
      ],
      "name": "rewards",
      "outputs": [
        {
          "internalType": "uint256",
          "name": "",
          "type": "uint256"
        }
      ],
      "stateMutability": "view",
      "type": "function"
    },
    {
      "inputs": [],
      "name": "totalSupply",
      "outputs": [
        {
          "internalType": "uint256",
          "name": "",
          "type": "uint256"
        }
      ],
      "stateMutability": "view",
      "type": "function"
    },
    {
      "inputs": [
        {
          "internalType": "address",
          "name": "",
          "type": "address"
        }
      ],
      "name": "userRewardPerTokenPaid",
      "outputs": [
        {
          "internalType": "uint256",
          "name": "",
          "type": "uint256"
        }
      ],
      "stateMutability": "view",
      "type": "function"
    },
    {
      "inputs": [
        {
          "internalType": "uint256",
          "name": "amount",
          "type": "uint256"
        }
      ],
      "name": "withdraw",
      "outputs": [],
      "stateMutability": "nonpayable",
      "type": "function"
    },
    {
      "inputs": [],
      "name": "withdrawAll",
      "outputs": [],
      "stateMutability": "nonpayable",
      "type": "function"
    }
  ],
  "bytecode": "0x60c0604052600060035560006004553480156200001b57600080fd5b5060405162001a6338038062001a638339810160408190526200003e916200009e565b6001600081905580546001600160a01b03199081166001600160a01b03958616179091556002805490911692841692909217909155166080523360a052620000e8565b80516001600160a01b03811681146200009957600080fd5b919050565b600080600060608486031215620000b457600080fd5b620000bf8462000081565b9250620000cf6020850162000081565b9150620000df6040850162000081565b90509250925092565b60805160a0516119086200015b600039600081816102cd015281816104c8015281816105bb0152610e5c01526000818161031401528181610bcb01528181610d5001528181611086015281816110bb01528181611210015281816112ae0152818161133701526113bf01526119086000f3fe608060405234801561001057600080fd5b50600436106101ce5760003560e01c806382bfefc811610104578063cd3daf9d116100a2578063df136d6511610071578063df136d65146103d6578063ebe2b12b146103df578063f7c618c1146103e8578063f96dae0a146103fb57600080fd5b8063cd3daf9d146103aa578063d35e2544146103b2578063d7da4bb0146103c5578063de5f6268146103ce57600080fd5b80638b876347116100de5780638b8763471461035b57806396c551751461037b578063b6b55f251461038e578063c8f33c91146103a157600080fd5b806382bfefc81461030f578063853828b6146103365780638b0e888e1461033e57600080fd5b80633c6b16ab1161017157806370a082311161014b57806370a08231146102965780637b0a47ee146102bf5780637c91e4eb146102c857806380faa57d1461030757600080fd5b80633c6b16ab1461025b5780633d18b9121461026e57806363fb415b1461027657600080fd5b80631be05289116101ad5780631be05289146102215780631c1f78eb1461022b5780632e1a7d4d1461023357806336efd16f1461024857600080fd5b80628cc262146101d35780630700037d146101f957806318160ddd14610219575b600080fd5b6101e66101e13660046116c9565b61040e565b6040519081526020015b60405180910390f35b6101e66102073660046116c9565b60086020526000908152604090205481565b6009546101e6565b6101e662093a8081565b6101e661048b565b6102466102413660046116e6565b6104a3565b005b6102466102563660046116ff565b6104af565b6102466102693660046116e6565b6104bd565b610246610771565b6101e66102843660046116c9565b600c6020526000908152604090205481565b6101e66102a43660046116c9565b6001600160a01b03166000908152600b602052604090205490565b6101e660045481565b6102ef7f000000000000000000000000000000000000000000000000000000000000000081565b6040516001600160a01b0390911681526020016101f0565b6101e661088a565b6102ef7f000000000000000000000000000000000000000000000000000000000000000081565b610246610898565b6103466108b3565b604080519283526020830191909152016101f0565b6101e66103693660046116c9565b60076020526000908152604090205481565b6102466103893660046116c9565b6108f3565b61024661039c3660046116e6565b610959565b6101e660055481565b6101e6610963565b6101e66103c03660046116c9565b6109d2565b6101e6600a5481565b610246610bb2565b6101e660065481565b6101e660035481565b6001546102ef906001600160a01b031681565b6002546102ef906001600160a01b031681565b6001600160a01b0381166000908152600860209081526040808320546007909252822054670de0b6b3a764000090610444610963565b61044e9190611745565b6001600160a01b0385166000908152600c6020526040902054610471919061175c565b61047b919061177b565b610485919061179d565b92915050565b600062093a8060045461049e919061175c565b905090565b6104ac81610c44565b50565b6104b98282610dd5565b5050565b336001600160a01b037f0000000000000000000000000000000000000000000000000000000000000000161461054d5760405162461bcd60e51b815260206004820152602a60248201527f43616c6c6572206973206e6f742052657761726473446973747269627574696f6044820152691b8818dbdb9d1c9858dd60b21b60648201526084015b60405180910390fd5b6000610557610963565b60065561056261088a565b6005556001600160a01b038116156105a95761057d8161040e565b6001600160a01b0382166000908152600860209081526040808320939093556006546007909152919020555b6001546105e1906001600160a01b03167f0000000000000000000000000000000000000000000000000000000000000000308561114d565b60035442106105ff576105f762093a808361177b565b600455610641565b60004260035461060f9190611745565b9050600060045482610621919061175c565b905062093a80610631828661179d565b61063b919061177b565b60045550505b6001546040516370a0823160e01b81523060048201526000916001600160a01b0316906370a0823190602401602060405180830381865afa15801561068a573d6000803e3d6000fd5b505050506040513d601f19601f820116820180604052508101906106ae91906117b5565b90506106bd62093a808261177b565b600454111561070e5760405162461bcd60e51b815260206004820152601860248201527f50726f76696465642072657761726420746f6f206869676800000000000000006044820152606401610544565b4260058190556107229062093a809061179d565b6003556040518381527fde88a922e0d3b88b24e9623efeb464919c6bf9f66857a65e2bfcf2ce87a9433d9060200160405180910390a1506001600160a01b038116156104b9576104b9816108f3565b600260005414156107945760405162461bcd60e51b8152600401610544906117ce565b6002600055336107a2610963565b6006556107ad61088a565b6005556001600160a01b038116156107f4576107c88161040e565b6001600160a01b0382166000908152600860209081526040808320939093556006546007909152919020555b3360009081526008602052604090205480156108695733600081815260086020526040812055600154610833916001600160a01b0390911690836111be565b60405181815233907fe2403640ba68fed3a2f88b7557551d1993f84b99bb10ff833f0cf8db0c5e04869060200160405180910390a25b506001600160a01b0381161561088257610882816108f3565b506001600055565b600061049e426003546111f3565b336000908152600b60205260409020546108b190610c44565b565b600080600260005414156108d95760405162461bcd60e51b8152600401610544906117ce565b60026000556108e661120b565b9150915060016000559091565b6001600160a01b0381166000908152600c6020526040902054600a5461091a908290611745565b600a55610926826109d2565b6001600160a01b0383166000908152600c60205260409020819055600a5490915061095290829061179d565b600a555050565b6104ac8133610dd5565b6000600a54600014156109765750600090565b600954610984575060065490565b600a5460045460055461099561088a565b61099f9190611745565b6109a9919061175c565b6109bb90670de0b6b3a764000061175c565b6109c5919061177b565b60065461049e919061179d565b600254604080516318160ddd60e01b815290516000926001600160a01b0316916318160ddd9160048083019260209291908290030181865afa158015610a1c573d6000803e3d6000fd5b505050506040513d601f19601f82011682018060405250810190610a4091906117b5565b610a4c57506000919050565b6001600160a01b0382166000908152600b6020526040812054906064610a7383602861175c565b610a7d919061177b565b905060006064600260009054906101000a90046001600160a01b03166001600160a01b03166318160ddd6040518163ffffffff1660e01b8152600401602060405180830381865afa158015610ad6573d6000803e3d6000fd5b505050506040513d601f19601f82011682018060405250810190610afa91906117b5565b6002546040516370a0823160e01b81526001600160a01b038981166004830152909116906370a0823190602401602060405180830381865afa158015610b44573d6000803e3d6000fd5b505050506040513d601f19601f82011682018060405250810190610b6891906117b5565b600954610b75919061175c565b610b7f919061177b565b610b8a90603c61175c565b610b94919061177b565b9050610ba9610ba3828461179d565b846111f3565b95945050505050565b6040516370a0823160e01b81523360048201526108b1907f00000000000000000000000000000000000000000000000000000000000000006001600160a01b0316906370a0823190602401602060405180830381865afa158015610c1a573d6000803e3d6000fd5b505050506040513d601f19601f82011682018060405250810190610c3e91906117b5565b33610dd5565b60026000541415610c675760405162461bcd60e51b8152600401610544906117ce565b600260005533610c75610963565b600655610c8061088a565b6005556001600160a01b03811615610cc757610c9b8161040e565b6001600160a01b0382166000908152600860209081526040808320939093556006546007909152919020555b60008211610d0b5760405162461bcd60e51b8152602060048201526011602482015270043616e6e6f74207769746864726177203607c1b6044820152606401610544565b81600954610d199190611745565b600955336000908152600b6020526040902054610d37908390611745565b336000818152600b6020526040902091909155610d7f907f00000000000000000000000000000000000000000000000000000000000000006001600160a01b031690846111be565b60405182815233907f7084f5476618d8e60b11ef0d7d3f06914655adb8793e28ff7f018d4c76d505d59060200160405180910390a26001600160a01b03811615610dcc57610dcc816108f3565b50506001600055565b60026000541415610df85760405162461bcd60e51b8152600401610544906117ce565b600260005580610e06610963565b600655610e1161088a565b6005556001600160a01b03811615610e5857610e2c8161040e565b6001600160a01b0382166000908152600860209081526040808320939093556006546007909152919020555b60007f000000000000000000000000000000000000000000000000000000000000000090506000816001600160a01b0316633b19e84a6040518163ffffffff1660e01b8152600401602060405180830381865afa158015610ebd573d6000803e3d6000fd5b505050506040513d601f19601f82011682018060405250810190610ee19190611805565b90506000826001600160a01b031663d7459b996040518163ffffffff1660e01b8152600401602060405180830381865afa158015610f23573d6000803e3d6000fd5b505050506040513d601f19601f82011682018060405250810190610f4791906117b5565b90506001600160a01b038216610fb15760405162461bcd60e51b815260206004820152602960248201527f6465706f736974284761756765293a20747265617375727920686176656e2774604482015268081899595b881cd95d60ba1b6064820152608401610544565b600086116110015760405162461bcd60e51b815260206004820152601e60248201527f6465706f736974284761756765293a2063616e6e6f74207374616b65203000006044820152606401610544565b6000612710611010838961175c565b61101a919061177b565b905060006110288289611745565b6001600160a01b0388166000908152600b602052604090205490915061104f90829061179d565b6001600160a01b0388166000908152600b602052604090205560095461107690829061179d565b6009556110ae6001600160a01b037f00000000000000000000000000000000000000000000000000000000000000001688308b61114d565b6110e26001600160a01b037f00000000000000000000000000000000000000000000000000000000000000001685846111be565b866001600160a01b03167f9e71bc8eea02a63969f509818f2dafb9254532904319f9dbda79b67bd34a5f3d8260405161111d91815260200190565b60405180910390a2505050506001600160a01b03821615905061114357611143816108f3565b5050600160005550565b6040516001600160a01b03808516602483015283166044820152606481018290526111b89085906323b872dd60e01b906084015b60408051601f198184030181529190526020810180516001600160e01b03166001600160e01b0319909316929092179091526114f1565b50505050565b6040516001600160a01b0383166024820152604481018290526111ee90849063a9059cbb60e01b90606401611181565b505050565b60008183106112025781611204565b825b9392505050565b6000807f00000000000000000000000000000000000000000000000000000000000000006001600160a01b031663d294f0936040518163ffffffff1660e01b815260040160408051808303816000875af115801561126d573d6000803e3d6000fd5b505050506040513d601f19601f820116820180604052508101906112919190611822565b9092509050811515806112a45750600081115b156114ed576000807f00000000000000000000000000000000000000000000000000000000000000006001600160a01b0316639d63848a6040518163ffffffff1660e01b815260040160408051808303816000875af115801561130b573d6000803e3d6000fd5b505050506040513d601f19601f8201168201806040525081019061132f9190611846565b9150915060007f00000000000000000000000000000000000000000000000000000000000000006001600160a01b031663149f2b276040518163ffffffff1660e01b81526004016020604051808303816000875af1158015611395573d6000803e3d6000fd5b505050506040513d601f19601f820116820180604052508101906113b99190611805565b905060007f00000000000000000000000000000000000000000000000000000000000000006001600160a01b0316638ce744266040518163ffffffff1660e01b81526004016020604051808303816000875af115801561141d573d6000803e3d6000fd5b505050506040513d601f19601f820116820180604052508101906114419190611805565b90508515611478576114698261145860028961177b565b6001600160a01b03871691906111be565b6114788161145860028961177b565b84156114ad5761149e8261148d60028861177b565b6001600160a01b03861691906111be565b6114ad8161148d60028861177b565b604080518781526020810187905233917fd9b982883d6f1d237dbf653d6baf27ba3264fa2a489737131b3cb7aef4fe40de910160405180910390a2505050505b9091565b611503826001600160a01b0316611678565b61154f5760405162461bcd60e51b815260206004820152601f60248201527f5361666545524332303a2063616c6c20746f206e6f6e2d636f6e7472616374006044820152606401610544565b600080836001600160a01b03168360405161156a9190611875565b6000604051808303816000865af19150503d80600081146115a7576040519150601f19603f3d011682016040523d82523d6000602084013e6115ac565b606091505b5091509150816115fe5760405162461bcd60e51b815260206004820181905260248201527f5361666545524332303a206c6f772d6c6576656c2063616c6c206661696c65646044820152606401610544565b8051156111b8578080602001905181019061161991906118b0565b6111b85760405162461bcd60e51b815260206004820152602a60248201527f5361666545524332303a204552433230206f7065726174696f6e20646964206e6044820152691bdd081cdd58d8d9595960b21b6064820152608401610544565b6000813f7fc5d2460186f7233c927e7db2dcc703c0e500b653ca82273b7bfad8045d85a47081158015906116ac5750808214155b949350505050565b6001600160a01b03811681146104ac57600080fd5b6000602082840312156116db57600080fd5b8135611204816116b4565b6000602082840312156116f857600080fd5b5035919050565b6000806040838503121561171257600080fd5b823591506020830135611724816116b4565b809150509250929050565b634e487b7160e01b600052601160045260246000fd5b6000828210156117575761175761172f565b500390565b60008160001904831182151516156117765761177661172f565b500290565b60008261179857634e487b7160e01b600052601260045260246000fd5b500490565b600082198211156117b0576117b061172f565b500190565b6000602082840312156117c757600080fd5b5051919050565b6020808252601f908201527f5265656e7472616e637947756172643a207265656e7472616e742063616c6c00604082015260600190565b60006020828403121561181757600080fd5b8151611204816116b4565b6000806040838503121561183557600080fd5b505080516020909101519092909150565b6000806040838503121561185957600080fd5b8251611864816116b4565b6020840151909250611724816116b4565b6000825160005b81811015611896576020818601810151858301520161187c565b818111156118a5576000828501525b509190910192915050565b6000602082840312156118c257600080fd5b8151801515811461120457600080fdfea264697066735822122059b1ed6b29d3c836b237226db8acba080ce94886ea2bd07de2e740a24417145f64736f6c634300080b0033",
  "linkReferences": {},
  "deployedLinkReferences": {}
}