{
  "_format": "hh-sol-artifact-1",
  "contractName": "AdminGaugeProxy",
  "sourceName": "contracts/spirit-v2-farming/AdminGaugeProxy.sol",
  "abi": [
    {
      "inputs": [
        {
          "internalType": "address",
          "name": "_masterChef",
          "type": "address"
        },
        {
          "internalType": "address",
          "name": "_spirit",
          "type": "address"
        },
        {
          "internalType": "address",
          "name": "_inSpirit",
          "type": "address"
        },
        {
          "internalType": "address",
          "name": "_treasury",
          "type": "address"
        },
        {
          "internalType": "address",
          "name": "_feeDist",
          "type": "address"
        },
        {
          "internalType": "uint256",
          "name": "_depositFeeRate",
          "type": "uint256"
        }
      ],
      "stateMutability": "nonpayable",
      "type": "constructor"
    },
    {
      "anonymous": false,
      "inputs": [
        {
          "indexed": false,
          "internalType": "uint256",
          "name": "spiritRewards",
          "type": "uint256"
        }
      ],
      "name": "Distributed",
      "type": "event"
    },
    {
      "inputs": [],
      "name": "MASTER",
      "outputs": [
        {
          "internalType": "contract MasterChef",
          "name": "",
          "type": "address"
        }
      ],
      "stateMutability": "view",
      "type": "function"
    },
    {
      "inputs": [],
      "name": "TOKEN",
      "outputs": [
        {
          "internalType": "contract IERC20",
          "name": "",
          "type": "address"
        }
      ],
      "stateMutability": "view",
      "type": "function"
    },
    {
      "inputs": [],
      "name": "acceptGovernance",
      "outputs": [],
      "stateMutability": "nonpayable",
      "type": "function"
    },
    {
      "inputs": [
        {
          "internalType": "address",
          "name": "_token",
          "type": "address"
        }
      ],
      "name": "addGauge",
      "outputs": [
        {
          "internalType": "address",
          "name": "",
          "type": "address"
        }
      ],
      "stateMutability": "nonpayable",
      "type": "function"
    },
    {
      "inputs": [],
      "name": "admin",
      "outputs": [
        {
          "internalType": "address",
          "name": "",
          "type": "address"
        }
      ],
      "stateMutability": "view",
      "type": "function"
    },
    {
      "inputs": [],
      "name": "collect",
      "outputs": [],
      "stateMutability": "nonpayable",
      "type": "function"
    },
    {
      "inputs": [],
      "name": "deposit",
      "outputs": [],
      "stateMutability": "nonpayable",
      "type": "function"
    },
    {
      "inputs": [],
      "name": "depositFeeRate",
      "outputs": [
        {
          "internalType": "uint256",
          "name": "",
          "type": "uint256"
        }
      ],
      "stateMutability": "view",
      "type": "function"
    },
    {
      "inputs": [],
      "name": "distribute",
      "outputs": [],
      "stateMutability": "nonpayable",
      "type": "function"
    },
    {
      "inputs": [],
      "name": "feeDistAddr",
      "outputs": [
        {
          "internalType": "address",
          "name": "",
          "type": "address"
        }
      ],
      "stateMutability": "view",
      "type": "function"
    },
    {
      "inputs": [
        {
          "internalType": "address",
          "name": "",
          "type": "address"
        }
      ],
      "name": "gaugeWeights",
      "outputs": [
        {
          "internalType": "uint256",
          "name": "",
          "type": "uint256"
        }
      ],
      "stateMutability": "view",
      "type": "function"
    },
    {
      "inputs": [
        {
          "internalType": "address",
          "name": "",
          "type": "address"
        }
      ],
      "name": "gauges",
      "outputs": [
        {
          "internalType": "address",
          "name": "",
          "type": "address"
        }
      ],
      "stateMutability": "view",
      "type": "function"
    },
    {
      "inputs": [],
      "name": "getDepositFeeRate",
      "outputs": [
        {
          "internalType": "uint256",
          "name": "",
          "type": "uint256"
        }
      ],
      "stateMutability": "view",
      "type": "function"
    },
    {
      "inputs": [
        {
          "internalType": "address",
          "name": "_token",
          "type": "address"
        }
      ],
      "name": "getGauge",
      "outputs": [
        {
          "internalType": "address",
          "name": "",
          "type": "address"
        }
      ],
      "stateMutability": "view",
      "type": "function"
    },
    {
      "inputs": [],
      "name": "getTreasury",
      "outputs": [
        {
          "internalType": "address",
          "name": "",
          "type": "address"
        }
      ],
      "stateMutability": "view",
      "type": "function"
    },
    {
      "inputs": [],
      "name": "governance",
      "outputs": [
        {
          "internalType": "address",
          "name": "",
          "type": "address"
        }
      ],
      "stateMutability": "view",
      "type": "function"
    },
    {
      "inputs": [],
      "name": "governanceToken",
      "outputs": [
        {
          "internalType": "contract IERC20",
          "name": "",
          "type": "address"
        }
      ],
      "stateMutability": "view",
      "type": "function"
    },
    {
      "inputs": [],
      "name": "length",
      "outputs": [
        {
          "internalType": "uint256",
          "name": "",
          "type": "uint256"
        }
      ],
      "stateMutability": "view",
      "type": "function"
    },
    {
      "inputs": [],
      "name": "pendingGovernance",
      "outputs": [
        {
          "internalType": "address",
          "name": "",
          "type": "address"
        }
      ],
      "stateMutability": "view",
      "type": "function"
    },
    {
      "inputs": [],
      "name": "pid",
      "outputs": [
        {
          "internalType": "uint256",
          "name": "",
          "type": "uint256"
        }
      ],
      "stateMutability": "view",
      "type": "function"
    },
    {
      "inputs": [],
      "name": "rewardToken",
      "outputs": [
        {
          "internalType": "contract IERC20",
          "name": "",
          "type": "address"
        }
      ],
      "stateMutability": "view",
      "type": "function"
    },
    {
      "inputs": [
        {
          "internalType": "address",
          "name": "_admin",
          "type": "address"
        }
      ],
      "name": "setAdmin",
      "outputs": [],
      "stateMutability": "nonpayable",
      "type": "function"
    },
    {
      "inputs": [
        {
          "internalType": "address",
          "name": "_token",
          "type": "address"
        },
        {
          "internalType": "uint256",
          "name": "_weight",
          "type": "uint256"
        }
      ],
      "name": "setGaugeWeight",
      "outputs": [],
      "stateMutability": "nonpayable",
      "type": "function"
    },
    {
      "inputs": [
        {
          "internalType": "address",
          "name": "_governance",
          "type": "address"
        }
      ],
      "name": "setGovernance",
      "outputs": [],
      "stateMutability": "nonpayable",
      "type": "function"
    },
    {
      "inputs": [
        {
          "internalType": "uint256",
          "name": "_pid",
          "type": "uint256"
        }
      ],
      "name": "setPID",
      "outputs": [],
      "stateMutability": "nonpayable",
      "type": "function"
    },
    {
      "inputs": [],
      "name": "toggleVE",
      "outputs": [],
      "stateMutability": "nonpayable",
      "type": "function"
    },
    {
      "inputs": [],
      "name": "tokens",
      "outputs": [
        {
          "internalType": "address[]",
          "name": "",
          "type": "address[]"
        }
      ],
      "stateMutability": "view",
      "type": "function"
    },
    {
      "inputs": [],
      "name": "totalWeight",
      "outputs": [
        {
          "internalType": "uint256",
          "name": "",
          "type": "uint256"
        }
      ],
      "stateMutability": "view",
      "type": "function"
    },
    {
      "inputs": [],
      "name": "treasury",
      "outputs": [
        {
          "internalType": "address",
          "name": "",
          "type": "address"
        }
      ],
      "stateMutability": "view",
      "type": "function"
    },
    {
      "inputs": [
        {
          "internalType": "uint256",
          "name": "_depositFeeRate",
          "type": "uint256"
        }
      ],
      "name": "updateDepositFeeRate",
      "outputs": [],
      "stateMutability": "nonpayable",
      "type": "function"
    },
    {
      "inputs": [
        {
          "internalType": "address",
          "name": "_feeDistAddr",
          "type": "address"
        }
      ],
      "name": "updateFeeDistributor",
      "outputs": [],
      "stateMutability": "nonpayable",
      "type": "function"
    },
    {
      "inputs": [
        {
          "internalType": "address",
          "name": "_treasury",
          "type": "address"
        }
      ],
      "name": "updateTreasury",
      "outputs": [],
      "stateMutability": "nonpayable",
      "type": "function"
    },
    {
      "inputs": [],
      "name": "ve",
      "outputs": [
        {
          "internalType": "bool",
          "name": "",
          "type": "bool"
        }
      ],
      "stateMutability": "view",
      "type": "function"
    }
  ],
  "bytecode": "0x60a060405260001960055560006006556007805460ff191690553480156200002657600080fd5b5060405162003bb338038062003bb3833981016040819052620000499162000149565b600280546001600160a01b038089166001600160a01b03199283161790925560048054888416908316179055600380549287169290911691909117905560405162000094906200011e565b604051809103906000f080158015620000b1573d6000803e3d6000fd5b506001600160a01b03908116608052600080546001600160a01b031990811633908117909255600a80548216909217909155600980549583169590911694909417909355600655600780549190921661010002610100600160a81b031990911617905550620001c1915050565b6106b1806200350283390190565b80516001600160a01b03811681146200014457600080fd5b919050565b60008060008060008060c087890312156200016357600080fd5b6200016e876200012c565b95506200017e602088016200012c565b94506200018e604088016200012c565b93506200019e606088016200012c565b9250620001ae608088016200012c565b915060a087015190509295509295509295565b60805161331e620001e4600039600081816103320152610c6a015261331e6000f3fe60806040523480156200001157600080fd5b5060043610620002255760003560e01c806396c82e571162000131578063d7459b9911620000bb578063f39c38a01162000086578063f39c38a014620004a3578063f7c618c114620004b7578063f851a44014620004cb578063f96dae0a14620004df578063f9b2fe2714620004f357600080fd5b8063d7459b99146200047c578063e4fc6b6d1462000485578063e5225381146200048f578063f1068454146200049957600080fd5b8063b1c6f0e911620000fc578063b1c6f0e914620003f4578063b9a09fd51462000423578063d0e30db0146200044f578063d6f6ab19146200045957600080fd5b806396c82e5714620003a35780639d63848a14620003ad5780639da882ac14620003c6578063ab033ea914620003dd57600080fd5b806361d027b311620001b357806383c17e7b116200017e57806383c17e7b1462000354578063852cb9b8146200036b5780638d06051914620003755780638d57bba4146200038c57600080fd5b806361d027b314620002ea578063704b6c0214620002fe5780637f51bb1f146200031557806382bfefc8146200032c57600080fd5b8063471aedc211620001f4578063471aedc214620002925780634c904f2c14620002a65780635aa6e67514620002bf57806360c73bf214620002d357600080fd5b80631f7b6d32146200022a5780631f8507161462000241578063238efcbc14620002605780633b19e84a146200026c575b600080fd5b6008545b6040519081526020015b60405180910390f35b6007546200024f9060ff1681565b604051901515815260200162000238565b6200026a620004fd565b005b6009546001600160a01b03165b6040516001600160a01b03909116815260200162000238565b60025462000279906001600160a01b031681565b600754620002799061010090046001600160a01b031681565b60005462000279906001600160a01b031681565b6200026a620002e436600462001665565b62000581565b60095462000279906001600160a01b031681565b6200026a6200030f36600462001665565b6200062f565b6200026a6200032636600462001665565b62000696565b620002797f000000000000000000000000000000000000000000000000000000000000000081565b6200026a620003653660046200168a565b62000722565b6200022e60065481565b6200026a620003863660046200168a565b62000801565b6200026a6200039d366004620016a4565b6200084b565b6200022e600b5481565b620003b762000920565b604051620002389190620016d1565b62000279620003d736600462001665565b62000984565b6200026a620003ee36600462001665565b62000b95565b620002796200040536600462001665565b6001600160a01b039081166000908152600c60205260409020541690565b620002796200043436600462001665565b600c602052600090815260409020546001600160a01b031681565b6200026a62000c09565b6200022e6200046a36600462001665565b600d6020526000908152604090205481565b6006546200022e565b6200026a62000d96565b6200026a62001160565b6200022e60055481565b60015462000279906001600160a01b031681565b60045462000279906001600160a01b031681565b600a5462000279906001600160a01b031681565b60035462000279906001600160a01b031681565b6200026a62001254565b6001546001600160a01b031633146200055d5760405162461bcd60e51b815260206004820152601d60248201527f616363657074476f7665726e616e63653a202170656e64696e67476f7600000060448201526064015b60405180910390fd5b600154600080546001600160a01b0319166001600160a01b03909216919091179055565b6000546001600160a01b0316331480620005a55750600a546001600160a01b031633145b620006075760405162461bcd60e51b815260206004820152602b60248201527f7570646174654665654465737472696275746f723a207065726d697373696f6e60448201526a2069732064656e6965642160a81b606482015260840162000554565b600780546001600160a01b0390921661010002610100600160a81b0319909216919091179055565b6000546001600160a01b03163314620006745760405162461bcd60e51b8152600401620005549060208082526004908201526310b3b7bb60e11b604082015260600190565b600a80546001600160a01b0319166001600160a01b0392909216919091179055565b6000546001600160a01b03163314620007005760405162461bcd60e51b815260206004820152602560248201527f75706461746554726561737572793a207065726d697373696f6e2069732064656044820152646e6965642160d81b606482015260840162000554565b600980546001600160a01b0319166001600160a01b0392909216919091179055565b6000546001600160a01b03163314620007925760405162461bcd60e51b815260206004820152602b60248201527f7570646174654465706f736974466565526174653a207065726d697373696f6e60448201526a2069732064656e6965642160a81b606482015260840162000554565b6107d0811115620007fc5760405162461bcd60e51b815260206004820152602d60248201527f7570646174654465706f736974466565526174653a2063616e6e6f742065786560448201526c6365656420746865203230252160981b606482015260840162000554565b600655565b6000546001600160a01b03163314620008465760405162461bcd60e51b8152600401620005549060208082526004908201526310b3b7bb60e11b604082015260600190565b600555565b6000546001600160a01b03163314806200086f5750600a546001600160a01b031633145b6200087957600080fd5b6001600160a01b038281166000908152600c602052604090205416620008cc5760405162461bcd60e51b81526020600482015260076024820152662165786973747360c81b604482015260640162000554565b6001600160a01b0382166000908152600d6020526040902054600b548291620008f59162001736565b62000901919062001750565b600b556001600160a01b039091166000908152600d6020526040902055565b606060088054806020026020016040519081016040528092919081815260200182805480156200097a57602002820191906000526020600020905b81546001600160a01b031681526001909101906020018083116200095b575b5050505050905090565b600080546001600160a01b0316331480620009a95750600a546001600160a01b031633145b620009e85760405162461bcd60e51b815260206004820152600e60248201526d10b3b7bb1037b91010b0b236b4b760911b604482015260640162000554565b6009546001600160a01b031662000a5e5760405162461bcd60e51b815260206004820152603360248201527f61646447617567653a20747265617572792073686f756c6420626520736574206044820152723132b337b9329032bb32b93c9030b1ba34b7b760691b606482015260840162000554565b6001600160a01b038281166000908152600c6020526040902054161562000ab15760405162461bcd60e51b815260206004820152600660248201526565786973747360d01b604482015260640162000554565b6004546003546040516001600160a01b039283169290911690849062000ad7906200163a565b6001600160a01b03938416815291831660208301529091166040820152606001604051809103906000f08015801562000b14573d6000803e3d6000fd5b506001600160a01b039283166000818152600c6020818152604080842080549689166001600160a01b0319978816178155600d835290842084905560088054600181019091557ff3f7a9fe364faab93b216da50a3214154f22a0a2b415b23a84c8169e8b636ee3018054909616851790955592909152905254909116919050565b6000546001600160a01b0316331462000be75760405162461bcd60e51b815260206004820152601360248201527239b2ba23b7bb32b93730b731b29d1010b3b7bb60691b604482015260640162000554565b600180546001600160a01b0319166001600160a01b0392909216919091179055565b600019600554141562000c555760405162461bcd60e51b81526020600482015260136024820152721c1a59081b9bdd081a5b9a5d1a585b1a5e9959606a1b604482015260640162000554565b6040516370a0823160e01b81523060048201527f0000000000000000000000000000000000000000000000000000000000000000906000906001600160a01b038316906370a0823190602401602060405180830381865afa15801562000cbf573d6000803e3d6000fd5b505050506040513d601f19601f8201168201806040525081019062000ce591906200176b565b60025490915062000d05906001600160a01b0384811691166000620012da565b60025462000d21906001600160a01b03848116911683620012da565b600254600554604051631c57762b60e31b81526001600160a01b039092169163e2bbb1589162000d5e918590600401918252602082015260400190565b600060405180830381600087803b15801562000d7957600080fd5b505af115801562000d8e573d6000803e3d6000fd5b505050505050565b62000da062001160565b600480546040516370a0823160e01b815230928101929092526000916001600160a01b03909116906370a0823190602401602060405180830381865afa15801562000def573d6000803e3d6000fd5b505050506040513d601f19601f8201168201806040525081019062000e1591906200176b565b60075490915060009060ff161562000f7957600480546003546040516370a0823160e01b81526001600160a01b03918216938101939093526000929116906370a0823190602401602060405180830381865afa15801562000e7a573d6000803e3d6000fd5b505050506040513d601f19601f8201168201806040525081019062000ea091906200176b565b90506000600460009054906101000a90046001600160a01b03166001600160a01b03166318160ddd6040518163ffffffff1660e01b8152600401602060405180830381865afa15801562000ef8573d6000803e3d6000fd5b505050506040513d601f19601f8201168201806040525081019062000f1e91906200176b565b90508062000f2d838662001785565b62000f399190620017a7565b9250821562000f765760075460045462000f67916001600160a01b039182169161010090910416856200142f565b62000f73838562001736565b93505b50505b8115620011295760005b60085481101562001127576000600d60006008848154811062000faa5762000faa620017ca565b60009182526020808320909101546001600160a01b03168352820192909252604001902054111562001112576000600b54600d60006008858154811062000ff55762000ff5620017ca565b60009182526020808320909101546001600160a01b0316835282019290925260400190205462001026908662001785565b620010329190620017a7565b90506000600883815481106200104c576200104c620017ca565b60009182526020808320909101546001600160a01b03908116808452600c9092526040909220549092501682156200110e5760045462001098906001600160a01b0316826000620012da565b600454620010b1906001600160a01b03168285620012da565b604051633c6b16ab60e01b8152600481018490526001600160a01b03821690633c6b16ab90602401600060405180830381600087803b158015620010f457600080fd5b505af115801562001109573d6000803e3d6000fd5b505050505b5050505b806200111e81620017e0565b91505062000f83565b505b6040518181527fddc9c30275a04c48091f24199f9c405765de34d979d6847f5b9798a57232d2e59060200160405180910390a15050565b6002546005546040516393f1a40b60e01b815260048101919091523060248201526000916001600160a01b0316906393f1a40b906044016040805180830381865afa158015620011b4573d6000803e3d6000fd5b505050506040513d601f19601f82011682018060405250810190620011da9190620017fe565b50600254600554604051630441a3e760e41b81526004810191909152602481018390529192506001600160a01b03169063441a3e7090604401600060405180830381600087803b1580156200122e57600080fd5b505af115801562001243573d6000803e3d6000fd5b505050506200125162000c09565b50565b6000546001600160a01b0316331480620012785750600a546001600160a01b031633145b620012c65760405162461bcd60e51b815260206004820152601f60248201527f7475726e56654f6e3a207065726d697373696f6e2069732064656e6965642100604482015260640162000554565b6007805460ff19811660ff90911615179055565b801580620013585750604051636eb1769f60e11b81523060048201526001600160a01b03838116602483015284169063dd62ed3e90604401602060405180830381865afa15801562001330573d6000803e3d6000fd5b505050506040513d601f19601f820116820180604052508101906200135691906200176b565b155b620013c55760405162461bcd60e51b815260206004820152603660248201527f5361666545524332303a20617070726f76652066726f6d206e6f6e2d7a65726f60448201527520746f206e6f6e2d7a65726f20616c6c6f77616e636560501b606482015260840162000554565b6040516001600160a01b0383166024820152604481018290526200142a90849063095ea7b360e01b906064015b60408051601f198184030181529190526020810180516001600160e01b03166001600160e01b03199093169290921790915262001461565b505050565b6040516001600160a01b0383166024820152604481018290526200142a90849063a9059cbb60e01b90606401620013f2565b62001475826001600160a01b0316620015fd565b620014c35760405162461bcd60e51b815260206004820152601f60248201527f5361666545524332303a2063616c6c20746f206e6f6e2d636f6e747261637400604482015260640162000554565b600080836001600160a01b031683604051620014e0919062001823565b6000604051808303816000865af19150503d80600081146200151f576040519150601f19603f3d011682016040523d82523d6000602084013e62001524565b606091505b509150915081620015785760405162461bcd60e51b815260206004820181905260248201527f5361666545524332303a206c6f772d6c6576656c2063616c6c206661696c6564604482015260640162000554565b805115620015f7578080602001905181019062001596919062001861565b620015f75760405162461bcd60e51b815260206004820152602a60248201527f5361666545524332303a204552433230206f7065726174696f6e20646964206e6044820152691bdd081cdd58d8d9595960b21b606482015260840162000554565b50505050565b6000813f7fc5d2460186f7233c927e7db2dcc703c0e500b653ca82273b7bfad8045d85a4708115801590620016325750808214155b949350505050565b611a63806200188683390190565b80356001600160a01b03811681146200166057600080fd5b919050565b6000602082840312156200167857600080fd5b620016838262001648565b9392505050565b6000602082840312156200169d57600080fd5b5035919050565b60008060408385031215620016b857600080fd5b620016c38362001648565b946020939093013593505050565b6020808252825182820181905260009190848201906040850190845b81811015620017145783516001600160a01b031683529284019291840191600101620016ed565b50909695505050505050565b634e487b7160e01b600052601160045260246000fd5b6000828210156200174b576200174b62001720565b500390565b6000821982111562001766576200176662001720565b500190565b6000602082840312156200177e57600080fd5b5051919050565b6000816000190483118215151615620017a257620017a262001720565b500290565b600082620017c557634e487b7160e01b600052601260045260246000fd5b500490565b634e487b7160e01b600052603260045260246000fd5b6000600019821415620017f757620017f762001720565b5060010190565b600080604083850312156200181257600080fd5b505080516020909101519092909150565b6000825160005b818110156200184657602081860181015185830152016200182a565b8181111562001856576000828501525b509190910192915050565b6000602082840312156200187457600080fd5b815180151581146200168357600080fdfe60c0604052600060035560006004553480156200001b57600080fd5b5060405162001a6338038062001a638339810160408190526200003e916200009e565b6001600081905580546001600160a01b03199081166001600160a01b03958616179091556002805490911692841692909217909155166080523360a052620000e8565b80516001600160a01b03811681146200009957600080fd5b919050565b600080600060608486031215620000b457600080fd5b620000bf8462000081565b9250620000cf6020850162000081565b9150620000df6040850162000081565b90509250925092565b60805160a0516119086200015b600039600081816102cd015281816104c8015281816105bb0152610e5c01526000818161031401528181610bcb01528181610d5001528181611086015281816110bb01528181611210015281816112ae0152818161133701526113bf01526119086000f3fe608060405234801561001057600080fd5b50600436106101ce5760003560e01c806382bfefc811610104578063cd3daf9d116100a2578063df136d6511610071578063df136d65146103d6578063ebe2b12b146103df578063f7c618c1146103e8578063f96dae0a146103fb57600080fd5b8063cd3daf9d146103aa578063d35e2544146103b2578063d7da4bb0146103c5578063de5f6268146103ce57600080fd5b80638b876347116100de5780638b8763471461035b57806396c551751461037b578063b6b55f251461038e578063c8f33c91146103a157600080fd5b806382bfefc81461030f578063853828b6146103365780638b0e888e1461033e57600080fd5b80633c6b16ab1161017157806370a082311161014b57806370a08231146102965780637b0a47ee146102bf5780637c91e4eb146102c857806380faa57d1461030757600080fd5b80633c6b16ab1461025b5780633d18b9121461026e57806363fb415b1461027657600080fd5b80631be05289116101ad5780631be05289146102215780631c1f78eb1461022b5780632e1a7d4d1461023357806336efd16f1461024857600080fd5b80628cc262146101d35780630700037d146101f957806318160ddd14610219575b600080fd5b6101e66101e13660046116c9565b61040e565b6040519081526020015b60405180910390f35b6101e66102073660046116c9565b60086020526000908152604090205481565b6009546101e6565b6101e662093a8081565b6101e661048b565b6102466102413660046116e6565b6104a3565b005b6102466102563660046116ff565b6104af565b6102466102693660046116e6565b6104bd565b610246610771565b6101e66102843660046116c9565b600c6020526000908152604090205481565b6101e66102a43660046116c9565b6001600160a01b03166000908152600b602052604090205490565b6101e660045481565b6102ef7f000000000000000000000000000000000000000000000000000000000000000081565b6040516001600160a01b0390911681526020016101f0565b6101e661088a565b6102ef7f000000000000000000000000000000000000000000000000000000000000000081565b610246610898565b6103466108b3565b604080519283526020830191909152016101f0565b6101e66103693660046116c9565b60076020526000908152604090205481565b6102466103893660046116c9565b6108f3565b61024661039c3660046116e6565b610959565b6101e660055481565b6101e6610963565b6101e66103c03660046116c9565b6109d2565b6101e6600a5481565b610246610bb2565b6101e660065481565b6101e660035481565b6001546102ef906001600160a01b031681565b6002546102ef906001600160a01b031681565b6001600160a01b0381166000908152600860209081526040808320546007909252822054670de0b6b3a764000090610444610963565b61044e9190611745565b6001600160a01b0385166000908152600c6020526040902054610471919061175c565b61047b919061177b565b610485919061179d565b92915050565b600062093a8060045461049e919061175c565b905090565b6104ac81610c44565b50565b6104b98282610dd5565b5050565b336001600160a01b037f0000000000000000000000000000000000000000000000000000000000000000161461054d5760405162461bcd60e51b815260206004820152602a60248201527f43616c6c6572206973206e6f742052657761726473446973747269627574696f6044820152691b8818dbdb9d1c9858dd60b21b60648201526084015b60405180910390fd5b6000610557610963565b60065561056261088a565b6005556001600160a01b038116156105a95761057d8161040e565b6001600160a01b0382166000908152600860209081526040808320939093556006546007909152919020555b6001546105e1906001600160a01b03167f0000000000000000000000000000000000000000000000000000000000000000308561114d565b60035442106105ff576105f762093a808361177b565b600455610641565b60004260035461060f9190611745565b9050600060045482610621919061175c565b905062093a80610631828661179d565b61063b919061177b565b60045550505b6001546040516370a0823160e01b81523060048201526000916001600160a01b0316906370a0823190602401602060405180830381865afa15801561068a573d6000803e3d6000fd5b505050506040513d601f19601f820116820180604052508101906106ae91906117b5565b90506106bd62093a808261177b565b600454111561070e5760405162461bcd60e51b815260206004820152601860248201527f50726f76696465642072657761726420746f6f206869676800000000000000006044820152606401610544565b4260058190556107229062093a809061179d565b6003556040518381527fde88a922e0d3b88b24e9623efeb464919c6bf9f66857a65e2bfcf2ce87a9433d9060200160405180910390a1506001600160a01b038116156104b9576104b9816108f3565b600260005414156107945760405162461bcd60e51b8152600401610544906117ce565b6002600055336107a2610963565b6006556107ad61088a565b6005556001600160a01b038116156107f4576107c88161040e565b6001600160a01b0382166000908152600860209081526040808320939093556006546007909152919020555b3360009081526008602052604090205480156108695733600081815260086020526040812055600154610833916001600160a01b0390911690836111be565b60405181815233907fe2403640ba68fed3a2f88b7557551d1993f84b99bb10ff833f0cf8db0c5e04869060200160405180910390a25b506001600160a01b0381161561088257610882816108f3565b506001600055565b600061049e426003546111f3565b336000908152600b60205260409020546108b190610c44565b565b600080600260005414156108d95760405162461bcd60e51b8152600401610544906117ce565b60026000556108e661120b565b9150915060016000559091565b6001600160a01b0381166000908152600c6020526040902054600a5461091a908290611745565b600a55610926826109d2565b6001600160a01b0383166000908152600c60205260409020819055600a5490915061095290829061179d565b600a555050565b6104ac8133610dd5565b6000600a54600014156109765750600090565b600954610984575060065490565b600a5460045460055461099561088a565b61099f9190611745565b6109a9919061175c565b6109bb90670de0b6b3a764000061175c565b6109c5919061177b565b60065461049e919061179d565b600254604080516318160ddd60e01b815290516000926001600160a01b0316916318160ddd9160048083019260209291908290030181865afa158015610a1c573d6000803e3d6000fd5b505050506040513d601f19601f82011682018060405250810190610a4091906117b5565b610a4c57506000919050565b6001600160a01b0382166000908152600b6020526040812054906064610a7383602861175c565b610a7d919061177b565b905060006064600260009054906101000a90046001600160a01b03166001600160a01b03166318160ddd6040518163ffffffff1660e01b8152600401602060405180830381865afa158015610ad6573d6000803e3d6000fd5b505050506040513d601f19601f82011682018060405250810190610afa91906117b5565b6002546040516370a0823160e01b81526001600160a01b038981166004830152909116906370a0823190602401602060405180830381865afa158015610b44573d6000803e3d6000fd5b505050506040513d601f19601f82011682018060405250810190610b6891906117b5565b600954610b75919061175c565b610b7f919061177b565b610b8a90603c61175c565b610b94919061177b565b9050610ba9610ba3828461179d565b846111f3565b95945050505050565b6040516370a0823160e01b81523360048201526108b1907f00000000000000000000000000000000000000000000000000000000000000006001600160a01b0316906370a0823190602401602060405180830381865afa158015610c1a573d6000803e3d6000fd5b505050506040513d601f19601f82011682018060405250810190610c3e91906117b5565b33610dd5565b60026000541415610c675760405162461bcd60e51b8152600401610544906117ce565b600260005533610c75610963565b600655610c8061088a565b6005556001600160a01b03811615610cc757610c9b8161040e565b6001600160a01b0382166000908152600860209081526040808320939093556006546007909152919020555b60008211610d0b5760405162461bcd60e51b8152602060048201526011602482015270043616e6e6f74207769746864726177203607c1b6044820152606401610544565b81600954610d199190611745565b600955336000908152600b6020526040902054610d37908390611745565b336000818152600b6020526040902091909155610d7f907f00000000000000000000000000000000000000000000000000000000000000006001600160a01b031690846111be565b60405182815233907f7084f5476618d8e60b11ef0d7d3f06914655adb8793e28ff7f018d4c76d505d59060200160405180910390a26001600160a01b03811615610dcc57610dcc816108f3565b50506001600055565b60026000541415610df85760405162461bcd60e51b8152600401610544906117ce565b600260005580610e06610963565b600655610e1161088a565b6005556001600160a01b03811615610e5857610e2c8161040e565b6001600160a01b0382166000908152600860209081526040808320939093556006546007909152919020555b60007f000000000000000000000000000000000000000000000000000000000000000090506000816001600160a01b0316633b19e84a6040518163ffffffff1660e01b8152600401602060405180830381865afa158015610ebd573d6000803e3d6000fd5b505050506040513d601f19601f82011682018060405250810190610ee19190611805565b90506000826001600160a01b031663d7459b996040518163ffffffff1660e01b8152600401602060405180830381865afa158015610f23573d6000803e3d6000fd5b505050506040513d601f19601f82011682018060405250810190610f4791906117b5565b90506001600160a01b038216610fb15760405162461bcd60e51b815260206004820152602960248201527f6465706f736974284761756765293a20747265617375727920686176656e2774604482015268081899595b881cd95d60ba1b6064820152608401610544565b600086116110015760405162461bcd60e51b815260206004820152601e60248201527f6465706f736974284761756765293a2063616e6e6f74207374616b65203000006044820152606401610544565b6000612710611010838961175c565b61101a919061177b565b905060006110288289611745565b6001600160a01b0388166000908152600b602052604090205490915061104f90829061179d565b6001600160a01b0388166000908152600b602052604090205560095461107690829061179d565b6009556110ae6001600160a01b037f00000000000000000000000000000000000000000000000000000000000000001688308b61114d565b6110e26001600160a01b037f00000000000000000000000000000000000000000000000000000000000000001685846111be565b866001600160a01b03167f9e71bc8eea02a63969f509818f2dafb9254532904319f9dbda79b67bd34a5f3d8260405161111d91815260200190565b60405180910390a2505050506001600160a01b03821615905061114357611143816108f3565b5050600160005550565b6040516001600160a01b03808516602483015283166044820152606481018290526111b89085906323b872dd60e01b906084015b60408051601f198184030181529190526020810180516001600160e01b03166001600160e01b0319909316929092179091526114f1565b50505050565b6040516001600160a01b0383166024820152604481018290526111ee90849063a9059cbb60e01b90606401611181565b505050565b60008183106112025781611204565b825b9392505050565b6000807f00000000000000000000000000000000000000000000000000000000000000006001600160a01b031663d294f0936040518163ffffffff1660e01b815260040160408051808303816000875af115801561126d573d6000803e3d6000fd5b505050506040513d601f19601f820116820180604052508101906112919190611822565b9092509050811515806112a45750600081115b156114ed576000807f00000000000000000000000000000000000000000000000000000000000000006001600160a01b0316639d63848a6040518163ffffffff1660e01b815260040160408051808303816000875af115801561130b573d6000803e3d6000fd5b505050506040513d601f19601f8201168201806040525081019061132f9190611846565b9150915060007f00000000000000000000000000000000000000000000000000000000000000006001600160a01b031663149f2b276040518163ffffffff1660e01b81526004016020604051808303816000875af1158015611395573d6000803e3d6000fd5b505050506040513d601f19601f820116820180604052508101906113b99190611805565b905060007f00000000000000000000000000000000000000000000000000000000000000006001600160a01b0316638ce744266040518163ffffffff1660e01b81526004016020604051808303816000875af115801561141d573d6000803e3d6000fd5b505050506040513d601f19601f820116820180604052508101906114419190611805565b90508515611478576114698261145860028961177b565b6001600160a01b03871691906111be565b6114788161145860028961177b565b84156114ad5761149e8261148d60028861177b565b6001600160a01b03861691906111be565b6114ad8161148d60028861177b565b604080518781526020810187905233917fd9b982883d6f1d237dbf653d6baf27ba3264fa2a489737131b3cb7aef4fe40de910160405180910390a2505050505b9091565b611503826001600160a01b0316611678565b61154f5760405162461bcd60e51b815260206004820152601f60248201527f5361666545524332303a2063616c6c20746f206e6f6e2d636f6e7472616374006044820152606401610544565b600080836001600160a01b03168360405161156a9190611875565b6000604051808303816000865af19150503d80600081146115a7576040519150601f19603f3d011682016040523d82523d6000602084013e6115ac565b606091505b5091509150816115fe5760405162461bcd60e51b815260206004820181905260248201527f5361666545524332303a206c6f772d6c6576656c2063616c6c206661696c65646044820152606401610544565b8051156111b8578080602001905181019061161991906118b0565b6111b85760405162461bcd60e51b815260206004820152602a60248201527f5361666545524332303a204552433230206f7065726174696f6e20646964206e6044820152691bdd081cdd58d8d9595960b21b6064820152608401610544565b6000813f7fc5d2460186f7233c927e7db2dcc703c0e500b653ca82273b7bfad8045d85a47081158015906116ac5750808214155b949350505050565b6001600160a01b03811681146104ac57600080fd5b6000602082840312156116db57600080fd5b8135611204816116b4565b6000602082840312156116f857600080fd5b5035919050565b6000806040838503121561171257600080fd5b823591506020830135611724816116b4565b809150509250929050565b634e487b7160e01b600052601160045260246000fd5b6000828210156117575761175761172f565b500390565b60008160001904831182151516156117765761177661172f565b500290565b60008261179857634e487b7160e01b600052601260045260246000fd5b500490565b600082198211156117b0576117b061172f565b500190565b6000602082840312156117c757600080fd5b5051919050565b6020808252601f908201527f5265656e7472616e637947756172643a207265656e7472616e742063616c6c00604082015260600190565b60006020828403121561181757600080fd5b8151611204816116b4565b6000806040838503121561183557600080fd5b505080516020909101519092909150565b6000806040838503121561185957600080fd5b8251611864816116b4565b6020840151909250611724816116b4565b6000825160005b81811015611896576020818601810151858301520161187c565b818111156118a5576000828501525b509190910192915050565b6000602082840312156118c257600080fd5b8151801515811461120457600080fdfea264697066735822122059b1ed6b29d3c836b237226db8acba080ce94886ea2bd07de2e740a24417145f64736f6c634300080b0033a2646970667358221220ba8401731229cfdb6b27f6b5c7b6fccce377534fbd079b74dffefc59bd19894a64736f6c634300080b00336080604052670de0b6b3a764000060005534801561001c57600080fd5b50336000818152600260209081526040808320670de0b6b3a76400009081905590519081527fddf252ad1be2c89b69c2b068fc378daa952ba7f163c4a11628f55a4df523b3ef910160405180910390a36106368061007b6000396000f3fe608060405234801561001057600080fd5b50600436106100935760003560e01c8063313ce56711610066578063313ce5671461012957806370a082311461014357806395d89b411461016c578063a9059cbb14610194578063dd62ed3e146101a757600080fd5b806306fdde0314610098578063095ea7b3146100dc57806318160ddd146100ff57806323b872dd14610116575b600080fd5b6100c66040518060400160405280600f81526020016e13585cdd195c881a5b94d412549255608a1b81525081565b6040516100d3919061048f565b60405180910390f35b6100ef6100ea366004610500565b6101e0565b60405190151581526020016100d3565b61010860005481565b6040519081526020016100d3565b6100ef61012436600461052a565b61024c565b610131601281565b60405160ff90911681526020016100d3565b610108610151366004610566565b6001600160a01b031660009081526002602052604090205490565b6100c6604051806040016040528060098152602001681b5a5b94d41254925560ba1b81525081565b6100ef6101a2366004610500565b610313565b6101086101b5366004610588565b6001600160a01b03918216600090815260016020908152604080832093909416825291909152205490565b3360008181526001602090815260408083206001600160a01b038716808552925280832085905551919290917f8c5be1e5ebec7d5bd14f71427d1e84f3dd0314c0f7b2291e5b200ac8c7c3b9259061023b9086815260200190565b60405180910390a350600192915050565b6001600160a01b03831660008181526001602090815260408083203380855292528220549192909190821480159061028657506000198114155b156102fc57600061029785836105d1565b6001600160a01b038881166000818152600160209081526040808320948916808452948252918290208590559051848152939450919290917f8c5be1e5ebec7d5bd14f71427d1e84f3dd0314c0f7b2291e5b200ac8c7c3b925910160405180910390a3505b610307868686610329565b50600195945050505050565b6000610320338484610329565b50600192915050565b6001600160a01b0383166103845760405162461bcd60e51b815260206004820152601d60248201527f5f7472616e73666572546f6b656e733a207a65726f206164647265737300000060448201526064015b60405180910390fd5b6001600160a01b0382166103da5760405162461bcd60e51b815260206004820152601d60248201527f5f7472616e73666572546f6b656e733a207a65726f2061646472657373000000604482015260640161037b565b6001600160a01b0383166000908152600260205260409020546103fe9082906105d1565b6001600160a01b03808516600090815260026020526040808220939093559084168152205461042e9082906105e8565b6001600160a01b0380841660008181526002602052604090819020939093559151908516907fddf252ad1be2c89b69c2b068fc378daa952ba7f163c4a11628f55a4df523b3ef906104829085815260200190565b60405180910390a3505050565b600060208083528351808285015260005b818110156104bc578581018301518582016040015282016104a0565b818111156104ce576000604083870101525b50601f01601f1916929092016040019392505050565b80356001600160a01b03811681146104fb57600080fd5b919050565b6000806040838503121561051357600080fd5b61051c836104e4565b946020939093013593505050565b60008060006060848603121561053f57600080fd5b610548846104e4565b9250610556602085016104e4565b9150604084013590509250925092565b60006020828403121561057857600080fd5b610581826104e4565b9392505050565b6000806040838503121561059b57600080fd5b6105a4836104e4565b91506105b2602084016104e4565b90509250929050565b634e487b7160e01b600052601160045260246000fd5b6000828210156105e3576105e36105bb565b500390565b600082198211156105fb576105fb6105bb565b50019056fea26469706673582212209c889f3e2983d08902e78fd0b3946b2496136f58c10f37e9e4dadeb9f6c928e464736f6c634300080b0033",
  "linkReferences": {},
  "deployedLinkReferences": {}
}