{
  "_format": "hh-sol-artifact-1",
  "contractName": "VariableGaugeProxy",
  "sourceName": "contracts/spirit-v2-farming/VariableGaugeProxy.sol",
  "abi": [
    {
      "inputs": [
        {
          "internalType": "address",
          "name": "_masterChef",
          "type": "address"
        },
        {
          "internalType": "address",
          "name": "_spirit",
          "type": "address"
        },
        {
          "internalType": "address",
          "name": "_inSpirit",
          "type": "address"
        },
        {
          "internalType": "address",
          "name": "_feeDist",
          "type": "address"
        },
        {
          "internalType": "address",
          "name": "_bribeFactory",
          "type": "address"
        },
        {
          "internalType": "address",
          "name": "_pairFactory",
          "type": "address"
        }
      ],
      "stateMutability": "nonpayable",
      "type": "constructor"
    },
    {
      "anonymous": false,
      "inputs": [
        {
          "indexed": false,
          "internalType": "address",
          "name": "tokenLP",
          "type": "address"
        }
      ],
      "name": "GaugeAdded",
      "type": "event"
    },
    {
      "anonymous": false,
      "inputs": [
        {
          "indexed": false,
          "internalType": "address",
          "name": "tokenLP",
          "type": "address"
        },
        {
          "indexed": false,
          "internalType": "address",
          "name": "token0",
          "type": "address"
        },
        {
          "indexed": false,
          "internalType": "address",
          "name": "token1",
          "type": "address"
        }
      ],
      "name": "GaugeAddedByOwner",
      "type": "event"
    },
    {
      "anonymous": false,
      "inputs": [
        {
          "indexed": false,
          "internalType": "address",
          "name": "tokenLP",
          "type": "address"
        }
      ],
      "name": "GaugeDeprecated",
      "type": "event"
    },
    {
      "anonymous": false,
      "inputs": [
        {
          "indexed": false,
          "internalType": "address",
          "name": "tokenLP",
          "type": "address"
        }
      ],
      "name": "GaugeResurrected",
      "type": "event"
    },
    {
      "anonymous": false,
      "inputs": [
        {
          "indexed": false,
          "internalType": "uint256",
          "name": "spiritRewards",
          "type": "uint256"
        }
      ],
      "name": "PreDistributed",
      "type": "event"
    },
    {
      "inputs": [],
      "name": "MASTER",
      "outputs": [
        {
          "internalType": "contract MasterChef",
          "name": "",
          "type": "address"
        }
      ],
      "stateMutability": "view",
      "type": "function"
    },
    {
      "inputs": [],
      "name": "MIN_INSPIRIT_FOR_VERIFY",
      "outputs": [
        {
          "internalType": "uint256",
          "name": "",
          "type": "uint256"
        }
      ],
      "stateMutability": "view",
      "type": "function"
    },
    {
      "inputs": [],
      "name": "TOKEN",
      "outputs": [
        {
          "internalType": "contract IERC20",
          "name": "",
          "type": "address"
        }
      ],
      "stateMutability": "view",
      "type": "function"
    },
    {
      "inputs": [],
      "name": "acceptGovernance",
      "outputs": [],
      "stateMutability": "nonpayable",
      "type": "function"
    },
    {
      "inputs": [
        {
          "internalType": "address",
          "name": "_tokenLP",
          "type": "address"
        }
      ],
      "name": "addGauge",
      "outputs": [
        {
          "internalType": "address",
          "name": "",
          "type": "address"
        }
      ],
      "stateMutability": "nonpayable",
      "type": "function"
    },
    {
      "inputs": [
        {
          "internalType": "address",
          "name": "_tokenLP",
          "type": "address"
        },
        {
          "internalType": "address",
          "name": "_token0",
          "type": "address"
        },
        {
          "internalType": "address",
          "name": "_token1",
          "type": "address"
        }
      ],
      "name": "addGaugeForOwner",
      "outputs": [
        {
          "internalType": "address",
          "name": "",
          "type": "address"
        }
      ],
      "stateMutability": "nonpayable",
      "type": "function"
    },
    {
      "inputs": [],
      "name": "admin",
      "outputs": [
        {
          "internalType": "address",
          "name": "",
          "type": "address"
        }
      ],
      "stateMutability": "view",
      "type": "function"
    },
    {
      "inputs": [
        {
          "internalType": "address",
          "name": "",
          "type": "address"
        }
      ],
      "name": "baseTokens",
      "outputs": [
        {
          "internalType": "bool",
          "name": "",
          "type": "bool"
        }
      ],
      "stateMutability": "view",
      "type": "function"
    },
    {
      "inputs": [],
      "name": "bribeFactory",
      "outputs": [
        {
          "internalType": "address",
          "name": "",
          "type": "address"
        }
      ],
      "stateMutability": "view",
      "type": "function"
    },
    {
      "inputs": [
        {
          "internalType": "address",
          "name": "",
          "type": "address"
        }
      ],
      "name": "bribes",
      "outputs": [
        {
          "internalType": "address",
          "name": "",
          "type": "address"
        }
      ],
      "stateMutability": "view",
      "type": "function"
    },
    {
      "inputs": [
        {
          "internalType": "address[]",
          "name": "_bribes",
          "type": "address[]"
        },
        {
          "internalType": "address",
          "name": "_user",
          "type": "address"
        }
      ],
      "name": "claimBribes",
      "outputs": [],
      "stateMutability": "nonpayable",
      "type": "function"
    },
    {
      "inputs": [],
      "name": "deposit",
      "outputs": [],
      "stateMutability": "nonpayable",
      "type": "function"
    },
    {
      "inputs": [
        {
          "internalType": "address",
          "name": "_token",
          "type": "address"
        }
      ],
      "name": "deprecateGauge",
      "outputs": [],
      "stateMutability": "nonpayable",
      "type": "function"
    },
    {
      "inputs": [
        {
          "internalType": "uint256",
          "name": "_start",
          "type": "uint256"
        },
        {
          "internalType": "uint256",
          "name": "_end",
          "type": "uint256"
        }
      ],
      "name": "distribute",
      "outputs": [],
      "stateMutability": "nonpayable",
      "type": "function"
    },
    {
      "inputs": [],
      "name": "distributeDelay",
      "outputs": [
        {
          "internalType": "uint256",
          "name": "",
          "type": "uint256"
        }
      ],
      "stateMutability": "view",
      "type": "function"
    },
    {
      "inputs": [],
      "name": "feeDistAddr",
      "outputs": [
        {
          "internalType": "address",
          "name": "",
          "type": "address"
        }
      ],
      "stateMutability": "view",
      "type": "function"
    },
    {
      "inputs": [
        {
          "internalType": "address",
          "name": "",
          "type": "address"
        }
      ],
      "name": "gaugeStatus",
      "outputs": [
        {
          "internalType": "bool",
          "name": "",
          "type": "bool"
        }
      ],
      "stateMutability": "view",
      "type": "function"
    },
    {
      "inputs": [
        {
          "internalType": "address",
          "name": "",
          "type": "address"
        }
      ],
      "name": "gauges",
      "outputs": [
        {
          "internalType": "address",
          "name": "",
          "type": "address"
        }
      ],
      "stateMutability": "view",
      "type": "function"
    },
    {
      "inputs": [
        {
          "internalType": "address",
          "name": "_gauge",
          "type": "address"
        }
      ],
      "name": "getBribes",
      "outputs": [
        {
          "internalType": "address",
          "name": "",
          "type": "address"
        }
      ],
      "stateMutability": "view",
      "type": "function"
    },
    {
      "inputs": [
        {
          "internalType": "address",
          "name": "_token",
          "type": "address"
        }
      ],
      "name": "getGauge",
      "outputs": [
        {
          "internalType": "address",
          "name": "",
          "type": "address"
        }
      ],
      "stateMutability": "view",
      "type": "function"
    },
    {
      "inputs": [],
      "name": "governance",
      "outputs": [
        {
          "internalType": "address",
          "name": "",
          "type": "address"
        }
      ],
      "stateMutability": "view",
      "type": "function"
    },
    {
      "inputs": [],
      "name": "governanceToken",
      "outputs": [
        {
          "internalType": "contract IERC20",
          "name": "",
          "type": "address"
        }
      ],
      "stateMutability": "view",
      "type": "function"
    },
    {
      "inputs": [
        {
          "internalType": "address",
          "name": "",
          "type": "address"
        }
      ],
      "name": "hasDistributed",
      "outputs": [
        {
          "internalType": "bool",
          "name": "",
          "type": "bool"
        }
      ],
      "stateMutability": "view",
      "type": "function"
    },
    {
      "inputs": [],
      "name": "lastDistribute",
      "outputs": [
        {
          "internalType": "uint256",
          "name": "",
          "type": "uint256"
        }
      ],
      "stateMutability": "view",
      "type": "function"
    },
    {
      "inputs": [
        {
          "internalType": "address",
          "name": "",
          "type": "address"
        }
      ],
      "name": "lastVote",
      "outputs": [
        {
          "internalType": "uint256",
          "name": "",
          "type": "uint256"
        }
      ],
      "stateMutability": "view",
      "type": "function"
    },
    {
      "inputs": [],
      "name": "length",
      "outputs": [
        {
          "internalType": "uint256",
          "name": "",
          "type": "uint256"
        }
      ],
      "stateMutability": "view",
      "type": "function"
    },
    {
      "inputs": [],
      "name": "lockedBalance",
      "outputs": [
        {
          "internalType": "uint256",
          "name": "",
          "type": "uint256"
        }
      ],
      "stateMutability": "view",
      "type": "function"
    },
    {
      "inputs": [],
      "name": "lockedTotalWeight",
      "outputs": [
        {
          "internalType": "uint256",
          "name": "",
          "type": "uint256"
        }
      ],
      "stateMutability": "view",
      "type": "function"
    },
    {
      "inputs": [
        {
          "internalType": "address",
          "name": "",
          "type": "address"
        }
      ],
      "name": "lockedWeights",
      "outputs": [
        {
          "internalType": "uint256",
          "name": "",
          "type": "uint256"
        }
      ],
      "stateMutability": "view",
      "type": "function"
    },
    {
      "inputs": [],
      "name": "locktime",
      "outputs": [
        {
          "internalType": "uint256",
          "name": "",
          "type": "uint256"
        }
      ],
      "stateMutability": "view",
      "type": "function"
    },
    {
      "inputs": [],
      "name": "minFee",
      "outputs": [
        {
          "internalType": "uint256",
          "name": "",
          "type": "uint256"
        }
      ],
      "stateMutability": "view",
      "type": "function"
    },
    {
      "inputs": [],
      "name": "pairFactory",
      "outputs": [
        {
          "internalType": "address",
          "name": "",
          "type": "address"
        }
      ],
      "stateMutability": "view",
      "type": "function"
    },
    {
      "inputs": [],
      "name": "pendingGovernance",
      "outputs": [
        {
          "internalType": "address",
          "name": "",
          "type": "address"
        }
      ],
      "stateMutability": "view",
      "type": "function"
    },
    {
      "inputs": [],
      "name": "pid",
      "outputs": [
        {
          "internalType": "uint256",
          "name": "",
          "type": "uint256"
        }
      ],
      "stateMutability": "view",
      "type": "function"
    },
    {
      "inputs": [
        {
          "internalType": "address",
          "name": "_owner",
          "type": "address"
        }
      ],
      "name": "poke",
      "outputs": [],
      "stateMutability": "nonpayable",
      "type": "function"
    },
    {
      "inputs": [],
      "name": "preDistribute",
      "outputs": [],
      "stateMutability": "nonpayable",
      "type": "function"
    },
    {
      "inputs": [],
      "name": "reset",
      "outputs": [],
      "stateMutability": "nonpayable",
      "type": "function"
    },
    {
      "inputs": [
        {
          "internalType": "address",
          "name": "_token",
          "type": "address"
        }
      ],
      "name": "resurrectGauge",
      "outputs": [],
      "stateMutability": "nonpayable",
      "type": "function"
    },
    {
      "inputs": [],
      "name": "rewardToken",
      "outputs": [
        {
          "internalType": "contract IERC20",
          "name": "",
          "type": "address"
        }
      ],
      "stateMutability": "view",
      "type": "function"
    },
    {
      "inputs": [
        {
          "internalType": "address",
          "name": "_admin",
          "type": "address"
        }
      ],
      "name": "setAdmin",
      "outputs": [],
      "stateMutability": "nonpayable",
      "type": "function"
    },
    {
      "inputs": [
        {
          "internalType": "address",
          "name": "_tokenLP",
          "type": "address"
        },
        {
          "internalType": "bool",
          "name": "_flag",
          "type": "bool"
        }
      ],
      "name": "setBaseToken",
      "outputs": [],
      "stateMutability": "nonpayable",
      "type": "function"
    },
    {
      "inputs": [
        {
          "internalType": "address",
          "name": "_governance",
          "type": "address"
        }
      ],
      "name": "setGovernance",
      "outputs": [],
      "stateMutability": "nonpayable",
      "type": "function"
    },
    {
      "inputs": [
        {
          "internalType": "uint256",
          "name": "_pid",
          "type": "uint256"
        }
      ],
      "name": "setPID",
      "outputs": [],
      "stateMutability": "nonpayable",
      "type": "function"
    },
    {
      "inputs": [
        {
          "internalType": "address",
          "name": "_tokenLP",
          "type": "address"
        },
        {
          "internalType": "bool",
          "name": "_flag",
          "type": "bool"
        }
      ],
      "name": "setVerifiedToken",
      "outputs": [],
      "stateMutability": "nonpayable",
      "type": "function"
    },
    {
      "inputs": [],
      "name": "toggleVE",
      "outputs": [],
      "stateMutability": "nonpayable",
      "type": "function"
    },
    {
      "inputs": [
        {
          "internalType": "address",
          "name": "",
          "type": "address"
        },
        {
          "internalType": "uint256",
          "name": "",
          "type": "uint256"
        }
      ],
      "name": "tokenVote",
      "outputs": [
        {
          "internalType": "address",
          "name": "",
          "type": "address"
        }
      ],
      "stateMutability": "view",
      "type": "function"
    },
    {
      "inputs": [],
      "name": "tokens",
      "outputs": [
        {
          "internalType": "address[]",
          "name": "",
          "type": "address[]"
        }
      ],
      "stateMutability": "view",
      "type": "function"
    },
    {
      "inputs": [],
      "name": "totalWeight",
      "outputs": [
        {
          "internalType": "uint256",
          "name": "",
          "type": "uint256"
        }
      ],
      "stateMutability": "view",
      "type": "function"
    },
    {
      "inputs": [
        {
          "internalType": "address",
          "name": "_feeDistAddr",
          "type": "address"
        }
      ],
      "name": "updateFeeDistributor",
      "outputs": [],
      "stateMutability": "nonpayable",
      "type": "function"
    },
    {
      "inputs": [
        {
          "internalType": "address",
          "name": "",
          "type": "address"
        }
      ],
      "name": "usedWeights",
      "outputs": [
        {
          "internalType": "uint256",
          "name": "",
          "type": "uint256"
        }
      ],
      "stateMutability": "view",
      "type": "function"
    },
    {
      "inputs": [],
      "name": "ve",
      "outputs": [
        {
          "internalType": "bool",
          "name": "",
          "type": "bool"
        }
      ],
      "stateMutability": "view",
      "type": "function"
    },
    {
      "inputs": [
        {
          "internalType": "address",
          "name": "",
          "type": "address"
        }
      ],
      "name": "verifiedTokens",
      "outputs": [
        {
          "internalType": "bool",
          "name": "",
          "type": "bool"
        }
      ],
      "stateMutability": "view",
      "type": "function"
    },
    {
      "inputs": [
        {
          "internalType": "address[]",
          "name": "_tokenVote",
          "type": "address[]"
        },
        {
          "internalType": "uint256[]",
          "name": "_weights",
          "type": "uint256[]"
        }
      ],
      "name": "vote",
      "outputs": [],
      "stateMutability": "nonpayable",
      "type": "function"
    },
    {
      "inputs": [],
      "name": "voteDelay",
      "outputs": [
        {
          "internalType": "uint256",
          "name": "",
          "type": "uint256"
        }
      ],
      "stateMutability": "view",
      "type": "function"
    },
    {
      "inputs": [
        {
          "internalType": "address",
          "name": "",
          "type": "address"
        },
        {
          "internalType": "address",
          "name": "",
          "type": "address"
        }
      ],
      "name": "votes",
      "outputs": [
        {
          "internalType": "uint256",
          "name": "",
          "type": "uint256"
        }
      ],
      "stateMutability": "view",
      "type": "function"
    },
    {
      "inputs": [
        {
          "internalType": "address",
          "name": "",
          "type": "address"
        }
      ],
      "name": "weights",
      "outputs": [
        {
          "internalType": "uint256",
          "name": "",
          "type": "uint256"
        }
      ],
      "stateMutability": "view",
      "type": "function"
    }
  ],
  "bytecode": "0x60c060405268056bc75e2d6310000060075569152d02c7e14af680000060a05260001960095562093a80600b819055600c556016805460ff60a01b191690553480156200004b57600080fd5b5060405162005808380380620058088339810160408190526200006e916200016d565b6001600255600380546001600160a01b038089166001600160a01b031992831617909255600580548884169083161790556004805492871692909116919091179055604051620000be9062000142565b604051809103906000f080158015620000db573d6000803e3d6000fd5b506001600160a01b0390811660805260008054336001600160a01b03199182168117909255600680548216909217909155601880548216958316959095179094556008805485169382169390931790925560168054909316911617905550620001ee915050565b6106b1806200515783390190565b80516001600160a01b03811681146200016857600080fd5b919050565b60008060008060008060c087890312156200018757600080fd5b620001928762000150565b9550620001a26020880162000150565b9450620001b26040880162000150565b9350620001c26060880162000150565b9250620001d26080880162000150565b9150620001e260a0880162000150565b90509295509295509295565b60805160a051614f3c6200021b6000396000610438015260008181610636015261227f0152614f3c6000f3fe60806040523480156200001157600080fd5b5060043610620003c05760003560e01c806396c82e5711620001f9578063d0e30db01162000119578063f39c38a011620000af578063f851a4401162000086578063f851a44014620008e3578063f96dae0a14620008f7578063f9b2fe27146200090b578063ff2af408146200091557600080fd5b8063f39c38a014620008b1578063f6d12b1614620008c5578063f7c618c114620008cf57600080fd5b8063e96a6bda11620000f0578063e96a6bda1462000856578063eb4a78e0146200087c578063f10684541462000890578063f2a1a8ed146200089a57600080fd5b8063d0e30db0146200082e578063d826f88f1462000838578063e14f870d146200084257600080fd5b8063b1c6f0e9116200018f578063b9173ec41162000166578063b9173ec414620007a6578063b9a09fd514620007bd578063c84afda014620007e9578063cad1b906146200080057600080fd5b8063b1c6f0e91462000749578063b23e30141462000778578063b70aed71146200078f57600080fd5b8063a7cac84611620001d0578063a7cac84614620006cc578063a8c5d95a14620006ef578063ab033ea9146200071b578063b1a997ac146200073257600080fd5b806396c82e5714620006925780639d63848a146200069c5780639da882ac14620006b557600080fd5b80634c904f2c11620002e5578063704b6c02116200027b57806382836391116200025257806382836391146200062657806382bfefc814620006305780638d0605191462000658578063924d9f77146200066f57600080fd5b8063704b6c0214620005ee5780637625391a14620006055780637b80889b146200061c57600080fd5b806361c533b411620002bc57806361c533b414620005935780636848c2bd146200059d5780636accc8cf14620005b45780636f816a2014620005d757600080fd5b80634c904f2c14620005545780635aa6e675146200056857806360c73bf2146200057c57600080fd5b806324ec7590116200035b5780632951005c11620003325780632951005c14620004c85780634668e61914620004ee578063471aedc2146200053657806347d67339146200054a57600080fd5b806324ec759014620004aa57806328b02a1d14620004b4578063292fc97914620004be57600080fd5b80631baaaffe116200039c5780631baaaffe146200045a5780631f7b6d3214620004805780631f8507161462000489578063238efcbc146200049e57600080fd5b80622f8de414620003c557806302eba09414620003fb57806313976fc81462000432575b600080fd5b620003e8620003d636600462002e6b565b601f6020526000908152604090205481565b6040519081526020015b60405180910390f35b620004216200040c36600462002e6b565b60156020526000908152604090205460ff1681565b6040519015158152602001620003f2565b620003e87f000000000000000000000000000000000000000000000000000000000000000081565b620004216200046b36600462002e6b565b60146020526000908152604090205460ff1681565b601754620003e8565b6016546200042190600160a01b900460ff1681565b620004a86200092c565b005b620003e860075481565b620003e8600f5481565b620003e8600b5481565b62000421620004d936600462002e6b565b601a6020526000908152604090205460ff1681565b6200051d620004ff36600462002e6b565b6001600160a01b039081166000908152601b60205260409020541690565b6040516001600160a01b039091168152602001620003f2565b6003546200051d906001600160a01b031681565b620003e8600d5481565b6018546200051d906001600160a01b031681565b6000546200051d906001600160a01b031681565b620004a86200058d36600462002e6b565b620009b0565b620003e860115481565b620004a8620005ae36600462002e6b565b62000a58565b620003e8620005c536600462002e6b565b600e6020526000908152604090205481565b620004a8620005e836600462002ee1565b62000bad565b620004a8620005ff36600462002e6b565b62000cb5565b620004a86200061636600462002f54565b62000d1c565b620003e860105481565b620004a862000fae565b6200051d7f000000000000000000000000000000000000000000000000000000000000000081565b620004a86200066936600462002f77565b62001423565b620003e86200068036600462002e6b565b60126020526000908152604090205481565b620003e8600a5481565b620006a66200146d565b604051620003f2919062002f91565b6200051d620006c636600462002e6b565b620014d1565b620003e8620006dd36600462002e6b565b601c6020526000908152604090205481565b6200051d6200070036600462002e6b565b601b602052600090815260409020546001600160a01b031681565b620004a86200072c36600462002e6b565b62001acd565b620004a86200074336600462002e6b565b62001b41565b6200051d6200075a36600462002e6b565b6001600160a01b039081166000908152601960205260409020541690565b620004a86200078936600462002fef565b62001d52565b620004a8620007a036600462002fef565b62001dc0565b620004a8620007b736600462002e6b565b62001e2e565b6200051d620007ce36600462002e6b565b6019602052600090815260409020546001600160a01b031681565b6200051d620007fa3660046200302d565b62001f7d565b620003e8620008113660046200307f565b601d60209081526000928352604080842090915290825290205481565b620004a86200221e565b620004a8620023a3565b6016546200051d906001600160a01b031681565b620004216200086736600462002e6b565b60136020526000908152604090205460ff1681565b6008546200051d906001600160a01b031681565b620003e860095481565b6200051d620008ab366004620030b2565b620023b0565b6001546200051d906001600160a01b031681565b620003e8600c5481565b6005546200051d906001600160a01b031681565b6006546200051d906001600160a01b031681565b6004546200051d906001600160a01b031681565b620004a8620023e9565b620004a862000926366004620030f7565b6200247c565b6001546001600160a01b031633146200098c5760405162461bcd60e51b815260206004820152601d60248201527f616363657074476f7665726e616e63653a202170656e64696e67476f7600000060448201526064015b60405180910390fd5b600154600080546001600160a01b0319166001600160a01b03909216919091179055565b6000546001600160a01b0316331480620009d457506006546001600160a01b031633145b62000a365760405162461bcd60e51b815260206004820152602b60248201527f7570646174654665654465737472696275746f723a207065726d697373696f6e60448201526a2069732064656e6965642160a81b606482015260840162000983565b601880546001600160a01b0319166001600160a01b0392909216919091179055565b6000546001600160a01b031633148062000a7c57506006546001600160a01b031633145b62000a9b5760405162461bcd60e51b81526004016200098390620031de565b6001600160a01b038181166000908152601960205260409020541662000af55760405162461bcd60e51b815260206004820152600e60248201526d191bd95cc81b9bdd08195e1a5cdd60921b604482015260640162000983565b6001600160a01b0381166000908152601a602052604090205460ff1662000b555760405162461bcd60e51b81526020600482015260136024820152726761756765206973206e6f742061637469766560681b604482015260640162000983565b6001600160a01b0381166000818152601a6020908152604091829020805460ff1916905590519182527fd780203fe297949db725d8b7408a8d9f009bafaf49909a5eb5130c37bba5efb191015b60405180910390a150565b336000818152600e602052604081205462000bc990426200321c565b9050600b54811162000c1e5760405162461bcd60e51b815260206004820152601c60248201527f596f7520766f74656420696e20746865206c6173742037206461797300000000604482015260640162000983565b84831462000c2b57600080fd5b336000818152600e60209081526040918290204290558151888202818101830190935288815262000cad939290918a918a9182919085019084908082843760009201919091525050604080516020808b0282810182019093528a82529093508a9250899182918501908490808284376000920191909152506200252292505050565b505050505050565b6000546001600160a01b0316331462000cfa5760405162461bcd60e51b8152600401620009839060208082526004908201526310b3b7bb60e11b604082015260600190565b600680546001600160a01b0319166001600160a01b0392909216919091179055565b60028054141562000d705760405162461bcd60e51b815260206004820152601f60248201527f5265656e7472616e637947756172643a207265656e7472616e742063616c6c00604482015260640162000983565b6002805580821062000db25760405162461bcd60e51b815260206004820152600a6024820152691898590817dcdd185c9d60b21b604482015260640162000983565b60175481111562000df15760405162461bcd60e51b81526020600482015260086024820152671898590817d95b9960c21b604482015260640162000983565b600060105411801562000e0657506000600f54115b1562000fa557815b8181101562000fa35760006017828154811062000e2f5762000e2f62003236565b60009182526020808320909101546001600160a01b0316808352601390915260409091205490915060ff1615801562000e8057506001600160a01b0381166000908152601a602052604090205460ff165b1562000f8d576001600160a01b03808216600090815260196020908152604080832054600f54601290935290832054601054919094169362000ec2916200324c565b62000ece91906200326e565b9050801562000f675760055462000ef1906001600160a01b03168360006200280c565b60055462000f0a906001600160a01b031683836200280c565b604051633c6b16ab60e01b8152600481018290526001600160a01b03831690633c6b16ab90602401600060405180830381600087803b15801562000f4d57600080fd5b505af115801562000f62573d6000803e3d6000fd5b505050505b50506001600160a01b0381166000908152601360205260409020805460ff191660011790555b508062000f9a8162003291565b91505062000e0e565b505b50506001600255565b600280541415620010025760405162461bcd60e51b815260206004820152601f60248201527f5265656e7472616e637947756172643a207265656e7472616e742063616c6c00604482015260640162000983565b60028055600d546000906200101890426200321c565b9050600c548111620010825760405162461bcd60e51b815260206004820152602c60248201527f7468697320686173206265656e20646973747269627574656420696e2074686560448201526b206c6173742037206461797360a01b606482015260840162000983565b600a54600f5560005b6017548110156200119657601c600060178381548110620010b057620010b062003236565b9060005260206000200160009054906101000a90046001600160a01b03166001600160a01b03166001600160a01b0316815260200190815260200160002054601260006017848154811062001109576200110962003236565b60009182526020808320909101546001600160a01b03168352820192909252604001812091909155601780546013918391859081106200114d576200114d62003236565b6000918252602080832091909101546001600160a01b031683528201929092526040019020805460ff1916911515919091179055806200118d8162003291565b9150506200108b565b50620011a16200295c565b42600d556005546040516370a0823160e01b81523060048201526000916001600160a01b0316906370a0823190602401602060405180830381865afa158015620011ef573d6000803e3d6000fd5b505050506040513d601f19601f82011682018060405250810190620012159190620032af565b6010819055601654909150600090600160a01b900460ff1615620013e257600554600480546040516370a0823160e01b81526001600160a01b039182169281019290925260009216906370a0823190602401602060405180830381865afa15801562001285573d6000803e3d6000fd5b505050506040513d601f19601f82011682018060405250810190620012ab9190620032af565b90506000600560009054906101000a90046001600160a01b03166001600160a01b03166318160ddd6040518163ffffffff1660e01b8152600401602060405180830381865afa15801562001303573d6000803e3d6000fd5b505050506040513d601f19601f82011682018060405250810190620013299190620032af565b9050806200133883866200324c565b6200134491906200326e565b92508215620013df576018546005546200136c916001600160a01b0391821691168562002a50565b6005546040516370a0823160e01b81523060048201526001600160a01b03909116906370a0823190602401602060405180830381865afa158015620013b5573d6000803e3d6000fd5b505050506040513d601f19601f82011682018060405250810190620013db9190620032af565b6010555b50505b426011556040518181527fce10d9c5a37f75faa552238874842dbf93dc8424647cb8c3286cfdcb73f6212a9060200160405180910390a15050600160025550565b6000546001600160a01b03163314620014685760405162461bcd60e51b8152600401620009839060208082526004908201526310b3b7bb60e11b604082015260600190565b600955565b60606017805480602002602001604051908101604052809291908181526020018280548015620014c757602002820191906000526020600020905b81546001600160a01b03168152600190910190602001808311620014a8575b5050505050905090565b6001600160a01b0381811660009081526019602052604081205490911615620015265760405162461bcd60e51b815260206004820152600660248201526565786973747360d01b604482015260640162000983565b60165460405163e5e31b1360e01b81526001600160a01b0384811660048301529091169063e5e31b13906024016020604051808303816000875af115801562001573573d6000803e3d6000fd5b505050506040513d601f19601f82011682018060405250810190620015999190620032c9565b620015d35760405162461bcd60e51b81526020600482015260096024820152680215f746f6b656e4c560bc1b604482015260640162000983565b816001600160a01b03166322be3de16040518163ffffffff1660e01b81526004016020604051808303816000875af115801562001614573d6000803e3d6000fd5b505050506040513d601f19601f820116820180604052508101906200163a9190620032c9565b156200164557600080fd5b600080836001600160a01b0316639d63848a6040518163ffffffff1660e01b815260040160408051808303816000875af115801562001688573d6000803e3d6000fd5b505050506040513d601f19601f82011682018060405250810190620016ae9190620032e9565b6001600160a01b038216600090815260156020526040902054919350915060ff168015620016f457506001600160a01b03811660009081526014602052604090205460ff165b806200173c57506001600160a01b03811660009081526015602052604090205460ff1680156200173c57506001600160a01b03821660009081526014602052604090205460ff165b620017765760405162461bcd60e51b8152602060048201526009602482015268085d995c9a599a595960ba1b604482015260640162000983565b6064600460009054906101000a90046001600160a01b03166001600160a01b03166318160ddd6040518163ffffffff1660e01b8152600401602060405180830381865afa158015620017cc573d6000803e3d6000fd5b505050506040513d601f19601f82011682018060405250810190620017f29190620032af565b620017fe91906200326e565b600480546040516370a0823160e01b815233928101929092526001600160a01b0316906370a0823190602401602060405180830381865afa15801562001848573d6000803e3d6000fd5b505050506040513d601f19601f820116820180604052508101906200186e9190620032af565b11806200188557506000546001600160a01b031633145b806200189b57506006546001600160a01b031633145b620018d35760405162461bcd60e51b815260206004820152600760248201526621737570706c7960c81b604482015260640162000983565b6005546004546040516001600160a01b03928316929091169086903090620018fb9062002e00565b6001600160a01b039485168152928416602084015290831660408301529091166060820152608001604051809103906000f08015801562001940573d6000803e3d6000fd5b506001600160a01b03858116600081815260196020908152604080832080549686166001600160a01b03199788161790556017805460018181019092557fc624b66cc0138b8fabc209247f72d758e1cf3343756d543badbf24212bed8c15018054909716909417909555601a9052838120805460ff191690921790915560085481549351631c1e57c960e11b8152938316600485015285831660248501528483166044850152909291169063383caf92906064016020604051808303816000875af115801562001a14573d6000803e3d6000fd5b505050506040513d601f19601f8201168201806040525081019062001a3a91906200331d565b6001600160a01b0386811660008181526019602090815260408083205485168352601b82529182902080546001600160a01b03191694861694909417909355519081529192507f9808313031a8f4caa534c417adad16800af7317516eff29a2d37cec0ffb244db910160405180910390a1505050506001600160a01b039081166000908152601960205260409020541690565b6000546001600160a01b0316331462001b1f5760405162461bcd60e51b815260206004820152601360248201527239b2ba23b7bb32b93730b731b29d1010b3b7bb60691b604482015260640162000983565b600180546001600160a01b0319166001600160a01b0392909216919091179055565b6001600160a01b0381166000908152601e602090815260408083208054825181850281018501909352808352919290919083018282801562001bad57602002820191906000526020600020905b81546001600160a01b0316815260019091019060200180831162001b8e575b5050505050905060008151905060008167ffffffffffffffff81111562001bd85762001bd8620030e1565b60405190808252806020026020018201604052801562001c02578160200160208202803683370190505b506001600160a01b038581166000818152601f6020526040808220546004805492516370a0823160e01b815290810194909452949550909216906370a0823190602401602060405180830381865afa15801562001c63573d6000803e3d6000fd5b505050506040513d601f19601f8201168201806040525081019062001c899190620032af565b905060005b8481101562001d44576001600160a01b0387166000908152601d602052604081208751829089908590811062001cc85762001cc862003236565b60200260200101516001600160a01b03166001600160a01b0316815260200190815260200160002054905083838262001d0291906200324c565b62001d0e91906200326e565b85838151811062001d235762001d2362003236565b6020908102919091010152508062001d3b8162003291565b91505062001c8e565b5062000cad86868562002522565b6000546001600160a01b031633148062001d7657506006546001600160a01b031633145b62001d955760405162461bcd60e51b81526004016200098390620031de565b6001600160a01b03919091166000908152601560205260409020805460ff1916911515919091179055565b6000546001600160a01b031633148062001de457506006546001600160a01b031633145b62001e035760405162461bcd60e51b81526004016200098390620031de565b6001600160a01b03919091166000908152601460205260409020805460ff1916911515919091179055565b6000546001600160a01b031633148062001e5257506006546001600160a01b031633145b62001e715760405162461bcd60e51b81526004016200098390620031de565b6001600160a01b038181166000908152601960205260409020541662001ecb5760405162461bcd60e51b815260206004820152600e60248201526d191bd95cc81b9bdd08195e1a5cdd60921b604482015260640162000983565b6001600160a01b0381166000908152601a602052604090205460ff161562001f285760405162461bcd60e51b815260206004820152600f60248201526e67617567652069732061637469766560881b604482015260640162000983565b6001600160a01b0381166000818152601a6020908152604091829020805460ff1916600117905590519182527f9249e27c005fd3aeb1554e7b8cb687f7e017f0651813d386f7d74ebd7245c8a2910162000ba2565b600080546001600160a01b031633148062001fa257506006546001600160a01b031633145b62001fc15760405162461bcd60e51b81526004016200098390620031de565b6001600160a01b038481166000908152601960205260409020541615620020145760405162461bcd60e51b815260206004820152600660248201526565786973747360d01b604482015260640162000983565b6005546004546040516001600160a01b039283169290911690869030906200203c9062002e00565b6001600160a01b039485168152928416602084015290831660408301529091166060820152608001604051809103906000f08015801562002081573d6000803e3d6000fd5b506001600160a01b03858116600081815260196020908152604080832080549686166001600160a01b03199788161790556017805460018181019092557fc624b66cc0138b8fabc209247f72d758e1cf3343756d543badbf24212bed8c15018054909716909417909555601a9052838120805460ff191690921790915560085481549351631c1e57c960e11b8152938316600485015286831660248501528583166044850152909291169063383caf92906064016020604051808303816000875af115801562002155573d6000803e3d6000fd5b505050506040513d601f19601f820116820180604052508101906200217b91906200331d565b6001600160a01b0386811660008181526019602090815260408083205485168352601b82529182902080546001600160a01b031916868616179055815192835288841690830152918616918101919091529091507fdecab58d8a6a044c9ac75d257407891e2515835f38d07a2b7333682b8d4b63089060600160405180910390a1505050506001600160a01b039081166000908152601960205260409020541690565b60001960095414156200226a5760405162461bcd60e51b81526020600482015260136024820152721c1a59081b9bdd081a5b9a5d1a585b1a5e9959606a1b604482015260640162000983565b6040516370a0823160e01b81523060048201527f0000000000000000000000000000000000000000000000000000000000000000906000906001600160a01b038316906370a0823190602401602060405180830381865afa158015620022d4573d6000803e3d6000fd5b505050506040513d601f19601f82011682018060405250810190620022fa9190620032af565b6003549091506200231a906001600160a01b03848116911660006200280c565b60035462002336906001600160a01b038481169116836200280c565b600354600954604051631c57762b60e31b81526001600160a01b039092169163e2bbb1589162002373918590600401918252602082015260400190565b600060405180830381600087803b1580156200238e57600080fd5b505af115801562000cad573d6000803e3d6000fd5b620023ae3362002a82565b565b601e6020528160005260406000208181548110620023cd57600080fd5b6000918252602090912001546001600160a01b03169150829050565b6000546001600160a01b03163314806200240d57506006546001600160a01b031633145b6200245b5760405162461bcd60e51b815260206004820152601f60248201527f7475726e56654f6e3a207065726d697373696f6e2069732064656e6965642100604482015260640162000983565b6016805460ff60a01b198116600160a01b9182900460ff1615909102179055565b60005b82518110156200251d578281815181106200249e576200249e62003236565b602090810291909101015160405163ef0d090f60e01b81526001600160a01b0384811660048301529091169063ef0d090f90602401600060405180830381600087803b158015620024ee57600080fd5b505af115801562002503573d6000803e3d6000fd5b505050508080620025149062003291565b9150506200247f565b505050565b6200252d8362002a82565b8151600480546040516370a0823160e01b81526001600160a01b0387811693820193909352600092909116906370a0823190602401602060405180830381865afa15801562002580573d6000803e3d6000fd5b505050506040513d601f19601f82011682018060405250810190620025a69190620032af565b905060008060005b84811015620025f857858181518110620025cc57620025cc62003236565b602002602001015183620025e191906200333d565b925080620025ef8162003291565b915050620025ae565b5060005b84811015620027e75760008782815181106200261c576200261c62003236565b6020908102919091018101516001600160a01b038082166000908152601990935260408320548a51929450169190869088908b908790811062002663576200266362003236565b60200260200101516200267791906200324c565b6200268391906200326e565b90506001600160a01b03821615801590620026b657506001600160a01b0383166000908152601a602052604090205460ff165b15620027ce57620026c881866200333d565b945080600a54620026da91906200333d565b600a556001600160a01b0383166000908152601c6020526040902054620027039082906200333d565b6001600160a01b038481166000818152601c60209081526040808320959095558f8416808352601e825285832080546001810182559084528284200180546001600160a01b03191685179055808352601d82528583209383529281528482208690558684168252601b9052839020549251630463cd9760e41b815260048101859052602481019190915291169063463cd97090604401600060405180830381600087803b158015620027b457600080fd5b505af1158015620027c9573d6000803e3d6000fd5b505050505b5050508080620027de9062003291565b915050620025fc565b506001600160a01b039096166000908152601f60205260409020959095555050505050565b8015806200288a5750604051636eb1769f60e11b81523060048201526001600160a01b03838116602483015284169063dd62ed3e90604401602060405180830381865afa15801562002862573d6000803e3d6000fd5b505050506040513d601f19601f82011682018060405250810190620028889190620032af565b155b620028f75760405162461bcd60e51b815260206004820152603660248201527f5361666545524332303a20617070726f76652066726f6d206e6f6e2d7a65726f60448201527520746f206e6f6e2d7a65726f20616c6c6f77616e636560501b606482015260840162000983565b6040516001600160a01b0383166024820152604481018290526200251d90849063095ea7b360e01b906064015b60408051601f198184030181529190526020810180516001600160e01b03166001600160e01b03199093169290921790915262002c27565b6003546009546040516393f1a40b60e01b815260048101919091523060248201526000916001600160a01b0316906393f1a40b906044016040805180830381865afa158015620029b0573d6000803e3d6000fd5b505050506040513d601f19601f82011682018060405250810190620029d6919062003358565b50600354600954604051630441a3e760e41b81526004810191909152602481018390529192506001600160a01b03169063441a3e7090604401600060405180830381600087803b15801562002a2a57600080fd5b505af115801562002a3f573d6000803e3d6000fd5b5050505062002a4d6200221e565b50565b6040516001600160a01b0383166024820152604481018290526200251d90849063a9059cbb60e01b9060640162002924565b6001600160a01b0381166000908152601e60205260408120805490915b8181101562002c0357600083828154811062002abf5762002abf62003236565b60009182526020808320909101546001600160a01b038881168452601d8352604080852091909216808552925290912054909150801562002beb5780600a5462002b0a91906200321c565b600a556001600160a01b0382166000908152601c602052604090205462002b339082906200321c565b6001600160a01b038381166000908152601c6020908152604080832094909455601981528382205483168252601b905282902054915163293311ab60e01b815260048101849052888216602482015291169063293311ab90604401600060405180830381600087803b15801562002ba957600080fd5b505af115801562002bbe573d6000803e3d6000fd5b5050506001600160a01b038088166000908152601d60209081526040808320938716835292905290812055505b5050808062002bfa9062003291565b91505062002a9f565b506001600160a01b0383166000908152601e602052604081206200251d9162002e0e565b62002c3b826001600160a01b031662002dc3565b62002c895760405162461bcd60e51b815260206004820152601f60248201527f5361666545524332303a2063616c6c20746f206e6f6e2d636f6e747261637400604482015260640162000983565b600080836001600160a01b03168360405162002ca691906200337d565b6000604051808303816000865af19150503d806000811462002ce5576040519150601f19603f3d011682016040523d82523d6000602084013e62002cea565b606091505b50915091508162002d3e5760405162461bcd60e51b815260206004820181905260248201527f5361666545524332303a206c6f772d6c6576656c2063616c6c206661696c6564604482015260640162000983565b80511562002dbd578080602001905181019062002d5c9190620032c9565b62002dbd5760405162461bcd60e51b815260206004820152602a60248201527f5361666545524332303a204552433230206f7065726174696f6e20646964206e6044820152691bdd081cdd58d8d9595960b21b606482015260840162000983565b50505050565b6000813f7fc5d2460186f7233c927e7db2dcc703c0e500b653ca82273b7bfad8045d85a470811580159062002df85750808214155b949350505050565b611b4b80620033bc83390190565b508054600082559060005260206000209081019062002a4d91905b8082111562002e3f576000815560010162002e29565b5090565b6001600160a01b038116811462002a4d57600080fd5b803562002e668162002e43565b919050565b60006020828403121562002e7e57600080fd5b813562002e8b8162002e43565b9392505050565b60008083601f84011262002ea557600080fd5b50813567ffffffffffffffff81111562002ebe57600080fd5b6020830191508360208260051b850101111562002eda57600080fd5b9250929050565b6000806000806040858703121562002ef857600080fd5b843567ffffffffffffffff8082111562002f1157600080fd5b62002f1f8883890162002e92565b9096509450602087013591508082111562002f3957600080fd5b5062002f488782880162002e92565b95989497509550505050565b6000806040838503121562002f6857600080fd5b50508035926020909101359150565b60006020828403121562002f8a57600080fd5b5035919050565b6020808252825182820181905260009190848201906040850190845b8181101562002fd45783516001600160a01b03168352928401929184019160010162002fad565b50909695505050505050565b801515811462002a4d57600080fd5b600080604083850312156200300357600080fd5b8235620030108162002e43565b91506020830135620030228162002fe0565b809150509250929050565b6000806000606084860312156200304357600080fd5b8335620030508162002e43565b92506020840135620030628162002e43565b91506040840135620030748162002e43565b809150509250925092565b600080604083850312156200309357600080fd5b8235620030a08162002e43565b91506020830135620030228162002e43565b60008060408385031215620030c657600080fd5b8235620030d38162002e43565b946020939093013593505050565b634e487b7160e01b600052604160045260246000fd5b600080604083850312156200310b57600080fd5b823567ffffffffffffffff808211156200312457600080fd5b818501915085601f8301126200313957600080fd5b8135602082821115620031505762003150620030e1565b8160051b604051601f19603f83011681018181108682111715620031785762003178620030e1565b6040529283528183019350848101820192898411156200319757600080fd5b948201945b83861015620031c057620031b08662002e59565b855294820194938201936200319c565b9650620031d1905087820162002e59565b9450505050509250929050565b6020808252600e908201526d10b3b7bb1037b91010b0b236b4b760911b604082015260600190565b634e487b7160e01b600052601160045260246000fd5b60008282101562003231576200323162003206565b500390565b634e487b7160e01b600052603260045260246000fd5b600081600019048311821515161562003269576200326962003206565b500290565b6000826200328c57634e487b7160e01b600052601260045260246000fd5b500490565b6000600019821415620032a857620032a862003206565b5060010190565b600060208284031215620032c257600080fd5b5051919050565b600060208284031215620032dc57600080fd5b815162002e8b8162002fe0565b60008060408385031215620032fd57600080fd5b82516200330a8162002e43565b6020840151909250620030228162002e43565b6000602082840312156200333057600080fd5b815162002e8b8162002e43565b6000821982111562003353576200335362003206565b500190565b600080604083850312156200336c57600080fd5b505080516020909101519092909150565b6000825160005b81811015620033a0576020818601810151858301520162003384565b81811115620033b0576000828501525b50919091019291505056fe60c0604052600060035560006004553480156200001b57600080fd5b5060405162001b4b38038062001b4b8339810160408190526200003e91620000ad565b6001600081905580546001600160a01b039586166001600160a01b0319918216179091556002805494861694821694909417909355908316608052600980549190931691161790553360a0526200010a565b80516001600160a01b0381168114620000a857600080fd5b919050565b60008060008060808587031215620000c457600080fd5b620000cf8562000090565b9350620000df6020860162000090565b9250620000ef6040860162000090565b9150620000ff6060860162000090565b905092959194509250565b60805160a0516119ea62000161600039600081816102f70152818161050e015261060101526000818161033e01528181610c1101528181610d9601528181610f4b0152818161109c01526111d301526119ea6000f3fe608060405234801561001057600080fd5b50600436106101ef5760003560e01c8063853828b61161010f578063cd3daf9d116100a2578063df136d6511610071578063df136d651461041c578063ebe2b12b14610425578063f7c618c11461042e578063f96dae0a1461044157600080fd5b8063cd3daf9d146103f0578063d35e2544146103f8578063d7da4bb01461040b578063de5f62681461041457600080fd5b806396c55175116100de57806396c55175146103ae578063b6b55f25146103c1578063c8f33c91146103d4578063ca1c9b75146103dd57600080fd5b8063853828b6146103605780638b0e888e146103685780638b8763471461038557806393f1c442146103a557600080fd5b80633d18b912116101875780637b0a47ee116101565780637b0a47ee146102e95780637c91e4eb146102f257806380faa57d1461033157806382bfefc81461033957600080fd5b80633d18b9121461028f5780634c02a21c1461029757806363fb415b146102a057806370a08231146102c057600080fd5b80631c1f78eb116101c35780631c1f78eb1461024c5780632e1a7d4d1461025457806336efd16f146102695780633c6b16ab1461027c57600080fd5b80628cc262146101f45780630700037d1461021a57806318160ddd1461023a5780631be0528914610242575b600080fd5b6102076102023660046117ab565b610454565b6040519081526020015b60405180910390f35b6102076102283660046117ab565b600b6020526000908152604090205481565b600c54610207565b61020762093a8081565b6102076104d1565b6102676102623660046117c8565b6104e9565b005b6102676102773660046117e1565b6104f5565b61026761028a3660046117c8565b610503565b6102676107b7565b61020760085481565b6102076102ae3660046117ab565b600f6020526000908152604090205481565b6102076102ce3660046117ab565b6001600160a01b03166000908152600e602052604090205490565b61020760045481565b6103197f000000000000000000000000000000000000000000000000000000000000000081565b6040516001600160a01b039091168152602001610211565b6102076108d0565b6103197f000000000000000000000000000000000000000000000000000000000000000081565b6102676108de565b6103706108f9565b60408051928352602083019190915201610211565b6102076103933660046117ab565b600a6020526000908152604090205481565b61020760075481565b6102676103bc3660046117ab565b610939565b6102676103cf3660046117c8565b61099f565b61020760055481565b600954610319906001600160a01b031681565b6102076109a9565b6102076104063660046117ab565b610a18565b610207600d5481565b610267610bf8565b61020760065481565b61020760035481565b600154610319906001600160a01b031681565b600254610319906001600160a01b031681565b6001600160a01b0381166000908152600b6020908152604080832054600a909252822054670de0b6b3a76400009061048a6109a9565b6104949190611827565b6001600160a01b0385166000908152600f60205260409020546104b7919061183e565b6104c1919061185d565b6104cb919061187f565b92915050565b600062093a806004546104e4919061183e565b905090565b6104f281610c8a565b50565b6104ff8282610e1b565b5050565b336001600160a01b037f000000000000000000000000000000000000000000000000000000000000000016146105935760405162461bcd60e51b815260206004820152602a60248201527f43616c6c6572206973206e6f742052657761726473446973747269627574696f6044820152691b8818dbdb9d1c9858dd60b21b60648201526084015b60405180910390fd5b600061059d6109a9565b6006556105a86108d0565b6005556001600160a01b038116156105ef576105c381610454565b6001600160a01b0382166000908152600b6020908152604080832093909355600654600a909152919020555b600154610627906001600160a01b03167f00000000000000000000000000000000000000000000000000000000000000003085610fd9565b60035442106106455761063d62093a808361185d565b600455610687565b6000426003546106559190611827565b9050600060045482610667919061183e565b905062093a80610677828661187f565b610681919061185d565b60045550505b6001546040516370a0823160e01b81523060048201526000916001600160a01b0316906370a0823190602401602060405180830381865afa1580156106d0573d6000803e3d6000fd5b505050506040513d601f19601f820116820180604052508101906106f49190611897565b905061070362093a808261185d565b60045411156107545760405162461bcd60e51b815260206004820152601860248201527f50726f76696465642072657761726420746f6f20686967680000000000000000604482015260640161058a565b4260058190556107689062093a809061187f565b6003556040518381527fde88a922e0d3b88b24e9623efeb464919c6bf9f66857a65e2bfcf2ce87a9433d9060200160405180910390a1506001600160a01b038116156104ff576104ff81610939565b600260005414156107da5760405162461bcd60e51b815260040161058a906118b0565b6002600055336107e86109a9565b6006556107f36108d0565b6005556001600160a01b0381161561083a5761080e81610454565b6001600160a01b0382166000908152600b6020908152604080832093909355600654600a909152919020555b336000908152600b602052604090205480156108af57336000818152600b6020526040812055600154610879916001600160a01b03909116908361104a565b60405181815233907fe2403640ba68fed3a2f88b7557551d1993f84b99bb10ff833f0cf8db0c5e04869060200160405180910390a25b506001600160a01b038116156108c8576108c881610939565b506001600055565b60006104e44260035461107f565b336000908152600e60205260409020546108f790610c8a565b565b6000806002600054141561091f5760405162461bcd60e51b815260040161058a906118b0565b600260005561092c611097565b9150915060016000559091565b6001600160a01b0381166000908152600f6020526040902054600d54610960908290611827565b600d5561096c82610a18565b6001600160a01b0383166000908152600f60205260409020819055600d5490915061099890829061187f565b600d555050565b6104f28133610e1b565b6000600d54600014156109bc5750600090565b600c546109ca575060065490565b600d546004546005546109db6108d0565b6109e59190611827565b6109ef919061183e565b610a0190670de0b6b3a764000061183e565b610a0b919061185d565b6006546104e4919061187f565b600254604080516318160ddd60e01b815290516000926001600160a01b0316916318160ddd9160048083019260209291908290030181865afa158015610a62573d6000803e3d6000fd5b505050506040513d601f19601f82011682018060405250810190610a869190611897565b610a9257506000919050565b6001600160a01b0382166000908152600e6020526040812054906064610ab983602861183e565b610ac3919061185d565b905060006064600260009054906101000a90046001600160a01b03166001600160a01b03166318160ddd6040518163ffffffff1660e01b8152600401602060405180830381865afa158015610b1c573d6000803e3d6000fd5b505050506040513d601f19601f82011682018060405250810190610b409190611897565b6002546040516370a0823160e01b81526001600160a01b038981166004830152909116906370a0823190602401602060405180830381865afa158015610b8a573d6000803e3d6000fd5b505050506040513d601f19601f82011682018060405250810190610bae9190611897565b600c54610bbb919061183e565b610bc5919061185d565b610bd090603c61183e565b610bda919061185d565b9050610bef610be9828461187f565b8461107f565b95945050505050565b6040516370a0823160e01b81523360048201526108f7907f00000000000000000000000000000000000000000000000000000000000000006001600160a01b0316906370a0823190602401602060405180830381865afa158015610c60573d6000803e3d6000fd5b505050506040513d601f19601f82011682018060405250810190610c849190611897565b33610e1b565b60026000541415610cad5760405162461bcd60e51b815260040161058a906118b0565b600260005533610cbb6109a9565b600655610cc66108d0565b6005556001600160a01b03811615610d0d57610ce181610454565b6001600160a01b0382166000908152600b6020908152604080832093909355600654600a909152919020555b60008211610d515760405162461bcd60e51b8152602060048201526011602482015270043616e6e6f74207769746864726177203607c1b604482015260640161058a565b81600c54610d5f9190611827565b600c55336000908152600e6020526040902054610d7d908390611827565b336000818152600e6020526040902091909155610dc5907f00000000000000000000000000000000000000000000000000000000000000006001600160a01b0316908461104a565b60405182815233907f7084f5476618d8e60b11ef0d7d3f06914655adb8793e28ff7f018d4c76d505d59060200160405180910390a26001600160a01b03811615610e1257610e1281610939565b50506001600055565b60026000541415610e3e5760405162461bcd60e51b815260040161058a906118b0565b600260005580610e4c6109a9565b600655610e576108d0565b6005556001600160a01b03811615610e9e57610e7281610454565b6001600160a01b0382166000908152600b6020908152604080832093909355600654600a909152919020555b60008311610eee5760405162461bcd60e51b815260206004820152601e60248201527f6465706f736974284761756765293a2063616e6e6f74207374616b6520300000604482015260640161058a565b6001600160a01b0382166000908152600e60205260409020548390610f1490829061187f565b6001600160a01b0384166000908152600e6020526040902055600c54610f3b90829061187f565b600c55610f736001600160a01b037f000000000000000000000000000000000000000000000000000000000000000016843087610fd9565b826001600160a01b03167f9e71bc8eea02a63969f509818f2dafb9254532904319f9dbda79b67bd34a5f3d82604051610fae91815260200190565b60405180910390a2506001600160a01b03811615610fcf57610fcf81610939565b5050600160005550565b6040516001600160a01b03808516602483015283166044820152606481018290526110449085906323b872dd60e01b906084015b60408051601f198184030181529190526020810180516001600160e01b03166001600160e01b0319909316929092179091526114be565b50505050565b6040516001600160a01b03831660248201526044810182905261107a90849063a9059cbb60e01b9060640161100d565b505050565b600081831061108e5781611090565b825b9392505050565b6000807f00000000000000000000000000000000000000000000000000000000000000006001600160a01b031663d294f0936040518163ffffffff1660e01b815260040160408051808303816000875af11580156110f9573d6000803e3d6000fd5b505050506040513d601f19601f8201168201806040525081019061111d91906118e7565b600954604051635462ecad60e11b81523060048201529294509092506000916001600160a01b039091169063a8c5d95a906024016020604051808303816000875af1158015611170573d6000803e3d6000fd5b505050506040513d601f19601f82011682018060405250810190611194919061190b565b905060008311806111a55750600082115b156114b9576000836007546111ba919061187f565b90506000836008546111cc919061187f565b90506000807f00000000000000000000000000000000000000000000000000000000000000006001600160a01b0316639d63848a6040518163ffffffff1660e01b815260040160408051808303816000875af1158015611230573d6000803e3d6000fd5b505050506040513d601f19601f820116820180604052508101906112549190611928565b604051634cde602960e11b81526001600160a01b038084166004830152929450909250908616906399bcc05290602401602060405180830381865afa1580156112a1573d6000803e3d6000fd5b505050506040513d601f19601f820116820180604052508101906112c59190611897565b841180156112df575060006112dd62093a808661185d565b115b156113645760006007556112fd6001600160a01b0383168686611645565b60405163b66503cf60e01b81526001600160a01b0383811660048301526024820186905286169063b66503cf90604401600060405180830381600087803b15801561134757600080fd5b505af115801561135b573d6000803e3d6000fd5b5050505061136a565b60078490555b604051634cde602960e11b81526001600160a01b0382811660048301528616906399bcc05290602401602060405180830381865afa1580156113b0573d6000803e3d6000fd5b505050506040513d601f19601f820116820180604052508101906113d49190611897565b831180156113ee575060006113ec62093a808561185d565b115b1561147357600060085561140c6001600160a01b0382168685611645565b60405163b66503cf60e01b81526001600160a01b0382811660048301526024820185905286169063b66503cf90604401600060405180830381600087803b15801561145657600080fd5b505af115801561146a573d6000803e3d6000fd5b50505050611479565b60088390555b604080518881526020810188905233917fd9b982883d6f1d237dbf653d6baf27ba3264fa2a489737131b3cb7aef4fe40de910160405180910390a2505050505b509091565b6114d0826001600160a01b031661175a565b61151c5760405162461bcd60e51b815260206004820152601f60248201527f5361666545524332303a2063616c6c20746f206e6f6e2d636f6e747261637400604482015260640161058a565b600080836001600160a01b0316836040516115379190611957565b6000604051808303816000865af19150503d8060008114611574576040519150601f19603f3d011682016040523d82523d6000602084013e611579565b606091505b5091509150816115cb5760405162461bcd60e51b815260206004820181905260248201527f5361666545524332303a206c6f772d6c6576656c2063616c6c206661696c6564604482015260640161058a565b80511561104457808060200190518101906115e69190611992565b6110445760405162461bcd60e51b815260206004820152602a60248201527f5361666545524332303a204552433230206f7065726174696f6e20646964206e6044820152691bdd081cdd58d8d9595960b21b606482015260840161058a565b8015806116bf5750604051636eb1769f60e11b81523060048201526001600160a01b03838116602483015284169063dd62ed3e90604401602060405180830381865afa158015611699573d6000803e3d6000fd5b505050506040513d601f19601f820116820180604052508101906116bd9190611897565b155b61172a5760405162461bcd60e51b815260206004820152603660248201527f5361666545524332303a20617070726f76652066726f6d206e6f6e2d7a65726f60448201527520746f206e6f6e2d7a65726f20616c6c6f77616e636560501b606482015260840161058a565b6040516001600160a01b03831660248201526044810182905261107a90849063095ea7b360e01b9060640161100d565b6000813f7fc5d2460186f7233c927e7db2dcc703c0e500b653ca82273b7bfad8045d85a470811580159061178e5750808214155b949350505050565b6001600160a01b03811681146104f257600080fd5b6000602082840312156117bd57600080fd5b813561109081611796565b6000602082840312156117da57600080fd5b5035919050565b600080604083850312156117f457600080fd5b82359150602083013561180681611796565b809150509250929050565b634e487b7160e01b600052601160045260246000fd5b60008282101561183957611839611811565b500390565b600081600019048311821515161561185857611858611811565b500290565b60008261187a57634e487b7160e01b600052601260045260246000fd5b500490565b6000821982111561189257611892611811565b500190565b6000602082840312156118a957600080fd5b5051919050565b6020808252601f908201527f5265656e7472616e637947756172643a207265656e7472616e742063616c6c00604082015260600190565b600080604083850312156118fa57600080fd5b505080516020909101519092909150565b60006020828403121561191d57600080fd5b815161109081611796565b6000806040838503121561193b57600080fd5b825161194681611796565b602084015190925061180681611796565b6000825160005b81811015611978576020818601810151858301520161195e565b81811115611987576000828501525b509190910192915050565b6000602082840312156119a457600080fd5b8151801515811461109057600080fdfea26469706673582212201858013d9e0fe78a5aee308c58ea82b9725eeadc7ddfd5bc5a3667387621bd0764736f6c634300080b0033a2646970667358221220b515a238b256f5b4ab97c6e34fce2f02df53d5ef6bcbd4b1fffc7e633f0c8af064736f6c634300080b00336080604052670de0b6b3a764000060005534801561001c57600080fd5b50336000818152600260209081526040808320670de0b6b3a76400009081905590519081527fddf252ad1be2c89b69c2b068fc378daa952ba7f163c4a11628f55a4df523b3ef910160405180910390a36106368061007b6000396000f3fe608060405234801561001057600080fd5b50600436106100935760003560e01c8063313ce56711610066578063313ce5671461012957806370a082311461014357806395d89b411461016c578063a9059cbb14610194578063dd62ed3e146101a757600080fd5b806306fdde0314610098578063095ea7b3146100dc57806318160ddd146100ff57806323b872dd14610116575b600080fd5b6100c66040518060400160405280600f81526020016e13585cdd195c881a5b94d412549255608a1b81525081565b6040516100d3919061048f565b60405180910390f35b6100ef6100ea366004610500565b6101e0565b60405190151581526020016100d3565b61010860005481565b6040519081526020016100d3565b6100ef61012436600461052a565b61024c565b610131601281565b60405160ff90911681526020016100d3565b610108610151366004610566565b6001600160a01b031660009081526002602052604090205490565b6100c6604051806040016040528060098152602001681b5a5b94d41254925560ba1b81525081565b6100ef6101a2366004610500565b610313565b6101086101b5366004610588565b6001600160a01b03918216600090815260016020908152604080832093909416825291909152205490565b3360008181526001602090815260408083206001600160a01b038716808552925280832085905551919290917f8c5be1e5ebec7d5bd14f71427d1e84f3dd0314c0f7b2291e5b200ac8c7c3b9259061023b9086815260200190565b60405180910390a350600192915050565b6001600160a01b03831660008181526001602090815260408083203380855292528220549192909190821480159061028657506000198114155b156102fc57600061029785836105d1565b6001600160a01b038881166000818152600160209081526040808320948916808452948252918290208590559051848152939450919290917f8c5be1e5ebec7d5bd14f71427d1e84f3dd0314c0f7b2291e5b200ac8c7c3b925910160405180910390a3505b610307868686610329565b50600195945050505050565b6000610320338484610329565b50600192915050565b6001600160a01b0383166103845760405162461bcd60e51b815260206004820152601d60248201527f5f7472616e73666572546f6b656e733a207a65726f206164647265737300000060448201526064015b60405180910390fd5b6001600160a01b0382166103da5760405162461bcd60e51b815260206004820152601d60248201527f5f7472616e73666572546f6b656e733a207a65726f2061646472657373000000604482015260640161037b565b6001600160a01b0383166000908152600260205260409020546103fe9082906105d1565b6001600160a01b03808516600090815260026020526040808220939093559084168152205461042e9082906105e8565b6001600160a01b0380841660008181526002602052604090819020939093559151908516907fddf252ad1be2c89b69c2b068fc378daa952ba7f163c4a11628f55a4df523b3ef906104829085815260200190565b60405180910390a3505050565b600060208083528351808285015260005b818110156104bc578581018301518582016040015282016104a0565b818111156104ce576000604083870101525b50601f01601f1916929092016040019392505050565b80356001600160a01b03811681146104fb57600080fd5b919050565b6000806040838503121561051357600080fd5b61051c836104e4565b946020939093013593505050565b60008060006060848603121561053f57600080fd5b610548846104e4565b9250610556602085016104e4565b9150604084013590509250925092565b60006020828403121561057857600080fd5b610581826104e4565b9392505050565b6000806040838503121561059b57600080fd5b6105a4836104e4565b91506105b2602084016104e4565b90509250929050565b634e487b7160e01b600052601160045260246000fd5b6000828210156105e3576105e36105bb565b500390565b600082198211156105fb576105fb6105bb565b50019056fea26469706673582212209c889f3e2983d08902e78fd0b3946b2496136f58c10f37e9e4dadeb9f6c928e464736f6c634300080b0033",
  "linkReferences": {},
  "deployedLinkReferences": {}
}