{
  "_format": "hh-sol-artifact-1",
  "contractName": "Bribe",
  "sourceName": "contracts/spirit-v2-farming/Bribes.sol",
  "abi": [
    {
      "inputs": [
        {
          "internalType": "address",
          "name": "_owner",
          "type": "address"
        },
        {
          "internalType": "address",
          "name": "_gaugeProxy",
          "type": "address"
        },
        {
          "internalType": "address",
          "name": "_bribeFactory",
          "type": "address"
        }
      ],
      "stateMutability": "nonpayable",
      "type": "constructor"
    },
    {
      "anonymous": false,
      "inputs": [
        {
          "indexed": false,
          "internalType": "address",
          "name": "oldOwner",
          "type": "address"
        },
        {
          "indexed": false,
          "internalType": "address",
          "name": "newOwner",
          "type": "address"
        }
      ],
      "name": "OwnerChanged",
      "type": "event"
    },
    {
      "anonymous": false,
      "inputs": [
        {
          "indexed": false,
          "internalType": "address",
          "name": "newOwner",
          "type": "address"
        }
      ],
      "name": "OwnerNominated",
      "type": "event"
    },
    {
      "anonymous": false,
      "inputs": [
        {
          "indexed": false,
          "internalType": "address",
          "name": "token",
          "type": "address"
        },
        {
          "indexed": false,
          "internalType": "uint256",
          "name": "amount",
          "type": "uint256"
        }
      ],
      "name": "Recovered",
      "type": "event"
    },
    {
      "anonymous": false,
      "inputs": [
        {
          "indexed": false,
          "internalType": "address",
          "name": "rewardToken",
          "type": "address"
        },
        {
          "indexed": false,
          "internalType": "uint256",
          "name": "reward",
          "type": "uint256"
        }
      ],
      "name": "RewardAdded",
      "type": "event"
    },
    {
      "anonymous": false,
      "inputs": [
        {
          "indexed": true,
          "internalType": "address",
          "name": "user",
          "type": "address"
        },
        {
          "indexed": true,
          "internalType": "address",
          "name": "rewardsToken",
          "type": "address"
        },
        {
          "indexed": false,
          "internalType": "uint256",
          "name": "reward",
          "type": "uint256"
        }
      ],
      "name": "RewardPaid",
      "type": "event"
    },
    {
      "anonymous": false,
      "inputs": [
        {
          "indexed": true,
          "internalType": "address",
          "name": "user",
          "type": "address"
        },
        {
          "indexed": false,
          "internalType": "uint256",
          "name": "amount",
          "type": "uint256"
        }
      ],
      "name": "Staked",
      "type": "event"
    },
    {
      "anonymous": false,
      "inputs": [
        {
          "indexed": true,
          "internalType": "address",
          "name": "user",
          "type": "address"
        },
        {
          "indexed": false,
          "internalType": "uint256",
          "name": "amount",
          "type": "uint256"
        }
      ],
      "name": "Withdrawn",
      "type": "event"
    },
    {
      "inputs": [],
      "name": "DURATION",
      "outputs": [
        {
          "internalType": "uint256",
          "name": "",
          "type": "uint256"
        }
      ],
      "stateMutability": "view",
      "type": "function"
    },
    {
      "inputs": [
        {
          "internalType": "uint256",
          "name": "amount",
          "type": "uint256"
        },
        {
          "internalType": "address",
          "name": "voter",
          "type": "address"
        }
      ],
      "name": "_deposit",
      "outputs": [],
      "stateMutability": "nonpayable",
      "type": "function"
    },
    {
      "inputs": [
        {
          "internalType": "uint256",
          "name": "amount",
          "type": "uint256"
        },
        {
          "internalType": "address",
          "name": "voter",
          "type": "address"
        }
      ],
      "name": "_withdraw",
      "outputs": [],
      "stateMutability": "nonpayable",
      "type": "function"
    },
    {
      "inputs": [],
      "name": "acceptOwnership",
      "outputs": [],
      "stateMutability": "nonpayable",
      "type": "function"
    },
    {
      "inputs": [
        {
          "internalType": "address",
          "name": "_rewardsToken",
          "type": "address"
        }
      ],
      "name": "addReward",
      "outputs": [],
      "stateMutability": "nonpayable",
      "type": "function"
    },
    {
      "inputs": [
        {
          "internalType": "address",
          "name": "account",
          "type": "address"
        }
      ],
      "name": "balanceOf",
      "outputs": [
        {
          "internalType": "uint256",
          "name": "",
          "type": "uint256"
        }
      ],
      "stateMutability": "view",
      "type": "function"
    },
    {
      "inputs": [],
      "name": "bribeFactory",
      "outputs": [
        {
          "internalType": "address",
          "name": "",
          "type": "address"
        }
      ],
      "stateMutability": "view",
      "type": "function"
    },
    {
      "inputs": [
        {
          "internalType": "address",
          "name": "account",
          "type": "address"
        },
        {
          "internalType": "address",
          "name": "_rewardsToken",
          "type": "address"
        }
      ],
      "name": "earned",
      "outputs": [
        {
          "internalType": "uint256",
          "name": "",
          "type": "uint256"
        }
      ],
      "stateMutability": "view",
      "type": "function"
    },
    {
      "inputs": [],
      "name": "gaugeProxy",
      "outputs": [
        {
          "internalType": "address",
          "name": "",
          "type": "address"
        }
      ],
      "stateMutability": "view",
      "type": "function"
    },
    {
      "inputs": [
        {
          "internalType": "address",
          "name": "_rewardsToken",
          "type": "address"
        }
      ],
      "name": "getRewardForDuration",
      "outputs": [
        {
          "internalType": "uint256",
          "name": "",
          "type": "uint256"
        }
      ],
      "stateMutability": "view",
      "type": "function"
    },
    {
      "inputs": [
        {
          "internalType": "address",
          "name": "voter",
          "type": "address"
        }
      ],
      "name": "getRewardForOwner",
      "outputs": [],
      "stateMutability": "nonpayable",
      "type": "function"
    },
    {
      "inputs": [
        {
          "internalType": "address",
          "name": "",
          "type": "address"
        }
      ],
      "name": "isRewardToken",
      "outputs": [
        {
          "internalType": "bool",
          "name": "",
          "type": "bool"
        }
      ],
      "stateMutability": "view",
      "type": "function"
    },
    {
      "inputs": [
        {
          "internalType": "address",
          "name": "_rewardsToken",
          "type": "address"
        }
      ],
      "name": "lastTimeRewardApplicable",
      "outputs": [
        {
          "internalType": "uint256",
          "name": "",
          "type": "uint256"
        }
      ],
      "stateMutability": "view",
      "type": "function"
    },
    {
      "inputs": [
        {
          "internalType": "address",
          "name": "_rewardsToken",
          "type": "address"
        }
      ],
      "name": "left",
      "outputs": [
        {
          "internalType": "uint256",
          "name": "leftover",
          "type": "uint256"
        }
      ],
      "stateMutability": "view",
      "type": "function"
    },
    {
      "inputs": [
        {
          "internalType": "address",
          "name": "_owner",
          "type": "address"
        }
      ],
      "name": "nominateNewOwner",
      "outputs": [],
      "stateMutability": "nonpayable",
      "type": "function"
    },
    {
      "inputs": [],
      "name": "nominatedOwner",
      "outputs": [
        {
          "internalType": "address",
          "name": "",
          "type": "address"
        }
      ],
      "stateMutability": "view",
      "type": "function"
    },
    {
      "inputs": [
        {
          "internalType": "address",
          "name": "_rewardsToken",
          "type": "address"
        },
        {
          "internalType": "uint256",
          "name": "reward",
          "type": "uint256"
        }
      ],
      "name": "notifyRewardAmount",
      "outputs": [],
      "stateMutability": "nonpayable",
      "type": "function"
    },
    {
      "inputs": [],
      "name": "owner",
      "outputs": [
        {
          "internalType": "address",
          "name": "",
          "type": "address"
        }
      ],
      "stateMutability": "view",
      "type": "function"
    },
    {
      "inputs": [
        {
          "internalType": "address",
          "name": "tokenAddress",
          "type": "address"
        },
        {
          "internalType": "uint256",
          "name": "tokenAmount",
          "type": "uint256"
        }
      ],
      "name": "recoverERC20",
      "outputs": [],
      "stateMutability": "nonpayable",
      "type": "function"
    },
    {
      "inputs": [
        {
          "internalType": "address",
          "name": "",
          "type": "address"
        }
      ],
      "name": "rewardData",
      "outputs": [
        {
          "internalType": "uint256",
          "name": "periodFinish",
          "type": "uint256"
        },
        {
          "internalType": "uint256",
          "name": "rewardRate",
          "type": "uint256"
        },
        {
          "internalType": "uint256",
          "name": "lastUpdateTime",
          "type": "uint256"
        },
        {
          "internalType": "uint256",
          "name": "rewardPerTokenStored",
          "type": "uint256"
        }
      ],
      "stateMutability": "view",
      "type": "function"
    },
    {
      "inputs": [
        {
          "internalType": "address",
          "name": "_rewardsToken",
          "type": "address"
        }
      ],
      "name": "rewardPerToken",
      "outputs": [
        {
          "internalType": "uint256",
          "name": "",
          "type": "uint256"
        }
      ],
      "stateMutability": "view",
      "type": "function"
    },
    {
      "inputs": [
        {
          "internalType": "uint256",
          "name": "",
          "type": "uint256"
        }
      ],
      "name": "rewardTokens",
      "outputs": [
        {
          "internalType": "address",
          "name": "",
          "type": "address"
        }
      ],
      "stateMutability": "view",
      "type": "function"
    },
    {
      "inputs": [
        {
          "internalType": "address",
          "name": "",
          "type": "address"
        },
        {
          "internalType": "address",
          "name": "",
          "type": "address"
        }
      ],
      "name": "rewards",
      "outputs": [
        {
          "internalType": "uint256",
          "name": "",
          "type": "uint256"
        }
      ],
      "stateMutability": "view",
      "type": "function"
    },
    {
      "inputs": [],
      "name": "totalSupply",
      "outputs": [
        {
          "internalType": "uint256",
          "name": "",
          "type": "uint256"
        }
      ],
      "stateMutability": "view",
      "type": "function"
    },
    {
      "inputs": [
        {
          "internalType": "address",
          "name": "",
          "type": "address"
        },
        {
          "internalType": "address",
          "name": "",
          "type": "address"
        }
      ],
      "name": "userRewardPerTokenPaid",
      "outputs": [
        {
          "internalType": "uint256",
          "name": "",
          "type": "uint256"
        }
      ],
      "stateMutability": "view",
      "type": "function"
    }
  ],
  "bytecode": "0x60806040523480156200001157600080fd5b5060405162001ae338038062001ae383398101604081905262000034916200017f565b6001600055826001600160a01b038116620000955760405162461bcd60e51b815260206004820152601960248201527f4f776e657220616464726573732063616e6e6f74206265203000000000000000604482015260640160405180910390fd5b600180546001600160a01b0319166001600160a01b038316908117909155604080516000815260208101929092527fb532073b38c83145e3e5135377a08bf9aab55bc0fd7c1179cd4fb995d2a5159c910160405180910390a1506001600160a01b038116158015906200011057506001600160a01b03821615155b80156200012557506001600160a01b03831615155b6200012f57600080fd5b600680546001600160a01b039384166001600160a01b0319918216179091556007805492909316911617905550620001c9565b80516001600160a01b03811681146200017a57600080fd5b919050565b6000806000606084860312156200019557600080fd5b620001a08462000162565b9250620001b06020850162000162565b9150620001c06040850162000162565b90509250925092565b61190a80620001d96000396000f3fe608060405234801561001057600080fd5b50600436106101735760003560e01c80637bb7bed1116100de578063b66503cf11610097578063e70b9e2711610071578063e70b9e27146103a3578063eb4a78e0146103ce578063ef0d090f146103e1578063f1229777146103f457600080fd5b8063b66503cf1461036a578063bcd110141461037d578063ca1c9b751461039057600080fd5b80637bb7bed1146102d85780638980f11f146102eb5780638da5cb5b146102fe57806399bcc052146103115780639c9b2e2114610324578063b5fd73f81461033757600080fd5b806348e5d9f81161013057806348e5d9f8146101e757806353a47bb71461023e578063638634ee146102695780637035ab981461027c57806370a08231146102a757806379ba5097146102d057600080fd5b80631627540c1461017857806318160ddd1461018d5780631be05289146101a4578063211dc32d146101ae578063293311ab146101c1578063463cd970146101d4575b600080fd5b61018b6101863660046116d5565b610407565b005b600a545b6040519081526020015b60405180910390f35b61019162093a8081565b6101916101bc3660046116f0565b610463565b61018b6101cf366004611723565b6104fb565b61018b6101e2366004611723565b610738565b61021e6101f53660046116d5565b600360208190526000918252604090912080546001820154600283015492909301549092919084565b60408051948552602085019390935291830152606082015260800161019b565b600254610251906001600160a01b031681565b6040516001600160a01b03909116815260200161019b565b6101916102773660046116d5565b610937565b61019161028a3660046116f0565b600860209081526000928352604080842090915290825290205481565b6101916102b53660046116d5565b6001600160a01b03166000908152600b602052604090205490565b61018b610961565b6102516102e6366004611746565b610a4b565b61018b6102f936600461175f565b610a75565b600154610251906001600160a01b031681565b61019161031f3660046116d5565b610b46565b61018b6103323660046116d5565b610bc3565b61035a6103453660046116d5565b60046020526000908152604090205460ff1681565b604051901515815260200161019b565b61018b61037836600461175f565b610d01565b61019161038b3660046116d5565b6110d8565b600654610251906001600160a01b031681565b6101916103b13660046116f0565b600960209081526000928352604080842090915290825290205481565b600754610251906001600160a01b031681565b61018b6103ef3660046116d5565b611102565b6101916104023660046116d5565b611318565b61040f6113cb565b600280546001600160a01b0319166001600160a01b0383169081179091556040519081527f906a1c6bd7e3091ea86693dd029a831c19049ce77f1dce2ce0bab1cacbabce229060200160405180910390a150565b6001600160a01b038083166000818152600960209081526040808320948616808452948252808320549383526008825280832094835293905291822054670de0b6b3a7640000906104b385611318565b6104bd919061179f565b6001600160a01b0386166000908152600b60205260409020546104e091906117b6565b6104ea91906117d5565b6104f491906117f7565b9392505050565b600260005414156105275760405162461bcd60e51b815260040161051e9061180f565b60405180910390fd5b6002600090815581905b6005548110156106265760006005828154811061055057610550611846565b6000918252602090912001546001600160a01b0316905061057081611318565b6001600160a01b0382166000908152600360208190526040909120015561059681610937565b6001600160a01b03808316600090815260036020526040902060020191909155831615610613576105c78382610463565b6001600160a01b03808516600081815260096020908152604080832094871680845294825280832095909555600380825285832001549282526008815284822093825292909252919020555b508061061e8161185c565b915050610531565b506000831161066b5760405162461bcd60e51b8152602060048201526011602482015270043616e6e6f74207769746864726177203607c1b604482015260640161051e565b6006546001600160a01b0316331461068257600080fd5b6001600160a01b0382166000908152600b6020526040902054831161072e5782600a546106af919061179f565b600a556001600160a01b0382166000908152600b60205260409020546106d690849061179f565b6001600160a01b0383166000818152600b6020526040908190209290925590517f7084f5476618d8e60b11ef0d7d3f06914655adb8793e28ff7f018d4c76d505d5906107259086815260200190565b60405180910390a25b5050600160005550565b6002600054141561075b5760405162461bcd60e51b815260040161051e9061180f565b6002600090815581905b60055481101561085a5760006005828154811061078457610784611846565b6000918252602090912001546001600160a01b031690506107a481611318565b6001600160a01b038216600090815260036020819052604090912001556107ca81610937565b6001600160a01b03808316600090815260036020526040902060020191909155831615610847576107fb8382610463565b6001600160a01b03808516600081815260096020908152604080832094871680845294825280832095909555600380825285832001549282526008815284822093825292909252919020555b50806108528161185c565b915050610765565b506000831161089c5760405162461bcd60e51b815260206004820152600e60248201526d043616e6e6f74207374616b6520360941b604482015260640161051e565b6006546001600160a01b031633146108b357600080fd5b82600a546108c191906117f7565b600a556001600160a01b0382166000908152600b60205260409020546108e89084906117f7565b6001600160a01b0383166000818152600b6020526040908190209290925590517f9e71bc8eea02a63969f509818f2dafb9254532904319f9dbda79b67bd34a5f3d906107259086815260200190565b6001600160a01b03811660009081526003602052604081205461095b90429061143f565b92915050565b6002546001600160a01b031633146109d95760405162461bcd60e51b815260206004820152603560248201527f596f75206d757374206265206e6f6d696e61746564206265666f726520796f7560448201527402063616e20616363657074206f776e65727368697605c1b606482015260840161051e565b600154600254604080516001600160a01b0393841681529290911660208301527fb532073b38c83145e3e5135377a08bf9aab55bc0fd7c1179cd4fb995d2a5159c910160405180910390a160028054600180546001600160a01b03199081166001600160a01b03841617909155169055565b60058181548110610a5b57600080fd5b6000918252602090912001546001600160a01b0316905081565b610a7d6113cb565b6001600160a01b03821660009081526003602052604090206002015415610ae65760405162461bcd60e51b815260206004820152601c60248201527f43616e6e6f742077697468647261772072657761726420746f6b656e00000000604482015260640161051e565b600154610b00906001600160a01b03848116911683611455565b604080516001600160a01b0384168152602081018390527f8c1256b8896378cd5044f80c202f9772b9d77dc85c8a6eb51967210b09bfaa28910160405180910390a15050565b6001600160a01b0381166000908152600360205260408120544210610b6d57506000919050565b6001600160a01b038216600090815260036020526040812054610b9190429061179f565b6001600160a01b038416600090815260036020526040902060010154909150610bba90826117b6565b9150505b919050565b6001546001600160a01b0316331480610be657506007546001600160a01b031633145b610c325760405162461bcd60e51b815260206004820181905260248201527f6164645265776172643a207065726d697373696f6e2069732064656e69656421604482015260640161051e565b6001600160a01b03811660009081526004602052604090205460ff1615610c9b5760405162461bcd60e51b815260206004820152601b60248201527f52657761726420746f6b656e20616c7265616479206578697374730000000000604482015260640161051e565b6001600160a01b03166000818152600460205260408120805460ff191660019081179091556005805491820181559091527f036b6384b5eca791c62761152d0c79bb0604c104a5fb6f4eb0703f3154bb3db00180546001600160a01b0319169091179055565b60026000541415610d245760405162461bcd60e51b815260040161051e9061180f565b60026000908155805b600554811015610e2257600060058281548110610d4c57610d4c611846565b6000918252602090912001546001600160a01b03169050610d6c81611318565b6001600160a01b03821660009081526003602081905260409091200155610d9281610937565b6001600160a01b03808316600090815260036020526040902060020191909155831615610e0f57610dc38382610463565b6001600160a01b03808516600081815260096020908152604080832094871680845294825280832095909555600380825285832001549282526008815284822093825292909252919020555b5080610e1a8161185c565b915050610d2d565b5062093a80821015610e8c5760405162461bcd60e51b815260206004820152602d60248201527f72657761726420616d6f756e742073686f756c6420626520677265617465722060448201526c3a3430b710222aa920aa24a7a760991b606482015260840161051e565b6001600160a01b03831660009081526004602052604090205460ff16610ef45760405162461bcd60e51b815260206004820152601960248201527f72657761726420746f6b656e206e6f7420766572696669656400000000000000604482015260640161051e565b610f096001600160a01b0384163330856114bd565b6001600160a01b0383166000908152600360205260409020544210610f5657610f3562093a80836117d5565b6001600160a01b038416600090815260036020526040902060010155611049565b6001600160a01b038316600090815260036020526040812054610f7a90429061179f565b6001600160a01b03851660009081526003602052604081206001015491925090610fa490836117b6565b90508084116110125760405162461bcd60e51b815260206004820152603460248201527f72657761726420616d6f756e742073686f756c642062652067726561746572206044820152731d1a185b881b19599d1bdd995c88185b5bdd5b9d60621b606482015260840161051e565b62093a8061102082866117f7565b61102a91906117d5565b6001600160a01b03861660009081526003602052604090206001015550505b6001600160a01b03831660009081526003602052604090204260029091018190556110789062093a80906117f7565b6001600160a01b0384166000818152600360209081526040918290209390935580519182529181018490527fac24935fd910bc682b5ccb1a07b718cadf8cf2f6d1404c4f3ddc3662dae40e29910160405180910390a15050600160005550565b6001600160a01b03811660009081526003602052604081206001015461095b9062093a80906117b6565b600260005414156111255760405162461bcd60e51b815260040161051e9061180f565b6002600090815581905b6005548110156112245760006005828154811061114e5761114e611846565b6000918252602090912001546001600160a01b0316905061116e81611318565b6001600160a01b0382166000908152600360208190526040909120015561119481610937565b6001600160a01b03808316600090815260036020526040902060020191909155831615611211576111c58382610463565b6001600160a01b03808516600081815260096020908152604080832094871680845294825280832095909555600380825285832001549282526008815284822093825292909252919020555b508061121c8161185c565b91505061112f565b5060005b60055481101561072e5760006005828154811061124757611247611846565b60009182526020808320909101546001600160a01b038781168452600983526040808520919092168085529252909120549091508015611303576001600160a01b038086166000908152600960209081526040808320938616808452939091528120556112b5908683611455565b816001600160a01b0316856001600160a01b03167f540798df468d7b23d11f156fdb954cb19ad414d150722a7b6d55ba369dea792e836040516112fa91815260200190565b60405180910390a35b505080806113109061185c565b915050611228565b6000600a546000141561134557506001600160a01b03166000908152600360208190526040909120015490565b600a546001600160a01b0383166000908152600360205260409020600181015460029091015461137485610937565b61137e919061179f565b61138891906117b6565b61139a90670de0b6b3a76400006117b6565b6113a491906117d5565b6001600160a01b0383166000908152600360208190526040909120015461095b91906117f7565b6001546001600160a01b0316331461143d5760405162461bcd60e51b815260206004820152602f60248201527f4f6e6c792074686520636f6e7472616374206f776e6572206d6179207065726660448201526e37b936903a3434b99030b1ba34b7b760891b606482015260840161051e565b565b600081831061144e57816104f4565b5090919050565b6040516001600160a01b0383166024820152604481018290526114b890849063a9059cbb60e01b906064015b60408051601f198184030181529190526020810180516001600160e01b03166001600160e01b0319909316929092179091526114fb565b505050565b6040516001600160a01b03808516602483015283166044820152606481018290526114f59085906323b872dd60e01b90608401611481565b50505050565b61150d826001600160a01b0316611682565b6115595760405162461bcd60e51b815260206004820152601f60248201527f5361666545524332303a2063616c6c20746f206e6f6e2d636f6e747261637400604482015260640161051e565b600080836001600160a01b0316836040516115749190611877565b6000604051808303816000865af19150503d80600081146115b1576040519150601f19603f3d011682016040523d82523d6000602084013e6115b6565b606091505b5091509150816116085760405162461bcd60e51b815260206004820181905260248201527f5361666545524332303a206c6f772d6c6576656c2063616c6c206661696c6564604482015260640161051e565b8051156114f5578080602001905181019061162391906118b2565b6114f55760405162461bcd60e51b815260206004820152602a60248201527f5361666545524332303a204552433230206f7065726174696f6e20646964206e6044820152691bdd081cdd58d8d9595960b21b606482015260840161051e565b6000813f7fc5d2460186f7233c927e7db2dcc703c0e500b653ca82273b7bfad8045d85a47081158015906116b65750808214155b949350505050565b80356001600160a01b0381168114610bbe57600080fd5b6000602082840312156116e757600080fd5b6104f4826116be565b6000806040838503121561170357600080fd5b61170c836116be565b915061171a602084016116be565b90509250929050565b6000806040838503121561173657600080fd5b8235915061171a602084016116be565b60006020828403121561175857600080fd5b5035919050565b6000806040838503121561177257600080fd5b61177b836116be565b946020939093013593505050565b634e487b7160e01b600052601160045260246000fd5b6000828210156117b1576117b1611789565b500390565b60008160001904831182151516156117d0576117d0611789565b500290565b6000826117f257634e487b7160e01b600052601260045260246000fd5b500490565b6000821982111561180a5761180a611789565b500190565b6020808252601f908201527f5265656e7472616e637947756172643a207265656e7472616e742063616c6c00604082015260600190565b634e487b7160e01b600052603260045260246000fd5b600060001982141561187057611870611789565b5060010190565b6000825160005b81811015611898576020818601810151858301520161187e565b818111156118a7576000828501525b509190910192915050565b6000602082840312156118c457600080fd5b815180151581146104f457600080fdfea264697066735822122011f32b8b624fec1a52c6195c904aabef83bf51b63bd20c41a013ed038aa6854264736f6c634300080b0033",
  "linkReferences": {},
  "deployedLinkReferences": {}
}