{
  "_format": "hh-sol-artifact-1",
  "contractName": "Pausable",
  "sourceName": "contracts/test/usdtwithfee.sol",
  "abi": [
    {
      "constant": false,
      "inputs": [],
      "name": "unpause",
      "outputs": [],
      "payable": false,
      "stateMutability": "nonpayable",
      "type": "function"
    },
    {
      "constant": true,
      "inputs": [],
      "name": "paused",
      "outputs": [
        {
          "name": "",
          "type": "bool"
        }
      ],
      "payable": false,
      "stateMutability": "view",
      "type": "function"
    },
    {
      "constant": false,
      "inputs": [],
      "name": "pause",
      "outputs": [],
      "payable": false,
      "stateMutability": "nonpayable",
      "type": "function"
    },
    {
      "constant": true,
      "inputs": [],
      "name": "owner",
      "outputs": [
        {
          "name": "",
          "type": "address"
        }
      ],
      "payable": false,
      "stateMutability": "view",
      "type": "function"
    },
    {
      "constant": false,
      "inputs": [
        {
          "name": "newOwner",
          "type": "address"
        }
      ],
      "name": "transferOwnership",
      "outputs": [],
      "payable": false,
      "stateMutability": "nonpayable",
      "type": "function"
    },
    {
      "anonymous": false,
      "inputs": [],
      "name": "Pause",
      "type": "event"
    },
    {
      "anonymous": false,
      "inputs": [],
      "name": "Unpause",
      "type": "event"
    }
  ],
  "bytecode": "0x606060405260008054600160a060020a033316600160a860020a03199091161790556102a9806100306000396000f300606060405263ffffffff7c01000000000000000000000000000000000000000000000000000000006000350416633f4ba83a81146100685780635c975abb1461007d5780638456cb59146100a45780638da5cb5b146100b7578063f2fde38b146100e657600080fd5b341561007357600080fd5b61007b610105565b005b341561008857600080fd5b610090610184565b604051901515815260200160405180910390f35b34156100af57600080fd5b61007b610194565b34156100c257600080fd5b6100ca610218565b604051600160a060020a03909116815260200160405180910390f35b34156100f157600080fd5b61007b600160a060020a0360043516610227565b60005433600160a060020a0390811691161461012057600080fd5b60005460a060020a900460ff16151561013857600080fd5b6000805474ff0000000000000000000000000000000000000000191690557f7805862f689e2f13df9f062ff482ad3ad112aca9e0847911ed832e158c525b3360405160405180910390a1565b60005460a060020a900460ff1681565b60005433600160a060020a039081169116146101af57600080fd5b60005460a060020a900460ff16156101c657600080fd5b6000805474ff0000000000000000000000000000000000000000191660a060020a1790557f6985a02210a168e66602d3235cb6db0e70f92b3ba4d376a33c0f3d9434bff62560405160405180910390a1565b600054600160a060020a031681565b60005433600160a060020a0390811691161461024257600080fd5b600160a060020a0381161561027a576000805473ffffffffffffffffffffffffffffffffffffffff1916600160a060020a0383161790555b505600a165627a7a72305820610075894a7fe5c149353e23ca16ee1a06b4467b552188b199d609e0acbee5c50029",
  "linkReferences": {},
  "deployedLinkReferences": {}
}