{
  "_format": "hh-sol-artifact-1",
  "contractName": "StableGauge",
  "sourceName": "contracts/spirit-v2-farming/StableGaugeProxy.sol",
  "abi": [
    {
      "inputs": [
        {
          "internalType": "address",
          "name": "_spirit",
          "type": "address"
        },
        {
          "internalType": "address",
          "name": "_inSpirit",
          "type": "address"
        },
        {
          "internalType": "address",
          "name": "_token",
          "type": "address"
        },
        {
          "internalType": "address",
          "name": "_gaugeProxy",
          "type": "address"
        }
      ],
      "stateMutability": "nonpayable",
      "type": "constructor"
    },
    {
      "anonymous": false,
      "inputs": [
        {
          "indexed": true,
          "internalType": "address",
          "name": "from",
          "type": "address"
        },
        {
          "indexed": false,
          "internalType": "uint256",
          "name": "claimed0",
          "type": "uint256"
        },
        {
          "indexed": false,
          "internalType": "uint256",
          "name": "claimed1",
          "type": "uint256"
        }
      ],
      "name": "ClaimVotingFees",
      "type": "event"
    },
    {
      "anonymous": false,
      "inputs": [
        {
          "indexed": false,
          "internalType": "uint256",
          "name": "reward",
          "type": "uint256"
        }
      ],
      "name": "RewardAdded",
      "type": "event"
    },
    {
      "anonymous": false,
      "inputs": [
        {
          "indexed": true,
          "internalType": "address",
          "name": "user",
          "type": "address"
        },
        {
          "indexed": false,
          "internalType": "uint256",
          "name": "reward",
          "type": "uint256"
        }
      ],
      "name": "RewardPaid",
      "type": "event"
    },
    {
      "anonymous": false,
      "inputs": [
        {
          "indexed": true,
          "internalType": "address",
          "name": "user",
          "type": "address"
        },
        {
          "indexed": false,
          "internalType": "uint256",
          "name": "amount",
          "type": "uint256"
        }
      ],
      "name": "Staked",
      "type": "event"
    },
    {
      "anonymous": false,
      "inputs": [
        {
          "indexed": true,
          "internalType": "address",
          "name": "user",
          "type": "address"
        },
        {
          "indexed": false,
          "internalType": "uint256",
          "name": "amount",
          "type": "uint256"
        }
      ],
      "name": "Withdrawn",
      "type": "event"
    },
    {
      "inputs": [],
      "name": "DISTRIBUTION",
      "outputs": [
        {
          "internalType": "address",
          "name": "",
          "type": "address"
        }
      ],
      "stateMutability": "view",
      "type": "function"
    },
    {
      "inputs": [],
      "name": "DURATION",
      "outputs": [
        {
          "internalType": "uint256",
          "name": "",
          "type": "uint256"
        }
      ],
      "stateMutability": "view",
      "type": "function"
    },
    {
      "inputs": [],
      "name": "TOKEN",
      "outputs": [
        {
          "internalType": "contract IERC20",
          "name": "",
          "type": "address"
        }
      ],
      "stateMutability": "view",
      "type": "function"
    },
    {
      "inputs": [
        {
          "internalType": "address",
          "name": "account",
          "type": "address"
        }
      ],
      "name": "balanceOf",
      "outputs": [
        {
          "internalType": "uint256",
          "name": "",
          "type": "uint256"
        }
      ],
      "stateMutability": "view",
      "type": "function"
    },
    {
      "inputs": [],
      "name": "claimVotingFees",
      "outputs": [
        {
          "internalType": "uint256",
          "name": "claimed0",
          "type": "uint256"
        },
        {
          "internalType": "uint256",
          "name": "claimed1",
          "type": "uint256"
        }
      ],
      "stateMutability": "nonpayable",
      "type": "function"
    },
    {
      "inputs": [
        {
          "internalType": "uint256",
          "name": "amount",
          "type": "uint256"
        }
      ],
      "name": "deposit",
      "outputs": [],
      "stateMutability": "nonpayable",
      "type": "function"
    },
    {
      "inputs": [],
      "name": "depositAll",
      "outputs": [],
      "stateMutability": "nonpayable",
      "type": "function"
    },
    {
      "inputs": [
        {
          "internalType": "uint256",
          "name": "amount",
          "type": "uint256"
        },
        {
          "internalType": "address",
          "name": "account",
          "type": "address"
        }
      ],
      "name": "depositFor",
      "outputs": [],
      "stateMutability": "nonpayable",
      "type": "function"
    },
    {
      "inputs": [
        {
          "internalType": "address",
          "name": "account",
          "type": "address"
        }
      ],
      "name": "derivedBalance",
      "outputs": [
        {
          "internalType": "uint256",
          "name": "",
          "type": "uint256"
        }
      ],
      "stateMutability": "view",
      "type": "function"
    },
    {
      "inputs": [
        {
          "internalType": "address",
          "name": "",
          "type": "address"
        }
      ],
      "name": "derivedBalances",
      "outputs": [
        {
          "internalType": "uint256",
          "name": "",
          "type": "uint256"
        }
      ],
      "stateMutability": "view",
      "type": "function"
    },
    {
      "inputs": [],
      "name": "derivedSupply",
      "outputs": [
        {
          "internalType": "uint256",
          "name": "",
          "type": "uint256"
        }
      ],
      "stateMutability": "view",
      "type": "function"
    },
    {
      "inputs": [
        {
          "internalType": "address",
          "name": "account",
          "type": "address"
        }
      ],
      "name": "earned",
      "outputs": [
        {
          "internalType": "uint256",
          "name": "",
          "type": "uint256"
        }
      ],
      "stateMutability": "view",
      "type": "function"
    },
    {
      "inputs": [],
      "name": "fees0",
      "outputs": [
        {
          "internalType": "uint256",
          "name": "",
          "type": "uint256"
        }
      ],
      "stateMutability": "view",
      "type": "function"
    },
    {
      "inputs": [],
      "name": "fees1",
      "outputs": [
        {
          "internalType": "uint256",
          "name": "",
          "type": "uint256"
        }
      ],
      "stateMutability": "view",
      "type": "function"
    },
    {
      "inputs": [],
      "name": "gaugeProxy",
      "outputs": [
        {
          "internalType": "address",
          "name": "",
          "type": "address"
        }
      ],
      "stateMutability": "view",
      "type": "function"
    },
    {
      "inputs": [],
      "name": "getReward",
      "outputs": [],
      "stateMutability": "nonpayable",
      "type": "function"
    },
    {
      "inputs": [],
      "name": "getRewardForDuration",
      "outputs": [
        {
          "internalType": "uint256",
          "name": "",
          "type": "uint256"
        }
      ],
      "stateMutability": "view",
      "type": "function"
    },
    {
      "inputs": [],
      "name": "governanceToken",
      "outputs": [
        {
          "internalType": "contract IERC20",
          "name": "",
          "type": "address"
        }
      ],
      "stateMutability": "view",
      "type": "function"
    },
    {
      "inputs": [
        {
          "internalType": "address",
          "name": "account",
          "type": "address"
        }
      ],
      "name": "kick",
      "outputs": [],
      "stateMutability": "nonpayable",
      "type": "function"
    },
    {
      "inputs": [],
      "name": "lastTimeRewardApplicable",
      "outputs": [
        {
          "internalType": "uint256",
          "name": "",
          "type": "uint256"
        }
      ],
      "stateMutability": "view",
      "type": "function"
    },
    {
      "inputs": [],
      "name": "lastUpdateTime",
      "outputs": [
        {
          "internalType": "uint256",
          "name": "",
          "type": "uint256"
        }
      ],
      "stateMutability": "view",
      "type": "function"
    },
    {
      "inputs": [
        {
          "internalType": "uint256",
          "name": "reward",
          "type": "uint256"
        }
      ],
      "name": "notifyRewardAmount",
      "outputs": [],
      "stateMutability": "nonpayable",
      "type": "function"
    },
    {
      "inputs": [],
      "name": "periodFinish",
      "outputs": [
        {
          "internalType": "uint256",
          "name": "",
          "type": "uint256"
        }
      ],
      "stateMutability": "view",
      "type": "function"
    },
    {
      "inputs": [],
      "name": "rewardPerToken",
      "outputs": [
        {
          "internalType": "uint256",
          "name": "",
          "type": "uint256"
        }
      ],
      "stateMutability": "view",
      "type": "function"
    },
    {
      "inputs": [],
      "name": "rewardPerTokenStored",
      "outputs": [
        {
          "internalType": "uint256",
          "name": "",
          "type": "uint256"
        }
      ],
      "stateMutability": "view",
      "type": "function"
    },
    {
      "inputs": [],
      "name": "rewardRate",
      "outputs": [
        {
          "internalType": "uint256",
          "name": "",
          "type": "uint256"
        }
      ],
      "stateMutability": "view",
      "type": "function"
    },
    {
      "inputs": [],
      "name": "rewardToken",
      "outputs": [
        {
          "internalType": "contract IERC20",
          "name": "",
          "type": "address"
        }
      ],
      "stateMutability": "view",
      "type": "function"
    },
    {
      "inputs": [
        {
          "internalType": "address",
          "name": "",
          "type": "address"
        }
      ],
      "name": "rewards",
      "outputs": [
        {
          "internalType": "uint256",
          "name": "",
          "type": "uint256"
        }
      ],
      "stateMutability": "view",
      "type": "function"
    },
    {
      "inputs": [],
      "name": "totalSupply",
      "outputs": [
        {
          "internalType": "uint256",
          "name": "",
          "type": "uint256"
        }
      ],
      "stateMutability": "view",
      "type": "function"
    },
    {
      "inputs": [
        {
          "internalType": "address",
          "name": "",
          "type": "address"
        }
      ],
      "name": "userRewardPerTokenPaid",
      "outputs": [
        {
          "internalType": "uint256",
          "name": "",
          "type": "uint256"
        }
      ],
      "stateMutability": "view",
      "type": "function"
    },
    {
      "inputs": [
        {
          "internalType": "uint256",
          "name": "amount",
          "type": "uint256"
        }
      ],
      "name": "withdraw",
      "outputs": [],
      "stateMutability": "nonpayable",
      "type": "function"
    },
    {
      "inputs": [],
      "name": "withdrawAll",
      "outputs": [],
      "stateMutability": "nonpayable",
      "type": "function"
    }
  ],
  "bytecode": "0x60c0604052600060035560006004553480156200001b57600080fd5b5060405162001b4b38038062001b4b8339810160408190526200003e91620000ad565b6001600081905580546001600160a01b039586166001600160a01b0319918216179091556002805494861694821694909417909355908316608052600980549190931691161790553360a0526200010a565b80516001600160a01b0381168114620000a857600080fd5b919050565b60008060008060808587031215620000c457600080fd5b620000cf8562000090565b9350620000df6020860162000090565b9250620000ef6040860162000090565b9150620000ff6060860162000090565b905092959194509250565b60805160a0516119ea62000161600039600081816102f70152818161050e015261060101526000818161033e01528181610c1101528181610d9601528181610f4b0152818161109c01526111d301526119ea6000f3fe608060405234801561001057600080fd5b50600436106101ef5760003560e01c8063853828b61161010f578063cd3daf9d116100a2578063df136d6511610071578063df136d651461041c578063ebe2b12b14610425578063f7c618c11461042e578063f96dae0a1461044157600080fd5b8063cd3daf9d146103f0578063d35e2544146103f8578063d7da4bb01461040b578063de5f62681461041457600080fd5b806396c55175116100de57806396c55175146103ae578063b6b55f25146103c1578063c8f33c91146103d4578063ca1c9b75146103dd57600080fd5b8063853828b6146103605780638b0e888e146103685780638b8763471461038557806393f1c442146103a557600080fd5b80633d18b912116101875780637b0a47ee116101565780637b0a47ee146102e95780637c91e4eb146102f257806380faa57d1461033157806382bfefc81461033957600080fd5b80633d18b9121461028f5780634c02a21c1461029757806363fb415b146102a057806370a08231146102c057600080fd5b80631c1f78eb116101c35780631c1f78eb1461024c5780632e1a7d4d1461025457806336efd16f146102695780633c6b16ab1461027c57600080fd5b80628cc262146101f45780630700037d1461021a57806318160ddd1461023a5780631be0528914610242575b600080fd5b6102076102023660046117ab565b610454565b6040519081526020015b60405180910390f35b6102076102283660046117ab565b600b6020526000908152604090205481565b600c54610207565b61020762093a8081565b6102076104d1565b6102676102623660046117c8565b6104e9565b005b6102676102773660046117e1565b6104f5565b61026761028a3660046117c8565b610503565b6102676107b7565b61020760085481565b6102076102ae3660046117ab565b600f6020526000908152604090205481565b6102076102ce3660046117ab565b6001600160a01b03166000908152600e602052604090205490565b61020760045481565b6103197f000000000000000000000000000000000000000000000000000000000000000081565b6040516001600160a01b039091168152602001610211565b6102076108d0565b6103197f000000000000000000000000000000000000000000000000000000000000000081565b6102676108de565b6103706108f9565b60408051928352602083019190915201610211565b6102076103933660046117ab565b600a6020526000908152604090205481565b61020760075481565b6102676103bc3660046117ab565b610939565b6102676103cf3660046117c8565b61099f565b61020760055481565b600954610319906001600160a01b031681565b6102076109a9565b6102076104063660046117ab565b610a18565b610207600d5481565b610267610bf8565b61020760065481565b61020760035481565b600154610319906001600160a01b031681565b600254610319906001600160a01b031681565b6001600160a01b0381166000908152600b6020908152604080832054600a909252822054670de0b6b3a76400009061048a6109a9565b6104949190611827565b6001600160a01b0385166000908152600f60205260409020546104b7919061183e565b6104c1919061185d565b6104cb919061187f565b92915050565b600062093a806004546104e4919061183e565b905090565b6104f281610c8a565b50565b6104ff8282610e1b565b5050565b336001600160a01b037f000000000000000000000000000000000000000000000000000000000000000016146105935760405162461bcd60e51b815260206004820152602a60248201527f43616c6c6572206973206e6f742052657761726473446973747269627574696f6044820152691b8818dbdb9d1c9858dd60b21b60648201526084015b60405180910390fd5b600061059d6109a9565b6006556105a86108d0565b6005556001600160a01b038116156105ef576105c381610454565b6001600160a01b0382166000908152600b6020908152604080832093909355600654600a909152919020555b600154610627906001600160a01b03167f00000000000000000000000000000000000000000000000000000000000000003085610fd9565b60035442106106455761063d62093a808361185d565b600455610687565b6000426003546106559190611827565b9050600060045482610667919061183e565b905062093a80610677828661187f565b610681919061185d565b60045550505b6001546040516370a0823160e01b81523060048201526000916001600160a01b0316906370a0823190602401602060405180830381865afa1580156106d0573d6000803e3d6000fd5b505050506040513d601f19601f820116820180604052508101906106f49190611897565b905061070362093a808261185d565b60045411156107545760405162461bcd60e51b815260206004820152601860248201527f50726f76696465642072657761726420746f6f20686967680000000000000000604482015260640161058a565b4260058190556107689062093a809061187f565b6003556040518381527fde88a922e0d3b88b24e9623efeb464919c6bf9f66857a65e2bfcf2ce87a9433d9060200160405180910390a1506001600160a01b038116156104ff576104ff81610939565b600260005414156107da5760405162461bcd60e51b815260040161058a906118b0565b6002600055336107e86109a9565b6006556107f36108d0565b6005556001600160a01b0381161561083a5761080e81610454565b6001600160a01b0382166000908152600b6020908152604080832093909355600654600a909152919020555b336000908152600b602052604090205480156108af57336000818152600b6020526040812055600154610879916001600160a01b03909116908361104a565b60405181815233907fe2403640ba68fed3a2f88b7557551d1993f84b99bb10ff833f0cf8db0c5e04869060200160405180910390a25b506001600160a01b038116156108c8576108c881610939565b506001600055565b60006104e44260035461107f565b336000908152600e60205260409020546108f790610c8a565b565b6000806002600054141561091f5760405162461bcd60e51b815260040161058a906118b0565b600260005561092c611097565b9150915060016000559091565b6001600160a01b0381166000908152600f6020526040902054600d54610960908290611827565b600d5561096c82610a18565b6001600160a01b0383166000908152600f60205260409020819055600d5490915061099890829061187f565b600d555050565b6104f28133610e1b565b6000600d54600014156109bc5750600090565b600c546109ca575060065490565b600d546004546005546109db6108d0565b6109e59190611827565b6109ef919061183e565b610a0190670de0b6b3a764000061183e565b610a0b919061185d565b6006546104e4919061187f565b600254604080516318160ddd60e01b815290516000926001600160a01b0316916318160ddd9160048083019260209291908290030181865afa158015610a62573d6000803e3d6000fd5b505050506040513d601f19601f82011682018060405250810190610a869190611897565b610a9257506000919050565b6001600160a01b0382166000908152600e6020526040812054906064610ab983602861183e565b610ac3919061185d565b905060006064600260009054906101000a90046001600160a01b03166001600160a01b03166318160ddd6040518163ffffffff1660e01b8152600401602060405180830381865afa158015610b1c573d6000803e3d6000fd5b505050506040513d601f19601f82011682018060405250810190610b409190611897565b6002546040516370a0823160e01b81526001600160a01b038981166004830152909116906370a0823190602401602060405180830381865afa158015610b8a573d6000803e3d6000fd5b505050506040513d601f19601f82011682018060405250810190610bae9190611897565b600c54610bbb919061183e565b610bc5919061185d565b610bd090603c61183e565b610bda919061185d565b9050610bef610be9828461187f565b8461107f565b95945050505050565b6040516370a0823160e01b81523360048201526108f7907f00000000000000000000000000000000000000000000000000000000000000006001600160a01b0316906370a0823190602401602060405180830381865afa158015610c60573d6000803e3d6000fd5b505050506040513d601f19601f82011682018060405250810190610c849190611897565b33610e1b565b60026000541415610cad5760405162461bcd60e51b815260040161058a906118b0565b600260005533610cbb6109a9565b600655610cc66108d0565b6005556001600160a01b03811615610d0d57610ce181610454565b6001600160a01b0382166000908152600b6020908152604080832093909355600654600a909152919020555b60008211610d515760405162461bcd60e51b8152602060048201526011602482015270043616e6e6f74207769746864726177203607c1b604482015260640161058a565b81600c54610d5f9190611827565b600c55336000908152600e6020526040902054610d7d908390611827565b336000818152600e6020526040902091909155610dc5907f00000000000000000000000000000000000000000000000000000000000000006001600160a01b0316908461104a565b60405182815233907f7084f5476618d8e60b11ef0d7d3f06914655adb8793e28ff7f018d4c76d505d59060200160405180910390a26001600160a01b03811615610e1257610e1281610939565b50506001600055565b60026000541415610e3e5760405162461bcd60e51b815260040161058a906118b0565b600260005580610e4c6109a9565b600655610e576108d0565b6005556001600160a01b03811615610e9e57610e7281610454565b6001600160a01b0382166000908152600b6020908152604080832093909355600654600a909152919020555b60008311610eee5760405162461bcd60e51b815260206004820152601e60248201527f6465706f736974284761756765293a2063616e6e6f74207374616b6520300000604482015260640161058a565b6001600160a01b0382166000908152600e60205260409020548390610f1490829061187f565b6001600160a01b0384166000908152600e6020526040902055600c54610f3b90829061187f565b600c55610f736001600160a01b037f000000000000000000000000000000000000000000000000000000000000000016843087610fd9565b826001600160a01b03167f9e71bc8eea02a63969f509818f2dafb9254532904319f9dbda79b67bd34a5f3d82604051610fae91815260200190565b60405180910390a2506001600160a01b03811615610fcf57610fcf81610939565b5050600160005550565b6040516001600160a01b03808516602483015283166044820152606481018290526110449085906323b872dd60e01b906084015b60408051601f198184030181529190526020810180516001600160e01b03166001600160e01b0319909316929092179091526114be565b50505050565b6040516001600160a01b03831660248201526044810182905261107a90849063a9059cbb60e01b9060640161100d565b505050565b600081831061108e5781611090565b825b9392505050565b6000807f00000000000000000000000000000000000000000000000000000000000000006001600160a01b031663d294f0936040518163ffffffff1660e01b815260040160408051808303816000875af11580156110f9573d6000803e3d6000fd5b505050506040513d601f19601f8201168201806040525081019061111d91906118e7565b600954604051635462ecad60e11b81523060048201529294509092506000916001600160a01b039091169063a8c5d95a906024016020604051808303816000875af1158015611170573d6000803e3d6000fd5b505050506040513d601f19601f82011682018060405250810190611194919061190b565b905060008311806111a55750600082115b156114b9576000836007546111ba919061187f565b90506000836008546111cc919061187f565b90506000807f00000000000000000000000000000000000000000000000000000000000000006001600160a01b0316639d63848a6040518163ffffffff1660e01b815260040160408051808303816000875af1158015611230573d6000803e3d6000fd5b505050506040513d601f19601f820116820180604052508101906112549190611928565b604051634cde602960e11b81526001600160a01b038084166004830152929450909250908616906399bcc05290602401602060405180830381865afa1580156112a1573d6000803e3d6000fd5b505050506040513d601f19601f820116820180604052508101906112c59190611897565b841180156112df575060006112dd62093a808661185d565b115b156113645760006007556112fd6001600160a01b0383168686611645565b60405163b66503cf60e01b81526001600160a01b0383811660048301526024820186905286169063b66503cf90604401600060405180830381600087803b15801561134757600080fd5b505af115801561135b573d6000803e3d6000fd5b5050505061136a565b60078490555b604051634cde602960e11b81526001600160a01b0382811660048301528616906399bcc05290602401602060405180830381865afa1580156113b0573d6000803e3d6000fd5b505050506040513d601f19601f820116820180604052508101906113d49190611897565b831180156113ee575060006113ec62093a808561185d565b115b1561147357600060085561140c6001600160a01b0382168685611645565b60405163b66503cf60e01b81526001600160a01b0382811660048301526024820185905286169063b66503cf90604401600060405180830381600087803b15801561145657600080fd5b505af115801561146a573d6000803e3d6000fd5b50505050611479565b60088390555b604080518881526020810188905233917fd9b982883d6f1d237dbf653d6baf27ba3264fa2a489737131b3cb7aef4fe40de910160405180910390a2505050505b509091565b6114d0826001600160a01b031661175a565b61151c5760405162461bcd60e51b815260206004820152601f60248201527f5361666545524332303a2063616c6c20746f206e6f6e2d636f6e747261637400604482015260640161058a565b600080836001600160a01b0316836040516115379190611957565b6000604051808303816000865af19150503d8060008114611574576040519150601f19603f3d011682016040523d82523d6000602084013e611579565b606091505b5091509150816115cb5760405162461bcd60e51b815260206004820181905260248201527f5361666545524332303a206c6f772d6c6576656c2063616c6c206661696c6564604482015260640161058a565b80511561104457808060200190518101906115e69190611992565b6110445760405162461bcd60e51b815260206004820152602a60248201527f5361666545524332303a204552433230206f7065726174696f6e20646964206e6044820152691bdd081cdd58d8d9595960b21b606482015260840161058a565b8015806116bf5750604051636eb1769f60e11b81523060048201526001600160a01b03838116602483015284169063dd62ed3e90604401602060405180830381865afa158015611699573d6000803e3d6000fd5b505050506040513d601f19601f820116820180604052508101906116bd9190611897565b155b61172a5760405162461bcd60e51b815260206004820152603660248201527f5361666545524332303a20617070726f76652066726f6d206e6f6e2d7a65726f60448201527520746f206e6f6e2d7a65726f20616c6c6f77616e636560501b606482015260840161058a565b6040516001600160a01b03831660248201526044810182905261107a90849063095ea7b360e01b9060640161100d565b6000813f7fc5d2460186f7233c927e7db2dcc703c0e500b653ca82273b7bfad8045d85a470811580159061178e5750808214155b949350505050565b6001600160a01b03811681146104f257600080fd5b6000602082840312156117bd57600080fd5b813561109081611796565b6000602082840312156117da57600080fd5b5035919050565b600080604083850312156117f457600080fd5b82359150602083013561180681611796565b809150509250929050565b634e487b7160e01b600052601160045260246000fd5b60008282101561183957611839611811565b500390565b600081600019048311821515161561185857611858611811565b500290565b60008261187a57634e487b7160e01b600052601260045260246000fd5b500490565b6000821982111561189257611892611811565b500190565b6000602082840312156118a957600080fd5b5051919050565b6020808252601f908201527f5265656e7472616e637947756172643a207265656e7472616e742063616c6c00604082015260600190565b600080604083850312156118fa57600080fd5b505080516020909101519092909150565b60006020828403121561191d57600080fd5b815161109081611796565b6000806040838503121561193b57600080fd5b825161194681611796565b602084015190925061180681611796565b6000825160005b81811015611978576020818601810151858301520161195e565b81811115611987576000828501525b509190910192915050565b6000602082840312156119a457600080fd5b8151801515811461109057600080fdfea2646970667358221220ad5925d7d6ec88d807583fc62fd2e0966c338d108a66d77a5ae2e9d2f63f7b7b64736f6c634300080b0033",
  "linkReferences": {},
  "deployedLinkReferences": {}
}