{
  "_format": "hh-sol-artifact-1",
  "contractName": "TeleswapV2Router02",
  "sourceName": "contracts/TeleswapV2Router02.sol",
  "abi": [
    {
      "inputs": [
        {
          "internalType": "address",
          "name": "_factory",
          "type": "address"
        },
        {
          "internalType": "address",
          "name": "_WETH",
          "type": "address"
        }
      ],
      "stateMutability": "nonpayable",
      "type": "constructor"
    },
    {
      "inputs": [],
      "name": "WETH",
      "outputs": [
        {
          "internalType": "address",
          "name": "",
          "type": "address"
        }
      ],
      "stateMutability": "view",
      "type": "function"
    },
    {
      "inputs": [
        {
          "components": [
            {
              "internalType": "address",
              "name": "from",
              "type": "address"
            },
            {
              "internalType": "address",
              "name": "to",
              "type": "address"
            },
            {
              "internalType": "bool",
              "name": "stable",
              "type": "bool"
            }
          ],
          "internalType": "struct route",
          "name": "_route",
          "type": "tuple"
        },
        {
          "internalType": "uint256",
          "name": "amountADesired",
          "type": "uint256"
        },
        {
          "internalType": "uint256",
          "name": "amountBDesired",
          "type": "uint256"
        },
        {
          "internalType": "uint256",
          "name": "amountAMin",
          "type": "uint256"
        },
        {
          "internalType": "uint256",
          "name": "amountBMin",
          "type": "uint256"
        },
        {
          "internalType": "address",
          "name": "to",
          "type": "address"
        },
        {
          "internalType": "uint256",
          "name": "deadline",
          "type": "uint256"
        }
      ],
      "name": "addLiquidity",
      "outputs": [
        {
          "internalType": "uint256",
          "name": "amountA",
          "type": "uint256"
        },
        {
          "internalType": "uint256",
          "name": "amountB",
          "type": "uint256"
        },
        {
          "internalType": "uint256",
          "name": "liquidity",
          "type": "uint256"
        }
      ],
      "stateMutability": "nonpayable",
      "type": "function"
    },
    {
      "inputs": [
        {
          "components": [
            {
              "internalType": "address",
              "name": "from",
              "type": "address"
            },
            {
              "internalType": "address",
              "name": "to",
              "type": "address"
            },
            {
              "internalType": "bool",
              "name": "stable",
              "type": "bool"
            }
          ],
          "internalType": "struct route",
          "name": "_route",
          "type": "tuple"
        },
        {
          "internalType": "uint256",
          "name": "amountTokenDesired",
          "type": "uint256"
        },
        {
          "internalType": "uint256",
          "name": "amountTokenMin",
          "type": "uint256"
        },
        {
          "internalType": "uint256",
          "name": "amountETHMin",
          "type": "uint256"
        },
        {
          "internalType": "address",
          "name": "to",
          "type": "address"
        },
        {
          "internalType": "uint256",
          "name": "deadline",
          "type": "uint256"
        }
      ],
      "name": "addLiquidityETH",
      "outputs": [
        {
          "internalType": "uint256",
          "name": "amountToken",
          "type": "uint256"
        },
        {
          "internalType": "uint256",
          "name": "amountETH",
          "type": "uint256"
        },
        {
          "internalType": "uint256",
          "name": "liquidity",
          "type": "uint256"
        }
      ],
      "stateMutability": "payable",
      "type": "function"
    },
    {
      "inputs": [],
      "name": "factory",
      "outputs": [
        {
          "internalType": "address",
          "name": "",
          "type": "address"
        }
      ],
      "stateMutability": "view",
      "type": "function"
    },
    {
      "inputs": [
        {
          "internalType": "uint256",
          "name": "amountOut",
          "type": "uint256"
        },
        {
          "internalType": "uint256",
          "name": "reserveIn",
          "type": "uint256"
        },
        {
          "internalType": "uint256",
          "name": "reserveOut",
          "type": "uint256"
        },
        {
          "internalType": "bool",
          "name": "stable",
          "type": "bool"
        },
        {
          "internalType": "uint256",
          "name": "decimalIn",
          "type": "uint256"
        },
        {
          "internalType": "uint256",
          "name": "decimalOut",
          "type": "uint256"
        }
      ],
      "name": "getAmountIn",
      "outputs": [
        {
          "internalType": "uint256",
          "name": "amountIn",
          "type": "uint256"
        }
      ],
      "stateMutability": "pure",
      "type": "function"
    },
    {
      "inputs": [
        {
          "internalType": "uint256",
          "name": "amountIn",
          "type": "uint256"
        },
        {
          "internalType": "uint256",
          "name": "reserveIn",
          "type": "uint256"
        },
        {
          "internalType": "uint256",
          "name": "reserveOut",
          "type": "uint256"
        },
        {
          "internalType": "bool",
          "name": "stable",
          "type": "bool"
        },
        {
          "internalType": "uint256",
          "name": "decimalIn",
          "type": "uint256"
        },
        {
          "internalType": "uint256",
          "name": "decimalOut",
          "type": "uint256"
        }
      ],
      "name": "getAmountOut",
      "outputs": [
        {
          "internalType": "uint256",
          "name": "amountOut",
          "type": "uint256"
        }
      ],
      "stateMutability": "pure",
      "type": "function"
    },
    {
      "inputs": [
        {
          "internalType": "uint256",
          "name": "amountOut",
          "type": "uint256"
        },
        {
          "components": [
            {
              "internalType": "address",
              "name": "from",
              "type": "address"
            },
            {
              "internalType": "address",
              "name": "to",
              "type": "address"
            },
            {
              "internalType": "bool",
              "name": "stable",
              "type": "bool"
            }
          ],
          "internalType": "struct route[]",
          "name": "_routes",
          "type": "tuple[]"
        }
      ],
      "name": "getAmountsIn",
      "outputs": [
        {
          "internalType": "uint256[]",
          "name": "amounts",
          "type": "uint256[]"
        }
      ],
      "stateMutability": "view",
      "type": "function"
    },
    {
      "inputs": [
        {
          "internalType": "uint256",
          "name": "amountIn",
          "type": "uint256"
        },
        {
          "components": [
            {
              "internalType": "address",
              "name": "from",
              "type": "address"
            },
            {
              "internalType": "address",
              "name": "to",
              "type": "address"
            },
            {
              "internalType": "bool",
              "name": "stable",
              "type": "bool"
            }
          ],
          "internalType": "struct route[]",
          "name": "_routes",
          "type": "tuple[]"
        }
      ],
      "name": "getAmountsOut",
      "outputs": [
        {
          "internalType": "uint256[]",
          "name": "amounts",
          "type": "uint256[]"
        }
      ],
      "stateMutability": "view",
      "type": "function"
    },
    {
      "inputs": [
        {
          "internalType": "uint256",
          "name": "deadline",
          "type": "uint256"
        },
        {
          "internalType": "bytes[]",
          "name": "data",
          "type": "bytes[]"
        }
      ],
      "name": "multicall",
      "outputs": [
        {
          "internalType": "bytes[]",
          "name": "results",
          "type": "bytes[]"
        }
      ],
      "stateMutability": "payable",
      "type": "function"
    },
    {
      "inputs": [
        {
          "internalType": "uint256",
          "name": "amountA",
          "type": "uint256"
        },
        {
          "internalType": "uint256",
          "name": "reserveA",
          "type": "uint256"
        },
        {
          "internalType": "uint256",
          "name": "reserveB",
          "type": "uint256"
        }
      ],
      "name": "quote",
      "outputs": [
        {
          "internalType": "uint256",
          "name": "amountB",
          "type": "uint256"
        }
      ],
      "stateMutability": "pure",
      "type": "function"
    },
    {
      "inputs": [],
      "name": "refundETH",
      "outputs": [],
      "stateMutability": "payable",
      "type": "function"
    },
    {
      "inputs": [
        {
          "components": [
            {
              "internalType": "address",
              "name": "from",
              "type": "address"
            },
            {
              "internalType": "address",
              "name": "to",
              "type": "address"
            },
            {
              "internalType": "bool",
              "name": "stable",
              "type": "bool"
            }
          ],
          "internalType": "struct route",
          "name": "_route",
          "type": "tuple"
        },
        {
          "internalType": "uint256",
          "name": "liquidity",
          "type": "uint256"
        },
        {
          "internalType": "uint256",
          "name": "amountAMin",
          "type": "uint256"
        },
        {
          "internalType": "uint256",
          "name": "amountBMin",
          "type": "uint256"
        },
        {
          "internalType": "address",
          "name": "to",
          "type": "address"
        },
        {
          "internalType": "uint256",
          "name": "deadline",
          "type": "uint256"
        }
      ],
      "name": "removeLiquidity",
      "outputs": [
        {
          "internalType": "uint256",
          "name": "amountA",
          "type": "uint256"
        },
        {
          "internalType": "uint256",
          "name": "amountB",
          "type": "uint256"
        }
      ],
      "stateMutability": "nonpayable",
      "type": "function"
    },
    {
      "inputs": [
        {
          "components": [
            {
              "internalType": "address",
              "name": "from",
              "type": "address"
            },
            {
              "internalType": "address",
              "name": "to",
              "type": "address"
            },
            {
              "internalType": "bool",
              "name": "stable",
              "type": "bool"
            }
          ],
          "internalType": "struct route",
          "name": "_route",
          "type": "tuple"
        },
        {
          "internalType": "uint256",
          "name": "liquidity",
          "type": "uint256"
        },
        {
          "internalType": "uint256",
          "name": "amountTokenMin",
          "type": "uint256"
        },
        {
          "internalType": "uint256",
          "name": "amountETHMin",
          "type": "uint256"
        },
        {
          "internalType": "address",
          "name": "to",
          "type": "address"
        },
        {
          "internalType": "uint256",
          "name": "deadline",
          "type": "uint256"
        }
      ],
      "name": "removeLiquidityETH",
      "outputs": [
        {
          "internalType": "uint256",
          "name": "amountToken",
          "type": "uint256"
        },
        {
          "internalType": "uint256",
          "name": "amountETH",
          "type": "uint256"
        }
      ],
      "stateMutability": "nonpayable",
      "type": "function"
    },
    {
      "inputs": [
        {
          "components": [
            {
              "internalType": "address",
              "name": "from",
              "type": "address"
            },
            {
              "internalType": "address",
              "name": "to",
              "type": "address"
            },
            {
              "internalType": "bool",
              "name": "stable",
              "type": "bool"
            }
          ],
          "internalType": "struct route",
          "name": "_route",
          "type": "tuple"
        },
        {
          "internalType": "uint256",
          "name": "liquidity",
          "type": "uint256"
        },
        {
          "internalType": "uint256",
          "name": "amountTokenMin",
          "type": "uint256"
        },
        {
          "internalType": "uint256",
          "name": "amountETHMin",
          "type": "uint256"
        },
        {
          "internalType": "address",
          "name": "to",
          "type": "address"
        },
        {
          "internalType": "uint256",
          "name": "deadline",
          "type": "uint256"
        }
      ],
      "name": "removeLiquidityETHSupportingFeeOnTransferTokens",
      "outputs": [
        {
          "internalType": "uint256",
          "name": "amountETH",
          "type": "uint256"
        }
      ],
      "stateMutability": "nonpayable",
      "type": "function"
    },
    {
      "inputs": [
        {
          "components": [
            {
              "internalType": "address",
              "name": "from",
              "type": "address"
            },
            {
              "internalType": "address",
              "name": "to",
              "type": "address"
            },
            {
              "internalType": "bool",
              "name": "stable",
              "type": "bool"
            }
          ],
          "internalType": "struct route",
          "name": "_route",
          "type": "tuple"
        },
        {
          "internalType": "uint256",
          "name": "liquidity",
          "type": "uint256"
        },
        {
          "internalType": "uint256",
          "name": "amountTokenMin",
          "type": "uint256"
        },
        {
          "internalType": "uint256",
          "name": "amountETHMin",
          "type": "uint256"
        },
        {
          "internalType": "address",
          "name": "to",
          "type": "address"
        },
        {
          "internalType": "uint256",
          "name": "deadline",
          "type": "uint256"
        },
        {
          "internalType": "bool",
          "name": "approveMax",
          "type": "bool"
        },
        {
          "components": [
            {
              "internalType": "uint8",
              "name": "v",
              "type": "uint8"
            },
            {
              "internalType": "bytes32",
              "name": "r",
              "type": "bytes32"
            },
            {
              "internalType": "bytes32",
              "name": "s",
              "type": "bytes32"
            }
          ],
          "internalType": "struct Sig",
          "name": "sig",
          "type": "tuple"
        }
      ],
      "name": "removeLiquidityETHWithPermit",
      "outputs": [
        {
          "internalType": "uint256",
          "name": "amountToken",
          "type": "uint256"
        },
        {
          "internalType": "uint256",
          "name": "amountETH",
          "type": "uint256"
        }
      ],
      "stateMutability": "nonpayable",
      "type": "function"
    },
    {
      "inputs": [
        {
          "components": [
            {
              "internalType": "address",
              "name": "from",
              "type": "address"
            },
            {
              "internalType": "address",
              "name": "to",
              "type": "address"
            },
            {
              "internalType": "bool",
              "name": "stable",
              "type": "bool"
            }
          ],
          "internalType": "struct route",
          "name": "_route",
          "type": "tuple"
        },
        {
          "internalType": "uint256",
          "name": "liquidity",
          "type": "uint256"
        },
        {
          "internalType": "uint256",
          "name": "amountTokenMin",
          "type": "uint256"
        },
        {
          "internalType": "uint256",
          "name": "amountETHMin",
          "type": "uint256"
        },
        {
          "internalType": "address",
          "name": "to",
          "type": "address"
        },
        {
          "internalType": "uint256",
          "name": "deadline",
          "type": "uint256"
        },
        {
          "internalType": "bool",
          "name": "approveMax",
          "type": "bool"
        },
        {
          "components": [
            {
              "internalType": "uint8",
              "name": "v",
              "type": "uint8"
            },
            {
              "internalType": "bytes32",
              "name": "r",
              "type": "bytes32"
            },
            {
              "internalType": "bytes32",
              "name": "s",
              "type": "bytes32"
            }
          ],
          "internalType": "struct Sig",
          "name": "sig",
          "type": "tuple"
        }
      ],
      "name": "removeLiquidityETHWithPermitSupportingFeeOnTransferTokens",
      "outputs": [
        {
          "internalType": "uint256",
          "name": "amountETH",
          "type": "uint256"
        }
      ],
      "stateMutability": "nonpayable",
      "type": "function"
    },
    {
      "inputs": [
        {
          "components": [
            {
              "internalType": "address",
              "name": "from",
              "type": "address"
            },
            {
              "internalType": "address",
              "name": "to",
              "type": "address"
            },
            {
              "internalType": "bool",
              "name": "stable",
              "type": "bool"
            }
          ],
          "internalType": "struct route",
          "name": "_route",
          "type": "tuple"
        },
        {
          "internalType": "uint256",
          "name": "liquidity",
          "type": "uint256"
        },
        {
          "internalType": "uint256",
          "name": "amountAMin",
          "type": "uint256"
        },
        {
          "internalType": "uint256",
          "name": "amountBMin",
          "type": "uint256"
        },
        {
          "internalType": "address",
          "name": "to",
          "type": "address"
        },
        {
          "internalType": "uint256",
          "name": "deadline",
          "type": "uint256"
        },
        {
          "internalType": "bool",
          "name": "approveMax",
          "type": "bool"
        },
        {
          "components": [
            {
              "internalType": "uint8",
              "name": "v",
              "type": "uint8"
            },
            {
              "internalType": "bytes32",
              "name": "r",
              "type": "bytes32"
            },
            {
              "internalType": "bytes32",
              "name": "s",
              "type": "bytes32"
            }
          ],
          "internalType": "struct Sig",
          "name": "sig",
          "type": "tuple"
        }
      ],
      "name": "removeLiquidityWithPermit",
      "outputs": [
        {
          "internalType": "uint256",
          "name": "amountA",
          "type": "uint256"
        },
        {
          "internalType": "uint256",
          "name": "amountB",
          "type": "uint256"
        }
      ],
      "stateMutability": "nonpayable",
      "type": "function"
    },
    {
      "inputs": [
        {
          "internalType": "uint256",
          "name": "amountOut",
          "type": "uint256"
        },
        {
          "components": [
            {
              "internalType": "address",
              "name": "from",
              "type": "address"
            },
            {
              "internalType": "address",
              "name": "to",
              "type": "address"
            },
            {
              "internalType": "bool",
              "name": "stable",
              "type": "bool"
            }
          ],
          "internalType": "struct route[]",
          "name": "routes",
          "type": "tuple[]"
        },
        {
          "internalType": "address",
          "name": "to",
          "type": "address"
        },
        {
          "internalType": "uint256",
          "name": "deadline",
          "type": "uint256"
        }
      ],
      "name": "swapETHForExactTokens",
      "outputs": [
        {
          "internalType": "uint256[]",
          "name": "amounts",
          "type": "uint256[]"
        }
      ],
      "stateMutability": "payable",
      "type": "function"
    },
    {
      "inputs": [
        {
          "internalType": "uint256",
          "name": "amountOut",
          "type": "uint256"
        },
        {
          "components": [
            {
              "internalType": "address",
              "name": "from",
              "type": "address"
            },
            {
              "internalType": "address",
              "name": "to",
              "type": "address"
            },
            {
              "internalType": "bool",
              "name": "stable",
              "type": "bool"
            }
          ],
          "internalType": "struct route[]",
          "name": "routes",
          "type": "tuple[]"
        },
        {
          "internalType": "address",
          "name": "to",
          "type": "address"
        },
        {
          "internalType": "uint256",
          "name": "deadline",
          "type": "uint256"
        }
      ],
      "name": "swapETHForExactTokensMulti",
      "outputs": [
        {
          "internalType": "uint256[]",
          "name": "amounts",
          "type": "uint256[]"
        }
      ],
      "stateMutability": "payable",
      "type": "function"
    },
    {
      "inputs": [
        {
          "internalType": "uint256",
          "name": "amountIn",
          "type": "uint256"
        },
        {
          "internalType": "uint256",
          "name": "amountOutMin",
          "type": "uint256"
        },
        {
          "components": [
            {
              "internalType": "address",
              "name": "from",
              "type": "address"
            },
            {
              "internalType": "address",
              "name": "to",
              "type": "address"
            },
            {
              "internalType": "bool",
              "name": "stable",
              "type": "bool"
            }
          ],
          "internalType": "struct route[]",
          "name": "routes",
          "type": "tuple[]"
        },
        {
          "internalType": "address",
          "name": "to",
          "type": "address"
        },
        {
          "internalType": "uint256",
          "name": "deadline",
          "type": "uint256"
        }
      ],
      "name": "swapExactETHForTokens",
      "outputs": [
        {
          "internalType": "uint256[]",
          "name": "amounts",
          "type": "uint256[]"
        }
      ],
      "stateMutability": "payable",
      "type": "function"
    },
    {
      "inputs": [
        {
          "internalType": "uint256",
          "name": "amountIn",
          "type": "uint256"
        },
        {
          "internalType": "uint256",
          "name": "amountOutMin",
          "type": "uint256"
        },
        {
          "components": [
            {
              "internalType": "address",
              "name": "from",
              "type": "address"
            },
            {
              "internalType": "address",
              "name": "to",
              "type": "address"
            },
            {
              "internalType": "bool",
              "name": "stable",
              "type": "bool"
            }
          ],
          "internalType": "struct route[]",
          "name": "routes",
          "type": "tuple[]"
        },
        {
          "internalType": "address",
          "name": "to",
          "type": "address"
        },
        {
          "internalType": "uint256",
          "name": "deadline",
          "type": "uint256"
        }
      ],
      "name": "swapExactETHForTokensSupportingFeeOnTransferTokens",
      "outputs": [],
      "stateMutability": "payable",
      "type": "function"
    },
    {
      "inputs": [
        {
          "internalType": "uint256",
          "name": "amountIn",
          "type": "uint256"
        },
        {
          "internalType": "uint256",
          "name": "amountOutMin",
          "type": "uint256"
        },
        {
          "components": [
            {
              "internalType": "address",
              "name": "from",
              "type": "address"
            },
            {
              "internalType": "address",
              "name": "to",
              "type": "address"
            },
            {
              "internalType": "bool",
              "name": "stable",
              "type": "bool"
            }
          ],
          "internalType": "struct route[]",
          "name": "routes",
          "type": "tuple[]"
        },
        {
          "internalType": "address",
          "name": "to",
          "type": "address"
        },
        {
          "internalType": "uint256",
          "name": "deadline",
          "type": "uint256"
        }
      ],
      "name": "swapExactTokensForETH",
      "outputs": [
        {
          "internalType": "uint256[]",
          "name": "amounts",
          "type": "uint256[]"
        }
      ],
      "stateMutability": "nonpayable",
      "type": "function"
    },
    {
      "inputs": [
        {
          "internalType": "uint256",
          "name": "amountIn",
          "type": "uint256"
        },
        {
          "internalType": "uint256",
          "name": "amountOutMin",
          "type": "uint256"
        },
        {
          "components": [
            {
              "internalType": "address",
              "name": "from",
              "type": "address"
            },
            {
              "internalType": "address",
              "name": "to",
              "type": "address"
            },
            {
              "internalType": "bool",
              "name": "stable",
              "type": "bool"
            }
          ],
          "internalType": "struct route[]",
          "name": "routes",
          "type": "tuple[]"
        },
        {
          "internalType": "address",
          "name": "to",
          "type": "address"
        },
        {
          "internalType": "uint256",
          "name": "deadline",
          "type": "uint256"
        }
      ],
      "name": "swapExactTokensForETHSupportingFeeOnTransferTokens",
      "outputs": [],
      "stateMutability": "nonpayable",
      "type": "function"
    },
    {
      "inputs": [
        {
          "internalType": "uint256",
          "name": "amountIn",
          "type": "uint256"
        },
        {
          "internalType": "uint256",
          "name": "amountOutMin",
          "type": "uint256"
        },
        {
          "components": [
            {
              "internalType": "address",
              "name": "from",
              "type": "address"
            },
            {
              "internalType": "address",
              "name": "to",
              "type": "address"
            },
            {
              "internalType": "bool",
              "name": "stable",
              "type": "bool"
            }
          ],
          "internalType": "struct route[]",
          "name": "routes",
          "type": "tuple[]"
        },
        {
          "internalType": "address",
          "name": "to",
          "type": "address"
        },
        {
          "internalType": "uint256",
          "name": "deadline",
          "type": "uint256"
        }
      ],
      "name": "swapExactTokensForTokens",
      "outputs": [
        {
          "internalType": "uint256[]",
          "name": "amounts",
          "type": "uint256[]"
        }
      ],
      "stateMutability": "nonpayable",
      "type": "function"
    },
    {
      "inputs": [
        {
          "internalType": "uint256",
          "name": "amountIn",
          "type": "uint256"
        },
        {
          "internalType": "uint256",
          "name": "amountOutMin",
          "type": "uint256"
        },
        {
          "components": [
            {
              "internalType": "address",
              "name": "from",
              "type": "address"
            },
            {
              "internalType": "address",
              "name": "to",
              "type": "address"
            },
            {
              "internalType": "bool",
              "name": "stable",
              "type": "bool"
            }
          ],
          "internalType": "struct route[]",
          "name": "routes",
          "type": "tuple[]"
        },
        {
          "internalType": "address",
          "name": "to",
          "type": "address"
        },
        {
          "internalType": "uint256",
          "name": "deadline",
          "type": "uint256"
        }
      ],
      "name": "swapExactTokensForTokensSupportingFeeOnTransferTokens",
      "outputs": [],
      "stateMutability": "nonpayable",
      "type": "function"
    },
    {
      "inputs": [
        {
          "internalType": "uint256",
          "name": "amountOut",
          "type": "uint256"
        },
        {
          "internalType": "uint256",
          "name": "amountInMax",
          "type": "uint256"
        },
        {
          "components": [
            {
              "internalType": "address",
              "name": "from",
              "type": "address"
            },
            {
              "internalType": "address",
              "name": "to",
              "type": "address"
            },
            {
              "internalType": "bool",
              "name": "stable",
              "type": "bool"
            }
          ],
          "internalType": "struct route[]",
          "name": "routes",
          "type": "tuple[]"
        },
        {
          "internalType": "address",
          "name": "to",
          "type": "address"
        },
        {
          "internalType": "uint256",
          "name": "deadline",
          "type": "uint256"
        }
      ],
      "name": "swapTokensForExactETH",
      "outputs": [
        {
          "internalType": "uint256[]",
          "name": "amounts",
          "type": "uint256[]"
        }
      ],
      "stateMutability": "nonpayable",
      "type": "function"
    },
    {
      "inputs": [
        {
          "internalType": "uint256",
          "name": "amountOut",
          "type": "uint256"
        },
        {
          "internalType": "uint256",
          "name": "amountInMax",
          "type": "uint256"
        },
        {
          "components": [
            {
              "internalType": "address",
              "name": "from",
              "type": "address"
            },
            {
              "internalType": "address",
              "name": "to",
              "type": "address"
            },
            {
              "internalType": "bool",
              "name": "stable",
              "type": "bool"
            }
          ],
          "internalType": "struct route[]",
          "name": "routes",
          "type": "tuple[]"
        },
        {
          "internalType": "address",
          "name": "to",
          "type": "address"
        },
        {
          "internalType": "uint256",
          "name": "deadline",
          "type": "uint256"
        }
      ],
      "name": "swapTokensForExactTokens",
      "outputs": [
        {
          "internalType": "uint256[]",
          "name": "amounts",
          "type": "uint256[]"
        }
      ],
      "stateMutability": "nonpayable",
      "type": "function"
    },
    {
      "stateMutability": "payable",
      "type": "receive"
    }
  ],
  "bytecode": "0x60806040523480156200001157600080fd5b5060405162005097380380620050978339810160408190526200003491620000e0565b600080546001600160a01b038085166001600160a01b031992831681179093556001805491851691909216179055604080516351ad19bd60e11b8152905163a35a337a91600480820192602092909190829003018186803b1580156200009957600080fd5b505afa158015620000ae573d6000803e3d6000fd5b505050506040513d601f19601f82011682018060405250810190620000d491906200011e565b60025550620001509050565b60008060408385031215620000f3578182fd5b8251620001008162000137565b6020840151909250620001138162000137565b809150509250929050565b60006020828403121562000130578081fd5b5051919050565b6001600160a01b03811681146200014d57600080fd5b50565b614f3780620001606000396000f3fe6080604052600436106101a05760003560e01c80639881fcb4116100ec578063d5c54e331161008a578063dc2972c211610064578063dc2972c21461048b578063ed1fbca2146104ab578063f41766d8146104cb578063f4f3de4f146104eb576101bb565b8063d5c54e331461042b578063d69f344c1461044b578063d8ec27771461046b576101bb565b8063ad615dec116100c6578063ad615dec146103c3578063c45a0155146103e3578063cad77ef2146103f8578063d4d6886f14610418576101bb565b80639881fcb41461036157806399e629f914610381578063ad5c4648146103a1576101bb565b8063633afc92116101595780637af728c8116101335780637af728c8146102df5780637d03c793146102ff5780637de50ddf1461032157806382179c5d14610341576101bb565b8063633afc92146102995780636cc1ae13146102ac57806371d6614d146102cc576101bb565b80630cd7ee9f146101c057806312210e8a146101f757806318a13086146101ff5780633e6c63c91461022c5780634b45e5351461024c5780635ae401dc14610279576101bb565b366101bb576001546001600160a01b031633146101b957fe5b005b600080fd5b3480156101cc57600080fd5b506101e06101db366004614196565b6104fe565b6040516101ee929190614dae565b60405180910390f35b6101b9610650565b34801561020b57600080fd5b5061021f61021a3660046144c9565b610662565b6040516101ee91906147c7565b34801561023857600080fd5b506101e0610247366004614139565b610902565b34801561025857600080fd5b5061026c610267366004614196565b6109d6565b6040516101ee9190614da5565b61028c610287366004614313565b610abe565b6040516101ee9190614767565b61021f6102a7366004614389565b610c21565b3480156102b857600080fd5b506101b96102c73660046144c9565b610ef5565b6101b96102da3660046144c9565b61114a565b3480156102eb57600080fd5b506101b96102fa3660046144c9565b6113e6565b61031261030d366004614139565b6115dc565b6040516101ee93929190614de9565b34801561032d57600080fd5b506101e061033c366004614196565b6117f8565b34801561034d57600080fd5b506101e061035c36600461429c565b6118e5565b34801561036d57600080fd5b5061021f61037c3660046143ed565b611ac2565b34801561038d57600080fd5b5061026c61039c366004614564565b611c8d565b3480156103ad57600080fd5b506103b6611caa565b6040516101ee91906146b1565b3480156103cf57600080fd5b5061026c6103de366004614539565b611cb9565b3480156103ef57600080fd5b506103b6611cd0565b34801561040457600080fd5b5061026c61041336600461429c565b611cdf565b61021f610426366004614389565b611e0a565b34801561043757600080fd5b5061021f6104463660046143ed565b61204e565b34801561045757600080fd5b5061021f6104663660046144c9565b61220f565b34801561047757600080fd5b5061026c610486366004614564565b612376565b34801561049757600080fd5b506103126104a6366004614218565b612386565b3480156104b757600080fd5b5061021f6104c63660046144c9565b6124b9565b3480156104d757600080fd5b5061021f6104e63660046144c9565b6125c6565b61021f6104f93660046144c9565b61271b565b6002546000805490918291829161052c916001600160a01b0316610527368f90038f018f614281565b6129b7565b905060008561053b578a61053f565b6000195b90506001600160a01b03821663d505accf3330848b61056160208c018c6145b6565b8b602001358c604001356040518863ffffffff1660e01b815260040161058d97969594939291906146c5565b600060405180830381600087803b1580156105a757600080fd5b505af11580156105bb573d6000803e3d6000fd5b5050604051633e6c63c960e01b8152309450633e6c63c993506105ee92508e91508d908d908d908d908d90600401614d2f565b6040805180830381600087803b15801561060757600080fd5b505af115801561061b573d6000803e3d6000fd5b505050506040513d601f19601f8201168201806040525081019061063f91906144a6565b909b909a5098505050505050505050565b4715610660576106603347612a37565b565b6060814281101561068e5760405162461bcd60e51b81526004016106859061481e565b60405180910390fd5b6001546001600160a01b0316868660001981018181106106aa57fe5b90506060020160200160208101906106c2919061404b565b6001600160a01b0316146106e85760405162461bcd60e51b815260040161068590614bb4565b610744888787808060200260200160405190810160405280939291908181526020016000905b8282101561073a5761072b60608302860136819003810190614281565b8152602001906001019061070e565b5050505050611ac2565b9150868260018451038151811061075757fe5b6020026020010151101561077d5760405162461bcd60e51b815260040161068590614c22565b6107fc8686600081811061078d57fe5b6107a3926020606090920201908101915061404b565b336107e26002546000809054906101000a90046001600160a01b03168b8b60008181106107cc57fe5b9050606002018036038101906105279190614281565b856000815181106107ef57fe5b6020026020010151612ac9565b610859828787808060200260200160405190810160405280939291908181526020016000905b8282101561084e5761083f60608302860136819003810190614281565b81526020019060010190610822565b505050505030612bba565b60015482516001600160a01b0390911690632e1a7d4d908490600019810190811061088057fe5b60200260200101516040518263ffffffff1660e01b81526004016108a49190614da5565b600060405180830381600087803b1580156108be57600080fd5b505af11580156108d2573d6000803e3d6000fd5b505050506108f784836001855103815181106108ea57fe5b6020026020010151612a37565b509695505050505050565b60008082428110156109265760405162461bcd60e51b81526004016106859061481e565b610942610938368b90038b018b614281565b89898930896118e5565b909350915061095e61095760208b018b61404b565b8685612d6c565b600154604051632e1a7d4d60e01b81526001600160a01b0390911690632e1a7d4d9061098e908590600401614da5565b600060405180830381600087803b1580156109a857600080fd5b505af11580156109bc573d6000803e3d6000fd5b505050506109ca8583612a37565b50965096945050505050565b60025460008054909182916109fe91906001600160a01b0316610527368e90038e018e614281565b9050600084610a0d5789610a11565b6000195b90506001600160a01b03821663d505accf3330848a610a3360208b018b6145b6565b8a602001358b604001356040518863ffffffff1660e01b8152600401610a5f97969594939291906146c5565b600060405180830381600087803b158015610a7957600080fd5b505af1158015610a8d573d6000803e3d6000fd5b50505050610aaf8b803603810190610aa59190614281565b8b8b8b8b8b611cdf565b9b9a5050505050505050505050565b60608342811015610ae15760405162461bcd60e51b81526004016106859061481e565b826001600160401b0381118015610af757600080fd5b50604051908082528060200260200182016040528015610b2b57816020015b6060815260200190600190039081610b165790505b50915060005b83811015610c18576000606030878785818110610b4a57fe5b9050602002810190610b5c9190614dff565b604051610b6a92919061464d565b600060405180830381855af49150503d8060008114610ba5576040519150601f19603f3d011682016040523d82523d6000602084013e610baa565b606091505b509150915081610bf657604481511015610bc357600080fd5b60048101905080806020019051810190610bdd91906140b7565b60405162461bcd60e51b8152600401610685919061480b565b80858481518110610c0357fe5b60209081029190910101525050600101610b31565b50509392505050565b60608142811015610c445760405162461bcd60e51b81526004016106859061481e565b6001546001600160a01b03168686600081610c5b57fe5b610c71926020606090920201908101915061404b565b6001600160a01b031614610c975760405162461bcd60e51b815260040161068590614bb4565b610cf3878787808060200260200160405190810160405280939291908181526020016000905b82821015610ce957610cda60608302860136819003810190614281565b81526020019060010190610cbd565b505050505061204e565b91503482600081518110610d0357fe5b60200260200101511115610d295760405162461bcd60e51b815260040161068590614a45565b60015482516001600160a01b039091169063d0e30db0908490600090610d4b57fe5b60200260200101516040518263ffffffff1660e01b81526004016000604051808303818588803b158015610d7e57600080fd5b505af1158015610d92573d6000803e3d6000fd5b5050600154600254600080546001600160a01b03938416965063a9059cbb9550610dc894509192909116908b908b90816107cc57fe5b84600081518110610dd557fe5b60200260200101516040518363ffffffff1660e01b8152600401610dfa92919061474e565b602060405180830381600087803b158015610e1457600080fd5b505af1158015610e28573d6000803e3d6000fd5b505050506040513d601f19601f82011682018060405250810190610e4c9190614083565b610e5257fe5b610eaf828787808060200260200160405190810160405280939291908181526020016000905b82821015610ea457610e9560608302860136819003810190614281565b81526020019060010190610e78565b505050505086612bba565b81600081518110610ebc57fe5b6020026020010151341115610eeb57610eeb3383600081518110610edc57fe5b60200260200101513403612a37565b5095945050505050565b8042811015610f165760405162461bcd60e51b81526004016106859061481e565b610f6b85856000818110610f2657fe5b610f3c926020606090920201908101915061404b565b33610f656002546000809054906101000a90046001600160a01b03168a8a60008181106107cc57fe5b8a612ac9565b600085856000198101818110610f7d57fe5b9050606002016020016020810190610f95919061404b565b6001600160a01b03166370a08231856040518263ffffffff1660e01b8152600401610fc091906146b1565b60206040518083038186803b158015610fd857600080fd5b505afa158015610fec573d6000803e3d6000fd5b505050506040513d601f19601f82011682018060405250810190611010919061409f565b905061106e8686808060200260200160405190810160405280939291908181526020016000905b828210156110635761105460608302860136819003810190614281565b81526020019060010190611037565b505050505085612e5a565b86611122828888600019810181811061108357fe5b905060600201602001602081019061109b919061404b565b6001600160a01b03166370a08231886040518263ffffffff1660e01b81526004016110c691906146b1565b60206040518083038186803b1580156110de57600080fd5b505afa1580156110f2573d6000803e3d6000fd5b505050506040513d601f19601f82011682018060405250810190611116919061409f565b9063ffffffff61323816565b10156111405760405162461bcd60e51b815260040161068590614c22565b5050505050505050565b804281101561116b5760405162461bcd60e51b81526004016106859061481e565b6001546001600160a01b0316858560008161118257fe5b611198926020606090920201908101915061404b565b6001600160a01b0316146111be5760405162461bcd60e51b815260040161068590614bb4565b348711156111de5760405162461bcd60e51b815260040161068590614a02565b600160009054906101000a90046001600160a01b03166001600160a01b031663d0e30db0886040518263ffffffff1660e01b81526004016000604051808303818588803b15801561122e57600080fd5b505af1158015611242573d6000803e3d6000fd5b5050600154600254600080546001600160a01b03938416965063a9059cbb955061127894509192909116908a908a90816107cc57fe5b896040518363ffffffff1660e01b815260040161129692919061474e565b602060405180830381600087803b1580156112b057600080fd5b505af11580156112c4573d6000803e3d6000fd5b505050506040513d601f19601f820116820180604052508101906112e89190614083565b6112ee57fe5b60008585600019810181811061130057fe5b9050606002016020016020810190611318919061404b565b6001600160a01b03166370a08231856040518263ffffffff1660e01b815260040161134391906146b1565b60206040518083038186803b15801561135b57600080fd5b505afa15801561136f573d6000803e3d6000fd5b505050506040513d601f19601f82011682018060405250810190611393919061409f565b905061106e8686808060200260200160405190810160405280939291908181526020016000905b82821015611063576113d760608302860136819003810190614281565b815260200190600101906113ba565b80428110156114075760405162461bcd60e51b81526004016106859061481e565b6001546001600160a01b03168585600019810181811061142357fe5b905060600201602001602081019061143b919061404b565b6001600160a01b0316146114615760405162461bcd60e51b815260040161068590614bb4565b61147185856000818110610f2657fe5b6114cd8585808060200260200160405190810160405280939291908181526020016000905b828210156114c2576114b360608302860136819003810190614281565b81526020019060010190611496565b505050505030612e5a565b6001546040516370a0823160e01b81526000916001600160a01b0316906370a08231906114fe9030906004016146b1565b60206040518083038186803b15801561151657600080fd5b505afa15801561152a573d6000803e3d6000fd5b505050506040513d601f19601f8201168201806040525081019061154e919061409f565b9050868110156115705760405162461bcd60e51b815260040161068590614c22565b600154604051632e1a7d4d60e01b81526001600160a01b0390911690632e1a7d4d906115a0908490600401614da5565b600060405180830381600087803b1580156115ba57600080fd5b505af11580156115ce573d6000803e3d6000fd5b505050506111408482612a37565b600080600083428110156116025760405162461bcd60e51b81526004016106859061481e565b61161d611614368c90038c018c614281565b8a348b8b61325b565b60025460008054939750919550909161164991906001600160a01b0316610527368f90038f018f614281565b905061166361165b60208d018d61404b565b338388612ac9565b600160009054906101000a90046001600160a01b03166001600160a01b031663d0e30db0856040518263ffffffff1660e01b81526004016000604051808303818588803b1580156116b357600080fd5b505af11580156116c7573d6000803e3d6000fd5b505060015460405163a9059cbb60e01b81526001600160a01b03909116935063a9059cbb92506116fe91508490889060040161474e565b602060405180830381600087803b15801561171857600080fd5b505af115801561172c573d6000803e3d6000fd5b505050506040513d601f19601f820116820180604052508101906117509190614083565b61175657fe5b6040516335313c2160e11b81526001600160a01b03821690636a62784290611782908a906004016146b1565b602060405180830381600087803b15801561179c57600080fd5b505af11580156117b0573d6000803e3d6000fd5b505050506040513d601f19601f820116820180604052508101906117d4919061409f565b9250833411156117ea576117ea33853403612a37565b505096509650969350505050565b60025460008054909182918291611821916001600160a01b0316610527368f90038f018f614281565b9050600085611830578a611834565b6000195b90506001600160a01b03821663d505accf3330848b61185660208c018c6145b6565b8b602001358c604001356040518863ffffffff1660e01b815260040161188297969594939291906146c5565b600060405180830381600087803b15801561189c57600080fd5b505af11580156118b0573d6000803e3d6000fd5b505050506118d28c8036038101906118c89190614281565b8c8c8c8c8c6118e5565b909d909c509a5050505050505050505050565b60008082428110156119095760405162461bcd60e51b81526004016106859061481e565b600254600080549091611925916001600160a01b03168c6129b7565b6040516323b872dd60e01b81529091506001600160a01b038216906323b872dd9061195890339085908e90600401614706565b602060405180830381600087803b15801561197257600080fd5b505af1158015611986573d6000803e3d6000fd5b505050506040513d601f19601f820116820180604052508101906119aa9190614083565b50600080826001600160a01b03166389afcb44896040518263ffffffff1660e01b81526004016119da91906146b1565b6040805180830381600087803b1580156119f357600080fd5b505af1158015611a07573d6000803e3d6000fd5b505050506040513d601f19601f82011682018060405250810190611a2b91906144a6565b915091506000611a438d600001518e60200151613457565b509050806001600160a01b03168d600001516001600160a01b031614611a6a578183611a6d565b82825b90975095508a871015611a925760405162461bcd60e51b815260040161068590614ce8565b89861015611ab25760405162461bcd60e51b815260040161068590614ac8565b5050505050965096945050505050565b60608082516001016001600160401b0381118015611adf57600080fd5b50604051908082528060200260200182016040528015611b09578160200160208202803683370190505b50905082600081518110611b1957fe5b6020026020010151600001516001600160a01b031663313ce5676040518163ffffffff1660e01b815260040160206040518083038186803b158015611b5d57600080fd5b505afa158015611b71573d6000803e3d6000fd5b505050506040513d601f19601f82011682018060405250810190611b9591906145d2565b60ff1681600081518110611ba557fe5b60200260200101818152505060005b8351811015611c6a57838181518110611bc957fe5b6020026020010151602001516001600160a01b031663313ce5676040518163ffffffff1660e01b815260040160206040518083038186803b158015611c0d57600080fd5b505afa158015611c21573d6000803e3d6000fd5b505050506040513d601f19601f82011682018060405250810190611c4591906145d2565b60ff16828260010181518110611c5757fe5b6020908102919091010152600101611bb4565b50600054611c83906001600160a01b03168585846134e1565b9150505b92915050565b6000611c9d878787878787613624565b90505b9695505050505050565b6001546001600160a01b031681565b6000611cc68484846137db565b90505b9392505050565b6000546001600160a01b031681565b60008142811015611d025760405162461bcd60e51b81526004016106859061481e565b611d108888888830886118e5565b89516040516370a0823160e01b8152919450611d9e92509086906001600160a01b038316906370a0823190611d499030906004016146b1565b60206040518083038186803b158015611d6157600080fd5b505afa158015611d75573d6000803e3d6000fd5b505050506040513d601f19601f82011682018060405250810190611d99919061409f565b612d6c565b600154604051632e1a7d4d60e01b81526001600160a01b0390911690632e1a7d4d90611dce908590600401614da5565b600060405180830381600087803b158015611de857600080fd5b505af1158015611dfc573d6000803e3d6000fd5b505050506108f78483612a37565b60608142811015611e2d5760405162461bcd60e51b81526004016106859061481e565b6001546001600160a01b03168686600081611e4457fe5b611e5a926020606090920201908101915061404b565b6001600160a01b031614611e805760405162461bcd60e51b815260040161068590614bb4565b611ed2878787808060200260200160405190810160405280939291908181526020016000905b82821015610ce957611ec360608302860136819003810190614281565b81526020019060010190611ea6565b60015481519193506001600160a01b03169063d0e30db0908490600090611ef557fe5b60200260200101516040518263ffffffff1660e01b81526004016000604051808303818588803b158015611f2857600080fd5b505af1158015611f3c573d6000803e3d6000fd5b5050600154600254600080546001600160a01b03938416965063a9059cbb9550611f7294509192909116908b908b90816107cc57fe5b84600081518110611f7f57fe5b60200260200101516040518363ffffffff1660e01b8152600401611fa492919061474e565b602060405180830381600087803b158015611fbe57600080fd5b505af1158015611fd2573d6000803e3d6000fd5b505050506040513d601f19601f82011682018060405250810190611ff69190614083565b611ffc57fe5b610eeb828787808060200260200160405190810160405280939291908181526020016000905b82821015610ea45761203f60608302860136819003810190614281565b81526020019060010190612022565b60608082516001016001600160401b038111801561206b57600080fd5b50604051908082528060200260200182016040528015612095578160200160208202803683370190505b509050826000815181106120a557fe5b6020026020010151600001516001600160a01b031663313ce5676040518163ffffffff1660e01b815260040160206040518083038186803b1580156120e957600080fd5b505afa1580156120fd573d6000803e3d6000fd5b505050506040513d601f19601f8201168201806040525081019061212191906145d2565b60ff168160008151811061213157fe5b60200260200101818152505060005b83518110156121f65783818151811061215557fe5b6020026020010151602001516001600160a01b031663313ce5676040518163ffffffff1660e01b815260040160206040518083038186803b15801561219957600080fd5b505afa1580156121ad573d6000803e3d6000fd5b505050506040513d601f19601f820116820180604052508101906121d191906145d2565b60ff168282600101815181106121e357fe5b6020908102919091010152600101612140565b50600054611c83906001600160a01b0316858584613849565b606081428110156122325760405162461bcd60e51b81526004016106859061481e565b6001546001600160a01b03168686600019810181811061224e57fe5b9050606002016020016020810190612266919061404b565b6001600160a01b03161461228c5760405162461bcd60e51b815260040161068590614bb4565b6122de888787808060200260200160405190810160405280939291908181526020016000905b82821015610ce9576122cf60608302860136819003810190614281565b815260200190600101906122b2565b915086826000815181106122ee57fe5b602002602001015111156123145760405162461bcd60e51b815260040161068590614a45565b6123248686600081811061078d57fe5b610859828787808060200260200160405190810160405280939291908181526020016000905b8282101561084e5761236760608302860136819003810190614281565b8152602001906001019061234a565b6000611c9d878787878787613987565b600080600083428110156123ac5760405162461bcd60e51b81526004016106859061481e565b6123c76123be368d90038d018d614281565b8b8b8b8b61325b565b809450819550505060006123fd6002546000809054906101000a90046001600160a01b03168e8036038101906105279190614281565b905061240f61165b60208e018e61404b565b61242a61242260408e0160208f0161404b565b338387612ac9565b6040516335313c2160e11b81526001600160a01b03821690636a62784290612456908a906004016146b1565b602060405180830381600087803b15801561247057600080fd5b505af1158015612484573d6000803e3d6000fd5b505050506040513d601f19601f820116820180604052508101906124a8919061409f565b925050509750975097945050505050565b606081428110156124dc5760405162461bcd60e51b81526004016106859061481e565b61252e888787808060200260200160405190810160405280939291908181526020016000905b82821015610ce95761251f60608302860136819003810190614281565b81526020019060010190612502565b9150868260008151811061253e57fe5b602002602001015111156125645760405162461bcd60e51b815260040161068590614a45565b6125748686600081811061078d57fe5b6108f7828787808060200260200160405190810160405280939291908181526020016000905b82821015610ea4576125b760608302860136819003810190614281565b8152602001906001019061259a565b606081428110156125e95760405162461bcd60e51b81526004016106859061481e565b61263b888787808060200260200160405190810160405280939291908181526020016000905b8282101561073a5761262c60608302860136819003810190614281565b8152602001906001019061260f565b9150868260018451038151811061264e57fe5b602002602001015110156126745760405162461bcd60e51b815260040161068590614c22565b6126c98686600081811061268457fe5b61269a926020606090920201908101915061404b565b336126c36002546000809054906101000a90046001600160a01b03168b8b60008181106107cc57fe5b8b612ac9565b6108f7828787808060200260200160405190810160405280939291908181526020016000905b82821015610ea45761270c60608302860136819003810190614281565b815260200190600101906126ef565b6060814281101561273e5760405162461bcd60e51b81526004016106859061481e565b6001546001600160a01b0316868660008161275557fe5b61276b926020606090920201908101915061404b565b6001600160a01b0316146127915760405162461bcd60e51b815260040161068590614bb4565b348811156127b15760405162461bcd60e51b815260040161068590614a02565b612803888787808060200260200160405190810160405280939291908181526020016000905b8282101561073a576127f460608302860136819003810190614281565b815260200190600101906127d7565b9150868260018451038151811061281657fe5b6020026020010151101561283c5760405162461bcd60e51b815260040161068590614c22565b60015482516001600160a01b039091169063d0e30db090849060009061285e57fe5b60200260200101516040518263ffffffff1660e01b81526004016000604051808303818588803b15801561289157600080fd5b505af11580156128a5573d6000803e3d6000fd5b5050600154600254600080546001600160a01b03938416965063a9059cbb95506128db94509192909116908b908b90816107cc57fe5b846000815181106128e857fe5b60200260200101516040518363ffffffff1660e01b815260040161290d92919061474e565b602060405180830381600087803b15801561292757600080fd5b505af115801561293b573d6000803e3d6000fd5b505050506040513d601f19601f8201168201806040525081019061295f9190614083565b61296557fe5b6108f7828787808060200260200160405190810160405280939291908181526020016000905b82821015610ea4576129a860608302860136819003810190614281565b8152602001906001019061298b565b60008060006129ce84600001518560200151613457565b9150915084828286604001516040516020016129ec9392919061461a565b6040516020818303038152906040528051906020012087604051602001612a1593929190614679565b60408051601f1981840301815291905280516020909101209695505050505050565b604080516000808252602082019092526001600160a01b038416908390604051612a61919061465d565b60006040518083038185875af1925050503d8060008114612a9e576040519150601f19603f3d011682016040523d82523d6000602084013e612aa3565b606091505b5050905080612ac45760405162461bcd60e51b815260040161068590614968565b505050565b60006060856001600160a01b03166323b872dd868686604051602401612af193929190614706565b6040516020818303038152906040529060e01b6020820180516001600160e01b038381831617835250505050604051612b2a919061465d565b6000604051808303816000865af19150503d8060008114612b67576040519150601f19603f3d011682016040523d82523d6000602084013e612b6c565b606091505b5091509150818015612b96575080511580612b96575080806020019051810190612b969190614083565b612bb25760405162461bcd60e51b815260040161068590614917565b505050505050565b60005b60018351038111612d6657600080848381518110612bd757fe5b602002602001015160000151858481518110612bef57fe5b602002602001015160200151915091506000612c0b8383613457565b5090506000878560010181518110612c1f57fe5b60200260200101519050600080836001600160a01b0316866001600160a01b031614612c4d57826000612c51565b6000835b91509150600060018a51038810612c685788612c9b565b6002546000548b51612c9b92916001600160a01b0316908d9060018d01908110612c8e57fe5b60200260200101516129b7565b9050612cc46002546000809054906101000a90046001600160a01b03168c8b81518110612c8e57fe5b6001600160a01b031663022c0d9f84848460006040519080825280601f01601f191660200182016040528015612d01576020820181803683370190505b506040518563ffffffff1660e01b8152600401612d219493929190614dbc565b600060405180830381600087803b158015612d3b57600080fd5b505af1158015612d4f573d6000803e3d6000fd5b505060019099019850612bbd975050505050505050565b50505050565b60006060846001600160a01b031663a9059cbb8585604051602401612d9292919061474e565b6040516020818303038152906040529060e01b6020820180516001600160e01b038381831617835250505050604051612dcb919061465d565b6000604051808303816000865af19150503d8060008114612e08576040519150601f19603f3d011682016040523d82523d6000602084013e612e0d565b606091505b5091509150818015612e37575080511580612e37575080806020019051810190612e379190614083565b612e535760405162461bcd60e51b815260040161068590614c6e565b5050505050565b60005b8251811015612ac4576000612ea0848381518110612e7757fe5b602002602001015160000151858481518110612e8f57fe5b602002602001015160200151613457565b5090506000612ecc6002546000809054906101000a90046001600160a01b0316878681518110612c8e57fe5b9050600080600080600080866001600160a01b0316630902f1ac6040518163ffffffff1660e01b815260040160606040518083038186803b158015612f1057600080fd5b505afa158015612f24573d6000803e3d6000fd5b505050506040513d601f19601f82011682018060405250810190612f4891906142bf565b506001600160701b031691506001600160701b03169150876001600160a01b03168b8a81518110612f7557fe5b6020026020010151600001516001600160a01b031614612f96578082612f99565b81815b8094508195505050612fe8848c8b81518110612fb157fe5b6020026020010151600001516001600160a01b03166370a082318a6040518263ffffffff1660e01b81526004016110c691906146b1565b955050506000898881518110612ffa57fe5b6020026020010151600001516001600160a01b031663313ce5676040518163ffffffff1660e01b815260040160206040518083038186803b15801561303e57600080fd5b505afa158015613052573d6000803e3d6000fd5b505050506040513d601f19601f8201168201806040525081019061307691906145d2565b60ff16905060008a898151811061308957fe5b6020026020010151602001516001600160a01b031663313ce5676040518163ffffffff1660e01b815260040160206040518083038186803b1580156130cd57600080fd5b505afa1580156130e1573d6000803e3d6000fd5b505050506040513d601f19601f8201168201806040525081019061310591906145d2565b60ff16905061312f8685858e8d8151811061311c57fe5b6020026020010151604001518686612376565b94505050600080876001600160a01b03168b8a8151811061314c57fe5b6020026020010151600001516001600160a01b03161461316e57846000613172565b6000855b91509150600060018c51038a10613189578a6131af565b6002546000548d516131af92916001600160a01b0316908f9060018f01908110612c8e57fe5b6040805160008152602081019182905263022c0d9f60e01b9091529091506001600160a01b0389169063022c0d9f906131f19086908690869060248101614dbc565b600060405180830381600087803b15801561320b57600080fd5b505af115801561321f573d6000803e3d6000fd5b50506001909b019a50612e5d9950505050505050505050565b80820382811115611c875760405162461bcd60e51b81526004016106859061488c565b60008054865160208801516040808a015190516306801cc360e41b8152859485946001600160a01b0390911693636801cc309361329a9360040161472a565b60206040518083038186803b1580156132b257600080fd5b505afa1580156132c6573d6000803e3d6000fd5b505050506040513d601f19601f820116820180604052508101906132ea9190614067565b90506001600160a01b03811661338d57600054885160208a01516040808c015190516320b7f73960e21b81526001600160a01b03909416936382dfdce493613338939092909160040161472a565b602060405180830381600087803b15801561335257600080fd5b505af1158015613366573d6000803e3d6000fd5b505050506040513d601f19601f8201168201806040525081019061338a9190614067565b90505b6000805481906133a6906001600160a01b03168b613b36565b915091508160001480156133b8575080155b156133c85788945087935061344a565b60006133d58a84846137db565b905088811161340957868110156133fe5760405162461bcd60e51b815260040161068590614ac8565b899550935083613448565b60006134168a84866137db565b90508a81111561342257fe5b888110156134425760405162461bcd60e51b815260040161068590614ce8565b95508894505b505b5050509550959350505050565b600080826001600160a01b0316846001600160a01b0316141561348c5760405162461bcd60e51b8152600401610685906149bc565b826001600160a01b0316846001600160a01b0316106134ac5782846134af565b83835b90925090506001600160a01b0382166134da5760405162461bcd60e51b815260040161068590614855565b9250929050565b60606001835110156135055760405162461bcd60e51b815260040161068590614beb565b82516001016001600160401b038111801561351f57600080fd5b50604051908082528060200260200182016040528015613549578160200160208202803683370190505b509050838160008151811061355a57fe5b60200260200101818152505060005b835181101561361b576000806135928887858151811061358557fe5b6020026020010151613b36565b915091506135f78484815181106135a557fe5b602002602001015183838987815181106135bb57fe5b6020026020010151604001518988815181106135d357fe5b60200260200101518a89600101815181106135ea57fe5b6020026020010151613987565b84846001018151811061360657fe5b60209081029190910101525050600101613569565b50949350505050565b60008087116136455760405162461bcd60e51b815260040161068590614a8d565b6000861180156136555750600085115b6136715760405162461bcd60e51b815260040161068590614b7d565b83156137735761368b83600a81900a63ffffffff613c9016565b92506136a182600a81900a63ffffffff613c9016565b91506136b58761271063ffffffff613cc716565b8703965060006136c787878686613cf7565b90506136f1846136e589670de0b6b3a764000063ffffffff613c9016565b9063ffffffff613cc716565b965061370f836136e588670de0b6b3a764000063ffffffff613c9016565b955061372d836136e58a670de0b6b3a764000063ffffffff613c9016565b975061374d87611116613746898c63ffffffff61323816565b848b613db3565b915061376b670de0b6b3a76400006136e5848763ffffffff613c9016565b915050611ca0565b60006137976103e861378b898b63ffffffff613c9016565b9063ffffffff613c9016565b905060006137b16103e561378b898c63ffffffff61323816565b90506137ce60018284816137c157fe5b049063ffffffff613ec116565b9998505050505050505050565b60008084116137fc5760405162461bcd60e51b815260040161068590614b49565b60008311801561380c5750600082115b6138285760405162461bcd60e51b815260040161068590614b7d565b82613839858463ffffffff613c9016565b8161384057fe5b04949350505050565b606060018351101561386d5760405162461bcd60e51b815260040161068590614beb565b82516001016001600160401b038111801561388757600080fd5b506040519080825280602002602001820160405280156138b1578160200160208202803683370190505b50905083816001835103815181106138c557fe5b6020908102919091010152825160001981015b8181101561397d576000806138f38988858151811061358557fe5b9150915061395b85846001018151811061390957fe5b602002602001015183838a878151811061391f57fe5b6020026020010151604001518a888151811061393757fe5b60200260200101518b896001018151811061394e57fe5b6020026020010151613624565b85848151811061396757fe5b60209081029190910101525050600019016138d8565b5050949350505050565b60008087116139a85760405162461bcd60e51b815260040161068590614b0f565b6000861180156139b85750600085115b6139d45760405162461bcd60e51b815260040161068590614b7d565b8315613ace576139ec8761271063ffffffff613cc716565b90960395613a0483600a81900a63ffffffff613c9016565b9250613a1a82600a81900a63ffffffff613c9016565b91506000613a2a87878686613cf7565b9050613a48846136e589670de0b6b3a764000063ffffffff613c9016565b9650613a66836136e588670de0b6b3a764000063ffffffff613c9016565b9550613a84846136e58a670de0b6b3a764000063ffffffff613c9016565b9750613ab0613aa3613a9c8a8a63ffffffff613ec116565b8389613db3565b879063ffffffff61323816565b915061376b670de0b6b3a76400006136e5848663ffffffff613c9016565b6000613ae2886103e563ffffffff613c9016565b90506000613af6828863ffffffff613c9016565b90506000613b1c83613b108b6103e863ffffffff613c9016565b9063ffffffff613ec116565b9050808281613b2757fe5b049a9950505050505050505050565b6000806000613b4d84600001518560200151613457565b5090506000856001600160a01b031663a35a337a6040518163ffffffff1660e01b815260040160206040518083038186803b158015613b8b57600080fd5b505afa158015613b9f573d6000803e3d6000fd5b505050506040513d601f19601f82011682018060405250810190613bc3919061409f565b9050600080613bd38389896129b7565b6001600160a01b0316630902f1ac6040518163ffffffff1660e01b815260040160606040518083038186803b158015613c0b57600080fd5b505afa158015613c1f573d6000803e3d6000fd5b505050506040513d601f19601f82011682018060405250810190613c4391906142bf565b506001600160701b031691506001600160701b03169150836001600160a01b031687600001516001600160a01b031614613c7e578082613c81565b81815b90999098509650505050505050565b6000811580613cab57505080820282828281613ca857fe5b04145b611c875760405162461bcd60e51b8152600401610685906148bb565b600081613ce65760405162461bcd60e51b815260040161068590614cbb565b818381613cef57fe5b049392505050565b600080613d16846136e588670de0b6b3a764000063ffffffff613c9016565b90506000613d36846136e588670de0b6b3a764000063ffffffff613c9016565b90506000613d56670de0b6b3a76400006136e5858563ffffffff613c9016565b90506000613d95613d79670de0b6b3a76400006136e5868063ffffffff613c9016565b613b10670de0b6b3a76400006136e5888063ffffffff613c9016565b90506137ce670de0b6b3a76400006136e5848463ffffffff613c9016565b6000805b60ff811015613eb857826000613dcd8783613ee4565b905085811015613e1c576000613e02613de68988613f43565b6136e5670de0b6b3a764000061378b8b8763ffffffff61323816565b9050613e14868263ffffffff613ec116565b955050613e5d565b6000613e47613e2b8988613f43565b6136e5670de0b6b3a764000061378b868c63ffffffff61323816565b9050613e59868263ffffffff61323816565b9550505b81851115613e8c576001613e77868463ffffffff61323816565b11613e8757849350505050611cc9565b613eae565b6001613e9e838763ffffffff61323816565b11613eae57849350505050611cc9565b5050600101613db7565b50909392505050565b80820182811015611c875760405162461bcd60e51b8152600401610685906148e9565b6000611cc9613f0f670de0b6b3a76400006136e58561378b83838a838383838063ffffffff613c9016565b613b10670de0b6b3a76400006136e5613f3682828961378b8383838063ffffffff613c9016565b889063ffffffff613c9016565b6000611cc9613f6a670de0b6b3a76400006136e58661378b8383838063ffffffff613c9016565b613b10670de0b6b3a76400006136e5613f8b8282898063ffffffff613c9016565b61378b60038a63ffffffff613c9016565b60008083601f840112613fad578182fd5b5081356001600160401b03811115613fc3578182fd5b6020830191508360206060830285010111156134da57600080fd5b600060608284031215613fef578081fd5b50919050565b600060608284031215614006578081fd5b6140106060614e45565b9050813561401d81614e97565b8152602082013561402d81614e97565b6020820152604082013561404081614eaf565b604082015292915050565b60006020828403121561405c578081fd5b8135611cc981614e97565b600060208284031215614078578081fd5b8151611cc981614e97565b600060208284031215614094578081fd5b8151611cc981614eaf565b6000602082840312156140b0578081fd5b5051919050565b6000602082840312156140c8578081fd5b81516001600160401b03808211156140de578283fd5b81840185601f8201126140ef578384fd5b80519250818311156140ff578384fd5b614112601f8401601f1916602001614e45565b9150828252856020848301011115614128578384fd5b61361b836020840160208401614e6b565b6000806000806000806101008789031215614152578182fd5b61415c8888613fde565b9550606087013594506080870135935060a0870135925060c087013561418181614e97565b8092505060e087013590509295509295509295565b600080600080600080600080610180898b0312156141b2578182fd5b6141bc8a8a613fde565b9750606089013596506080890135955060a0890135945060c08901356141e181614e97565b935060e089013592506101008901356141f981614eaf565b91506142098a6101208b01613fde565b90509295985092959890939650565b6000806000806000806000610120888a031215614233578081fd5b61423d8989613fde565b9650606088013595506080880135945060a0880135935060c0880135925060e088013561426981614e97565b80925050610100880135905092959891949750929550565b600060608284031215614292578081fd5b611cc98383613ff5565b60008060008060008061010087890312156142b5578384fd5b61415c8888613ff5565b6000806000606084860312156142d3578081fd5b83516142de81614ebd565b60208501519093506142ef81614ebd565b604085015190925063ffffffff81168114614308578182fd5b809150509250925092565b600080600060408486031215614327578081fd5b8335925060208401356001600160401b0380821115614344578283fd5b81860187601f820112614355578384fd5b8035925081831115614365578384fd5b8760208085028301011115614378578384fd5b949760209095019650909450505050565b6000806000806000608086880312156143a0578283fd5b8535945060208601356001600160401b038111156143bc578384fd5b6143c888828901613f9c565b90955093505060408601356143dc81614e97565b949793965091946060013592915050565b600080604083850312156143ff578182fd5b823591506020808401356001600160401b038082111561441d578384fd5b81860187601f82011261442e578485fd5b803592508183111561443e578485fd5b61444b8485850201614e45565b83815284810192508185016060808602840187018b101561446a578788fd5b8793505b85841015614496576144808b83613ff5565b855293860193600193909301929081019061446e565b5096999098509650505050505050565b600080604083850312156144b8578182fd5b505080516020909101519092909150565b60008060008060008060a087890312156144e1578384fd5b863595506020870135945060408701356001600160401b03811115614504578485fd5b61451089828a01613f9c565b909550935050606087013561452481614e97565b80925050608087013590509295509295509295565b60008060006060848603121561454d578081fd5b505081359360208301359350604090920135919050565b60008060008060008060c0878903121561457c578384fd5b863595506020870135945060408701359350606087013561459c81614eaf565b9598949750929560808101359460a0909101359350915050565b6000602082840312156145c7578081fd5b8135611cc981614ed2565b6000602082840312156145e3578081fd5b8151611cc981614ed2565b60008151808452614606816020860160208601614e6b565b601f01601f19169290920160200192915050565b6bffffffffffffffffffffffff19606094851b811682529290931b9091166014830152151560f81b602882015260290190565b6000828483379101908152919050565b6000825161466f818460208701614e6b565b9190910192915050565b6001600160f81b0319815260609390931b6bffffffffffffffffffffffff191660018401526015830191909152603582015260550190565b6001600160a01b0391909116815260200190565b6001600160a01b0397881681529590961660208601526040850193909352606084019190915260ff16608083015260a082015260c081019190915260e00190565b6001600160a01b039384168152919092166020820152604081019190915260600190565b6001600160a01b039384168152919092166020820152901515604082015260600190565b6001600160a01b03929092168252602082015260400190565b6000602080830181845280855180835260408601915060408482028701019250838701855b828110156147ba57603f198886030184526147a88583516145ee565b9450928501929085019060010161478c565b5092979650505050505050565b6020808252825182820181905260009190848201906040850190845b818110156147ff578351835292840192918401916001016147e3565b50909695505050505050565b600060208252611cc960208301846145ee565b60208082526019908201527f54656c65737761705632526f757465723a204558504952454400000000000000604082015260600190565b6020808252601f908201527f54656c657377617056324c6962726172793a205a45524f5f4144445245535300604082015260600190565b60208082526015908201527464732d6d6174682d7375622d756e646572666c6f7760581b604082015260600190565b60208082526014908201527364732d6d6174682d6d756c2d6f766572666c6f7760601b604082015260600190565b60208082526014908201527364732d6d6174682d6164642d6f766572666c6f7760601b604082015260600190565b60208082526031908201527f5472616e7366657248656c7065723a3a7472616e7366657246726f6d3a207472604082015270185b9cd9995c919c9bdb4819985a5b1959607a1b606082015260800190565b60208082526034908201527f5472616e7366657248656c7065723a3a736166655472616e736665724554483a60408201527308115512081d1c985b9cd9995c8819985a5b195960621b606082015260800190565b60208082526026908201527f54656c657377617056324c6962726172793a204944454e544943414c5f41444460408201526552455353455360d01b606082015260800190565b60208082526023908201527f54656c65737761705632526f757465723a20494e56414c49445f4d53475f56416040820152624c554560e81b606082015260800190565b60208082526028908201527f54656c65737761705632526f757465723a204558434553534956455f494e50556040820152671517d05353d5539560c21b606082015260800190565b6020808252602d90820152600080516020614ee283398151915260408201526c13d55514155517d05353d55395609a1b606082015260800190565b60208082526027908201527f54656c65737761705632526f757465723a20494e53554646494349454e545f4260408201526617d05353d5539560ca1b606082015260800190565b6020808252602c90820152600080516020614ee283398151915260408201526b125394155517d05353d5539560a21b606082015260800190565b6020808252602690820152600080516020614ee2833981519152604082015265105353d5539560d21b606082015260800190565b6020808252602990820152600080516020614ee28339815191526040820152684c495155494449545960b81b606082015260800190565b6020808252601e908201527f54656c65737761705632526f757465723a20494e56414c49445f504154480000604082015260600190565b6020808252601f908201527f54656c657377617056324c6962726172793a20494e56414c49445f5041544800604082015260600190565b6020808252602c908201527f54656c65737761705632526f757465723a20494e53554646494349454e545f4f60408201526b155514155517d05353d5539560a21b606082015260800190565b6020808252602d908201527f5472616e7366657248656c7065723a3a736166655472616e736665723a20747260408201526c185b9cd9995c8819985a5b1959609a1b606082015260800190565b60208082526013908201527264732d6d6174682d6469762d62792d7a65726f60681b604082015260600190565b60208082526027908201527f54656c65737761705632526f757465723a20494e53554646494349454e545f4160408201526617d05353d5539560ca1b606082015260800190565b61010081018735614d3f81614e97565b6001600160a01b039081168352602089013590614d5b82614e97565b9081166020840152604089013590614d7282614eaf565b90151560408401526060830197909752608082019590955260a0810193909352931660c082015260e00191909152919050565b90815260200190565b918252602082015260400190565b600085825284602083015260018060a01b038416604083015260806060830152611ca060808301846145ee565b9283526020830191909152604082015260600190565b6000808335601e19843603018112614e15578283fd5b808401803592506001600160401b03831115614e2f578384fd5b602001925050368190038213156134da57600080fd5b6040518181016001600160401b0381118282101715614e6357600080fd5b604052919050565b60005b83811015614e86578181015183820152602001614e6e565b83811115612d665750506000910152565b6001600160a01b0381168114614eac57600080fd5b50565b8015158114614eac57600080fd5b6001600160701b0381168114614eac57600080fd5b60ff81168114614eac57600080fdfe54656c657377617056324c6962726172793a20494e53554646494349454e545fa26469706673582212200159715cb8c126d5f456ed36e33829401bb68e0ddb8243b04410330c89a7943164736f6c63430006060033",
  "linkReferences": {},
  "deployedLinkReferences": {}
}