{
  "_format": "hh-sol-artifact-1",
  "contractName": "ProtocolGovernance",
  "sourceName": "contracts/spirit-v2-farming/utils.sol",
  "abi": [
    {
      "inputs": [],
      "name": "acceptGovernance",
      "outputs": [],
      "stateMutability": "nonpayable",
      "type": "function"
    },
    {
      "inputs": [],
      "name": "governance",
      "outputs": [
        {
          "internalType": "address",
          "name": "",
          "type": "address"
        }
      ],
      "stateMutability": "view",
      "type": "function"
    },
    {
      "inputs": [],
      "name": "pendingGovernance",
      "outputs": [
        {
          "internalType": "address",
          "name": "",
          "type": "address"
        }
      ],
      "stateMutability": "view",
      "type": "function"
    },
    {
      "inputs": [
        {
          "internalType": "address",
          "name": "_governance",
          "type": "address"
        }
      ],
      "name": "setGovernance",
      "outputs": [],
      "stateMutability": "nonpayable",
      "type": "function"
    }
  ],
  "bytecode": "0x608060405234801561001057600080fd5b5061020b806100206000396000f3fe608060405234801561001057600080fd5b506004361061004c5760003560e01c8063238efcbc146100515780635aa6e6751461005b578063ab033ea91461008a578063f39c38a01461009d575b600080fd5b6100596100b0565b005b60005461006e906001600160a01b031681565b6040516001600160a01b03909116815260200160405180910390f35b6100596100983660046101a5565b610133565b60015461006e906001600160a01b031681565b6001546001600160a01b0316331461010f5760405162461bcd60e51b815260206004820152601d60248201527f616363657074476f7665726e616e63653a202170656e64696e67476f7600000060448201526064015b60405180910390fd5b600154600080546001600160a01b0319166001600160a01b03909216919091179055565b6000546001600160a01b031633146101835760405162461bcd60e51b815260206004820152601360248201527239b2ba23b7bb32b93730b731b29d1010b3b7bb60691b6044820152606401610106565b600180546001600160a01b0319166001600160a01b0392909216919091179055565b6000602082840312156101b757600080fd5b81356001600160a01b03811681146101ce57600080fd5b939250505056fea264697066735822122055b298450ec08a964c991e04be5047563ec1a42b57005e23ec51faa9ea369bd164736f6c634300080b0033",
  "linkReferences": {},
  "deployedLinkReferences": {}
}